:100000000C9443030C947B030C947B030C947B03B0
:100010000C947B030C947B030C947B030C947B0368
:100020000C947B030C947B030C94DF140C94031945
:100030000C943C2B0C947B030C947B030C947B035F
:100040000C947B030C947B030C947B030C947B0338
:100050000C947B030C94B8150C947B030C947B03D9
:100060000C947B030C947B030C947B030C947B0318
:100070000C947B030C947B030C947B030C947B0308
:100080000C947B030C947B030C947B030C947B03F8
:100090000C947B030C947B030C947B030C947B03E8
:1000A0000C947B030C947B030C947B0305010902E5
:1000B000A10185020901A1000509190129081500FE
:1000C0002501950875018102050109300931158165
:1000D000257F95027508810609381581257F9501D0
:1000E00075088106050C0A38021581257F95017572
:1000F000088106C0C005010980A101850319012AF4
:10010000B700150126B700950175108100C0050CD8
:100110000901A101850419012AA002150126A002E6
:10012000950175108100C00660FF0961A101096297
:10013000150026FF00952075088102096315002629
:10014000FF00952075089102C005010906A101056F
:100150000719E029E7150025019508750181029529
:1001600001750881010507190029FF150026FF0008
:100170009506750881000508190129051500250156
:10018000950575019102950175039101C00000006C
:10019000000000000000000000000000000000005F
:1001A000000000000000000000000000000000004F
:1001B000007E0F00D4FFFFFFC700000078000000A2
:1001C00000000000002A2B280000000000000000B2
:1001D000000000000000000029000000002C1E3478
:1001E00020212224342627252E362D3738271E1F7E
:1001F000202122232425263333362E37381F0405A9
:10020000060708090A0B0C0D0E0F10111213141516
:10021000161718191A1B1C1D2F3130232D350405F4
:10022000060708090A0B0C0D0E0F101112131415F6
:10023000161718191A1B1C1D2F3130354C000101DF
:100240000101010101010102020202020202020295
:100250000303030303030303040404040404040565
:100260000505050506060606060707070707080829
:100270000808090909090A0A0A0B0B0B0C0C0C0DDA
:100280000D0D0E0E0E0F0F0F101011111112121373
:10029000131414151516161717181819191A1A1BEE
:1002A0001B1C1D1D1E1E1F2020212222232424254D
:1002B0002626272829292A2B2C2D2D2E2F30313286
:1002C00032333435363738393A3B3C3D3E3F404196
:1002D00042434445464748494A4C4D4E4F5051537E
:1002E00054555658595A5B5D5E5F61626465666835
:1002F000696B6C6D6F7072737577787A7B7D7E80B9
:1003000082838587888A8C8E8F91939596989A9C04
:100310009EA0A2A3A5A7A9ABADAFB1B3B5B7BABC18
:10032000BEC0C2C4C6C9CBCDCFD1D4D6D8DBDDDFE9
:10033000E2E4E7E9EBEEF0F3F5F8FAFDFF00100078
:1003400020001101210012022200130323001404D3
:100350002400150525001606260017072700180893
:100360002800190929001A0A2A001B0B2B0040300B
:100370005000413151004232520043335300443463
:100380005400453555004636560047375700483823
:100390005800493959004A3A5A004B3B5B0070609B
:1003A00080007161810072628200736383007464F3
:1003B00084007565850076668600776787007868B3
:1003C0008800796989007A6A8A007B6B8B00A0902B
:1003D000B000A191B100A292B200A393B300A49483
:1003E000B400A595B500A797B700A898B800A9993B
:1003F000B900AA9ABA00AB9BBB2B0014001A0008E4
:1004000000150017001C0018000C00120013002A31
:1004100000E10004001600070009000A000B000DAF
:10042000000E000F0033003400E0001D001B00062A
:10043000001900050011001000360037003800E5F3
:100440000000002452E30021522C002178000028F3
:10045000002252E200E600E40029003A003B003CA2
:10046000003D00480049004A0052004D004B002A60
:1004700000E1003E003F004000410046004C0050BB
:100480000051004F004E003402E00042004300449F
:10049000004500650006011901360237023802E501
:1004A0000000000100E30001002C0021780000287A
:1004B000000100E2000000E40039001E021F0220DB
:1004C000142F020000300224002500260038002AE4
:1004D00000E10034143214250226022D02240221E8
:1004E000002200230030002D00E0002F143014649F
:1004F000006402270227001E001F0020003700E5CD
:100500000000000100E30001002C00217800002819
:10051000000100E2000000E40035002E001F14225C
:100520001421022F00AC00AE00AB00AA00A900A865
:1005300000E100350223021E1435142E0220782318
:10054000782578277829780000E00000002314320D
:10055000002202211421782478267828782A78012C
:100560007C00000100E30001002C0021780000283D
:10057000000100E200000000002900D60000000099
:100580000000000000D900DB00CD00DC00D6000038
:1005900000E100D500D200D300D1000000DA00CF86
:1005A00000CE00D000D5000000E000D400DF00DE67
:1005B00000DD000000D700D100D300D200D400003D
:1005C0000000000100E30001002C00217800002859
:1005D000000100E2000000000009025B00030100CE
:1005E000A0FA090400000103010100092111010022
:1005F00001224400070581030800010904010002EB
:1006000003000000092111010001222200070582D8
:100610000320000107050303200001090402000173
:1006200003000000092111010001227B000705845D
:10063000032000011201000200000008504B30347A
:10064000020001020001220342004D00340030008C
:10065000200048006F007400730077006100700094
:100660002000520047004200000016034B005000DB
:10067000520065007000750062006C006900630044
:1006800000000403090411241FBECFEFDAE0DEBF2F
:10069000CDBF04B603FE18C080913005909131059E
:1006A000A0913205B09133058730904BA740B04BF5
:1006B00059F41092300510923105109232051092C3
:1006C0003305E0E0F8E3099525E0A8E3B2E001C0D6
:1006D0001D92A033B207E1F712E0A0E0B1E0EAE634
:1006E000F8E602C005900D92A833B107D9F70E9431
:1006F000632B0C949F330C940000482F2091F70437
:100700009091BE0457E0291302C080E0089530E0C4
:10071000529FF001539FF00D1124E154FB4F818152
:10072000681306C08081481303C085818111EECF14
:100730002F5F3F4F2770E7CFE8EDF0E080818E7F9D
:1007400080831092E2001092DA001092E100A0EE95
:10075000B0E08C9181608C9380818F77808319BC0D
:10076000A7EDB0E08C918E7F8C9380818F7E80830B
:100770001092930408952091E4003091E50095E6ED
:10078000A9012091EC00822F817020FF06C080918A
:10079000E80080FF06C080E008952091E80022FD77
:1007A0001AC08091A004882389F0853089F0809157
:1007B000EB0085FD0FC02091E4003091E500421769
:1007C0005307F9F29150E1F684E0089582E008952C
:1007D00083E0089581E008958091A20487FF13C00B
:1007E0008091E80082FF06C08091E8008B778093BB
:1007F000E80004C08091A0048111F2CF0895809197
:10080000A0048823D9F38091E80080FFF8CF80917D
:10081000E8008E77ECCF982F9093E900242F762F65
:1008200050E0891731F07091EC002091ED0050916B
:10083000F00021FD07C09F5F973071F78093E900BA
:1008400081E008953091EB003E7F3093EB003091D2
:10085000ED003D7F3093ED003091EB00316030933F
:10086000EB007093EC002093ED005093F00020918A
:10087000EE0027FDE0CF80E00895B0E0A0E0E3E4E3
:10088000F4E00C942132C8EDD0E088818F7E88831B
:10089000E7EDF0E080818160808384E082BF81E0C9
:1008A0008093930488818E7F888302EE10E0F801A4
:1008B00010821092DA0081EEC82ED12CF60110823F
:1008C00088818F77888388818068888388818F7DFD
:1008D000888319BC1092A0041092A10410929F0466
:1008E00010929E0490EEE92EF12CF70180818B7F0F
:1008F000808388818160888342E060E080E00E949C
:100900000B04F60180818E7F8083F80180818160F5
:100910008083808188608083F70180818E7F8083DF
:10092000888180618883CDB7DEB7E8E00C943D32E2
:10093000FC018091A8049091A90486179707A0F064
:100940006115710529F49091E8009E779093E80075
:1009500090E06115710551F4911108C08091E80093
:1009600082FF34C080E00895BC01F2CF8091A004E2
:100970008823C1F18530C1F18091E80083FD30C04A
:100980008091E80082FDEACF8091E80080FFE1CF0E
:100990008091F3002091F200382F6115710519F054
:1009A0002830310558F091E02830310509F090E009
:1009B0002091E8002E772093E800CBCF819180939F
:1009C000F100615071092F5F3F4FE7CF8091A00484
:1009D000882341F0853041F08091E80083FFBECF4D
:1009E00081E0089582E0089583E00895089580915C
:1009F000950408952FB7F89460918F047091900436
:100A000080919104909192042FBF08959C01FC0164
:100A100032969FEF80E04191461751F09F3F19F4C5
:100A2000411101C0982F8F5F8630A9F79F3F09F4CD
:100A30000895290F311D97FD3A95F90162830895B4
:100A4000A3E0B0E0E6E2F5E00C94273220918C04BC
:100A500030918D0428173907A1F090938D0480936D
:100A60008C04E0918A04F0918B04309751F024E0DB
:100A700029839B838A830084F185E02DCE01019632
:100A800009952396E2E00C944332A3E0B0E0EBE456
:100A9000F5E00C94273220918804309189042817BE
:100AA0003907A1F09093890480938804E0918A0427
:100AB000F0918B04309751F023E029839B838A8344
:100AC0000084F185E02DCE01019609952396E2E0A0
:100AD0000C944332E0918A04F0918B04309729F012
:100AE0000190F081E02D0995089580E008958091AE
:100AF0007D0480FD16C081FD16C082FD16C0809168
:100B00007C048823A1F0883280F428E0829FC00111
:100B1000112468E270E00E944E32862F672B39F074
:100B2000089582E0089584E0089588E0089581E0C2
:100B3000089580917D0480FD14C081FD14C082FD64
:100B400016C080917B04882381F08E3180F420E5EB
:100B5000829FC00111246EE170E00E944E32862F08
:100B6000089584E1089588E2089588E0089580E575
:100B70000895282F35EB2303C001112497FF04C0EB
:100B800080589109892F089580589F4FFBCFFA0113
:100B9000811101C0FB0109950895ECEFF4E0248177
:100BA00030E1231B08F420E024838091A0038160BE
:100BB0008093A0030895ECEFF4E0248130E1230F4B
:100BC00008F42FEF24838091A00381608093A00319
:100BD00008959091FC04937071F08093FD046093EC
:100BE000FE04473908F046E94093FF048091A003D2
:100BF000822B8093A0030895ECEFF4E0438120E181
:100C0000421B08F440E0818121E0628190E00E9473
:100C1000E9050895ECEFF4E0438120E1420F08F488
:100C20004FEF818121E0628190E00E94E905089503
:100C3000ECEFF4E0628120E1621B08F460E0818166
:100C400021E0438190E00E94E9050895ECEFF4E093
:100C5000628120E1620F08F46FEF818121E043811E
:100C600090E00E94E9050895ECEFF4E0818121E035
:100C7000438162818850990B0E94E9050895ECEF49
:100C8000F4E0818190E021E04381628108960E9436
:100C9000E90508959091FC04937061F081110BC0F7
:100CA00094609093FC04109212018091A003862B13
:100CB0008093A00308958D3210F0906BF2CF880FCF
:100CC000880F982BEECF8091FC04869586958150F5
:100CD00009F48CE261E00E944A0608958091FC04C8
:100CE000869586958F5F8D3208F081E061E00E94E5
:100CF0004A0608959AE0899F802D1124980F903319
:100D000008F09FE20895EF92FF920F939701201B46
:100D100031092F3F310519F010F02FEF30E0209509
:100D2000382F320F08F43FEF832F0F91FF90EF9091
:100D30000895EF92FF920F939701201B31092F3FE7
:100D4000310519F010F02FEF30E0322F3095482F99
:100D5000430F08F44FEF842F620F0F91FF90EF9035
:100D60000895EF92FF920F93972F093438F4B7014B
:100D7000601B71096F3F710519F010F06FEF70E0A3
:100D8000485F5F4F4131510540F0A901485F5F4F17
:100D90004131510510F06FEF70E06095482F460F1C
:100DA00008F44FEF842F37FF02C02D5F3F4F35957A
:100DB0002795359527956091FD04620F792F0F9146
:100DC000FF90EF900895EF92FF920F931F930E0DF7
:100DD0001F2D111DF90137FF03C0F195E195F109B0
:100DE00024E0EE0FFF1F2A95E1F7EF3FF10519F020
:100DF00014F0EFEFF0E09A0157FF03C03195219511
:100E0000310994E0220F331F9A95E1F72E173F071F
:100E10000CF4F901E00FF11FEF3FF10519F010F0AC
:100E2000EFEFF0E0E095282F3E2F230F08F42FEF8F
:100E3000822F1F910F91FF90EF900895EF92FF92F4
:100E40000F93970195E0099F200D311D11242F3F2D
:100E5000310519F010F02FEF30E02095382F320FC8
:100E600008F43FEF832F0F91FF90EF90089522E851
:100E7000241B08F420E0620F08954095282F429F1C
:100E8000412D1124842F0895E42FF0E0EE0FFF1F71
:100E9000E655FE4F9081921B97FD9195292F38E1E1
:100EA000239F212D1124620F08950F931F9310E0AB
:100EB000F801EE0FFF1FE655FE4F9081905797FD0A
:100EC0009195000F111FF801E658FE4F01A900523D
:100ED000110B2003F001219FF00D112408E310E015
:100EE000091B110997FD139540039001419F300D97
:100EF0001124E20FF31F9F01220F331F2E0F3F1FFC
:100F000037FF02C021583F4F220F232F221F330BE0
:100F1000620F1F910F9108950F931F93522F10E0AE
:100F2000F801EE0FFF1FE658FE4FA1A9A052BB0B20
:100F30009D015203F001539FF00D1124000F111F6A
:100F4000D801A655BE4F0C910057110B40039001DC
:100F5000419F300D11242E0F3F1F37FF02C0215C2F
:100F60003F4F96E0359527959A95E1F7620F1F91CF
:100F70000F9108950F931F93522F10E0F801EE0F79
:100F8000FF1FE658FE4FA1A9A052BB0B9D015203C3
:100F9000F001539FF00D1124000F111FD801A65529
:100FA000BE4F0C910057110B40039001419F300D33
:100FB00011242E0F3F1F37FF02C021583F4F220F31
:100FC000232F221F330B620F1F910F910895EF9271
:100FD0000F93972F23E0029FB00111247595679519
:100FE0006E0D792F0F91EF900895322F50E0FA0196
:100FF000EE0FFF1FE658FE4F91A9905297FD919575
:10100000440F551FFA01E655FE4F2081231B330B79
:10101000290F311D97FD3A95620F0895E42FF0E0F6
:10102000EE0FFF1FE658FE4F61A9621B0895E42FE3
:10103000F0E0EE0FFF1FE655FE4F6081621B089542
:10104000622F0895E42FF0E0EE0FFF1FE655FE4FEC
:10105000408134EE439F412D1124E82FF0E050E011
:10106000445E5F4FDA01A21BB1099D01B7FF03C0C7
:1010700031952195310993E0220F331F9A95E1F7BD
:10108000AF01421B530B9A0157FD20E0582F259FBB
:10109000212D1124822F0895E42FF0E0EE0FFF1F81
:1010A000E655FE4F408134EE439F412D1124E72F3A
:1010B000F0E050E0445E5F4FDA01A21BB1099D01F0
:1010C000B7FF03C031952195310993E0220F331FFB
:1010D0009A95E1F7AF01421B530B9A0157FD20E0AF
:1010E000279F212D1124722F08950E940A1308951D
:1010F0000E94B3120895FC019B01009729F480E03F
:1011000077FF2BC080E80895AC0197FF04C0442707
:101110005527481B590BB901640F751F37FD10C0C7
:10112000241B350BC901A5E0880F991FAA95E1F78B
:101130000E944E3280E2861BF7FF0FC08195089512
:10114000CB0165E0880F991F6A95E1F7BA01621B30
:10115000730B0E944E3280E6EECF0895EF920F930C
:10116000CF93DF93D72FC82FC9010E19BA010E9460
:101170007B08602F681B7D2F8C2FDF91CF910F9103
:10118000EF9008950F93CF93DF93D72FC82FC90106
:10119000BA010E947B08682F600F7D2F8C2FDF9192
:1011A000CF910F910895EF920F931F93CF93DF93F9
:1011B000D62FC72F182FC9010E19010FBA010E948F
:1011C0007B08081B202F219F212D1124822F6D2F9A
:1011D0007C2FDF91CF911F910F91EF900895EF92A7
:1011E0000F931F93CF93DF93D62F172FC82FC901CB
:1011F0000E19070FBA010E947B08702F781B719F90
:10120000712D11246D2F8C2FDF91CF911F910F9194
:10121000EF9008950F931F93CF93DF93D62FC72F8F
:10122000182FC901212F201B022FBA010E947B0811
:10123000982F990F990F891B800F282F219F212DFF
:101240001124822F6D2F7C2FDF91CF911F910F9151
:1012500008950F931F93CF93DF93D62F172FC82F87
:10126000C901272F201B022FBA010E947B08982F4B
:10127000990F990F782F791B700F719F712D112481
:101280006D2F8C2FDF91CF911F910F910895E82F33
:1012900086FDE0952E2F2F7086FD2F5FE695E69553
:1012A000E695E670F0E0ED59FE4F9181929F902D0A
:1012B000212D112492959F702295207F922B2081C1
:1012C000920F87FD919580E8890F08950F931F93E2
:1012D000CF93DF938B01D82FC42F822F0E94470911
:1012E000EC2FF0E0EE0FFF1FE655FE4F9081905877
:1012F000890F87FD8195880F682F2CE0629F612DF3
:101300001124600F712F8D2FDF91CF911F910F91BD
:10131000089540910E0150910F0125E038E0429F61
:10132000C001439F900D529F900D1124875E994CF0
:1013300090930F0180930E01890F0895AC018230C4
:10134000910508F408959FEF413E8EE1580740F45F
:101350009A0195E0369527959A95E1F798E0920FD6
:1013600061E0E62FE90FFF27FF1F9F0135952795C5
:10137000822F229FF001239FF00DF00D11244E17B4
:101380005F0738F49FEF920F961758F78FEF860F8D
:1013900008952F3FE9F361E0620FF6CF0F93CF93EB
:1013A000DF93D72FC82F47FD419588E390E0841B3A
:1013B000910947FD9395889FB001899F700D700D2D
:1013C0001124229FC001239F900D900D1124860FA0
:1013D000971F0E949E09982F990F890F682F600F01
:1013E0007D2F8C2FDF91CF910F91089530E020E079
:1013F000869F212D969F200D311D1124C90108952E
:101400002091000530E1230F08F42FEF60E1822FD7
:1014100090E00E94F609BC0188EB9BE00E94033239
:1014200090E080E00895AF92BF92CF92DF92FF925A
:101430000F931F93CF93DF93362F472FE82FF0E0C2
:10144000E35CFD4F71110FC0E4918E2F2E2F6E2F94
:10145000722FDF91CF911F910F91FF90DF90CF906E
:10146000BF90AF900895C72FD0E02491F22E022FA5
:1014700010E056E0659FC0011124EFEFF0E0BF01DE
:101480000E940332832F90E0880F991F35E5369F25
:10149000D001379FB00D11248A1B9B0B982F990FF9
:1014A000980F6F01CC1ADD0AC09ED001C19EB00D0D
:1014B000D09EB00D11248B2F499FA0011124452FE0
:1014C00055276F01C41AD50AC09EA001C19E500DB8
:1014D000D09E500D11245F01A91AB108AC9E600185
:1014E000AD9ED00CBC9ED00C1124CD2CDD24EC196B
:1014F000FD09E09FE001E19FD00DF09FD00D112488
:10150000ED2F62307105A1F050F46115710509F4F9
:101510009ECF6130710581F0EB2F852F98CF64301D
:10152000710569F080F06630710509F490CFF4CF51
:10153000E22F2B2F8D2F8BCFE22F252F88CFEB2F54
:10154000822F2D2F84CF2B2F8F2DE52F80CFB0E032
:10155000A0E0EDEAFAE00C9422328C01FC01E85F95
:10156000FD4F8081682349F1D090FE04D091FF04A3
:10157000C091FD04EC2EF12C0E948909282FC7018F
:101580008C549F4F68E671E00E944E328E199F097D
:1015900097FD0396959587959595879523706C2F64
:1015A000289F600D11247D2D8D2F0E94130A462F38
:1015B000282F672FC8010E947808CDB7DEB7E7E073
:1015C0000C943E322F923F925F926F927F928F9255
:1015D0009F92AF92BF92CF92DF92EF92FF920F93C2
:1015E0001F93CF93DF93CDB7DEB729970FB6F8944B
:1015F000DEBF0FBECDBF89837D836C8380911401D4
:101600000E947A069A83209104052B83E82FF0E04C
:10161000F987E887CF01880F991F9C0126583E4F14
:1016200069013981832F90E0FC013196FF83EE83BD
:101630008A8198859817E8F081E0EA81EF3208F016
:1016400080E029960FB6F894DEBF0FBECDBFDF91C4
:10165000CF911F910F91FF90EF90DF90CF90BF90AF
:10166000AF909F908F907F906F905F903F902F9062
:101670000895E885F985E85FFD4F80819091150117
:101680008923F1F02090FD043090FE042E813F81EB
:101690002C5F3A4F3901598010E0FB815F16D0F082
:1016A0002091FF04129F112D1124B101812F0E945E
:1016B000130A462F282F672F888599850E9478085E
:1016C000288539852F5F3F4F3987288732E0C30E41
:1016D000D11CAECFF30181913F01F601A0A8A81A59
:1016E000BB0881A8F3018781881A9908AA9C9001F8
:1016F000AB9C300D300D1124889CC001899C900D4D
:10170000900D1124820F931F0E949E09082F609153
:10171000000521E0620F08F46FEFF301EE0FFF1FE9
:10172000E450F540858996890E94F6097C01940170
:10173000A501B101812FEC81FD8109951B01539415
:10174000182FABCFB0E0A0E0E8EAFBE00C94223227
:101750008C01809114010E947A06C82FD92E209105
:10176000000531E0230F08F42FEF30E050E040E0B7
:101770006FEF7FEF80E090E00E943C337901D0E092
:101780002C2FCD1550F081E0FEE2FD1508F480E02D
:10179000CDB7DEB7E7E00C943E32FE01E85FFD4FC7
:1017A000808190911501892311F1409104054150E8
:1017B000042E000C550B47FF1CC0C70160910005AB
:1017C00021E0620F08F46FEF0E94F609AC0160910E
:1017D000FD047091FE048091FF04F80109950E94B8
:1017E000130A462F282F672FCE010E9478082196D2
:1017F000C7CFFA01EC5FFA4F818982130AC0FA0160
:10180000EE0FFF1FEC5FFA4F818D928D8E159F05B5
:10181000A8F241505109CFCFEF92FF920F931F933F
:10182000CF93DF937C01809114010E947A06C82F28
:10183000192F609100056695669521E0620F08F406
:101840006FEF8091F8049091F9040E94F609082F37
:10185000D0E0C11748F081E01F3208F080E0CDB73A
:10186000DEB7E6E00C943F32FE01E85FFD4F808179
:1018700090911501892391F06091FD047091FE040F
:101880008091FF04202F4C2FF70109950E94130A25
:10189000462F282F672FCE010E9478082196D9CF96
:1018A000B0E0A0E0E6E5FCE00C941F326C01809112
:1018B00014010E947A06C82FF92E609100056695E2
:1018C00066958091F8049091F9040E94F609182F0A
:1018D00080E4810F0E94470990E8B92EB80E812F4D
:1018E0000E94470920E8A22EA80ED0E0CF1550F0A4
:1018F00081E09EE29F1508F480E0CDB7DEB7EAE014
:101900000C943B32FE01E85FFD4F80819091150100
:101910008923A1F06091FD047091FE048091FF0481
:10192000E12E0C2F2A2D4B2DF60109950E94130A4A
:10193000462F282F672FCE010E9478082196D6CFF8
:10194000B0E0A0E0E6EAFCE00C941B323C018091A0
:1019500014010E947A06C82F192F60910005669520
:101960008091F8049091F9040E94F609F82ED0E0D5
:10197000CE01880F991F9C0126583E4F6901C1175F
:1019800048F081E01F3208F080E0CDB7DEB7EEE02E
:101990000C943732FE01E85FFD4F80819091150174
:1019A000892379F1F60180A9282F2057330B59019B
:1019B00081A9E82FE052FF0B4F01AA9C9001AB9C3C
:1019C000300D300D1124EE9FC001EF9F900D900D52
:1019D0001124820F931F0E949E09082F6091FD041D
:1019E0007091FE048091FF04EF2C9401A501F30196
:1019F00009950E94130A462F282F672FCE010E94B7
:101A00007808F2E0CF0ED11C2196B9CFB0E0A0E06B
:101A1000ECE0FDE00C9420326C01809114010E94F6
:101A20007A06C82F192F6091000566958091F804F9
:101A30009091F9040E94F609B82ED0E0CE01880FEB
:101A4000991F9C0126583E4F7901C11748F081E04B
:101A50001F3208F080E0CDB7DEB7E9E00C943C32ED
:101A6000FE01E85FFD4F8081909115018923C1F04F
:101A7000F70121A92052330B40A94057550B609123
:101A8000FD047091FE048091FF040B2DF601099571
:101A90000E94130A462F282F672FCE010E94780834
:101AA000F2E0EF0EF11C2196D0CF1F93CF93DF937E
:101AB000EC01FC01E85FFD4F80816823B1F00E94DA
:101AC0008909182F0E94890920E8829FC0011124EA
:101AD0007FE7790F612F8091FF040E94130A462F40
:101AE000282F672FCE010E947808DF91CF911F9198
:101AF000089580E00895F894E82FE295EF70F0E003
:101B000031A1282F2F7081E090E001C0880F2A9525
:101B1000EAF7982F9095932391A392A1892B82A302
:101B2000789408959091780292FF10C041E0282F98
:101B30002471243009F040E031E0282F287128304A
:101B400009F030E0431711F02CE0822793FF10C01A
:101B500041E0282F2471243109F040E031E0282FA2
:101B60002871283109F030E0431711F02CE082276A
:101B70003091790230FF10C051E0282F21712130BF
:101B800009F050E041E0282F2871283009F040E0AA
:101B9000541711F029E0822731FF10C041E0282FAF
:101BA0002171213109F040E031E0282F28712831DE
:101BB00009F030E0431711F029E0822794FD877E79
:101BC000089582389105B9F1B0F48133910509F493
:101BD0007DC048F48932910509F46DC08A329105BF
:101BE00009F47BC008958533910509F45FC08933FA
:101BF000910509F10895833E9105D9F138F4803EAD
:101C0000910529F1823E910579F10895863E91056D
:101C1000D9F1873E910509F43EC0843E910541F516
:101C20002091790221FF24C08091780284FD19C09F
:101C300087EE90E0089520917802237009F05AC051
:101C40002091790223FF14C089E290E00895209149
:101C5000780220FD38C03091790230FF09C024FF9E
:101C600043C090E080E008952091780222FDF7CFF4
:101C700008952091780222FD3AC03091790230FD1A
:101C800039C024FFF5CFEDCF2091780223FFF0CFAC
:101C900024FDE7CFCDCF2091780223FD2EC03091D7
:101CA000790231FFEECF84EE90E008952091780222
:101CB00025FFDECFC9CF2091780225FD21C02091DC
:101CC000790223FFD5CF89E390E0D2CF209178022B
:101CD00026FFCECF8AE290E008952091780226FF79
:101CE000C7CF81E390E0089583EE90E0089582EEFF
:101CF00090E0089580EE90E0089586EE90E00895DB
:101D000085E390E008951F93CF93DF930E94E10D48
:101D1000EC01C11580E5D807F0F5C11580E4D807BE
:101D200008F09CC0C03ED10520F5CD3CD10508F09F
:101D300082C0C83AD10578F4C53AD10508F073C01D
:101D4000C130D10519F1209709F1C430D105F0F463
:101D5000D0E0C0E01BC0C33CD105D0F7C85AD0E0EA
:101D6000CC0FDD1FC35EDE4F0990D881C02DD46437
:101D70000DC0C11580E2D80708F0D1C0C11581E0BF
:101D8000D80708F05AC0C83ED10510F7CE01DF9140
:101D9000CF911F910895C03682E5D80718F5C03459
:101DA00082E5D80708F06BC0C03282E5D80708F09A
:101DB0005FC0C11582E5D80708F497C02C2F26957F
:101DC000269580E2289F900111248C2F8370C1E01A
:101DD000D0E002C0CC0FDD1F8A95E2F7C22BD32BD7
:101DE000DD68D4CFC03A82E5D80760F4C03882E518
:101DF000D80708F459C0CF71D0E0DC2FCC27C46FCE
:101E0000D06AC4CFC03C82E5D80708F462C0C03EA7
:101E100082E5D80708F09CCFDC2FCC27CC27DF71D8
:101E2000C06FD06AB3CFC55AD0E0C65EDE4FC8815E
:101E3000D0E0D064ABCFD065A9CF8D2F0E94920D9A
:101E4000182FCE0199270E94E10DC12FD0E0DC2F81
:101E5000CC27CC27DF71C82BD92B98CFCE0199275F
:101E60000E94E10DCC27DF70C82BD92BD06A8ECF12
:101E7000CF71D0E0DC2FCC27C16FD06A87CF2C2F59
:101E800026952695277080E2289F900111248C2F9B
:101E90008370C1E0D0E002C0CC0FDD1F8A95E2F76D
:101EA000C22BD32BDC6872CF2C2F2695269527705A
:101EB00080E2289F900111248C2F8370C1E0D0E034
:101EC00002C0CC0FDD1F8A95E2F7C22BD32BDA6854
:101ED0005DCF8C2F8F710E94920DC82FD0E0DC2F28
:101EE000CC27CC27DF71D06251CF8C2F8F710E940D
:101EF000920D55E0D695C7955A95E1F7CF70D0E091
:101F0000DC2FCC27282F30E084FF05C044E0220FCF
:101F1000331F4A95E1F7C22BD32BD06937CF8D2FD2
:101F20008F710E94920D182FCE0199270E94E10D0A
:101F3000C12FD0E0DC2FCC27CC27DF71C82BD92BC9
:101F4000D2CF80959091680298239093680208956B
:101F50008091F7049091BE04981301C008958F5F9B
:101F60008770FACF292F943078F58C3068F590E09F
:101F70003CE0239F800D911D1124682F677023E0A2
:101F8000969587952A95E1F7FC01EE0FFF1FE80F64
:101F9000F91FEC5BFD4F50E040E080E0219130E024
:101FA000062E02C0369527950A94E2F72170332752
:101FB000042E01C0220F0A94EAF7822B4F5F5F4F75
:101FC0004330510559F7089580E00895292F943042
:101FD00098F58C3088F590E03CE0239F800D911DB2
:101FE0001124282F277041E001C0440F2A95EAF7F9
:101FF00023E0969587952A95E1F7FC01EE0FFF1FE8
:10200000E80FF91FEC5BFD4F30E020E070E05191EC
:10201000DF011197CB01022E02C0969587950A9495
:10202000E2F7817081958527842385278C932F5F24
:102030003F4F2330310559F70895982F9670963009
:1020400021F48860809377020895877FFBCF909179
:10205000770221E030E0F90101C0EE0F8A95EAF73E
:10206000D90102C0AA0FBB1F6A95E2F7EA2B01C093
:10207000220F4A95EAF7892F8E23E81305C0292BF2
:10208000822F0E941D10089520952923F9CF21E069
:1020900030E001C0220F8A95EAF7209580917702FF
:1020A00082230E941D10089590915D0280958923DE
:1020B00080935D02282F277069F4891759F0909159
:1020C000790292FF07C08695869586950E944710F3
:1020D00010925D02089521E030E001C0220F8A9540
:1020E000EAF780917702822B0E941D100895809359
:1020F000690208958093AA046093AB0424E630E05B
:1021000042E050E06AEA74E080EA0E94E23121E0B5
:10211000892B09F020E0822F08950F931F93CF930E
:10212000DF938B01EA019091A004943061F58093D4
:10213000E9008FEF9091E800815095FD06C095ED84
:102140009A95F1F700008111F5CF8091E80085FFA5
:102150001AC00E94BB03811111C08091E80085FD67
:1021600006C08091E8008E778093E800F2CFF801F6
:1021700081918F018093F100219779F78091E80098
:102180008E778093E800DF91CF911F910F91089592
:1021900043E050E0BC0184E00E948D10089546E0C9
:1021A00050E0BC0184E00E948D100895CF93DF932E
:1021B000EC0148E050E0BC0181E00E948D1088E015
:1021C000FE01A6E9B4E001900D928A95E1F7DF9156
:1021D000CF91089581E08093E00080E28093D80061
:1021E0001092C9008FE19EE40197F1F700C0000052
:1021F00087E090EBDC018093300590933105A0934C
:102200003205B093330588E19CE00FB6F894A895A9
:10221000809360000FBE90936000FFCFCF93C82FD4
:102220006FEF811163E285E290E00E9418336FEF57
:10223000C11162E186E290E00E9418336FEFC11194
:1022400068E087E290E00E941833CF910895CF9321
:10225000DF93C9E0D2E060E0CE010E9418332196FE
:10226000C11584E0D807B9F7DF91CF9108951F9386
:10227000CF93DF93122F8530E0F46430D0F44C30EC
:10228000C0F4C42FD0E0CC0FDD1F98E1699FC00DD2
:10229000D11D112490E6899FC00DD11D1124632FFB
:1022A000CE0189960E941833612FCE018A960E9432
:1022B0001833DF91CF911F910895AF92BF92CF92C3
:1022C000DF92EF92FF921F93CF93DF9389EFC82E97
:1022D00083E0D82ED0E07601C0E014C0F50125914E
:1022E0003491412F6C2F8D2F0E94371182E0A80E60
:1022F000B11C1F5F1C3091F788E1E80EF11CCF5F25
:10230000C43019F0570110E0E9CFDF5F80E6C80E56
:10231000D11CD53001F7DF91CF911F91FF90EF9045
:10232000DF90CF90BF90AF90089580E00E940E1193
:1023300060E088E290E00E9418330E945D110E94E4
:10234000271181E00E940E11089585E290E00E941D
:10235000FA32833289F486E290E00E94FA328231C6
:1023600059F487E290E00E94FA3291E0883009F057
:1023700090E0892F8170089580E0FCCF0F931F9328
:10238000CF93DF93853030F5643020F54C3010F575
:10239000C42FD0E0CC0FDD1F28E1629FC00DD11DFE
:1023A000112430E6839FC00DD11D1124CE018996E2
:1023B0000E94FA32082F10E0102F0027CE018A96D3
:1023C0000E94FA329801282BC901DF91CF911F9109
:1023D0000F91089590E080E0F8CF462F743040F4DC
:1023E0006C3030F4853020F4672F0E94BE110895C0
:1023F00090E080E00895CF92DF92FF920F931F93B9
:10240000CF93DF936C010091770280916902082BD2
:10241000C4E0D0E010E0FC2EC8010C2E02C095955F
:1024200087950A94E2F780FD0CC02197A0F7F12C64
:102430008F2DDF91CF911F910F91FF90DF90CF9063
:102440000895B6018C2F0E94ED110E94830E019712
:1024500061F3EECFCF93DF93EC010E94FB11BE013D
:102460000E94ED110E94830EDF91CF910895FC012F
:1024700024812223C1F0808191810E942A129295A9
:102480009F70963091F058F4925F9F70923058F49C
:10249000803F19F030F4883E30F481E008959A5F6F
:1024A000F4CF843FD1F380E00895883EB0F3813FBC
:1024B000D1F7F3CFA6E0B0E0E0E6F2E10C942632EB
:1024C00049835A8349815A819923A1F0222391F0AB
:1024D000CA010E94FB11182F682F89819A810E94DE
:1024E000E60F69817A81812F0E94ED112696E3E043
:1024F0000C944232CA010E94B20F182FF2CFCF9330
:10250000DF9380917A04882339F165EC8EEF0E9485
:102510007A1061E08DEF0E947A10D0E0C0E0C093A5
:10252000AA0480E1FE01E654FC4FABEAB4E001905E
:102530000D928A95E1F724E630E041E150E06AEA45
:1025400074E080EA0E94E231892B49F46096C03C35
:10255000D10529F710927A04DF91CF91089581E097
:102560008093B903F7CFA4E0B0E0E9EBF2E10C947B
:102570002432F62E042F122F8F32910508F046C018
:10258000880F991F880F991FBC01635C7C4F44E042
:1025900050E0CE0101960E94CB32898183702A815E
:1025A00030E0482F50E060EC869FC0011124865433
:1025B0009C4FFC01E20FF31F7081EB816C817F1156
:1025C0000CC0DC01AE0FB11D7C91701306C0860FEC
:1025D000911DDC018C918117C9F070EC749FC001D2
:1025E000759F900D112486549C4F280F391FD901D7
:1025F000FC92E80FF92FF11D0083860F911DFC015D
:10260000108346585B4F81E0DA018C932496E5E015
:102610000C944032FF920F931F93CF93DF93182FA8
:10262000062FF42ED0E0C0E02F2D402F612FCE01D9
:102630000E94B3122196CF32D105B1F7CDB7DEB7E4
:10264000E5E00C944032A4E0B0E0E9E2F3E10C9460
:1026500021320E94423165EC8EEF0E947A1060E0D8
:102660008DEF0E947A1010E060E0812F0E947A10B6
:102670001F5F1831C9F765EC8EEF0E947A1061E098
:102680008DEF0E947A1010E060E0812F0E947A1096
:102690001F5F103CC9F765EC8EEF0E947A1063E073
:1026A0008DEF0E947A1060E08FE00E947A1060E067
:1026B00080E10E947A106FEF81E00E947A1061E061
:1026C00080E00E947A108FE39CE90197F1F700C047
:1026D00000000DE313E098E1C92EEE24E394F12C01
:1026E000DD24D39444E050E0B801CE0101960E946D
:1026F000CB326A815B814C818981837090E0E62FC7
:10270000E695E695E695C89E9001C99E300D112488
:102710002F553C4FE20FF32FF11D6770D70101C019
:10272000AA0F6A95EAF760816A2B6083E52FE69528
:10273000E695E695E20FF32FF11D5770B70101C042
:10274000660F5A95EAF75081562B5083E42FE69591
:10275000E695E695E20FF32FF11D4770970102C051
:10276000220F331F4A95E2F7A9012081242B2083F1
:1027700087549C4FFC01D0820C5F1F4FF3E0093F50
:102780001F0709F0AFCF65EC8EEF0E947A1060E072
:102790008DEF0E947A1081EAE82E83E0F82E10E097
:1027A000F70161917F01812F0E947A101F5F18311C
:1027B000B9F71092B9032496E8E00C943D3248E052
:1027C00050E068E170E08CEF94E00E9408331092D2
:1027D000A0030895ECEFF4E085E380838091170176
:1027E00090911801A091190181839283A3838FE7AF
:1027F00084838FEF85830E94DF130895909179027F
:1028000092FB222720F9281779F080FB92F9909308
:102810007902609178027091790284E090E00E94E0
:10282000363382E00E945410089590E080E00E94C8
:102830000233863E9E4F19F40E94A511089580E050
:1028400008952091680280915F02282B80915E029A
:10285000882381F0282B30E08CE392E0FC01419149
:10286000CF0141113F5FF2E082349F07B9F7311188
:1028700010925E0220933A0248E050E060E672E077
:102880008AE392E00E94D432892BA9F088E0EAE33F
:10289000F2E0A0E6B2E001900D928A95E1F7E091B6
:1028A0008A04F0918B04309731F00280F381E02D9F
:1028B0008AE392E009950895882321F00E94A10FF0
:1028C0000E9421140895882339F090916802982B72
:1028D000909368020E9421140895A8E0B0E0E3E715
:1028E000F4E10C94273266EE7EEF90E080E00E94E7
:1028F000363360E082E090E00E94183381E08093FC
:10290000690261E083E090E00E94183360E074E1C6
:1029100084E090E00E94363360E086E090E00E9420
:1029200018336FEF87E090E00E94183340E050E0EA
:10293000BA0188E090E00E942A3360E084E290E0EF
:102940000E94183360E087E190E00E94183360E055
:102950008CE090E00E94183360E08DE090E00E94EF
:10296000183319821A821B821C821D821E821F82CA
:10297000188648E050E068E170E0CE0101960E94C0
:10298000083340E050E0BA0180E290E00E942A3330
:1029900080E00E940E110E94951140E050E0BA01C3
:1029A0008FE090E00E942A3340E050E0BA0183E1DA
:1029B00090E00E942A332896E2E00C9443321F9262
:1029C0000F920FB60F9211242F933F934F935F9363
:1029D0006F937F938F939F93AF93BF93EF93FF93E7
:1029E0008091E10082FF09C08091E20082FF05C072
:1029F0008091E1008B7F8093E1008091DA0080FF7D
:102A000024C08091D80080FF20C08091DA008E7FA2
:102A10008093DA008091D90080FF9DC080E189BD5C
:102A200082E189BD09B400FEFDCF81E08093A0045E
:102A300080919304811109C00E949C030E943D046F
:102A40008091E20084608093E2008091E10080FF49
:102A500017C08091E20080FF13C08091E2008E7F5A
:102A60008093E2008091E20080618093E200809197
:102A7000D80080628093D80019BC85E08093A004C0
:102A80008091E10084FF2BC08091E20084FF27C089
:102A900080E189BD82E189BD89B5982F917080FF61
:102AA000FBCF8091D8008F7D8093D8008091E1008A
:102AB0008F7E8093E1008091E2008F7E8093E20020
:102AC0008091E20081608093E2008091A1048823DC
:102AD00009F447C084E08093A0048091A004809111
:102AE000E10083FF27C08091E20083FF23C0809133
:102AF000E100877F8093E10082E08093A004109240
:102B0000A1048091E1008E7F8093E1008091E2003A
:102B10008E7F8093E2008091E20080618093E200EA
:102B200042E060E080E00E940B048091F000886049
:102B30008093F000FF91EF91BF91AF919F918F91A2
:102B40007F916F915F914F913F912F910F900FBEA9
:102B50000F901F90189519BC1092A0041092930426
:102B600074CF8091E30087FD93E09093A004B5CFEC
:102B700078941F921FB61F9211248F939F93AF9347
:102B8000BF9380918F0490919004A0919104B09193
:102B900092040196A11DB11D80938F04909390041F
:102BA000A0939104B0939204BF91AF919F918F91A4
:102BB0001F901FBE1F9018959C014FB7F8948091ED
:102BC0008F0490919004A0919104B09192044FBF12
:102BD000821B930B08952FB7F89480918F049091E6
:102BE0009004A0919104B09192042FBF08950E9487
:102BF000EB159C019091840480918504982B21F021
:102C000030938104209380049091860480918704FE
:102C1000982B21F030937F0420937E04E0918A0466
:102C2000F0918B04309749F082E080938204068013
:102C3000F781E02D82E894E009950895CF931092F2
:102C40006802C6E0ECE3F2E0DF018C2F1D928A956A
:102C5000E9F790E080E00E94450590E080E00E9466
:102C6000200510925F020E942114E2E8F4E0DF01E7
:102C70001D92CA95E9F710927B0410927C04109281
:102C80007D040E94F715CF910895AAE2B0E0EBE42D
:102C9000F6E10C94263282EA94E02091F100DC0106
:102CA0002D93CD01B4E08A3A9B07B9F78091A30434
:102CB000833009F472C0B8F4813009F449C082301D
:102CC00009F4B3C08091E80083FF8BC28091A20415
:102CD0009091A3049A3008F084C2E92FF0E0EF55F8
:102CE000FC4C0C9462328A3009F48EC08B3009F4AB
:102CF00071C0893039F78091A204813219F780912F
:102D0000A6049091A704009711F00297D9F680913C
:102D1000E800877F8093E8008091E80082FF38C058
:102D20009091F3008091F200029731F48091F100CC
:102D3000813011F0863021F48091F1008093950468
:102D40008091E8008B778093E8000E94EC03BACF73
:102D50008091A204813A09F0B5CF8091E800877F85
:102D60008093E8008091A6049091A704892B61F4D8
:102D700068E086E994E070E00E9498048091E800A1
:102D80008B778093E8009ECF60E090E080E0F3CF07
:102D90008091A0048111C0CF95CF8091A204813A87
:102DA00009F090CF8091A6049091A704892B09F097
:102DB00089CF8091E800877F8093E8008091E800C8
:102DC00080FFFCCF809113018093F1008091E80097
:102DD0008E77B9CF8091A204813209F073CF8091B0
:102DE000A6049091A704892B09F06CCF8091E8008C
:102DF000877F8093E8000E94EC038091A404809375
:102E000013010E941E165ECF8091A204813209F048
:102E100059CF8091E800877F8093E8000E94EC03FF
:102E20008091A504809394044DCF8091A204813AAF
:102E300009F048CF8091E800877F8093E800809177
:102E4000E80080FFFCCF80919404BECF803899F0D9
:102E5000823809F0C6C18091A6048F70873008F0CF
:102E6000C0C18093E9008091EB0085FB882780F941
:102E70001092E90006C080919E0490919F049111E8
:102E800082609091E800977F9093E8008093F10032
:102E90001092F1008091E8008E779FC1882309F499
:102EA0008DC1823009F09DC18091A404811190C12F
:102EB0008091A6048F702FEF280F263008F091C163
:102EC0008093E9002091EB0020FF82C1933031F420
:102ED0008091EB0080628093EB007AC19091EB00CF
:102EE00090619093EB0021E030E001C0220F8A95C1
:102EF000EAF72093EA001092EA008091EB008860E4
:102F0000EACF81116EC11091A4041F778091E30074
:102F10008078812B8093E3008091E800877F809305
:102F2000E8000E94EC038091E80080FFFCCF8091D4
:102F3000E30080688093E30082E0111183E08093D6
:102F4000A0044FC18058823008F04BC12091A404E6
:102F50003091A5042C3DE3E03E07A1F583E08A8390
:102F60008AE289834FB7F894DE01139620E03EE0B1
:102F700051E2E32FF0E050935700E49120FF03C0AB
:102F8000E295EF703F5FEF708E2F90E0EA30C0F077
:102F9000C7968D939D932F5F243159F74FBF809132
:102FA000E800877F8093E8006AE270E0CE01019636
:102FB0000E9498048091E8008B778093E80011C10B
:102FC000C096E7CF8091A6049091A704432F552780
:102FD0004330510509F44AC078F54130510509F4F0
:102FE0007AC08BE590E0E9EDF5E04230510509F05B
:102FF000F8C02091E800277F2093E8002091A804E2
:103000003091A9048217930708F49C0140E0211530
:10301000310509F065C0411163C08091E80082FD6F
:10302000C9CF8091A004882329F2853019F28091BC
:10303000E80083FFF2CFBECF4132510509F43CC016
:103040004232510509F0CDC08330910508F0C9C066
:10305000FC01EE0FFF1FE259FE4F0190F081E02DC1
:1030600085599E4FDC018C9190E01AC033272130A6
:103070003105D1F02115310561F02230310509F01B
:10308000B0C0E6E4F6E0E4918E2F90E0E6E4F6E0EE
:1030900007C0E2E8F6E0E4918E2F90E0E2E8F6E087
:1030A000009709F49EC0A5CFEAE6F6E0E4918E2FE2
:1030B00090E0EAE6F6E0F4CF8330910508F091C0A5
:1030C000880F991FFC01EC58FE4F0190F081E02D14
:1030D00089E090E08ECF82E190E0E4E3F6E089CFF2
:1030E0008091A004882309F465CF853009F462CF6C
:1030F0008091E80083FD5ECF8091E80082FD8DCF56
:103100008091E80080FF83CF9091F3008091F200DE
:103110002115310519F08830910550F041E00897EC
:1031200009F040E08091E8008E778093E8006FCF4F
:1031300044914093F1003196215031090196E8CF36
:10314000803809F04EC08091E800877F8093E800C6
:103150008091A1048093F1009DCE811142C0109115
:10316000A4041230F0F58091E800877F8093E80096
:103170001093A1040E94EC03112311F084E005C018
:103180008091E30087FDFACF81E08093A00442E0C4
:1031900061EC81E00E940B0442E261EC84E00E9459
:1031A0000B0442E261EC82E00E940B0442E260EC1C
:1031B00083E00E940B048091A00413C08091A404BA
:1031C000813079F481E0933009F080E080939F04AE
:1031D0001092E9008091E800877F8093E8000E94C8
:1031E000EC038091E80083FF0AC08091E800877FAC
:1031F0008093E8008091EB0080628093EB00AA96B8
:10320000E3E00C9442321F920F920FB60F921124FA
:103210002F933F934F935F936F937F938F939F93DE
:10322000AF93BF93CF93DF93EF93FF93D091E900D8
:10323000DF708091EC00C82FC17080FDC0E8109253
:10324000E9008091F000877F8093F00078940E94DD
:1032500045161092E9008091F00088608093F0009C
:10326000CD2BCF70C093E900FF91EF91DF91CF910B
:10327000BF91AF919F918F917F916F915F914F918E
:103280003F912F910F900FBE0F901F9018950E94A5
:103290001E162FEF84E39CE0215080409040E1F720
:1032A00000C0000088E19CE00FB6F894A8958093D8
:1032B00060000FBE90936000FFCF40918404909116
:1032C000860420918704662309F469C0942B922B0D
:1032D00020918504922B31F098E090937B0491E04B
:1032E00090937C048D3C41F40E94990581958093D4
:1032F00085040E94F71508958E3C19F40E949905E3
:10330000F6CF8F3C31F40E94990581958093840417
:10331000F0CF803D19F40E949905F8CF893D29F43A
:103320000E94770580938604E4CF8A3D21F40E94B1
:1033300077058195F7CF8B3D31F40E947705819514
:1033400080938704D6CF8C3D19F40E947705F8CF7F
:103350009FE2980F983070F4815D990B21E030E086
:1033600001C0220F8A95EAF780918304822B809313
:103370008304BFCF8D3D31F480917D0481608093C3
:103380007D04B7CF8E3D21F480917D048260F7CF1C
:103390008F3D09F0AECF80917D048460F0CF8D3CED
:1033A00059F48091850487FF0DC010928504411166
:1033B0000BC010927B0408C08E3C81F48091850480
:1033C00018169CF3442381F0809186049091870421
:1033D000892B09F08ECF10927C048BCF8F3C49F45F
:1033E00047FFF0CF10928404809185048111ECCFC7
:1033F000E0CF803D19F41416ACF3E4CF893D29F4F5
:10340000191604F710928604DDCF8A3D19F497FF50
:10341000D9CFF8CF8B3D29F427FFD4CF1092870462
:10342000D1CF8C3D19F41216CCF3CCCF9FE2980F7C
:10343000983090F4815D990B21E030E0B90102C031
:10344000660F771F8A95E2F7CB01809590918304F0
:10345000892380938304B6CF8D3D31F480917D0420
:103460008E7F80937D04AECF8E3D21F480917D04CC
:103470008D7FF7CF8F3D09F0A5CF80917D048B7FA5
:10348000F0CF8823D1F19CEF980F913A78F4ECE3D8
:10349000F2E09191891303C0DF0111971C9292E031
:1034A000E234F907B1F70E942114089590E2980FD1
:1034B000983050F4877091E001C0990F8A95EAF72F
:1034C000892F0E94A10FEFCF9BE5980F933028F42E
:1034D00090E080E00E944505089598E5980F9B31A3
:1034E00028F490E080E00E942005089593E3980F6F
:1034F000933118F460E00E945D190895CF93C82FAE
:103500008823B1F08CEF8C0F813A00F5ECE3F2E008
:1035100082E492E0DF012D91C21761F08A179B07C8
:10352000D1F76C2F8AE392E00E9406050E942114D5
:10353000CF9108952191C21303C0DF0111971C920E
:103540008E179F07B9F70E942114EBCF80E28C0FF2
:10355000883068F4C77021E030E001C0220FCA95BE
:10356000EAF780916802822B80936802DFCFEBE557
:10357000EC0FE33040F4F0E0E65EFE4F808190E037
:103580000E944505D5CFE8E5EC0FEB3150F4F0E0B3
:10359000EE0FFF1FE35EFE4F808191810E942005A8
:1035A000C7CF83E38C0F833118F661E08C2F0E9424
:1035B0005D19BECF1F93CF93DF93182FD0E0C0E0EB
:1035C000893311F4C0E5D0E0812F0E947E1A209744
:1035D00039F4812F0E94411ADF91CF911F910895F4
:1035E0008FE99FE00197F1F700C000002197EFCF2E
:1035F0000F931F93CF93DF93C62FD42F022FFC017D
:1036000085818823A9F060932F050E94EB15909384
:103610002E0580932D05C77081E001C0880FCA95E3
:10362000EAF70E946314DF91CF911F910F910895E3
:1036300080912F05681332C080912D0590912E0541
:103640000E94DC15883C910548F510E21D0FCD174E
:10365000B9F080E28C0F883040F4C77081E001C07F
:10366000880FCA95EAF70E945C14183048F481E08C
:103670009D2F977001C0880F9A95EAF70E946314F6
:10368000802F0E94DA1A183070F6D77081E001C0DE
:10369000880FDA95EAF70E945C14C5CFC77081E005
:1036A00001C0880FCA95EAF7F6CFA8E0B0E0EBE5D5
:1036B000FBE10C9419328C01DC0114968C91149767
:1036C000882309F4B8C021E04C9111965C911197C0
:1036D00012966C91129713967C91139715969C9164
:1036E0000E945A127C01F8018581882309F43CC1AB
:1036F000C70197578038910508F073C5FFE0FE15A4
:1037000008F489C08FEF93E00E94FA32811183C0E0
:1037100069E0A62E62E0B62EE11047C0FE013396A6
:1037200086E0DF011D928A95E9F75AE0452E750182
:10373000BFEFEB1AFB0AC5010E94FA3289831A8295
:10374000882309F468C0813009F079C06501E2E09E
:10375000CE0ED11CC7010E94FA328A83882309F455
:103760005AC09FEF980F933070F5F3E0AF0EB11C85
:10377000C6010E94FA328B83882309F44CC01C8254
:10378000DE0111967D01F7012081222381F2213093
:1037900009F095C091818281913009F052C0F2E028
:1037A000EF0EF11C0E94DA1A53C0A11424E0B206F5
:1037B00091F1C5010E94FA32811101C0EA943FEFF4
:1037C000A31AB30AA9CF56018430D1F642E0E42E01
:1037D000F12C56012FEFA21AB20AC6010E94FA324A
:1037E000E1E0F0E0EC0FFD1FEE0DFF1D808388236C
:1037F00091F08C3741F4E2E0F0E0EC0FFD1FEE0DAC
:10380000FF1D1082BDCF3FEFE31AF30A650187E089
:10381000E816F104F1F680915D02877061F0D8013D
:1038200015968C91882339F08091790282FF03C02C
:1038300082E00E9454102896E0E10C943532570142
:103840009FCF923049F422E0E20EF11C0E947E1AD2
:10385000EFEFEE1AFE0A97CF933031F432E0E30E29
:10386000F11C0E94411AF4CF943021F08FEFE81A36
:10387000F80AEECF92E0E90EF11C30E020E0B7014B
:103880006F5F7F4FD70111964C918053990B8A300F
:10389000910550F021503109D8F2EFE9FFE031975E
:1038A000F1F700C00000F6CF429EF001439EF00DFC
:1038B00011249C012E0F3F1F842F7B01E0CFE22FAC
:1038C000F0E0E354FE4F5490822F869586958695BE
:1038D00090E0FC01E355FE4F64902770712C022E9E
:1038E00002C0759467940A94E2F731E0632277246A
:1038F000FC01E356FE4F8490912C022E02C0959459
:1039000087940A94E2F7A1E08A229924FC01E35704
:10391000FE4FC490D12C02C0D594C7942A95E2F7EB
:10392000B1E0CB22DD246114710419F081EE0E9414
:103930007E1A8114910419F086EE0E947E1A852D5C
:103940000E94DA1A8114910419F086EE0E94411A3D
:103950006114710419F081EE0E94411AC114D1045E
:1039600009F476CF8CE21ECFF701E851FC47E7302F
:10397000F10508F022C4E555FC4C0C94623226E2B5
:1039800041EE61EEC8010E94F81A45CF27E245EEEC
:1039900065EEF8CF26E241EE60EEF4CF27E245EE89
:1039A00064EEF0CF26E241EE62EEECCF27E245EE88
:1039B00066EEE8CF28E241E0EBCF809178028160AB
:1039C0008093780295C08091790288608093790213
:1039D0008FC0809178028260F3CF809178028460FA
:1039E000EFCF809178028860EBCF8091790281607F
:1039F000EDCF809179028260E9CF80917802806179
:103A0000DFCF809178028062DBCF80917802806482
:103A1000D7CF0E941E16809178028068D1CF809106
:103A200078028C60CDCF809179028360CFCF809176
:103A300078028E7FC5CF80917902877FC7CF809132
:103A400078028D7FBDCF809178028B7FB9CF809136
:103A50007802877FB5CF809179028E7FB7CF809132
:103A600079028D7FB3CF809178028F7EA9CF80912C
:103A700078028F7DA5CF809178028F7BA1CF0E94A5
:103A80001E16809178028F779BCF80917802837F7A
:103A900097CF809179028C7F99CF8091780282FBB9
:103AA000992790F921E0922790FB82F990FB83F906
:103AB00087CF80917902982F909591708E7F892B76
:103AC00090FB81F983CF90917802892F8F7B96FFAD
:103AD000806476CF0E941E1690917802892F97FB02
:103AE00087F980586DCF61E08EE090E00E94183336
:103AF000609178027091790284E090E00E94363300
:103B00000E941E1688CE60E0EFCF90917802892F38
:103B10008F7E94FF806154CF90917802892F8E7FA1
:103B200090FF81604DCF90917902892F877F93FF1D
:103B300088604CCF8091420281110FC089E2ECE392
:103B4000F2E022E432E09191891303C0DF01119782
:103B50001C922E173F07B9F72DC385E3F0CFF7E787
:103B6000EF16FCE7FF0609F0F4C281E00E946B103B
:103B700043E062E081E00E9427104DCE8091FC047A
:103B800091E089278093FC04109212018091A00398
:103B900081608093A0033FCE43E656E06EE676E078
:103BA0000E94C70538CE4EE656E063E676E0F8CFD1
:103BB00044E356E06FE376E0F3CF4FE356E064E38F
:103BC00076E0EECF48E156E066E276E0E9CF46E205
:103BD00056E068E176E0E4CF4CEF55E06AE076E04D
:103BE000DFCF4AE056E06CEF75E0DACF4DEC55E000
:103BF0006BED75E0D5CF4BED55E06DEC75E0D0CFBA
:103C000061E081E00E944A0606CE61E085E0FACFDD
:103C100061E08DE0F7CF61E082E1F4CF27E7E216C3
:103C20002CE7F20609F45AC038E7E3163CE7F3063E
:103C300009F458C0F8018581E080F180882309F4F7
:103C400085C0C7010E94FB11D82E682FC7010E94B2
:103C5000E60FB7018D2D0E94ED110E94830E7C01AD
:103C6000882ED8011596AC90159716969C90929434
:103C70003FE0932280915D02877009F1CA2CAA204F
:103C8000F9F08F2D807F803469F080E28E0D8830CE
:103C9000B0F08F2D807E803229F4B1E0BE1578F42B
:103CA000992069F08091790282FF09C082E00E9428
:103CB000541080915D028770CC24C3948111C12C73
:103CC000BF2CB2942FE0B222EBE0EB1508F4A6C0B3
:103CD000EB2DF0E0EE54FC4C0C94623281E00E943B
:103CE000471046CF82E0FBCFEBE5EE16ECE7FE0691
:103CF00059F1FCE5EF16FCE7FF06E1F02AE5E216D4
:103D00002CE7F20609F096CF81E01BC00E941E1638
:103D10003FEF84E39CE0315080409040E1F700C0E9
:103D200000000E94EA106FEF7FEF90E080E00E94B9
:103D3000363329C28091790282FB882780F991E08D
:103D400089270E94FE1376CF80E0FBCFC7010E9437
:103D5000B20FD82E7ECFFF2DFF70DF2E8F2D807FEC
:103D600019F0D29490EFD922AA20B9F0DD2069F0A1
:103D700080E28E0D883010F0811009C080916802B9
:103D8000D82AD09268020E9421148E2D45C08091BD
:103D90005F02D82AD0925F02F6CF8E2D0E94411A80
:103DA000DD20E1F180E28E0D883010F0811004C03A
:103DB0008D2D0E94A10F06C0D09480915F02D82261
:103DC000D0925F020E94211429C02F2D2F70D22E75
:103DD0008F2D807F803219F0D29480EFD8228820F6
:103DE00059F031E0831609F481C0AA2009F48DC08E
:103DF000992009F44FC0C9CF8091790282FD46C055
:103E0000AA20F1F1DD2039F080916802D82AD09201
:103E100068020E94211480E00E947E1AAB2DA850F7
:103E2000BB0B149710F40E946A05CC20A9F0809176
:103E30005D0280FD11C0F8011582869586958695F4
:103E40000E946B10C8010E94551B80915D028695EF
:103E5000869586950E94471020E0D8014C911196D6
:103E60005C91119712966C91129713967C9113970F
:103E700014968C91149715969C910E945A12DBCC43
:103E800080E00E94411ADD2049F292CFAA20A1F0E1
:103E9000911004C08D2D0E946314C0CF81E0981250
:103EA000BDCF80915E029D2D9823D91609F4B6CF1F
:103EB000D82AD0925E02B2CF9110B0CF8D2D0E9441
:103EC0005C1490915E028D2D892329F08D2D8095B3
:103ED000892380935E02809143029D2D982309F4EB
:103EE0009DCFD094D822D092430298CFAA2029F017
:103EF00095E0991508F492CFCDCFA4E0A91508F468
:103F00008DCF8D2D0E945C1489CF9920D1F3B9E318
:103F10008B1218C1EFEFF7EE23E0E150F0402040A4
:103F2000E1F700C000000EC18F2D86958695837045
:103F300061F0813009F072CFC7019370A11002C007
:103F400080E090E00E94200569CFC7019370A11026
:103F500002C080E090E00E94450560CF6A2D8E2D62
:103F60000E945D195BCF8F2D837091F5A11056CF04
:103F70004E2D429546954770440F440F8E2D8F70FD
:103F8000042E01C0880F0A94EAF72E2D2071E4FE5A
:103F900007C02FE030E001C0220F4A95EAF72095D4
:103FA0003F2D369536953370323069F050F440919C
:103FB0006902313029F0822B84230E9477102ECFA2
:103FC000842B822BFACF282B809169028227F5CF90
:103FD0008695AA2011F08F2D8170882309F41ECFB9
:103FE0004E2D429546954770440F440F8E2D8F708D
:103FF000042E01C0880F0A94EAF72E2D2071E4FEEA
:1040000007C02FE030E001C0220F4A95EAF7209563
:104010003F2D369536953370323069F050F440912B
:104020007702313029F0822B84230E941D10F6CEB6
:10403000842B822BFACF282B809177028227F5CF11
:104040003F2D3F70F32EAA2029F0832F0E946B1082
:104050008E2D21CF8E2D0E945C148F2D0E94471033
:10406000DDCE8E2D92EF8916B1F1981570F0A0EF8C
:104070008A16D1F0B1EF8B1691F0AA2009F45DC039
:10408000911083CE8F2D8F712AC0E3EF8E1651F1E0
:10409000F4EF8F12F2CF8091790282FD2FC08F2D25
:1040A0008F71AA20D9F21BC0AA2081F024E0291523
:1040B00008F4B4CE2F2D2F7181E090E001C0880F5D
:1040C0002A95EAF7909177028927AFCF35E0391525
:1040D00008F4A4CEEFCF8F2D8F71A110BFCF0E9417
:1040E0006B109CCE80E0AA2009F49FCF9F2D9F717A
:1040F00081E001C0880F9A95EAF797CFAA2091F046
:104100008F2D8F71F82E0E946B108091790282FFA3
:1041100007C0A8E0FA9EC0011124836080935D026D
:104120008F2DDDCF81E00E945410B1E0B91508F069
:1041300075CE82E00E94541071CE992039F08933F7
:1041400009F4E8CE8E2D0E94411A68CE8F2D8F7112
:1041500085CF82E0B8E7EB16BCE7FB0609F406CD95
:1041600083E0E8168CE7F80609F4DDCD08F0BCCD55
:10417000E114ACE7FA0609F4C9CDB1E0EB16BCE7EF
:10418000FB0609F057CD0E944719E6E1EE16ECE771
:10419000FE0609F0E4CC809168028A7A91E009F485
:1041A00090E09093420269E2811165E38AE392E034
:1041B0000E9406050E9421142ECBF6E1EF16FCE7C3
:1041C000FF0609F4B7CC809168028272F701E052D1
:1041D000F847E531F10508F021CDE254FC4C0C9490
:1041E0006232F701E851FC47E730F10508F4C3CB30
:1041F00010922F05C7019057839738F684E090E01E
:104200000E9402339093790280937802F701E15083
:10421000F047E232F10508F0D0CBED52FC4C0C94A3
:104220006232CF93DF9380915C02807F09F04DC0B2
:1042300080915B02882309F448C0E091F704509113
:10424000BE04C0915702D0915602609158027091FD
:10425000590247E05E17C9F18E2F90E0E49FF0010C
:104260001124E154FB4F2481222391F1489FF00156
:10427000499FF00D1124DF01A154BB4F11962C91E1
:1042800011972C1325C02C912D1322C015962C911B
:10429000159721111DC012962D913C91261B370BAD
:1042A000283C3105A8F480915C028F708061809376
:1042B0005C02EB53FB4F80818F708061808386E5C9
:1042C00092E00E94551B0E94A80FDF91CF910895A4
:1042D000FC013196E770BECFA4E1B0E0E2E7F1E285
:1042E0000C941D328C0186E0F801DE011F960190CE
:1042F0000D928A95E1F7F8018481E58096E5A92E73
:1043000092E0B92E90915A02911128C0882319F198
:10431000EE20F1F0C8010E943712F82E8823C1F078
:1043200087E0F801D50101900D928A95E1F780911F
:104330005A02813031F480915602909157020E94C6
:104340002A120E9411218F2D6496ECE00C943932D0
:10435000C8010E94551BFF24F394F5CFD080C18083
:1043600082809380F0905B02209158023091590234
:10437000A401421B530BFF2009F4D9C0483C51054E
:1043800008F092C08823F9F29091570280915C0264
:10439000282F207F09F056C0C91214C090915602F0
:1043A000D91210C0E11048C08F70806180935C0208
:1043B00086E592E00E94551B80915C02F80186839D
:1043C000F12CC1CFE11038C06C2D8D2D0E947D03E2
:1043D0006C2D8D2D0E947D03E82E8111F1CFDF869B
:1043E000C88A8F8598890E942A12292F22952F70BA
:1043F000243058F49F70223088F0992399F0F80106
:104400009681907F79F4FE2C9ECF2A5F2F70223008
:1044100068F0C8010E94551BEF2CF5CF992311F0CD
:10442000882389F3805E883070F3F3CF803F58F3A0
:10443000815F833070F7E7CF80915C028160809369
:104440005C02BECFC91207C090915602D91203C0B8
:10445000EE2009F48DC0C8010E943712882309F4A8
:1044600077CFEE2009F474CF80915C02803288F01F
:104470002091560230915702398728879B868A8679
:1044800090915A029C871D868E87CE0108960E94C5
:10449000551B87E0F801A6E5B2E001900D928A95E0
:1044A000E1F70E94112157CF90915C02292F207FC4
:1044B00051F486E592E00E94551B87E0F5011192C8
:1044C0008A95E9F77DCF882309F43DCF8091570283
:1044D0008C1110C080915602D8120CC0E1100AC095
:1044E0009683C8010E94551B87E0F50111928A95B9
:1044F000E9F729CFC8010E943712882309F428CF91
:10450000EE2009F425CF80915C02803210F22091D8
:104510005602309157023A8329839C828B82909174
:104520005A029D831E828F83CE010196B0CF483CF4
:104530005105D0F6882309F40ECFFE2CEE2009F4A5
:1045400007CF809157028C1120C080915602D8125B
:104550001CC080915C0280FD0FC0982F907F61F09D
:104560008683903F31F0982F907F905F8F70892BDA
:104570008683C8010E94551B87E0F801A6E5B2E0DA
:1045800001900D928A95E1F7DECEC8010E943712A4
:1045900081117FCF80915C02816080935C02C801B1
:1045A0000E94551BD0CEABE1B0E0E9EDF2E20C94F5
:1045B00025324E8B5F8B688F798F8A8F9B8F192F57
:1045C000911110925F021D8A86E0FE017696DE014F
:1045D0001F9601900D928A95E1F70A8D002341F014
:1045E00021E04F85588969897A89C8010E945A1249
:1045F0000B8B1C8B87E0FE013F96DE011896019025
:104600000D928A95E1F7CE0108960E946C218111E6
:104610000CC087E0FE013896DE01119601900D92E4
:104620008A95E1F78C8581110BC017E08091F70422
:104630009091BE04891331C06B96E4E00C94413232
:104640002091BE0430E0C9010196877099274091FE
:10465000F7044817190699F097E0929FD001939FAD
:10466000B00D1124A154BB4FFE01319601900D9263
:104670009A95E1F78093BE040E94A80FD6CF0E94BE
:104680001E161092BE041092F70487E0E6E5F2E0F1
:10469000DF011D928A95E9F7C8CF819FC0011124DF
:1046A00081549B4F0E946C21882331F28091F70442
:1046B00090E00196877099278093F704B7CFB0E018
:1046C000A0E0E5E6F3E20C941932D82F80911101B5
:1046D0008D1323C09091FC0493702091100130E061
:1046E00081E09217130609F480E08170809316012F
:1046F0008091010590911501981739F0809315016B
:1047000040E060E080E00E947508DD3260F4ED2F4B
:10471000F0E0EB50FC4C0C94623281E0E6CF8091EB
:104720001601811102C0C0E056C040E060E080E0A8
:104730000E947508F8CF809114010E947A06082F14
:10474000F92E6091FD047091FE048091FF040E9497
:10475000130AC62FE72ED82E10E00F1528F0C1E05F
:104760002EE22F15C0F5DFCFF801E85FFD4F808105
:1047700090911501892331F02D2D4C2F6E2DC801FC
:104780000E9478080F5F1F4FE8CF809114010E94AC
:104790007A06082FF92EE090FE041091FF04C091D4
:1047A000FD046C2F7E2D812F0E94130AD62EC72E5A
:1047B000B82E609100056C0F7E2D812F0E94130A88
:1047C000C62FE72EA82E10E00F15E8F0C1E03EE25C
:1047D0003F1508F4A8CF809114018F5F80931401D6
:1047E000C1110CC082E080931201809116018111E9
:1047F00005C0D11103C083E080931201CDB7DEB7AD
:10480000E0E10C943532F801E85FFD4F9081809132
:104810001501892359F02A2D4C2F6E2D90FD03C0D0
:104820002B2D4D2D6C2DC8010E9478080F5F1F4F56
:10483000CBCF809114010E947A06F92EE090FE04FD
:10484000D090FF0420910005C0E44C2F429F412DE1
:104850001124C42F082F10E00F1530F0C1E08EE2B4
:104860008F1508F0B8CF5FCFF801E85FFD4F80816A
:10487000909115018923B9F0F801EE0FFF1FE6585A
:10488000FE4F81A982958F706091FD048C9F600D11
:1048900011247E2D8D2D0E94130A462F282F672F5D
:1048A000C8010E9478080F5F1F4FD6CF8091140176
:1048B0000E947A06F92EE090FE04D090FF04209129
:1048C0000005C0E43C2F329F312D1124C32F082F47
:1048D00010E00F1530F0C1E04EE24F1508F07BCF2D
:1048E00022CFF801E85FFD4F808190911501892367
:1048F000D9F0F801EE0FFF1FE658FE4F60A9C69FE2
:10490000B001112485E0759567958A95E1F780914E
:10491000FD04680F7E2D8D2D0E94130A462F282F2F
:10492000672FC8010E9478080F5F1F4FD2CF809178
:1049300014010E947A06082FF92E1091FD04C091EF
:10494000FE04E090FF04609100056695669566950B
:104950008091F8049091F9040E94F6090E94470999
:10496000805887FD8195880F282F3E2D239F212D6C
:104970001124822F612F7C2F0E94130AC62FE72E4D
:10498000D82E10E00F1508F0A6CFF801E85FFD4F14
:10499000808190911501892331F02D2D4C2F6E2DA2
:1049A000C8010E9478080F5F1F4FECCF8CE498E09D
:1049B0000E940C0CC82F0FCF82E298E0F9CF89E259
:1049C00099E00E94060DF6CF8AE099E0FACF8FEECB
:1049D00098E00E94A00CEECF83ED98E0FACF80E241
:1049E00098E0E6CF87E198E0E3CF8EE098E0E0CF73
:1049F00085EF97E0DDCF87EE97E0EBCF8EEC99E087
:104A0000E0CF82EC98E0DDCF8EEA98E0E2CF8AEB4F
:104A100097E00E94500CCECF8CE897E0FACF85E566
:104A200097E0F7CF809114010E947A06F92E9091B9
:104A30001601911124C06091000520E1620F08F475
:104A40006FEF8091F8049091F9040E94F6096AE0F2
:104A500070E00E940332892B61F40E948909AFE261
:104A60008A9FC001112460911501892F90E00E9456
:104A7000A70AC1E0BEE2BF1508F0ADCE54CE082FA4
:104A800010E0CF2CD12C0C151D059CF76091150161
:104A9000C8010E94A70A0F5F1F4FF5CF8091140134
:104AA0000E947A06F92E90911601911124C060910E
:104AB000000520E1620F08F46FEF8091F8049091F7
:104AC000F9040E94F60965E070E00E940332892B28
:104AD00061F40E948909EFE28E9FC0011124609168
:104AE0001501892F90E00E94550DC1E0FEE2FF15EF
:104AF00008F071CE18CE082F10E0CF2CD12C0C1559
:104B00001D059CF760911501C8010E94550D0F5FAE
:104B10001F4FF5CF809114010E947A06082FF92EBD
:104B2000E090FE041091FF04C091FD046091000527
:104B30006695669566958091F8049091F9040E94B7
:104B4000F6090E944709805887FD8195880F682FD4
:104B50002CE0629F612D11246C0F7E2D812F0E940D
:104B6000130AC62FE72ED82E10E00F1508F0F7CD48
:104B7000F801E85FFD4F808190911501892331F0A4
:104B80002D2D4C2F6E2DC8010E9478080F5F1F4FEE
:104B9000ECCF86E699E00CCF84E497E009CF8091D2
:104BA00014010E947A06F92E4091F8045091F904FC
:104BB0006091FA047091FB0480918C0290918D02B7
:104BC000A0918E02B0918F0284179507A607B707B0
:104BD00008F044CE0E9489093FE2839F800111249E
:104BE000012F1127F801E85FFD4F80819091150199
:104BF000892309F433CE0E94890981FD3BC00E94BC
:104C00008909C82F0E94890940E8849FC0011124A6
:104C10007FE7790F8091FF046C2F0E94130A462FC3
:104C2000282F672FC8010E9478082091000530E1E5
:104C3000230F08F42FEF60E1822F90E00E94F60925
:104C4000BC0184EF91E00E9403328091F8049091BE
:104C5000F904A091FA04B091FB04860F971FA11DDF
:104C6000B11D80938C0290938D02A0938E02B0931D
:104C70008F02F4CD80E070E0C0E0CECF40911D0304
:104C800050911E0360911F03709120038091F804DE
:104C90009091F904A091FA04B091FB048417950750
:104CA000A607B70708F43FCD8091160181111FC0F8
:104CB000809114010E947A06092FC82ED12CA3E0FE
:104CC0008A9FC0011124FC01E057FD4F7F01C016EF
:104CD00008F44AC0C1E00F3208F0C0E00F3208F417
:104CE0007ACD20E0802F8150990B7C0169C040E093
:104CF00060E080E00E947508F0E9EF2EF2E0FF2E00
:104D000010E000E00E94890981FF10C0D7011C92C9
:104D100011961C92119712961C920F5F1F4FB3E0D1
:104D2000EB0EF11C0F32110569F7C2CF0E94890901
:104D3000C82F0E948909B0E88B9FC00111247FE72A
:104D4000790F6801CC0CDD1CC00ED11EF601E057B6
:104D5000FD4F6F016C2F8091FF040E94130AD60152
:104D60006D937D938C93D9CFF601E85FFD4F8081E1
:104D700090911501892339F0F701228140816181E9
:104D8000C6010E947808F3E0EF0EF11C2FEFC21A63
:104D9000D20A9DCFFC01EE0FFF1FE80FF91FE0576D
:104DA000FD4F0196DC01AA0FBB1FA80FB91FA0572A
:104DB000BD4F8D919D91AC9180839183A2832F5F94
:104DC000822F90E08E159F052CF30E9489098701A0
:104DD000000F111F81FF21C00E0D1F1DF801E057AC
:104DE000FD4F1082118212820E94000A0091F80485
:104DF0001091F9042091FA043091FB04DC01CB01FD
:104E0000800F911FA21FB31F80931D0390931E0359
:104E1000A0931F03B0932003DECC0E948909D82EF3
:104E20000E948909A0E88A9FC00111247FE7790FB9
:104E30000E0D1F1D00571D4F6D2D8091FF040E9408
:104E4000130AF801608371838283CECF80911601AB
:104E5000882329F040E060E080E00E94750880919E
:104E600014010E947A06592E4091F8045091F904D9
:104E70006091FA047091FB048091390390913A0398
:104E8000A0913B03B0913C0384179507A607B70791
:104E900008F07BC06091FD047091FE048091FF04D6
:104EA0000E94130AC62F772E682E41E2E42E43E0BB
:104EB000F42E0AE711E0580148016701412CD401A2
:104EC0008D914D0190E0F6012081222309F463C009
:104ED000262D4C2F672D0E947808D5011B968C91AA
:104EE000262D4C2F672D90E00E947808D601119650
:104EF0008C91F60181936F014394F1E0AF1AB108F0
:104F000025E04212DCCFD80115968C9190E0F70194
:104F10002581222309F44AC0262D4C2F672D0E949B
:104F20007808D80116968C91262D4C2F672D90E08D
:104F30000E9478080E948909837091E009F090E04E
:104F4000D70115969C93B6E0EB0EF11C045F1F4F42
:104F5000E1E00A3A1E0709F0AECF0E94000A009174
:104F6000F8041091F9042091FA043091FB04DC015B
:104F7000CB01800F911FA21FB31F80933903909321
:104F80003A03A0933B03B0933C03C1E0FEE2F51566
:104F900008F021CCC8CB20E040E060E00E94780817
:104FA000F501838520E040E060E09DCF20E040E017
:104FB00060E00E947808F801868120E040E060E02F
:104FC000B6CF809114010E947A06782EA92E809186
:104FD0001601882361F040E060E080E00E947508DF
:104FE000E2E4F3E080E3DF011D928A95E9F7809126
:104FF0001401811115C080913E0390913F030E94DE
:10500000DC1521E08931910508F420E020933D036F
:10501000499730F00E94EB1590933F0380933E0335
:10502000C12CB12CD12C9CE0892E25E5622E3AEAC8
:10503000932E5524539405C0F9E0FB1508F457C08E
:10504000D12C2D2D30E08C9C80011124F801E658E4
:10505000FE4FE20FF31FE080E71408F440C0EA14AB
:1050600008F03DC0B394F12CF701E85FFD4F80815B
:1050700090911501892309F432C00E5B1C4F020F79
:10508000131FF801C0813C2F262D321B08F430E09D
:105090007091FE04292D4C2F240F08F42FEF40911E
:1050A000FF04822F880F820F8E5F282F249F212DCF
:1050B0001124822F692D631B0E94130A462F282F6B
:1050C000672FC7010E94780880913D03882339F03B
:1050D0002C2F352D231B08F420E0D8012C93D394DA
:1050E000BCE0DB12AECFC394E4E0CE12A5CFC1E0AA
:1050F0002EE22A1508F06FCB16CBC091FF0433E0E7
:10510000C39F800111241695079516950795502E7B
:10511000AC2EB12C8FEF90E0B5010E944E32762E6E
:1051200080911601882371F040E060E080E00E94E9
:105130007508E2E4F3E080E3DF011D928A95E9F768
:1051400010924103809140038F5F80934003F12CC4
:10515000E12CA01AB10A6701612CC7018E5B9C4F3C
:105160004C0180914103862909F045C00E94BB3261
:10517000853595400CF03FC0F401C083F601E65838
:10518000FE4FE081EF3FD1F0D601AE5BBC4F2C91DA
:10519000F0E0521608F040C030E0201B310B209F99
:1051A000C001219F900D309F900D1124B5010E94E8
:1051B0000332262F4C2FCF010E9478086394FCE025
:1051C000CF0ED11C24E06212CCCF3FEFE31AF30ADA
:1051D0004CE0E416F10409F0BECF80914003781250
:1051E00002C010924003809141038F5F8D31F0F433
:1051F0008093410398CAF601EE5BFC4F80818823BF
:1052000009F4BCCF8C1708F0B9CF90914003791204
:10521000B5CF81508083B2CFC29FC0011124B801A5
:105220000E940332462F20E060E0C5CF1092410378
:105230002AE533E083E09FEF9C0FE2E4F3E0B9015D
:10524000833021F444A1C41301C094A3DB014D9128
:10525000BD014C1740F0AD0141505109DA019C935A
:10526000DB011B96CC933196B3E0EE34FB0741F79C
:1052700081502C5031098111E0CF55CA8DE397E060
:105280000E94A20B97CB87E397E0FACF80910405A9
:1052900021E0382F321B08F430E0832F6EE177E0F5
:1052A0000E94E20A87CB6EE177E080E0F9CF80913F
:1052B000040521E0482F421B08F440E0842F63EEF0
:1052C00076E0EECF63EE76E0F0CF8091040521E04A
:1052D000382F321B08F430E0832F61EB76E0E0CF0B
:1052E00061EB76E0E2CF8091040521E0482F421B7C
:1052F00008F440E0842F69E976E0D2CF69E976E0EE
:10530000D4CF8091040521E0382F321B08F430E01F
:10531000832F63E876E0C4CF63E876E0C6CF4F9290
:105320005F926F927F928F929F92AF92BF92CF9235
:10533000DF92EF92FF92CF93C0909B03D0909C039B
:10534000E0909D03F0909E038FB7F89440908F04F7
:105350005090900460909104709092048FBF53011C
:1053600042018C189D08AE08BF080E94FA046093A1
:105370009B0370939C0380939D0390939E03A09145
:105380007203E2E7F3E02A2F30E04FEFC40ED41EA1
:10539000E11CF11CC418D508E608F708A3132AC0BD
:1053A0002093720320919F03C0E0211108C0209137
:1053B000FC04C22FC37019F0C22FC695C695209168
:1053C0001201213009F440C0222339F1223009F4BE
:1053D00046C0233009F44EC0CF91FF90EF90DF908C
:1053E000CF90BF90AF909F908F907F906F905F9085
:1053F0004F900895418D528D2A01712C612CC41457
:10540000D504E604F70420F421503F5F3296C6CF5E
:10541000480D591D528F418FF8CF1092140160939F
:10542000F8047093F9048093FA049093FB0489E2E2
:10543000E2E7F3E0A4E0B5E001900D928A95E1F790
:1054400081E080931201C8CF8C2F0E945F23CC2370
:1054500019F28091140181500E947A06BDCFC09349
:1054600011018091FC048370809310010E947F12CF
:1054700083E0E7CF8091A00381110E94DF13409168
:10548000F8045091F9046091FA047091FB042FB76D
:10549000F89480918F0490919004A0919104B09120
:1054A00092042FBF841B950BA60BB70B4097A10549
:1054B000B10508F491CF109212018ECFA8E0B0E0B0
:1054C000E4E6FAE20C941B328E010F5F1F4F88E076
:1054D000D8011D928A95E9F723E5E22E21E0F22E0C
:1054E000CC24C394D12C88248394912C53E6A52EEC
:1054F00051E0B52EF70181917F018F3F09F449C03A
:10550000F894E82FE295EF70F0E021A18F70A401EC
:1055100002C0440F551F8A95E2F7CA01922F982BBB
:1055200091A392A18095892382A3789400C09FE5DE
:10553000692E91E0792EF801A60140955095D3018E
:105540006D913D01808191816F3F09F44AC0262F02
:1055500022952F7030E0D90190962C9130E06F7039
:1055600002C0359527956A95E2F720FD3AC08C294F
:105570009D29918380833296A614B70401F7F70121
:10558000319780818F3F11F00E947B0DB0EABA9570
:10559000F1F7CC0CDD1CEFE5EE16E1E0FE0609F0BC
:1055A000A9CF48E050E0B8018FE692E00E94D432E3
:1055B000892BE1F088E0F801AFE6B2E001900D92AE
:1055C0008A95E1F781E080936E020E94EB1590933B
:1055D0006D0280936C0210E0812F2896EEE00C940F
:1055E000373284239523C5CF10E01FC010916E027F
:1055F000112389F380916C0290916D020E94DC1559
:10560000059748F348E050E06FE672E084E892E0E6
:105610000E94D432892B41F388E0EFE6F2E0A4E85F
:10562000B2E001900D928A95E1F710926E02D4CF0C
:10563000A6E0B0E0EEE1FBE20C9425320E94EB150F
:105640008C0180916A0290916B028017910781F022
:1056500019821A820E94EB15682F49815A81792F8D
:1056600080E090E00E94D32210936B0200936A02C4
:105670002696E4E00C9441321F921FB61F9211242B
:105680008F939F93AF93BF9380918E04811113C02A
:1056900080918F0490919004A0919104B091920414
:1056A0004196A11DB11D80938F0490939004A09307
:1056B0009104B0939204BF91AF919F918F911F90ED
:1056C0001FBE1F901895CDB7DEB7E4970FB6F894BC
:1056D000DEBF0FBECDBF85B7806885BF85B7806848
:1056E00085BF84B7877F84BF0FB6F894A895809153
:1056F0006000886180936000109260000FBE80E8B7
:1057000090E00FB6F89480936100909361000FBE13
:1057100089E79DE090933902809338020E949C03B0
:105720000E943D048091E20084608093E2007894BE
:105730008091A0048823A1F01091E9001F7090913E
:10574000EC00892F817090FD80E8182B1092E90001
:105750008091E80083FD0E9445161F701093E900B8
:1057600082E084BD93E095BD9AEF97BD80936E0073
:105770000E94A511811102C00E94951103E511E05C
:105780006FE5E62E61E0F62ED8018D918D018F3FF9
:1057900011F00E947B0DE016F106B1F787E90E9437
:1057A0007B0D87EF0E947B0D86EF0E947B0D85EFBE
:1057B0000E947B0D88E0E4E8F2E0DF01282F1D92D3
:1057C0002A95E9F7EFE6F2E0DF011D928A95E9F705
:1057D0000E941514811102C00E946D1482E090E0B5
:1057E0000E94FA3280937A0284E090E00E940233B1
:1057F00090937902809378020E945E2ABFEFE6E7D9
:10580000F1E0B150E040F040E1F700C000000E943C
:105810005E2A8091840280FF08C06FEF7FEF90E0E6
:1058200080E00E9436330E94EA1083E090E00E94FC
:10583000FA320E9477100E942313109204058FEF12
:105840009FEF90931E0580931D05909320058093F4
:105850001F05909322058093210590932405809342
:105860002305909326058093250590932805809322
:10587000270590932A058093290590932C05809302
:105880002B051092720390938C0380938B0390935B
:105890008E0380938D039093900380938F03909356
:1058A0009203809391039093940380939303909336
:1058B0009603809395039093980380939703909316
:1058C0009A03809399030E941514811104C00E94C9
:1058D0006D140E94EA1381E08093A00348E050E039
:1058E00068E170E08CEF94E00E94EA321092A0032D
:1058F0008091FC048C7F11F40E94EA1384E091E013
:1059000090938B0480938A04EE24E3948091A00406
:10591000853089F440E4F42E53E0D52E00E112E105
:105920008091A004853009F4B1C00E941E160E9427
:105930006A0510929F030E945E2AABE7B2E0BBA704
:10594000AAA7E4E8F2E0FDA7ECA743E852E0DF01F4
:10595000EBE7F2E0219131918D919D914E175F0718
:1059600009F4E6C028173907A9F3712C612CF12C32
:10597000ACA5BDA54D905D90BDA7ACA7EAA5FBA5C4
:1059800081919191FBA7EAA78415950509F45DC261
:105990009C012425352538AB2FA7630119A62224A5
:1059A0002394312C8FA598A982219321892B09F466
:1059B0003CC242018220932039A539A3FAA20E9459
:1059C000EB159CA38BA341E04DA391E081149104BE
:1059D00009F490E09EA349A15AA16BA17CA18DA1DD
:1059E0000E94D3228114910439F0F601E658FE4F4B
:1059F00080818F3F09F0B1C11FA28FA1082F10E055
:105A000080917203800F912F911D099774F188E0A6
:105A1000A82EB12CA01AB10AB8016D587C4FA5016F
:105A200083E793E00E94E132B80165587C4FA501FD
:105A30008BE793E00E94E132A501440F551FB801A6
:105A4000660F771F65577C4F8BE893E00E94E13229
:105A5000B8016D577C4FA50183E893E00E94E132C5
:105A600088E09FA1891B809372038091720390E06C
:105A7000EEA5AE2FB0E09D01220F331F26553E4FFD
:105A8000AA0FBB1FBD0165557E4F80C18091A00448
:105A9000843009F439C00E948F2980919F038111BD
:105AA0000DC00E945F23109211018091FC0483704D
:105AB000809310010E947F12D092120121E0209366
:105AC0009F0310928E0448E150E00FB6F894A89519
:105AD000409360000FBEF092600083B7817F8460C6
