:100000000C94AB030C94E3030C94E3030C94E30310
:100010000C94E3030C94E3030C94E3030C94E303C8
:100020000C94E3030C94E3030C94411C0C942F1BDD
:100030000C94E71D0C94E3030C94E3030C94E3038A
:100040000C94E3030C94E3030C94E3030C94E30398
:100050000C94E3030C949A1D0C94E3030C94E303B7
:100060000C94E3030C94E3030C94E3030C94E30378
:100070000C94E3030C94E3030C94E3030C94E30368
:100080000C94E3030C94E3030C94E3030C94E30358
:100090000C94E3030C94E3030C94E3030C94E30348
:1000A0000C94E3030C94E3030C94E303DE04E404F4
:1000B000CF04D504EA04F004F6045005C40558053D
:1000C000220526055C0529055F056A053405BA0584
:1000D00038056E053C0572059C0540057605A605AC
:1000E00046057C0586052D056305300566054B052F
:1000F00081059205B205B4051E055405CD052B06F4
:100100005E066A06760682068E069A06A606B2067F
:10011000BE06CA06D906DF06E506EB06F306F606B6
:10012000F906FC06FF0604076707670799079907A2
:1001300012083008540954093508C308D408D408F3
:1001400023294A29E22A4A29E22A9229B529E22AC0
:10015000A42AB72A1E0F0500047F3F1F64321464CF
:100160003214783C1E1E140A052B0014001A0008D5
:1001700000150017001C0018000C00120013002AC4
:1001800000E10004001600070009000A000B000D42
:10019000000E000F0033003400E0001D001B0006BD
:1001A000001900050011001000360037003800E586
:1001B0000000002452E30021522C00217800002886
:1001C000002252E200E600E40029003A003B003C35
:1001D000003D00480049004A0052004D004B002AF3
:1001E00000E1003E003F004000410046004C00504E
:1001F0000051004F004E003402E000420043004432
:10020000004500650006011901360237023802E593
:100210000000000100E30001002C0021780000280C
:10022000000100E2000000E40039001E021F02206D
:10023000142F020000300224002500260038002A76
:1002400000E10034143214250226022D022402217A
:10025000002200230030002D00E0002F1430146431
:10026000006402270227001E001F0020003700E55F
:100270000000000100E30001002C002178000028AC
:10028000000100E2000000E40035002E001F140809
:100290001421022F00AC00AE00AB00AA00A900A8F8
:1002A00000E100350223021E1435142E02207823AB
:1002B000782578277829780000E0000000231432A0
:1002C000002202211421782478267828782A7801BF
:1002D0007C00000100E30001002C002178000028D0
:1002E000000100E200000000002900D6000000002C
:1002F0000000000000D900DB00CD00DC00D60000CB
:1003000000E100D500D200D300D1000000DA00CF18
:1003100000CE00D000D5000000E000D400DF00DEF9
:1003200000DD000000D700D100D300D200D40000CF
:100330000000000100E30001002C002178000028EB
:10034000000100E200000000002223252628292ABF
:100350002C2D2F3032333536383A3B3D3E40424328
:100360004547494A4C4E5051535557595A5C5E6067
:1003700062646668696B6D6F71737577797B7D7F79
:1003800081838587898A8C8E90929496989A9C9E78
:100390009FA1A3A5A7A8AAACAEAFB1B3B4B6B8B994
:1003A000BBBCBEBFC1C2C3C5C6C7C9CACBCCCDCEFC
:1003B000D0D1D2D2D3D4D5D6D7D7D8D9D9DADADBDF
:1003C000DBDBDCDCDCDCDCDDDDDDDDDCDCDCDCDC6B
:1003D000DBDBDBDADAD9D9D8D7D7D6D5D4D3D2D2AA
:1003E000D1D0CECDCCCBCAC9C7C6C5C3C2C1BFBE92
:1003F000BCBBB9B8B6B4B3B1AFAEACAAA8A7A5A3FD
:10040000A19F9E9C9A98969492908E8C8A898785BB
:1004100083817F7D7B79777573716F6D6B6968669A
:100420006462605E5C5A5957555351504E4C4A496C
:1004300047454342403E3D3B3A3836353332302F14
:100440002D2C2A29282625232205010902A1018510
:10045000020901A1000509190129081500250195C6
:1004600008750181020501093009311581257F9543
:10047000027508810609381581257F950175088167
:1004800006050C0A38021581257F9501750881063D
:10049000C0C005010980A101850319012AB7001513
:1004A0000126B700950175108100C0050C0901A156
:1004B00001850419012AA002150126A002950175E3
:1004C000108100C005010906A101050719E029E70F
:1004D00015002501950875018102950175088101B6
:1004E0000507190029FF150026FF009506750881EC
:1004F00000050819012905150025019505750191CB
:1005000002950175039101C009023B00020100A0A0
:10051000FA09040000010301010009211101000191
:1005200022440007058103080001090401000103BA
:10053000000000092111010001227B000705820350
:100540002000011201000200000008504B3034026C
:100550000001020001220342004D0034003000205F
:100560000048006F00740073007700610070002085
:1005700000520047004200000016034B005000529A
:100580000065007000750062006C00690063000087
:1005900000040309040010002000110121001202D0
:1005A0002200130323001404240015052500160659
:1005B00026001707270018082800190929001A0A19
:1005C0002A001B0B2B0040305000413151004232B9
:1005D00052004333530044345400453555004636E9
:1005E00056004737570048385800493959004A3AA9
:1005F0005A004B3B5B007060800071618100726249
:100600008200736383007464840075658500766678
:1006100086007767870078688800796989007A6A38
:100620008A007B6B8B00A090B000A191B100A292D8
:10063000B200A393B300A494B400A595B500A79706
:10064000B700A898B800A999B900AA9ABA00AB9BBC
:10065000BB000101010101010101010202020202CC
:10066000020202020303030303030303040404045A
:100670000404040505050505060606060607070722
:10068000070708080808090909090A0A0A0B0B0BD9
:100690000C0C0C0D0D0D0E0E0E0F0F0F1010111176
:1006A00011121213131414151516161717181819FA
:1006B000191A1A1B1B1C1D1D1E1E1F202021222261
:1006C000232424252626272829292A2B2C2D2D2EA4
:1006D0002F30313232333435363738393A3B3C3DBE
:1006E0003E3F404142434445464748494A4C4D4EAF
:1006F0004F50515354555658595A5B5D5E5F616275
:1007000064656668696B6C6D6F7072737577787A03
:100710007B7D7E8082838587888A8C8E8F9193955E
:1007200096989A9C9EA0A2A3A5A7A9ABADAFB1B382
:10073000B5B7BABCBEC0C2C4C6C9CBCDCFD1D4D662
:10074000D8DBDDDFE2E4E7E9EBEEF0F3F5F8FAFD04
:10075000FFFFAA7F554011241FBECFEFDAE0DEBFB6
:10076000CDBF04B603FE18C080915D0590915E0573
:10077000A0915F05B09160058730904BA740B04BCA
:1007800059F410925D0510925E0510925F0510926B
:100790006005E0E0F8E3099512E0A0E0B1E0EAE1ED
:1007A000FCE602C005900D92A236B107D9F725E00C
:1007B000A2E6B2E001C01D92AD35B207E1F70E949A
:1007C0005D0F0C940B360C940000A6E0B0E0EBEE4D
:1007D000F3E00C94263449835A8349815A81992342
:1007E00061F0222351F0CA010E94F52D182F682FC5
:1007F00089819A810E94692E04C0CA010E94362E06
:10080000182F69817A81812F0E9499152696E3E03D
:100810000C9442340E94F52E2FEF84E39CE021508B
:1008200080409040E1F700C000009CE088E10FB6F6
:10083000F894A895809360000FBE90936000FFCF5E
:10084000ABE1B0E0E6E2F4E00C9425344E8B5F8B34
:10085000688F798F8A8F9B8F192F91111092830344
:10086000DE011F9687E0FD0111928A95E9F786E087
:10087000FE01769601900D928A95E1F70A8D00238C
:1008800041F021E04F85588969897A89C8010E9421
:10089000E5030B8B1C8B87E0FE013F96DE0118966B
:1008A00001900D928A95E1F7CE0108960E94A51756
:1008B00081112CC087E0FE013896DE01119601906F
:1008C0000D928A95E1F76C85662301F1209147032B
:1008D00030E0C9010196877099274091800350E06C
:1008E0008417950761F16D8397E0929FD001939FE4
:1008F000B00D1124A85BBC4FFE01319601900D9202
:100900009A95E1F7809347030E94421717E0809180
:100910008003909147038917F9F0189FC0011124B3
:10092000885B9C4F0E94A5178823B1F080918003BB
:1009300090E001968770992780938003E8CF0E940A
:10094000F52E1092470310928003E0E4F3E087E075
:10095000DF011D928A95E9F76B96E4E00C9441342F
:10096000A0E0B0E0E6EBF4E00C942034FC018481DC
:10097000882309F425C57F0121E0408151816281EE
:10098000738195810E94E503EC01FC01E851FC476D
:10099000E730F10588F5EA5AFF4F0C949C3506E2E2
:1009A00021EE41EE6AE17CE705C007E225EE45EE67
:1009B0006BE17CE7C7010E94811E1AC106E221EEAD
:1009C00040EE68E17CE7F6CF07E225EE44EE69E110
:1009D0007CE7F0CF06E221EE42EE6CE17CE7EACF65
:1009E00007E225EE46EE6DE17CE7E4CF08E221E088
:1009F00045EE6EE17CE7DECFF7018581882309F4BF
:100A000017C110928304CE019057839708F0DBC082
:100A100084E090E00E94D1349093240380932303D8
:100A2000FE01E150F047E232F10520F4E35AFF4FB6
:100A30000C949C35809123038160ACC08091240389
:100A40008860B4C0809123038260A4C08091230396
:100A500020C08091230388609DC0809124031EC024
:100A6000809124038260A2C080912303806192C0A0
:100A70008091230380628EC08091230380648AC0AA
:100A80000E94F52E80912303806884C08091230307
:100A9000886084607FC0809124038260816086C00A
:100AA000809123038E7F76C080912403877F7EC050
:100AB000809123038D7F6EC08091230320C080919D
:100AC0002303877F67C0809124031EC08091240385
:100AD0008D7F6CC0809123038F7E5CC08091230347
:100AE0008F7D58C0809123038F7B54C00E94F52EC8
:100AF000809123038F774EC080912303877F8B7F64
:100B000049C0809124038D7F8E7F50C08091230344
:100B100082FB222720F991E0922790FB82F990FB3B
:100B200083F938C080912403982F909591708E7F1F
:100B3000892B90FB81F93AC08091230386FB222701
:100B400020F991E0922790FB86F924C00E94F52EAF
:100B50008091230387FB222720F991E0922790FBC5
:100B600087F918C061E001C060E08EE090E00E946B
:100B7000E7341EC08091230384FB222720F991E0F3
:100B8000922790FB84F906C080912303982F9095BB
:100B900090FB80F9809323030BC08091240383FB97
:100BA000222720F991E0922790FB83F98093240378
:100BB000609123037091240384E090E00E94053546
:100BC0000E94F52E15C0C631FCE7DF0729F580919C
:100BD0008C038A7A91E009F490E090936402811189
:100BE00019C069E288E393E00E94101E0E94DA16A1
:100BF00080918103877009F4E3C3F701858188231D
:100C000009F4DEC38091240382FFDAC382E00E94EC
:100C10001417D6C365E3E6CFC7372CE7D20709F42C
:100C20007FC3C8378CE7D80709F08AC382E07CC34A
:100C3000C6319CE7D90709F45FC310918C03127287
:100C4000FE01E052F847E531F10508F0E2C0E15855
:100C5000FF4F0C949C3580916C0480FF19C0282FA5
:100C60002E7F20936C0430916D0440916E0450915E
:100C70006F0460917004709171048091720490917E
:100C800073040E94F63010925C050E94B43008C0D4
:100C9000816080936C0461E0869586950E94CA32DB
:100CA0009091070581E0892780930705109217012D
:100CB000809106058160809306059ACF46E153E353
:100CC00061E273E3812F0E949A1F44ED5BE26EEDB7
:100CD0007BE26BC041E253E366E173E3812F0E9444
:100CE0009A1F4EED5BE264ED7BE25FC04EE952E39A
:100CF00068EA72E3812F0E949A1F40EC5BE26AEC83
:100D00007BE253C048EA52E36EE972E3812F0E940E
:100D10009A1F4AEC5BE260EC7BE247C044E852E396
:100D200061E972E3812F0E949A1F46EA5BE263EB5E
:100D30007BE23BC041E952E364E872E3812F0E9409
:100D40009A1F43EB5BE266EA7BE22FC04AE652E37E
:100D500067E772E3812F0E949A1F4CE85BE269E922
:100D60007BE223C047E752E36AE672E3812F0E94E9
:100D70009A1F49E95BE26CE87BE217C04CE151E362
:100D800066E371E3812F0E949A1F44E05BE262E117
:100D90007BE20BC046E351E36CE171E3812F0E94DB
:100DA0009A1F42E15BE264E07BE2812F0E949A1F7E
:100DB0001FCF61E081E00E94CA3281E011C065E08E
:100DC00082E00E94851F85E00BC068E086E00E94FB
:100DD000851F8DE005C06EE089E00E94851F82E1DD
:100DE0000E94C82505CF64E18FE010C067E185E16E
:100DF0000DC061E088E105C062E289E107C061E001
:100E000083E20E94CA32F4CE6AE285E20E94851F24
:100E1000EFCEC737FCE7DF0709F484C2C837DC47E9
:100E200009F485C2F7018581C081D181882349F009
:100E3000CE010E94F52D182F682FCE010E94692E39
:100E400004C0CE010E94362E182FBE01812F0E94B1
:100E500099150E94B615D82FC92FB82EF701D58045
:100E6000C6800C2D02950F70809181038770F9F078
:100E7000DD20E9F0892F807F803469F080E28D0FDA
:100E80008830A8F0892F807E803229F4F1E0FD17A8
:100E900070F4002361F08091240382FF08C082E097
:100EA0000E94141780918103877011E009F010E00F
:100EB000CC2EC2948FE0C8228C2D90E08C3091050E
:100EC00008F0F2C1FC01EC56FF4F0C949C358C2FBE
:100ED000807FCF70882311F0C295C07FDD20B9F0EC
:100EE000CC2309F4CFC180E28D0F883010F0B1100F
:100EF00006C090918C03C92BC0938C0305C09091C0
:100F00008303C92BC09383030E94DA16BBC18D2FC4
:100F10000E941930CC2309F4C7C1D05ED83088F1C3
:100F2000BB2079F1C09590918303C923C0938303BB
:100F30002BC08C2F807FCF70803211F0C295C07F84
:100F40008D2FBB2029F021E0B21609F44DC056C008
:100F50008091240382FD1BC0DD2069F0CC2339F091
:100F600090918C03C92BC0938C030E94DA1680E009
:100F70000E94553099C180E00E941930CC2309F4B9
:100F800093C18C2F0E94D3160E94DA168DC1DD20EA
:100F900089F0002309F43CC0013009F085C190912B
:100FA00082038C2F8923C81709F47EC1C92BC093F3
:100FB00082037AC1011178C18C2F0E941C2F80916D
:100FC00082039C2F982329F09C2F9095892380934E
:100FD0008203809165029C2F982309F465C1C09516
:100FE0008C238093650260C1DD2021F0063008F07B
:100FF0005BC10EC0053008F057C110C0DD2061F0A4
:10100000002331F0F701868180FF3CC18F70868319
:101010008C2F0E94232F48C1011138C18C2F0E94B0
:101020001C2F42C18C2F86958695837019F08130D4
:1010300061F03AC1DD2021F08D2F9C2F937002C00A
:1010400080E090E00E944F1E35C1DD2021F08D2F01
:101050009C2F937002C080E090E00E942A1E2AC15B
:101060006D2D8D2F0E942D2F25C18C2F837009F09F
:1010700041C0D1101DC12D2F229526952770220F1A
:10108000220F8D2F8F7090E0022E02C0880F991FC3
:101090000A94E2F7D4FF0BC04FE050E002C0440FC7
:1010A000551F2A95E2F79A012095309502C020E05D
:1010B00030E0C695C695C370C23099F068F440918F
:1010C0001F0350912003C13029F0822B932B8423DE
:1010D000952304C0842B952B822B932B0E94CD2E1D
:1010E000E7C0822B932B20911F033091200382278E
:1010F0009327F4CFDD2019F08C2F817001C08695E5
:10110000882309F4D5C02D2F229526952770220F0C
:10111000220F8D2F8F7090E0022E02C0880F991F32
:101120000A94E2F7D4FF0BC04FE050E002C0440F36
:10113000551F2A95E2F79A012095309502C020E0CC
:1011400030E0C695C695C370C23079F0B8F44091CE
:10115000210350912203C13029F0822B932B842349
:1011600095230EC0842B952B09C0822B932B2091A5
:101170002103309122038227932702C0822B932BD5
:101180000E949D2E95C0CF70DD2039F08C2F0E94DB
:10119000BD2E8D2F0E94232F8BC08D2F0E941C2FC0
:1011A0008C2F0E94AB2E84C08D2F92EFB91689F13F
:1011B0009B1538F0E0EFBE1659F0F1EFBF1621F1A4
:1011C0005DC023EFB21661F194EFB916C9F056C0B5
:1011D000DD2091F0053008F067C0CF7181E090E02C
:1011E00002C0880F991FCA95E2F720912103309120
:1011F00022038227932721C0063008F055C0EDCF87
:101200008091240382FD1CC0DD2029F08C2F8F717A
:1012100029C0DD20D9F38C2F8F710E94AB2E44C0E2
:10122000DD2049F0CF7181E090E002C0880F991F66
:10123000CA95E2F702C080E090E00E949D2E34C083
:10124000DD2099F0CF718C2F0E94BD2E8091240358
:1012500082FF07C0E8E0CE9FC00111248360809325
:1012600081038C2F0E94BD2E1FC081E00E941417A5
:101270000230D0F082E00E94141716C0DD2021F069
:10128000002321F28D2F74CE002329F2893349F4F3
:10129000FFEF27EE83E0F15020408040E1F700C0EF
:1012A00000008D2F0E94193008EF0C0D043010F44F
:1012B0000E94741E1123A9F08091810380FD11C04A
:1012C000F70115828695869586950E94BD2EC701E9
:1012D0000E94B004809181038695869586950E9430
:1012E000AB2E20E0F70140815181628173818481BE
:1012F00095810E94E50364C08091640281110EC053
:1013000089E2E8E3F3E02EE333E09281891301C040
:10131000128231962E173F07C1F768CC85E3F1CFD3
:1013200081E002C081E004C00E94BD2E03C082E0C3
:101330000E94AB2E43E062E081E00E94241958CC69
:10134000C330ECE7DE0741F46FEF7FEF80E090E021
:101350000E9405350E940A04C430FCE7DF07B0F4A0
:10136000C1152CE7D20771F40E94F52EFFEF24E39C
:101370008CE0F15020408040E1F700C000000E9466
:10138000761D36CCC130DC4729F34CCDCB359CE7FC
:10139000D90721F480E00E942B1744CDCC35ECE72F
:1013A000DE0741F48091240382FB882780F991E0D5
:1013B0008927F1CFCA35DC4709F034CD81E0EBCF86
:1013C000CDB7DEB7E9E00C943C34A0E0B0E0EBEE42
:1013D000F9E00C941734782E8091190187110DC013
:1013E00020910705237030E04091180150E081E022
:1013F0002417350719F480E001C081E081708093E3
:10140000160180910C0590911501981739F0809381
:10141000150140E060E080E00E94F12485E178124F
:1014200045C08FEA90E205C094E1791224C181EEB3
:1014300090E20E94262707C0E6E07E121CC189E7E1
:1014400091E20E94E226C82F1DC0E71508F419C1D9
:10145000F1E07F127BC0809114010E94172DEC01F6
:10146000609108057091090580910A050E9450312C
:10147000162F072FF82ECD1708F475C0C1E0DF3204
:1014800008F06FC0809114018F5F80931401C11127
:101490000FC582E08093170180911601811108C564
:1014A000711006C583E08093170102C5871508F403
:1014B00073C19AE079120BC088E192E205C07816F8
:1014C00008F044C18CEF91E20E947627BCCF9715BB
:1014D00008F42EC1E4E07E12B8CF809114010E947E
:1014E000172DEC0100910905D0900A0520910B05FC
:1014F00010E4129F112D1124CD1708F0BFCFEC2E50
:10150000F12CF701E95FFD4F90818091150189234E
:10151000D9F0F701EE0FFF1FE755FE4F6081169FD0
:10152000B001112495E0759567959A95E1F7809142
:101530000805680F702F8D2D0E945031462F282FDF
:10154000672FC7010E94F424CF5FD6CF7F16E8F43F
:1015500080911601882329F040E060E080E00E943D
:10156000F124C0E08FCFEC2FF0E0DF01A95FBD4F89
:101570008C9190911501982331F02F2D412F602FE0
:10158000CF010E94F424CF5F76CF22E0721237C0E1
:10159000809114010E94172DEC0100910905109112
:1015A0000A05F09008056F2D702F812F0E94503191
:1015B000E62ED72EC82E60910B056F0D702F812F50
:1015C0000E945031162F072FF82ECD1708F056CF56
:1015D0008C2F90E0FC01E95FFD4F308120911501D7
:1015E000232359F030FF04C02F2D412F602F03C05B
:1015F0002C2D4E2D6D2D0E94F424CF5FE6CF33E0CD
:10160000731239C0809114010E94172DEC010091D2
:101610000905D0900A0520910B0510E4129F112DA9
:101620001124CD1708F02ACFEC2EF12CF701E95F39
:10163000FD4F9081809115018923B9F0F701EE0FDC
:10164000FF1FE758FE4F81A982958F7060910805B2
:10165000819F600D1124702F8D2D0E945031462FD7
:10166000282F672FC7010E94F424CF5FDACFFCE157
:101670007F1609F44CC2809114018F5F809314018E
:1016800008CF87E0781203C08DE491E2DACE8715A7
:1016900008F440C095E07912CFCE809114010E94E9
:1016A000172DEC010091080510910905F0900A052D
:1016B00060910B056695669566958091D904909129
:1016C000DA040E94AB250E94F724805887FD81959B
:1016D000880F282F3F2D239F212D1124822FB80101
:1016E0000E945031162F072FF82ECD1708F0C6CEC6
:1016F000EC2FF0E0DF01A95FBD4F8C9190911501B7
:10170000982331F02F2D412F602FCF010E94F42418
:10171000CF5FEBCFF8E07F1203C081E592E205C016
:1017200029E07212A8CF83E392E20E94DD278BCEDC
:101730003FE0731203C08EE191E283CE371590F043
:101740008CE07812BCCE8BE491E27BCE9DE07912E6
:1017500003C082E491E275CEEEE07E128CCF89E385
:1017600091E26FCEF2E17F1203C08BEE91E2DDCF0A
:10177000F71560F020E1721203C08FE091E2A4CE71
:1017800031E1731278CF82E895E2CFCF83E178120E
:101790004BCE87ED91E298CEE0E27E1205C082E565
:1017A00090E20E9478264FCEE71508F4DFC2FAE1F6
:1017B0007F1203C088E195E244CEF71508F4C1C05A
:1017C00027E172126AC0809114010E94172D192F0F
:1017D00090911601911122C060910B0520E1620FDA
:1017E00008F46FEF8091D9049091DA040E94AB2540
:1017F0006AE070E00E940334892B09F049C00E941E
:101800003C259FE2899F9001112460911501832F4F
:10181000932F990F990B0E94DC2C3AC0C82FD0E06F
:10182000E12EF12CCE15DF059CF560911501CE015E
:101830000E94DC2C2196F6CF38E1731241C08091D2
:1018400014010E94172D192F9091160191112AC091
:1018500060910B0520E1620F08F46FEF8091D904CD
:101860009091DA040E94AB2565E070E00E94033499
:10187000892B71F40E943C25EFE28E9F9001112488
:1018800060911501832F932F990F990B0E94B82C0B
:10189000C1E01F3208F4F6CD64CE721668F681E717
:1018A00090E2C7CDC82FD0E0E12EF12CCE15DF0598
:1018B0007CF760911501CE010E94B82C2196F6CFDD
:1018C00089E17812D8CE809114010E94172DEC0185
:1018D0000091090510910A05F090080560910B052B
:1018E0006695669566958091D9049091DA040E9478
:1018F000AB250E94F724805887FD8195880F682FBB
:101900002CE0629F612D11246F0D702F812F0E949A
:101910005031162F072FF82ECD1708F0AFCDEC2F32
:10192000F0E0DF01A95FBD4F8C91909115019823E4
:1019300031F02F2D412F602FCF010E94F424CF5F73
:10194000EBCF9DE17912DAC04091F7025091F80295
:101950006091F9027091FA028091D9049091DA04B1
:10196000A091DB04B091DC0484179507A607B707A4
:1019700008F4F7CD80911601811107C08091140100
:101980000E94172D092FC82F4EC040E060E080E074
:101990000E94F1240AE612E0C0E0D0E00E943C255B
:1019A00081FF05C0F8011082118212821EC00E94C0
:1019B0003C25D82E0E943C25F0E88F9FC0011124C1
:1019C0007FE7790F7E01EE0CFF1CC7018C0F9D1F76
:1019D0009C0126593D4F79016D2D80910A050E9489
:1019E0005031F70160837183828321960D5F1F4F11
:1019F000CF32D10599F6C2CF8C2F90E0FC01E95F80
:101A0000FD4F308120911501232361F0FC01EE0F81
:101A1000FF1FE80FF91FE659FD4F228140816181C8
:101A20000E94F424CF5FC01738F3C1E00F3208F0F2
:101A3000C0E00F3208F426CD20E010E0015011097B
:101A4000822F90E080179107C4F4DC01AA0FBB1F1E
:101A5000A80FB91FA659BD4F0196FC01EE0FFF1F3D
:101A60008E0F9F1FFC01E659FD4FC080D180E280A0
:101A7000CD92DD92EC922F5FE3CF0E943C2578015E
:101A8000EE0CFF1C81FF09C00E0D1F1DF801E65969
:101A9000FD4F10821182128218C00E943C25D82F5F
:101AA0000E943C25F0E88F9FC00111247FE7790F49
:101AB0000E0D1F1D06591D4F6D2F80910A050E94A6
:101AC0005031F8016083718382830E94B5250091B3
:101AD000D9041091DA042091DB043091DC04DC019C
:101AE000CB01800F911FA21FB31F8093F702909329
:101AF000F802A093F902B093FA02C4CC971508F447
:101B000077C0EBE17E12B3CD80E690E29ACC809173
:101B100014010E94172D192F4091D9045091DA0415
:101B20006091DB047091DC04809166029091670201
:101B3000A0916802B091690284179507A607B707BC
:101B400008F0A6CE0E943C25FFE28F9FC001112421
:101B5000C92FDD27C7FDDA95FE01E95FFD4F9081B2
:101B600080911501892309F493CE0E943C2581FDC3
:101B70000EC00E943C25082F0E943C2520E8829F31
:101B8000C00111247FE7790F80910A0503C080E02E
:101B900070E000E0602F0E945031462F282F672F01
:101BA000CE010E94F42420910B0530E1230F08F4AC
:101BB0002FEF60E1822F90E00E94AB25BC0184EF03
:101BC00091E00E9403348091D9049091DA04A091AD
:101BD000DB04B091DC04860F971FA11DB11D80931B
:101BE000660290936702A0936802B093690250CE98
:101BF0002EE17212B5C080911601882329F040E0D1
:101C000060E080E00E94F124809114010E94172D71
:101C1000692E4091D9045091DA046091DB047091EF
:101C2000DC048091130390911403A0911503B091EB
:101C3000160384179507A607B70708F08BC06091B5
:101C400008057091090580910A050E945031562EB1
:101C5000472E382E0BEF12E0C9E7D1E049EA842E77
:101C600041E0942E5E016E01780135E0232EF701EC
:101C70008081F601882369F08081232D452D642D14
:101C800090E00E94F424F5018385232D452D642DD9
:101C90000CC0808120E040E060E090E00E94F424ED
:101CA000F501838520E040E060E090E00E94F424AC
:101CB000F701818181937F012A94FFEFCF1ADF0A18
:101CC00021E0A21AB1082110D2CFF8018581882322
:101CD00061F08D81232D452D642D90E00E94F42428
:101CE0008E81232D452D642D0BC08D8120E040E099
:101CF00060E090E00E94F4248E8120E040E060E00B
:101D000090E00E94F4240E943C25837091E009F049
:101D100090E0F80195830A5F1F4F2C968C169D0664
:101D200009F0A0CF0E94B5250091D9041091DA04E2
:101D30002091DB043091DC04DC01CB01800F911F8A
:101D4000A21FB31F8093130390931403A093150352
:101D5000B0931603C1E0FEE2F61508F093CB01CC78
:101D60003FE1731288CC89E590E21BCD86E27812C0
:101D70000CC06FEC7FE105C0F2E27F127CCC69E31E
:101D800070E280E00E94E1255ECB871508F432C046
:101D900093E279120BC08091DD0421E0382F321BD1
:101DA00008F430E0832F61E070E2ECCF971570F01B
:101DB000E1E27E12E1CF8091DD0421E0382F321B79
:101DC00008F430E0832F69E370E2DCCF24E2721282
:101DD00003C061E070E2D5CF35E273124CCC809144
:101DE000DD0421E0382F321B08F430E0832F6FEC44
:101DF0007FE1C8CF89E278120BC08091DD0421E039
:101E0000382F321B08F430E0832F61EA7FE1BACF2C
:101E10008715A0F097E279120BC08091DD0421E0D4
:101E2000382F321B08F430E0832F67EB7FE1AACF15
:101E3000E8E27E1220CC67EB7FE1A3CFFAE27F12CB
:101E400003C061EA7FE19DCF2FEF721214CC809125
:101E5000D9049091DA04A091DB04B091DC048827C6
:101E60009C70AA27BB272AE0B695A79597958795DA
:101E70002A95D1F782309105A105B10571F0833023
:101E80009105A105B10569F040E00197A105B105F3
:101E900011F060E008C064E102C044E160E080E06D
:101EA00003C044E164E184E10E94F12482E0FBCAC2
:101EB000CDB7DEB7E2E10C943334A4E1B0E0E3E661
:101EC000FFE00C94173485B7806885BF85B78068BC
:101ED00085BF84B7877F84BF0FB6F894A89580919B
:101EE0006000886180936000109260000FBE90E0F7
:101EF00080E80FB6F89480936100909361000FBE64
:101F000085E794E190936302809362020E94731BC1
:101F10000E94E61B8091E20084608093E200789446
:101F20008091CF048823A1F01091E9001F70909157
:101F3000EC00892F817090FD80E8182B1092E90049
:101F40008091E80083FD0E9442281F701093E900F1
:101F500082E084BD93E095BD9AEF97BD80936E00BB
:101F600008E211E0D8018D918D018F3F11F00E94A0
:101F70008215B1E004331B07A9F704E311E0F8016F
:101F800081918F018F3F11F00E948215F1E008339B
:101F90001F07A9F788E0E6E2F3E0DF01282F1D9292
:101FA0002A95E9F7E7E1F3E0DF011D928A95E9F769
:101FB00080E090E00E94D134863E9E4F09F466C0D6
:101FC00066EE7EEF80E090E00E94053560E082E002
:101FD00090E00E94E73481E090E0909320038093AA
:101FE0001F0361E083E090E00E94E73460E074E169
:101FF00084E090E00E94053560E086E090E00E9479
:10200000E73460E087E090E00E94E73440E050E091
:10201000BA0188E090E00E94F93460E084E290E048
:102020000E94E73460E087E190E00E94E73460E0DE
:102030008CE090E00E94E73460E08DE090E00E9448
:10204000E73419821A821B821C821D821E821F8223
:10205000188648E050E068E170E0CE0101960E94E9
:10206000D73440E050E0BA0180E290E00E94F934B9
:1020700040E050E0BA018FE090E00E94F93440E087
:1020800050E0BA0183E190E00E94F93482E090E0F0
:102090000E94C33480932E0384E090E00E94D134E8
:1020A00090932403809323030E947319EFEFF6E7C4
:1020B00021E0E150F0402040E1F700C000000E9424
:1020C00073198091260380FF08C06FEF7FEF80E0D7
:1020D00090E00E9405350E94761D83E090E00E940A
:1020E000C33490E00E94CD2E0E94F92B1092DD04A3
:1020F000E6EFF4E086E095E02FEF3FEF2193319398
:102100008E179F07D9F710920F05E8E2F5E088E3F4
:1021100095E02FEF3FEF219331938E179F07D9F76B
:1021200081E08093060548E050E068E170E087E0D8
:1021300095E00E94B33410920605809107058C7FCC
:10214000F9F485E38093070580912501909126019C
:10215000A09127018093080590930905A0930A0593
:102160008FE780930B058FEF80930C0548E050E0DC
:1021700068E170E087E095E00E94D7341092060590
:102180008091250381117EC088E090E00E94CB34CD
:102190004B015C0184E290E00E94C334282F30E0C0
:1021A00040E050E060E070E080E090E000E20E94FB
:1021B000B135282939294A295B2920936C043093A9
:1021C0006D0440936E0450936F0460937004709399
:1021D000710480937204909373042C7F09F042C0C1
:1021E00025E020936C0410926D043FEF30936E0451
:1021F00036E930936F041092700430E04FEF56E9E7
:1022000060E00E94F63088E090E00E94CB346B01E1
:102210007C0184E290E00E94C334282F30E040E04B
:1022200050E060E070E080E090E00E94B135B22FB5
:10223000A32FF42FE52F5B0197018601BC29A12B69
:10224000F22BE32BB0936C04A0936D04F0936E0417
:10225000E0936F0460937004B092710480937204F1
:10226000909373040E94DB3010925C0580916C04A3
:1022700080FF05C060E0869586950E94CA3281E0A5
:102280008093250384E091E09093870480938604F3
:10229000772473948091CF04853009F060C000E406
:1022A00053E0F52E10E18091CF04853009F051C044
:1022B0008091CF04843009F438C00E94222D80918F
:1022C0003C0581110DC00E94E50910921901809111
:1022D00007058370809318010E94ED1AF092170190
:1022E00070923C0510928A0488E190E00FB6F89451
:1022F000A895809360000FBE0093600083B7817F34
:10230000846083BF83B7816083BF7894889583B7E7
:102310008E7F83BF0FB6F894A89580916000886186
:1023200080936000109260000FBE8091CE048823DD
:1023300009F4B9CF0E947319E6E2F3E0819191911B
:10234000892B09F0B1C2AEE2B3E0AE17BF07B1F717
:10235000AACF0E94F52E0E94741E10923C050E9486
:1023600073194FE2242E43E0342EE6E2F3E0FC8BB7
:10237000EB8B27E333E0DF01F101419151918D9126
:102380009D91842795272E173F0719F0892BA9F3D4
:1023900005C0892B19F40E944F19CAC029E731E002
:1023A000388B2F87612CAB89BC898D909D90BC8B1D
:1023B000AB8BF101808191819401282739273A8BD9
:1023C000298B232B09F4A6C0E12CF12CCC24C39437
:1023D000D12C89899A898C219D21892B09F48DC062
:1023E00084010C211D21E9866A860E94DB1D9C87E1
:1023F0008B877D8691E00115110509F490E09E8799
:1024000049855A856B857C858D850E942004012B2A
:1024100059F0EF85F889EE0DFF1D80818F3F21F087
:10242000582E4424439401C0412C042D10E0809187
:102430000F05D801A80FB11D1997ACF188E0A82E9F
:10244000B12CA01AB10AB8016F5F7F4F615F7A4F5C
:10245000A50180E195E00E940236B801675F7F4FD9
:10246000615F7A4FA50188E195E00E940236A501DF
:10247000440F551FB801660F771F675E7F4F615F7E
:102480007A4F88E295E00E940236B8016F5E7F4F76
:10249000615F7A4FA50180E295E00E94023688E0F4
:1024A000841980930F0580910F0590E0A52DB0E071
:1024B0009D01220F331F27553E4FAA0FBB1FBD01A1
:1024C00066557E4F41E0480F9415A8F490E0FC015A
:1024D000E15FFA4FD9015C915183DB015C91518737
:1024E000518A880F991FFC01E15FFA4F128E118EFD
:1024F00091E0842FE7CF80930F05CC0CDD1CBFEF5C
:10250000EB1AFB0AECE0EE16F10409F062CFD10100
:102510008D929C926394B2E02B0E311CEF85F8896A
:102520003C96F88BEF87F4E06F123DCF0E94CF1DF1
:1025300080915C05882309F4A6C080915B05E09139
:102540006C04E695E695E81BE0935705823059F454
:10255000F0E0EB59FE4FE4910E2F10E0FDEDEF2E71
:10256000F4E2FF2E6BC0863059F4F0E0EE59FE4FD6
:10257000E4910E2F10E0EDECEE2EE4E2FE2E5EC0B4
:10258000893061F4E695F0E0E15AFE4FE4910E2FB8
:1025900010E075EDE72E73E2F72E50C08F3061F436
:1025A000E695F0E0E45AFE4FE4910E2F10E060E76C
:1025B000E62E63E2F62E42C0853159F4F0E0E75A88
:1025C000FE4FE4910E2F10E052E2E52E53E2F52E7D
:1025D00035C08831F9F0833249F4E7E5F1E005913F
:1025E000149143E9E42E44E2F42E28C08432C9F069
:1025F0008532F1F48E2F63E00E946E35E92FF0E012
:10260000EC5AFE4FE4910E2F10E03FEFE32E33E241
:10261000F32E14C008E210E027EAE22E22E2F22EA6
:102620000DC004EF11E09FE6E92E92E2F92E06C0FC
:1026300000ED17E08EE6E82E82E2F82E8091580534
:10264000882361F0109258050E94DB1D9093560577
:102650008093550510925A05109259050E94DB1D72
:10266000E0915505F09156058E1B9F0B8F3F9F47BC
:1026700050F40E0F1F1F109356050093550585E566
:1026800095E0F70109950E94222D86E0EBE7F4E042
:10269000DE01119601900D928A95E1F7D0907C04AD
:1026A00000917D04F0907E04E0907F0410918004FE
:1026B00010927D0410927E0410927F041092800488
:1026C000011103C0FF2009F44BC08091790490915F
:1026D0007A040E94C01D9C0190917404992309F40E
:1026E000FAC025313105E0F19F3F19F09F5F9093CB
:1026F0007404002361F00E94571F101614F491E037
:1027000001C09FEF899F802D112480937D04FF20BD
:1027100061F00E94571F1F1414F09FEF01C091E059
:10272000899F802D112480937E0480917D048823CD
:10273000B9F0C0907E04CC2099F00E94771F8823C6
:1027400019F080937D0402C070927D048C2D0E944C
:10275000771F882319F080937E0402C070927E0454
:10276000E11003C0112309F44BC0809177049091CC
:1027700078040E94C01D9C0190917504992309F46E
:10278000AFC021353105E0F19F3F19F09F5F909375
:102790007504EE2061F00E94351F1E1414F491E0C0
:1027A00001C09FEF899F802D112480937F04112306
:1027B00061F00E94351F111614F09FEF01C091E0E7
:1027C000899F802D11248093800480917F04882329
:1027D000B9F0C0908004CC2099F00E94771F882324
:1027E00019F080937F0402C070927F048C2D0E94A8
:1027F000771F882319F08093800402C070928004B0
:1028000080917C04D8121AC080917D04882311F035
:10281000081314C080917E04882311F0F8120EC0B2
:1028200080918004882311F0181308C090917F04D0
:10283000992331F081E09E1104C002C081E001C003
:1028400080E080FD15C080917D0481110FC08091D2
:102850007E0481110BC080917F04811107C081E04B
:1028600090918004911103C080E001C081E080FD5F
:102870000E940B1FDA820B83FC82ED821E8386E0AE
:10288000FE013196ABE7B4E001900D928A95E1F735
:102890000E94741E90913703891709F4FBCC809332
:1028A00037030E94CF1DF6CC19BD82E189BD09B462
:1028B00000FEFDCF8091D8008F7D8093D80080915D
:1028C000E00082608093E0008091E00081FDFCCF19
:1028D0000E94F52EE8CC2333310508F007CF40CF16
:1028E0002B30310508F052CF8BCF80E008959091C6
:1028F000230392FF10C041E0282F2471243009F0F7
:1029000040E031E0282F2871283009F030E04317EB
:1029100011F02CE0822793FF10C041E0282F247192
:10292000243109F040E031E0282F2871283109F0E6
:1029300030E0431711F02CE082273091240330FF60
:1029400010C051E0282F2171213009F050E041E002
:10295000282F2871283009F040E0541711F029E0A1
:10296000822731FF10C041E0282F2171213109F069
:1029700040E031E0282F2871283109F030E043177A
:1029800011F029E0822794FD877E08958238910511
:1029900069F1B0F48133910509F475C048F48932C6
:1029A000910509F467C08A32910509F471C0089550
:1029B0008533910509F459C089339105B9F008951B
:1029C000833E910589F138F4803E9105D1F0823E35
:1029D000910529F10895863E9105C9F1873E91053B
:1029E000D9F1843E910509F06CC027C020912303E2
:1029F00020FD57C021FD55C02091240323FD5BC05D
:102A000008958091230380FD48C08091240380FFB6
:102A100048C08091230384FD46C083EE51C080915D
:102A2000230382FF3CC0F5CF8091230382FD37C092
:102A30008091240380FD35C0ECCF8091240381FF79
:102A400036C08091230384FD2EC087EE39C080916B
:102A5000230383FF2AC0F5CF8091230383FD25C084
:102A60008091240381FD23C0ECCF8091230385FD59
:102A700022C01FC08091230385FD1BC080912403C9
:102A800083FF19C00AC08091230386FD16C017C0BA
:102A90008091230386FD13C010C089E311C082EE2C
:102AA0000FC080EE0DC080E00BC086EE09C084EE42
:102AB00007C085E305C089E203C08AE201C081E363
:102AC00090E00895209180039091470357E02917E3
:102AD000A9F030E0529FF001539FF00D1124E85B04
:102AE000FC4F7181761306C07081781303C0758125
:102AF000741306C02F5F3F4F2770E9CF80E0089521
:102B000081E00895F894E82FE295EF70F0E031A1AC
:102B1000282F2F7081E090E001C0880F2A95EAF7F6
:102B2000982F9095932391A392A1892B82A37894B7
:102B300008957430B0F46C30A0F48530A0F490E3C4
:102B4000899FF00111248CE0789FE00DF11D112484
:102B5000E60FF11DEE0FFF1FE759FE4F859194918F
:102B6000089580E001C081E090E008951F93CF9325
:102B7000DF930E94C614EC01C11580E5D807E8F583
:102B8000C11590E4D90708F0A8C0C03ED10530F5C2
:102B9000CD3CD10508F094C0C83AD10578F4C53AC7
:102BA000D10508F083C0C130D10509F47CC008F418
:102BB000F2C0C430D10508F0F1C0EDC0C33CD1056E
:102BC00008F0E9C0C85AD0E0CC0FDD1FC55CDE4F6D
:102BD0000990D881C02DCE019464E1C0C11580E276
:102BE000D80708F0CBC0C11591E0D90708F06BC039
:102BF000C83ED10508F4D2C0CEC0C03682E5D807A1
:102C000028F5C03492E5D90708F079C0C03282E5D2
:102C1000D80708F06CC0C11592E5D90708F481C047
:102C20004C2F4695469580E2489FA0011124C37021
:102C300021E030E0C90102C0880F991FCA95E2F770
:102C4000EA01C82BD92BCE019D68A9C0C03A82E504
:102C5000D807B8F48C2F8F71C03892E5D90708F0E7
:102C60007BC08695869590E2899F90011124C37060
:102C700081E090E002C0880F991FCA95E2F79A6838
:102C800068C0C03C82E5D80708F46DC0C03E92E53C
:102C9000D90708F080C0CF71DD27DC2FCC27CE010B
:102CA000806F906A7CC081E090E079C0C55AD0E026
:102CB000C85CDE4F8881C82FD0E0CE0190646FC021
:102CC000CE0190656CC08D2F0E947714182FCE0115
:102CD00099270E94C6141F715CC0CE0199270E94DB
:102CE000C614CC27DF70D06A8C2B9D2B58C0CF71B7
:102CF000D0E0DC2FCC27CE01816F906A50C08C2FA2
:102D00008F718695869590E2899F90011124C370FA
:102D100081E090E002C0880F991FCA95E2F79C6895
:102D200018C08C2F8F710E94771495E0D695C795A7
:102D30009A95E1F7CF70D0E0DC2FCC27282F30E038
:102D400084FF05C084E0220F331F8A95E1F7D06924
:102D5000CE01822B932B23C090E0D82FCC27CE011D
:102D6000846F906A1CC08C2F8F710E9477148F71B2
:102D700090E0D82FCC27CE01906211C08D2F8F719B
:102D80000E947714182FCE0199270E94C6141F7134
:102D90009062912B04C080E090E001C0CE01DF91F1
:102DA000CF911F910895809590918C0389238093F2
:102DB0008C03089590918C0380918303892B9091CB
:102DC0008203992379F0892BEAE3F3E027E090E08E
:102DD000215029F031913323D9F39F5FF9CF91111D
:102DE000109282038093380348E050E064E873E077
:102DF00088E393E00E94F535892BA9F088E0E8E3A9
:102E0000F3E0A4E8B3E001900D928A95E1F7E09138
:102E10008604F0918704309731F00280F381E02D31
:102E200088E393E009950895909181038095892323
:102E300080938103282F277069F4981759F0909197
:102E4000240392FF07C08695869586950E94AB2E37
:102E50001092810308959091240392FB222720F978
:102E6000281779F080FB92F9909324036091230353
:102E70007091240384E090E00E94053582E00E9476
:102E8000141708958091800390914703891719F0D2
:102E90008F5F8770FBCF0895CF93DF9380914603B8
:102EA00082958F7009F04EC080914503882309F404
:102EB00049C0809180034091470350914103609144
:102EC0004003C0914203D091430377E08417D1F1CE
:102ED00090E0789FF001799FF00D1124DF01A85B4D
:102EE000BC4F14962C911497222349F111962C91E2
:102EF0001197251324C02C91261321C015962C91CF
:102F0000159721111CC012962D913C9113972C1BE3
:102F10003D0B2F3A310598F4809146038F70806104
:102F200080934603E25BFC4F80818F7080618083D9
:102F300080E493E00E94B0040E94421703C001960F
:102F40008770C4CFDF91CF910895A4E1B0E0EBEAA0
:102F5000F7E10C941D348C0186E0F801DE011F9628
:102F600001900D928A95E1F7D80114968C911497EF
:102F70001596EC9090E4892E93E0992E909144035D
:102F8000911120C0882309F458C1EE2009F442C0F1
:102F9000C8010E94D22EF82E8823E1F187E0F801C3
:102FA000D40101900D928A95E1F78091440381301C
:102FB00031F480914003909141030E94292E0E9498
:102FC0004C173DC1F801D080C180A280B380F09041
:102FD00045032091420330914303FF2009F4FAC0D6
:102FE000A501421B530B4F3A510508F0AAC0882394
:102FF00009F425C180914603282F207F9091410339
:10300000222361F09C1509F469C0C8010E94D22EE8
:10301000811170C0C8010E94B0040FC19C1114C07E
:10302000909140039D1110C0E1100EC08F7080611F
:103030008093460380E493E00E94B00480914603AD
:10304000D80116968C93F7C0E1103AC040E06C2D81
:103050008D2D0E94621540E06C2D8D2D0E94621511
:10306000E82E8111E8C0DF86C88A8F8598890E9482
:10307000292E292F22952F70243020F49F70223082
:1030800028F009C02A50223080F014C0992349F05A
:10309000811107C013C0992321F0F8019681907F18
:1030A00069F0805E883030F409C0803F38F0815F7D
:1030B000833020F0C8010E94B004EF2CFE2CBFC06A
:1030C0008091460381608093460380E493E00E94F0
:1030D000B004E0E4F3E087E0DF013EC090914003FC
:1030E0009D1193CFE11091CFF8018683C8010E9412
:1030F000B00484C0EE2009F48DCF20914603822FC6
:1031000082958F7090E002978CF0809140039091AF
:10311000410399878887BB86AA86809144038C8760
:103120001D862E87CE0108960E94B00487E0F80124
:10313000A0E4B3E001900D928A95E1F70E944C174C
:103140007CC090914603292F207F51F480E493E0C6
:103150000E94B00487E0D4011D928A95E9F76BC004
:10316000882309F46CC0809141038C1111C08091B7
:1031700040038D110DC0E1100BC0F8019683C8010A
:103180000E94B00487E0D4011D928A95E9F757C0E8
:10319000C8010E94D22E882309F43CCFEE2009F406
:1031A00039CF20914603822F82958F7090E002974D
:1031B0000CF4BCCF80914003909141039A838983A2
:1031C000BC82AB82809144038D831E822F83CE010B
:1031D0000196AACFA21AB30ABFEAAB16B10428F52A
:1031E000882359F1FE2CEE2009F414CF809141037D
:1031F000C8120DC0809140038D1109C087E0F8010D
:10320000A0E4B3E001900D928A95E1F718C0C801DF
:103210000E94D22E81118ACF8091460381608093D3
:103220004603C8010E94B0040AC087E0F40111926D
:103230008A95E9F704C0F12C02C0FF24F3948F2D86
:103240006496ECE00C943934E0912103F091220370
:1032500021E030E0D90102C0AA0FBB1F8A95E2F736
:10326000C90102C0880F991F6A95E2F78A2B9B2B30
:1032700002C0220F331F4A95E2F7AF0148235923BA
:103280008417950721F4CF01822B932B05C020953D
:103290003095C9018E239F230E949D2E0895A6E09C
:1032A000B0E0E5E5F9E10C9425340E94DB1D8C01CA
:1032B00080918D0390918E030817190781F0198270
:1032C0001A820E94DB1D682F49815A81792F80E084
:1032D00090E00E94200410938E0300938D032696A5
:1032E000E4E00C944134A8E0B0E0E9E7F9E10C94A3
:1032F0001D34AE014F5F5F4F7A0188E0DA011D9205
:103300008A95E9F708E211E0CC24C394D12CAA24D1
:10331000A394B12C4E01B9E08B0E911CF801808171
:103320008F3F09F44AC0F894E82FE295EF70F0E07F
:1033300021A18F70A50102C0440F551F8A95E2F7A5
:10334000CA01922F982B91A392A18095892382A3E1
:10335000789400C064E371E0F701A60140955095B0
:10336000DB012D91BD012F3FA9F0822F82958F7037
:1033700090E0DC0190968C9190E02F7002C09595C2
:1033800087952A95E2F780FD05C0808191818C297F
:103390009D2904C08081918184239523918380831A
:1033A00032968E169F06E1F6F80180818F3F11F06C
:1033B0000E948215F0EAFA95F1F7CC0CDD1C0F5F44
:1033C0001F4F41E00433140709F0A8CF48E050E054
:1033D000B70187E193E00E94F535892B91F088E0F1
:1033E000F701A7E1B3E001900D928A95E1F781E042
:1033F000809391030E94DB1D9093900380938F0331
:103400000CC080919103882341F080918F039091AB
:1034100090030E94C01D059710F480E018C048E09A
:1034200050E067E173E086E293E00E94F535892B76
:1034300059F088E0E7E1F3E0A6E2B3E001900D92F5
:103440008A95E1F781E001C080E01092910328960F
:10345000ECE00C9439342091E4003091E50095E6DD
:103460004091EC00842F817040FF23C08091E800E0
:1034700080FD1DC08091CF04882399F0853099F09C
:103480008091EB0085FD11C04091E4005091E50072
:103490002417350729F3915011F09A01E1CF84E008
:1034A000089582E0089583E0089581E0089580E022
:1034B00008954091E80042FFDDCF0895089580917E
:1034C000C40408950F931F93CF93DF938B01EA01F8
:1034D0009091CF04943079F58F708093E9008FEF4D
:1034E0009091E800815095FD06C095ED9A95F1F711
:1034F00000008111F5CF8091E80085FF1CC00E947B
:103500002B1A882361F08091E8008E778093E80081
:1035100012C0F80181918F018093F10021972097CB
:1035200091F38091E80085FDF4CF8091E8008E77DB
:103530008093E800E4CFDF91CF911F910F91089520
:1035400043E050E0BC0182E00E94621A089546E028
:1035500050E0BC0182E00E94621A0895CF93DF938D
:10356000EC0148E050E0BC0181E00E94621A88E072
:10357000FE01A5ECB4E001900D928A95E1F7DF9190
:10358000CF910895209A25B12E7F35B131604FB784
:10359000F894FC01CB01880F991F680F791F6E0FFB
:1035A0007F1FE617F70789F0819198E035B9000091
:1035B00000C087FF25B9880F000000C000C000C010
:1035C00025B900C09A9591F7ECCF4FBF8FE594E0F5
:1035D0000197F1F700C000000895EF92FF920F935A
:1035E0001F93CF93809152048823D1F061E080E053
:1035F0000E94E92B82E9E82E83E0F82EC0E004E681
:1036000010E020E130E0A7016C2F80EA0E94B53382
:10361000C05F80E1E80EF11CC03C89F710925204B3
:10362000CF911F910F91FF90EF900895FF920F930C
:103630001F93CF93DF93182F062FF42EC0E0D0E016
:103640002F2D402F612FCE010E94202B2196CF32AB
:10365000D105B1F7CDB7DEB7E5E00C9440341F9249
:103660000F920FB60F9211242F933F934F935F93B6
:103670006F937F938F939F93AF93BF93CF93DF937A
:10368000EF93FF93C091E900CF708091EC00D82FA9
:10369000D17080FDD0E81092E9008091F000877F22
:1036A0008093F00078940E9442281092E900809163
:1036B000F00088608093F000CD2BCF70C093E900BC
:1036C000FF91EF91DF91CF91BF91AF919F918F913A
:1036D0007F916F915F914F913F912F910F900FBE0E
:1036E0000F901F901895E8EDF0E080818E7F808329
:1036F0001092E2001092DA001092E100A0EEB0E029
:103700008C9181608C9380818F77808319BCA7ED29
:10371000B0E08C918E7F8C9380818F7E808310921D
:103720008F0408958091D10487FF11C08091E80033
:1037300082FD05C08091CF048111F8CF11C0809126
:10374000E8008B770BC08091CF04882349F08091EB
:10375000E80080FFF8CF8091E8008E778093E80042
:103760000895982F973068F59093E900981739F0ED
:103770007091EC002091ED005091F00003C0242FD7
:10378000762F50E021FD02C09F5FECCF3091EB001F
:103790003E7F3093EB003091ED003D7F3093ED00A4
:1037A0003091EB0031603093EB007093EC0020938C
:1037B000ED005093F0002091EE0027FDE5CF80E072
:1037C00008958F708093E90081E00895A0E0B0E053
:1037D000ECEEFBE10C942134C8EDD0E088818F7EC3
:1037E0008883E7EDF0E080818160808384E082BFA0
:1037F00081E080938F0488818E7F888302EE10E0C1
:10380000F80110821092DA0081EEC82ED12CF60158
:10381000108288818F7788838881806888838881F7
:103820008F7D888319BC1092CF041092D00410921F
:10383000CE041092CD0490EEE92EF12CF701808198
:103840008B7F808388818160888342E060E080E0B4
:103850000E94B11BF60180818E7F8083F8018081F8
:1038600081608083808188608083F70180818E7F82
:103870008083888180618883CDB7DEB7E8E00C94CF
:103880003D341F920F920FB60F9211242F933F9346
:103890004F935F936F937F938F939F93AF93BF9358
:1038A000EF93FF938091E10082FF09C08091E200D5
:1038B00082FF05C08091E1008B7F8093E1008091C1
:1038C000DA0080FF2AC08091D80080FF26C0809156
:1038D000DA008E7F8093DA008091D90080FF18C0D3
:1038E00080E189BD82E189BD09B400FEFDCF81E0A0
:1038F0008093CF0480918F0481110FC00E94731BAD
:103900000E94E61B8091E20084608093E20005C083
:1039100019BC1092CF0410928F048091E10080FFB7
:1039200017C08091E20080FF13C08091E2008E7F7B
:103930008093E2008091E20080618093E2008091B8
:10394000D80080628093D80019BC85E08093CF04B2
:103950008091E10084FF30C08091E20084FF2CC0A0
:1039600080E189BD82E189BD09B400FEFDCF80916F
:10397000D8008F7D8093D8008091E1008F7E809366
:10398000E1008091E2008F7E8093E2008091E2006E
:1039900081608093E2008091D004882311F084E05C
:1039A00007C08091E30087FD02C081E001C083E091
:1039B0008093CF048091CF048091E10083FF27C0E2
:1039C0008091E20083FF23C08091E100877F809394
:1039D000E10082E08093CF041092D0048091E10056
:1039E0008E7F8093E1008091E2008E7F8093E200E1
:1039F0008091E20080618093E20042E060E080E03C
:103A00000E94B11B8091F00088608093F000FF91CC
:103A1000EF91BF91AF919F918F917F916F915F9146
:103A20004F913F912F910F900FBE0F901F901895BF
:103A30002091D7043091D8042617370748F0611534
:103A4000710539F42091E8002E772093E80001C039
:103A5000B901FC0120E06115710579F18091CF0475
:103A60008823F1F18530F1F18091E80083FD3CC0BD
:103A70008091E80082FD2EC08091E80080FFEBCFAE
:103A80002091F3008091F20090E0922B6115710576
:103A900051F08830910538F421912093F100615064
:103AA00071090196F3CF21E0089709F020E0809199
:103AB000E8008E778093E800CECF2111CFCF0AC0E7
:103AC0008091CF04882361F0853061F08091E80017
:103AD00083FD0AC08091E80082FFF2CF80E0089564
:103AE00082E0089583E0089581E0089581E0809365
:103AF000E00080E28093D8001092C9008FE19EE43C
:103B00000197F1F700C0000087E090EBDC018093A3
:103B10005D0590935E05A0935F05B09360059CE002
:103B200088E10FB6F894A895809360000FBE90933B
:103B30006000FFCF78941F920F920FB60F9211245E
:103B40008F939F93AF93BF9380918B0490918C043C
:103B5000A0918D04B0918E040196A11DB11D80939A
:103B60008B0490938C04A0938D04B0938E04BF912A
:103B7000AF919F918F910F900FBE0F901F9018954E
:103B80009C014FB7F89480918B0490918C04A09184
:103B90008D04B0918E044FBF821B930B08952FB7F5
:103BA000F89460918B0470918C0480918D049091B5
:103BB0008E042FBF08952FB7F89480918B049091B5
:103BC0008C04A0918D04B0918E042FBF08951F9294
:103BD0000F920FB60F9211248F939F93AF93BF93C1
:103BE00080918A04811113C080918B0490918C0480
:103BF000A0918D04B0918E044196A11DB11D8093BA
:103C00008B0490938C04A0938D04B0938E04BF9189
:103C1000AF919F918F910F900FBE0F901F901895AD
:103C20009C01FC0132969FEF80E04191461789F09C
:103C30009F3F19F4411101C0982F8F5F8630A9F77B
:103C40009F3F39F0F901E90FF11D97FDFA95628365
:103C500008950895A3E0B0E0E0E3FEE10C9427347A
:103C6000209188043091890428173907A1F0909396
:103C7000890480938804E0918604F091870430974A
:103C800051F024E029839B838A830084F185E02D11
:103C9000CE01019609952396E2E00C944334A3E00B
:103CA000B0E0E5E5FEE10C942734209184043091E6
:103CB000850428173907A1F0909385048093840424
:103CC000E0918604F0918704309751F023E0298336
:103CD0009B838A830084F185E02DCE0101960995AE
:103CE0002396E2E00C944334E0918604F09187043B
:103CF000309729F00190F081E02D0995089580E03A
:103D00000895FF920F931F93CF93DF93C42FD22F69
:103D1000F02EFC0185818823B1F0409383040E943A
:103D2000DB1D909382048093810480E28C0F8830A5
:103D300008F06CC0C77081E001C0880FCA95EAF72F
:103D40000E94232F63C080918304481353C0809145
:103D50008104909182040E94C01D8F3A910508F061
:103D600049C0CD1729F180E28C0F883040F4C7702C
:103D700081E001C0880FCA95EAF70E941C2F80E2FB
:103D80008D0F883048F481E09D2F977001C0880F17
:103D90009A95EAF70E94232FF9E3FF1619F000E045
:103DA00010E002C000E510E08F2D0E94553008C0E1
:103DB00099E30913F4CF89E30E94553000E510E040
:103DC0000115110549F08FE99FE00197F1F700C057
:103DD000000001501109F4CF8F2D0E94193080E2AC
:103DE0008D0F883098F4D77081E001C0880FDA9584
:103DF000EAF70AC080E28C0F883040F4C77081E097
:103E000001C0880FCA95EAF70E941C2FCDB7DEB714
:103E1000E5E00C9440340E94DB1D20917D042111CB
:103E200004C020917E04222321F090937A04809391
:103E3000790420917F04211104C020918004222361
:103E400021F09093780480937704E0918604F091B8
:103E50008704309749F082E080937B040680F781E5
:103E6000E02D8BE794E0099508958091760480FD1C
:103E700016C081FD16C082FD18C08091750488238C
:103E800091F0883290F428E0829FC001112468E20A
:103E900070E00E948835862F672B29F007C082E0EA
:103EA000089584E0089581E0089588E00895809160
:103EB000760480FD14C081FD14C082FD16C080917F
:103EC0007404882381F08E3180F420E5829FC00144
:103ED00011246EE170E00E948835862F089584E1F8
:103EE000089588E2089588E0089580E50895282FD0
:103EF00035EB2303C001112497FF03C080589109BB
:103F000002C080589F4F892F089590916C0490FFB4
:103F100005C096959695981748F003C0811106C084
:103F200090E0961718F40E942133089561E00E94F2
:103F3000CA320895882311F0FA0101C0FB010995E6
:103F40000895EF92FF920F939701201B31092F3FA5
:103F5000310519F010F02FEF30E02095382F320F97
:103F600008F43FEF832F0F91FF90EF900895EF92A9
:103F7000FF920F939701201B31092F3F310519F054
:103F800010F02FEF30E0322F3095482F430F08F418
:103F90004FEF842F620F0F91FF90EF900895EF92F3
:103FA000FF920F93972F093438F4B701601B710902
:103FB0006F3F710519F010F06FEF70E0485F5F4FD1
:103FC0004131510540F0A901485F5F4F4131510532
:103FD00010F06FEF70E06095482F460F08F44FEF38
:103FE000842F37FF02C02D5F3F4F359527953595BC
:103FF000279560910805620F792F0F91FF90EF9040
:104000000895EF92FF920F93E00EF11CF90137FF34
:1040100003C0F195E195F10924E0EE0FFF1F2A9509
:10402000E1F7EF3FF10519F014F0EFEFF0E09A013E
:1040300057FF03C031952195310994E0220F331FBA
:104040009A95E1F72E173F070CF4F901EE0DFF1DCD
:10405000EF3FF10519F010F0EFEFF0E02E2F209573
:10406000382F320F08F43FEF832F0F91FF90EF901E
:104070000895EF92FF920F93970195E0099F200D0D
:10408000311D11242F3F310519F010F02FEF30E0D2
:104090002095382F320F08F43FEF832F0F91FF90B8
:1040A000EF900895409520E4429F412D1124640F24
:1040B00008954095282F429F412D1124842F089563
:1040C000E42FF0E0EE0FFF1FE755FE4F9081921BAB
:1040D00097FD9195292F38E1239F212D1124620FFF
:1040E00008950F931F9310E0F801EE0FFF1FE7559F
:1040F000FE4F9081905797FD9195000F111FF80189
:10410000E758FE4FE1A9F0E0B097DF01AA0FBB1F0F
:104110008D010E0F1F1F2003D001219FB00D112410
:10412000E8E3F0E0E91BF10997FDF3959F01220F09
:10413000331F89010E0F1F1F40039001419F300D57
:1041400011242A0F3B1F37FF02C021583F4F220F77
:10415000232F221F330B620F1F910F9108950F938E
:104160001F93522F10E0F801EE0FFF1FE758FE4F8C
:10417000E1A9F0E0B097EE0FFF1F9F015203D001BD
:10418000539FB00D1124000F111FF801E755FE4F8A
:10419000008110E000571109000F111F400390012A
:1041A000419F300D11242A0F3B1F37FF02C02158B9
:1041B0003F4F220F232F221F330B620F1F910F91AE
:1041C00008950F931F93522F10E0F801EE0FFF1F79
:1041D000E758FE4FE1A9F0E0B0979F015203D001EC
:1041E000539FB00D1124000F111FF801E755FE4F2A
:1041F000008110E00057110940039001419F300DEC
:1042000011242A0F3B1F37FF02C021583F4F220FB6
:10421000232F221F330B620F1F910F910895EF92EE
:104220000F931F9393E0099F800111241595079523
:104230006E2D600F1F910F91EF900895A22F50E007
:10424000FA01EE0FFF1FE758FE4F91A9905297FD1C
:104250009195440F551FFA01E755FE4F3081232FEA
:1042600030E02A1B3109290F311D97FD3A95620F65
:104270000895E42FF0E0EE0FFF1FE758FE4F61A90D
:10428000621B0895E42FF0E0EE0FFF1FE755FE4F8D
:104290006081621B0895622F0895E42FF0E0EE0F15
:1042A000FF1FE755FE4F408134EE439F412D1124FF
:1042B000E82FF0E050E0445E5F4FDA01A21BB10945
:1042C0009D01B7FF03C031952195310993E0220F7D
:1042D000331F9A95E1F7AF01421B530B9A0157FF29
:1042E00002C020E030E0582F259F212D1124822F7D
:1042F0000895E42FF0E0EE0FFF1FE755FE4F4081D9
:1043000034EE439F412D1124E72FF0E050E0445E4E
:104310005F4FDA01A21BB1099D01B7FF03C03195C0
:104320002195310993E0220F331F9A95E1F7AF01F0
:10433000421B530B9A0157FF02C020E030E0279F39
:10434000212D1124722F0895FC019B01009721F467
:1043500077FF2BC080E80895AC0197FF04C0442785
:104360005527481B590BB901640F751F37FD0CC049
:10437000241B350BC901A5E0880F991FAA95E1F709
:104380000E94883580E20CC0CB0165E0880F991F40
:104390006A95E1F7BA01621B730B0E94883580E6CB
:1043A000861BF7FF03C08195089580E00895EF9282
:1043B0000F93CF93DF93D72FC82FC9010E19BA01DE
:1043C0000E94A421602F681B7D2F8C2FDF91CF913D
:1043D0000F91EF9008950F93CF93DF93D72FC82FAE
:1043E000C901BA010E94A421682F600F7D2F8C2F74
:1043F000DF91CF910F910895EF920F931F93CF9379
:10440000DF93D62FC72F182FC9010E19010FBA013C
:104410000E94A421081B202F219F212D1124822FCF
:104420006D2F7C2FDF91CF911F910F91EF90089509
:10443000EF920F931F93CF93DF93D62F172FC82F91
:10444000C9010E19070FBA010E94A421702F781B11
:10445000719F712D11246D2F8C2FDF91CF911F91A2
:104460000F91EF900895FF920F931F93CF93DF93D7
:10447000F62ED72F182FC901C12FC01BBA010E94D9
:10448000A421982F990F890FC81B2C2F219F212D14
:104490001124822F6F2D7D2FCDB7DEB7E5E00C9470
:1044A0004034FF920F931F93CF93DF93F62E172F75
:1044B000D82FC901C72FC01BBA010E94A421982F71
:1044C000990F890F7C2F781B719F712D11246F2DEF
:1044D0008D2FCDB7DEB7E5E00C9440340895EF9210
:1044E000FF920F931F93CF93DF938C01C3E9D4E026
:1044F000E12CF12CF8018481F3E0EF16F1041CF4B7
:10450000882339F002C0811104C09E0140916F04DC
:1045100002C09E0140E060916E0480916D040E9493
:10452000DA318FEFE81AF80A239696E0E916F104DB
:1045300009F70E94B430F801848190E001968170FF
:1045400099278483CDB7DEB7E6E00C943F34A0E032
:10455000B0E0EDEAF2E20C941D34EC014C81042F42
:1045600010E09801D8010E945F359B01AC010E94C8
:104570002A356B017C01E0E2F0E0E01BF10BA5E5E0
:10458000B0E09B01AC010E942A354B015C019F0108
:10459000DF010E94A2359B01AC010E9435359B01D1
:1045A000AC012C0D3D1D4E1D5F1DC501B4010E94C7
:1045B0003D35822FF22E99E2921728F093E0299F41
:1045C000900111240DC025E530E0281B3109C901F7
:1045D000880F991F280F391F37FF02C02F5F3F4FE9
:1045E00035952795122F109593E9C92E94E0D92E71
:1045F00000E085E5E82EEF1801FD02C08E2D01C018
:104600008F2D9601412F60916E040E94DA310F5F69
:1046100083E0C80ED11C063079F70E94B4308C813B
:10462000811102C091E003C0803219F49FEF909392
:10463000100190911001890F8C83CDB7DEB7ECE0AB
:104640000C9439340F931F93CF93DF93C3E9D4E0D5
:10465000FE01118210821282339684E0E53AF80757
:10466000C1F700E010E080919104082E000C990B36
:104670000817190794F080910F01082E000C990B70
:104680008017910754F09E0140916F0460916E0471
:1046900080916D040E94DA3103C0198218821A8257
:1046A0000F5F1F4F239606301105E9F60E94B430C4
:1046B00080910E0190919104980F90939104209114
:1046C0000F01280F20930F01121614F495301CF0DF
:1046D000819580930E01DF91CF911F910F910895E5
:1046E000A0E0B0E0E6E7F3E20C942034FC01828124
:1046F00080FF03C0DD24DA9402C0DD24D39403E9F3
:1047000014E0C0E0D0E026E0B22EF8011182108261
:10471000128294E0E92EF12CC12C809190048C0D32
:1047200087302CF06B2D0E947A35892F02C087FDCF
:104730008A5F082E000C990BC817D90791F4809155
:104740006F048E9DA0018F9D500D112455954795A6
:1047500055954795980160916E0480916D040E9473
:10476000DA31CD0CF1E0EF1AF108B9F621960D5FC0
:104770001F4FC630D10549F60E94B4308091900495
:1047800091E0D91206C0811102C085E007C08150B6
:1047900005C090E00196BE010E9488358093900488
:1047A000CDB7DEB7E9E00C943C34EF92FF921F9353
:1047B000CF93DF93EC0183E9E82E84E0F82E10E03C
:1047C0008C81970140916F0460916E04810F0E946B
:1047D000DA31165D83E0E80EF11C1C3F89F70E9478
:1047E000B4309A818C8190FF02C08F5F01C08150EC
:1047F0008C83DF91CF911F91FF90EF900895A0E0FF
:10480000B0E0E5E0F4E20C941C34FC01828074809A
:1048100081E08483E9E4F3E09490E8ECF3E0E49150
:1048200000916F040695015810E0000F111F012F31
:104830001127C5EAD4E023E9C22E24E0D22EAA240F
:10484000AA94B12CE919EE2EF12C22E0281530F0B3
:1048500080916D04888380916E048983711003C0F8
:104860001B821A824AC08B818823F9F081508B8386
:104870002FEF829FC00111246C8170E00E940334ED
:10488000FB01FF27E75BFC4F8491E82FE9192FEF2D
:10489000E29FC0011124B7010E94033480916F048C
:1048A000689FB00111247A8328C00E949A34B50110
:1048B0000E9488358017910704F582E0881588F4F6
:1048C0000E949A34B5010E94883588830E949A34E8
:1048D00020916E042695622F70E00E948835280F83
:1048E00029831A8280916F04843120F0893C18F06A
:1048F00088EC01C084E18C838B8396014A816981B5
:1049000088810E94DA31259623E0C20ED11C84E012
:10491000C33CD80709F099CF0E94B430CDB7DEB7B9
:10492000EDE00C943834A3E0B0E0E9E9F4E20C9453
:1049300025348C018091920481110AC09E012F5F61
:104940003F4F46E96FEF0E94DA318A8180939204EB
:10495000F8018481813051F028F0823061F4409177
:1049600092040AC08091920440E007C060919204D2
:1049700040E080E003C040E080E060E00E94CA3098
:10498000F801848190E0019663E070E00E94883530
:1049900084832396E4E00C944134CF93DF93EC01BD
:1049A000ECE6F4E0438162818C810E94B2328C811A
:1049B0008F5F8C83DF91CF910895CF93DF93EC01CC
:1049C000EC81F0E0E75BFC4F4491ECE6F4E06281BF
:1049D00081810E94B2328C818F5F8C83DF91CF9175
:1049E00008950E94161B08950E94202B0895482FB9
:1049F000982F46FD9095E92FEF739F7046FD9F5FBE
:104A0000E295EF70EE0FF0E0EF58FE4F2181299F05
:104A1000802D212D112482958F702295207F822B4D
:104A20003081982F930F892F47FD819580580895E5
:104A30000F931F93CF93DF93D62F072F182FC42FD9
:104A4000822F0E94F724EC2FF0E0EE0FFF1FE755B6
:104A5000FE4F90819058890F87FD8195880F682FB0
:104A60002CE0629F612D11246D0F702F812FDF913B
:104A7000CF911F910F910895409111015091120112
:104A800025E038E0429FC001439F900D529F900D5A
:104A90001124875E994C9093120180931101890F24
:104AA0000895BC018230910508F40895613E8EE1BD
:104AB000780748F49B0195E0369527959A95E1F79C
:104AC00048E0420F01C04FEF91E0242F30E0290F62
:104AD000311D35952795229FF001239FF00DF00D94
:104AE00011246E177F0718F44FEF420F04C02F3FB9
:104AF00039F091E0920F491740F78FEF890F089531
:104B00008FEF08950F93CF93DF93D72FC82F47FDD3
:104B10004195E8E3F0E0CF01841B910947FD9395AF
:104B2000889FB001899F700D700D1124229FC001D4
:104B3000239F900D900D1124860F971F0E945125E1
:104B4000682F660F860F682F600F7D2F8C2FDF91E7
:104B5000CF910F91089520E030E0869F212D969F00
:104B6000200D311D1124C901089520910B0530E15C
:104B7000230F08F42FEF60E1822F90E00E94AB2515
:104B8000BC0188EB9BE00E94033480E090E0089534
:104B9000909107059370A1F0811102C0946007C045
:104BA0008B3210F0986A03C0880F880F982B90936F
:104BB0000705109217018091060581608093060514
:104BC0000895A7E0B0E0E7EEF5E20C941734282E44
:104BD0004B01809114010E94172D392E8F83209153
:104BE000DD0429839F81931508F079C03F81632EEE
:104BF000712CF301E95FFD4F9081809115018923AC
:104C000009F469C04090080550900905122D1E82D4
:104C1000C301880F991FDC01A755BE4FBB83AA8330
:104C2000C301880F991FFC01E655FE4FFD83EC83FD
:104C3000F9811F1708F03EC0E12EF12CAA81BB813B
:104C4000CC90D12CF701E352FB4F8181C81AD108D7
:104C5000AC81BD81AC90B12C8185A81AB108CC9CE7
:104C60009001CD9C300D300D1124AA9CC001AB9C4D
:104C7000900D900D1124820F931F0E945125082F33
:104C800060910B0521E0620F08F46FEFF701EE0F62
:104C9000FF1FE352FB4F818D928D0E94AB257C015B
:104CA0009501A601B2018E81F40109952B018E8335
:104CB0001F5FBECF20910A058E81382F329F312D84
:104CC0001124832FB2010E945031462F282F672FC5
:104CD000C3010E94F4248F818F5F8F8383CF81E093
:104CE000AEE2A31508F480E02796E2E10C94333499
:104CF000A0E0B0E0EEE7F6E20C942134EC01809104
:104D000014010E94172D092F182F20910B0531E057
:104D1000230F08F42FEF30E040E050E06FEF7FEF1B
:104D200080E090E00E940B357901101708F041C037
:104D3000C12ED12CF601E95FFD4F908180911501C4
:104D40008923A9F19091DD04915097FD15C0492F59
:104D5000092E000C550BFA01E352FB4F8189181301
:104D6000F3CF440F551FFA01E352FB4F218D328DD3
:104D70002E153F0548F701C0970160910B0541E0F2
:104D8000640F08F46FEFC9010E94AB25AC0160917C
:104D900008057091090580910A05FE0109950E9498
:104DA0005031462F282F672FC6010E94F4241F5F21
:104DB000BCCF81E00F3208F080E0CDB7DEB7E8E08D
:104DC0000C943D34A0E0B0E0E8EEF6E20C9422341E
:104DD0008C01809114010E94172DEC0160910B054C
:104DE0006695669521E0620F08F46FEF8091D90413
:104DF0009091DA040E94AB25D82ECD17F0F4EC2E5A
:104E0000F12CF701E95FFD4F908180911501892315
:104E100091F0609108057091090580910A052D2D8A
:104E20004C2FF80109950E945031462F282F672FEB
:104E3000C7010E94F424CF5FE0CF81E0DF3208F0A9
:104E400080E0CDB7DEB7E7E00C943E34A0E0B0E000
:104E5000ECE2F7E20C941E346C01809114010E9484
:104E6000172D192FC82F60910B05669566958091B7
:104E7000D9049091DA040E94AB25D82F80E48D0FDD
:104E80000E94F72490E8F92EF80E8D2F0E94F72447
:104E900020E8922E980EC11700F5AC2EB12CF5012A
:104EA000E95FFD4F9081809115018923A1F0609108
:104EB00008057091090580910A05ED2E0C2F292D0A
:104EC0004F2DF60109950E945031462F282F672F4C
:104ED000C5010E94F424CF5FDECF81E01F3208F0CD
:104EE00080E0CDB7DEB7EBE00C943A34A0E0B0E060
:104EF000ECE7F7E20C941C345C01809114010E94F1
:104F0000172DF92E182F60910B0566958091D90405
:104F10009091DA040E94AB25782E1F1508F043C04B
:104F2000812E912CF401E95FFD4F90818091150154
:104F30008923B9F1F401EE0FFF1FE755FE4FC08141
:104F4000D0E0C057D109F401EE0FFF1FE758FE4F24
:104F5000C1A8D12C80E2C81AD108CC9F9001CD9F66
:104F6000300D300D1124CC9CC001CD9C900D900DC6
:104F70001124820F931F0E945125082F609108056C
:104F80007091090580910A05E72C9601AE01F501A3
:104F900009950E945031462F282F672FC4010E9487
:104FA000F4241F5FBACF81E0FEE2FF1508F480E031
:104FB000CDB7DEB7EDE00C943834A0E0B0E0E3EE1E
:104FC000F7E20C9421347C01809114010E94172D8A
:104FD000D92E182F60910B0566958091D904909178
:104FE000DA040E94AB25C82E1D1578F5C12FD0E03C
:104FF000FE01E95FFD4F908180911501892319F130
:10500000FE01EE0FFF1FE758FE4F21A930E02052AE
:105010003109FE01EE0FFF1FE755FE4F408150E0C2
:1050200040575109609108057091090580910A0562
:105030000C2DF70109950E945031462F282F672F1C
:10504000CE010E94F4241F5FCFCF81E0FEE2FD1568
:1050500008F480E0CDB7DEB7E8E00C943D349091E1
:105060000705937071F0809308056093090547392F
:1050700008F046E940930A05809106058160809317
:1050800006050895AAE2B0E0E8E4F8E20C942634BC
:10509000E1EDF4E089ED94E02091F10021938E1789
:1050A0009F07D1F78091D204833009F461C030F4B6
:1050B000813071F0823009F49BC0B2C08A3009F4AB
:1050C00087C08B3009F46CC0893009F0A9C020C0BA
:1050D0008091D104813A09F0A3C08091E800877FD4
:1050E0008093E8008091D5049091D604892B21F417
:1050F00068E085EC94E003C060E080E090E070E060
:105100000E94181D8091E8008B778093E80088C08A
:105110008091D104813209F083C08091D5049091AF
:10512000D604029708F07CC08091E800877F8093C6
:10513000E8008091E80082FD05C08091CF048111D4
:10514000F8CF6EC02091F3008091F20090E0922B96
:10515000029731F48091F100813011F0863021F412
:105160008091F1008093C4048091E8008B7754C053
:105170008091D104813A09F053C08091D504909177
:10518000D604892B09F04CC08091E800877F80937A
:10519000E8008091E80080FFFCCF8091130137C0C8
:1051A0008091D1048132E1F58091D5049091D604AB
:1051B000892BB1F58091E800877F8093E8000E94F9
:1051C000921B8091D304809313010E94F52E28C076
:1051D0008091D104813221F58091E800877F80930E
:1051E000E8000E94921B8091D4048093C30418C0ED
:1051F0008091D104813AA1F48091E800877F809367
:10520000E8008091E80080FFFCCF8091C304809388
:10521000F1008091E8008E778093E8000E94921B55
:105220008091E80083FFCEC18091D1049091D20497
:10523000492F50E04A30510508F0C4C1FA01E05648
:10524000FF4F0C949C35803821F0823809F0BAC1A8
:1052500008C08091CD049091CE04992389F082609A
:105260000FC08091D5048F70873008F0ABC1809358
:10527000E9008091EB0085FB882780F91092E90016
:105280009091E800977F9093E8008093F10010924E
:10529000F10065C1282F2D7F09F094C1882319F0F2
:1052A000823061F08FC18091D304813009F08AC1CE
:1052B000933009F080E08093CE042EC08091D30417
:1052C00081112AC08091D5048F702FEF280F2630CE
:1052D00008F078C18093E9002091EB0020FF1CC00A
:1052E000933021F48091EB00806214C09091EB0028
:1052F00090619093EB0021E030E0A90102C0440FDF
:10530000551F8A95E2F74093EA001092EA008091D7
:10531000EB0088608093EB001092E9008091E80038
:10532000877F20C181114EC11091D3041F778091D6
:10533000E3008078812B8093E3008091E800877FF1
:105340008093E8000E94921B8091E80080FFFCCFD0
:105350008091E30080688093E300111102C082E035
:1053600001C083E08093CF042DC18058823008F0C3
:1053700029C18091D3049091D4048C3D53E09507CA
:1053800079F583E08A838AE289834FB7F894DE0156
:10539000139620E03EE051E2E32FF0E050935700F7
:1053A000E49120FF03C0E295EF703F5FEF708E2F16
:1053B00090E0EA3010F0C79601C0C0968D939D939F
:1053C0002F5F243149F74FBF8091E800877F80939A
:1053D000E8006AE270E0CE0101960E94181DAEC09E
:1053E0004091D5045091D604292F3327233031051D
:1053F000A9F068F42130310509F4F3C022303105F9
:1054000009F0E0C08BE390E0E8E0F5E044C0213231
:10541000310521F12232310571F1D4C09927813053
:105420009105A1F058F0029709F0CCC0E5E5F5E050
:10543000E4918E2F90E0E5E5F5E02AC0E1E9F5E0A2
:10544000E4918E2F90E0E1E9F5E022C0E9E7F5E094
:10545000E4918E2F90E0E9E7F5E01AC0411551057F
:1054600009F4C4C04130510509F0ACC089E090E0B6
:10547000E3E3F5E010C04115510509F4BCC041302B
:10548000510509F09FC08BE790E0E9E4F4E003C028
:10549000009709F497C02091E800277F2093E80047
:1054A0002091D7043091D8048217930708F49C0107
:1054B00040E02115310589F18091CF04882309F45A
:1054C0003DC08530D9F18091E80083FD37C08091DF
:1054D000E80082FD2FC08091E80080FFEACF409174
:1054E000F3008091F20090E0942B2115310559F0E2
:1054F0008830910540F444914093F1003196215059
:1055000031090196F2CF41E0089709F040E080911F
:10551000E8008E778093E800CCCF4111CDCF0AC050
:105520008091CF04882351F0853041F08091E800CC
:1055300083FD04C08091E80082FFF2CF8091E800F3
:105540008B778093E8003EC08038E1F58091E800D9
:10555000877F8093E8008091D0048093F100809150
:10556000E8008E778093E8000E94921B2BC0811187
:1055700029C08091D3049091D4049927029714F5FF
:105580008091E800877F8093E8001091D304109306
:10559000D0040E94921B111106C08091E30087FD88
:1055A00002C081E001C084E08093CF0442E061EC5E
:1055B00081E00E94B11B42E261EC82E00E94B11BDB
:1055C0008091CF048091E80083FF1AC08091E800A9
:1055D000877F8093E8008091EB0080628093EB00EE
:1055E0000FC082E190E0E3E4F5E055CF89E090E080
:1055F000EAE1F5E050CF84E490E0E4ECF4E04BCF56
:10560000AA96E3E00C944234E7E0F5E0248130E12F
:10561000231B08F420E02483809106058160809399
:1056200006050895E7E0F5E0248130E1230F08F452
:105630002FEF2483809106058160809306050895ED
:10564000A4E0B0E0E6E2FBE20C9424348F32910552
:1056500008F049C0122F042FF62EBC01660F771FE9
:10566000660F771F6B567A4F44E050E0CE010196EB
:105670000E94AA34898183702A8130E0682F70E00B
:105680004AED849FC00111248E569C4FFC01E20F0D
:10569000F31FE0815B814C81EF110CC0FC01E50F31
:1056A000F11DE081E01306C0FC01E40FF11D8081D3
:1056B0008117C9F0EAEDE69FC001E79F900D112424
:1056C0008E569C4FFC01E20FF31FF082FC01E50FA8
:1056D000F11D0083FC01E40FF11D1083FC01E05477
:1056E000FF4F21E020832496E5E00C944034A1E0B4
:1056F000B0E0EDE7FBE20C942534498304E610E0CA
:1057000021E030E0AE014F5F5F4F80EA0E94B53389
:105710002196E4E00C944134E7E0F5E0438120E198
:10572000421B08F440E08181628190E00E942F28B2
:105730000895E7E0F5E0438120E1420F08F44FEFE0
:105740008181628190E00E942F280895E7E0F5E0D2
:10575000628120E1621B08F460E08181438190E076
:105760000E942F280895E7E0F5E0628120E1620FB2
:1057700008F46FEF8181438190E00E942F28089503
:10578000E7E0F5E0818190E04381628108970E9423
:105790002F280895E7E0F5E0818190E04381628160
:1057A00008960E942F280895809107058695869572
:1057B000815009F48AE20E94C82508958091070566
:1057C000869586958F5F8B3208F081E00E94C82510
:1057D0000895CF93DF93C82FD62F45EC6EEF0E942C
:1057E000772B4D2F6DEF8C2F0E94772BDF91CF9170
:1057F0000895A4E0B0E0EFEFFBE20C941F340E94A8
:10580000803360E080E00E94E92B10E040E0612FEF
:1058100080E00E94772B1F5F1831C1F761E080E0C4
:105820000E94E92B10E040E0612F80E00E94772B7E
:105830001F5F103CC1F763E080E00E94E92B40E06D
:105840006FE080E00E94772B40E060E180E00E9402
:10585000772B4FEF61E080E00E94772B41E060E022
:1058600080E00E94772B8FE39CE90197F1F700C05D
:10587000000005E915E091E5C92E96E0D92E2AED44
:10588000A22EEE24E394F12CBB24B39444E050E028
:10589000B801CE0101960E94AA344A813B812C8135
:1058A00089818370542F569556955695A89EC001B0
:1058B00011248E569C4FFC01E50FF11DEF53FF4F55
:1058C0004770B70102C0660F771F4A95E2F7AB0138
:1058D0005081452B4083432F469546954695FC01C4
:1058E000E40FF11DEF53FF4F3770A70101C0440FC4
:1058F0003A95EAF73081432B4083322F369536951F
:105900003695FC01E30FF11DEF53FF4F2770A70100
:1059100002C0440F551F2A95E2F79A013081232BCC
:105920002083FC01E752FF4FB0820C5F1F4FC0166F
:10593000D10609F0ABCF80916B048823A9F060E019
:1059400080E00E94E92B83E5E82E84E0F82E10E049
:10595000F70141917F01612F80E00E94772B1F5F4B
:105960001831B1F710926B042496EAE00C943B34A2
:105970001F93CF93DF93FC01E95FFD4F20816223EA
:10598000B9F0EC010E943C25182F0E943C2520E82C
:10599000829FC00111247FE7790F612F80910A0552
:1059A0000E945031462F282F672FCE010E94F424E9
:1059B000DF91CF911F910895A0E0B0E0E2EEFCE20C
:1059C0000C942234EC01FC01E95FFD4F90816923C6
:1059D00049F1D090090500910A0510910805E12EC2
:1059E000F12C0E943C25282FC7018C549F4F68E65C
:1059F00071E00E9488358E199F0997FD0396959551
:105A00008795959587952370612F289F600D1124A8
:105A10007D2D802F0E945031462F282F672FCE01D9
:105A20000E94F424CDB7DEB7E7E00C943E34880F33
:105A3000982F990F990F890F9AE0980F903308F0DB
:105A40009FE208954F925F926F927F928F929F9202
:105A5000AF92BF92CF92DF92EF92FF92CF9380915D
:105A6000380590913905A0913A05B0913B052FB7C3
:105A7000F894C0908B04D0908C04E0908D04F0904A
:105A80008E042FBFC81AD90AEA0AFB0A0E94CF1D4A
:105A90004B015C01609338057093390580933A059A
:105AA00090933B05A0910F05EFE0F5E08A2F90E081
:105AB0004FEF5FEF60E070E04C195D096E097F0900
:105AC000A91799F0218D328D2901612C712C441573
:105AD00055056605770510F4815004C02C0D3D1D59
