:100000000C941E060C943B060C943B060C94543145
:100010000C943B060C943B060C943B060C943B065C
:100020000C943B060C943B060C9449190C946A1DE5
:100030000C94BB290C943B060C943B060C943B0699
:100040000C943B060C943B060C943B060C943B062C
:100050000C943B060C94221A0C943B060C943B0621
:100060000C943B060C943B060C943B060C943B060C
:100070000C943B060C943B060C943B060C943B06FC
:100080000C943B060C943B060C943B060C943B06EC
:100090000C943B060C943B060C943B060C943B06DC
:1000A0000C943B060C943B060C943B06202020202D
:1000B0006162636465666768696A6B6C6D6E6F70B8
:1000C0007172737475767778797A31323334353664
:1000D00037383930524542545F2D3D5B5D5C233BE0
:1000E00027602C2E2F2020202B0014001A0008003F
:1000F00015001700E10004001600070009000A00BF
:10010000E0001D001B0006001900050000000000B3
:100110000000E30021522C002A00130012000C0002
:1001200018001C00340033000F000E000D000B00FF
:100130006452380037003600100011000000000043
:100140000000E2002252280029003A003B003C0057
:100150003D004800E1003E003F00400041004600F5
:10016000E00042004300440045006500000000003C
:100170000000E30001002C002A004B004D0052005B
:100180004A00490034024E004F00510050004C001C
:100190000100380237023602190106010000000092
:1001A0000000E2000100280039001E021F02201496
:1001B0002F020000E10034143214250226022D0221
:1001C000E0002F14301464006402270200000000D5
:1001D0000000E30001002C002A0038002600250062
:1001E000240030022D0030002300220021002402D0
:1001F0000100370020001F001E0027000000000043
:100200000000E2000100280035002E001F14221417
:1002100021022F00E100350223021E1435142E02A4
:10022000E00000002314320022022114000000002C
:100230000000E30001002C00A800A900AA00AB0008
:10024000AE00AC0000002978277825782378207844
:10025000017C2A782878267824782178000000000C
:100260000000E200010028002900D6000000000084
:1002700000000000E100D500D200D300D100000052
:10028000E000D400DF00DE00DD0000000000000020
:100290000000E30001002C000000D600DC00CD00CF
:1002A000DB00D9000000D500D000CE00CF00DA007E
:1002B0000100D400D200D300D100D700000000001C
:1002C0000000E2000100280000DA0281FFD9F1DB22
:1002D00020A4A62EAF00A0C0D30000A1C8D3000068
:1002E000AED580A81F408D1420001E0F0500047F8E
:1002F0003F1F643214643214783C1E1E140A052019
:1003000020202020202020200043415053204C4F0B
:10031000434B0000556E646566696E6564004D6F01
:1003200075736500457874656E6400526169736524
:10033000004C6F7765720044656661756C74004CA3
:10034000617965723A2000808182838485868788FE
:10035000898A8B8C8D8E8F9091929394A0A1A2A369
:10036000A4A5A6A7A8A9AAABACADAEAFB0B1B2B3D5
:10037000B4C0C1C2C3C4C5C6C7C8C9CACBCCCDCE20
:10038000CFD0D1D2D3D4000001010101010101017C
:100390000102020202020202020203030303030338
:1003A0000303040404040404040505050505060606
:1003B00006060607070707070808080809090909C4
:1003C0000A0A0A0B0B0B0C0C0C0D0D0D0E0E0E0F6A
:1003D0000F0F1010111111121213131414151516FA
:1003E000161717181819191A1A1B1B1C1D1D1E1E6B
:1003F0001F202021222223242425262627282929BC
:100400002A2B2C2D2D2E2F303132323334353637E6
:1004100038393A3B3C3D3E3F4041424344454647E4
:1004200048494A4C4D4E4F50515354555658595ABD
:100430005B5D5E5F616264656668696B6C6D6F7061
:1004400072737577787A7B7D7E8082838587888AD0
:100450008C8E8F91939596989A9C9EA0A2A3A5A707
:10046000A9ABADAFB1B3B5B7BABCBEC0C2C4C6C903
:10047000CBCDCFD1D4D6D8DBDDDFE2E4E7E9EBEEBC
:10048000F0F3F5F8FAFDFFFFAA7F55402223252659
:1004900028292A2C2D2F3032333536383A3B3D3E31
:1004A0004042434547494A4C4E5051535557595A7B
:1004B0005C5E6062646668696B6D6F717375777995
:1004C0007B7D7F81838587898A8C8E909294969894
:1004D0009A9C9E9FA1A3A5A7A8AAACAEAFB1B3B4A6
:1004E000B6B8B9BBBCBEBFC1C2C3C5C6C7C9CACBFB
:1004F000CCCDCED0D1D2D2D3D4D5D6D7D7D8D9D9C6
:10050000DADADBDBDBDCDCDCDCDCDDDDDDDDDCDC2E
:10051000DCDCDCDBDBDBDADAD9D9D8D7D7D6D5D44B
:10052000D3D2D2D1D0CECDCCCBCAC9C7C6C5C3C217
:10053000C1BFBEBCBBB9B8B6B4B3B1AFAEACAAA86C
:10054000A7A5A3A19F9E9C9A98969492908E8C8A20
:1005500089878583817F7D7B79777573716F6D6BFB
:100560006968666462605E5C5A5957555351504ED3
:100570004C4A4947454342403E3D3B3A3836353385
:1005800032302F2D2C2A29282625232200AF00AE19
:1005900005010902A10185020901A100050919014E
:1005A000290815002501950875018102050109300A
:1005B00009311581257F9502750881060938158155
:1005C000257F950175088106050C0A3802158125DD
:1005D0007F950175088106C0C005010980A10185CC
:1005E0000319012AB700150126B70095017510817E
:1005F00000C0050C0901A101850419012AA00215FA
:100600000126A002950175108100C005010906A10F
:10061000018506050719E029E715002501950875EC
:100620000181020507190029EF1500250195F075D4
:1006300001810205081901290595057501910295A9
:100640000175039101C005010906A101050719E023
:1006500029E71500250195087501810295017508A6
:1006600081010507190029FF150026FF0095067571
:100670000881000508190129051500250195057552
:10068000019102950175039101C009023B0002012D
:1006900000A0FA0904000001030101000921110171
:1006A000000122440007058103080001090401003C
:1006B000010300000009211101000122B600070515
:1006C00082032000011201000200000008534601CD
:1006D000000100010200010C0343006F0072006E74
:1006E0000065000000100366006F006F0073007467
:1006F0000061006E00000004030904000000000017
:10070000003E5B4F5B3E003E6B4F6B3E001C3E7CF1
:100710003E1C00183C7E3C18001C577D571C001CDA
:100720005E7F5E1C0000183C180000FFE7C3E7FF77
:1007300000001824180000FFE7DBE7FF0030483A0C
:10074000060E00262979292600407F05050700406E
:100750007F05253F005A3CE73C5A007F3E1C1C08A1
:1007600000081C1C3E7F0014227F2214005F5F00E3
:100770005F5F0006097F017F00006689956A00605F
:10078000606060600094A2FFA2940008047E0408E8
:100790000010207E20100008082A1C0800081C2ACF
:1007A0000808001E10101010000C1E0C1E0C00304B
:1007B000383E383000060E3E0E06000000000000F5
:1007C0000000005F000000000700070000147F1415
:1007D0007F1400242A7F2A12002313086462003643
:1007E0004956205000000807030000001C22410069
:1007F000000041221C00002A1C7F1C2A0008083E21
:100800000808000080703000000808080808000090
:1008100000606000002010080402003E5149453E7F
:100820000000427F40000072494949460021414989
:100830004D33001814127F10002745454539003C00
:100840004A494931004121110907003649494936D1
:1008500000464949291E00000014000000004034F1
:1008600000000000081422410014141414140000A5
:1008700041221408000201590906003E415D594E0B
:10088000007C1211127C007F49494936003E4141EB
:100890004122007F4141413E007F49494941007F5B
:1008A00009090901003E41415173007F0808087F92
:1008B0000000417F4100002040413F01007F0814BB
:1008C0002241007F40404040007F021C027F007FA9
:1008D0000408107F003E4141413E007F090909069E
:1008E000003E4151215E007F0919294600264949F1
:1008F00049320003017F0103003F4040403F001F99
:100900002040201F003F4038403F0063140814631C
:10091000000304780403006159494D4300007F41FE
:10092000414100020408102000004141417F0004C1
:10093000020102040040404040400000030708005C
:10094000002054547840007F284444380038444400
:10095000442800384444287F003854545418000078
:10096000087E0902001824241C78007F08040478FB
:100970000000447D4000002040403D00007F1028E2
:1009800044000000417F4000007C04780478007C33
:1009900008040478003844444438007C182424189F
:1009A00000182424187C007C0804040800485454CF
:1009B00054240004043F4424003C4040207C001C9C
:1009C0002040201C003C4030403C0044281028447B
:1009D000004C9090907C004464544C4400000836D5
:1009E00041000000007700000000413608000002CE
:1009F00001020402003C2623263C00000000000007
:100A00000000000000000000000000C0E0F0F8F866
:100A10001800C0F0FCFEFFFFFFFFFFFFFF7E00009D
:100A20000000000000000080C0E0E0E0E0E0E0E066
:100A3000E0C0800000000080C0E0E0E0E0E0E0E036
:100A4000E0C080000000E0E0C0C0E0E0E0E00000C6
:100A5000E0E0C0C0E0E0E0E0E0C080000000008036
:100A6000C0E0E0E0E0E0E0E0E0C080000000000086
:100A7000000000000000000000E0F0F0F0E0ECEE0C
:100A8000F7F37020007C7C7C7E007E7E7E7F7F7F03
:100A9000000080C0E07E5B4F5BFEC00000C000DC59
:100AA000D7DEDEDED7DC00C0000000000000000062
:100AB0000000000000000000000000000000000036
:100AC00000000000F8FCFEFFE000FFFFFFFFFFFF5B
:100AD00080FFFFFFFFFFFFFFFFFF1F070100000078
:100AE000000000000000FFFFFF8100000000000088
:100AF00081C3C3C30000FFFFFF81000000000000AE
:100B000081FFFFFF0000FFFFFF0100000000000069
:100B1000FFFFFF010000000001FFFFFF0000FFFFDB
:100B2000FF9D1C1C1C1C1C1C9DDFDFDF0000000047
:100B30000000000000000000000F1F3F7F7F7F7F4C
:100B40007F3F1E0C001F1F1F3F003F3F3F7F7F7FE7
:100B500000307B7F7830202030787F3B0003000F0F
:100B60007F0F0F0F7F0F0003000000000000000048
:100B70000000000000000000000000000000000075
:100B800000000000030F1F3F3F3F3F1F1F3F3F7FFD
:100B90007F7F3F3F1F3F7F7F7F7F7C7878381C0FB0
:100BA0000000000000000001030707070707070710
:100BB00007030100000000010307070707070707F5
:100BC0000703010000000707070000000000000005
:100BD00007070700000000000007070700000001EA
:100BE00003070707070707070703010000000000C6
:100BF00000000000000000000000000000000000F5
:100C000000000000000000000000000000000000E4
:100C100000000000000000000000000000000000D4
:100C200000000000000000000000000000000000C4
:100C300000000000000000000000000011241FBEA2
:100C4000CFEFDAE0DEBFCDBF28E0AEEAB2E001C010
:100C50001D92A43BB207E1F712E0A0E0B1E0EAE99F
:100C6000F9E602C005900D92AE3AB107D9F70E949D
:100C7000E2290C9477340C9400008091A1068370D3
:100C800051F084608093A106109260018091A006CB
:100C900081608093A0060895482F20919C06909132
:100CA000630657E0291302C080E0089530E0529FA8
:100CB000F001539FF00D1124EC59F94F8181681315
:100CC00006C08081481303C085818111EECF2F5F5C
:100CD0003F4F2770E7CFFC01AC014C5F5F4F8FEFB8
:100CE00091E32191822728E030E087FF09C0880F37
:100CF000892721503109C9F7E417F50791F70895BD
:100D0000880FF7CF9091A106937071F08093A2069F
:100D10006093A306493708F048E74093A406809102
:100D2000A00681608093A0060895E8EDF0E0808140
:100D30008E7F80831092E2001092DA001092E10020
:100D4000A0EEB0E08C9181608C9380818F7780835E
:100D500019BCA7EDB0E08C918E7F8C9380818F7E43
:100D6000808310924C0608952091E4003091E500B4
:100D700095E6A9012091EC00822F817020FF06C02A
:100D80008091E80080FF06C080E008952091E8008F
:100D900022FD1AC080915906882389F0853089F098
:100DA0008091EB0085FD0FC02091E4003091E500BB
:100DB00042175307F9F29150E1F684E0089582E07A
:100DC000089583E0089581E0089580915B0687FF90
:100DD00013C08091E80082FF06C08091E8008B7705
:100DE0008093E80004C0809159068111F2CF0895E4
:100DF000809159068823D9F38091E80080FFF8CFCD
:100E00008091E8008E77ECCF982F9093E900242F03
:100E1000762F50E0891731F07091EC002091ED00B1
:100E20005091F00021FD07C09F5F973071F78093CC
:100E3000E90081E008953091EB003E7F3093EB00B4
:100E40003091ED003D7F3093ED003091EB0031604B
:100E50003093EB007093EC002093ED005093F00082
:100E60002091EE0027FDE0CF80E00895B0E0A0E003
:100E7000ECE3F7E00C948E32C8EDD0E088818F7EF1
:100E80008883E7EDF0E080818160808384E082BF29
:100E900081E080934C0688818E7F888302EE10E08B
:100EA000F80110821092DA0081EEC82ED12CF601E2
:100EB000108288818F778883888180688883888181
:100EC0008F7D888319BC1092590610925A06109291
:100ED00058061092570690EEE92EF12CF70180810A
:100EE0008B7F808388818160888342E060E080E03E
:100EF0000E940407F60180818E7F8083F801808143
:100F000081608083808188608083F70180818E7F0B
:100F10008083888180618883CDB7DEB7E8E00C9458
:100F2000AA32FC01809161069091620686179707AC
:100F3000A0F06115710529F49091E8009E779093D7
:100F4000E80090E06115710551F4911108C080919D
:100F5000E80082FF34C080E00895BC01F2CF8091A8
:100F600059068823C1F18530C1F18091E80083FDE5
:100F700030C08091E80082FDEACF8091E80080FFD8
:100F8000E1CF8091F3002091F200382F61157105B7
:100F900019F02830310558F091E02830310509F07A
:100FA00090E02091E8002E772093E800CBCF81914C
:100FB0008093F100615071092F5F3F4FE7CF80911F
:100FC0005906882341F0853041F08091E80083FF85
:100FD000BECF81E0089582E0089583E00895809176
:100FE0004E06089587E797E79093010880930008DD
:100FF00088E19AE00FB6F894A895809360000FBE40
:1010000090936000FFCF2FB7F894609148067091DD
:10101000490680914A0690914B062FBF0895909102
:101020005F019923D1F09091450697FF16C0E82FF4
:10103000E695E695E695EE31E0F4F0E0E854FD4FF4
:10104000282F277081E090E001C0880F2A95EAF7E9
:1010500080959281892382830895E2EBF2E0919159
:10106000891303C0DF0111971C9292E0E83BF90756
:10107000B1F7089590915F019923C1F090914506D1
:1010800097FF14C0E82FE695E695E695EE31F8F463
:10109000F0E0E854FD4F877021E030E001C0220FFE
:1010A0008A95EAF78281822B82830895A2EBB2E0CF
:1010B000EFEF90E02D91821751F0EF3F19F42111DD
:1010C00001C0E92F9F5F9630A9F7EF3F09F408951B
:1010D0000E2E000CFF0BE055FD4FE6CFA3E0B0E075
:1010E000E4E7F8E00C9494322091430630914406F2
:1010F00028173907A1F09093440680934306E091A6
:101100004106F0914206309751F024E029839B83F9
:101110008A830084F185E02DCE01019609952396FE
:10112000E2E00C94B032A3E0B0E0E9E9F8E00C941E
:10113000943220913F063091400628173907A1F0DC
:101140009093400680933F06E0914106F09142065D
:10115000309751F023E029839B838A830084F185B3
:10116000E02DCE01019609952396E2E00C94B03271
:1011700080913D06882359F0E0914106F0914206A6
:10118000309729F00190F081E02D0995089580E0D5
:1011900008958091320680FD16C081FD16C082FD43
:1011A00016C0809131068823A1F0883280F428E0AF
:1011B000829FC001112468E270E00E94D532862F20
:1011C000672B39F0089582E0089584E0089588E05F
:1011D000089581E008958091320680FD14C081FD5C
:1011E00014C082FD16C080913006882381F08E31B4
:1011F00080F420E5829FC00111246EE170E00E941E
:10120000D532862F089584E1089588E2089588E014
:10121000089580E50895282F35EB2303C00111249C
:1012200097FF04C080589109892F089580589F4FD7
:10123000FBCFFA01811101C0FB010995089530919E
:101240003E06311123C08B3191051CF14B97FC01F7
:10125000EE0FFF1FDF01A80FB91FA058BA4F11965C
:101260003C911197361307C03C91341304C0129679
:101270003C91321771F031E030937F05E80FF91F90
:10128000E058FA4F61834083228303C08B3191057C
:10129000F4F2089510927F050895E1EAF6E02481C2
:1012A00030E1231B08F420E024838091A0068160B4
:1012B0008093A0060895E1EAF6E0248130E1230F4F
:1012C00008F42FEF24838091A00681608093A0060C
:1012D0000895E1EAF6E0438120E1421B08F440E092
:1012E0008181628190E00E9482060895E1EAF6E041
:1012F000438120E1420F08F44FEF8181628190E049
:101300000E9482060895E1EAF6E0628120E1621B14
:1013100008F460E08181438190E00E948206089594
:10132000E1EAF6E0628120E1620F08F46FEF81816B
:10133000438190E00E9482060895E1EAF6E081810F
:10134000438162818850990B0E9482060895E1EAE8
:10135000F6E0818190E04381628108960E948206D6
:1013600008958091A10686958695815009F481E0C3
:101370000E943D06089581E00E943D0608959BE08D
:10138000899F802D1124980F973308F096E32091C0
:101390003E06222321F09C3128F09BE108958B31F9
:1013A00008F48BE10895FF920F931F93CF93DF937F
:1013B000182F062FF42ED0E0C0E02F2D402F612FE4
:1013C000CE010E941F092196C633D105B1F7CDB7D2
:1013D000DEB7E5E00C94AD320895E1ECF3E0118264
:1013E000828184608283089580912206982F9C7F59
:1013F00061F483708460809322068091250689378A
:1014000018F088E78093250608958C3AB0F383702E
:10141000886AF1CFAF92BF92CF92DF92FF920F9383
:101420001F93CF93DF93362F472FE82FF0E0E95734
:10143000FC4F71110FC0E4918E2F2E2F6E2F722F43
:10144000DF91CF911F910F91FF90DF90CF90BF90D0
:10145000AF900895C72FD0E02491F22E022F10E014
:1014600056E0659FC0011124EFEFF0E0BF010E943C
:101470007032832F90E0880F991F35E5369FD00199
:10148000379FB00D11248A1B9B0B982F990F980F33
:101490006F01CC1ADD0AC09ED001C19EB00DD09E56
:1014A000B00D11248B2F499FA0011124452F5527E2
:1014B0006F01C41AD50AC09EA001C19E500DD09ED6
:1014C000500D11245F01A91AB108AC9E6001AD9EB8
:1014D000D00CBC9ED00C1124CD2CDD24EC19FD09C0
:1014E000E09FE001E19FD00DF09FD00D1124ED2F82
:1014F00062307105A1F050F46115710509F49ECFB9
:101500006130710581F0EB2F852F98CF6430710524
:1015100069F080F06630710509F490CFF4CFE22FC6
:101520002B2F8D2F8BCFE22F252F88CFEB2F822FC4
:101530002D2F84CF2B2F8F2DE52F80CFCF93DF93AF
:10154000762FE901493708F048E7682F842F0E9479
:101550000A0A798368838A83DF91CF91089580E0B6
:101560000895F894E82FE295EF70F0E031A1282F6C
:101570002F7081E090E001C0880F2A95EAF7982F3C
:101580009095932391A392A1892B82A37894089597
:101590000F931F9380913D06882329F00E94030832
:1015A0001F910F9108950E94030800916D031091FF
:1015B0006E0320916F0330917003600F711F821FC3
:1015C000931FEECF9091450692FF10C041E0282F67
:1015D0002471243009F040E031E0282F28712830B0
:1015E00009F030E0431711F02CE0822793FF10C080
:1015F00041E0282F2471243109F040E031E0282F08
:101600002871283109F030E0431711F02CE08227CF
:101610003091460630FF10C051E0282F2171213053
:1016200009F050E041E0282F2871283009F040E00F
:10163000541711F029E0822731FF10C041E0282F14
:101640002171213109F040E031E0282F2871283143
:1016500009F030E0431711F029E0822794FD877EDE
:10166000089582389105B9F1B0F48133910509F4F8
:101670007DC048F48932910509F46DC08A32910524
:1016800009F47BC008958533910509F45FC089335F
:10169000910509F10895833E9105D9F138F4803E12
:1016A000910529F1823E910579F10895863E9105D3
:1016B000D9F1873E910509F43EC0843E910541F57C
:1016C0002091460621FF24C08091450684FD19C063
:1016D00087EE90E0089520914506237009F05AC0E6
:1016E0002091460623FF14C089E290E008952091DE
:1016F000450620FD38C03091460630FF09C024FF62
:1017000043C090E080E008952091450622FDF7CF88
:1017100008952091450622FD3AC03091460630FDDD
:1017200039C024FFF5CFEDCF2091450623FFF0CF40
:1017300024FDE7CFCDCF2091450623FD2EC030916B
:10174000460631FFEECF84EE90E0089520914506E5
:1017500025FFDECFC9CF2091450625FD21C0209170
:10176000460623FFD5CF89E390E0D2CF20914506EE
:1017700026FFCECF8AE290E008952091450626FF0D
:10178000C7CF81E390E0089583EE90E0089582EE64
:1017900090E0089580EE90E0089586EE90E0089540
:1017A00085E390E00895972F7830B8F46630A8F478
:1017B0008530B0F470E026E0929F600D711D112419
:1017C000FB0190E3899FE00DF11D1124EE0FFF1F37
:1017D000E851FF4F85919491089580E090E008953D
:1017E00081E0FCCF1F93CF93DF930E94310BEC017C
:1017F000C11580E5D807F0F5C11580E4D80708F0D9
:101800009CC0C03ED10520F5CD3CD10508F082C07A
:10181000C83AD10578F4C53AD10508F073C0C13093
:10182000D10519F1209709F1C430D105F0F4D0E0C9
:10183000C0E01BC0C33CD105D0F7C85AD0E0CC0FE4
:10184000DD1FC959DE4F0990D881C02DD4640DC069
:10185000C11580E2D80708F0D1C0C11581E0D807D2
:1018600008F05AC0C83ED10510F7CE01DF91CF91E4
:101870001F910895C03682E5D80718F5C03482E577
:10188000D80708F06BC0C03282E5D80708F05FC007
:10189000C11582E5D80708F497C02C2F2695269508
:1018A00080E2289F900111248C2F8370C1E0D0E04A
:1018B00002C0CC0FDD1F8A95E2F7C22BD32BDD6867
:1018C000D4CFC03A82E5D80760F4C03882E5D807A3
:1018D00008F459C0CF71D0E0DC2FCC27C46FD06A98
:1018E000C4CFC03C82E5D80708F462C0C03E82E5A0
:1018F000D80708F09CCFDC2FCC27CC27DF71C06F36
:10190000D06AB3CFC55AD0E0CC59DE4FC881D0E001
:10191000D064ABCFD065A9CF8D2F0E94E20A182FDB
:10192000CE0199270E94310BC12FD0E0DC2FCC27AC
:10193000CC27DF71C82BD92B98CFCE0199270E94D5
:10194000310BCC27DF70C82BD92BD06A8ECFCF714B
:10195000D0E0DC2FCC27C16FD06A87CF2C2F269503
:101960002695277080E2289F900111248C2F837088
:10197000C1E0D0E002C0CC0FDD1F8A95E2F7C22B98
:10198000D32BDC6872CF2C2F26952695277080E20A
:10199000289F900111248C2F8370C1E0D0E002C0F9
:1019A000CC0FDD1F8A95E2F7C22BD32BDA685DCF0F
:1019B0008C2F8F710E94E20AC82FD0E0DC2FCC2739
:1019C000CC27DF71D06251CF8C2F8F710E94E20A39
:1019D00055E0D695C7955A95E1F7CF70D0E0DC2F4A
:1019E000CC27282F30E084FF05C044E0220F331FAE
:1019F0004A95E1F7C22BD32BD06937CF8D2F8F714A
:101A00000E94E20A182FCE0199270E94310BC12FA4
:101A1000D0E0DC2FCC27CC27DF71C82BD92BD2CF3D
:101A200080959091240398239093240308958091A6
:101A300024039091FB02892B9091FA02992391F053
:101A4000892B90915F01992371F09091450697FF42
:101A50000AC09EE12AEB32E040E0915040F441118F
:101A60001092FA02089596E022EB32E0F5CFF901E8
:101A700051919F01552389F34F5FEFCF80919C06D1
:101A800090916306981301C008958F5F8770FACF15
:101A9000B0E0A0E0EEE4FDE00C948D327C0100911A
:101AA0009003109191038091250390912603082BB8
:101AB000192BCFE0D0E0CC24C394D12CBC2EC6018E
:101AC0000C2E02C0880F991F0A94E2F780239123FD
:101AD000892B49F4219790F7B12C8B2DCDB7DEB728
:101AE000E9E00C94A932B7018C2F0E94D30B0E941D
:101AF000F20B019779F3F1CFCF93DF93EC010E94C2
:101B0000480DBE010E94D30B0E94F20BDF91CF91D2
:101B10000895983078F5863068F5E82FF0E086E093
:101B2000989FE00DF11D11249E2F977083E0F6958C
:101B3000E7958A95E1F7EE0FFF1FEE0FFF1FE652C4
:101B4000FD4F50E040E080E0219130E0092E02C0DE
:101B5000369527950A94E2F721703327042E01C0A9
:101B6000220F0A94EAF7822B4F5F5F4F44305105F2
:101B700059F7089580E00895983098F5863088F5F3
:101B8000E82FF0E086E0989FE00DF11D11248E2FE4
:101B9000877041E001C0440F8A95EAF783E0F6952B
:101BA000E7958A95E1F7EE0FFF1FEE0FFF1FE65254
:101BB000FD4F30E020E070E05191DF011197CB0143
:101BC000022E02C0969587950A94E2F7817081955E
:101BD0008527842385278C932F5F3F4F2430310541
:101BE00059F708959C01267033272630310531F4CA
:101BF000886090939103809390030895877FF9CF35
:101C000021E030E002C0220F331F8A95E2F72095D1
:101C100030958091900390919103822393230E94A9
:101C2000F20D08959091F902809589238093F9022D
:101C3000282F277069F4891759F09091460692FF72
:101C400007C08695869586950E94000E1092F9022F
:101C5000089521E030E002C0220F331F8A95E2F799
:101C60008091900390919103822B932B0E94F20D0F
:101C7000089590932603809325030895FC01248101
:101C80002223C1F0808191810E947C0D92959F70EA
:101C9000963091F058F4925F9F70923058F4803FE4
:101CA00019F030F4883E30F481E008959A5FF4CF63
:101CB000843FD1F380E00895883EB0F3813FD1F7AF
:101CC000F3CF292F332740E02115310511F0C90149
:101CD00048E09C0164E0369527956A95E1F7211567
:101CE000310511F04C5FC9019C0136952795369559
:101CF00027952115310511F04E5FC90196958795FD
:101D0000892B09F04F5F842F0895A6E0B0E0EBE83F
:101D1000FEE00C94933249835A8349815A81992376
:101D2000A1F0222391F0CA010E94480D182F682FBC
:101D300089819A810E94BC0D69817A81812F0E94DC
:101D4000D30B2696E3E00C94AF32CA010E94890DB2
:101D5000182FF2CFCF93DF93682F81E06A3019F00C
:101D60006D3031F480E00E94380FDF91CF910895FB
:101D70008091B2089091B30826E0FC01ACEAB8E08B
:101D800001900D922A95E1F7603E08F458C026E0D4
:101D9000FC0111922A95E9F7C091B208D091B308DD
:101DA00046E050E0BE018CEA98E00E94A6339E0116
:101DB0002C5A3640892B41F1C90145E0969587950B
:101DC0004A95E1F741E050E0BA0102C0660F771F83
:101DD0008A95E2F7CB016091AA067091AB06862B3B
:101DE000972BB9016B5F7F4FE5E076956795EA9594
:101DF000E1F702C0440F551F6A95E2F7842B952B3B
:101E00009093AB068093AA062A5F3F4F4091A906A4
:101E1000642F70E0C9010E947032481B463010F4F4
:101E2000240F311D211572E0370710F030E020E05B
:101E30002455394F3093B3082093B20896CFF6E07B
:101E40006F9FB00111246550794F46E050E00E9429
:101E50009033A2CFCF93DF93EC01FE0184918111E7
:101E600003C0DF91CF9108950E94AA0E2196F5CF6D
:101E7000CF93382FE091B208F091B308EC5AF640B6
:101E80002091A906622F70E0CF010E947032281BBA
:101E9000822F332361F066E00E94BB32C82FC1500D
:101EA00010F4CF91089580E20E94AA0EF8CF9F010E
:101EB000280F311D2115324018F080E0F0E0E0E0FD
:101EC0008E0F9F2F911D8455994F9093B308809347
:101ED000B208E7CF0E942A0F81E00E94380F0895D0
:101EE00080915F01882359F18091450687FF27C0C3
:101EF0000E94170D8093B90240E250E06CEF72E04F
:101F000088EB92E00E94A633892BC1F080E2E8EBD7
:101F1000F2E0ACEFB2E001900D928A95E1F7E0912A
:101F20004106F0914206309749F086E08093B8026E
:101F30000480F581E02D88EB92E0099508950E94D8
:101F4000170D8093B00248E050E06CE173E080EB45
:101F500092E00E94A633892B89F388E0E0EBF2E05F
:101F6000ACE1B3E001900D928A95E1F7E091410672
:101F7000F0914206309711F30280F381E02D80EB5F
:101F800092E0DBCF882321F00E94100D0E94700F99
:101F90000895882339F090912403982B909324037B
:101FA0000E94700F08950F931F93CF93DF938B01BF
:101FB000EA0190915906943061F58093E9008FEF22
:101FC0009091E800815095FD06C095ED9A95F1F746
:101FD00000008111F5CF8091E80085FF1AC00E94B2
:101FE000B406811111C08091E80085FD06C0809182
:101FF000E8008E778093E800F2CFF80181918F019D
:102000008093F100219779F78091E8008E77809393
:10201000E800DF91CF911F910F91089543E050E0C8
:10202000BC0182E00E94D30F089546E050E0BC015D
:1020300082E00E94D30F089540E250E0BC0182E0AC
:102040000E94D30F0895CF93DF93EC0148E050E056
:10205000BC0181E00E94D30F88E0FE01AFE4B6E04E
:1020600001900D928A95E1F7DF91CF910895539AEF
:102070004BB1477F5BB15860EFB7F8949B01220FDB
:10208000331F260F371F280F391F2817390741F430
:10209000EFBF8FE594E00197F1F700C000000895CD
:1020A000DC016D91CD0178E05BB9000000C067FFF5
:1020B0004BB9660F000000C000C000C04BB900C0A3
:1020C0007A9591F7E2CF80917F05882341F066E30E
:1020D00070E080E895E00E94371010927F05089527
:1020E000609156018091220680FF0CC070E08091C3
:1020F000550123E0829FC001112489539C4F0E9407
:1021000037100895809157019091580123E0829FE4
:10211000F0011124E953FC4F891740F71182108216
:1021200012828F5F3396F8CF0F931F93CF93DF9375
:10213000EC0110E000E0909159019017110609F0B0
:102140006CF40E9470108C8190E001968170992748
:102150008C83DF91CF911F910F91089520915701AA
:10216000A801420F511D9A01220F331F240F351F62
:1021700029533C4F4C81609124068091230696950B
:102180009017110651F04CF0442349F04091250678
:102190000E949E0A0F5F1F4FCECF4423B9F340E049
:1021A000F7CFB0E0A0E0E7EDF0E10C948A32EC016B
:1021B0004C81042F10E09801D8010E9468349B01E3
:1021C000AC010E9433344B015C01E0E2F0E0E01B23
:1021D000F10BA5E5B0E0AC019B010E9433346B012B
:1021E0007C019F01DF010E94EF329B01AC010E9444
:1021F0003E349B01AC01280D391D4A1D5B1DC701F2
:10220000B6010E944634F22E822F90E039E23F154B
:1022100020F143E0249F9001112435952795122F3A
:10222000109500E085E5E82EEF1880915901081718
:1022300018F10E9470109C8181E0992319F090326E
:1022400019F48FEF8093540180915401890F8C838E
:10225000CDB7DEB7ECE00C94A63225E530E0B9014D
:10226000681B790B9B01220F331F260F371F37FF87
:10227000D4CF2F5F3F4FD1CF8E2D01FD8F2D2091D9
:102280005701622F600F7727771F9B01220F331FA3
:10229000260F371F29533C4F412F609124060E947F
:1022A0009E0A0F5FC2CFEF92FF920F931F93CF93BF
:1022B000DF93EC018C81811109C081E08C83109245
:1022C000C50392E09093530180935201809157018E
:1022D0009091580123E0829FF0011124E953FC4FB3
:1022E000891758F110E003E060915901161758F171
:1022F0000E947010809152012091C503280F2093F5
:10230000C50390915301980F90935301191654F4FB
:10231000022E000C330B409159014150550B2417EC
:10232000350734F0819580935201813009F41C8285
:10233000CDB7DEB7E6E00C94AC3211821082128287
:102340008F5F3396CDCFE12EF12C70E0C7010E9454
:10235000D53220915701820F482F50E02091C503BC
:10236000022E000C330BE216F306BCF02091530151
:10237000022E000C330B2E153F057CF0809F900140
:10238000112429533C4F40912506609124068091E9
:1023900023060E949E0A1F5FA7CFFA01EE0FFF1FC0
:1023A000E40FF51FE953FC4F118210821282F3CF24
:1023B000B0E0A0E0EEEDF1E10C948A32EC018A810C
:1023C000BB24BA9480FD02C0BB24B394A0905901F1
:1023D0008C81811109C081E0B81220C08FEF8A0D75
:1023E0008093C40381E08C83F12CE12C46E3942E8E
:1023F000EA14B8F00E9470108091C40391E0B91201
:1024000057C0811150C08091590181508093C403FD
:102410001C82CDB7DEB7ECE00C94A6321092C40358
:10242000E1CF009157010E0D1F2D111DC801880F1E
:10243000991F080F191F09531C4FF80111821082B0
:10244000128234E0C32ED12C812C8091C403880DDC
:1024500087332CF1692D0E94C732892F082E000C7A
:10246000990B8E159F0591F4809125068C9DA001F6
:102470008D9D500D1124559547955595479598017B
:1024800060912406809123060E949E0A8B0CF1E045
:10249000CF1AD108D1F68FEFE81AF80AA9CF87FF33
:1024A000DDCF8A0DDBCF81508093C403BC82B1CFD6
:1024B00090E001966091590170E00E94D5328093BE
:1024C000C4038C83A6CFEF92FF921F93CF93DF9329
:1024D000EC0110E0EE24EA94F12C609159011617FA
:1024E00070F00E9470109A818C8190FF27C08F5FDE
:1024F0008C83DF91CF911F91FF90EF9008952091F1
:102500005701422F410F5527551FCA019A01220F2B
:10251000331F280F391F29533C4F70E0C7010E9419
:10252000D532962F8C814091250660912406199F03
:10253000800D11240E949E0A1F5FCFCF8150D8CFFB
:102540009091220690FF0EC0909157012091580162
:1025500033E0939FF0011124E953FC4F921718F0D8
:102560000E94701008958183608342839F5F339639
:10257000F5CFA3E0B0E0EFEBF2E10C9492328C01E6
:102580008091C60381110AC09E012F5F3F4F48E72B
:102590006FEF0E949E0A8A818093C603F8016481CE
:1025A000613069F08091C60340E0662361F040E04D
:1025B000623011F44091C60380E060E004C0609195
:1025C000C60340E080E00E94A012F801848190E000
:1025D000019663E070E00E94D53284832396E4E0A4
:1025E0000C94AE32A3E0B0E0E8EFF2E10C94943248
:1025F0009091220690FF0AC09E012F5F3F4F0E94DC
:102600009E0A4B8169818A810E94A0122396E2E092
:102610000C94B032CF93DF93EC01E2E2F6E0438119
:1026200062818C810E94F2128C818F5F8C83DF919A
:10263000CF910895CF93DF93EC01EC81F0E0E45764
:10264000FB4F4491E2E2F6E0628181810E94F21246
:102650008C818F5F8C83DF91CF910895B0E0A0E0F3
:10266000E4E3F3E10C948C327C015B016A0180911C
:102670006C0301E010E08A3010F40AE010E0C1E0E1
:10268000D0E0B501C701F6010995811104C021967A
:102690000C171D072CF4CDB7DEB7EAE00C94A83276
:1026A000CC9F9001CD9F300D300D112490E080E043
:1026B00045E34A95F1F70000019682179307C1F7A9
:1026C000E0CFB0E0A0E0E7E6F3E10C948E326C01DD
:1026D0007B0164E670E088E70E94CE2F8C01E60162
:1026E000EC0CFD1C17FD0BC0FE01849164E670E04C
:1026F0000E943A308C012196CE15DF0599F70E9491
:10270000B03081E00115110509F080E0CDB7DEB7EA
:10271000E8E00C94AA3280912E0690912F06911138
:1027200003C091E089270895882369F062E070E092
:102730008EE895E00E946113811103C080912E06FE
:10274000089510922E0680912E06EBCFCF93C09164
:102750002E0680912F068823D1F00E940308605A2C
:1027600075418F4F9F4F60932A0670932B0680937D
:102770002C0690932D06C11108C062E070E08CE831
:1027800095E00E946113811105C0C0912E068C2F27
:10279000CF91089581E080932E06F7CFB0E0A0E0BE
:1027A000E4EDF3E10C948E320E94C80A6093770541
:1027B000709378058093790590937A053091A106FE
:1027C000C32FC37019F0C32FC695C6952091600121
:1027D0002130D9F0222359F0223009F48CC0233063
:1027E00009F493C0CDB7DEB7E8E00C94AA3210929A
:1027F0005C0160937B0570937C0580937D059093CD
:102800007E0581E080936001EDCF90915B0181E0D6
:10281000C9130BC0832F837020915A0130E091E0DF
:102820008217130609F490E0892F817080935E016E
:102830008091A60690915D01981739F080935D0113
:1028400040E060E080E00E94D309CC2321F0C13059
:1028500061F090E025C090915E01992309F140E07C
:1028600060E080E00E94D309F4CF80915C010E9477
:10287000BF09082FD92F6091A2067091A3068091FD
:10288000A4060E940A0AF62EE72ED82E10E00D1795
:10289000D8F080913E0691E0882339F1DB31C8F60B
:1028A00080915C0121E0280F20935C01911120C0F0
:1028B00092E09093600190915E01911119C0CC2338
:1028C00011F10E94BF098ECFF801E858FD4F8081B9
:1028D00090915D01892331F02D2D4F2D6E2DC80172
:1028E0000E941F090F5F1F4FD2CFD633C8F2B1CF5E
:1028F000C111E7CF77CFC0935B01832F83708093A3
:102900005A010E94631083E07DCF8091A006882346
:1029100051F048E050E068E170E081EA96E00E9402
:10292000E0331092A006C0907B05D0907C05E0902B
:102930007D05F0907E0580913D068823C1F02FB77C
:10294000F894609148067091490680914A069091EA
:102950004B062FBF6C197D098E099F0960317105E7
:102960008105910508F43ECF109260013BCF0E9493
:10297000C80AF0CFE1EAF6E085E08083809161014A
:1029800090916201A091630181839283A3838FE779
:1029900084838FEF858348E050E068E170E0CF01E9
:1029A0000E94E0331092A0060895B0E0A0E0EBEDA5
:1029B000F4E10C948632FC016280448081E08483DF
:1029C000ECE8F4E07490EBE0F5E0E491C0912506CA
:1029D000C695C158D0E0CC0FDD1FCD2FDD27812C4F
:1029E00075E0972EAA24AA94B12C55245A94E7197D
:1029F000EE2EF12C80915901881638F00E9470104B
:102A0000CDB7DEB7E0E10C94A232C82CD12C82E025
:102A1000861568F09C9CF0019D9CF00D1124E759EF
:102A2000FB4F80912306808380912406818341108F
:102A300023C09C9CF0019D9CF00D1124E759FB4F95
:102A40001382128220915701C601820F911D9C01B1
:102A5000220F331F280F391F29533C4F9C9CF00134
:102A60009D9CF00D1124E759FB4F428161818081CB
:102A70000E949E0A8394BECF9C9C80019D9C100D59
:102A8000112407591B4FF80183818823F1F08150ED
:102A90008383859DC0011124648170E00E9470329F
:102AA000FB01FF27E457FB4F8491E82FE719E59DD1
:102AB000C0011124B7010E94703280912506689FE1
:102AC000B0011124F8017283BDCF0E948033B5019B
:102AD0000E94D5328C179D070CF0B4CFF2E0F615AA
:102AE00098F40E948033B5010E94D532F8018083AA
:102AF0000E948033209124062695622F70E00E9468
:102B0000D532280FF80121839C9CF0019D9CF00D8B
:102B10001124E759FB4F128280912506893C58F019
:102B200088EC9C9CF0019D9CF00D1124E759FB4F13
:102B30008483838387CF8431A0F784E1F2CFB0E030
:102B4000A0E0E5EAF5E10C948A3249015A016B01F3
:102B50007C010E94F4098401A4016A2D7B2D88E088
:102B600090E00E94023494014A2D5B2DB601C7010A
:102B700000E20E941933622F84E290E00E94F03359
:102B8000CDB7DEB7ECE00C94A632A3E0B0E0EBECFE
:102B9000F5E10C948D32082FE62EF42EC22E909182
:102BA000220690FF41C020912306281308C080917F
:102BB0002406861304C080912506841729F080918D
:102BC000C30382608093C303E92FE695E695AE2F99
:102BD000B0E0AF54BE4F8C918093C1039C7F943082
:102BE00039F59E012F5F3F4F4F2D6E2D802F0E9494
:102BF0009E0A4B8169818A810E94A012009323065C
:102C0000E0922406F0922506CC2071F02091220655
:102C10006091260670912706302FA7018091280623
:102C2000909129060E949F152396E9E00C94A93201
:102C3000823019F4F0902506E1CF8630A1F1893079
:102C400091F18931D9F6E9516E2F6170B62EE69572
:102C5000F0E0E957FB4F1491D12C60915901D61641
:102C600018F00E947010CACFD19EC001112470E0EC
:102C70000E947032802FB11014C0860F209157012E
:102C8000622F6D0D7727771F9B01220F331F260FB1
:102C9000371F29533C4F4F2D6E2D0E949E0AD3940F
:102CA000DCCF861BEBCF022FA9CFE2E2F6E0438117
:102CB00021E1421B08F440E021E0628181810E9411
:102CC000C5150895E2E2F6E0438121E1420F08F4E0
:102CD0004FEF21E0628181810E94C5150895E2E2F3
:102CE000F6E0628121E1621B08F460E021E04381AB
:102CF00081810E94C5150895E2E2F6E0628121E13A
:102D0000620F08F46FEF21E0438181810E94C515B5
:102D10000895E2E2F6E0818121E0438162818A50F8
:102D20000E94C5150895E2E2F6E0818121E0438129
:102D30006281865F0E94C5150895809126068823CA
:102D400019F08150809326062091220630912306A7
:102D50004091240650912506609126067091270621
:102D600080912806909129060E949F1508958091D0
:102D70002606833018F48F5F809326062091220662
:102D80003091230640912406509125066091260635
:102D90007091270680912806909129060E949F1520
:102DA0000895E2E2F6E085E0808311828FEF82836E
:102DB00088E783831482A1ECB3E012968C9112977A
:102DC000836012968C93758125E030E04FEF58E7D1
:102DD00060E0868197810E949F150895A8E0B0E089
:102DE000E4EFF6E10C94943266EE7EEF90E080E042
:102DF0000E940E3460E082E090E00E94F03381E0B7
:102E000090E0909326038093250361E083E090E0B7
:102E10000E94F03360E074E184E090E00E940E34A0
:102E200060E086E090E00E94F0336FEF87E090E092
:102E30000E94F03340E050E0BA0188E090E00E9448
:102E4000023460E084E290E00E94F03360E087E1C9
:102E500090E00E94F03360E08CE090E00E94F0335C
:102E600060E08DE090E00E94F03319821A821B82AC
:102E70001C821D821E821F82188648E050E068E195
:102E800070E0CE0101960E94E03340E050E0BA01CC
:102E900080E290E00E94023440E050E0BA018FE00E
:102EA00090E00E94023440E050E0BA0183E190E0FB
:102EB0000E9402342896E2E00C94B03290914606CB
:102EC00092FB222720F9281779F080FB92F9909342
:102ED0004606609145067091460684E090E00E94A7
:102EE0000E3482E00E94120E08954F925F926F920C
:102EF0007F928F929F92AF92BF92EF92FF920F9329
:102F00001F93CF93DF937B01FB0140805180628050
:102F100073809FB7F8948090480690904906A090DF
:102F20004A06B0904B069FBF84189508A608B708BC
:102F3000F4E68F169104A104B10418F4C1E044230F
:102F400029F1C82F880FDD0BFE0183E0EE0FFF1F74
:102F50008A95E1F7EC5FFE4F81819281815C9C4F05
:102F6000408150E00417150708F4A801B9010E9438
:102F7000B333CE010E94FA31C82F882339F00E9462
:102F80000308F70160837183828393838C2FDF9121
:102F9000CF911F910F91FF90EF90BF90AF909F90B6
:102FA0008F907F906F905F904F900895A9E0B0E070
:102FB000ECEDF7E10C94923288E0E1EAF6E0DE0114
:102FC000119601900D928A95E1F7198649E050E03B
:102FD00067E573E0CE0101960E94A63341E0892B9C
:102FE00009F440E009E010E09E012F5F3F4F68E6E2
:102FF00073E085E00E9475172996E4E00C94AE32E8
:10300000ABE0B0E0E6E0F8E10C94923288E0E2E276
:10301000F6E0DE01119601900D928A95E1F780911C
:10302000C1039091C203A091C30389879A87AB879C
:1030300041E08B85811101C040E00BE010E09E0172
:103040002F5F3F4F64E673E084E00E9475178111A3
:103050001092C3032B96E4E00C94AE320F931F93AF
:10306000CF93DF93EC0144E050E064E473E00E940E
:10307000A63341E0892B09F440E004E010E09E0112
:103080006BE373E082E00E947517DF91CF911F918F
:103090000F910895A4E0B0E0E0E5F8E10C949332DC
:1030A00040916003509161036091620370916303EA
:1030B0002FB7F8948091480690914906A0914A064E
:1030C000B0914B062FBF841B950BA60BB70B11E0DD
:1030D00084369105A105B10570F10E94C80A6E5FA2
:1030E0007F4F8F4F9F4F69837A838B839C8380911F
:1030F0001D0190911E01815C9C4F40911C0150E08C
:103100004530510510F044E050E0BE016F5F7F4F45
:103110000E94B33383E090E00E94FA31182F882395
:1031200051F00E94030860936003709361038093E1
:10313000620390936303812F2496E3E00C94AF32F3
:10314000EF92FF921F93CF93DF9300D000D00F92A6
:10315000CDB7DEB77B0190E080E00E94FA31182FF6
:10316000882309F487C04091070150E041155105BB
:1031700011F041E050E06091080170910901615C3B
:103180007C4FCE0105960E94B33340913703509196
:1031900038036091390370913A032FB7F894809106
:1031A000480690914906A0914A06B0914B062FBF60
:1031B000841B950BA60BB70B84369105A105B105B1
:1031C00040F480E493E00E946B069D81891709F426
:1031D00051C081E090E00E94FA3181111AC010E0E4
:1031E0008091330390913403A0913503B09136035D
:1031F000F70180839183A283B383812F0F900F9077
:103200000F900F900F90DF91CF911F91FF90EF9053
:10321000089540910F0150E04530510510F044E011
:1032200050E06091100170911101615C7C4FCE0102
:1032300001960E94B33380E493E00E946B069D8167
:103240008913CDCF0E94030860933703709338032E
:103250008093390390933A0389819A81AB81BC8131
:103260008093330390933403A0933503B0933603D4
:1032700011E0B6CF8091400390914103A0914203A9
:10328000B091430389839A83AB83BC831111E4CF4C
:10329000A7CF1F920F920FB60F9211242F933F9337
:1032A0004F935F936F937F938F939F93AF93BF934E
:1032B000EF93FF938091E10082FF09C08091E200CB
:1032C00082FF05C08091E1008B7F8093E1008091B7
:1032D000DA0080FF24C08091D80080FF20C0809158
:1032E000DA008E7F8093DA008091D90080FF9DC044
:1032F00080E189BD82E189BD09B400FEFDCF81E096
:103300008093590680914C06811109C00E94950650
:103310000E9436078091E20084608093E2008091F1
:10332000E10080FF17C08091E20080FF13C0809110
:10333000E2008E7F8093E2008091E20080618093C2
:10334000E2008091D80080628093D80019BC85E0AB
:10335000809359068091E10084FF2BC08091E200A8
:1033600084FF27C080E189BD82E189BD89B5982F9E
:10337000917080FFFBCF8091D8008F7D8093D80023
:103380008091E1008F7E8093E1008091E2008F7E4A
:103390008093E2008091E20081608093E20080915E
:1033A0005A06882309F447C084E080935906809127
:1033B00059068091E10083FF27C08091E20083FFDE
:1033C00023C08091E100877F8093E10082E08093B9
:1033D000590610925A068091E1008E7F8093E10099
:1033E0008091E2008E7F8093E2008091E200806114
:1033F0008093E20042E060E080E00E940407809158
:10340000F00088608093F000FF91EF91BF91AF9141
:103410009F918F917F916F915F914F913F912F91EC
:103420000F900FBE0F901F90189519BC109259065F
:1034300010924C0674CF8091E30087FD93E0909347
:103440005906B5CF78941F921FB61F9211248F93FF
:103450009F93AF93BF938091480690914906A091A6
:103460004A06B0914B060196A11DB11D80934806F6
:1034700090934906A0934A06B0934B06BF91AF9133
:103480009F918F911F901FBE1F9018959C014FB761
:10349000F8948091480690914906A0914A06B0910F
:1034A0004B064FBF821B930B08952FB7F894809162
:1034B000480690914906A0914A06B0914B062FBF4D
:1034C00008950E94551A9C019091390680913A0600
:1034D000982B21F0309336062093350690913B06C9
:1034E00080913C06982B21F03093340620933306CC
:1034F000E0914106F0914206309749F082E08093D6
:1035000037060680F781E02D87E396E00995089558
:103510001092240380915F01882339F18091450640
:1035200087FF23C0EAEBF2E08EE1DF011D928A956E
:10353000E9F790E080E00E94930890E080E00E942C
:103540006E081092FB020E94700F86E0E7E3F6E03F
:10355000DF011D928A95E9F710923006109231062C
:10356000109232060E94611A0895E2EBF2E086E0C2
:10357000DCCFAAE2B0E0EFEBFAE10C9493328BE5FA
:1035800096E02091F100FC012193CF01F6E0833613
:103590009F07B9F780915C06833009F470C0B8F4D6
:1035A000813009F447C0823009F4B1C08091E8004D
:1035B00083FF7EC280915B0690915C069A3008F092
:1035C00077C2E92FF0E0E758FB4C0C94E9328A30DF
:1035D00009F48CC08B3009F46FC0893039F78091C1
:1035E0005B06813219F780915F0690916006029721
:1035F000E8F68091E800877F8093E8008091E800FA
:1036000082FF38C09091F3008091F200029731F46C
:103610008091F100813011F0863021F48091F10029
:1036200080934E068091E8008B778093E8000E949B
:10363000E506BCCF80915B06813A09F0B7CF809157
:10364000E800877F8093E80080915F069091600694
:10365000892B61F468E08FE496E070E00E949107A6
:103660008091E8008B778093E800A0CF60E090E045
:1036700080E0F3CF809159068111C0CF97CF809120
:103680005B06813A09F092CF80915F0690916006C7
:10369000892B09F08BCF8091E800877F8093E80029
:1036A0008091E80080FFFCCF80915F018093F10062
:1036B0008091E8008E77B9CF80915B06813209F066
:1036C00075CF80915F0690916006892B09F06ECFCF
:1036D0008091E800877F8093E8000E94E506809152
:1036E0005D0680935F010E94881A60CF80915B061F
:1036F000813209F05BCF8091E800877F8093E800FA
:103700000E94E50680915E0680934D064FCF809122
:103710005B06813A09F04ACF8091E800877F809369
:10372000E8008091E80080FFFCCF80914D06BECF7D
:10373000803899F0823809F0BBC180915F068F70A4
:10374000873008F0B5C18093E9008091EB0085FBDC
:10375000882780F91092E90006C080915706909161
:103760005806911182609091E800977F9093E8004D
:103770008093F1001092F1008091E8008E7794C15F
:10378000882309F482C1823009F092C180915D06DC
:10379000811185C180915F068F702FEF280F263031
:1037A00008F086C18093E9002091EB0020FF77C1EB
:1037B000933031F48091EB0080628093EB006FC115
:1037C0009091EB0090619093EB0021E030E001C01C
:1037D000220F8A95EAF72093EA001092EA0080917E
:1037E000EB008860EACF811163C110915D061F77FD
:1037F0008091E3008078812B8093E3008091E80042
:10380000877F8093E8000E94E5068091E80080FFB2
:10381000FCCF8091E30080688093E30082E0111187
:1038200083E08093590644C18058823008F040C13B
:1038300080915D0690915E068C3D23E09207A1F594
:1038400083E08A838AE289834FB7F894DE01139676
:1038500020E03EE051E2E32FF0E050935700E49186
:1038600020FF03C0E295EF703F5FEF708E2F90E076
:10387000EA30C0F0C7968D939D932F5F243159F79E
:103880004FBF8091E800877F8093E8006AE270E094
:10389000CE0101960E9491078091E8008B7780937A
:1038A000E80006C1C096E7CF40915F0650916006E0
:1038B000292F33272330310509F444C078F521300E
:1038C000310509F46FC08BE390E0EAE8F6E02230BE
:1038D000310509F0EDC02091E800277F2093E80032
:1038E00020916106309162068217930708F49C01CB
:1038F00040E02115310509F064C0411162C080919A
:10390000E80082FDC9CF80915906882329F28530CD
:1039100019F28091E80083FFF2CFBECF213231054A
:10392000A9F12232310509F0C3C04115510509F44E
:1039300043C04130510509F0BBC086EB90E0E0E99F
:10394000F5E0C9CF992781309105C1F0009759F072
:10395000029709F0ADC0E7EDF6E0E4918E2F90E01C
:10396000E7EDF6E007C0E7EFF6E0E4918E2F90E098
:10397000E7EFF6E0009709F49BC0ADCFE5EEF6E087
:10398000E4918E2F90E0E5EEF6E0F4CF411551057D
:1039900071F04130510509F08BC089E090E0E5EB12
:1039A000F6E099CF82E190E0E5ECF6E094CF89E093
:1039B00090E0ECE9F6E08FCF84E490E0E6E4F6E016
:1039C0008ACF80915906882309F466CF853009F49F
:1039D00063CF8091E80083FD5FCF8091E80082FD96
:1039E0008ECF8091E80080FF84CF9091F30080918A
:1039F000F2002115310519F08830910550F041E0B1
:103A0000089709F040E08091E8008E778093E80005
:103A100070CF44914093F1003196215031090196C5
:103A2000E8CF803809F044C08091E800877F809318
:103A3000E80080915A068093F1009ECE811138C033
:103A400010915D061230A0F58091E800877F809389
:103A5000E80010935A060E94E506112311F084E055
:103A600005C08091E30087FDFACF81E0809359067D
:103A700042E061EC81E00E94040742E261EC82E0F6
:103A80000E9404078091590613C080915D06813021
:103A900079F481E0933009F080E080935806109229
:103AA000E9008091E800877F8093E8000E94E506A6
:103AB0008091E80083FF0AC08091E800877F8093AF
:103AC000E8008091EB0080628093EB00AA96E3E02F
:103AD0000C94AF321F920F920FB60F9211242F93B6
:103AE0003F934F935F936F937F938F939F93AF9386
:103AF000BF93CF93DF93EF93FF93D091E900DF70F3
:103B00008091EC00C82FC17080FDC0E81092E900E0
:103B10008091F000877F8093F00078940E94B91A1A
:103B20001092E9008091F00088608093F000CD2B26
:103B3000CF70C093E900FF91EF91DF91CF91BF91DA
:103B4000AF919F918F917F916F915F914F913F9135
:103B50002F910F900FBE0F901F9018950E94881AFA
:103B60002FEF84E39CE0215080409040E1F700C0BB
:103B7000000088E19AE00FB6F894A8958093600061
:103B80000FBE90936000FFCF4091390690913B06A5
:103B900020913C06662309F469C0942B922B209156
:103BA0003A06922B31F098E09093300691E0909392
:103BB00031068D3C41F40E94EB08819580933A06D2
:103BC0000E94611A08958E3C19F40E94EB08F6CF0A
:103BD0008F3C31F40E94EB08819580933906F0CF39
:103BE000803D19F40E94EB08F8CF893D29F40E942A
:103BF000C90880933B06E4CF8A3D21F40E94C9089E
:103C00008195F7CF8B3D31F40E94C908819580934F
:103C10003C06D6CF8C3D19F40E94C908F8CF9FE22C
:103C2000980F983070F4815D990B21E030E001C06D
:103C3000220F8A95EAF780913806822B8093380606
:103C4000BFCF8D3D31F48091320681608093320682
:103C5000B7CF8E3D21F4809132068260F7CF8F3D41
:103C600009F0AECF809132068460F0CF8D3C59F4DC
:103C700080913A0687FF0DC010923A0641110BC0A1
:103C80001092300608C08E3C81F480913A061816D6
:103C90009CF3442381F080913B0690913C06892B54
:103CA00009F08ECF109231068BCF8F3C49F447FF3D
:103CB000F0CF1092390680913A068111ECCFE0CF17
:103CC000803D19F41416ACF3E4CF893D29F419169C
:103CD00004F710923B06DDCF8A3D19F497FFD9CF48
:103CE000F8CF8B3D29F427FFD4CF10923C06D1CFDB
:103CF0008C3D19F41216CCF3CCCF9FE2980F98307C
:103D000090F4815D990B21E030E0B90102C0660FAB
:103D1000771F8A95E2F7CB01809590913806892329
:103D200080933806B6CF8D3D31F4809132068E7F78
:103D300080933206AECF8E3D21F4809132068D7F86
:103D4000F7CF8F3D09F0A5CF809132068B7FF0CF62
:103D5000882381F19CEF980F913A28F40E940F0874
:103D60000E94700F089590E2980F983050F4877079
:103D700091E001C0990F8A95EAF7892F0E94100DF2
:103D8000EFCF9BE5980F933028F490E080E00E94FD
:103D90009308089598E5980F9B3128F490E080E00F
:103DA0000E946E08089593E3980F933118F460E031
:103DB0000E94C41D0895CF93C82F8823B1F18CEFC2
:103DC0008C0F813AA0F580915F01882301F18091E9
:103DD000450687FF1CC0EC2FE695E695E695F0E0DA
:103DE000E854FD4F828190E04C2F477021E030E095
:103DF00002C0220F331F4A95E2F782239323892BB7
:103E000079F08C2F0E940F080E94700F09C0E2EB1E
:103E1000F2E08191C817A9F382E0E83BF807C9F7FF
:103E20008C2F0E943A080E94700FCF91089580E273
:103E30008C0F883068F4C77021E030E001C0220F99
:103E4000CA95EAF780912403822B80932403EBCF59
:103E5000EBE5EC0FE33040F4F0E0EC59FE4F8081ED
:103E600090E00E949308E1CFE8E5EC0FEB3150F4CD
:103E7000F0E0EE0FFF1FE959FE4F808191810E9413
:103E80006E08D3CF83E38C0F833178F661E08C2FFB
:103E90000E94C41DCACF0F931F93CF93DF93C62FE9
:103EA000D42F022FFC0185818823A9F060939F06FF
:103EB0000E94551A90939E0680939D06C77081E0DC
:103EC00001C0880FCA95EAF70E94C90FDF91CF9110
:103ED0001F910F91089580919F06681335C08091BE
:103EE0009D0690919E060E94461A883C910560F5B9
:103EF00010E21D0FCD17B9F080E28C0F883040F42E
:103F0000C77081E001C0880FCA95EAF70E94C20F0E
:103F1000183048F481E09D2F977001C0880F9A9562
:103F2000EAF70E94C90F802F0E94DB1E802F0E949B
:103F3000A81E183058F6D77081E001C0880FDA95B6
:103F4000EAF70E94C20FC2CFC77081E001C0880F9C
:103F5000CA95EAF7F6CF80913D06882319F00E94B2
:103F6000551A08950E94C80ACB010895609122064F
:103F70006695669570E04BE050E087E491E00E9422
:103F80009933892B19F481E08093C2030E94AB1FFF
:103F90009093BC038093BB038091C30384608093A0
:103FA000C30308959091220690FF3AC09370811147
:103FB00038C09460909322068091C30381608093FF
:103FC000C303662391F0209122063091230640918D
:103FD000240650912506609126067091270680914F
:103FE0002806909129060E949F15609122066695E9
:103FF000669570E04BE050E087E491E00E949933D1
:10400000892BB9F00E94ED0981E08093BE0320E086
:104010004091250660912406809123060E94C515D3
:1040200008958B3210F0986AC5CF880F880F982BAF
:10403000C1CF0E94B61FE8CF809122068695869553
:10404000815009F48AE261E00E94D21F08958091B4
:104050002206869586958F5F8B3208F081E061E0BD
:104060000E94D21F08959091220690FF09C0969554
:104070009695981728F0961718F40E94272008950F
:1040800061E00E94D21F0895B0E0A0E0EAE4F0E20F
:104090000C948C328C01FC018481882309F467C064
:1040A00021E0408151816281738195810E94850E5A
:1040B000EC01F8019581992309F4D4C4818180939E
:1040C000950380818093940380E280933F01D09395
:1040D0009303C09392039E0130522115304238F46D
:1040E000F8018681807F09F45EC0FE010AC09E014E
:1040F000305421153041C8F4F8018681807FFE01DB
:1041000009F0FF27ED33F10528F4E455FF4FE49162
:10411000E0933F01FE01E851FC47E730F10508F06C
:1041200042C0ED57FB4C0C94E9329E013A952115A3
:104130003F41D8F29E01205A32452032310550F3DA
:10414000FE01E0CF26E241EE61EEC8010E944B1F66
:104150008091F902877059F0F8018581882339F040
:104160008091460682FF03C082E00E94120ECDB706
:10417000DEB7EAE00C94A83227E245EE65EEE5CF23
:1041800026E241EE60EEE1CF27E245EE64EEDDCFC0
:1041900026E241EE62EED9CF27E245EE66EED5CFBC
:1041A00028E241E0EBCF10929F069E013057233268
:1041B000310508F072C484E090E00E94DA339093F5
:1041C000460680934506FE01E150F047E232F105D4
:1041D00020F4E657FB4C0C94E9328091450681604F
:1041E0008093450695C08091460688608093460678
:1041F0008FC0809145068260F3CF80914506846030
:10420000EFCF809145068860EBCF809146068160B4
:10421000EDCF809146068260E9CF809145068061AE
:10422000DFCF809145068062DBCF809145068064B8
:10423000D7CF0E94881A809145068068D1CF80919F
:1042400045068C60CDCF809146068360CFCF8091AC
:1042500045068E7FC5CF80914606877FC7CF809168
:1042600045068D7FBDCF809145068B7FB9CF80916C
:104270004506877FB5CF809146068E7FB7CF809168
:1042800046068D7FB3CF809145068F7EA9CF809162
:1042900045068F7DA5CF809145068F7BA1CF0E94DB
:1042A000881A809145068F779BCF80914506837F42
:1042B00097CF809146068C7F99CF8091450682FBEF
:1042C000992790F921E0922790FB82F990FB83F9DE
:1042D00087CF80914606982F909591708E7F892B7D
:1042E00090FB81F983CF90914506892F8F7B96FFB4
:1042F000806476CF0E94881A90914506892F97FB9B
:1043000087F980586DCF61E08EE090E00E94F03335
:10431000609145067091460684E090E00E940E345C
:104320000E94881A15CF60E0EFCF90914506892F43
:104330008F7E94FF806154CF90914506892F8E7FA8
:1043400090FF81604DCF90914606892F877F93FF24
:1043500088604CCF85E3B1C38091D802811104C03D
:1043600089E20E940F08ABC385E3FBCF992309F4D0
:1043700085C3C3303CE7D30709F448C108F02BC11B
:10438000C1159CE7D90709F434C1C130DC4709F4F1
:1043900043C1F8018581C081D181882309F44AC1D4
:1043A000CE010E94480DF82E682FCE010E94BC0D50
:1043B000BE018F2D0E94D30B0E94F20BD82FC92F64
:1043C000A82EF801C580B680B2943FE0B322809158
:1043D000F902877009F1EC2CCC20F9F0892F807F4D
:1043E000803469F080E28D0F8830B0F0892F807EB4
:1043F000803229F4F1E0FD1778F4BB2069F0809158
:10440000460682FF09C082E00E94120E8091F902E6
:104410008770EE24E3948111E12CDC2ED2942FE0FE
:10442000D2222BE02D1508F46AC1ED2DF0E0E45501
:10443000FB4C0C94E9328091220680FF2BC0282F80
:104440002E7F20932206309123064091240650911E
:104450002506609126067091270680912806909186
:1044600029060E949F150E94ED098091C303816077
:104470008093C3030E9470108091A10691E0892768
:104480008093A106109260018091A00681608093C4
:10449000A0065ECE81608093220661E086958695B7
:1044A0000E94D21FE9CF4CE150E267E270E20E9425
:1044B000190941EB59E06BEB79E08F2D0E94190946
:1044C00047CE47E250E26CE170E20E9419094BEBE3
:1044D00059E061EB79E0F1CF49E856E163E976E133
:1044E0000E9419094DE959E067EA79E0E6CF43E90E
:1044F00056E169E876E10E94190947EA59E06DE959
:1045000079E0DBCF4FE656E16CE776E10E941909CE
:1045100043E859E060E979E0D0CF4CE756E16FE637
:1045200076E10E94190940E959E063E879E0C5CFD6
:1045300045E556E162E676E10E94190949E659E04F
:1045400066E779E0BACF42E656E165E576E10E949A
:10455000190946E759E069E679E0AFCF4DE956E140
:1045600067EB76E10E9419094DE459E06BE579E0CB
:10457000A4CF47EB56E16DE976E10E9419094BE5BE
:1045800059E06DE479E099CF61E081E00E94D21FAB
:1045900081E00E943D06DCCD65E082E00E94332090
:1045A000D7CD68E086E0FACF6EE089E0F7CF64E12E
:1045B0008FE0F4CF67E185E1F1CF61E088E10E940F
:1045C000D21FC6CD62E289E1E9CF61E083E2F7CF95
:1045D0006AE285E2E3CFCB35FCE7DF0749F1CC3572
:1045E0002CE7D207D9F0CA35DC4709F0D2CE81E0FA
:1045F0001CC00E94881A8FEF94E3ECE08150904039
:10460000E040E1F700C000000E94F2076FEF7FEF8B
:1046100090E080E00E940E340E94AE1D809146061C
:1046200082FB882780F991E089270E945E17B1CE2E
:1046300080E0FBCFCE010E94890DF82EB9CE3C2F31
:104640003F70F32EC07F19F0F29490EFF922CC2046
:10465000B9F0FF2069F080E28D0F883010F0A110D2
:1046600009C080912403F82AF09224030E94700F5D
:104670008D2F43C08091FB02F82AF092FB02F6CF07
:104680008D2F0E94A81EFF20D1F1D05ED83010F0EF
:10469000A11004C08F2D0E94100D06C0F0948091CF
:1046A000FB02F822F092FB020E94700F28C08C2FB0
:1046B0008F70F82EC07FC03219F0F29480EFF8228C
:1046C000AA2059F091E0A91609F479C0CC2009F488
:1046D00085C0BB2009F447C0CBCF8091460682FD40
:1046E0003EC0CC20B1F1FF2039F080912403F82A9C
:1046F000F09224030E94700F80E00E94DB1E2D2D9B
:104700002850330B2430310510F40E94B808EE20F5
:10471000A9F08091F90280FD11C0F80115828695FB
:10472000869586950E94290EC8010E94442080919A
:10473000F9028695869586950E94000E20E0F80184
:104740004081518162817381848195810E94850EAF
:104750000ECD80E00E94A81EFF2089F29BCFCC20C6
:10476000A1F0B11004C08F2D0E94C90FC8CFE1E0A5
:10477000BE12C5CF8091FA029F2D9823F91609F435
:10478000BECFF82AF092FA02BACFB110B8CF8F2D6F
:104790000E94C20F9091FA028F2D892329F08F2D4C
:1047A000809589238093FA028091D9029F2D9823C6
:1047B00009F4A5CFF094F822F092D902A0CFCC2032
:1047C00029F0F5E0FB1508F49ACFCDCF24E02B15A6
:1047D00008F495CF8F2D0E94C20F91CFBB20D1F34B
:1047E00039E3A31209C08FEF97EEE3E081509040C8
:1047F000E040E1F700C000008D2F0E94A81E7FCF8F
:104800008C2F86958695837069F0813009F077CF7B
:104810008D2F9C2F9370C11002C080E090E00E9409
:104820006E086DCF8D2F9C2F9370C11002C080E059
:1048300090E00E94930863CF6C2D8D2F0E94C41DC1
:104840005ECF8C2F837009F03FC0C11058CF4D2F21
:10485000429546954770440F440F2D2F2F7030E03E
:10486000042E02C0220F331F0A94E2F790E080E08A
:10487000D4FF09C08FE090E002C0880F991F4A95CD
:10488000E2F780959095C695C695C370C23099F0B1
:1048900078F44091250350912603C13039F0822BE2
:1048A000932B842395230E94390E29CF242B352B5B
:1048B000822B932BF8CF822B932B209125033091C1
:1048C000260382279327EFCF8695CC2011F08C2FDB
:1048D0008170882309F413CF4D2F42954695477078
:1048E000440F440F2D2F2F7030E0042E02C0220FF2
:1048F000331F0A94E2F790E080E0D4FF09C08FE014
:1049000090E002C0880F991F4A95E2F78095909534
:10491000C695C695C370C23099F078F44091900363
:1049200050919103C13039F0822B932B842395232E
:104930000E94F20DE4CE242B352B822B932BF8CF43
:10494000822B932B20919003309191038227932700
:10495000EFCFCF70CC2029F08C2F0E94290E8D2F05
:1049600003CF8D2F0E94C20F8C2F0E94000EC7CE46
:104970008D2FF2EFAF1699F1FA1570F020EFA21615
:10498000D1F031EFA31691F0CC2009F45BC0B11047
:104990006FCE8C2F8F7127C093EFA91639F1E4EFFA
:1049A000AE12F2CF8091460682FD2EC08C2F8F7101
:1049B000CC20D9F218C0CC2069F0F4E0FB1508F443
:1049C0009ECECF7181E090E002C0880F991FCA95FA
:1049D000E2F7B8CF25E02B1508F491CEF2CF8C2F5B
:1049E0008F71C110C2CF0E94290E89CE90E080E065
:1049F000CC2009F49DCFCF7181E090E002C0880FF8
:104A0000991FCA95E2F794CFCC2089F0CF718C2FF3
:104A10000E94290E8091460682FF07C038E0C39F9E
:104A2000C001112483608093F9028C2FDCCF81E0D8
:104A30000E94120E81E08B1508F061CE82E00E9488
:104A4000120E5DCEBB2059F0893309F0D5CE9FEF11
:104A5000E7EEF3E09150E040F040E1F7CBCE8C2F51
:104A60008F7183CFFE01E851FC47E730F10508F470
:104A700058CBC6312CE7D20709F46ECC80912403C1
:104A80008272F82EFE01E052F847E531F10508F098
:104A900080CCE854FB4C0C94E932C631FCE7DF07CC
:104AA00009F064CC809124038A7A91E009F490E0C3
:104AB0009093D80281114ECC89E20E943A080E945C
:104AC000700F46CBCF93DF938091F802807F09F07F
:104AD0004DC08091F702882309F448C0E0919C06FC
:104AE00050916306C091F302D091F2026091F402FA
:104AF0007091F50247E05E17C9F18E2F90E0E49FB8
:104B0000F0011124EC59F94F2481222391F1489F9F
:104B1000F001499FF00D1124DF01AC59B94F1196F6
:104B20002C9111972C1325C02C912D1322C0159672
:104B30002C91159721111DC012962D913C91261B89
:104B4000370B283C3105A8F48091F8028F70806102
:104B50008093F802E659F94F80818F7080618083DD
:104B600082EF92E00E9444200E943E0DDF91CF919F
:104B70000895FC013196E770BECFA4E1B0E0E3EC0C
:104B8000F5E20C948A328C0186E0F801DE011F9672
:104B900001900D928A95E1F7F8018481E58092EF0A
:104BA000A92E92E0B92E9091F602911128C0882387
:104BB00019F1EE20F1F0C8010E943E0EF82E882374
:104BC000C1F087E0F801D50101900D928A95E1F7D7
:104BD0008091F602813031F48091F2029091F302DB
:104BE0000E947C0D0E9462258F2D6496ECE00C944F
:104BF000A632C8010E944420FF24F394F5CFD08050
:104C0000C18082809380F090F7022091F40230916D
:104C1000F502A401421B530BFF2009F4D9C0483C04
:104C2000510508F092C08823F9F29091F302809127
:104C3000F802282F207F09F056C0C91214C09091A5
:104C4000F202D91210C0E11048C08F7080618093C9
:104C5000F80282EF92E00E9444208091F802F8016D
:104C60008683F12CC1CFE11038C06C2D8D2D0E94B0
:104C70004C066C2D8D2D0E944C06E82E8111F1CF33
:104C8000DF86C88A8F8598890E947C0D292F2295FE
:104C90002F70243058F49F70223088F0992399F0B7
:104CA000F8019681907F79F4FE2C9ECF2A5F2F70B9
:104CB000223068F0C8010E944420EF2CF5CF9923E0
:104CC00011F0882389F3805E883070F3F3CF803F42
:104CD00058F3815F833070F7E7CF8091F8028160ED
:104CE0008093F802BECFC91207C09091F202D91288
:104CF00003C0EE2009F48DC0C8010E943E0E882337
:104D000009F477CFEE2009F474CF8091F802803255
:104D100088F02091F2023091F302398728879B8630
:104D20008A869091F6029C871D868E87CE01089612
:104D30000E94442087E0F801A2EFB2E001900D92BA
:104D40008A95E1F70E94622557CF9091F802292FAA
:104D5000207F51F482EF92E00E94442087E0F50129
:104D600011928A95E9F77DCF882309F43DCF809190
:104D7000F3028C1110C08091F202D8120CC0E11025
:104D80000AC09683C8010E94442087E0F501119271
:104D90008A95E9F729CFC8010E943E0E882309F4BD
:104DA00028CFEE2009F425CF8091F802803210F24E
:104DB0002091F2023091F3023A8329839C828B8204
:104DC0009091F6029D831E828F83CE010196B0CF13
:104DD000483C5105D0F6882309F40ECFFE2CEE2076
:104DE00009F407CF8091F3028C1120C08091F20268
:104DF000D8121CC08091F80280FD0FC0982F907FC0
:104E000061F08683903F31F0982F907F905F8F7094
:104E1000892B8683C8010E94442087E0F801A2EF15
:104E2000B2E001900D928A95E1F7DECEC8010E94B2
:104E30003E0E81117FCF8091F80281608093F8024D
:104E4000C8010E944420D0CEABE1B0E0EAE2F7E234
:104E50000C9492324E8B5F8B688F798F8A8F9B8FE9
:104E6000192F91111092FB021D8A86E0FE017696A1
:104E7000DE011F9601900D928A95E1F70A8D0023BD
:104E800041F021E04F85588969897A89C8010E94DB
:104E9000850E0B8B1C8B87E0FE013F96DE0118967A
:104EA00001900D928A95E1F7CE0108960E94BD25EA
:104EB00081110CC087E0FE013896DE011196019049
:104EC0000D928A95E1F78C8581110BC017E08091D6
:104ED0009C0690916306891331C06B96E4E00C94B4
:104EE000AE322091630630E0C901019687709927A0
:104EF00040919C064817190699F097E0929FD001BF
:104F0000939FB00D1124AC59B94FFE013196019019
:104F10000D929A95E1F7809363060E943E0DD6CFDD
:104F20000E94881A1092630610929C0687E0E2EFB6
:104F3000F2E0DF011D928A95E9F7C8CF819FC00199
:104F400011248C59994F0E94BD25882331F28091FC
:104F50009C0690E001968770992780939C06B7CFB6
:104F6000A3E1B0E0E6EBF7E20C9489328E01045F36
:104F70001F4F88E0D8011D928A95E9F78FE9C82E66
:104F800081E0D82EF12CE12CAA24A394B12C29EA9B
:104F9000822E21E0922EF60181916F018F3F09F45C
:104FA00042C0F894E82FE295EF70F0E021A18F70F5
:104FB000A50102C0440F551F8A95E2F7CA01922F3E
:104FC000982B91A392A18095892382A3789400C005
:104FD000E3EAF1E0712C31E021912F3F09F4AEC0FA
:104FE000A22FA295AF70B0E090968C9190E02F70B8
:104FF00002C0959587952A95E2F780FD9FC0832F83
:10500000782A330F8E169F0639F7F6013197808183
:105010008F3F11F00E94B10A50EA5A95F1F7F8015A
:10502000EE0DFF1D70828FEFE81AF80A94E0E91682
:10503000F10409F0B0CF48E050E0B80181E793E017
:105040000E94A633009741F028E0F801A1E7B3E001
:1050500001900D922A95E1F700917A0310E004582F
:105060001C4F892B09F46CC081E080932B030E94B4
:10507000551A90932A0380932903F12CE0903D0662
:10508000EE2009F4B7C019821A821B821C8280911B
:105090006C038A3008F078C040EA58E1BE016F5FC7
:1050A0007F4FC8010E942E13882309F492C04EE25C
:1050B00058E1BE016F5F7F4FC8010E942E13882305
:1050C00009F487C04AE458E1BE016F5F7F4FC80111
:1050D0000E942E13882309F47CC040E058E1BE01F1
:1050E0006F5F7F4FC8010E942E13882309F471C09F
:1050F00046ED57E1BE016F5F7F4FC8010E942E133E
:10510000882309F466C010926C038091790390E0C3
:1051100044E050E0BE016F5F7F4F84589C4F0E9477
:10512000A63321E020933203892B09F044C0E12CFF
:105130008E2D8F296396EDE00C94A53280E060CF30
:10514000F0902B03FF2009F498CF809129039091D0
:105150002A030E94461A059708F48FCF44E050E0D6
:1051600061E773E0C8010E94A633892B59F084E0FF
:10517000E1E7F3E0D80101900D928A95E1F71092F2
:105180002B037CCFF12CFBCF80912C0390912D032E
:105190000E94461A843F914008F07ECF80913203EE
:1051A000882329F284E0FE013196DF011D928A9561
:1051B000E9F710923203E0917903F0E0E458FC4FF4
:1051C00089819A81AB81BC8180839183A283B383DF
:1051D000AFCF80916C038F3F31F08F5F80936C0372
:1051E0008A3008F492CF0E94551A90932D03809331
:1051F0002C03D4CFC0907903D12CF601E458FC4F96
:105200006F0184E0F801A0E4B3E001900D928A956B
:10521000E1F780E493E00E946B0680933F0384E013
:10522000E4E4F3E0D60101900D928A95E1F78090D5
:10523000480390904903A0904A03B0904B0380919B
:105240002E0390912F03A0913003B0913103881663
:105250009906AA06BB06B1F080922E0390922F0306
:10526000A0923003B09231030E940308861A970A75
:10527000A80AB90A80926D0390926E03A0926F0300
:10528000B09270038BE0ECE4F3E0DE011196019044
:105290000D928A95E1F780914C0386958695D09082
:1052A0004D03C0904E03B0904F03009155031091F1
:1052B000560310925603112301F110FF0BC02981F0
:1052C0009091220620FF23C091609093220660E017
:1052D0000E94D21F11FF06C020E04B2D6C2D8D2D9A
:1052E0000E94C51512FF04C00023F1F00E94B61FF2
:1052F00013FF03C081E08093BE0388E0E7E5F3E09D
:10530000A1EAB6E001900D928A95E1F711CF9E7F58
:10531000909322060E94ED098091C30381608093DF
:10532000C3030E947010D6CF0E94ED09E1CFA6E022
:10533000B0E0EDE9F9E20C9492320E94551A8C012A
:1053400080912703909128038017910781F019829B
:105350001A820E94551A682F49815A81792F80E05C
:1053600090E00E9424271093280300932703269699
:10537000E4E00C94AE321F921FB61F9211248F935B
:105380009F93AF93BF9380914706811113C0809183
:10539000480690914906A0914A06B0914B06419665
:1053A000A11DB11D8093480690934906A0934A061B
:1053B000B0934B06BF91AF919F918F911F901FBEED
:1053C0001F901895CDB7DEB72E970FB6F894DEBFB5
:1053D0000FBECDBF85B7806885BF85B7806885BFA4
:1053E00084B7877F84BF0FB6F894A895809160003A
:1053F000886180936000109260000FBE80E890E0AA
:105400000FB6F89480936100909361000FBE8FEA0D
:105410009AE09093AF028093AE020E9495060E949C
:1054200036078091E20084608093E2007894809156
:1054300059068823A1F01091E9001F709091EC00AB
:10544000892F817090FD80E8182B1092E9008091DF
:10545000E80083FD0E94B91A1F701093E90082E0F2
:1054600084BD93E095BD9AEF97BD80936E00109236
:105470006D0310926E0310926F031092700380916F
:10548000D80080618093D8002AE12A95F1F700C006
:105490008091D900182F117080FD04C00E949506DC
:1054A0001092590610933D0610933E061093340156
:1054B000112309F475C0109255018BE180935601B8
:1054C0000E940E31809134018091340194E0811169
:1054D00090E090937A0384E0891B8093790384E9B8
:1054E0000E94B10A86E60E94B10A87E90E94B10AC9
:1054F00086EC0E94B10A03EA11E069EAE62E61E057
:10550000F62ED8018D918D018F3F11F00E94B10AC6
:10551000E016F106B1F788E0ECE7F3E0DF01282FB1
:105520001D922A95E9F7E1E7F3E0DF011D928A95E4
:10553000E9F790E080E00E94DA33863E9E4F11F05A
:105540000E94EE1682E090E00E94CC3380938403A8
:1055500084E090E00E94DA339093460680934506FB
:105560000E94B027EFEFF6E721E0E150F040204045
:10557000E1F700C000000E94B02780913E06E4E001
:105580008111E0E0F0E0E458FC4F808181FF0EC023
:105590006FEF7FEF90E080E00E940E340E94F207F0
:1055A0008BE180935501809356018CCF83E090E08E
:1055B0000E94CC3390E00E94390E0E944A0990E08C
:1055C00080E00E94DA33863E9E4F21F00E94EE1664
:1055D0000E94BA1481E08093A00648E050E068E1A0
:1055E00070E081EA96E00E94BC331092A0068091A0
:1055F000A1068C7F11F40E94BA1480913D06882385
:1056000009F433C180E08093B60380E88093A90653
:105610000E94C82F6BE070E08FED92E00E94611352
:105620008823E9F18091B60365E070E081FD1FC138
:105630008AED92E00E946113882389F16DE070E0A9
:1056400088EC92E00E946113882349F10E940308CC
:10565000605A75418F4F9F4F60932A0670932B06B7
:1056600080932C0690932D06ECEAF6E080E092E021
:10567000DF019C011D9221503040E1F7F093B30807
:10568000E093B2088FEF9FEF9093AB068093AA064A
:1056900081E080932F0680932E061092B7038091AD
:1056A0007B0381117CC090E080E00E94DA33863E6B
:1056B0009E4F21F00E94EE160E94D11688E090E0E5
:1056C0000E94D4334B015C0184E290E00E94CC3311
:1056D000282F30E040E050E060E070E080E090E0B3
:1056E00000E20E94FE32282939294A295B292093A9
:1056F0002206309323064093240650932506609398
:105700002606709327068093280690932906809199
:10571000C30383608093C3032C7F89F50E94D11655
:1057200088E090E00E94D4336B017C0184E290E039
:105730000E94CC33282F30E040E050E060E070E081
:1057400080E090E00E94FE32B22FA32FF42FE52FCD
:105750005B0197018601BC29A12BFE29E32BB093A5
:105760002206A0932306F0932406E0932506609377
:105770002606B092270680932806909329060E9459
:10578000F4090E94ED098091220680FF05C060E0C7
:10579000869586950E94D21F81E080937B0380913D
:1057A0003D06811102C00E94113185E391E0909382
:1057B00042068093410658E1252E312C80915906EE
:1057C00000E112E1853009F48FC00E94B02735E86E
:1057D000E32E33E0F32E4CE7C42E43E0D42ED60163
:1057E000F70191918D912DE833E02E173F0709F4D1
:1057F00085C09817B1F380903D0610E0772473942C
:10580000D6010D916D01F70191907F01901629F15C
:105810009026B12CAA24A394892D8A21B1F0882046
:10582000A1F0BF8218870E94551A9A8789877B86C4
:1058300091E0802F8A2109F490E09C874F81588560
:1058400069857A858B850E942427B394AA0CF6E09B
:10585000BF12E2CFF701319700831F5F183081F646
:105860000E94C80ADD24D3944EC082E0CCCE85EDE0
:1058700092E0E0CE80915906843031F10E94CE133F
:105880000E948B131092470640E40FB6F894A89537
:10589000209260000FBE4093600083B7817F8460D8
:1058A00083BF83B7816083BF7894889583B78E7FE9
:1058B00083BF0FB6F894A8958091600088618093AB
:1058C0006000109260000FBE80915806882361F03E
:1058D0000E94B027ECE7F3E08191811134C384E8A2
:1058E00093E08E179F07C1F780915906853009F420
:1058F000C1CF0E94881A0E94B80867CF98137BCF47
:105900000E949729D12C8091C203882309F465C095
:105910008091C103E0912206E695E695E81BE093AD
:10592000BD03823009F092C0F0E0E550FD4FE491F4
:105930000E2F10E02AE1E22E23E1F22E8091BE0329
:10594000882361F01092BE030E94AB1F9093BC03AA
:105950008093BB031092C0031092BF030E94AB1F41
:10596000E091BB03F091BC039C012E1B3F0B2F3F2A
:105970003F4798F520918F032223B1F010928F03B7
:1059800020918D0330918E03821B930B8F3F9F4795
:1059900058F4205D3A4830938E0320938D03809114
:1059A000C30388608093C303A090BF03B090C0037B
:1059B000E00FF11FF093BC03E093BB038BEB93E08C
:1059C000F70109958091BF039091C003892B29F4B9
:1059D000AB2819F081E080938F030E94CE13809151
:1059E0002F06882309F4DAC08091B8039091B90397
:1059F0000E94461AC29708F4B1C00E94551A9093AB
:105A0000B9038093B8038CEA96E09093B30880932F
:105A1000B20880913D06882309F4ABC18FE393E07F
:105A20000E942A0F80919003909191030E94610E31
:105A3000823009F498C108F075C0882309F47BC04E
:105A4000813009F48DC184E193E077C0863059F448
:105A5000F0E0E850FD4FE4910E2F10E09AE0E92EBF
:105A600093E1F92E6BCF893061F4E695F0E0EB50CD
:105A7000FD4FE4910E2F10E083E6E82E82E1F82E30
:105A80005DCF8F3061F4E695F0E0EE50FD4FE4918C
:105A90000E2F10E0B8EDEB2EB1E1FB2E4FCF85318C
:105AA00059F4F0E0E151FD4FE4910E2F10E0A3E531
:105AB000EA2EA1E1FA2E42CF08E210E071EDE72EC6
:105AC00070E1F72E883109F439CF833249F4EDEED5
:105AD000F2E005911491F9EBEF2EF2E1FF2E2ECFBB
