:100000000C9472060C948F060C948F060C943C3062
:100010000C948F060C948F060C948F060C948F060C
:100020000C948F060C948F060C946B1D0C94AD1CD5
:100030000C94F5280C948F060C948F060C948F0664
:100040000C948F060C948F060C948F060C948F06DC
:100050000C948F060C948C280C948F060C948F06AD
:100060000C948F060C948F060C948F060C948F06BC
:100070000C948F060C948F060C948F060C948F06AC
:100080000C948F060C948F060C948F060C948F069C
:100090000C948F060C948F060C948F060C948F068C
:1000A0000C948F060C948F060C948F06930E070FFA
:1000B0009B0E650E690E9F0E6C0EA20EAD0E770E96
:1000C000FD0E7B0EB10E7F0EB50EDF0E830EB90E48
:1000D000E90E890EBF0EC90E700EA60E730EA90E84
:1000E0008E0EC40ED50EF50EF70E610E970E100F84
:1000F0004B0F510F260F450F570F5D0F630F251044
:10010000251057105710D310F11015121512F610B4
:100110008411951195115B12841289128E1293121B
:1001200098129D12A212A712AC12B112B812BB12F1
:10013000BE12C112C412C712CA12CD12D012D512E9
:10014000CC1AF31A8B1CF31A8B1C3B1B5E1B8B1CEB
:100150004D1C601C00DA0281FFD9F1DB20A4A62E21
:10016000AF00A0C0D30000A1C8D30000AED580A8C6
:100170001F408D1420001E0F0500047F3F1F6432B6
:1001800014643214783C1E1E140A052020202020FE
:10019000202020200043415053204C4F434B00006F
:1001A000556E646566696E6564004D6F75736500B4
:1001B000457874656E64005261697365004C6F77B1
:1001C00065720044656661756C74004C6179657296
:1001D0003A2000808182838485868788898A8B8CF7
:1001E0008D8E8F9091929394A0A1A2A3A4A5A6A76F
:1001F000A8A9AAABACADAEAFB0B1B2B3B4C0C1C2E6
:10020000C3C4C5C6C7C8C9CACBCCCDCECFD0D1D246
:10021000D3D400202020206162636465666768692A
:100220006A6B6C6D6E6F70717273747576777879B6
:100230007A31323334353637383930524542545FAB
:100240002D3D5B5D5C233B27602C2E2F202020055D
:10025000010902A10185020901A10005091901296D
:10026000081500250195087501810205010930096D
:10027000311581257F95027508810609381581257C
:100280007F950175088106050C0A38021581257FC6
:10029000950175088106C0C005010980A10185038B
:1002A00019012AB700150126B700950175108100C4
:1002B000C0050C0901A101850419012AA00215013C
:1002C00026A002950175108100C005010906A10153
:1002D0008506050719E029E7150025019508750130
:1002E00081020507190029EF1500250195F0750118
:1002F00081020508190129059505750191029501ED
:1003000075039101C005010906A101050719E0293E
:10031000E715002501950875018102950175088191
:10032000010507190029FF150026FF00950675082D
:10033000810005081901290515002501950575019C
:100340009102950175039101C009023B0002010071
:10035000A0FA0904000001030101000921110100B4
:10036000012244000705810308000109040100017E
:100370000300000009211101000122B600070582D7
:100380000320000112010002000000085346010092
:100390000100010200010C0343006F0072006E00B7
:1003A00065000000100366006F006F0073007400AA
:1003B00061006E000000040309040000000000005A
:1003C0003E5B4F5B3E003E6B4F6B3E001C3E7C3EF7
:1003D0001C00183C7E3C18001C577D571C001C5EFE
:1003E0007F5E1C0000183C180000FFE7C3E7FF0019
:1003F000001824180000FFE7DBE7FF0030483A064A
:100400000E00262979292600407F05050700407F38
:1004100005253F005A3CE73C5A007F3E1C1C080063
:10042000081C1C3E7F0014227F2214005F5F005FC7
:100430005F0006097F017F00006689956A006060A1
:100440006060600094A2FFA2940008047E0408008B
:1004500010207E20100008082A1C0800081C2A080A
:1004600008001E10101010000C1E0C1E0C0030385E
:100470003E383000060E3E0E060000000000000070
:1004800000005F000000000700070000147F147FD9
:100490001400242A7F2A12002313086462003649BC
:1004A00056205000000807030000001C22410000F5
:1004B0000041221C00002A1C7F1C2A0008083E085C
:1004C00008000080703000000808080808000000DC
:1004D000606000002010080402003E5149453E00C3
:1004E00000427F4000007249494946002141494D80
:1004F00033001814127F10002745454539003C4A47
:10050000494931004121110907003649494936005E
:10051000464949291E000000140000000040340034
:1005200000000008142241001414141414000041A7
:10053000221408000201590906003E415D594E008F
:100540007C1211127C007F49494936003E414141ED
:1005500022007F4141413E007F49494941007F09D6
:10056000090901003E41415173007F0808087F00DE
:1005700000417F4100002040413F01007F081422DC
:1005800041007F40404040007F021C027F007F040A
:1005900008107F003E4141413E007F0909090600E5
:1005A0003E4151215E007F091929460026494949EB
:1005B000320003017F0103003F4040403F001F2005
:1005C00040201F003F4038403F0063140814630080
:1005D0000304780403006159494D4300007F414101
:1005E0004100020408102000004141417F00040244
:1005F00001020400404040404000000307080000A2
:100600002054547840007F284444380038444444FF
:100610002800384444287F003854545418000008F7
:100620007E0902001824241C78007F080404780046
:1006300000447D4000002040403D00007F102844E1
:10064000000000417F4000007C04780478007C08B2
:10065000040478003844444438007C1824241800EA
:10066000182424187C007C080404080048545454BE
:10067000240004043F4424003C4040207C001C2013
:1006800040201C003C4030403C00442810284400DE
:100690004C9090907C004464544C440000083641D7
:1006A0000000000077000000004136080000020151
:1006B000020402003C2623263C000000000000004B
:1006C00000000000000000000000C0E0F0F8F81892
:1006D00000C0F0FCFEFFFFFFFFFFFFFF7E000000F9
:1006E00000000000000080C0E0E0E0E0E0E0E0E0CA
:1006F000C0800000000080C0E0E0E0E0E0E0E0E07A
:10070000C080000000E0E0C0C0E0E0E0E00000E009
:10071000E0C0C0E0E0E0E0E0C0800000000080C099
:10072000E0E0E0E0E0E0E0E0C08000000000000089
:100730000000000000000000E0F0F0F0E0ECEEF758
:10074000F37020007C7C7C7E007E7E7E7F7F7F003D
:100750000080C0E07E5B4F5BFEC00000C000DCD7C5
:10076000DEDEDED7DC00C00000000000000000007C
:100770000000000000000000000000000000000079
:10078000000000F8FCFEFFE000FFFFFFFFFFFF801E
:10079000FFFFFFFFFFFFFFFFFF1F0701000000003B
:1007A0000000000000FFFFFF81000000000000814A
:1007B000C3C3C30000FFFFFF8100000000000081F1
:1007C000FFFFFF0000FFFFFF01000000000000FF2F
:1007D000FFFF010000000001FFFFFF0000FFFFFF1F
:1007E0009D1C1C1C1C1C1C9DDFDFDF00000000008A
:1007F00000000000000000000F1F3F7F7F7F7F7F11
:100800003F1E0C001F1F1F3F003F3F3F7F7F7F00A9
:10081000307B7F7830202030787F3B0003000F7FD3
:100820000F0F0F7F0F00030000000000000000000A
:1008300000000000000000000000000000000000B8
:10084000000000030F1F3F3F3F3F1F1F3F3F7F7FC1
:100850007F3F3F1F3F7F7F7F7F7C7878381C0F0072
:10086000000000000000010307070707070707074C
:100870000301000000000103070707070707070738
:100880000301000000070707000000000000000748
:100890000707000000000000070707000000010331
:1008A000070707070707070703010000000000000C
:1008B0000000000000000000000000000000000038
:1008C0000000000000000000000000000000000028
:1008D0000000000000000000000000000000000018
:1008E0000000000000000000000000000000000008
:1008F000000000000000000000002B0014001A009F
:10090000080015001700E1000400160007000900A8
:100910000A00E0001D001B00060019000500000091
:1009200000000000E30021522C002A0013001200F6
:100930000C0018001C00340033000F000E000D00E6
:100940000B00645238003700360010001100000020
:1009500000000000E2002252280029003A003B007B
:100960003C003D004800E1003E003F0040004100E7
:100970004600E000420043004400450065000000DE
:1009800000000000E30001002C002A004B004D0095
:1009900052004A00490034024E004F0051005000FE
:1009A0004C0001003802370236021901060100002E
:1009B00000000000E2000100280039001E021F02B2
:1009C00020142F020000E100341432142502260204
:1009D0002D02E0002F14301464006402270200008E
:1009E00000000000E30001002C002A00380026006F
:1009F0002500240030022D003000230022002100B9
:100A000024020100370020001F001E002700000004
:100A100000000000E2000100280035002E001F1435
:100A2000081421022F00E100350223021E143514A0
:100A30002E02E000000023143200220221140000E4
:100A400000000000E30001002C00A800A900AA009B
:100A5000AB00AE00AC000000297827782578237819
:100A60002078017C2A78287826782478217800005C
:100A700000000000E200010028002900D60000006C
:100A8000000000000000E100D500D200D300D1003A
:100A90000000E000D400DF00DE00DD000000000008
:100AA00000000000E30001002C000000D600DC0084
:100AB000CD00DB00D9000000D500D000CE00CF0073
:100AC000DA000100D400D200D300D100D70000002A
:100AD00000000000E200010028002223252628292A
:100AE0002A2C2D2F3032333536383A3B3D3E4042AA
:100AF000434547494A4C4E5051535557595A5C5EED
:100B00006062646668696B6D6F71737577797B7D00
:100B10007F81838587898A8C8E90929496989A9CFF
:100B20009E9FA1A3A5A7A8AAACAEAFB1B3B4B6B817
:100B3000B9BBBCBEBFC1C2C3C5C6C7C9CACBCCCD79
:100B4000CED0D1D2D2D3D4D5D6D7D7D8D9D9DADA54
:100B5000DBDBDBDCDCDCDCDCDDDDDDDDDCDCDCDCD4
:100B6000DCDBDBDBDADAD9D9D8D7D7D6D5D4D3D208
:100B7000D2D1D0CECDCCCBCAC9C7C6C5C3C2C1BFE6
:100B8000BEBCBBB9B8B6B4B3B1AFAEACAAA8A7A54A
:100B9000A3A19F9E9C9A98969492908E8C8A898706
:100BA0008583817F7D7B79777573716F6D6B6968E4
:100BB000666462605E5C5A5957555351504E4C4AB8
:100BC0004947454342403E3D3B3A38363533323063
:100BD0002F2D2C2A29282625232200AF00AE000124
:100BE00001010101010101010202020202020202ED
:100BF00002030303030303030304040404040404BF
:100C00000505050505060606060607070707070882
:100C1000080808090909090A0A0A0B0B0B0C0C0C35
:100C20000D0D0D0E0E0E0F0F0F10101111111212CF
:100C300013131414151516161717181819191A1A4C
:100C40001B1B1C1D1D1E1E1F2020212222232424AD
:100C5000252626272829292A2B2C2D2D2E2F3031E9
:100C60003232333435363738393A3B3C3D3E3F40FB
:100C70004142434445464748494A4C4D4E4F5051E6
:100C80005354555658595A5B5D5E5F6162646566A0
:100C900068696B6C6D6F7072737577787A7B7D7E27
:100CA0008082838587888A8C8E8F91939596989A77
:100CB0009C9EA0A2A3A5A7A9ABADAFB1B3B5B7BA8F
:100CC000BCBEC0C2C4C6C9CBCDCFD1D4D6D8DBDD63
:100CD000DFE2E4E7E9EBEEF0F3F5F8FAFDFFFFAA57
:100CE0007F55400011241FBECFEFDAE0DEBFCDBF3D
:100CF00011E0A0E0B1E0EEECF6E602C005900D9246
:100D0000A43DB107D9F727E0A4EDB1E001C01D92E1
:100D1000AF31B207E1F70E9491060C9465330C9451
:100D20000000A0E1B0E0E7E9F6E00C94713185B78E
:100D3000806885BF85B7806885BF84B7877F84BF9B
:100D40000FB6F894A8958091600088618093600048
:100D5000109260000FBE90E080E80FB6F894809388
:100D60006100909361000FBE85E79EE19093D501ED
:100D70008093D4010E94F11C0E94101D8091E2001A
:100D800084608093E20078948091BE028823A1F071
:100D90001091E9001F709091EC00892F817090FDF7
:100DA00080E8182B1092E9008091E80083FD0E94F2
:100DB000EB191F701093E90082E084BD93E095BDAC
:100DC0009AEF97BD80936E001092D6011092D701D2
:100DD0001092D8011092D90188EC90E02091E300A4
:100DE00027FD0EC0AFE3BCE91197F1F700C000008A
:100DF0000197A1F70E94F11C1092BE0280E001C091
:100E000081E0809310078093110780930401882369
:100E100041F0109256018BE1809357010E94F72F09
:100E200005C08BE1809356018093570180910401A6
:100E300080910401882311F090E001C094E0909328
:100E4000E30184E0891B8093E2010BE511E0FFE5FB
:100E5000EF2EF1E0FF2EF80181918F018F3F11F00D
:100E60000E94FD20E016F106B1F70FE511E0D80170
:100E70008D918D018F3F11F00E94FD20B1E005366C
:100E80001B07A9F788E0E7EEF1E0DF01282F1D92AC
:100E90002A95E9F7EAEDF1E0DF011D928A95E9F77D
:100EA00080E090E00E941B32863E9E4F09F466C0AF
:100EB00066EE7EEF80E090E00E944F3260E082E0DC
:100EC00090E00E94313281E090E09093E5018093C0
:100ED000E40161E083E090E00E94313260E074E17F
:100EE00084E090E00E944F3260E086E090E00E9453
:100EF000313260E087E090E00E94313240E050E023
:100F0000BA0188E090E00E94433260E084E290E021
:100F10000E94313260E087E190E00E94313260E06F
:100F20008CE090E00E94313260E08DE090E00E9421
:100F3000313219821A821B821C821D821E821F82FC
:100F4000188648E050E068E170E0CE0101960E940A
:100F5000213240E050E0BA0180E290E00E9443324A
:100F600040E050E0BA018FE090E00E94433240E060
:100F700050E0BA0183E190E00E94433282E090E0C9
:100F80000E940D328093EF0184E090E00E941B32BA
:100F900090931907809318070E94DE22EFEFF6E77F
:100FA00021E0E150F0402040E1F700C000000E9445
:100FB000DE2280911107882311F0E0E001C0E4E017
:100FC000F0E0E951FE4F808181FF08C06FEF7FEFB5
:100FD00080E090E00E944F320E947B2883E090E006
:100FE0000E940D3290E00E948C1680911007882399
:100FF00011F080E001C082E08093260280E88093B7
:10100000C8020E94872E6BE070E08BE691E00E94A0
:10101000122B882309F443C08091260265E070E01A
:1010200081FD3AC086E691E00E94122B8823B9F137
:101030006DE070E084E591E00E94122B882379F145
:101040000E94DD28DC01CB01805A9541AF4FBF4F94
:101050008093FA069093FB06A093FC06B093FD06DE
:10106000EBECF2E080E092E0DF019C011D92215068
:101070003040E1F7F093D204E093D1048FEF9FEF7B
:101080009093CA028093C90281E08093FF06809307
:10109000FE061092270203C081E691E0C5CF809141
:1010A000E601811183C088E090E00E9415324B0177
:1010B0005C0184E290E00E940D32282F30E040E095
:1010C00050E060E070E080E090E000E20E940B33CE
:1010D000282939294A295B292093F2063093F306FF
:1010E0004093F4065093F5066093F6067093F70666
:1010F0008093F8069093F90630913E053360309363
:101100003E052C7F09F042C025E02093F2061092A4
:10111000F3063FEF3093F40638E73093F50610926C
:10112000F60630E04FEF58E760E00E94FA2B88E0C7
:1011300090E00E9415326B017C0184E290E00E94F5
:101140000D32282F30E040E050E060E070E080E0B9
:1011500090E00E940B33B22FA32FF42FE52F5B01F9
:1011600097018601BC29A12BF22BE32BB093F20649
:10117000A093F306F093F406E093F5066093F60669
:10118000B092F7068093F8069093F9060E94DF2B41
:101190000E947B2B8091F20680FF05C060E086955F
:1011A00086950E94D32D81E08093E60180911007FF
:1011B00081110CC00E94FA2F0E94DD286093F80173
:1011C0007093F9018093FA019093FB0185E091E01F
:1011D000909315078093140744244394512C78EF7F
:1011E000272E71E0372E8091BE02853009F046C06F
:1011F00000E112E18091BE02853009F03BC0809190
:10120000BE02843031F10E941F2B10921A0788E130
:1012100090E0A0E40FB6F894A895809360000FBE0C
:10122000A093600083B7817F846083BF83B78160B0
:1012300083BF7894889583B78E7F83BF0FB6F89469
:10124000A895809160008861809360001092600092
:101250000FBE8091BD02882309F4CCCF0E94DE220C
:10126000E7EEF1E081918111B8C3B1E0EF3EFB07F9
:10127000C9F7C0CF0E9491160E94CD290E94DE229C
:1012800050EFE52E51E0F52E67EEC62E61E0D62E2A
:10129000D601F70191918D9189272E163F0619F0FD
:1012A0008823C1F306C0811104C00E94BA22D12C48
:1012B00038C08090100710E077247394F601919065
:1012C0006F01D701AC90A92411F100E0BB24B394C5
:1012D0008B2D8A21B1F08820A1F009871A870E94FE
:1012E000E9289C878B877D8691E08B2D892109F4E5
:1012F00090E09E8749855A856B857C858D850E9407
:10130000320D0F5FBB0C063019F7F70190821F5F9B
:10131000FFEFEF1AFF0A183089F60E941421DD242E
:10132000D3948091FC01811115C080911007811127
:1013300011C06091F8017091F9018091FA019091CA
:10134000FB010E94B228653378408105910510F0B9
:101350000E94702880913D05882309F4D0C08091B7
:101360003C05E091F206E695E695E81BE09338052A
:10137000823059F4F0E0E957FE4FE4910E2F10E06F
:101380004EE1E42E48E2F42E6BC0863059F4F0E0D2
:10139000EC57FE4FE4910E2F10E03EE0E32E38E2D2
:1013A000F32E5EC0893061F4E695F0E0EF57FE4F12
:1013B000E4910E2F10E02BEBE22E26E2F22E50C02D
:1013C0008F3061F4E695F0E0E258FE4FE4910E2F85
:1013D00010E09FE2E92E96E2F92E42C0853159F4E1
:1013E000F0E0E558FE4FE4910E2F10E089EAE82E78
:1013F00085E2F82E35C08831F9F0833249F4E9E707
:10140000F1E005911491B4EDEB2EB7E2FB2E28C06C
:101410008432C9F08532F1F48E2F63E00E94C83225
:10142000E92FF0E0EA58FE4FE4910E2F10E0A5EF0F
:10143000EA2EA6E2FA2E14C008E210E0F4E2EF2E43
:10144000F5E2FF2E0DC004EF11E0E5EEEE2EE4E232
:10145000FE2E06C000ED17E079EBE72E74E2F72EC2
:1014600080913905882361F0109239050E94AF22DE
:10147000909337058093360510923B0510923A05FC
:101480000E94AF22E0913605F09137059C012E1B9A
:101490003F0B2F3F3F4798F52091FF012223B1F0EA
:1014A0001092FF012091FD013091FE01821B930BF0
:1014B0008F3F9F4758F4205D3A483093FE012093B8
:1014C000FD0180913E05886080933E05A0903A051D
:1014D000B0903B050E0F1F1F109337050093360584
:1014E00086E395E0F701099580913A0590913B05D7
:1014F000892B29F4AB2819F081E08093FF018091BA
:10150000FF06882309F45FC1809128029091290287
:101510000E94CE28C29708F44FC00E94E9289093F9
:101520002902809328028BEC92E09093D20480935E
:10153000D104809110078823D9F18BEC91E00E94AF
:10154000C01980910002909101020E94C20D823068
:1015500091F038F4882361F0813099F48DEB91E0BB
:1015600012C0833059F0843061F48AEA91E00BC0F4
:1015700083EC91E008C087EB91E005C080EB91E03F
:1015800002C080EA91E00E94CE190E94CD2981FB21
:10159000112710F98FE991E00E94CE19112319F05B
:1015A00085E991E002C08BE891E00E94CE1904C069
:1015B00083ED91E00E94C0198091C9029091CA0206
:1015C000892B31F48091FE06882309F4FCC0E4C025
:1015D0008091FF068823B1F3809127028111F2CF19
:1015E0000E94392B2091C9023091CA022115310580
:1015F00049F380E0082F10E07201082E02C0EE0CC3
:10160000FF1C0A94E2F7A70142235323452B11F450
:101610008F5FF0CF90912602980165E0220F331F73
:101620006A95E1F790FF13C055E0369527955A95D6
:10163000E1F7220F220F220F2093120110921501C1
:10164000295F2093130183E08093160111C0220FBC
:10165000232F221F330B31958295880F807680933C
:10166000120120931501815E8093130120931601CE
:1016700024E630E047E050E060E171E088E70E9456
:10168000BC2E892B09F09ECF8091260280FF64C07A
:1016900080E2E6E0F2E0DF011D928A95E9F7A80119
:1016A00035E0440F551F3A95E1F7E9E6F1E0F88B94
:1016B000EF8705E611E0AF85B8898D91B88BAF87CC
:1016C000F80191918F01BA01690F711D65537D4F2A
:1016D00090E08A5F9D4FFC0127E0922E9F01281B1E
:1016E000390B742C01C0770C2A95EAF75B01812C29
:1016F000D501CD905D01C720292D28192770622EB4
:10170000022E000C330BBC2D01C0BB0F6A94EAF70C
:101710006B2E3195219531092770332701C0C6946E
:101720002A95EAF76C28C0806C286082839428E0B0
:101730008212DECF9A9431963FEF9312CFCF8F85EE
:1017400098898D56914009F0B6CF04E610E020E26A
:1017500030E046E052E00CC0A80185E0440F551F80
:101760008A95E1F745535D4F04E610E020E230E052
:1017700060E488E70E94532F892B09F023CFE0947F
:10178000F0948091C9029091CA02E822F922F09265
:10179000CA02E092C90216CF0E94DD280091FA0623
:1017A0001091FB062091FC063091FD06DC01CB0177
:1017B000801B910BA20BB30B8F3F9F4FAF4FBF47C7
:1017C00010F40E941F2BD1100E94392B86E0E7E015
:1017D000F7E0DE01119601900D928A95E1F7D09025
:1017E00008070091090710910A07F0900B07E09095
:1017F0000C071092090710920A0710920B0710921B
:101800000C07011103C0112309F447C0809105079B
:10181000909106070E94CE289C0190910007992381
:1018200009F4F1C025313105C0F19F3F19F09F5FE8
:1018300090930007002361F00E94B42A101614F45C
:1018400091E001C09FEF899F802D112480930907AB
:10185000112361F00E94B42A111614F09FEF01C009
:1018600091E0899F802D112480930A0780910907B8
:10187000882399F0C0900A07CC2079F00E94D42ADE
:10188000811101C081E0809309078C2D0E94D42A28
:10189000811101C081E080930A07F11003C0EE209E
:1018A00009F447C080910307909104070E94CE2855
:1018B0009C0190910107992309F4AAC021353105B3
:1018C000C0F19F3F19F09F5F90930107FF2061F0E7
:1018D0000E94922A1F1414F491E001C09FEF899F87
:1018E000802D112480930B07EE2061F00E94922A34
:1018F0001E1414F09FEF01C091E0899F802D1124E8
:1019000080930C0780910B07882399F0C0900C07F7
:10191000CC2079F00E94D42A811101C081E080930B
:101920000B078C2D0E94D42A811101C081E0809385
:101930000C0780910807D8121AC0809109078823E4
:1019400011F0081314C080910A07882311F01813AE
:101950000EC080910C07882311F08E1108C0909161
:101960000B07992331F081E0F91204C002C081E035
:1019700001C080E080FD15C08091090781110FC072
:1019800080910A0781110BC080910B07811107C05C
:1019900081E090910C07911103C080E001C081E0CB
:1019A00080FD0E94682ADA820B831C83FD82EE820E
:1019B00086E0FE013196A7E0B7E001900D928A958E
:1019C000E1F70E94CD2990912A02891709F40BCCE6
:1019D00080932A020E94DD2802CC09BD19BD09B4FA
:1019E00000FEFDCF8091D8008F7D8093D80080913C
:1019F000E00082608093E0008091E00081FDFCCFF8
:101A00000E949116F7CB2333310508F010CF45CF54
:101A10002B30310508F057CF8CCFA6E0B0E0E3E1E2
:101A2000FDE00C94803149835A8349815A8199237E
:101A300061F0222351F0CA010E94DC13182F682F95
:101A400089819A810E94FA1504C0CA010E94C715B3
:101A5000182F69817A81812F0E946E212696E3E0FA
:101A60000C949C31ABE1B0E0E8E3FDE00C947F31F5
:101A70004E8B5F8B688F798F8A8F9B8F192F911177
:101A800010928802DE011F9687E0FD0111928A956F
:101A9000E9F786E0FE01769601900D928A95E1F7CE
:101AA0000A8D002341F021E04F85588969897A89A0
:101AB000C8010E940D0D0B8B1C8B87E0FE013F9629
:101AC000DE01189601900D928A95E1F7CE010896F5
:101AD0000E94401481112CC087E0FE013896DE017F
:101AE000119601900D928A95E1F76C85662301F1BC
:101AF00020914C0230E0C9010196877099274091EE
:101B0000850250E08417950761F16D8397E0929FFD
:101B1000D001939FB00D1124A35BBD4FFE01319600
:101B200001900D929A95E1F780934C020E947913EF
:101B300017E08091850290914C028917F9F0189F67
:101B4000C0011124835B9D4F0E9440148823B1F093
:101B50008091850290E00196877099278093850295
:101B6000E8CF0E94911610924C0210928502E5E493
:101B7000F2E087E0DF011D928A95E9F76B96E4E0D9
:101B80000C949B31292F33272115310519F0C901F8
:101B900048E001C040E09C0164E0369527956A95D5
:101BA000E1F72115310511F04C5FC9019C01369513
:101BB0002795369527952115310511F04E5FC901FE
:101BC0009C0136952795232B09F04F5F842F0895AC
:101BD000A0E0B0E0EEEEFDE00C947A31FC018481EF
:101BE000882309F4E9C47F0121E0408151816281A9
:101BF000738195810E940D0DEC01F70125818851BB
:101C00009C472223C1F1218120930502208120934A
:101C1000040220E220930F01D0930302C09302023A
:101C20009E0130522115304228F4F7012681207F91
:101C300079F426C09E0130542115304120F4F7017B
:101C40002681207F29F49E013A9521153F4118F401
:101C5000FE01FF2707C09E01205A32452032310580
:101C600078F0FE01ED33F10558F4ED5EFD4FE4919F
:101C7000E0930F0105C08730910508F082C100C1D3
:101C80008730910508F4FCC010920F07CE019057E1
:101C9000839708F01EC184E090E00E941B3290936D
:101CA000190780931807FE01E150F047E232F10571
:101CB00020F4EA5AFF4F0C94F632809118078160A5
:101CC000ACC0809119078860B4C080911807826009
:101CD000A4C08091180720C08091180788609DC01B
:101CE000809119071EC0809119078260A2C080915F
:101CF0001807806192C08091180780628EC0809121
:101D0000180780648AC00E94911680911807806825
:101D100084C080911807886084607FC08091190713
:101D20008260816086C0809118078E7F76C0809126
:101D30001907877F7EC0809118078D7F6EC08091C4
:101D4000180720C080911807877F67C08091190706
:101D50001EC0809119078D7F6CC0809118078F7EFF
:101D60005CC0809118078F7D58C0809118078F7BC9
:101D700054C00E949116809118078F774EC08091B1
:101D80001807877F8B7F49C0809119078D7F8E7FD1
:101D900050C08091180782FB222720F991E09227FA
:101DA00090FB82F990FB83F938C080911907982F36
:101DB000909591708E7F892B90FB81F93AC080912C
:101DC000180786FB222720F991E0922790FB86F9DD
:101DD00024C00E9491168091180787FB222720F9C2
:101DE00091E0922790FB87F918C061E001C060E0A4
:101DF0008EE090E00E9431321EC08091180784FB73
:101E0000222720F991E0922790FB84F906C0809167
:101E10001807982F909590FB80F9809318070BC0B6
:101E20008091190783FB222720F991E0922790FBEC
:101E300083F980931907609118077091190784E05E
:101E400090E00E944F320E94911608C006E221EEF7
:101E500041EE6AE17CE7C7010E94DE29809186029B
:101E6000877009F4A9C3F7018581882309F4A4C305
:101E70008091190782FFA0C382E00E944E169CC386
:101E8000FC01E858FF4F0C94F63207E225EE45EED0
:101E90006BE17CE7E0CF06E221EE40EE68E17CE713
:101EA000DACF07E225EE44EE69E17CE7D4CF06E223
:101EB00021EE42EE6CE17CE7CECF07E225EE46EE66
:101EC0006DE17CE7C8CF08E221E045EE6EE17CE7FA
:101ED000C2CFC631FCE7DF0709F4CFC2C3302CE71D
:101EE000D20779F190F4C1158CE7D807E1F0C13041
:101EF000DC4709F055C00E949116EFEFF4E32CE0A7
:101F0000E150F0402040E1F72BC0CB35ECE7DE0795
:101F1000A1F1CC35FCE7DF0741F1CA35DC4709F018
:101F20003FC081E02BC00E9491164FEF84E39CE0FC
:101F3000415080409040E1F700C000000E947B28A3
:101F40008DCF6FEF7FEF80E090E00E944F320E94D4
:101F500091164FEF84E39CE0415080409040E1F7C0
:101F600000C000000E94702879CF8091190782FB81
:101F7000882780F991E0892701C080E00E946516DA
:101F80000FC0C6312CE7D20709F485C28091D30473
:101F90008272FE01E052F847E531F10508F487C28C
:101FA000F7018581C081D181882349F0CE010E944B
:101FB000DC13182F682FCE010E94FA1504C0CE0141
:101FC0000E94C715182FBE01812F0E946E210E940A
:101FD0008B21D82FC92FC82EF701158106810295B4
:101FE0000F7080918602877001F11123F1F0892F23
:101FF000807F803469F080E28D0F8830B0F0892FC7
:10200000807E803229F4F1E0FD1778F4002369F036
:102010008091190782FF09C082E00E944E168091CC
:1020200086028770DD24D3948111D12CBC2EB2940A
:102030008FE0B8228B2D90E08C30910508F0F5C12F
:10204000FC01E158FF4F0C94F6328C2F807FCF704B
:10205000882311F0C295C07F1123B9F0CC2309F475
:10206000D2C180E28D0F883010F0C11006C090916F
:10207000D304C92BC093D30405C090918802C92B07
:10208000C09388020E942713BEC18D2F0E94BF17E4
:10209000CC2309F4CAC1D05ED83080F1CC2071F1D4
:1020A000C09590918802C923C09388022AC08C2FC2
:1020B000807FCF70803211F0C295C07FCC2029F094
:1020C00021E0C21609F44CC055C08091190782FD69
:1020D0001BC0112369F0CC2339F09091D304C92B94
:1020E000C093D3040E94271380E00E94F2179DC181
:1020F00080E00E94BF17CC2309F497C18C2F0E9467
:10210000A8220E94271391C1112381F00023B1F16D
:10211000013009F08AC1909187028C2F8923C8175A
:1021200009F483C1C92BC09387027FC101117DC10E
:102130008C2F0E94C216809187029C2F982329F031
:102140009C2F909589238093870280912C029C2F4D
:10215000982309F46AC1C0958C2380932C0265C131
:10216000112321F0063008F060C108C0053008F0E6
:102170005CC115C0112331F0011145C18C2F0E94A3
:10218000C91653C1002359F0D93309F04BC14FEFA1
:1021900087EE93E0415080409040E1F741C18C2FA1
:1021A0000E94C21642C18C2F86958695837019F0C5
:1021B000813061F03AC1112321F08D2F9C2F937053
:1021C00002C080E090E00E94A82935C1112321F0CF
:1021D0008D2F9C2F937002C080E090E00E94832995
:1021E0002AC1612F8D2F0E94D31625C18C2F837099
:1021F00009F041C011111DC12D2F22952695277080
:10220000220F220F8D2F8F7090E0022E02C0880FB8
:10221000991F0A94E2F7D4FF0BC04FE050E002C0D0
:10222000440F551F2A95E2F79A012095309502C078
:1022300020E030E0C695C695C370C23099F068F4CE
:102240004091E4015091E501C13029F0822B932B9C
:102250008423952304C0842B952B822B932B0E94DF
:102260008C16E7C0822B932B2091E4013091E5017D
:1022700082279327F4CF112319F08C2F817001C08E
:102280008695882309F4D5C02D2F22952695277091
:10229000220F220F8D2F8F7090E0022E02C0880F28
:1022A000991F0A94E2F7D4FF0BC04FE050E002C040
:1022B000440F551F2A95E2F79A012095309502C0E8
:1022C00020E030E0C695C695C370C23079F0B8F40E
:1022D0004091000250910102C13029F0822B932BD2
:1022E000842395230EC0842B952B09C0822B932B1E
:1022F00020910002309101028227932702C0822B95
:10230000932B0E942E1695C0CF70112339F08C2F7D
:102310000E947C168D2F0E94C9168BC08D2F0E94A3
:10232000C2168C2F0E943C1684C08D2FE2EFCE1671
:1023300089F1EC1538F0F0EFCF1659F021EFC21605
:1023400021F15DC043EFC41661F194EFC916C9F0E5
:1023500056C0112391F0053008F067C0CF7181E0BD
:1023600090E002C0880F991FCA95E2F72091000201
:10237000309101028227932721C0063008F055C012
:10238000EDCF8091190782FD1CC0112329F08C2FFD
:102390008F7129C01123D9F38C2F8F710E943C16A5
:1023A00044C0112349F0CF7181E090E002C0880F52
:1023B000991FCA95E2F702C080E090E00E942E16B5
:1023C00034C0112399F0CF718C2F0E947C1680911C
:1023D000190782FF07C0E8E0CE9FC0011124836087
:1023E000809386028C2F0E947C161FC081E00E9481
:1023F0004E160230D0F082E00E944E1616C0112315
:1024000021F0002321F28D2F70CE002329F2893391
:1024100049F4FFEF27EE43E0F15020404040E1F760
:1024200000C000008D2F0E94BF1788EF8B0D8430F5
:1024300010F40E94CD29DD20A9F08091860280FD54
:1024400011C0F70115828695869586950E947C16A7
:10245000C7010E94E80D8091860286958695869533
:102460000E943C1620E0F701408151816281738116
:10247000848195810E940D0D9FC08091D3048A7A3A
:1024800091E009F490E090932B0281110EC089E253
:102490000E944C2907C080912B0281118BC089E2D8
:1024A0000E941E290E942713D9CC85E3F1CFE5575E
:1024B000FF4F0C94F6328091F20680FF1EC0282F49
:1024C0002E7F2093F2063091F3064091F40650914E
:1024D000F5066091F6067091F7068091F8069091E6
:1024E000F9060E94FA2B0E947B2B80913E058160A9
:1024F00080933E050E949E2BB1CC81608093F206B2
:1025000061E0869586954EC04DE15EE268E27EE22E
:102510002CC048E25EE26DE17EE227C047EA5DE260
:1025200061EB7DE222C041EB5DE267EA7DE21DC026
:102530004DE85DE26AE97DE218C04AE95DE26DE8D6
:102540007DE213C043E75DE260E87DE20EC040E853
:102550005DE263E77DE209C040E25CE26AE37CE2BF
:1025600004C04AE35CE260E27CE20E94742B76CC19
:1025700061E081E017C065E082E019C068E086E0B4
:1025800016C06EE089E013C064E18FE010C067E11F
:1025900085E10DC061E088E105C062E289E107C024
:1025A00061E083E20E94D32D59CC6AE285E20E9469
:1025B0005F2B54CC85E374CFCDB7DEB7E9E00C9444
:1025C00096319091D30480918802892B9091870253
:1025D0009923E1F0892B90911701992341F0909173
:1025E000180797FF04C09EE128E135E003C096E09C
:1025F00020E135E0F90120E0915028F031913323BA
:10260000D9F32F5FF9CF21111092870208952091FD
:10261000850290914C0257E02917A9F030E0529FB3
:10262000F001539FF00D1124E35BFD4F7181761390
:1026300006C07081781303C07581741306C02F5FC4
:102640003F4F2770E9CF80E0089581E008958091A1
:102650001701882351F18091180787FF26C00E9437
:10266000E1128093170540E250E069E872E086E1EC
:1026700095E00E944F33892BD9F180E2E6E1F5E045
:10268000A9E8B2E001900D928A95E1F7E091140774
:10269000F0911507309761F186E08093160504806C
:1026A000F581E02D86E195E022C00E94E112809341
:1026B0000E0548E050E069EA72E08EE095E00E9485
:1026C0004F33892BA9F088E0EEE0F5E0A9EAB2E00B
:1026D00001900D928A95E1F7E0911407F0911507AA
:1026E000309731F00280F381E02D8EE095E009957E
:1026F00008958091850290914C02891719F08F5F9F
:102700008770FBCF0895CF93DF9380914B02829522
:102710008F7009F04EC080914A02882309F449C0A5
:102720008091850240914C02509146026091450291
:10273000C0914702D091480277E08417D1F190E030
:10274000789FF001799FF00D1124DF01A35BBD4F4D
:1027500014962C911497222349F111962C911197DC
:10276000251324C02C91261321C015962C91159762
:1027700021111CC012962D913C9113972C1B3D0BDF
:10278000283C310598F480914B028F7080618093D2
:102790004B02ED5AFD4F80818F708061808385E40C
:1027A00092E00E94E80D0E94791303C001968770A1
:1027B000C4CFDF91CF910895A0E0B0E0E2EEF3E165
:1027C0000C947A317C0100910002109101028091F9
:1027D000E4019091E501082B192BCFE0D0E0CC2447
:1027E000C394D12CC6010C2E02C0880F991F0A94E5
:1027F000E2F780239123892B21F4219798F7B12CBC
:1028000009C0BC2EB7018C2F0E946E210E948B2123
:10281000019799F38B2DCDB7DEB7E9E00C94963193
:10282000CF93DF93EC010E94DC13BE010E946E2166
:102830000E948B21DF91CF910895FC0124812223F6
:10284000D9F0808191810E94101492959F709630EA
:1028500079F010F4925001C09A50923068F4803FA1
:1028600069F018F4883E40F409C0843F29F406C09A
:10287000883E20F0813F11F080E0089581E00895C6
:10288000A4E1B0E0E6E4F4E10C9477318C0186E059
:10289000F801DE011F9601900D928A95E1F7F8018B
:1028A0008481E58095E4892E92E0992E90914902E9
:1028B000911120C0882309F463C1EE2009F442C0BD
:1028C000C8010E941D14F82E8823E1F187E0F80169
:1028D000D40101900D928A95E1F7809149028130EF
:1028E00031F480914502909146020E9410140E949A
:1028F000831348C1F801D080C180A280B380F090DA
:102900004A022091470230914802FF2009F4E7C0B3
:10291000A501421B530B483C510508F09DC088237C
:1029200009F430C180914B02282F207F90914602FC
:10293000222361F09C1509F460C0C8010E941D1497
:10294000811163C0C8010E94E80D1AC19C1113C017
:10295000909145029D110FC0E1100DC08F708061F4
:1029600080934B0285E492E00E94E80D80914B0237
:10297000F801868303C1E1103AC040E06C2D8D2D33
:102980000E94071340E06C2D8D2D0E940713E82E46
:102990008111F4C0DF86C88A8F8598890E9410143F
:1029A000292F22952F70243020F49F70223028F098
:1029B00009C02A50223080F014C0992349F08111B7
:1029C00007C013C0992321F0F8019681907F69F028
:1029D000805E883030F409C0803F38F0815F8330FA
:1029E00020F0C8010E94E80DEF2CFE2CCBC0809196
:1029F0004B02816080934B02C1C0909145029D11B2
:102A00009CCFE1109ACFF80198C0EE2009F49ACF3C
:102A100020914B02822F82958F7090E002978CF06C
:102A2000809145029091460299878887BB86AA8645
:102A3000809149028C871D862E87CE0108960E94C0
:102A4000E80D87E0F801A5E4B2E001900D928A95C7
:102A5000E1F70E94831394C090914B02292F207FAD
:102A600051F485E492E00E94E80D87E0F4011192B0
:102A70008A95E9F783C0882309F484C080914602CF
:102A80008C110CC0809145028D1108C0E11006C068
:102A9000F8019683C8010E94E80D6AC0C8010E942F
:102AA0001D14882309F44ECFEE2009F44BCF20915A
:102AB0004B02822F82958F7090E0029714F28091E2
:102AC0004502909146029A838983BC82AB828091B1
:102AD00049028D831E822F83CE010196B0CFA21AA8
:102AE000B30AF8ECAF16B10408F042C0882309F429
:102AF00047C0FE2CEE2009F425CF809146028C11B0
:102B000029C0809145028D1125C090914B0290FD06
:102B100018C0892F82958F70282F30E0211531053C
:102B200081F0F80196832F30310541F08F5F982FA7
:102B30009295907F86818F70892B8683C8010E9431
:102B4000E80D87E0F801A5E4B2E001900D928A95C6
:102B5000E1F718C0C8010E941D14811172CF809145
:102B60004B02816080934B02C8010E94E80D0AC0AD
:102B700087E0F40111928A95E9F704C0F12C02C0B4
:102B8000FF24F3948F2D6496ECE00C9493319830ED
:102B900078F5863068F5E82FF0E086E0989FE00D44
:102BA000F11D11249E2F977083E0F695E7958A9585
:102BB000E1F7EE0FFF1FEE0FFF1FE35DFD4F40E05B
:102BC00050E080E0219130E0092E02C03695279533
:102BD0000A94E2F721703327042E01C0220F0A94D1
:102BE000EAF7822B4F5F5F4F4430510559F7089544
:102BF00080E00895983088F5863078F5E82FF0E089
:102C000086E0989FE00DF11D11248E2F877051E012
:102C100001C0550F8A95EAF783E0F695E7958A9506
:102C2000E1F7EE0FFF1FEE0FFF1FE35DFD4F20E00A
:102C300030E070E04081CB01022E02C0969587956E
:102C40000A94E2F7817081958427852384278193F4
:102C50002F5F3F4F2430310569F708959C0126709E
:102C600033272630310511F4886001C0877F9093A7
:102C7000010280930002089521E030E002C0220F9B
:102C8000331F8A95E2F7209530958091000290914C
:102C90000102822393230E942E16089590918602AA
:102CA0008095892380938602282F277069F49817CE
:102CB00059F09091190792FF07C0869586958695E1
:102CC0000E943C161092860208959091190792FB7B
:102CD000222720F9281779F080FB92F990931907A1
:102CE000609118077091190784E090E00E944F32BC
:102CF00082E00E944E16089521E030E002C0220FCB
:102D0000331F8A95E2F78091000290910102822B95
:102D1000932B0E942E1608959093E5018093E40171
:102D200008951092D30480911701882341F0809177
:102D3000180787FF04C08EE1E8E1F5E003C086E0F4
:102D4000E0E1F5E0DF011D928A95E9F780E090E08F
:102D50000E94A82980E090E00E94832910928802B6
:102D60000E942713E7E0F7E086E0DF011D928A95D5
:102D7000E9F71092000710920107109202070E94D3
:102D8000682A0895882321F00E94A8220E94271310
:102D90000895882339F09091D304892B8093D3042C
:102DA0000E942713089590910907662309F470C0C3
:102DB00091110CC090910A07911108C090910C07D5
:102DC000911104C090910B07992331F098E09093F2
:102DD000000791E0909301078D3C21F40E94B42AF2
:102DE000819504C08E3C29F40E94B42A80930A077E
:102DF000C3C08F3C21F40E94B42A819504C0803D59
:102E000029F40E94B42A80930907B6C0893D19F4B9
:102E10000E94922A05C08A3D31F40E94922A81952F
:102E200080930B07A9C08B3D21F40E94922A8195C3
:102E300004C08C3D29F40E94922A80930C079CC008
:102E40009FE2980F983078F421E030E0A90102C0A9
:102E5000440F551F9A95E2F7CA0190910807892BF4
:102E60008093080789C08D3D21F48091020781601D
:102E70000CC08E3D21F480910207826006C08F3D18
:102E800009F07AC08091020784608093020774C0C1
:102E90008D3C39F490910A0797FF33C010920A07CE
:102EA00057C08E3C29F490910A071916BCF329C02B
:102EB0008F3C29F497FF25C01092090749C0803D37
:102EC00019F41916CCF31DC090910B07893D29F414
:102ED0001916BCF410920B073BC08A3D19F497FFFA
:102EE00010C0F8CF8B3D39F490910C0797FF09C0C3
:102EF00010920C072DC08C3D21F490910C071916EF
:102F0000BCF39FE2980F983080F421E030E0A901F3
:102F100002C0440F551F9A95E2F7CA01809590911F
:102F2000080789238093080713C08D3D21F4809101
:102F300002078E7F0BC08E3D21F4809102078D7FAA
:102F400005C08F3D29F4809102078B7F8093020793
:102F500080910907811106C080910A07811102C082
:102F60001092000780910B07811106C080910C0719
:102F7000811102C0109201070E94682A08958823D7
:102F800081F19CEF980F913A18F40E941E290DC010
:102F900090E2980F983060F4877091E001C0990F2B
:102FA0008A95EAF7892F0E94A8220E942713089584
:102FB0009BE5980F933028F480E090E00E94A829C8
:102FC000089598E5980F9B3128F480E090E00E94E6
:102FD0008329089593E3980F933118F460E00E94D9
:102FE000D3160895CF93882309F46EC0C82F8CEFB1
:102FF0008C0F813AA0F5809117018823E1F0809130
:10300000180787FF18C0EC2FE695E695E695F0E0E7
:10301000EA5EFA4F8281282F30E04C2F477081E022
:1030200090E002C0880F991F4A95E2F7822393230C
:10303000892B61F410C0E0E1F5E086E195E0219193
:10304000C21721F08E179F07D1F705C08C2F0E9461
:103050001E290E9427138C2F0E944C2910C080E249
:103060008C0F883078F4C77081E090E001C0880F41
:10307000CA95EAF79091D304892B8093D3040E94D8
:10308000271322C0EBE5EC0FE33040F4F0E0E35906
:10309000FE4F808190E00E94A82916C0E8E5EC0F61
:1030A000EB3150F4F0E0EE0FFF1FE059FE4F80814E
:1030B00091810E94832908C083E38C0F833120F41F
:1030C00061E08C2F0E94D316CF9108958091C002A9
:1030D00087FF11C08091E80082FD05C08091BE028B
:1030E0008111F8CF11C08091E8008B770BC08091DF
:1030F000BE02882349F08091E80080FFF8CF8091DC
:10310000E8008E778093E8000895982F973068F54F
:103110009093E900981739F07091EC002091ED0040
:103120005091F00003C0242F762F50E021FD02C003
:103130009F5FECCF3091EB003E7F3093EB003091FE
:10314000ED003D7F3093ED003091EB003160309326
:10315000EB007093EC002093ED005093F000209171
:10316000EE0027FDE5CF80E008958F708093E900A1
:1031700081E008952091C6023091C70226173707D3
:1031800048F06115710539F42091E8002E772093FD
:10319000E80001C0B901FC0120E06115710579F179
:1031A0008091BE028823F1F18530F1F18091E80031
:1031B00083FD3CC08091E80082FD2EC08091E80034
:1031C00080FFEBCF2091F3008091F20090E0922BF2
:1031D0006115710551F08830910538F421912093E3
:1031E000F100615071090196F3CF21E0089709F0D1
:1031F00020E08091E8008E778093E800CECF211107
:10320000CFCF0AC08091BE02882361F0853061F083
:103210008091E80083FD0AC08091E80082FFF2CF30
:1032200080E0089582E0089583E0089581E00895A4
:1032300043E050E0BC0182E00E943228089546E05D
:1032400050E0BC0182E00E943228089540E250E044
:10325000BC0182E00E9432280895CF93DF93EC01F5
:1032600048E050E0BC0181E00E94322888E0FE0185
:10327000A4EBB2E001900D928A95E1F7DF91CF9136
:103280000895CF93DF93682F8A3011F481E003C053
:103290008D3021F480E00E94E22A6FC08091D10439
:1032A0009091D20426E0FC01ABECB4E001900D92C9
:1032B0002A95E1F7603E30F026E0FC0111922A9554
:1032C000E9F70AC0F6E06F9FB001112466547C4F05
:1032D00046E050E00E940432C091D104D091D20463
:1032E00046E050E0BE018BEC94E00E944F33892B06
:1032F00049F19E012B5C3240A90185E05695479526
:103300008A95E1F781E090E0BC0102C0660F771F6B
:103310004A95E2F74091C9025091CA02462B572BB9
:103320002B5F3F4F65E0369527956A95E1F702C020
:10333000880F991F2A95E2F7842B952B9093CA0248
:103340008093C9029E01255C32404091C802642FDF
:1033500070E0C9010E945D31481B463010F4240F13
:10336000311D211582E0380710F020E030E02553B0
:103370003D4F3093D2042093D104DF91CF91089533
:10338000CF93DF93EC01FE018491882321F00E940A
:1033900041192196F8CFDF91CF9108950E94C0196D
:1033A00081E00E94E22A0895FC01AC014C5F5F4F6E
:1033B0008FEF91E32191822728E030E087FF03C05F
:1033C000880F892701C0880F21503109B9F7E41708
:1033D000F50781F70895AAE2B0E0E1EFF9E10C9476
:1033E0008031E0ECF2E088EC92E02091F100219352
:1033F0008E179F07D1F78091C102833009F461C015
:1034000030F4813071F0823009F49BC0B2C08A3050
:1034100009F487C08B3009F46CC0893009F0A9C069
:1034200020C08091C002813A09F0A3C08091E800D9
:10343000877F8093E8008091C4029091C502892B18
:1034400021F468E084EB92E003C060E080E090E06B
:1034500070E00E94BA188091E8008B778093E800B2
:1034600088C08091C002813209F083C08091C4027B
:103470009091C502029708F07CC08091E800877F98
:103480008093E8008091E80082FD05C08091BE0233
:103490008111F8CF6EC02091F3008091F20090E08E
:1034A000922B029731F48091F100813011F0863037
:1034B00021F48091F1008093B3028091E8008B7732
:1034C00054C08091C002813A09F053C08091C40277
:1034D0009091C502892B09F04CC08091E800877F4C
:1034E0008093E8008091E80080FFFCCF8091170175
:1034F00037C08091C0028132E1F58091C402909181
:10350000C502892BB1F58091E800877F8093E800A0
:103510000E9466188091C202809317010E94911642
:1035200028C08091C002813221F58091E800877F18
:103530008093E8000E9466188091C3028093B202D3
:1035400018C08091C002813AA1F48091E800877F81
:103550008093E8008091E80080FFFCCF8091B20268
:103560008093F1008091E8008E778093E8000E94BC
:1035700066188091E80083FFCEC18091C0029091CF
:10358000C102492F50E04A30510508F0C4C1FA0188
:10359000E056FF4F0C94F632803821F0823809F063
:1035A000BAC108C08091BC029091BD02992389F0F4
:1035B00082600FC08091C4028F70873008F0ABC169
:1035C0008093E9008091EB0085FB882780F91092B9
:1035D000E9009091E800977F9093E8008093F100D4
:1035E0001092F10065C1282F2D7F09F094C1882326
:1035F00019F0823061F08FC18091C202813009F0F0
:103600008AC1933009F080E08093BD022EC0809182
:10361000C20281112AC08091C4028F702FEF280F3F
:10362000263008F078C18093E9002091EB0020FF5C
:103630001CC0933021F48091EB00806214C0909103
:10364000EB0090619093EB0021E030E0A90102C013
:10365000440F551F8A95E2F74093EA001092EA0062
:103660008091EB0088608093EB001092E9008091DC
:10367000E800877F20C181114EC11091C2021F77DF
:103680008091E3008078812B8093E3008091E800B3
:10369000877F8093E8000E9466188091E80080FF91
:1036A000FCCF8091E30080688093E300111102C099
:1036B00082E001C083E08093BE022DC18058823039
:1036C00008F029C18091C2029091C3028C3D53E061
:1036D000950779F583E08A838AE289834FB7F89466
:1036E000DE01139620E03EE051E2E32FF0E050933C
:1036F0005700E49120FF03C0E295EF703F5FEF7049
:103700008E2F90E0EA3010F0C79601C0C0968D93DE
:103710009D932F5F243149F74FBF8091E800877F49
:103720008093E8006AE270E0CE0101960E94BA1828
:10373000AEC04091C4025091C502292F33272330D7
:103740003105A9F068F42130310509F4F3C02230C5
:10375000310509F0E0C08BE390E0E9E4F3E044C018
:103760002132310521F12232310571F1D4C099277E
:1037700081309105A1F058F0029709F0CCC0E6E93C
:10378000F3E0E4918E2F90E0E6E9F3E02AC0E6EB67
:10379000F3E0E4918E2F90E0E6EBF3E022C0E4EA60
:1037A000F3E0E4918E2F90E0E4EAF3E01AC04115D3
:1037B000510509F4C4C04130510509F0ACC089E09D
:1037C00090E0E4E7F3E010C04115510509F4BCC0F6
:1037D0004130510509F09FC086EB90E0EFE4F2E044
:1037E00003C0009709F497C02091E800277F209339
:1037F000E8002091C6023091C7028217930708F4AF
:103800009C0140E02115310589F18091BE02882399
:1038100009F43DC08530D9F18091E80083FD37C0BF
:103820008091E80082FD2FC08091E80080FFEACF00
:103830004091F3008091F20090E0942B2115310526
:1038400059F08830910540F444914093F10031964D
:10385000215031090196F2CF41E0089709F040E08C
:103860008091E8008E778093E800CCCF4111CDCFD6
:103870000AC08091BE02882351F0853041F08091CA
:10388000E80083FD04C08091E80082FFF2CF8091C0
:10389000E8008B778093E8003EC08038E1F58091A6
:1038A000E800877F8093E8008091BF028093F10059
:1038B0008091E8008E778093E8000E9466182BC004
:1038C000811129C08091C2029091C3029927029769
:1038D00014F58091E800877F8093E8001091C20280
:1038E0001093BF020E946618111106C08091E30078
:1038F00087FD02C081E001C084E08093BE0242E007
:1039000061EC81E00E94851842E261EC82E00E9455
:1039100085188091BE028091E80083FF1AC08091D3
:10392000E800877F8093E8008091EB0080628093BD
:10393000EB000FC082E190E0E4E8F3E055CF89E0CE
:1039400090E0EBE5F3E050CF84E490E0E5E0F3E0D5
:103950004BCFAA96E3E00C949C311F920F920FB6C6
:103960000F9211242F933F934F935F936F937F9305
:103970008F939F93AF93BF93CF93DF93EF93FF9377
:10398000C091E900CF708091EC00D82FD17080FDFC
:10399000D0E81092E9008091F000877F8093F000DA
:1039A00078940E94EB191092E9008091F0008860F1
:1039B0008093F000CD2BCF70C093E900FF91EF9181
:1039C000DF91CF91BF91AF919F918F917F916F9137
:1039D0005F914F913F912F910F900FBE0F901F90CD
:1039E0001895E8EDF0E080818E7F80831092E200F0
:1039F0001092DA001092E100A0EEB0E08C918160AC
:103A00008C9380818F77808319BCA7EDB0E08C9177
:103A10008E7F8C9380818F7E80831092B102089577
:103A2000A0E0B0E0E6E1FDE10C947B31C8EDD0E030
:103A300088818F7E8883E7EDF0E0808181608083DC
:103A400084E082BF81E08093B10288818E7F888389
:103A500002EE10E0F80110821092DA0081EEC82E1A
:103A6000D12CF601108288818F77888388818068C5
:103A7000888388818F7D888319BC1092BE02109242
:103A8000BF021092BD021092BC0290EEE92EF12C02
:103A9000F70180818B7F808388818160888342E009
:103AA00060E080E00E948518F60180818E7F80832F
:103AB000F801808181608083808188608083F70144
:103AC00080818E7F8083888180618883CDB7DEB7D7
:103AD000E8E00C9497311F920F920FB60F921124C9
:103AE0002F933F934F935F936F937F938F939F9306
:103AF000AF93BF93EF93FF938091E10082FF09C0E2
:103B00008091E20082FF05C08091E1008B7F80936D
:103B1000E1008091DA0080FF2AC08091D80080FF08
:103B200026C08091DA008E7F8093DA008091D900E0
:103B300080FF18C080E189BD82E189BD09B400FE23
:103B4000FDCF81E08093BE028091B10281110FC050
:103B50000E94F11C0E94101D8091E20084608093FD
:103B6000E20005C019BC1092BE021092B102809111
:103B7000E10080FF17C08091E20080FF13C08091B8
:103B8000E2008E7F8093E2008091E200806180936A
:103B9000E2008091D80080628093D80019BC85E053
:103BA0008093BE028091E10084FF30C08091E200EA
:103BB00084FF2CC080E189BD82E189BD09B400FE8B
:103BC000FDCF8091D8008F7D8093D8008091E10057
:103BD0008F7E8093E1008091E2008F7E8093E200EF
:103BE0008091E20081608093E2008091BF0288238F
:103BF00011F084E007C08091E30087FD02C081E0FE
:103C000001C083E08093BE028091BE028091E100FA
:103C100083FF27C08091E20083FF23C08091E100F1
:103C2000877F8093E10082E08093BE021092BF0202
:103C30008091E1008E7F8093E1008091E2008E7F91
:103C40008093E2008091E20080618093E20042E094
:103C500060E080E00E9485188091F0008860809389
:103C6000F000FF91EF91BF91AF919F918F917F9164
:103C70006F915F914F913F912F910F900FBE0F90D9
:103C80001F9018952091E4003091E50095E6409151
:103C9000EC00842F817040FF23C08091E80080FDFC
:103CA0001DC08091BE02882399F0853099F08091E3
:103CB000EB0085FD11C04091E4005091E500241710
:103CC000350729F3915011F09A01E1CF84E008956E
:103CD00082E0089583E0089581E0089580E00895EA
:103CE0004091E80042FFDDCF089580E00895909173
:103CF000180792FF10C041E0282F2471243009F0EA
:103D000040E031E0282F2871283009F030E04317D7
:103D100011F02CE0822793FF10C041E0282F24717E
:103D2000243109F040E031E0282F2871283109F0D2
:103D300030E0431711F02CE082273091190730FF53
:103D400010C051E0282F2171213009F050E041E0EE
:103D5000282F2871283009F040E0541711F029E08D
:103D6000822731FF10C041E0282F2171213109F055
:103D700040E031E0282F2871283109F030E0431766
:103D800011F029E0822794FD877E089582389105FD
:103D900069F1B0F48133910509F475C048F48932B2
:103DA000910509F467C08A32910509F471C008953C
:103DB0008533910509F459C089339105B9F0089507
:103DC000833E910589F138F4803E9105D1F0823E21
:103DD000910529F10895863E9105C9F1873E910527
:103DE000D9F1843E910509F06CC027C020911807D5
:103DF00020FD57C021FD55C02091190723FD5BC050
:103E000008958091180780FD48C08091190780FFB0
:103E100048C08091180784FD46C083EE51C0809150
:103E2000180782FF3CC0F5CF8091180782FD37C08C
:103E30008091190780FD35C0ECCF8091190781FF73
:103E400036C08091180784FD2EC087EE39C080915E
:103E5000180783FF2AC0F5CF8091180783FD25C07E
:103E60008091190781FD23C0ECCF8091180785FD53
:103E700022C01FC08091180785FD1BC080911907C3
:103E800083FF19C00AC08091180786FD16C017C0AD
:103E90008091180786FD13C010C089E311C082EE1F
:103EA0000FC080EE0DC080E00BC086EE09C084EE2E
:103EB00007C085E305C089E203C08AE201C081E34F
:103EC00090E00895A0E0B0E0E8E6FFE10C947931DD
:103ED0007C015B016A0180910D058A3018F001E0D8
:103EE00010E002C00AE010E0C1E0D0E0B501C70177
:103EF000F6010995811115C021960C171D0794F044
:103F0000CC9F9001CD9F300D300D112480E090E0CA
:103F100045E34A95F1F70000019682179307C1F730
:103F2000E5CF81E0CDB7DEB7EAE00C949531A0E0B3
:103F3000B0E0EDE9FFE10C947C317901C82F880FE6
:103F4000DD0B41155105A9F0FE0193E0EE0FFF1FB7
:103F50009A95E1F7E85EFE4F8181928180529B4FF6
:103F6000208130E04217530708F49A01A9010E940A
:103F70005C33CE010E94E230D82E8823D1F00115A7
:103F80001105B9F083E0CC0FDD1F8A95E1F7FE0142
:103F9000E85EFE4F438150E00417150708F4A801BE
:103FA000C85EDE4F6C817D8160527B4FC7010E94ED
:103FB0005C338D2DCDB7DEB7E7E00C949831A1E0EE
:103FC000B0E0E5EEFFE10C947F3181E089838091E0
:103FD0000D058A3010F01092FC018091FC018111D6
:103FE0000FC000E010E020E030E041E050E0BE0112
:103FF0006F5F7F4F85E00E94971F89838093FC014C
:1040000089812196E4E00C949B31A5E0B0E0EBE0DF
:10401000F0E20C947D317B0101E010E09E012B5F0A
:104020003F4F40E050E060E070E080E00E94971F6A
:10403000182F8823C1F16091FD047091FE048091D6
:10404000FF04909100050E94B22864367105810535
:10405000910538F481EE94E00E94D4199D8189176E
:1040600011F104E010E09E012F5F3F4F40E050E06F
:1040700060E070E081E00E94971F182F81EE94E0CD
:104080000E94D41991E02D81281390E0192329F181
:104090000E94DD286093FD047093FE048093FF046A
:1040A000909300050CC08091E1049091E204A091EE
:1040B000E304B091E40489839A83AB83BC83112326
:1040C00061F089819A81AB81BC818093F9049093DE
:1040D000FA04A093FB04B093FC048091F90490913E
:1040E000FA04A091FB04B091FC04F7018083918352
:1040F000A283B383812F2596E6E00C949931A0E04A
:10410000B0E0E5E8F0E20C947931C82F7B01D42FC0
:1041100069015801FB0160817181828193810E9454
:10412000B228643671058105910510F4DD23A1F0F4
:1041300000E010E020E030E0A501B6018C2F0E94E5
:10414000971FC82F882349F00E94DD28F70160835C
:1041500071838283938301C0C1E08C2FCDB7DEB71A
:10416000EAE00C949531ABE0B0E0E9EBF0E20C94BE
:104170007F3188E0E2EFF6E0DE01119601900D92CA
:104180008A95E1F780913C0590913D05A0913E050F
:1041900089879A87AB8741E08B85811101C040E018
:1041A0000BE010E09E012F5F3F4F69E075E084E077
:1041B0000E947F20811110923E052B96E4E00C9422
:1041C0009B310F931F93CF93DF93EC0144E050E0BA
:1041D00065EE74E00E944F3341E0892B09F440E022
:1041E00004E010E09E0161E075E082E00E947F2023
:1041F000DF91CF911F910F910895F894E82FE295E8
:10420000EF70F0E031A1282F2F7081E090E001C025
:10421000880F2A95EAF7982F9095932391A392A15E
:10422000892B82A3789408950F931F938091100790
:10423000882319F00E94DD280EC00E94DD2800911D
:10424000D6011091D7012091D8013091D901600F8A
:10425000711F821F931F1F910F910895A4E0B0E07A
:10426000E4E3F1E20C947F3160910505709106055D
:1042700080910705909108050E94B2286436710567
:104280008105910528F10E941421DC01CB010296E1
:10429000A11DB11D89839A83AB83BC8300E010E02C
:1042A00020E030E044E050E0BE016F5F7F4F83E0EC
:1042B0000E94971F182F882361F00E94DD286093C9
:1042C000050570930605809307059093080501C0C6
:1042D00011E0812F2496E4E00C949B317830B0F407
:1042E0006630A0F48530A0F490E3899FF00111249A
:1042F00086E0789FE00DF11D1124E60FF11DEE0F11
:10430000FF1FE650F74F85919491089580E001C01A
:1043100081E090E008951F93CF93DF930E94C61E23
:10432000EC01C11580E5D807E8F5C11590E4D9077F
:1043300008F0A8C0C03ED10530F5CD3CD10508F04D
:1043400094C0C83AD10578F4C53AD10508F083C0C5
:10435000C130D10509F47CC008F4F2C0C430D105E5
:1043600008F0F1C0EDC0C33CD10508F0E9C0C85A5F
:10437000D0E0CC0FDD1FC059DE4F0990D881C02D91
:10438000CE019464E1C0C11580E2D80708F0CBC02B
:10439000C11591E0D90708F06BC0C83ED10508F4FB
:1043A000D2C0CEC0C03682E5D80728F5C03492E529
:1043B000D90708F079C0C03282E5D80708F06CC090
:1043C000C11592E5D90708F481C04C2F4695469552
:1043D00080E2489FA0011124C37021E030E0C901B0
:1043E00002C0880F991FCA95E2F7EA01C82BD92BA2
:1043F000CE019D68A9C0C03A82E5D807B8F48C2FD9
:104400008F71C03892E5D90708F07BC086958695F4
:1044100090E2899F90011124C37081E090E002C076
:10442000880F991FCA95E2F79A6868C0C03C82E578
:10443000D80708F46DC0C03E92E5D90708F080C0E7
:10444000CF71DD27DC2FCC27CE01806F906A7CC036
:1044500081E090E079C0C55AD0E0C359DE4F888131
:10446000C82FD0E0CE0190646FC0CE0190656CC0C3
:104470008D2F0E94771E182FCE0199270E94C61EED
:104480001F715CC0CE0199270E94C61ECC27DF7029
:10449000D06A8C2B9D2B58C0CF71D0E0DC2FCC275D
:1044A000CE01816F906A50C08C2F8F718695869552
:1044B00090E2899F90011124C37081E090E002C0D6
:1044C000880F991FCA95E2F79C6818C08C2F8F71CE
:1044D0000E94771E95E0D695C7959A95E1F7CF7023
:1044E000D0E0DC2FCC27282F30E084FF05C084E00B
:1044F000220F331F8A95E1F7D069CE01822B932BCF
:1045000023C090E0D82FCC27CE01846F906A1CC0C6
:104510008C2F8F710E94771E8F7190E0D82FCC273F
:10452000CE01906211C08D2F8F710E94771E182FBF
:10453000CE0199270E94C61E1F719062912B04C064
:1045400080E090E001C0CE01DF91CF911F910895EE
:1045500080959091D30489238093D304089580910A
:104560001007882319F00E94E92808950E94142159
:10457000CB010895A6E0B0E0E0ECF2E20C947F31CC
:104580000E94E9288C018091D4049091D5040817E9
:10459000190781F019821A820E94E928682F49813F
:1045A0005A81792F80E090E00E94320D1093D5045B
:1045B0000093D4042696E4E00C949B31ACE0B0E088
:1045C000E4EEF2E20C947431AE014F5F5F4F7A017A
:1045D00088E0DA011D928A95E9F70BE511E06A019E
:1045E0008FE5682E81E0782EAA24A394B12C25E6CD
:1045F000822E21E0922EF80180818F3F09F440C085
:10460000F894E82FE295EF70F0E021A18F70A501FA
:1046100002C0440F551F8A95E2F7CA01922F982BCA
:1046200091A392A18095892382A3789400C0EFE59D
:10463000F1E0512C31E021912F3F89F0A22FA2957A
:10464000AF70B0E090968C9190E02F7002C095957D
:1046500087952A95E2F780FD02C0832F01C080E094
:10466000582A330F8E169F0631F7D8018C918F3F51
:1046700011F00E94FD20B0EABA95F1F7F6015082E0
:104680000F5F1F4FFFEFCF1ADF0A6016710609F0A8
:10469000B2CF48E050E0B7018AED91E00E944F337D
:1046A000892B99F088E0F701AAEDB1E001900D9215
:1046B0008A95E1F781E08093D8040E94E9289093DD
:1046C000D7048093D604F12C27C08091D804882386
:1046D000D1F30091E3018091D6049091D7040E9418
:1046E000CE28059780F310E009511E4F44E050E0BA
:1046F0006AED71E0C8010E944F33892B09F434C17F
:1047000084E0EAEDF1E0D80101900D928A95E1F79D
:10471000FF24F3941092D80480911007E091E301F4
:10472000882309F48CC019861A861B861C860E2FD6
:1047300010E009511E4F80910D058A3060F445E06C
:1047400050E2BE01675F7F4FC8010E94621F88234D
:1047500009F447C00AC08091D9049091DA040E94FC
:10476000CE28843F914058F74DC041EE50E2BE0143
:10477000675F7F4FC8010E94621F882391F14EE25C
:1047800051E2BE01675F7F4FC8010E94621F88230C
:1047900041F143EB50E2BE01675F7F4FC8010E94C9
:1047A000621F8823F1F04FED5FE1BE01675F7F4F2D
:1047B000C8010E94621F8823A1F010920D0580910C
:1047C000E20190E044E050E0BE01675F7F4F895115
:1047D0009E4F0E944F3321E02093DF04892B01F587
:1047E000BDC080910D058F3F19F08F5F80930D053F
:1047F00080910D058A3018F30E94E9289093DA041D
:104800008093D9048091DF04882309F4A7C0FE01B6
:10481000399684E0DF011D928A95E9F71092DF0452
:10482000E091E201F0E0E951FE4F89859A85AB8580
:10483000BC8580839183A283B38381E090C0009183
:10484000E20110E009511E4FF0E0E951FE4F84E013
:10485000A1EEB4E001900D928A95E1F781EE94E02B
:104860000E94D4198093E00484E0E5EEF4E0D801DE
:1048700001900D928A95E1F78090E9049090EA0406
:10488000A090EB04B090EC048091DB049091DC04E8
:10489000A091DD04B091DE0488169906AA06BB0635
:1048A000B1F08092DB049092DC04A092DD04B0921F
:1048B000DE040E94DD28861A970AA80AB90A8092A7
:1048C000D6019092D701A092D801B092D9018091DF
:1048D000ED04282F217086958695E090EE04D09007
:1048E000EF04C090F0040091F6041091F7041092C8
:1048F000F704112379F110FF17C09091F2062223DB
:1049000039F091609093F20660E00E94D32D0CC0C4
:104910009E7F9093F2060E947B2B80913E058160E2
:1049200080933E050E949E2B11FF06C020E04C2D77
:104930006D2D8E2D0E94E32C12FF07C0002319F06D
:104940000E94822B02C00E947B2B13FF03C081E0D8
:10495000809339058091F8048093FC0180E08F29D1
:104960002C96EFE00C949031F12CD4CE8091B302D0
:1049700008950895539A2BB1277F3BB138604FB704
:10498000F894FC01CB01880F991F680F791F6E0FF7
:104990007F1FE617F70789F0819198E03BB9000087
:1049A00000C087FF2BB9880F000000C000C000C006
:1049B0002BB900C09A9591F7ECCF4FBF8FE594E0EB
:1049C0000197F1F700C0000008950F931F93CF9354
:1049D000DF93EC0100E010E080915A01282F30E0D5
:1049E0000217130724F5909158019801290F311DE2
:1049F000A901440F551F240F351F2E5B3A4F869592
:104A000090E04C81081719071CF4442331F002C0D0
:104A1000411103C04091F50601C040E06091F406E9
:104A20008091F3060E94542C0F5F1F4FD5CF0E9438
:104A30009E2B8C8190E00196817099278C83DF9169
:104A4000CF911F910F910895A0E0B0E0EAE2F5E266
:104A50000C9477318C01FC014481C42FD0E09E017D
:104A6000DE010E94B9329B01AC010E9484326B01CD
:104A70007C01E0E2F0E0EC1BFD0BA5E5B0E09B0162
:104A8000AC010E9484324B015C019F01DF010E9456
:104A9000FC329B01AC010E948F329B01AC012C0DBA
:104AA0003D1D4E1D5F1DC501B4010E949732C22FEE
:104AB000D22F2A3228F4F3E02F9F900111240DC049
:104AC00025E530E02C1B3109C901880F991F280FFB
:104AD000391F37FF02C02F5F3F4F35952795C22FF3
:104AE000C095F12C85E5E82EED1A80915A01F81653
:104AF000C8F4F1FC02C08E2D01C08D2F9091580199
:104B00002F2D30E0290F311DA901440F551F240F0F
:104B1000351F2E5B3A4F4C2F6091F4060E94542CA7
:104B2000F394E3CF0E949E2BF8018481811102C08F
:104B300091E003C0803219F49FEF9093550190915A
:104B40005501890FF8018483CDB7DEB7ECE00C94F2
:104B500093311F93CF93DF93EC018C81811109C0B6
:104B600081E08C831092400592E0909354018093F1
:104B700053018091580190915901891770F4E82FE1
:104B8000F0E09F01220F331FE20FF31FEE5BFA4F9D
:104B90001182108212828F5FF0CF10E060915A0173
:104BA0001617C0F5E12FF0E070E0CF010E94E2326D
:104BB00020915801820F20914005022E000C330BEA
:104BC00090E0E217F307CCF020915401022E000C84
:104BD000330B2E173F078CF09C01220F331F820FDF
:104BE000931F9C012E5B3A4F4091F5066091F406AD
:104BF0008091F3060E94542C0BC0FC01EE0FFF1FA6
:104C00008E0F9F1FFC01EE5BFA4F11821082128201
:104C10001F5FC4CF0E949E2B8091530120914005BD
:104C2000280F2093400590915401980F90935401C0
:104C300019165CF4022E000C330B40915A0150E01F
:104C4000415051092417350734F081958093530161
:104C5000813009F41C82DF91CF911F910895A0E06B
:104C6000B0E0E5E3F6E20C947631EC018A8180FF56
:104C700003C0BB24BA9402C0BB24B3948C818111BD
:104C80000DC081E0B81206C080915A018150809316
:104C90003F0502C010923F0581E08C83A12C46E3C2
:104CA000842E90905A01A91408F041C080915801B7
:104CB000CA2CD12C8601080F111DC801880F991F1D
:104CC000080F191F0E5B1A4FF80111821082128211
:104CD00034E0E32EF12C712C80913F05870D873352
:104CE0002CF0682D0E94D432892F02C087FD890DD7
:104CF000082E000C990BC816D90691F48091F50680
:104D00008E9DA0018F9D500D112455954795559569
:104D1000479598016091F4068091F3060E94542C07
:104D20007B0CF1E0EF1AF108B9F6A394BACF0E9418
:104D30009E2B80913F0591E0B9120EC0811107C0F2
:104D400080915A01815080933F051C820FC0815091
:104D500080933F05BC820AC090E0019660915A01A1
:104D600070E00E94E23280933F058C83CDB7DEB7BE
:104D7000EDE00C949231FF920F931F93CF93DF934A
:104D8000EC01F12C0FEF10E060915A01F616F0F4EF
:104D9000809158012F2D30E0280F311DC901880F57
:104DA000991F280F391F2E5B3A4F70E0C8010E94EF
:104DB000E232962F8C814091F5066091F406F99EBF
:104DC000800D11240E94542CF394DECF0E949E2B60
:104DD0009A818C8190FF02C08F5F01C081508C83CB
:104DE000CDB7DEB7E5E00C949A312F923F925F92F7
:104DF0006F927F928F929F92AF92BF92CF92DF92EB
:104E0000EF92FF920F931F93CF93DF93FC01628089
:104E1000548081E08483EAEDFAE07490E9E5FBE0F8
:104E2000E491C091F506C695C158D0E0CC0FDD1FC6
:104E30002D2E3324812C75E0972EAA24AA94B12C10
:104E4000E719EE2EF12C80915A01881608F098C0CF
:104E5000C82CD12C22E0261568F09C9CF0019D9C6A
:104E6000F00D1124EC51FA4F8091F306808380916C
:104E7000F406818351100AC09C9CF0019D9CF00DAA
:104E80001124EC51FA4F1382128260C09C9C800165
:104E90009D9C100D1124E801CC51DA4F8B818823A1
:104EA000F9F081508B832FEF829FC00111246C8118
:104EB00070E00E945D31FB01FF27E652F54F8491BF
:104EC000E82FE7192FEFE29FC0011124B7010E94DC
:104ED0005D318091F506689FB00111247A8336C058
:104EE0000E94F431B5010E94E2328215930574F5F7
:104EF00082E0861588F40E94F431B5010E94E23206
:104F000088830E94F4312091F4062695622F70E088
:104F10000E94E232280F29839C9CF0019D9CF00D99
:104F20001124EC51FA4F12828091F506843120F061
:104F3000893C18F088EC01C084E19C9CF0019D9CA8
:104F4000F00D1124EC51FA4F848383838091580132
:104F50009601280F311DC901880F991F280F391F8D
:104F60002E5B3A4F9C9CF0019D9CF00D1124EC515E
:104F7000FA4F4281618180810E94542C839463CFD7
:104F80000E949E2BDF91CF911F910F91FF90EF9088
:104F9000DF90CF90BF90AF909F908F907F906F9059
:104FA0005F903F902F900895A3E0B0E0EAEDF7E224
:104FB0000C947F318C018091410581110AC09E01C2
:104FC0002F5F3F4F48E76FEF0E94542C8A818093F8
:104FD0004105F8018481813051F028F0823061F47C
:104FE000409141050AC08091410540E007C06091B1
:104FF000410540E080E003C040E080E060E00E94C6
:10500000C42BF801848190E0019663E070E00E9477
:10501000E23284832396E4E00C949B31CF93DF93B8
:10502000EC01E2EFF6E0438162818C810E94BB2DAE
:105030008C818F5F8C83DF91CF910895CF93DF9325
:10504000EC01EC81F0E0E652F54F4491E2EFF6E03E
:10505000628181810E94BB2D8C818F5F8C83DF9167
:10506000CF9108950F931F93CF93DF938B01EA01A4
:105070009091BE02943079F58F708093E9008FEFA4
:105080009091E800815095FD06C095ED9A95F1F755
:1050900000008111F5CF8091E80085FF1CC00E94BF
:1050A000421E882361F08091E8008E778093E800AB
:1050B00012C0F80181918F018093F1002197209710
:1050C00091F38091E80085FDF4CF8091E8008E7720
:1050D0008093E800E4CFDF91CF911F910F91089565
:1050E0009AE088E10FB6F894A895809360000FBE0F
:1050F00090936000FFCF87E797E790930108809334
:1051000000089AE088E10FB6F894A89580936000B3
:105110000FBE90936000FFCF78941F920F920FB64E
:105120000F9211248F939F93AF93BF9380911B078E
:1051300090911C07A0911D07B0911E070196A11D1B
:10514000B11D80931B0790931C07A0931D07B0937C
:105150001E07BF91AF919F918F910F900FBE0F903F
:105160001F901895CF92DF92EF92FF922FB7F8948D
:10517000C0901B07D0901C07E0901D07F0901E0701
:105180002FBFA7019601261B370B480B590BCA01ED
:10519000B901FF90EF90DF90CF9008959C014FB739
:1051A000F89480911B0790911C07A0911D07B09166
:1051B0001E074FBF821B930B08952FB7F894609181
:1051C0001B0770911C0780911D0790911E072FBF30
:1051D00008952FB7F89480911B0790911C07A09118
:1051E0001D07B0911E072FBF08951F920F920FB693
:1051F0000F9211248F939F93AF93BF9380911A07BF
:10520000811113C080911B0790911C07A0911D076D
:10521000B0911E074196A11DB11D80931B0790936D
:105220001C07A0931D07B0931E07BF91AF919F91DC
:105230008F910F900FBE0F901F90189590911701AE
:10524000992321F09091180797FD03C0EEE0F5E057
:105250001DC0E82FE695E695E695EE31E0F4F0E026
:10526000EA5EFA4F877021E030E0A90102C0440FE6
:10527000551F8A95E2F7CA0180959281892382831E
:105280000895319655E0E431F50729F092818913AC
:10529000F8CF1282F6CF0895909117019923D1F09B
:1052A0009091180797FF16C0E82FE695E695E695CA
:1052B000EE3140F5F0E0EA5EFA4F877021E030E031
:1052C000A90102C0440F551F8A95E2F7CA019281D5
:1052D000892B16C0A0E1B5E0EFEF90E02D91821789
:1052E00089F0EF3F19F4211101C0E92F9F5F96303B
:1052F000A9F7EF3F39F00E2E000CFF0BE25FFA4FDB
:10530000828308950895A3E0B0E0E9E8F9E20C94FF
:105310008131209116073091170728173907A1F01E
:105320009093170780931607E0911407F0911507E3
:10533000309751F024E029839B838A830084F18590
:10534000E02DCE01019609952396E2E00C949D3163
:10535000A3E0B0E0EEEAF9E20C948131209112076B
:105360003091130728173907A1F090931307809302
:105370001207E0911407F0911507309751F023E0E0
:1053800029839B838A830084F185E02DCE010196D9
:1053900009952396E2E00C949D31809110078823B3
:1053A00059F0E0911407F0911507309729F001901A
:1053B000F081E02D0995089580E00895FF920F9304
:1053C0001F93CF93DF93C42FD22FF02EFC01858142
:1053D0008823B1F040930F070E94E92890930E07AD
:1053E00080930D0780E28C0F883008F06CC0C77086
:1053F00081E001C0880FCA95EAF70E94C91663C010
:1054000080910F07481353C080910D0790910E07AC
:105410000E94CE28883C910508F049C0CD1729F19B
:1054200080E28C0F883040F4C77081E001C0880FA3
:10543000CA95EAF70E94C21680E28D0F883048F4C0
:1054400081E09D2F977001C0880F9A95EAF70E941E
:10545000C916F9E3FF1619F000E010E002C000E5FC
:1054600010E08F2D0E94F21708C099E30913F4CFC2
:1054700089E30E94F21700E510E00115110549F0DB
:105480008FE99FE00197F1F700C00000015011097A
:10549000F4CF8F2D0E94BF1780E28D0F883098F4D3
:1054A000D77081E001C0880FDA95EAF70AC080E280
:1054B0008C0F883040F4C77081E001C0880FCA9516
:1054C000EAF70E94C216CDB7DEB7E5E00C949A3138
:1054D0000E94E92820910907211104C020910A07A0
:1054E000222321F0909306078093050720910B0754
:1054F000211104C020910C07222321F0909304076E
:1055000080930307E0911407F0911507309749F055
:1055100082E0809307070680F781E02D87E097E01F
:10552000099508958091020780FD16C081FD16C07F
:1055300082FD18C080910107882391F0883290F491
:1055400028E0829FC001112468E270E00E94E232EC
:10555000862F672B29F007C082E0089584E0089524
:1055600081E0089588E008958091020780FD14C0CD
:1055700081FD14C082FD16C080910007882381F050
:105580008E3180F420E5829FC00111246EE170E02D
:105590000E94E232862F089584E1089588E20895FA
:1055A00088E0089580E50895282F35EB2303C00196
:1055B000112497FF03C08058910902C080589F4F63
:1055C000892F0895CF93E82F2091D1043091D204F0
:1055D0002B5C32404091C802642F70E0C9010E94E8
:1055E0005D31481B842FEE2351F066E00E94C832E3
:1055F000C82FC150A8F080E20E944119FACFA9013A
:10560000480F511D4115524018F080E020E030E075
:10561000280F311D25533D4F3093D2042093D104E0
:10562000CF910895AB0124E630E0BC0188E70E94E9
:10563000072F21E0892B09F020E0822F0895809127
:10564000FF069091FE06882389F0992369F062E0B5
:1056500070E08CED9BE00E94122B811103C08091C1
:10566000FE0608951092FE069091FE0681E08927BD
:1056700008958091FF068823F9F00E94DD28DC015F
:10568000CB01805A9541AF4FBF4F8093FA0690935C
:10569000FB06A093FC06B093FD068091FE068111E7
:1056A0000BC062E070E08AED9BE00E94122B882321
:1056B00019F081E08093FE068091FE060895909196
:1056C000F20690FF05C096959695981748F003C08E
:1056D000811106C090E0961718F40E94282E0895B4
:1056E00061E00E94D32D0895882311F0FA0101C0D2
:1056F000FB0109950895ECE3F5E011828281846055
:10570000828308956091F2066695669570E04BE09D
:1057100050E088E491E00E944233892B19F481E043
:1057200080933D050E94AF22909337058093360504
:1057300080913E05846080933E05089560915701F5
:105740008091F20680FF0CC08091560170E023E04A
:10575000829FC00111248E5B9A4F0E94BA24089543
:105760008091580190915901891770F7E82FF0E066
:105770009F01220F331FE20FF31FEE5BFA4F1182DE
:10578000108212828F5FF0CF9091F20690FF16C0C8
:105790009091580120915901921770F4E92FF0E08F
:1057A000DF01AA0FBB1FEA0FFB1FEE5BFA4F8183DD
:1057B000608342839F5FF0CF0E949E2B089580916B
:1057C000F206282F2695269530E02115310519F48B
:1057D0008370846005C02B32310524F08370886AA1
:1057E0008093F2068091F506893718F088E7809358
:1057F000F5060895A0E0B0E0E0E0FCE20C9477311B
:1058000049015A016B017C010E94DF2B8401A40134
:105810006A2D7B2D88E090E00E94433294014A2D4E
:105820005B2DB601C70100E20E942633622F84E29D
:1058300090E00E943132CDB7DEB7ECE00C949331AA
:105840008091F606882319F081508093F606209106
:10585000F2063091F3064091F4065091F5066091FE
:10586000F6067091F7068091F8069091F9060E946D
:10587000FA2B08958091F606833018F48F5F809399
:10588000F6062091F2063091F3064091F40650910D
:10589000F5066091F6067091F7068091F8069091F2
:1058A000F9060E94FA2B0895A0E0B0E0EAE5FCE2D8
:1058B0000C947931E82EF62EE901493708F048E7D3
:1058C000E42FF0E0F11006C0E252F44FE4914E2FC5
:1058D0002E2F71C00F2D10E0E252F44F4491F42F9F
:1058E000C42ED12C26E0E29EC00111242FEF30E01F
:1058F000B9010E945D315BEA5603C001579F900DCC
:1059000011248E0D911D8E0D911D582F550F580F7E
:10591000D901A01BB10BAC9DC001AD9D900DBC9DEC
:10592000900D1124E92FF59ED0011124AB2FBB2738
:105930007901EA1AFB0AEC9CD001ED9CB00DFC9CAD
:10594000B00D11245901A51AB108A09E7001A19EA5
:10595000F00CB09EF00C1124EF2CFF242E193F09FF
:105960002C9D80012D9D100D3C9D100D1124212F8B
:105970006230710591F048F461157105E1F0613014
:105980007105B9F4242F4B2F16C06430710569F0EE
:1059900040F06630710579F00CC0242F492FE12FBB
:1059A0000AC0492FEF2F2B2F06C0292FE42F412F9C
:1059B00002C0292FEB2F49832883EA83CDB7DEB7B6
:1059C000EAE00C949531A3E0B0E0E9EEFCE20C943F
:1059D0007A31082FE62EF42ED22E9091F20690FF07
:1059E0007EC02091F306281308C08091F406861328
:1059F00004C08091F506841729F080913E058260ED
:105A000080933E05E92FE695E695AE2FB0E0A855C8
:105A1000BE4F8C9180933C059C7F943071F49E0125
:105A20002F5F3F4F4F2D6E2D802F0E94542C4B81A6
:105A300069818A810E94C42B3CC0823019F4F090A5
:105A4000F50637C08630A1F1893091F1893189F5A9
:105A5000E9518E2F8170C82EE695F0E0E252F34FA7
:105A60001491B12C60915A01B616F8F4B19EC001A0
:105A7000112470E00E945D31802FC11002C0860F9A
:105A800001C0861B909158012B2D30E0290F311D4C
:105A9000A901440F551F240F351F2E5B3A4F4F2D80
:105AA0006E2D0E94542CB394DDCF0E949E2B01C01A
:105AB000022F0093F306E092F406F092F506DD2043
:105AC00071F02091F2066091F6067091F706302F82
:105AD000A7018091F8069091F9060E94FA2B23966F
