:100000000C941E060C943B060C943B060C94272E75
:100010000C943B060C943B060C943B060C943B065C
:100020000C943B060C943B060C94C1160C94E21AFB
:100030000C94B4260C943B060C943B060C943B06A3
:100040000C943B060C943B060C943B060C943B062C
:100050000C943B060C949A170C943B060C943B06AC
:100060000C943B060C943B060C943B060C943B060C
:100070000C943B060C943B060C943B060C943B06FC
:100080000C943B060C943B060C943B060C943B06EC
:100090000C943B060C943B060C943B060C943B06DC
:1000A0000C943B060C943B060C943B06202020202D
:1000B0006162636465666768696A6B6C6D6E6F70B8
:1000C0007172737475767778797A31323334353664
:1000D00037383930524542545F2D3D5B5D5C233BE0
:1000E00027602C2E2F2020202B0014001A0008003F
:1000F00015001700E10004001600070009000A00BF
:10010000E0001D001B0006001900050000000000B3
:100110000000E30021522C002A00130012000C0002
:1001200018001C00340033000F000E000D000B00FF
:100130006452380037003600100011000000000043
:100140000000E2002252280029003A003B003C0057
:100150003D004800E1003E003F00400041004600F5
:10016000E00042004300440045006500000000003C
:100170000000E30001002C002A004B004D0052005B
:100180004A00490034024E004F00510050004C001C
:100190000100380237023602190106010000000092
:1001A0000000E2000100280039001E021F02201496
:1001B0002F020000E10034143214250226022D0221
:1001C000E0002F14301464006402270200000000D5
:1001D0000000E30001002C002A0038002600250062
:1001E000240030022D0030002300220021002402D0
:1001F0000100370020001F001E0027000000000043
:100200000000E2000100280035002E001F14221417
:1002100021022F00E100350223021E1435142E02A4
:10022000E00000002314320022022114000000002C
:100230000000E30001002C00A800A900AA00AB0008
:10024000AE00AC0000002978277825782378207844
:10025000017C2A782878267824782178000000000C
:100260000000E200010028002900D6000000000084
:1002700000000000E100D500D200D300D100000052
:10028000E000D400DF00DE00DD0000000000000020
:100290000000E30001002C000000D600DC00CD00CF
:1002A000DB00D9000000D500D000CE00CF00DA007E
:1002B0000100D400D200D300D100D700000000001C
:1002C0000000E2000100280000DA0281FFD9F1DB22
:1002D00020A4A62EAF00A0C0D30000A1C8D3000068
:1002E000AED580A81F408D1420001E0F0500047F8E
:1002F0003F1F643214643214783C1E1E140A052019
:1003000020202020202020200043415053204C4F0B
:10031000434B0000556E646566696E6564004D6F01
:1003200075736500457874656E6400526169736524
:10033000004C6F7765720044656661756C74004CA3
:10034000617965723A2000808182838485868788FE
:10035000898A8B8C8D8E8F9091929394A0A1A2A369
:10036000A4A5A6A7A8A9AAABACADAEAFB0B1B2B3D5
:10037000B4C0C1C2C3C4C5C6C7C8C9CACBCCCDCE20
:10038000CFD0D1D2D3D4000001010101010101017C
:100390000102020202020202020203030303030338
:1003A0000303040404040404040505050505060606
:1003B00006060607070707070808080809090909C4
:1003C0000A0A0A0B0B0B0C0C0C0D0D0D0E0E0E0F6A
:1003D0000F0F1010111111121213131414151516FA
:1003E000161717181819191A1A1B1B1C1D1D1E1E6B
:1003F0001F202021222223242425262627282929BC
:100400002A2B2C2D2D2E2F303132323334353637E6
:1004100038393A3B3C3D3E3F4041424344454647E4
:1004200048494A4C4D4E4F50515354555658595ABD
:100430005B5D5E5F616264656668696B6C6D6F7061
:1004400072737577787A7B7D7E8082838587888AD0
:100450008C8E8F91939596989A9C9EA0A2A3A5A707
:10046000A9ABADAFB1B3B5B7BABCBEC0C2C4C6C903
:10047000CBCDCFD1D4D6D8DBDDDFE2E4E7E9EBEEBC
:10048000F0F3F5F8FAFDFFFFAA7F55402223252659
:1004900028292A2C2D2F3032333536383A3B3D3E31
:1004A0004042434547494A4C4E5051535557595A7B
:1004B0005C5E6062646668696B6D6F717375777995
:1004C0007B7D7F81838587898A8C8E909294969894
:1004D0009A9C9E9FA1A3A5A7A8AAACAEAFB1B3B4A6
:1004E000B6B8B9BBBCBEBFC1C2C3C5C6C7C9CACBFB
:1004F000CCCDCED0D1D2D2D3D4D5D6D7D7D8D9D9C6
:10050000DADADBDBDBDCDCDCDCDCDDDDDDDDDCDC2E
:10051000DCDCDCDBDBDBDADAD9D9D8D7D7D6D5D44B
:10052000D3D2D2D1D0CECDCCCBCAC9C7C6C5C3C217
:10053000C1BFBEBCBBB9B8B6B4B3B1AFAEACAAA86C
:10054000A7A5A3A19F9E9C9A98969492908E8C8A20
:1005500089878583817F7D7B79777573716F6D6BFB
:100560006968666462605E5C5A5957555351504ED3
:100570004C4A4947454342403E3D3B3A3836353385
:1005800032302F2D2C2A29282625232200AF00AE19
:1005900005010902A10185020901A100050919014E
:1005A000290815002501950875018102050109300A
:1005B00009311581257F9502750881060938158155
:1005C000257F950175088106050C0A3802158125DD
:1005D0007F950175088106C0C005010980A10185CC
:1005E0000319012AB700150126B70095017510817E
:1005F00000C0050C0901A101850419012AA00215FA
:100600000126A002950175108100C005010906A10F
:10061000018506050719E029E715002501950875EC
:100620000181020507190029EF1500250195F075D4
:1006300001810205081901290595057501910295A9
:100640000175039101C005010906A101050719E023
:1006500029E71500250195087501810295017508A6
:1006600081010507190029FF150026FF0095067571
:100670000881000508190129051500250195057552
:10068000019102950175039101C009023B0002012D
:1006900000A0FA0904000001030101000921110171
:1006A000000122440007058103080001090401003C
:1006B000010300000009211101000122B600070515
:1006C00082032000011201000200000008534601CD
:1006D000000100010200010C0343006F0072006E74
:1006E0000065000000100366006F006F0073007467
:1006F0000061006E00000004030904000000000017
:10070000003E5B4F5B3E003E6B4F6B3E001C3E7CF1
:100710003E1C00183C7E3C18001C577D571C001CDA
:100720005E7F5E1C0000183C180000FFE7C3E7FF77
:1007300000001824180000FFE7DBE7FF0030483A0C
:10074000060E00262979292600407F05050700406E
:100750007F05253F005A3CE73C5A007F3E1C1C08A1
:1007600000081C1C3E7F0014227F2214005F5F00E3
:100770005F5F0006097F017F00006689956A00605F
:10078000606060600094A2FFA2940008047E0408E8
:100790000010207E20100008082A1C0800081C2ACF
:1007A0000808001E10101010000C1E0C1E0C00304B
:1007B000383E383000060E3E0E06000000000000F5
:1007C0000000005F000000000700070000147F1415
:1007D0007F1400242A7F2A12002313086462003643
:1007E0004956205000000807030000001C22410069
:1007F000000041221C00002A1C7F1C2A0008083E21
:100800000808000080703000000808080808000090
:1008100000606000002010080402003E5149453E7F
:100820000000427F40000072494949460021414989
:100830004D33001814127F10002745454539003C00
:100840004A494931004121110907003649494936D1
:1008500000464949291E00000014000000004034F1
:1008600000000000081422410014141414140000A5
:1008700041221408000201590906003E415D594E0B
:10088000007C1211127C007F49494936003E4141EB
:100890004122007F4141413E007F49494941007F5B
:1008A00009090901003E41415173007F0808087F92
:1008B0000000417F4100002040413F01007F0814BB
:1008C0002241007F40404040007F021C027F007FA9
:1008D0000408107F003E4141413E007F090909069E
:1008E000003E4151215E007F0919294600264949F1
:1008F00049320003017F0103003F4040403F001F99
:100900002040201F003F4038403F0063140814631C
:10091000000304780403006159494D4300007F41FE
:10092000414100020408102000004141417F0004C1
:10093000020102040040404040400000030708005C
:10094000002054547840007F284444380038444400
:10095000442800384444287F003854545418000078
:10096000087E0902001824241C78007F08040478FB
:100970000000447D4000002040403D00007F1028E2
:1009800044000000417F4000007C04780478007C33
:1009900008040478003844444438007C182424189F
:1009A00000182424187C007C0804040800485454CF
:1009B00054240004043F4424003C4040207C001C9C
:1009C0002040201C003C4030403C0044281028447B
:1009D000004C9090907C004464544C4400000836D5
:1009E00041000000007700000000413608000002CE
:1009F00001020402003C2623263C00000000000007
:100A00000000000000000000000000C0E0F0F8F866
:100A10001800C0F0FCFEFFFFFFFFFFFFFF7E00009D
:100A20000000000000000080C0E0E0E0E0E0E0E066
:100A3000E0C0800000000080C0E0E0E0E0E0E0E036
:100A4000E0C080000000E0E0C0C0E0E0E0E00000C6
:100A5000E0E0C0C0E0E0E0E0E0C080000000008036
:100A6000C0E0E0E0E0E0E0E0E0C080000000000086
:100A7000000000000000000000E0F0F0F0E0ECEE0C
:100A8000F7F37020007C7C7C7E007E7E7E7F7F7F03
:100A9000000080C0E07E5B4F5BFEC00000C000DC59
:100AA000D7DEDEDED7DC00C0000000000000000062
:100AB0000000000000000000000000000000000036
:100AC00000000000F8FCFEFFE000FFFFFFFFFFFF5B
:100AD00080FFFFFFFFFFFFFFFFFF1F070100000078
:100AE000000000000000FFFFFF8100000000000088
:100AF00081C3C3C30000FFFFFF81000000000000AE
:100B000081FFFFFF0000FFFFFF0100000000000069
:100B1000FFFFFF010000000001FFFFFF0000FFFFDB
:100B2000FF9D1C1C1C1C1C1C9DDFDFDF0000000047
:100B30000000000000000000000F1F3F7F7F7F7F4C
:100B40007F3F1E0C001F1F1F3F003F3F3F7F7F7FE7
:100B500000307B7F7830202030787F3B0003000F0F
:100B60007F0F0F0F7F0F0003000000000000000048
:100B70000000000000000000000000000000000075
:100B800000000000030F1F3F3F3F3F1F1F3F3F7FFD
:100B90007F7F3F3F1F3F7F7F7F7F7C7878381C0FB0
:100BA0000000000000000001030707070707070710
:100BB00007030100000000010307070707070707F5
:100BC0000703010000000707070000000000000005
:100BD00007070700000000000007070700000001EA
:100BE00003070707070707070703010000000000C6
:100BF00000000000000000000000000000000000F5
:100C000000000000000000000000000000000000E4
:100C100000000000000000000000000000000000D4
:100C200000000000000000000000000000000000C4
:100C300000000000000000000000000011241FBEA2
:100C4000CFEFDAE0DEBFCDBF27E0A4ECB1E001C01A
:100C50001D92A130B207E1F711E0A0E0B1E0E0E4BD
:100C6000F3E602C005900D92A43CB107D9F70E94AB
:100C7000DB260C944A310C940000482F2091F2049A
:100C80009091B90457E0291302C080E0089530E044
:100C9000529FF001539FF00D1124E654FB4F8181C8
:100CA000681306C08081481303C085818111EECF8F
:100CB0002F5F3F4F2770E7CFFC01AC014C5F5F4FC8
:100CC0008FEF91E32191822728E030E087FF09C070
:100CD000880F892721503109C9F7E417F50791F7E3
:100CE0000895880FF7CFE8EDF0E080818E7F808354
:100CF0001092E2001092DA001092E100A0EEB0E053
:100D00008C9181608C9380818F77808319BCA7ED53
:100D1000B0E08C918E7F8C9380818F7E8083109247
:100D2000A20408952091E4003091E50095E6A90120
:100D30002091EC00822F817020FF06C08091E80096
:100D400080FF06C080E008952091E80022FD1AC0CF
:100D50008091AF04882389F0853089F08091EB0081
:100D600085FD0FC02091E4003091E5004217530744
:100D7000F9F29150E1F684E0089582E0089583E06D
:100D8000089581E008958091B10487FF13C0809198
:100D9000E80082FF06C08091E8008B778093E8002E
:100DA00004C08091AF048111F2CF08958091AF0407
:100DB0008823D9F38091E80080FFF8CF8091E80084
:100DC0008E77ECCF982F9093E900242F762F50E068
:100DD000891731F07091EC002091ED005091F000F6
:100DE00021FD07C09F5F973071F78093E90081E094
:100DF00008953091EB003E7F3093EB003091ED0091
:100E00003D7F3093ED003091EB0031603093EB008B
:100E10007093EC002093ED005093F0002091EE00D1
:100E200027FDE0CF80E00895B0E0A0E0EAE1F7E040
:100E30000C94612FC8EDD0E088818F7E8883E7ED28
:100E4000F0E080818160808384E082BF81E08093D4
:100E5000A20488818E7F888302EE10E0F801108260
:100E60001092DA0081EEC82ED12CF6011082888112
:100E70008F77888388818068888388818F7D888345
:100E800019BC1092AF041092B0041092AE041092EC
:100E9000AD0490EEE92EF12CF70180818B7F8083E9
:100EA00088818160888342E060E080E00E94E20601
:100EB000F60180818E7F8083F8018081816080834C
:100EC000808188608083F70180818E7F8083888124
:100ED00080618883CDB7DEB7E8E00C947D2FFC01FC
:100EE0008091B7049091B80486179707A0F0611518
:100EF000710529F49091E8009E779093E80090E0C6
:100F00006115710551F4911108C08091E80082FFCC
:100F100034C080E00895BC01F2CF8091AF048823F3
:100F2000C1F18530C1F18091E80083FD30C080912E
:100F3000E80082FDEACF8091E80080FFE1CF809158
:100F4000F3002091F200382F6115710519F0283057
:100F5000310558F091E02830310509F090E02091FA
:100F6000E8002E772093E800CBCF81918093F100A9
:100F7000615071092F5F3F4FE7CF8091AF04882305
:100F800041F0853041F08091E80083FFBECF81E0E1
:100F9000089582E0089583E008958091A40408955F
:100FA00087E797E7909301088093000888E19AE02B
:100FB0000FB6F894A895809360000FBE90936000E0
:100FC000FFCF2FB7F89460919E0470919F04809199
:100FD000A0049091A1042FBF089590914A019923F4
:100FE000D1F090919B0497FF16C0E82FE695E69507
:100FF000E695EE31E0F4F0E0E253FE4F282F277043
:1010000081E090E001C0880F2A95EAF780959281EF
:10101000892382830895E8ECF1E09191891303C05C
:10102000DF0111971C9291E0EE3CF907B1F70895AA
:1010300090914A019923C1F090919B0497FF14C0AD
:10104000E82FE695E695E695EE31F8F4F0E0E25308
:10105000FE4F877021E030E001C0220F8A95EAF749
:101060008281822B82830895A8ECB1E0EFEF90E0BB
:101070002D91821751F0EF3F19F4211101C0E92F92
:101080009F5F9630A9F7EF3F09F408950E2E000CEC
:10109000FF0BEA53FE4FE6CFA3E0B0E0E2E5F8E055
:1010A0000C94672F2091990430919A0428173907DE
:1010B000A1F090939A0480939904E0919704F091A1
:1010C0009804309751F024E029839B838A8300841D
:1010D000F185E02DCE01019609952396E2E00C946E
:1010E000832FA3E0B0E0E7E7F8E00C94672F2091AE
:1010F00095043091960428173907A1F0909396042F
:1011000080939504E0919704F0919804309751F002
:1011100023E029839B838A830084F185E02DCE011F
:10112000019609952396E2E00C94832F8091930415
:10113000882359F0E0919704F0919804309729F0B2
:101140000190F081E02D0995089580E00895809147
:10115000880480FD16C081FD16C082FD16C08091F6
:1011600087048823A1F0883280F428E0829FC001A0
:10117000112468E270E00E94A82F862F672B39F0B7
:10118000089582E0089584E0089588E0089581E05C
:1011900008958091880480FD14C081FD14C082FDF3
:1011A00016C080918604882381F08E3180F420E57A
:1011B000829FC00111246EE170E00E94A82F862F4B
:1011C000089584E1089588E2089588E0089580E50F
:1011D0000895282F35EB2303C001112497FF04C085
:1011E00080589109892F089580589F4FFBCFFA01AD
:1011F000811101C0FB01099508950895E2ECF2E028
:101200001182828184608283089580917804982F6E
:101210009C7F61F4837084608093780480917B0468
:10122000893718F088E780937B0408958C3AB0F3EF
:101230008370886AF1CFAF92BF92DF92EF92FF92F4
:101240000F931F93CF93DF93182F062FE901493790
:1012500008F048E7E42FF0E0E957FC4F011110C017
:10126000E4915E2F4E2F4983E8835A83DF91CF911B
:101270001F910F91FF90EF90DF90BF90AF90089576
:10128000202F30E04491D42EE42EF12C56E0159F0F
:10129000C0011124EFEFF0E0BF010E94432F812F26
:1012A00090E0880F991F55E5569FD001579FB00DCC
:1012B00011248A1B9B0B982F990F890F5F01A21A8B
:1012C000B30AAE9CD001AF9CB00DBE9CB00D1124F2
:1012D0005B2F089F80011124012F11275F01A01AA5
:1012E000B10AAE9C8001AF9C100DBE9C100D112464
:1012F0005F01A81AB108A29EC001A39E900DB29EE4
:10130000900D1124892F9927E81BF90BEE9DC00140
:10131000EF9D900DFE9D900D1124E92F6230710517
:10132000A1F050F46115710509F49DCF613071058C
:1013300081F0EB2F512F97CF6430710569F080F069
:101340006630710509F48FCFF4CFE42F4B2F592F5E
:101350008ACFE42F412F87CFEB2F542F492F83CFF4
:101360004B2F5D2DE12F7FCF80E00895F894E82F7B
:10137000E295EF70F0E031A1282F2F7081E090E02E
:1013800001C0880F2A95EAF7982F9095932391A38F
:1013900092A1892B82A3789408950F931F93809133
:1013A0009304882329F00E94E1071F910F9108956B
:1013B0000E94E10700916E0210916F02209170026D
:1013C00030917102600F711F821F931FEECF9091B9
:1013D0009B0492FF10C041E0282F2471243009F0B3
:1013E00040E031E0282F2871283009F030E0431721
:1013F00011F02CE0822793FF10C041E0282F2471C8
:10140000243109F040E031E0282F2871283109F01B
:1014100030E0431711F02CE0822730919C0430FF1C
:1014200010C051E0282F2171213009F050E041E037
:10143000282F2871283009F040E0541711F029E0D6
:10144000822731FF10C041E0282F2171213109F09E
:1014500040E031E0282F2871283109F030E04317AF
:1014600011F029E0822794FD877E08958238910546
:10147000B9F1B0F48133910509F47DC048F48932A3
:10148000910509F46DC08A32910509F47BC0089575
:101490008533910509F45FC08933910509F10895F9
:1014A000833E9105D9F138F4803E910529F1823EC1
:1014B000910579F10895863E9105D9F1873E910510
:1014C00009F43EC0843E910541F520919C0421FF22
:1014D00024C080919B0484FD19C087EE90E008959C
:1014E00020919B04237009F05AC020919C0423FF93
:1014F00014C089E290E0089520919B0420FD38C03B
:1015000030919C0430FF09C024FF43C090E080E08C
:10151000089520919B0422FDF7CF089520919B040C
:1015200022FD3AC030919C0430FD39C024FFF5CF34
:10153000EDCF20919B0423FFF0CF24FDE7CFCDCF4B
:1015400020919B0423FD2EC030919C0431FFEECFEF
:1015500084EE90E0089520919B0425FFDECFC9CF53
:1015600020919B0425FD21C020919C0423FFD5CF11
:1015700089E390E0D2CF20919B0426FFCECF8AE270
:1015800090E0089520919B0426FFC7CF81E390E06F
:10159000089583EE90E0089582EE90E0089580EE45
:1015A00090E0089586EE90E0089585E390E0089538
:1015B000972F7830B8F46630A8F48530B0F470E036
:1015C00026E0929F600D711D1124FB0190E3899F1D
:1015D000E00DF11D1124EE0FFF1FE851FF4F859123
:1015E0009491089580E090E0089581E0FCCF1F93EE
:1015F000CF93DF930E94360AEC01C11580E5D8072E
:10160000F0F5C11580E4D80708F09CC0C03ED105B4
:1016100020F5CD3CD10508F082C0C83AD10578F458
:10162000C53AD10508F073C0C130D10519F1209732
:1016300009F1C430D105F0F4D0E0C0E01BC0C33CD8
:10164000D105D0F7C85AD0E0CC0FDD1FC25BDE4F0A
:101650000990D881C02DD4640DC0C11580E2D8078F
:1016600008F0D1C0C11581E0D80708F05AC0C83EC3
:10167000D10510F7CE01DF91CF911F910895C036AB
:1016800082E5D80718F5C03482E5D80708F06BC0AA
:10169000C03282E5D80708F05FC0C11582E5D807DF
:1016A00008F497C02C2F2695269580E2289F90015C
:1016B00011248C2F8370C1E0D0E002C0CC0FDD1F5D
:1016C0008A95E2F7C22BD32BDD68D4CFC03A82E5EE
:1016D000D80760F4C03882E5D80708F459C0CF7144
:1016E000D0E0DC2FCC27C46FD06AC4CFC03C82E5E9
:1016F000D80708F462C0C03E82E5D80708F09CCF46
:10170000DC2FCC27CC27DF71C06FD06AB3CFC55A8E
:10171000D0E0C55BDE4FC881D0E0D064ABCFD065F0
:10172000A9CF8D2F0E94E709182FCE0199270E947B
:10173000360AC12FD0E0DC2FCC27CC27DF71C82B95
:10174000D92B98CFCE0199270E94360ACC27DF707B
:10175000C82BD92BD06A8ECFCF71D0E0DC2FCC270D
:10176000C16FD06A87CF2C2F26952695277080E2EF
:10177000289F900111248C2F8370C1E0D0E002C01B
:10178000CC0FDD1F8A95E2F7C22BD32BDC6872CF1A
:101790002C2F26952695277080E2289F90011124F2
:1017A0008C2F8370C1E0D0E002C0CC0FDD1F8A9582
:1017B000E2F7C22BD32BDA685DCF8C2F8F710E949A
:1017C000E709C82FD0E0DC2FCC27CC27DF71D0620F
:1017D00051CF8C2F8F710E94E70955E0D695C795A0
:1017E0005A95E1F7CF70D0E0DC2FCC27282F30E0DE
:1017F00084FF05C044E0220F331F4A95E1F7C22B56
:10180000D32BD06937CF8D2F8F710E94E709182F06
:10181000CE0199270E94360AC12FD0E0DC2FCC27B9
:10182000CC27DF71C82BD92BD2CF809590913A026B
:10183000982390933A02089580913A029091110270
:10184000892B90911002992391F0892B90914A0154
:10185000992371F090919B0497FF0AC09EE120EDBF
:1018600031E040E0915040F441111092100208958F
:1018700096E028EC31E0F5CFF90151919F01552315
:1018800089F34F5FEFCF8091F2049091B9049813E0
:1018900001C008958F5F8770FACFB0E0A0E0E3E564
:1018A000FCE00C94602F7C01009191021091920257
:1018B00080913B0290913C02082B192BCFE0D0E0A5
:1018C000CC24C394D12CBC2EC6010C2E02C0880F90
:1018D000991F0A94E2F780239123892B49F42197D9
:1018E00090F7B12C8B2DCDB7DEB7E9E00C947C2FAF
:1018F000B7018C2F0E94D80A0E94F70A019779F34A
:10190000F1CFCF93DF93EC010E944D0CBE010E94FA
:10191000D80A0E94F70ADF91CF910895983078F5A0
:10192000863068F5E82FF0E086E0989FE00DF11D25
:1019300011249E2F977083E0F695E7958A95E1F73D
:10194000EE0FFF1FEE0FFF1FE051FE4F50E040E093
:1019500080E0219130E0092E02C0369527950A9447
:10196000E2F721703327042E01C0220F0A94EAF710
:10197000822B4F5F5F4F4430510559F7089580E047
:101980000895983098F5863088F5E82FF0E086E0E5
:10199000989FE00DF11D11248E2F877041E001C04A
:1019A000440F8A95EAF783E0F695E7958A95E1F783
:1019B000EE0FFF1FEE0FFF1FE051FE4F30E020E063
:1019C00070E05191DF011197CB01022E02C0969574
:1019D00087950A94E2F7817081958527842385276E
:1019E0008C932F5F3F4F2430310559F708959C01A8
:1019F000267033272630310531F4886090939202A7
:101A0000809391020895877FF9CF21E030E002C0F2
:101A1000220F331F8A95E2F720953095809191022D
:101A200090919202822393230E94F70C0895909143
:101A30000F028095892380930F02282F277069F465
:101A4000891759F090919C0492FF07C0869586955E
:101A500086950E94050D10920F02089521E030E056
:101A600002C0220F331F8A95E2F780919102909174
:101A70009202822B932B0E94F70C089590933C02C4
:101A800080933B020895FC0124812223C1F08081D0
:101A900091810E94810C92959F70963091F058F43C
:101AA000925F9F70923058F4803F19F030F4883E76
:101AB00030F481E008959A5FF4CF843FD1F380E061
:101AC0000895883EB0F3813FD1F7F3CF292F332714
:101AD00040E02115310511F0C90148E09C0164E0A6
:101AE000369527956A95E1F72115310511F04C5F80
:101AF000C9019C0136952795369527952115310505
:101B000011F04E5FC90196958795892B09F04F5FBB
:101B1000842F0895A6E0B0E0E0E9FDE00C94662F84
:101B200049835A8349815A819923A1F0222391F054
:101B3000CA010E944D0C182F682F89819A810E943A
:101B4000C10C69817A81812F0E94D80A2696E3E030
:101B50000C94822FCA010E948E0C182FF2CFCF93C3
:101B6000DF93682F81E06A3019F06D3031F480E046
:101B70000E943D0EDF91CF9108958091FF069091D4
:101B8000000726E0FC01A9EFB6E001900D922A952E
:101B9000E1F7603E08F458C026E0FC0111922A9556
:101BA000E9F7C091FF06D091000746E050E0BE0182
:101BB00089EF96E00E9479309E01295F3440892B9D
:101BC00041F1C90145E0969587954A95E1F741E0D5
:101BD00050E0BA0102C0660F771F8A95E2F7CB0189
:101BE0006091F7047091F804862B972BB9016B5F15
:101BF0007F4FE5E076956795EA95E1F702C0440FDF
:101C0000551F6A95E2F7842B952B9093F8048093E7
:101C1000F7042A5F3F4F4091F604642F70E0C9013A
:101C20000E94432F481B463010F4240F311D21150C
:101C300072E0370710F030E020E027503B4F309340
:101C400000072093FF0696CFF6E06F9FB0011124A6
:101C50006550794F46E050E00E946330A2CFCF93A9
:101C6000DF93EC01FE018491811103C0DF91CF91DC
:101C700008950E94AF0D2196F5CFCF93382FE091B4
:101C8000FF06F0910007E95FF4402091F604622F0F
:101C900070E0CF010E94432F281B822F332361F075
:101CA00066E00E948E2FC82FC15010F4CF91089586
:101CB00080E20E94AF0DF8CF9F01280F311D211542
:101CC000324018F080E0F0E0E0E08E0F9F2F911D91
:101CD00087509B4F909300078093FF06E7CF0E94A9
:101CE0002F0E81E00E943D0E089580914A018823C5
:101CF00059F180919B0487FF27C00E941C0C8093A0
:101D0000CF0140E250E062E172E08EEC91E00E948F
:101D10007930892BC1F080E2EEECF1E0A2E1B2E093
:101D200001900D928A95E1F7E0919704F091980463
:101D3000309749F086E08093CE010480F581E02D54
:101D40008EEC91E0099508950E941C0C8093C601C9
:101D500048E050E062E372E086EC91E00E94793066
:101D6000892B89F388E0E6ECF1E0A2E3B2E0019090
:101D70000D928A95E1F7E0919704F09198043097DD
:101D800011F30280F381E02D86EC91E0DBCF882314
:101D900021F00E94150C0E94750E0895882339F0D9
:101DA00090913A02982B90933A020E94750E0895F2
:101DB0000F931F93CF93DF938B01EA019091AF04B0
:101DC000943061F58093E9008FEF9091E8008150A5
:101DD00095FD06C095ED9A95F1F700008111F5CFBC
:101DE0008091E80085FF1AC00E949206811111C0FF
:101DF0008091E80085FD06C08091E8008E77809391
:101E0000E800F2CFF80181918F018093F1002197D2
:101E100079F78091E8008E778093E800DF91CF9189
:101E20001F910F91089543E050E0BC0182E00E94B1
:101E3000D80E089546E050E0BC0182E00E94D80E22
:101E4000089540E250E0BC0182E00E94D80E08955F
:101E5000CF93DF93EC0148E050E0BC0181E00E94A9
:101E6000D80E88E0FE01A5EAB4E001900D928A95B3
:101E7000E1F7DF91CF910895609146018091780458
:101E800080FF20C08091450143E0849FC001112460
:101E900088539D4F539A2BB1277F3BB138605FB772
:101EA000F894FC01649FE00DF11D1124BF01681737
:101EB0007907D1F45FBF8FE594E00197F1F700C097
:101EC00000000895809147019091480123E0829F8E
:101ED000F0011124E853FD4F8917A0F611821082FA
:101EE00012828F5F3396F8CFFC014191CF01E8E079
:101EF0003BB9000000C047FF2BB9440F000000C0F1
:101F000000C000C02BB900C0EA9591F7D0CF0F9365
:101F10001F93CF93DF93EC0110E000E09091490113
:101F20009017110609F06CF40E943C0F8C8190E030
:101F30000196817099278C83DF91CF911F910F912A
:101F4000089520914701A801420F511D9A01220FC7
:101F5000331F240F351F28533D4F4C8160917A0465
:101F60008091790496959017110651F04CF0442316
:101F700049F040917B040E941B090F5F1F4FCECF99
:101F80004423B9F340E0F7CFB0E0A0E0EAECFFE093
:101F90000C945D2FEC014C81042F10E09801D801C6
:101FA0000E943B319B01AC010E9406314B015C0158
:101FB000E0E2F0E0E01BF10BA5E5B0E0AC019B0135
:101FC0000E9406316B017C019F01DF010E94C22F3C
:101FD0009B01AC010E9411319B01AC01280D391D00
:101FE0004A1D5B1DC701B6010E941931F22E822FD6
:101FF00090E039E23F1520F143E0249F9001112445
:1020000035952795122F109500E085E5E82EEF18FD
:1020100080914901081718F10E943C0F9C8181E0D2
:10202000992319F0903219F48FEF80934401809135
:102030004401890F8C83CDB7DEB7ECE00C94792F87
:1020400025E530E0B901681B790B9B01220F331F96
:10205000260F371F37FFD4CF2F5F3F4FD1CF8E2DA5
:1020600001FD8F2D20914701622F600F7727771F89
:102070009B01220F331F260F371F28533D4F412F3F
:1020800060917A040E941B090F5FC2CFEF92FF920A
:102090000F931F93CF93DF93EC018C81811109C0C3
:1020A00081E08C831092C60292E09093430180936A
:1020B0004201809147019091480123E0829FF00105
:1020C0001124E853FD4F891758F110E003E06091A7
:1020D0004901161758F10E943C0F8091420120914E
:1020E000C602280F2093C60290914301980F909347
:1020F0004301191654F4022E000C330B4091490190
:102100004150550B2417350734F0819580934201D7
:10211000813009F41C82CDB7DEB7E6E00C947F2F46
:102120001182108212828F5F3396CDCFE12EF12C77
:1021300070E0C7010E94A82F20914701820F482F0D
:1021400050E02091C602022E000C330BE216F3067B
:10215000BCF020914301022E000C330B2E153F05DD
:102160007CF0809F9001112428533D4F40917B04C7
:1021700060917A04809179040E941B091F5FA7CFA8
:10218000FA01EE0FFF1FE40FF51FE853FD4F118218
:1021900010821282F3CFB0E0A0E0E1EDF0E10C9408
:1021A0005D2FEC018A81BB24BA9480FD02C0BB2460
:1021B000B394A09049018C81811109C081E0B812CB
:1021C00020C08FEF8A0D8093C50281E08C83F12CB3
:1021D000E12C46E3942EEA14B8F00E943C0F809163
:1021E000C50291E0B91257C0811150C080914901D8
:1021F00081508093C5021C82CDB7DEB7ECE00C9411
:10220000792F1092C502E1CF009147010E0D1F2DCD
:10221000111DC801880F991F080F191F08531D4F62
:10222000F80111821082128234E0C32ED12C812C4D
:102230008091C502880D87332CF1692D0E949A2F59
:10224000892F082E000C990B8E159F0591F4809113
:102250007B048C9DA0018D9D500D112455954795B3
:1022600055954795980160917A04809179040E9470
:102270001B098B0CF1E0CF1AD108D1F68FEFE81AC9
:10228000F80AA9CF87FFDDCF8A0DDBCF815080937D
:10229000C502BC82B1CF90E001966091490170E027
:1022A0000E94A82F8093C5028C83A6CFEF92FF9245
:1022B0001F93CF93DF93EC0110E0EE24EA94F12C0E
:1022C00060914901161770F00E943C0F9A818C8131
:1022D00090FF27C08F5F8C83DF91CF911F91FF907C
:1022E000EF90089520914701422F410F5527551F28
:1022F000CA019A01220F331F280F391F28533D4F5F
:1023000070E0C7010E94A82F962F8C8140917B041A
:1023100060917A04199F800D11240E941B091F5F90
:10232000CFCF8150D8CF9091780490FF0EC090917C
:1023300047012091480133E0939FF0011124E853B5
:10234000FD4F921718F00E943C0F0895818360831F
:1023500042839F5F3396F5CFA3E0B0E0E2EBF1E17B
:102360000C94652F8C018091C70281110AC09E01D7
:102370002F5F3F4F48E76FEF0E941B098A818093D0
:10238000C702F8016481613069F08091C70240E0C2
:10239000662361F040E0623011F44091C70280E0B2
:1023A00060E004C06091C70240E080E00E949311A9
:1023B000F801848190E0019663E070E00E94A82F0C
:1023C00084832396E4E00C94812FA3E0B0E0EBEE4D
:1023D000F1E10C94672F9091780490FF0AC09E0160
:1023E0002F5F3F4F0E941B094B8169818A810E94A8
:1023F00093112396E2E00C94832FCF93DF93EC01AB
:10240000E8E7F4E0438162818C810E94E5118C81D0
:102410008F5F8C83DF91CF910895CF93DF93EC0191
:10242000EC81F0E0E457FB4F4491E8E7F4E062818F
:1024300081810E94E5118C818F5F8C83DF91CF9128
:102440000895B0E0A0E0E7E2F2E10C945F2F7C0198
:102450005B016A0180916D0201E010E08A3010F4A6
:102460000AE010E0C1E0D0E0B501C701F60109952E
:10247000811104C021960C171D072CF4CDB7DEB7CF
:10248000EAE00C947B2FCC9F9001CD9F300D300D56
:10249000112490E080E045E34A95F1F700000196B1
:1024A00082179307C1F7E0CFB0E0A0E0EAE5F2E1E0
:1024B0000C94612F6C017B0164E670E088E70E9458
:1024C000A12C8C01E601EC0CFD1C17FD0BC0FE01DC
:1024D000849164E670E00E940D2D8C012196CE154A
:1024E000DF0599F70E94832D81E00115110509F0A0
:1024F00080E0CDB7DEB7E8E00C947D2F80918404B6
:1025000090918504911103C091E089270895882353
:1025100069F062E070E08EE895E00E94541281114B
:1025200003C08091840408951092840480918404EF
:10253000EBCFCF93C0918404809185048823D1F0A0
:102540000E94E107605A75418F4F9F4F609380044E
:10255000709381048093820490938304C11108C016
:1025600062E070E08CE895E00E945412811105C091
:10257000C09184048C2FCF91089581E080938404CE
:10258000F7CFB0E0A0E0E7ECF2E10C94592FFC01AA
:102590006280448081E08483ECE8F4E07490EBE0B6
:1025A000F5E0E491C0917B04C695C158D0E0CC0F12
:1025B000DD1FCD2FDD27812C75E0972EAA24AA944C
:1025C000B12C55245A94E719EE2EF12C8091490133
:1025D000881638F00E943C0FCDB7DEB7E0E10C94CE
:1025E000752FC82CD12C82E0861568F09C9CF001D8
:1025F0009D9CF00D1124E659FC4F80917904808355
:1026000080917A048183411023C09C9CF0019D9CA1
:10261000F00D1124E659FC4F1382128220914701DC
:10262000C601820F911D9C01220F331F280F391FF5
:1026300028533D4F9C9CF0019D9CF00D1124E659C0
:10264000FC4F4281618180810E941B098394BECF2F
:102650009C9C80019D9C100D112406591C4FF80173
:1026600083818823F1F081508383859DC0011124EB
:10267000648170E00E94432FFB01FF27E457FB4F6A
:102680008491E82FE719E59DC0011124B7010E944C
:10269000432F80917B04689FB0011124F80172835D
:1026A000BDCF0E945330B5010E94A82F8C179D0703
:1026B0000CF0B4CFF2E0F61598F40E945330B50157
:1026C0000E94A82FF80180830E94533020917A0441
:1026D0002695622F70E00E94A82F280FF801218311
:1026E0009C9CF0019D9CF00D1124E659FC4F128238
:1026F00080917B04893C58F088EC9C9CF0019D9C67
:10270000F00D1124E659FC4F8483838387CF8431F5
:10271000A0F784E1F2CFB0E0A0E0E1E9F3E10C94AE
:102720005D2F49015A016B017C010E94050984015A
:10273000A4016A2D7B2D88E090E00E94C5309401B1
:102740004A2D5B2DB601C70100E20E94EC2F622FDB
:1027500084E290E00E94B330CDB7DEB7ECE00C9499
:10276000792FA3E0B0E0E7EBF3E10C94602F082FA2
:10277000E62EF42EC22E9091780490FF41C0209155
:102780007904281308C080917A04861304C08091CC
:102790007B04841729F08091C40282608093C40274
:1027A000E92FE695E695AE2FB0E0A856BE4F8C9186
:1027B0008093C2029C7F943039F59E012F5F3F4F7A
:1027C0004F2D6E2D802F0E941B094B8169818A81BC
:1027D0000E94931100937904E0927A04F0927B04B2
:1027E000CC2071F02091780460917C0470917D047C
:1027F000302FA70180917E0490917F040E948B135B
:102800002396E9E00C947C2F823019F4F0907B043D
:10281000E1CF8630A1F1893091F18931D9F6E951C2
:102820006E2F6170B62EE695F0E0E957FB4F1491DC
:10283000D12C60914901D61618F00E943C0FCACFE6
:10284000D19EC001112470E00E94432F802FB1104F
:1028500014C0860F20914701622F6D0D7727771FD7
:102860009B01220F331F260F371F28533D4F4F2D3B
:102870006E2D0E941B09D394DCCF861BEBCF022F59
:10288000A9CFE8E7F4E0438121E1421B08F440E0EE
:1028900021E0628181810E94B1130895E8E7F4E0AC
:1028A000438121E1420F08F44FEF21E062818181F1
:1028B0000E94B1130895E8E7F4E0628121E1621B10
:1028C00008F460E021E0438181810E94B113089502
:1028D000E8E7F4E0628121E1620F08F46FEF21E0A4
:1028E000438181810E94B1130895E8E7F4E081817A
:1028F00021E0438162818A500E94B1130895E8E784
:10290000F4E0818121E043816281865F0E94B113FE
:10291000089580917C04882319F0815080937C0471
:10292000209178043091790440917A0450917B048D
:1029300060917C0470917D0480917E0490917F046D
:102940000E948B13089580917C04833018F48F5F6C
:1029500080937C04209178043091790440917A042A
:1029600050917B0460917C0470917D0480917E0481
:1029700090917F040E948B130895E8E7F4E085E0CE
:10298000808311828FEF828388E783831482A2EC95
:10299000B2E012968C911297836012968C93758197
:1029A00025E030E04FEF58E760E0868197810E9494
:1029B0008B13089590919C0492FB222720F92817ED
:1029C00079F080FB92F990939C0460919B04709144
:1029D0009C0484E090E00E94D13082E00E94170DB8
:1029E0000895A4E0B0E0E7EFF4E10C94662F409185
:1029F00051025091520260915302709154022FB7CC
:102A0000F89480919E0490919F04A091A004B091AD
:102A1000A1042FBF841B950BA60BB70B11E08436C6
:102A20009105A105B10570F10E94CD096E5F7F4F40
:102A30008F4F9F4F69837A838B839C83809115018D
:102A4000909116018B5A9D4F4091140150E04530F2
:102A5000510510F044E050E0BE016F5F7F4F0E94CF
:102A6000863082E090E00E94CD2E182F882351F00E
:102A70000E94E107609351027093520280935302C7
:102A800090935402812F2496E3E00C94822FABE0C4
:102A9000B0E0EDE4F5E10C94672F88E0E8E7F4E0BE
:102AA000DE01119601900D928A95E1F78091C202A4
:102AB0009091C302A091C40289879A87AB872B8526
:102AC0004091690250916A0260916B0270916C02B0
:102AD0003FB7F89480919E0490919F04A091A00428
:102AE000B091A1043FBF841B950BA60BB70B843696
:102AF0009105A105B10510F4222319F180911D0162
:102B000090911E018B5A9D4F40911C0150E04C301A
:102B1000510510F04BE050E0BE016F5F7F4F0E9407
:102B2000863083E090E00E94CD2E882369F00E94D9
:102B3000E1076093690270936A0280936B0290933D
:102B40006C021092C40281E02B96E2E00C94832F79
:102B5000EF92FF921F93CF93DF9300D000D00F929C
:102B6000CDB7DEB77B0190E080E00E94CD2E182F1C
:102B7000882309F487C04091070150E041155105B1
:102B800011F041E050E060910801709109016B5A29
:102B90007D4FCE0105960E94863040914D025091A6
:102BA0004E0260914F02709150022FB7F8948091BD
:102BB0009E0490919F04A091A004B091A1042FBF06
:102BC000841B950BA60BB70B84369105A105B105A7
:102BD00040F486E592E00E945C069D81891709F425
:102BE00051C081E090E00E94CD2E81111AC010E00A
:102BF0008091490290914A02A0914B02B0914C02FF
:102C0000F70180839183A283B383812F0F900F906C
:102C10000F900F900F90DF91CF911F91FF90EF9049
:102C2000089540910F0150E04530510510F044E007
:102C300050E060911001709111016B5A7D4FCE01EF
:102C400001960E94863086E592E00E945C069D8196
:102C50008913CDCF0E94E10760934D0270934E021D
:102C600080934F029093500289819A81AB81BC81FD
:102C70008093490290934A02A0934B02B0934C0276
:102C800011E0B6CF8091560290915702A091580260
:102C9000B091590289839A83AB83BC831111E4CF2D
:102CA000A7CFA8E0B0E0E7E5F6E10C94672F66EE69
:102CB0007EEF90E080E00E94D13060E082E090E022
:102CC0000E94B33081E090E090933C0280933B02FD
:102CD00061E083E090E00E94B33060E074E184E062
:102CE00090E00E94D13060E086E090E00E94B33036
:102CF0006FEF87E090E00E94B33040E050E0BA010F
:102D000088E090E00E94C53060E084E290E00E949C
:102D1000B33060E087E190E00E94B33060E08CE087
:102D200090E00E94B33060E08DE090E00E94B3300C
:102D300019821A821B821C821D821E821F821886A3
:102D400048E050E068E170E0CE0101960E94A330B7
:102D500040E050E0BA0180E290E00E94C53040E0DF
:102D600050E0BA018FE090E00E94C53040E050E0B2
:102D7000BA0183E190E00E94C5302896E2E00C940D
:102D8000832F1F920F920FB60F9211242F933F9310
:102D90004F935F936F937F938F939F93AF93BF9363
:102DA000EF93FF938091E10082FF09C08091E200E0
:102DB00082FF05C08091E1008B7F8093E1008091CC
:102DC000DA0080FF24C08091D80080FF20C080916D
:102DD000DA008E7F8093DA008091D90080FF9DC059
:102DE00080E189BD82E189BD09B400FEFDCF81E0AB
:102DF0008093AF048091A204811109C00E947306E0
:102E00000E9414078091E20084608093E200809128
:102E1000E10080FF17C08091E20080FF13C0809125
:102E2000E2008E7F8093E2008091E20080618093D7
:102E3000E2008091D80080628093D80019BC85E0C0
:102E40008093AF048091E10084FF2BC08091E20069
:102E500084FF27C080E189BD82E189BD89B5982FB3
:102E6000917080FFFBCF8091D8008F7D8093D80038
:102E70008091E1008F7E8093E1008091E2008F7E5F
:102E80008093E2008091E20081608093E200809173
:102E9000B004882309F447C084E08093AF04809194
:102EA000AF048091E10083FF27C08091E20083FF9F
:102EB00023C08091E100877F8093E10082E08093CE
:102EC000AF041092B0048091E1008E7F8093E10006
:102ED0008091E2008E7F8093E2008091E200806129
:102EE0008093E20042E060E080E00E94E206809190
:102EF000F00088608093F000FF91EF91BF91AF9157
:102F00009F918F917F916F915F914F913F912F9101
:102F10000F900FBE0F901F90189519BC1092AF0420
:102F20001092A20474CF8091E30087FD93E0909308
:102F3000AF04B5CF78941F921FB61F9211248F93C0
:102F40009F93AF93BF9380919E0490919F04A09113
:102F5000A004B091A1040196A11DB11D80939E040F
:102F600090939F04A093A004B093A104BF91AF914C
:102F70009F918F911F901FBE1F9018959C014FB776
:102F8000F89480919E0490919F04A091A004B09128
:102F9000A1044FBF821B930B08952FB7F894809123
:102FA0009E0490919F04A091A004B091A1042FBF12
:102FB00008950E94CD179C0190918F0480919004F8
:102FC000982B21F030938C0420938B0490919104E2
:102FD00080919204982B21F030938A0420938904E5
:102FE000E0919704F0919804309749F082E0809343
:102FF0008D040680F781E02D8DE894E00995089511
:1030000010923A0280914A01882339F180919B0401
:1030100087FF23C0E0EDF1E08EE1DF011D928A958C
:10302000E9F790E080E00E94710890E080E00E9463
:103030004C08109211020E94750E86E0EDE8F4E053
:10304000DF011D928A95E9F7109286041092870499
:10305000109288040E94D9170895E8ECF1E086E008
:10306000DCCFAAE2B0E0E7E3F8E10C94662F81EB55
:1030700094E02091F100FC012193CF01F4E0893B21
:103080009F07B9F78091B204833009F470C0B8F497
:10309000813009F447C0823009F4B1C08091E80062
:1030A00083FF7EC28091B1049091B2049A3008F0FF
:1030B00077C2E92FF0E0E45BFE4C0C94BC2F8A3021
:1030C00009F48CC08B3009F46FC0893039F78091D6
:1030D000B104813219F78091B5049091B60402973A
:1030E000E8F68091E800877F8093E8008091E8000F
:1030F00082FF38C09091F3008091F200029731F482
:103100008091F100813011F0863021F48091F1003E
:103110008093A4048091E8008B778093E8000E945C
:10312000C306BCCF8091B104813A09F0B7CF80913A
:10313000E800877F8093E8008091B5049091B60401
:10314000892B61F468E085EA94E070E00E946F07E3
:103150008091E8008B778093E800A0CF60E090E05A
:1031600080E0F3CF8091AF048111C0CF97CF8091E1
:10317000B104813A09F092CF8091B5049091B604E0
:10318000892B09F08BCF8091E800877F8093E8003E
:103190008091E80080FFFCCF80914A018093F1008C
:1031A0008091E8008E77B9CF8091B104813209F027
:1031B00075CF8091B5049091B604892B09F06ECF3C
:1031C0008091E800877F8093E8000E94C306809189
:1031D000B30480934A010E94001860CF8091B1042B
:1031E000813209F05BCF8091E800877F8093E8000F
:1031F0000E94C3068091B4048093A3044FCF8091B2
:10320000B104813A09F04ACF8091E800877F80932A
:10321000E8008091E80080FFFCCF8091A304BECF3E
:10322000803899F0823809F0BBC18091B5048F7065
:10323000873008F0B5C18093E9008091EB0085FBF1
:10324000882780F91092E90006C08091AD04909122
:10325000AE04911182609091E800977F9093E8000E
:103260008093F1001092F1008091E8008E7794C174
:10327000882309F482C1823009F092C18091B3049D
:10328000811185C18091B5048F702FEF280F2630F2
:1032900008F086C18093E9002091EB0020FF77C100
:1032A000933031F48091EB0080628093EB006FC12A
:1032B0009091EB0090619093EB0021E030E001C031
:1032C000220F8A95EAF72093EA001092EA00809193
:1032D000EB008860EACF811163C11091B3041F77BE
:1032E0008091E3008078812B8093E3008091E80057
:1032F000877F8093E8000E94C3068091E80080FFEA
:10330000FCCF8091E30080688093E30082E011119C
:1033100083E08093AF0444C18058823008F040C1FC
:103320008091B3049091B4048C3D23E09207A1F501
:1033300083E08A838AE289834FB7F894DE0113968B
:1033400020E03EE051E2E32FF0E050935700E4919B
:1033500020FF03C0E295EF703F5FEF708E2F90E08B
:10336000EA30C0F0C7968D939D932F5F243159F7B3
:103370004FBF8091E800877F8093E8006AE270E0A9
:10338000CE0101960E946F078091E8008B778093B1
:10339000E80006C1C096E7CF4091B5045091B6044D
:1033A000292F33272330310509F444C078F5213023
:1033B000310509F46FC08BE390E0EAE8F6E02230D3
:1033C000310509F0EDC02091E800277F2093E80047
:1033D0002091B7043091B8048217930708F49C0138
:1033E00040E02115310509F064C0411162C08091AF
:1033F000E80082FDC9CF8091AF04882329F285308F
:1034000019F28091E80083FFF2CFBECF213231055F
:10341000A9F12232310509F0C3C04115510509F463
:1034200043C04130510509F0BBC086EB90E0E0E9B4
:10343000F5E0C9CF992781309105C1F0009759F087
:10344000029709F0ADC0E7EDF6E0E4918E2F90E031
:10345000E7EDF6E007C0E7EFF6E0E4918E2F90E0AD
:10346000E7EFF6E0009709F49BC0ADCFE5EEF6E09C
:10347000E4918E2F90E0E5EEF6E0F4CF4115510592
:1034800071F04130510509F08BC089E090E0E5EB27
:10349000F6E099CF82E190E0E5ECF6E094CF89E0A8
:1034A00090E0ECE9F6E08FCF84E490E0E6E4F6E02B
:1034B0008ACF8091AF04882309F466CF853009F460
:1034C00063CF8091E80083FD5FCF8091E80082FDAB
:1034D0008ECF8091E80080FF84CF9091F30080919F
:1034E000F2002115310519F08830910550F041E0C6
:1034F000089709F040E08091E8008E778093E8001B
:1035000070CF44914093F1003196215031090196DA
:10351000E8CF803809F044C08091E800877F80932D
:10352000E8008091B0048093F1009ECE811138C0F4
:103530001091B3041230A0F58091E800877F80934A
:10354000E8001093B0040E94C306112311F084E038
:1035500005C08091E30087FDFACF81E08093AF043E
:1035600042E061EC81E00E94E20642E261EC82E02E
:103570000E94E2068091AF0413C08091B3048130B1
:1035800079F481E0933009F080E08093AE041092EA
:10359000E9008091E800877F8093E8000E94C306DD
:1035A0008091E80083FF0AC08091E800877F8093C4
:1035B000E8008091EB0080628093EB00AA96E3E044
:1035C0000C94822F1F920F920FB60F9211242F93FB
:1035D0003F934F935F936F937F938F939F93AF939B
:1035E000BF93CF93DF93EF93FF93D091E900DF7008
:1035F0008091EC00C82FC17080FDC0E81092E900F6
:103600008091F000877F8093F00078940E943118B9
:103610001092E9008091F00088608093F000CD2B3B
:10362000CF70C093E900FF91EF91DF91CF91BF91EF
:10363000AF919F918F917F916F915F914F913F914A
:103640002F910F900FBE0F901F9018950E94001899
:103650002FEF84E39CE0215080409040E1F700C0D0
:10366000000088E19AE00FB6F894A8958093600076
:103670000FBE90936000FFCF40918F049091910412
:1036800020919204662309F469C0942B922B209117
:103690009004922B31F098E09093860491E09093FF
:1036A00087048D3C41F40E94C90881958093900461
:1036B0000E94D91708958E3C19F40E94C908F6CFCC
:1036C0008F3C31F40E94C908819580938F04F0CF1C
:1036D000803D19F40E94C908F8CF893D29F40E9461
:1036E000A70880939104E4CF8A3D21F40E94A708A3
:1036F0008195F7CF8B3D31F40E94A7088195809387
:103700009204D6CF8C3D19F40E94A708F8CF9FE20F
:10371000980F983070F4815D990B21E030E001C082
:10372000220F8A95EAF780918E04822B80938E0473
:10373000BFCF8D3D31F480918804816080938804EF
:10374000B7CF8E3D21F4809188048260F7CF8F3D02
:1037500009F0AECF809188048460F0CF8D3C59F49D
:103760008091900487FF0DC01092900441110BC00E
:103770001092860408C08E3C81F480919004181643
:103780009CF3442381F08091910490919204892BC1
:1037900009F08ECF109287048BCF8F3C49F447FFFE
:1037A000F0CF10928F04809190048111ECCFE0CF84
:1037B000803D19F41416ACF3E4CF893D29F41916B1
:1037C00004F710929104DDCF8A3D19F497FFD9CF09
:1037D000F8CF8B3D29F427FFD4CF10929204D1CF9C
:1037E0008C3D19F41216CCF3CCCF9FE2980F983091
:1037F00090F4815D990B21E030E0B90102C0660FC1
:10380000771F8A95E2F7CB01809590918E048923EA
:1038100080938E04B6CF8D3D31F4809188048E7FE5
:1038200080938804AECF8E3D21F4809188048D7FF3
:10383000F7CF8F3D09F0A5CF809188048B7FF0CF23
:10384000882381F19CEF980F913A28F40E94ED07AC
:103850000E94750E089590E2980F983050F487708A
:1038600091E001C0990F8A95EAF7892F0E94150C03
:10387000EFCF9BE5980F933028F490E080E00E9412
:103880007108089598E5980F9B3128F490E080E046
:103890000E944C08089593E3980F933118F460E068
:1038A0000E943C1B0895CF93C82F8823B1F18CEF61
:1038B0008C0F813AA0F580914A01882301F1809113
:1038C0009B0487FF1CC0EC2FE695E695E695F0E09B
:1038D000E253FE4F828190E04C2F477021E030E0B0
:1038E00002C0220F331F4A95E2F782239323892BCC
:1038F00079F08C2F0E94ED070E94750E09C0E8EC4C
:10390000F1E08191C817A9F381E0EE3CF807C9F70F
:103910008C2F0E9418080E94750ECF91089580E2A6
:103920008C0F883068F4C77021E030E001C0220FAE
:10393000CA95EAF780913A02822B80933A02EBCF44
:10394000EBE5EC0FE33040F4F0E0E55BFE4F808107
:1039500090E00E947108E1CFE8E5EC0FEB3150F404
:10396000F0E0EE0FFF1FE25BFE4F808191810E942D
:103970004C08D3CF83E38C0F833178F661E08C2F32
:103980000E943C1BCACF0F931F93CF93DF93C62F88
:10399000D42F022FFC0185818823A9F06093F504C0
:1039A0000E94CD179093F4048093F304C77081E0D4
:1039B00001C0880FCA95EAF70E94CE0EDF91CF9121
:1039C0001F910F9108958091F504681335C080917F
:1039D000F3049091F4040E94BE17883C910560F5B1
:1039E00010E21D0FCD17B9F080E28C0F883040F443
:1039F000C77081E001C0880FCA95EAF70E94C70E20
:103A0000183048F481E09D2F977001C0880F9A9577
:103A1000EAF70E94CE0E802F0E94531C802F0E9436
:103A2000201C183058F6D77081E001C0880FDA9555
:103A3000EAF70E94C70EC2CFC77081E001C0880FAD
:103A4000CA95EAF7F6CF80919304882319F00E9473
:103A5000CD1708950E94CD09CB0108956091780497
:103A60006695669570E04BE050E087E391E00E9438
:103A70006C30892B19F481E08093C3020E94231DCE
:103A80009093BD028093BC028091C40284608093B5
:103A9000C40208959091780490FF3AC09370811108
:103AA00038C09460909378048091C40281608093C0
:103AB000C402662391F020917804309179044091FA
:103AC0007A0450917B0460917C0470917D04809114
:103AD0007E0490917F040E948B1360917804669518
:103AE000669570E04BE050E087E391E00E946C3017
:103AF000892BB9F00E94FE0881E08093BF0220E08C
:103B000040917B0460917A04809179040E94B11302
:103B100008958B3210F0986AC5CF880F880F982BC4
:103B2000C1CF0E942E1DE8CF80917804869586959E
:103B3000815009F48AE261E00E944A1D0895809153
:103B40007804869586958F5F8B3208F081E061E07E
:103B50000E944A1D08959091780490FF09C096959F
:103B60009695981728F0961718F40E949F1D0895AF
:103B700061E00E944A1D0895B0E0A0E0E2ECFDE1A2
:103B80000C945F2F8C01FC018481882309F467C0A9
:103B900021E0408151816281738195810E948A0D6B
:103BA000EC01F8019581992309F483C48181809304
:103BB000960280818093950280E280932F01D093BA
:103BC0009402C09393029E0130522115304238F482
:103BD000F8018681807F09F45EC0FE010AC09E0163
:103BE000305421153041C8F4F8018681807FFE01F0
:103BF00009F0FF27ED33F10528F4E455FF4FE49178
:103C0000E0932F01FE01E851FC47E730F10508F091
:103C100042C0EA5AFE4C0C94BC2F9E013A952115E5
:103C20003F41D8F29E01205A32452032310550F3EF
:103C3000FE01E0CF26E241EE61EEC8010E94C31C06
:103C400080910F02877059F0F8018581882339F03F
:103C500080919C0482FF03C082E00E94170DCDB7C3
:103C6000DEB7EAE00C947B2F27E245EE65EEE5CF68
:103C700026E241EE60EEE1CF27E245EE64EEDDCFD5
:103C800026E241EE62EED9CF27E245EE66EED5CFD1
:103C900028E241E0EBCF1092F5049E013057233229
:103CA000310508F020C484E090E00E949D3090939C
:103CB0009C0480939B04FE01E150F047E232F10541
:103CC00020F4E35AFE4C0C94BC2F80919B0481603D
:103CD00080939B0495C080919C04886080939C0491
:103CE0008FC080919B048260F3CF80919B0484609D
:103CF000EFCF80919B048860EBCF80919C04816022
:103D0000EDCF80919C048260E9CF80919B0480611B
:103D1000DFCF80919B048062DBCF80919B04806425
:103D2000D7CF0E94001880919B048068D1CF8091EA
:103D30009B048C60CDCF80919C048360CFCF809119
:103D40009B048E7FC5CF80919C04877FC7CF8091D5
:103D50009B048D7FBDCF80919B048B7FB9CF8091D9
:103D60009B04877FB5CF80919C048E7FB7CF8091D5
:103D70009C048D7FB3CF80919B048F7EA9CF8091CF
:103D80009B048F7DA5CF80919B048F7BA1CF0E9448
:103D9000001880919B048F779BCF80919B04837F39
:103DA00097CF80919C048C7F99CF80919B0482FB5C
:103DB000992790F921E0922790FB82F990FB83F9F3
:103DC00087CF80919C04982F909591708E7F892B3E
:103DD00090FB81F983CF90919B04892F8F7B96FF75
:103DE000806476CF0E94001890919B04892F97FBE6
:103DF00087F980586DCF61E08EE090E00E94B3308B
:103E000060919B0470919C0484E090E00E94D1300A
:103E10000E94001815CF60E0EFCF90919B04892F8E
:103E20008F7E94FF806154CF90919B04892F8E7F69
:103E300090FF81604DCF90919C04892F877F93FFE5
:103E400088604CCF85E35FC38091EE01811104C08F
:103E500089E20E94ED0759C385E3FBCF992309F45A
:103E600034C3C3303CE7D30709F4F7C008F0DAC025
:103E7000C1159CE7D90709F4E3C0C130DC4709F458
:103E8000F2C0F8018581C081D181882309F4F9C08D
:103E9000CE010E944D0CF82E682FCE010E94C10C5D
:103EA000BE018F2D0E94D80A0E94F70AD82FC92F71
:103EB000A82EF801C580B680B2943FE0B32280916D
:103EC0000F02877009F1EC2CCC20F9F0892F807F4C
:103ED000803469F080E28D0F8830B0F0892F807EC9
:103EE000803229F4F1E0FD1778F4BB2069F080916D
:103EF0009C0482FF09C082E00E94170D80910F028E
:103F00008770EE24E3948111E12CDC2ED2942FE013
:103F1000D2222BE02D1508F419C1ED2DF0E0E15867
:103F2000FE4C0C94BC2F8091780480FF1EC0282F7B
:103F30002E7F209378043091790440917A04509137
:103F40007B0460917C0470917D0480917E0490914B
:103F50007F040E948B130E94FE088091C40281603E
:103F60008093C4020E943C0F6BCE816080937804E2
:103F700061E0869586950E944A1D62CE44E95DE126
:103F80006FE97DE10E94F7085BCE4FE95DE164E9EE
:103F90007DE1F8CF45E754E16FE774E1F3CF4FE7F8
:103FA00054E165E774E1EECF4BE554E168E674E176
:103FB000E9CF48E654E16BE574E1E4CF41E454E134
:103FC0006EE474E1DFCF4EE454E161E474E1DACFF2
:103FD00049E854E163EA74E1D5CF43EA54E169E882
:103FE00074E1D0CF61E081E0C6CF65E082E00E945D
:103FF000AB1D26CE68E086E0FACF6EE089E0F7CF11
:1040000064E18FE0F4CF67E185E1F1CF61E088E121
:10401000B2CF62E289E1EBCF61E083E2ACCF6AE24A
:1040200085E2E5CFCB35FCE7DF0749F1CC352CE75E
:10403000D207D9F0CA35DC4709F023CF81E01CC094
:104040000E9400188FEF94E3ECE081509040E04034
:10405000E1F700C000000E94D0076FEF7FEF90E013
:1040600080E00E94D1300E94261B80919C0482FB3C
:10407000882780F991E089270E94DA1402CF80E036
:10408000FBCFCE010E948E0CF82E0ACF3C2F3F7042
:10409000F32EC07F19F0F29490EFF922CC20B9F002
:1040A000FF2069F080E28D0F883010F0A11009C068
:1040B00080913A02F82AF0923A020E94750E8D2FF2
:1040C00043C080911102F82AF0921102F6CF8D2F91
:1040D0000E94201CFF20D1F1D05ED83010F0A1103A
:1040E00004C08F2D0E94150C06C0F094809111021F
:1040F000F822F09211020E94750E28C08C2F8F704A
:10410000F82EC07FC03219F0F29480EFF822AA2076
:1041100059F091E0A91609F479C0CC2009F485C0C2
:10412000BB2009F447C0CBCF80919C0482FD3EC0E8
:10413000CC20B1F1FF2039F080913A02F82AF092B8
:104140003A020E94750E80E00E94531C2D2D2850CB
:10415000330B2430310510F40E949608EE20A9F0AC
:1041600080910F0280FD11C0F80115828695869519
:1041700086950E942E0DC8010E94BC1D80910F02E1
:104180008695869586950E94050D20E0F801408170
:10419000518162817381848195810E948A0D5FCDF6
:1041A00080E00E94201CFF2089F29BCFCC20A1F050
:1041B000B11004C08F2D0E94CE0EC8CFE1E0BE1218
:1041C000C5CF809110029F2D9823F91609F4BECF18
:1041D000F82AF0921002BACFB110B8CF8F2D0E94FA
:1041E000C70E909110028F2D892329F08F2D809575
:1041F0008923809310028091EF019F2D982309F469
:10420000A5CFF094F822F092EF01A0CFCC2029F0B6
:10421000F5E0FB1508F49ACFCDCF24E02B1508F478
:1042200095CF8F2D0E94C70E91CFBB20D1F339E3DC
:10423000A31209C08FEF97EEE3E081509040E04079
:10424000E1F700C000008D2F0E94201C7FCF8C2F33
:1042500086958695837069F0813009F077CF8D2F30
:104260009C2F9370C11002C080E090E00E944C0827
:104270006DCF8D2F9C2F9370C11002C080E090E015
:104280000E94710863CF6C2D8D2F0E943C1B5ECF66
:104290008C2F837009F03FC0C11058CF4D2F42952D
:1042A00046954770440F440F2D2F2F7030E0042E99
:1042B00002C0220F331F0A94E2F790E080E0D4FF9F
:1042C00009C08FE090E002C0880F991F4A95E2F77D
:1042D00080959095C695C695C370C23099F078F4D4
:1042E00040913B0250913C02C13039F0822B932B1C
:1042F000842395230E943E0D29CF242B352B822B1E
:10430000932BF8CF822B932B20913B0230913C02D0
:1043100082279327EFCF8695CC2011F08C2F8170C8
:10432000882309F413CF4D2F429546954770440FCB
:10433000440F2D2F2F7030E0042E02C0220F331FA8
:104340000A94E2F790E080E0D4FF09C08FE090E0AB
:1043500002C0880F991F4A95E2F780959095C695FF
:10436000C695C370C23099F078F440919102509193
:104370009202C13039F0822B932B842395230E9423
:10438000F70CE4CE242B352B822B932BF8CF822BEA
:10439000932B209191023091920282279327EFCFA5
:1043A000CF70CC2029F08C2F0E942E0D8D2F03CFA3
:1043B0008D2F0E94C70E8C2F0E94050DC7CE8D2F0A
:1043C000F2EFAF1699F1FA1570F020EFA216D1F0C6
:1043D00031EFA31691F0CC2009F45BC0B1106FCE81
:1043E0008C2F8F7127C093EFA91639F1E4EFAE122D
:1043F000F2CF80919C0482FD2EC08C2F8F71CC2037
:10440000D9F218C0CC2069F0F4E0FB1508F49ECE78
:10441000CF7181E090E002C0880F991FCA95E2F742
:10442000B8CF25E02B1508F491CEF2CF8C2F8F71E9
:10443000C110C2CF0E942E0D89CE90E080E0CC202A
:1044400009F49DCFCF7181E090E002C0880F991FE1
:10445000CA95E2F794CFCC2089F0CF718C2F0E94BF
:104460002E0D80919C0482FF07C038E0C39FC001DD
:104470001124836080930F028C2FDCCF81E00E9497
:10448000170D81E08B1508F061CE82E00E94170DB8
:104490005DCEBB2059F0893309F0D5CE9FEFE7EE12
:1044A000F3E09150E040F040E1F7CBCE8C2F8F71DC
:1044B00083CFFE01E851FC47E730F10508F4A9CBB2
:1044C000C6312CE7D20709F4BFCC80913A02827240
:1044D000FE01E052F847E531F10508F0D2CCE5578E
:1044E000FE4C0C94BC2FC631FCE7DF0709F0B6CCBC
:1044F00080913A028A7A91E009F490E09093EE017B
:104500008111A0CC89E20E9418080E94750E98CBF8
:10451000CF93DF9380910E02807F09F04DC0809190
:104520000D02882309F448C0E091F2045091B904C7
:10453000C0910902D091080260910A0270910B02A9
:1045400047E05E17C9F18E2F90E0E49FF00111243F
:10455000E654FB4F2481222391F1489FF001499FAB
:10456000F00D1124DF01A654BB4F11962C91119729
:104570002C1325C02C912D1322C015962C91159724
:1045800021111DC012962D913C91261B370B283C02
:104590003105A8F480910E028F70806180930E0225
:1045A000E054FB4F80818F708061808388E092E0CF
:1045B0000E94BC1D0E94430CDF91CF910895FC0125
:1045C0003196E770BECFA4E1B0E0E9EEF2E20C94E0
:1045D0005D2F8C0186E0F801DE011F9601900D929F
:1045E0008A95E1F7F8018481E58098E0A92E92E0B0
:1045F000B92E90910C02911128C0882319F1EE2058
:10460000F1F0C8010E94430DF82E8823C1F087E025
:10461000F801D50101900D928A95E1F780910C0285
:10462000813031F480910802909109020E94810C3E
:104630000E9488228F2D6496ECE00C94792FC8019B
:104640000E94BC1DFF24F394F5CFD080C1808280EE
:104650009380F0900D0220910A0230910B02A40188
:10466000421B530BFF2009F4D9C0483C510508F008
:1046700092C08823F9F29091090280910E02282FAE
:10468000207F09F056C0C91214C090910802D912B7
:1046900010C0E11048C08F70806180930E0288E0E6
:1046A00092E00E94BC1D80910E02F8018683F12CDD
:1046B000C1CFE11038C06C2D8D2D0E943D066C2DB0
:1046C0008D2D0E943D06E82E8111F1CFDF86C88A2C
:1046D0008F8598890E94810C292F22952F70243074
:1046E00058F49F70223088F0992399F0F801968150
:1046F000907F79F4FE2C9ECF2A5F2F70223068F0D5
:10470000C8010E94BC1DEF2CF5CF992311F088231E
:1047100089F3805E883070F3F3CF803F58F3815F78
:10472000833070F7E7CF80910E02816080930E0294
:10473000BECFC91207C090910802D91203C0EE2063
:1047400009F48DC0C8010E94430D882309F477CF76
:10475000EE2009F474CF80910E02803288F020910F
:10476000080230910902398728879B868A869091B2
:104770000C029C871D868E87CE0108960E94BC1D68
:1047800087E0F801A8E0B2E001900D928A95E1F788
:104790000E94882257CF90910E02292F207F51F43A
:1047A00088E092E00E94BC1D87E0F50111928A9595
:1047B000E9F77DCF882309F43DCF809109028C1160
:1047C00010C080910802D8120CC0E1100AC0968374
:1047D000C8010E94BC1D87E0F50111928A95E9F796
:1047E00029CFC8010E94430D882309F428CFEE2069
:1047F00009F425CF80910E02803210F22091080238
:10480000309109023A8329839C828B8290910C0219
:104810009D831E828F83CE010196B0CF483C510507
:10482000D0F6882309F40ECFFE2CEE2009F407CF32
:10483000809109028C1120C080910802D8121CC0FE
:1048400080910E0280FD0FC0982F907F61F08683CB
:10485000903F31F0982F907F905F8F70892B8683E7
:10486000C8010E94BC1D87E0F801A8E0B2E00190F9
:104870000D928A95E1F7DECEC8010E94430D8111A9
:104880007FCF80910E02816080930E02C8010E944A
:10489000BC1DD0CEABE1B0E0E0E5F4E20C94652FB6
:1048A0004E8B5F8B688F798F8A8F9B8F192F911119
:1048B000109211021D8A86E0FE017696DE011F9697
:1048C00001900D928A95E1F70A8D002341F021E0D5
:1048D0004F85588969897A89C8010E948A0D0B8B96
:1048E0001C8B87E0FE013F96DE01189601900D9229
:1048F0008A95E1F7CE0108960E94E32281110CC04F
:1049000087E0FE013896DE01119601900D928A959E
:10491000E1F78C8581110BC017E08091F204909132
:10492000B904891331C06B96E4E00C94812F209177
:10493000B90430E0C9010196877099274091F204CB
:104940004817190699F097E0929FD001939FB00DF8
:104950001124A654BB4FFE01319601900D929A95F9
:10496000E1F78093B9040E94430CD6CF0E9400184F
:104970001092B9041092F20487E0E8E0F2E0DF015F
:104980001D928A95E9F7C8CF819FC00111248654F2
:104990009B4F0E94E322882331F28091F20490E041
:1049A0000196877099278093F204B7CFA3E1B0E016
:1049B000ECEDF4E20C945C2F8E01045F1F4F88E055
:1049C000D8011D928A95E9F786E8C82E81E0D82E95
:1049D000F12CE12CAA24A394B12C20E9822E21E011
:1049E000922EF60181916F018F3F09F442C0F89435
:1049F000E82FE295EF70F0E021A18F70A50102C0D1
:104A0000440F551F8A95E2F7CA01922F982B91A364
:104A100092A18095892382A3789400C0EAE8F1E00E
:104A2000712C31E021912F3F09F498C0A22FA2955B
:104A3000AF70B0E090968C9190E02F7002C0959589
:104A400087952A95E2F780FD89C0832F782A330F56
:104A50008E169F0639F7F601319780818F3F11F04E
:104A60000E94B60950EA5A95F1F7F801EE0DFF1DC4
:104A700070828FEFE81AF80AA4E0EA16F10409F050
:104A8000B0CF48E050E0B80182E792E00E94793070
:104A9000009741F028E0F801A2E7B2E001900D9202
:104AA0002A95E1F700917B0210E003581D4F892BF6
:104AB00009F456C081E0809341020E94CD17909383
:104AC000400280933F02F12CE0909304EE2009F421
:104AD000A1C019821A821B821C8280916D028A30C9
:104AE00008F062C048EA55E1BE016F5F7F4FC80120
:104AF0000E942112882309F47CC041EF54E1BE01D9
:104B00006F5F7F4FC8010E942112882309F471C092
:104B100047E455E1BE016F5F7F4FC8010E9421123B
:104B2000882309F466C010926D0280917A0290E0A9
:104B300044E050E0BE016F5F7F4F83589D4F0E945D
:104B4000793021E020934802892B09F044C0E12C00
:104B50008E2D8F296396EDE00C94782F80E076CF30
:104B6000F0904102FF2009F4AECF80913F02909176
:104B700040020E94BE17059708F4A5CF44E050E01C
:104B800062E772E0C8010E947930892B59F084E015
:104B9000E2E7F2E0D80101900D928A95E1F71092D8
:104BA000410292CFF12CFBCF8091420290914302BF
:104BB0000E94BE17843F914008F094CF8091480234
:104BC000882329F284E0FE013196DF011D928A9547
:104BD000E9F710924802E0917A02F0E0E358FD4FC5
:104BE00089819A81AB81BC8180839183A283B383C5
:104BF000AFCF80916D028F3F31F08F5F80936D0258
:104C00008A3008F492CF0E94CD179093430280938C
:104C10004202D4CF84E0F801A6E5B2E001900D9203
:104C20008A95E1F786E592E00E945C068093550242
:104C300080905A0290905B02A0905C02B0905D025E
:104C40008091440290914502A0914602B0914702A2
:104C500088169906AA06BB06B1F08092440290928B
:104C60004502A0924602B09247020E94E107861ACE
:104C7000970AA80AB90A80926E0290926F02A092D7
:104C80007002B09271028BE0EEE5F2E0DE01119667
:104C900001900D928A95E1F780915E028695869546
:104CA000D0905F02C0906002B090610200916702F4
:104CB0001091680210926802112309F449CF10FF85
:104CC0000BC029819091780420FF1AC091609093C5
:104CD000780460E00E944A1D11FF06C020E04B2DC1
:104CE0006C2D8D2D0E94B11312FF04C00023A9F07A
:104CF0000E942E1D13FF2CCF81E08093BF0228CF8E
:104D00009E7F909378040E94FE088091C402816087
:104D10008093C4020E943C0FDFCF0E94FE08EACFBE
:104D2000A6E0B0E0E6E9F6E20C94652F0E94CD170C
:104D30008C0180913D0290913E028017910781F095
:104D400019821A820E94CD17682F49815A81792FC2
:104D500080E090E00E944A2410933E0200933D02BE
:104D60002696E4E00C94812F1F921FB61F92112407
:104D70008F939F93AF93BF9380919D04811113C034
:104D800080919E0490919F04A091A004B091A104F1
:104D90004196A11DB11D80939E0490939F04A09302
:104DA000A004B093A104BF91AF919F918F911F90E8
:104DB0001FBE1F901895CDB7DEB72E970FB6F8948B
:104DC000DEBF0FBECDBF85B7806885BF85B7806861
:104DD00085BF84B7877F84BF0FB6F894A89580916C
:104DE0006000886180936000109260000FBE80E8D0
:104DF00090E00FB6F89480936100909361000FBE2D
:104E000084EB99E09093C5018093C4010E947306DE
:104E10000E9414078091E20084608093E2007894FD
:104E20008091AF048823A1F01091E9001F70909148
:104E3000EC00892F817090FD80E8182B1092E9001A
:104E40008091E80083FD0E9431181F701093E900E3
:104E500082E084BD93E095BD9AEF97BD80936E008C
:104E600010926E0210926F021092700210927102F4
:104E70008091D80080618093D8002AE12A95F1F7CB
:104E800000C08091D900182F117080FD04C00E94CD
:104E900073061092AF04109393041093940410932C
:104EA0002401112309F475C0109245018BE1809310
:104EB00046010E94E12D809124018091240194E01B
:104EC000811190E090937B0284E0891B80937A02A9
:104ED00084E90E94B60986E60E94B60987E90E9425
:104EE000B60986EC0E94B6090AE811E060E9E62EF0
:104EF00061E0F62ED8018D918D018F3F11F00E9457
:104F0000B609E016F106B1F788E0EDE7F2E0DF015F
:104F1000282F1D922A95E9F7E2E7F2E0DF011D92C2
:104F20008A95E9F790E080E00E949D30863E9E4F92
:104F300011F00E94511682E090E00E948F30809321
:104F4000850284E090E00E949D3090939C048093C1
:104F50009B040E94D624EFEFF6E721E0E150F040F9
:104F60002040E1F700C000000E94D6248091940404
:104F7000E4E08111E0E0F0E0E358FD4F808181FF43
:104F80000EC06FEF7FEF90E080E00E94D1300E9472
:104F9000D0078BE180934501809346018CCF83E05D
:104FA00090E00E948F3090E00E943E0D809193042B
:104FB000811132C182E08093B70280E88093F604C9
:104FC0000E949B2C6BE070E08FED92E00E945412E7
:104FD0008823E9F18091B70265E070E081FD1EC190
:104FE0008AED92E00E945412882389F16DE070E00E
:104FF00088EC92E00E945412882349F10E94E10754
:10500000605A75418F4F9F4F609380047093810465
:105010008093820490938304E9EFF4E080E092E0CF
:10502000DF019C011D9221503040E1F7F093000711
:10503000E093FF068FEF9FEF9093F8048093F704BF
:1050400081E080938504809384041092B80280915B
:105050007C0281117CC090E080E00E949D30863E01
:105060009E4F21F00E9451160E94BD1488E090E0EE
:105070000E9497304B015C0184E290E00E948F30E7
:10508000282F30E040E050E060E070E080E090E009
:1050900000E20E94D12F282939294A295B2920932F
:1050A00078043093790440937A0450937B0460939E
:1050B0007C0470937D0480937E0490937F048091A0
:1050C000C40283608093C4022C7F89F50E94BD14C2
:1050D00088E090E00E9497306B017C0184E290E0D0
:1050E0000E948F30282F30E040E050E060E070E018
:1050F00080E090E00E94D12FB22FA32FF42FE52F54
:105100005B0197018601BC29A12BFE29E32BB093FB
:105110007804A0937904F0937A04E0937B0460937D
:105120007C04B0927D0480937E0490937F040E945F
:1051300005090E94FE088091780480FF05C060E0A8
:10514000869586950E944A1D81E080937C0280911D
:105150009304811102C00E94E42D85E291E09093B6
:1051600098048093970458E1252E312C8091AF0448
:1051700000E112E1853009F48CC00E94D62436E8A3
:10518000E32E32E0F32E4DE7C42E42E0D42ED601BA
:10519000F70191918D9122E0EE38F20709F483C076
:1051A0009817B9F38090930410E077247394D60194
:1051B0000D916D01F70191907F01901629F19026D4
:1051C000B12CAA24A394892D8A21B1F08820A1F0C2
:1051D000BF8218870E94CD179A8789877B8691E0C6
:1051E000802F8A2109F490E09C874F81588569853A
:1051F0007A858B850E944A24B394AA0CF6E0BF12EC
:10520000E2CFF701319700831F5F183081F60E94CB
:10521000CD09DD24D3944CC080E0CDCE85ED92E065
:10522000E1CE8091AF04843021F10E947E12109271
:105230009D0440E40FB6F894A895209260000FBE3C
:105240004093600083B7817F846083BF83B78160B0
:1052500083BF7894889583B78E7F83BF0FB6F89409
:10526000A895809160008861809360001092600032
:105270000FBE8091AE04882361F00E94D624EDE732
:10528000F2E08191811132C385E892E08E179F0789
:10529000C1F78091AF04853009F4C3CF0E94001894
:1052A0000E9496086ACF98137DCF0E949026D12C39
:1052B0008091C302882309F465C08091C202E09105
:1052C0007804E695E695E81BE093BE02823009F08B
:1052D00090C0F0E0E550FD4FE4910E2F10E02DE07E
:1052E000E22E22E1F22E8091BF02882361F010921B
:1052F000BF020E94231D9093BD028093BC021092B6
:10530000C1021092C0020E94231DE091BC02F091E4
:10531000BD029C012E1B3F0B2F3F3F4798F520916C
:1053200090022223B1F01092900220918E023091CF
:105330008F02821B930B8F3F9F4758F4205D3A48A2
:1053400030938F0220938E028091C40288608093F4
:10535000C402A090C002B090C102E00FF11FF09310
:10536000BD02E093BC028CEB92E0F70109958091BD
:10537000C0029091C102892B29F4AB2819F081E079
:105380008093900280918504882309F4DAC080918B
:10539000B9029091BA020E94BE17C29708F4B1C038
:1053A0000E94CD179093BA028093B90289EF94E0DE
:1053B000909300078093FF0680919304882309F45B
:1053C000ABC18FE393E00E942F0E809191029091E8
:1053D00092020E94660D823009F498C108F075C0EF
:1053E000882309F47BC0813009F48DC184E193E006
:1053F00077C0863059F4F0E0E850FD4FE4910E2F6D
:1054000010E09DEFE92E91E1F92E6DCF893061F426
:10541000E695F0E0EB50FD4FE4910E2F10E086E5AD
:10542000E82E81E1F82E5FCF8F3061F4E695F0E051
:10543000EE50FD4FE4910E2F10E0BBECEB2EB0E1EF
:10544000FB2E51CF853159F4F0E0E151FD4FE4914D
:105450000E2F10E0A6E4EA2EA0E1FA2E44CF08E2D7
:1054600010E074ECE72E7FE0F72E883109F43BCF93
:10547000833249F4EDEEF2E005911491FCEAEF2E4F
:10548000F1E1FF2E30CF04EF11E067E8E62E6FE088
:10549000F62E843209F427CF00ED17E05DEFE52EFC
:1054A00058E0F52E853209F01ECF8E2F63E00E9462
:1054B0008E2FE92FF0E0E651FD4FE4910E2F10E022
:1054C000E1ECEE2EE2E1FE2E0ECF833009F421C195
:1054D000843009F08BCF8EE193E002C087E393E044
:1054E0000E946F0E0E949608182F83E193E00E949D
:1054F0006F0E8FEF92E011FF02C089E093E00E94EF
:105500006F0E8091F7049091F804892B09F009C17E
:10551000809184048823A9F00E94E107009180040F
:10552000109181042091820430918304601B710BDF
:10553000820B930B6F3F7F4F8F4F9F4710F40E945A
:105540007E12D1100E94991286E0EDE8F4E0DE01AF
:10555000119601900D928A95E1F7D0908E04F0900B
:105560008F0410919004E0909104009192041092A5
:105570008F04109290041092910410929204812F43
:105580008F2909F445C080918B0490918C040E946E
:10559000BE179C0190918604992309F4C7C1253157
:1055A0003105B0F19F3F19F09F5F90938604FF2073
:1055B00059F00E94C9089FEF1F140CF491E0899FD5
:1055C000802D112480938F04112359F00E94C90863
:1055D00091E011160CF09FEF899F802D112480938C
:1055E000900480918F04882399F0C0909004CC207F
:1055F00079F00E94E908882309F470C180938F0430
:105600008C2D0E94E908882309F46AC180939004D4
:105610008E2D802B09F445C08091890490918A04D5
:105620000E94BE179C0190918704992309F479C1C7
:1056300021353105B0F19F3F19F09F5F90938704AA
:10564000EE2059F00E94A7089FEF1E140CF491E081
:10565000899F802D112480939104002359F00E948A
:10566000A70891E010160CF09FEF899F802D112460
:105670008093920480919104882399F0E0909204A1
:10568000EE2079F00E94E908882309F42BC1809369
:1056900091048E2D0E94E908882309F425C1809386
:1056A000920480918E04D81217C080918F048823B1
:1056B00011F08F1111C020919004222311F01213C8
:1056C0000BC090919204992311F0901305C0309172
:1056D0009104332309F420C10E94D91786E0FE010A
:1056E0003196ADE8B4E001900D928A95E1F70E9401
:1056F00096089091BB02891709F438CD8093BB02BC
:105700000E94E10733CD81E393E0EACE8BE293E0A0
:10571000E7CE84E293E0E4CE87E493E00E942F0E8C
:10572000F0CE80918504882309F4F2CE8091B802EE
:105730008111EECE0E9499122091F7043091F80465
:105740002115310509F4E4CE80E041E050E0082F56
:1057500010E07A01082E02C0EE0CFF1C0A94E2F75A
:10576000B70162237323672B11F48F5FF0CF909101
:10577000B70290FF9AC0880F880F880F809332017C
:1057800010923501895F8093330183E08093360165
:1057900024E630E047E050E060E371E088E70E94F3
:1057A0003B2D892B09F0B4CEA80195E0440F551F7D
:1057B0009A95E1F78091B70280FF89C0E7E9F2E0AE
:1057C00080E2DF011D928A95E9F7E4E9F1E0FE87C6
:1057D000ED8700E911E087E0982E88248394AD8559
:1057E000BE852D91BE87AD87F80141908F01440E93
:1057F000552E511CC20187509B4F2C01E22FF0E027
:10580000E956FD4F30E020E0692C621AC82C022EC8
:1058100001C0CC0C0A94EAF7520190E0D5018D91B9
:105820005D018C21662D691B6770762E062E000C9B
:10583000770BB82F01C0BB0F7A94EAF77B2E7195D6
:10584000619571096770772701C086956A95EAF7B7
:10585000782A8081782A70829F5F9830F9F62F5FCE
:105860003F4F31962830310579F6ED85FE85E859B0
:10587000F14009F0B4CF04E610E020E230E047E95F
:1058800052E060E488E70E945C2D892B09F040CE4D
:10589000E094F0948091F7049091F804E822F922C2
:1058A000F092F804E092F70433CE8295880F807668
:1058B0008093320198013695279536952795209348
:1058C0003501815E809333012093360161CF4750CB
:1058D0005B4F04E610E020E230E0D3CF81E08ECED3
:1058E00081E094CE81E0D3CE81E0D9CE09BD19BD4F
:1058F00009B400FEFDCF8091D8008F7D8093D80041
:105900008091E00082608093E0008091E00081FD62
:10591000FCCF0E940018BDCC822B892B09F4DECE6F
:10592000DBCE2B30310508F088CEBBCE23333105DA
:1059300008F03ACE6DCE1092B9008CE08093B8009A
:105940000895B0E0A0E0E7EAFCE20C945E2FB82EE8
:10595000EB010E94CD176C01EE24E394F12CC431CD
:10596000D10560F025E0E22EF12CCF3FDC0731F0CD
:10597000CE0164E170E00E94432F7B0184EAA82EEF
:1059800094E8992E1092BC00A092BC000E94CD1702
:105990008C018091BC0087FF0DC08091B900887F89
:1059A0008830F9F08091B900887F8031D1F00FEF15
:1059B0001FEF08C0C8010E94BE17E816F90648F795
:1059C0000EEF1FEFCF3FDC07E9F2C6010E94BE17C2
:1059D000C817D907B8F6C801CDB7DEB7EBE00C940D
:1059E0007A2FB092BB009092BC000E94CD178C0120
:1059F0008091BC0087FF0AC08091B900887F883100
:105A000011F08034A1F610E000E0E5CFC8010E945B
:105A1000BE17E816F90660F7D3CF0F931F93CF9305
:105A2000DF93EB018093BB0084E88093BC000E946D
:105A3000CD178C018091BC0087FF11C02091B90067
:105A4000287F81E090E0283211F490E080E0919589
:105A500081959109DF91CF911F910F910895CF3FCB
:105A6000DC0741F3C8010E94BE17C817D90710F719
:105A70008EEF9FEFEFCFB0E0A0E0E1E4FDE20C9409
:105A8000612F6B018A017901B9010E94A12CE60105
:105A90000C0D1D1DC017D10711F097FF08C024E998
:105AA0002093BC00CDB7DEB7E8E00C947D2FB701A2
:105AB00089910E940D2DEECFB0E0A0E0E2E6FDE27C
:105AC0000C94612FC62F6A017901B8010E94A12CA4
:105AD00097FD0CC0B8018C2F0E940D2DE601EC0C37
