:100000000C941E060C943B060C943B060C94E22EBA
:100010000C943B060C943B060C943B060C943B065C
:100020000C943B060C943B060C9422160C946E1A0E
:100030000C9482260C943B060C943B060C943B06D5
:100040000C943B060C943B060C943B060C943B062C
:100050000C943B060C940A170C943B060C943B063C
:100060000C943B060C943B060C943B060C943B060C
:100070000C943B060C943B060C943B060C943B06FC
:100080000C943B060C943B060C943B060C943B06EC
:100090000C943B060C943B060C943B060C943B06DC
:1000A0000C943B060C943B060C943B06202020202D
:1000B0006162636465666768696A6B6C6D6E6F70B8
:1000C0007172737475767778797A31323334353664
:1000D00037383930524542545F2D3D5B5D5C233BE0
:1000E00027602C2E2F2020202B0014001A0008003F
:1000F00015001700E10004001600070009000A00BF
:10010000E0001D001B0006001900050000000000B3
:100110000000E30021522C002A00130012000C0002
:1001200018001C00340033000F000E000D000B00FF
:10013000E400380037003600100011000000000015
:100140000000E2002252280029003A003B003C0057
:100150003D006500E1003E003F00400041004600D8
:10016000E00042004300440045002452000000002B
:100170000000E30001002C002A004B004D0052005B
:100180004A00490034024E004F00510050004C001C
:100190000100380237023602190106010000000092
:1001A0000000E2000100280039001E021F02201496
:1001B0002F024800E10034143214250226022D02D9
:1001C000E0002F14301464006402270200000000D5
:1001D0000000E30001002C002A0038002600250062
:1001E000240030022D0030002300220021002402D0
:1001F0000100370020001F001E0027000000000043
:100200000000E2000100280035002E001F14081431
:1002100021022F00E100350223021E1435142E02A4
:10022000E00000002314320022022114000000002C
:100230000000E30001002C00A800A900AA00AB0008
:10024000AE00AC0000002978277825782378207844
:10025000017C2A782878267824782178000000000C
:100260000000E200010028002900D6000000000084
:1002700000000000E100D500D200D300D100000052
:10028000E000D400DF00DE00DD0000000000000020
:100290000000E30001002C000000D600DC00CD00CF
:1002A000DB00D9000000D500D000CE00CF00DA007E
:1002B0000100D400D200D300D100D700000000001C
:1002C0000000E2000100280000DA0281FFD9F1DB22
:1002D00020A4A62EAF00A0C0D30000A1C8D3000068
:1002E000AED580A81F408D1420001E0F0500047F8E
:1002F0003F1F643214643214783C1E1E140A052019
:1003000020202020202020200043415053204C4F0B
:10031000434B0000556E646566696E6564004D6F01
:1003200075736500457874656E6400526169736524
:10033000004C6F7765720044656661756C74004CA3
:10034000617965723A2000808182838485868788FE
:10035000898A8B8C8D8E8F9091929394A0A1A2A369
:10036000A4A5A6A7A8A9AAABACADAEAFB0B1B2B3D5
:10037000B4C0C1C2C3C4C5C6C7C8C9CACBCCCDCE20
:10038000CFD0D1D2D3D4000001010101010101017C
:100390000102020202020202020203030303030338
:1003A0000303040404040404040505050505060606
:1003B00006060607070707070808080809090909C4
:1003C0000A0A0A0B0B0B0C0C0C0D0D0D0E0E0E0F6A
:1003D0000F0F1010111111121213131414151516FA
:1003E000161717181819191A1A1B1B1C1D1D1E1E6B
:1003F0001F202021222223242425262627282929BC
:100400002A2B2C2D2D2E2F303132323334353637E6
:1004100038393A3B3C3D3E3F4041424344454647E4
:1004200048494A4C4D4E4F50515354555658595ABD
:100430005B5D5E5F616264656668696B6C6D6F7061
:1004400072737577787A7B7D7E8082838587888AD0
:100450008C8E8F91939596989A9C9EA0A2A3A5A707
:10046000A9ABADAFB1B3B5B7BABCBEC0C2C4C6C903
:10047000CBCDCFD1D4D6D8DBDDDFE2E4E7E9EBEEBC
:10048000F0F3F5F8FAFDFFFFAA7F55402223252659
:1004900028292A2C2D2F3032333536383A3B3D3E31
:1004A0004042434547494A4C4E5051535557595A7B
:1004B0005C5E6062646668696B6D6F717375777995
:1004C0007B7D7F81838587898A8C8E909294969894
:1004D0009A9C9E9FA1A3A5A7A8AAACAEAFB1B3B4A6
:1004E000B6B8B9BBBCBEBFC1C2C3C5C6C7C9CACBFB
:1004F000CCCDCED0D1D2D2D3D4D5D6D7D7D8D9D9C6
:10050000DADADBDBDBDCDCDCDCDCDDDDDDDDDCDC2E
:10051000DCDCDCDBDBDBDADAD9D9D8D7D7D6D5D44B
:10052000D3D2D2D1D0CECDCCCBCAC9C7C6C5C3C217
:10053000C1BFBEBCBBB9B8B6B4B3B1AFAEACAAA86C
:10054000A7A5A3A19F9E9C9A98969492908E8C8A20
:1005500089878583817F7D7B79777573716F6D6BFB
:100560006968666462605E5C5A5957555351504ED3
:100570004C4A4947454342403E3D3B3A3836353385
:1005800032302F2D2C2A29282625232200AF00AE19
:1005900005010902A10185020901A100050919014E
:1005A000290815002501950875018102050109300A
:1005B00009311581257F9502750881060938158155
:1005C000257F950175088106050C0A3802158125DD
:1005D0007F950175088106C0C005010980A10185CC
:1005E0000319012AB700150126B70095017510817E
:1005F00000C0050C0901A101850419012AA00215FA
:100600000126A002950175108100C005010906A10F
:10061000018506050719E029E715002501950875EC
:100620000181020507190029EF1500250195F075D4
:1006300001810205081901290595057501910295A9
:100640000175039101C005010906A101050719E023
:1006500029E71500250195087501810295017508A6
:1006600081010507190029FF150026FF0095067571
:100670000881000508190129051500250195057552
:10068000019102950175039101C009023B0002012D
:1006900000A0FA0904000001030101000921110171
:1006A000000122440007058103080001090401003C
:1006B000010300000009211101000122B600070515
:1006C00082032000011201000200000008534601CD
:1006D000000100010200010C0343006F0072006E74
:1006E0000065000000100366006F006F0073007467
:1006F0000061006E00000004030904000000000017
:10070000003E5B4F5B3E003E6B4F6B3E001C3E7CF1
:100710003E1C00183C7E3C18001C577D571C001CDA
:100720005E7F5E1C0000183C180000FFE7C3E7FF77
:1007300000001824180000FFE7DBE7FF0030483A0C
:10074000060E00262979292600407F05050700406E
:100750007F05253F005A3CE73C5A007F3E1C1C08A1
:1007600000081C1C3E7F0014227F2214005F5F00E3
:100770005F5F0006097F017F00006689956A00605F
:10078000606060600094A2FFA2940008047E0408E8
:100790000010207E20100008082A1C0800081C2ACF
:1007A0000808001E10101010000C1E0C1E0C00304B
:1007B000383E383000060E3E0E06000000000000F5
:1007C0000000005F000000000700070000147F1415
:1007D0007F1400242A7F2A12002313086462003643
:1007E0004956205000000807030000001C22410069
:1007F000000041221C00002A1C7F1C2A0008083E21
:100800000808000080703000000808080808000090
:1008100000606000002010080402003E5149453E7F
:100820000000427F40000072494949460021414989
:100830004D33001814127F10002745454539003C00
:100840004A494931004121110907003649494936D1
:1008500000464949291E00000014000000004034F1
:1008600000000000081422410014141414140000A5
:1008700041221408000201590906003E415D594E0B
:10088000007C1211127C007F49494936003E4141EB
:100890004122007F4141413E007F49494941007F5B
:1008A00009090901003E41415173007F0808087F92
:1008B0000000417F4100002040413F01007F0814BB
:1008C0002241007F40404040007F021C027F007FA9
:1008D0000408107F003E4141413E007F090909069E
:1008E000003E4151215E007F0919294600264949F1
:1008F00049320003017F0103003F4040403F001F99
:100900002040201F003F4038403F0063140814631C
:10091000000304780403006159494D4300007F41FE
:10092000414100020408102000004141417F0004C1
:10093000020102040040404040400000030708005C
:10094000002054547840007F284444380038444400
:10095000442800384444287F003854545418000078
:10096000087E0902001824241C78007F08040478FB
:100970000000447D4000002040403D00007F1028E2
:1009800044000000417F4000007C04780478007C33
:1009900008040478003844444438007C182424189F
:1009A00000182424187C007C0804040800485454CF
:1009B00054240004043F4424003C4040207C001C9C
:1009C0002040201C003C4030403C0044281028447B
:1009D000004C9090907C004464544C4400000836D5
:1009E00041000000007700000000413608000002CE
:1009F00001020402003C2623263C00000000000007
:100A00000000000000000000000000C0E0F0F8F866
:100A10001800C0F0FCFEFFFFFFFFFFFFFF7E00009D
:100A20000000000000000080C0E0E0E0E0E0E0E066
:100A3000E0C0800000000080C0E0E0E0E0E0E0E036
:100A4000E0C080000000E0E0C0C0E0E0E0E00000C6
:100A5000E0E0C0C0E0E0E0E0E0C080000000008036
:100A6000C0E0E0E0E0E0E0E0E0C080000000000086
:100A7000000000000000000000E0F0F0F0E0ECEE0C
:100A8000F7F37020007C7C7C7E007E7E7E7F7F7F03
:100A9000000080C0E07E5B4F5BFEC00000C000DC59
:100AA000D7DEDEDED7DC00C0000000000000000062
:100AB0000000000000000000000000000000000036
:100AC00000000000F8FCFEFFE000FFFFFFFFFFFF5B
:100AD00080FFFFFFFFFFFFFFFFFF1F070100000078
:100AE000000000000000FFFFFF8100000000000088
:100AF00081C3C3C30000FFFFFF81000000000000AE
:100B000081FFFFFF0000FFFFFF0100000000000069
:100B1000FFFFFF010000000001FFFFFF0000FFFFDB
:100B2000FF9D1C1C1C1C1C1C9DDFDFDF0000000047
:100B30000000000000000000000F1F3F7F7F7F7F4C
:100B40007F3F1E0C001F1F1F3F003F3F3F7F7F7FE7
:100B500000307B7F7830202030787F3B0003000F0F
:100B60007F0F0F0F7F0F0003000000000000000048
:100B70000000000000000000000000000000000075
:100B800000000000030F1F3F3F3F3F1F1F3F3F7FFD
:100B90007F7F3F3F1F3F7F7F7F7F7C7878381C0FB0
:100BA0000000000000000001030707070707070710
:100BB00007030100000000010307070707070707F5
:100BC0000703010000000707070000000000000005
:100BD00007070700000000000007070700000001EA
:100BE00003070707070707070703010000000000C6
:100BF00000000000000000000000000000000000F5
:100C000000000000000000000000000000000000E4
:100C100000000000000000000000000000000000D4
:100C200000000000000000000000000000000000C4
:100C300000000000000000000000000011241FBEA2
:100C4000CFEFDAE0DEBFCDBF11E0A0E0B1E0E0E140
:100C5000F4E602C005900D92AE3CB107D9F727E04B
:100C6000AEECB1E001C01D92A031B207E1F70E94E5
:100C7000AB260C9406320C940000482F20910105FD
:100C80009091C80457E0291302C080E0089530E035
:100C9000529FF001539FF00D1124E753FB4F8181C8
:100CA000681306C08081481303C085818111EECF8F
:100CB0002F5F3F4F2770E7CFFC01AC014C5F5F4FC8
:100CC0008FEF91E32191822728E030E087FF09C070
:100CD000880F892721503109C9F7E417F50791F7E3
:100CE0000895880FF7CFE8EDF0E080818E7F808354
:100CF0001092E2001092DA001092E100A0EEB0E053
:100D00008C9181608C9380818F77808319BCA7ED53
:100D1000B0E08C918E7F8C9380818F7E8083109247
:100D2000B30408952091E4003091E50085E69091A8
:100D3000EC0090FF06C09091E80090FF06C080E0B4
:100D400008959091E80092FDFACF9091BE04992306
:100D500091F0953091F09091EB0095FD10C040918D
:100D6000E4005091E5002417350709F381509A01FA
:100D7000F1F684E0089582E0089583E0089581E02B
:100D800008958091C00487FF13C08091E80082FF1E
:100D900006C08091E8008B778093E80004C08091C2
:100DA000BE048111F2CF08958091BE048823D9F347
:100DB0008091E80080FFF8CF8091E8008E77ECCF3B
:100DC000982F9093E900242F762F50E0891731F067
:100DD0007091EC002091ED005091F00021FD07C0D2
:100DE0009F5F973071F78093E90081E0089530911B
:100DF000EB003E7F3093EB003091ED003D7F309370
:100E0000ED003091EB0031603093EB007093EC001B
:100E10002093ED005093F0002091EE0027FDE0CFED
:100E200080E00895B0E0A0E0E8E1F7E00C941D3028
:100E3000C8EDD0E088818F7E8883E7EDF0E0808187
:100E40008160808384E082BF81E08093B3048881E5
:100E50008E7F888302EE10E0F80110821092DA0093
:100E600081EEC82ED12CF601108288818F7788837D
:100E700088818068888388818F7D888319BC1092DF
:100E8000BE041092BF041092BD041092BC0490EEF8
:100E9000E92EF12CF70180818B7F8083888181602E
:100EA000888342E060E080E00E94E006F6018081F5
:100EB0008E7F8083F801808181608083808188605B
:100EC0008083F70180818E7F808388818061888321
:100ED000CDB7DEB7E8E00C943930FC018091C60450
:100EE0009091C70486179707A0F06115710529F442
:100EF0009091E8009E779093E80090E0611571056D
:100F000051F4911108C08091E80082FF35C080E063
:100F10000895BC01F2CF8091BE048823C9F18530C9
:100F2000C9F18091E80083FD31C08091E80082FD25
:100F3000EACF8091E80080FFE1CF2091F30080911B
:100F4000F200322F282F6115710519F02830310574
:100F500058F091E02830310509F090E02091E80048
:100F60002E772093E800CACF81918093F1006150E1
:100F700071092F5F3F4FE7CF8091BE04882341F076
:100F8000853041F08091E80083FFBDCF81E0089576
:100F900082E0089583E0089587E797E7909301083A
:100FA0008093000888E19AE00FB6F894A8958093A2
:100FB00060000FBE90936000FFCF2FB7F894609150
:100FC000AF047091B0048091B1049091B2042FBF2E
:100FD0000895809153010895909154019130D1F476
:100FE0009091AC0497FF16C0E82FE695E695E6953C
:100FF000EE31D8F4F0E0E852FE4F282F277081E060
:1010000090E001C0880F2A95EAF7809592818923A4
:1010100082830895E0EDF1E09281891301C012828C
:10102000319691E0E63DF907B9F7089590915401A2
:101030009130C1F49091AC0497FF14C0E82FE6956D
:10104000E695E695EE31F8F4F0E0E852FE4F877051
:1010500021E030E001C0220F8A95EAF78281822BDD
:1010600082830895A2EDB1E0EFEF90E02D91821719
:1010700051F0EF3F19F4211101C0E92F9F5F963025
:10108000A9F7EF3F09F408950E2E000CFF0BE05373
:10109000FE4FE6CFA3E0B0E0E0E5F8E00C942330AB
:1010A0002091AA043091AB0428173907A1F090933E
:1010B000AB048093AA04E091A804F091A9043097AE
:1010C00051F024E029839B838A830084F185E02DFD
:1010D000CE01019609952396E2E00C943F30A3E0FF
:1010E000B0E0E5E7F8E00C9423302091A6043091BD
:1010F000A70428173907A1F09093A7048093A604AA
:10110000E091A804F091A904309751F023E02983DD
:101110009B838A830084F185E02DCE010196099599
:101120002396E2E00C943F308091A404882359F088
:10113000E091A804F091A904309729F00190F08182
:10114000E02D0995089580E008958091990480FD2F
:1011500016C081FD16C082FD16C0809198048823B8
:10116000A1F0883280F428E0829FC001112468E257
:1011700070E00E948431862F672B39F0089582E059
:10118000089584E0089588E0089581E008958091AD
:10119000990480FD14C081FD14C082FD16C08091A9
:1011A0009704882381F08E3180F420E5829FC0016E
:1011B00011246EE170E00E948431862F089584E14D
:1011C000089588E2089588E0089580E50895282F1D
:1011D00035EB2303C001112497FF04C08058910907
:1011E000892F089580589F4FFBCFFC01EE0FFF1F02
:1011F000E80FF91FEB50FC4F618340832283089571
:10120000539A08950895E4EDF2E01182828184609A
:1012100082830895CF938091E703C0914F0180FFAF
:1012200010C00E94CF11CF91089580914D019C2F45
:10123000981B892F20E040E060E090E00E94F508D4
:10124000CF5F80915001C81780F3EBCF0F931F93AE
:10125000CF93DF939091E70390FF0BC0042F162FDD
:10126000D82FC0914F0180915001C81738F00E94CB
:101270000A09DF91CF911F910F91089580914D013F
:101280009C2F981B892F202F412F6D2F90E00E94BB
:10129000F508CF5FE8CFCF93DF93EC014091EA03ED
:1012A0009C8180E090FD842F60E091FD642F92FF8F
:1012B00040E00E9426098C8190E001968770992772
:1012C0008C83DF91CF9108958091E703982F9C7FC5
:1012D00061F4837084608093E7038091EA03893727
:1012E00018F088E78093EA0308958C3AB0F383708E
:1012F000886AF1CFB0E0A0E0E0E8F9E00C941B30A0
:10130000362F472FE82FF0E0E957FC4F71110AC044
:10131000E4918E2F2E2F6E2F722FCDB7DEB7EAE01D
:101320000C943730C72FD0E02491F22FE22EF12C0D
:1013300056E0659FC00111240FEF10E0B8010E9434
:10134000FF2F832F90E0880F991F35E5369FD0013E
:10135000379FB00D11248A1B9B0B982F990F980F64
:101360006801CC1ADD0ACE9CD001CF9CB00DDE9C6A
:10137000B00D11248B2F499FA0011124452F552713
:101380006801C41AD50ACE9CA001CF9C500DDE9CEA
:10139000500D1124E52F5801A91AB108AC9E600127
:1013A000AD9ED00CBC9ED00C1124CD2CDD240C198C
:1013B0001D090E9DE0010F9DD00D1E9DD00D112425
:1013C00062307105B1F058F46115710579F0613042
:1013D000710509F4A0CFE22F2B2F852F9CCF64300D
:1013E000710571F048F066307105A9F7E22F2D2FD5
:1013F00092CFEB2F8D2F8FCFEB2F822F252F8BCFDF
:101400002B2F8F2FED2F87CF9091E70390FF0EC0EA
:10141000493708F048E7762F682F842F0E947A0911
:10142000962F672F482F892F0E9426090895CF9362
:10143000DF93EC01E7EEF3E0438162818C810E944F
:10144000040A8C818F5F8C83DF91CF910895CF93B5
:10145000DF93EC01EC81F0E0E457FB4F4491E7EEC1
:10146000F3E0628181810E94040A8C818F5F8C830A
:10147000DF91CF910895CF93762FC22F682F842FBD
:101480000E947A09472F90914D01C91B282F8C2F5C
:1014900090E00E94F508CF9108950F931F93CF938A
:1014A000DF938C01D0E0C0E0909151019C171D06A4
:1014B00009F074F40E940A09F801848190E0019611
:1014C000817099278483DF91CF911F910F910895A7
:1014D000F801448120914F012C0F3D2F311D609167
:1014E000E9038091E80396959C171D0661F05CF076
:1014F000442359F04091EA03493708F048E70E9435
:101500003B0A2196D1CF4423A9F340E0F8CFB0E0C5
:10151000A0E0EDE8FAE00C941930EC014C81042FC6
:1015200010E09801D8010E945B319B01AC010E9440
:1015300026314B015C01E0E2F0E0E01BF10BA5E598
:10154000B0E0AC019B010E9426316B017C019F0140
:10155000DF010E949E319B01AC010E9431319B0151
:10156000AC01280D391D4A1D5B1DC701B6010E9443
:101570003931022F30E00A3258F5C901880F991F1E
:10158000880F991F281B390B37FF02C02F5F3F4F71
:10159000359527951FEF120FF12C85E5E82EE01AFF
:1015A00080915101F81630F10E940A099C8181E076
:1015B000992319F0903219F48FEF80934C018091A8
:1015C0004C01890F8C83CDB7DEB7ECE00C9435303D
:1015D00085E590E0821B930B9C01220F331F220FA5
:1015E000331F821B930B97FD0196959587951FEFEF
:1015F000180FD2CF8E2DF1FC802F20914F012F0D8F
:101600003327331F412F193708F048E76091E9036A
:101610000E943B0AF394C4CF1F93CF93DF93EC0156
:101620008C81811109C081E08C831092D80292E0F4
:1016300090934B0180934A0110914F01809150018A
:10164000181748F110E060915101161788F10E94B7
:101650000A0980914A012091D802280F2093D802CC
:1016600090914B01980F90934B01191654F4022E50
:10167000000C330B409151014150550B2417350795
:1016800034F0819580934A01813009F41C82DF9106
:10169000CF911F91089580914D01912F981B892F13
:1016A00020E040E060E090E00E94F5081F5FC6CFB8
:1016B000E12FF0E070E0CF010E94843120914F01D2
:1016C000820F2091D802022E000C330BE217F30791
:1016D000BCF020914B01022E000C330B2E173F075C
:1016E0007CF0282F30E04091EA03493708F048E7C2
:1016F0006091E9038091E8030E943B0A1F5FA3CF3A
:1017000090914D01891B20E040E060E090E00E9454
:10171000F508F4CFB0E0A0E0E0E9FBE00C941B306A
:10172000EC018A81DD24D39480FF02C0DD24DA94A9
:101730008C8181110AC081E0D81222C080915101B0
:1017400081508093D70281E08C83C12C96E3A92E2F
:1017500080915101C816B8F00E940A098091D70201
:1017600091E0D9125AC0811153C08091510181502A
:101770008093D7021C82CDB7DEB7EAE00C943730F5
:101780001092D702E0CF80914F0190914D01891BBB
:101790008C0D20E040E060E090E00E94F50804E05D
:1017A00010E0B12CEC2CF12C8091D7028B0D8733FB
:1017B0004CF16A2D0E947631892F082E000C990B6E
:1017C000E816F906C9F420914F012E0D3F2D311D69
:1017D0008091EA03809FA001819F500D11245595AF
:1017E000479555954795493708F048E76091E903D3
:1017F0008091E8030E943B0ABD0C01501109A1F63B
:10180000C394A6CF87FFD9CF90915101890FD5CF2F
:1018100081508093D702DC82AECF90E00196609138
:10182000510170E00E9484318093D7028C83A3CF52
:10183000EF92FF921F93CF93DF93EC0110E0EE2421
:10184000EA94F12C60915101161770F00E940A0978
:101850009A818C8190FF21C08F5F8C83DF91CF9123
:101860001F91FF90EF90089520914F01210F332792
:10187000331F4091EA03493708F048E770E0C70199
:101880000E948431962F8C816091E903199F800D0D
:1018900011240E943B0A1F5FD5CF8150DECF80E02C
:1018A0000895F894E82FE295EF70F0E031A1282F29
:1018B0002F7081E090E001C0880F2A95EAF7982FF9
:1018C0009095932391A392A1892B82A37894089554
:1018D0000F931F938091A404882329F00E94DD07B1
:1018E0001F910F9108950E94DD0700917E021091D3
:1018F0007F022091800230918102600F711F821F50
:10190000931FEECF9091AC0492FF10C041E0282FBE
:101910002471243009F040E031E0282F287128306C
:1019200009F030E0431711F02CE0822793FF10C03C
:1019300041E0282F2471243109F040E031E0282FC4
:101940002871283109F030E0431711F02CE082278C
:101950003091AD0430FF10C051E0282F21712130AB
:1019600009F050E041E0282F2871283009F040E0CC
:10197000541711F029E0822731FF10C041E0282FD1
:101980002171213109F040E031E0282F2871283100
:1019900009F030E0431711F029E0822794FD877E9B
:1019A000089582389105B9F1B0F48133910509F4B5
:1019B0007DC048F48932910509F46DC08A329105E1
:1019C00009F479C008958533910509F45FC089331E
:1019D000910509F10895833E9105D9F138F4803ECF
:1019E000910529F1823E910579F10895863E910590
:1019F000D9F1873E910509F43EC0843E910541F539
:101A00002091AD0421FF24C08091AC0484FD19C055
:101A100087EE90E008952091AC04237009F056C041
:101A20002091AD0423FF14C089E290E00895209135
:101A3000AC0420FD38C03091AD0430FF09C024FF54
:101A40003FC090E080E008952091AC0422FDF7CFE4
:101A500008952091AC0422FD36C03091AD0430FDD4
:101A600035C024FDEECFF4CF2091AC0423FFF0CF9E
:101A700024FDE7CFCDCF2091AC0423FD2AC03091C7
:101A8000AD0431FFEECF84EE90E008952091AC04D8
:101A900025FDCACF08952091AC0425FD1DC02091DD
:101AA000AD0423FFD5CF89E390E008952091AC04E5
:101AB00026FD15C008952091AC0426FD13C008959D
:101AC00083EE90E0089582EE90E0089580EE90E03D
:101AD000089586EE90E0089585E390E008958AE207
:101AE00090E0089581E390E0B3CF7830B8F46630A9
:101AF000A8F48530B0F4E62FF0E096E0799FE00D91
:101B0000F11D112490E3899FE00DF11D1124EE0FCA
:101B1000FF1FE851FF4F85919491089580E090E078
:101B2000089581E0FCCF1F93CF93DF930E94D10CE7
:101B3000EC01C11580E5D807E8F5C11580E4D807A8
:101B400008F09BC0C03ED10518F5CD3CD10508F08A
:101B500081C0C83AD10570F4C53AD10508F072C009
:101B6000C130D10511F118F0C430D105F0F4D0E046
:101B7000C0E01BC0C33CD105D0F7C85AD0E0CC0FA1
:101B8000DD1FC75ADE4F0990D881C02DD4640DC027
:101B9000C11580E2D80708F0CBC0C11581E0D80795
:101BA00008F05AC0C83ED10510F7CE01DF91CF91A1
:101BB0001F910895C03682E5D80718F5C03482E534
:101BC000D80708F069C0C03282E5D80708F05DC0C8
:101BD000C11582E5D80708F493C02C2F26952695C9
:101BE00080E2289F900111248C2F8370C1E0D0E007
:101BF00002C0CC0FDD1F8A95E2F7C22BD32BDD6824
:101C0000D4CFC03A82E5D80760F4C03882E5D8075F
:101C100008F457C0CF71D0E0DC2FCC27C46FD06A56
:101C2000C4CFC03C82E5D80708F45EC0C03E82E560
:101C3000D80708F09CCFDC2FCC27CC27DF71C06FF2
:101C4000D06AB3CFC55AD0E0CA5ADE4FC881D0E0BF
:101C5000D064ABCFD065A9CF8D2F0E94820C182FF6
:101C6000CE0199270E94D10CC12FD0E0DC2FCC27C8
:101C7000CC27DF71C82BD92B98CFCE0199270E9492
:101C8000D10CCC27DF70D06AF5CFCF71D0E0DC2F3C
:101C9000CC27C16FD06A89CF2C2F26952695277027
:101CA00080E2289F900111248C2F8370C1E0D0E046
:101CB00002C0CC0FDD1F8A95E2F7DC68C22BD32B64
:101CC00074CF2C2F26952695277080E2289F9001AF
:101CD00011248C2F8370C1E0D0E002C0CC0FDD1F37
:101CE0008A95E2F7DA68EACF8C2F8F710E94820C16
:101CF000C82FD0E0DC2FCC27CC27DF71D06255CFA6
:101D00008C2F8F710E94820C55E0D695C7955A95FD
:101D1000E1F7CF70D0E0DC2FCC27282F30E084FF14
:101D200005C044E0220F331F4A95E1F7D069C6CFC2
:101D30008D2F8F710E94820C182FCE0199270E943F
:101D4000D10CC12FD0E0DC2FCC27CC27DF719062E3
:101D500091CF982F909580914402892380934402DB
:101D600008958091440290911B02892B90911A0250
:101D7000992391F0892B90915401913071F49091B5
:101D8000AC0497FF0AC09EE1EAEDF1E020E091503B
:101D900040F4211110921A02089596E0E2EDF1E06C
:101DA000F5CF3191332399F32F5FF1CF8091010566
:101DB0009091C804981301C008958F5F8770FACF7F
:101DC000B0E0A0E0E6EEFEE00C941C307C01009157
:101DD000A3021091A40280918C0290918D02082B95
:101DE000192BCFE0D0E0CC24C394D12CBC2EC6015B
:101DF0000C2E02C0880F991F0A94E2F780239123CA
:101E0000892B49F4219790F7B12C8B2DCDB7DEB7F4
:101E1000E9E00C943830B7018C2F0E94750D0E94B8
:101E2000930D019779F3F1CFCF93DF93EC010E94EB
:101E3000E00EBE010E94750D0E94930DDF91CF91BF
:101E40000895983078F5863068F5E82FF0E086E060
:101E5000989FE00DF11D11249E2F977083E0F69559
:101E6000E7958A95E1F7EE0FFF1FEE0FFF1FE65093
:101E7000FE4F50E040E080E0219130E0092E02C0AA
:101E8000369527950A94E2F721703327042E01C076
:101E9000220F0A94EAF7822B4F5F5F4F44305105BF
:101EA00059F7089580E00895983098F5863088F5C0
:101EB000E82FF0E086E0989FE00DF11D11248E2FB1
:101EC000877041E001C0440F8A95EAF783E0F695F8
:101ED000E7958A95E1F7EE0FFF1FEE0FFF1FE65023
:101EE000FE4F30E020E070E05191DF011197CB010F
:101EF000022E02C0969587950A94E2F7817081952B
:101F00008527842385278C932F5F3F4F243031050D
:101F100059F708959C01267033272630310531F496
:101F200088609093A4028093A3020895877FF9CFDD
:101F300021E030E002C0220F331F8A95E2F720959E
:101F400030958091A3029091A402822393230E9452
:101F50008A0F089590911902809589238093190220
:101F6000282F277069F4891759F09091AD0492FFDA
:101F700007C08695869586950E94980F1092190243
:101F8000089521E030E002C0220F331F8A95E2F766
:101F90008091A3029091A402822B932B0E948A0F1E
:101FA000089590938D0280938C020895FC01248102
:101FB0002223B9F0808191810E94140F92959F7025
:101FC000963089F050F49250923058F4803F19F0D6
:101FD00030F4883E30F481E008959A50F5CF843F84
:101FE000D1F380E00895883EB0F3813FD1F7F3CF7D
:101FF000292F332740E02115310511F0C90148E0B0
:102000009C0164E0369527956A95E1F72115310525
:1020100011F04C5FC9019C0136952795369527959F
:102020002115310511F04E5FC90196958795892BD1
:1020300009F04F5F842F0895A6E0B0E0E2E2F0E1FE
:102040000C94223049835A8349815A819923A1F003
:10205000222391F0CA010E94E00E182F682F898177
:102060009A810E94540F69817A81812F0E94750D97
:102070002696E3E00C943E30CA010E94210F182FEF
:10208000F2CFCF93DF93682F81E06A3019F06D3083
:1020900031F480E00E94D010DF91CF9108958091BB
:1020A0000E0790910F0726E0FC01A8E0B7E0019031
:1020B0000D922A95E1F7603E08F459C026E0FC0134
:1020C00011922A95E9F7C0910E07D0910F0746E0CB
:1020D00050E0BE0188E097E00E94F031892B59F171
:1020E000CE01885095409C0145E0369527954A954C
:1020F000E1F741E050E0BA0102C0660F771F2A9570
:10210000E2F79B016091060570910705262B372B9E
:10211000059665E0969587956A95E1F7FA0102C004
:10212000EE0FFF1F8A95E2F7CF01822B932B90933E
:102130000705809306059E01225035404091050514
:10214000642F70E0C9010E94FF2F481B463010F435
:10215000240F311D2115F2E03F0710F030E020E0A0
:10216000285F3A4F30930F0720930E0795CFF6E084
:102170006F9FB00111246550794F46E050E00E94F6
:10218000A630A1CFCF93DF93EC01FE0184918111A2
:1021900003C0DF91CF9108950E9441102196F5CFA1
:1021A000CF93382FE0910E07F0910F07E850F540DC
:1021B00020910505622F70E0CF010E94FF2F281BA0
:1021C000822F332361F066E00E946A31C82FC1502C
:1021D00010F4CF91089580E20E944110F8CF9F0142
:1021E000280F311D2115324018F080E0F0E0E0E0CA
:1021F0008E0F9F2F911D885F9A4F90930F078093AA
:102200000E07E7CF0E94C21081E00E94D01008950F
:1022100080915401813059F58091AC0487FF27C02B
:102220000E94B10E8093D90140E250E06CE172E06F
:1022300088ED91E00E94F031892BC1F080E2E8ED59
:10224000F1E0ACE1B2E001900D928A95E1F7E09106
:10225000A804F091A904309749F086E08093D80152
:102260000480F581E02D88ED91E0099508950E94A4
:10227000B10E8093D00148E050E06CE372E080ED55
:1022800091E00E94F031892B89F388E0E0EDF1E0E4
:10229000ACE3B2E001900D928A95E1F7E091A804D9
:1022A000F091A904309711F30280F381E02D80EDC5
:1022B00091E0DBCF882321F00E94A90E0E94081133
:1022C0000895882339F090914402892B8093440229
:1022D0000E94081108950F931F93CF93DF938B01F2
:1022E000EA019091BE04943061F58093E9008FEF8C
:1022F0009091E800815095FD06C095ED9A95F1F713
:1023000000008111F5CF8091E80085FF1AC00E947E
:102310009206811111C08091E80085FD06C0809170
:10232000E8008E778093E800F2CFF80181918F0169
:102330008093F100219779F78091E8008E77809360
:10234000E800DF91CF911F910F91089543E050E095
:10235000BC0182E00E946B11089546E050E0BC0190
:1023600082E00E946B11089540E250E0BC0182E0DF
:102370000E946B110895CF93DF93EC0148E050E089
:10238000BC0181E00E946B1188E0FE01A4EBB4E087
:1023900001900D928A95E1F7DF91CF9108958BB16D
:1023A000877F9BB198602FB7F894E5EFF3E034E0B6
:1023B000E739F30741F42FBF8FE594E00197F1F778
:1023C00000C000000895319148E09BB9000000C0B2
:1023D00037FF8BB9330F000000C000C000C08BB9BD
:1023E00000C04A9591F7E3CFB0E0A0E0EAEFF1E159
:1023F0000C941B307C015B016A0180917D0201E03D
:1024000010E08A3010F40AE010E0C1E0D0E0B5013D
:10241000C701F6010995811104C021960C171D070B
:102420002CF4CDB7DEB7EAE00C943730CC9F9001A6
:10243000CD9F300D300D112490E080E045E34A95AA
:10244000F1F70000019682179307C1F7E0CFAB01C7
:1024500024E630E0BC0188E70E94B22D21E0892B00
:1024600009F020E0822F08958091F3039091F40306
:10247000911103C091E089270895882369F062E0F3
:1024800070E08EE895E00E942712811103C08091D0
:10249000F30308951092F3038091F303EBCFCF93EE
:1024A000C091F3038091F4038823D1F00E94DD07EB
:1024B000605A75418F4F9F4F6093EF037093F00305
:1024C0008093F1039093F203C11108C062E070E0C1
:1024D0008CE895E00E942712811105C0C091F3039A
:1024E0008C2FCF91089581E08093F303F7CFB0E074
:1024F000A0E0EDE7F2E10C941530FC01628044802D
:1025000081E08483ECE8F4E07490EBE0F5E0E491A2
:10251000C091EA03C695C158D0E0CC0FDD1FED2E67
:10252000FF24812C25E0922EAA24AA94B12C5524B4
:102530005A94E719CE2ED12C80915101881638F08B
:102540000E940A09CDB7DEB7E0E10C943130082DC6
:1025500010E082E0861568F0909EF001919EF00DEB
:102560001124E752FD4F8091E80380838091E903B5
:102570008183411026C0909EF001919EF00D1124A0
:10258000E752FD4F1382128220914F01200F312F0D
:10259000311D909EF001919EF00D1124E752FD4FE8
:1025A0004281493708F048E7909EF001919EF00D76
:1025B0001124E752FD4F618180810E943B0A839480
:1025C000BBCF909EE001919ED00D1124C752DD4FEC
:1025D0008B818823E9F081508B83859DC001112474
:1025E0006C8170E00E94FF2FFB01FF27E457FB4F37
:1025F0008491E82FE719E59DC0011124B6010E94DE
:10260000FF2F8091EA03689FB00111247A83BCCF29
:102610000E949630B5010E9484318E159F050CF002
:10262000B3CF82E0861588F40E949630B5010E94EF
:10263000843188830E9496302091E9032695622F89
:1026400070E00E948431280F2983909EF001919EB2
:10265000F00D1124E752FD4F12828091EA03893C6C
:1026600058F088EC909EF001919EF00D1124E752F5
:10267000FD4F8483838388CF8431A0F784E1F2CF38
:10268000B0E0A0E0E6E4F3E10C94193049015A010E
:102690006B017C010E9464098401A4016A2D7B2DD9
:1026A00088E090E00E94E53094014A2D5B2DB60150
:1026B000C70100E20E94C831622F83E290E00E94CD
:1026C000D330CDB7DEB7ECE00C943530B0E0A0E00D
:1026D000ECE6F3E10C941E30182F062FD42FE22ED7
:1026E0009091E70390FF43C02091E803281308C0AE
:1026F0008091E903861304C08091EA03841729F0CE
:102700008091D60282608093D602E92FE695E69505
:10271000AE2FB0E0AD55BE4F8C918093D4029C7F1C
:10272000943051F58D2FD93708F088E7612F702F3D
:102730000E947A09962F672F482F892F0E94260919
:102740001093E8030093E903D093EA03EE2079F0B5
:102750002091E7036091EB037091EC03312F402F40
:102760005D2F8091ED039091EE030E944013CDB751
:10277000DEB7E7E00C943A30823019F4D091EA03E6
:10278000DFCF863079F1893069F18931C9F6E951B5
:102790008E2F8170D82EE695F0E0E957FB4FC4915B
:1027A000F12C60915101F61618F00E940A09C8CF69
:1027B000FC9EC001112470E00E94FF2F812FD110D8
:1027C0000FC0860F20914F012F0D3327331F4D2F40
:1027D000D93708F048E7602F0E943B0AF394E1CF15
:1027E000861BF0CF122FACCFE7EEF3E0438121E15F
:1027F000421B08F440E021E0628181810E9466135F
:102800000895E7EEF3E0438121E1420F08F44FEF32
:1028100021E0628181810E9466130895E7EEF3E072
:10282000628121E1621B08F460E021E04381818143
:102830000E9466130895E7EEF3E0628121E1620FE2
:1028400008F46FEF21E0438181810E9466130895AF
:10285000E7EEF3E0818121E0438162818A500E94AA
:1028600066130895E7EEF3E0818121E04381628100
:10287000865F0E94661308958091EB03882319F008
:1028800081508093EB032091E7033091E80340915E
:10289000E9035091EA036091EB037091EC0380919E
:1028A000ED039091EE030E94401308958091EB0395
:1028B000833018F48F5F8093EB032091E70330910E
:1028C000E8034091E9035091EA036091EB037091B2
:1028D000EC038091ED039091EE030E944013089564
:1028E0009091AD0492FB222720F9281779F080FB04
:1028F00092F99093AD046091AC047091AD0484E0C2
:1029000090E00E94F13082E00E94AA0F0895B0E0AA
:10291000A0E0EDE8F4E10C941930FB018080918097
:10292000A280B3809FB7F894C090AF04D090B00459
:10293000E090B104F090B2049FBFC818D908EA082B
:10294000FB0894E6C916D104E104F10418F4C1E0CF
:10295000442341F1C82F880FDD0BDE0183E0AA0F6D
:10296000BB1F8A95E1F7AC5FBE4F11968D919C918C
:102970001297835A9D4F4C9150E00417150708F4A5
:10298000A801B9018F010E94FD31CE010E94882F5C
:10299000C82F882339F00E94DD07F8016083718316
:1029A000828393838C2FCDB7DEB7ECE00C94353067
:1029B000ABE0B0E0EEEDF4E10C94213088E0E7EE1E
:1029C000F3E0DE01119601900D928A95E1F7809176
:1029D000D4029091D502A091D60289879A87AB87BD
:1029E00041E08B85811101C040E00BE010E09E01C9
:1029F0002F5F3F4F69E772E084E00E9487148111E6
:102A00001092D6022B96E4E00C943D300F931F9366
:102A1000CF93DF93EC0144E050E062E672E00E9465
:102A2000F03141E0892B09F440E004E010E09E0120
:102A300069E572E082E00E948714DF91CF911F91D7
:102A40000F910895A4E0B0E0E8E2F5E10C942230A3
:102A500040917502509176026091770270917802F0
:102A60002FB7F8948091AF049091B004A091B10475
:102A7000B091B2042FBF841B950BA60BB70B11E0CE
:102A800084369105A105B10570F10E94680C6E5F56
:102A90007F4F8F4F9F4F69837A838B839C83809175
:102AA0001D0190911E01835A9D4F40911C0150E0E1
:102AB0004530510510F044E050E0BE016F5F7F4F9C
:102AC0000E94FD3183E090E00E94882F182F882318
:102AD00051F00E94DD076093750270937602809337
:102AE000770290937802812F2496E3E00C943E3095
:102AF000EF92FF921F93CF93DF9300D000D01F92ED
:102B0000CDB7DEB77B0190E080E00E94882F182FC0
:102B1000882309F470C04091070150E04115510528
:102B200011F041E050E06091080170910901635A91
:102B30007D4FCE0105960E94FD3140915502509186
:102B4000560260915702709158022FB7F894809105
:102B5000AF049091B004A091B104B091B2042FBF22
:102B6000841B950BA60BB70B84369105A105B10507
:102B700038F48EE592E00E945C069D818917D9F1B8
:102B800081E090E00E94882F182F882391F04091D7
:102B90000F0150E04530510510F044E050E06091E5
:102BA000100170911101635A7D4FCE0101960E9470
:102BB000FD318EE592E00E945C0691E02D812813A4
:102BC00090E0192331F10E94DD0760935502709364
:102BD0005602809357029093580289819A81AB8163
:102BE000BC818093510290935202A0935302B09300
:102BF000540211E00EC080915E0290915F02A0919C
:102C00006002B091610289839A83AB83BC83111106
:102C1000E4CF8091510290915202A0915302B09161
:102C20005402F70180839183A283B383812F0F9095
:102C30000F900F900F900F90DF91CF911F91FF9009
:102C4000EF9008951F920F920FB60F9211242F93B9
:102C50003F934F935F936F937F938F939F93AF9324
:102C6000BF93EF93FF938091E10082FF09C08091B1
:102C7000E20082FF05C08091E1008B7F8093E1003C
:102C80008091DA0080FF24C08091D80080FF20C0AE
:102C90008091DA008E7F8093DA008091D90080FFE6
:102CA000A9C080E189BD82E189BD09B400FEFDCFE4
:102CB00081E08093BE048091B304811109C00E9419
:102CC00073060E9412078091E20084608093E20004
:102CD0008091E10080FF1AC08091E20080FF16C061
:102CE0008091E2008E7F8093E2008091E20080611B
:102CF0008093E2008091D80080628093D80019BC54
:102D000085E08093BE0483E0809355018091E100CB
:102D100084FF2FC08091E20084FF2BC080E189BD39
:102D200082E189BD09B400FEFDCF8091D8008F7D7E
:102D30008093D8008091E1008F7E8093E1008091A4
:102D4000E2008F7E8093E2008091E20081608093B8
:102D5000E2008091BF04882309F452C084E080938C
:102D6000BE048091BE04843009F452C081E0809397
:102D700055018091E10083FF2CC08091E20083FF28
:102D800028C08091E100877F8093E10082E08093FA
:102D9000BE041092BF048091E1008E7F8093E10019
:102DA0008091E2008E7F8093E2008091E20080615A
:102DB0008093E20042E060E080E00E94E0068091C3
:102DC000F00088608093F00081E08093550180934B
:102DD0005401FF91EF91BF91AF919F918F917F919E
:102DE0006F915F914F913F912F910F900FBE0F9078
:102DF0001F90189519BC1092BE041092B30468CFAE
:102E00008091E30087FD02C081E0A9CF83E0A7CFD6
:102E100082E0ADCF78941F920F920FB60F921124DB
:102E20008F939F93AF93BF938091AF049091B00421
:102E3000A091B104B091B2040196A11DB11D80937F
:102E4000AF049093B004A093B104B093B204BF91C7
:102E5000AF919F918F910F900FBE0F901F9018957B
:102E60009C014FB7F8948091AF049091B004A09169
:102E7000B104B091B2044FBF821B930B08952FB7DA
:102E8000F8948091AF049091B004A091B104B091F6
:102E9000B2042FBF08950E943F172091A004211172
:102EA00004C02091A104222321F090939D048093DB
:102EB0009C042091A204211104C02091A304222388
:102EC00021F090939B0480939A04E091A804F091E0
:102ED000A904309749F082E080939E040680F78130
:102EE000E02D8EE994E009950895109244028091B6
:102EF0005401813039F58091AC0487FF23C0EAED9D
:102F0000F1E08EE1DF011D928A95E9F790E080E023
:102F10000E946F0890E080E00E944A0810921B0215
:102F20000E94081186E0EEE9F4E0DF011D928A9527
:102F3000E9F71092970410929804109299040E9455
:102F40004B170895E2EDF1E086E0DCCFAAE2B0E0B5
:102F5000ECEAF7E10C942230E0ECF4E08091F1002F
:102F6000819324E0E83CF207C9F78091C1048330E3
:102F700009F47DC008F5813009F454C0823009F4A9
:102F8000C2C08091E80083FFFCC08091C004909192
:102F9000C1049A3008F0F5C0E92FF0E0EE52F84E87
:102FA0000C9498319418BA18C118BA18C11812198B
:102FB0003419C118321A3F1A8A3009F493C08B3081
:102FC00009F472C08930E9F68091C0048132C9F6F3
:102FD0008091C4049091C504029798F68091E8000E
:102FE000877F8093E8008091E80082FF3BC080915A
:102FF000F3009091F200892798278927029731F4EE
:103000008091F100813011F0863021F48091F1003F
:10301000809353018091E8008B778093E8000E94B1
:10302000C106AFCF8091C004813A09F0AACF809148
:10303000E800877F8093E8008091C4049091C504E4
:10304000892B61F060E090E080E070E00E946D0705
:103050008091E8008B778093E80093CF68E084EB61
:1030600094E0F3CF8091BE048111BDCF8ACF8091CF
:10307000C004813A09F085CF8091C4049091C504C1
:10308000892B09F07ECF8091E800877F8093E8004C
:103090008091E80080FFFCCF809154018093F10083
:1030A0008091E8008E77B9CF8091C004813209F019
:1030B00068CF8091C4049091C504892B09F061CF39
:1030C0008091E800877F8093E8000E94C10681E03C
:1030D0009091C204911101C080E0809354010E943C
:1030E00075174FCF8091C004813209F04ACF80918B
:1030F000E800877F8093E8000E94C1068091C304A6
:10310000809352013ECF8091C004813A09F039CFBB
:103110008091E800877F8093E8008091E80080FF3D
:10312000FCCF80915201BACF803889F0823849F5BE
:103130008091C4048F70873020F58093E9008091DE
:10314000EB0085FB882780F91092E90006C080918A
:10315000BC049091BD04911182609091E800977F2A
:103160009093E8008093F1001092F1008091E800C4
:103170008E7727C0282F2D7F21F48823A1F082305D
:1031800029F18091E80083FF0AC08091E800877FE1
:103190008093E8008091EB0080628093EB00AA9618
:1031A000E3E00C943E308091C204813051F79330BB
:1031B00009F080E08093BD041092E9008091E8005E
:1031C000877F8093E8000E94C106DBCF8091C20414
:1031D0008111F2CF8091C4048F702FEF280F263019
:1031E00080F68093E9002091EB0020FFE5CF93303B
:1031F00031F48091EB0080628093EB00DDCF909101
:10320000EB0090619093EB0021E030E001C0220FD1
:103210008A95EAF72093EA001092EA008091EB0089
:103220008860EACF8111ADCF1091C2041F778091E1
:10323000E3008078812B8093E3008091E800877F12
:103240008093E8000E94C1068091E80080FFFCCFD7
:103250008091E30080688093E30083E0111101C056
:1032600082E08093BE048DCF8058823008F089CFF1
:103270008091C2049091C3048C3D23E09207A1F594
:1032800083E08A838AE289834FB7F894DE0113963C
:1032900020E03EE051E2E32FF0E050935700E4914C
:1032A00020FF03C0E295EF703F5FEF708E2F90E03C
:1032B000EA30C0F0C7968D939D932F5F243159F764
:1032C0004FBF8091E800877F8093E8006AE270E05A
:1032D000CE0101960E946D078091E8008B77809364
:1032E000E8004FCFC096E7CF4091C4045091C50489
:1032F000292F33272330310509F443C078F52130D5
:10330000310509F46DC08BE390E0EAE8F6E0223085
:10331000310509F036CF2091E800277F2093E8009F
:103320002091C6043091C7048217930708F49C01CA
:1033300040E02115310509F062C0411160C0809163
:10334000E80082FDC9CF8091BE04882329F2853030
:1033500019F28091E80083FFF2CFBECF2132310510
:1033600099F12232310509F00CCF4115510509F4CC
:1033700041C086EB90E0E0E9F5E04130510559F2BB
:1033800000CF992781309105B9F058F0029709F0E4
:10339000F8CEE7EDF6E0E4918E2F90E0E7EDF6E071
:1033A00007C0E7EFF6E0E4918E2F90E0E7EFF6E05C
:1033B000009709F4E6CEAFCFE5EEF6E0E4918E2F6C
:1033C00090E0E5EEF6E0F4CF4115510571F089E0AB
:1033D00090E0E5EBF6E04130510509F49CCFD1CE09
:1033E00082E190E0E5ECF6E096CF89E090E0ECE950
:1033F000F6E091CF84E490E0E6E4F6E08CCF8091B3
:10340000BE04882309F468CF853009F465CF809124
:10341000E80083FD61CF8091E80082FD90CF80912C
:10342000E80080FF86CF8091F3009091F200892719
:10343000982789272115310519F08830910550F01A
:1034400041E0089709F040E08091E8008E77809392
:10345000E8006FCF44914093F1003196215031093B
:103460000196E8CF803809F08CCE8091E800877F04
:103470008093E8008091BF048093F10077CE8111A2
:1034800080CE1091C204123008F07BCE8091E8000B
:10349000877F8093E8001093BF040E94C106112328
:1034A000A9F084E08093BE0442E061EC81E00E94D8
:1034B000E00642E261EC82E00E94E0068091BE04F8
:1034C000843051F482E0809355015BCE8091E3001B
:1034D00087FDE7CF81E0E6CF81E0F5CF1F920F9225
:1034E0000FB60F9211242F933F934F935F936F93D7
:1034F0007F938F939F93AF93BF93CF93EF93FF935C
:10350000C091E900CF708091EC001092E9008091A9
:10351000F000877F8093F00078940E94A6171092A5
:10352000E9008091F00088608093F000C093E9008A
:10353000FF91EF91CF91BF91AF919F918F917F912B
:103540006F915F914F913F912F910F900FBE0F9010
:103550001F9018950E9475172FEF84E39CE021506F
:1035600080409040E1F700C0000088E19AE00FB68B
:10357000F894A895809360000FBE90936000FFCFF1
:10358000662309F45DC08D3C41F40E94C708819513
:103590008093A1040E944B1708958E3C19F40E9459
:1035A000C708F6CF8F3C31F40E94C70881958093FD
:1035B000A004F0CF803D19F40E94C708F8CF893DE0
:1035C00029F40E94A5088093A204E4CF8A3D21F447
:1035D0000E94A5088195F7CF8B3D31F40E94A50884
:1035E00081958093A304D6CF8C3D19F40E94A50841
:1035F000F8CF9FE2980F983070F4815D990B21E02D
:1036000030E001C0220F8A95EAF780919F04822B57
:1036100080939F04BFCF8D3D31F4809199048160E8
:1036200080939904B7CF8E3D21F4809199048260F4
:10363000F7CF8F3D09F0AECF809199048460F0CF31
:103640008D3CD9F49091A10497FF1DC01092A10464
:103650008091A004811106C08091A104811102C053
:10366000109297048091A204811194CF8091A304B9
:10367000811190CF109298048DCF8E3CD9F4909107
:10368000A10419161CF39FE2980F983008F03FC070
:10369000815D990B21E030E0A90102C0440F551F64
:1036A0008A95E2F7CA01809590919F0489238093BF
:1036B0009F04CECF9091A0048F3C29F497FFE3CFD5
:1036C0001092A004C5CF803D19F41916CCF3DBCFBE
:1036D0009091A204893D29F41916ACF61092A20427
:1036E000B7CF8A3D19F497FFCECFF8CF8B3D39F491
:1036F0009091A30497FFC7CF1092A304A9CF8C3D4C
:1037000009F0C1CF9091A3041916B4F3BCCF8D3D3D
:1037100031F4809199048E7F8093990499CF8E3DE6
:1037200021F4809199048D7FF7CF8F3D09F090CFE0
:10373000809199048B7FF0CF882381F19CEF980FC3
:10374000913A28F40E94EC070E940811089590E233
:10375000980F983050F4877091E001C0990F8A95C6
:10376000EAF7892F0E94A90EEFCF9BE5980F9330BF
:1037700028F490E080E00E946F08089598E5980F83
:103780009B3128F490E080E00E944A08089593E37A
:10379000980F933118F460E00E94C01A0895CF93F7
:1037A0008823C1F1C82F8CEF8C0F813AA8F5809146
:1037B0005401813001F58091AC0487FF1CC0EC2FCF
:1037C000E695E695E695F0E0E852FE4F828190E0BE
:1037D0004C2F477021E030E002C0220F331F4A9582
:1037E000E2F782239323892B81F08C2F0E94EC0730
:1037F0000E9408110AC0E2EDF1E088ED91E021910C
:10380000C21799F38E179F07D1F78C2F0E941608C5
:103810000E940811CF91089580E28C0F883068F4DF
:10382000C77021E030E001C0220FCA95EAF780910D
:103830004402822B80934402EBCFEBE5EC0FE330A4
:1038400040F4F0E0EA5AFE4F808190E00E946F0859
:10385000E1CFE8E5EC0FEB3150F4F0E0EE0FFF1FA5
:10386000E75AFE4F808191810E944A08D3CF83E3BB
:103870008C0F833178F661E08C2F0E94C01ACACF7A
:103880000F931F93CF93DF93C62FD42F122FFC01DA
:1038900085818823A9F0609304050E943F179093C7
:1038A000030580930205C77081E001C0880FCA95A7
:1038B000EAF70E946111DF91CF911F910F91089556
:1038C00080910405681335C080910205909103052D
:1038D0000E943017883C910560F500E20D0FCD176E
:1038E000B9F080E28C0F883040F4C77081E001C0ED
:1038F000880FCA95EAF70E945A11083008F581E04E
:103900009D2F977001C0880F9A95EAF70E94611168
:10391000812F0E94CF1B812F0E949C1B083058F6DC
:10392000D77081E001C0880FDA95EAF70E945A113A
:10393000C2CFC77081E001C0880FCA95EAF7F6CF01
:10394000812F0E94CF1B812F0E949C1BB4CF80919E
:10395000A404882319F00E943F1708950E94680C60
:10396000CB0108956091E7036695669570E04BE0A2
:1039700050E08FE391E00E94E331892B19F481E05C
:103980008093D5020E94A71C9093CF028093CE0211
:103990008091D60284608093D60208959091E703C7
:1039A00090FF3AC09370811138C094609093E70300
:1039B0008091D60281608093D602662391F0209197
:1039C000E7033091E8034091E9035091EA036091E5
:1039D000EB037091EC038091ED039091EE030E9454
:1039E00040136091E7036695669570E04BE050E008
:1039F0008FE391E00E94E331892BB9F00E94030923
:103A000081E08093D10220E04091EA036091E903D4
:103A10008091E8030E94661308958B3210F0986A33
:103A2000C5CF880F880F982BC1CF0E94B21CE8CF5A
:103A30008091E70386958695815009F48AE261E0DA
:103A40000E94CE1C08958091E703869586958F5F2E
:103A50008B3208F081E061E00E94CE1C0895B0E056
:103A6000A0E0E5E3FDE10C941C30FC018481882397
:103A700009F46DC08F0121E0408151816281738121
:103A800095810E941C10EC01F8019581992309F49D
:103A9000BCC481818093A80280818093A70280E2C8
:103AA00080933701D093A602C093A5029E013052A5
:103AB0002115304208F5F8018681807F09F463C042
:103AC000FE01FF27ED33F10528F4E455FF4FE491A3
:103AD000E0933701FE01E851FC47E730F10508F0BB
:103AE00052C0EB58F24E0C949831B01DB41D921D8B
:103AF000AC1DB81DBC1DC01D9E01305421153041A8
:103B000020F4F8018681807FD9F69E013A9521152F
:103B10003F41B0F29E01205A324520323105D0F2A9
:103B2000FE01D0CF26E241EE61EEC8010E94401CAA
:103B300080911902877059F0F8018581882339F046
:103B40008091AD0482FF03C082E00E94AA0FCDB72E
:103B5000DEB7E9E00C94383027E245EE65EEE5CFBC
:103B600026E241EE60EEE1CF27E245EE64EEDDCFE6
:103B700026E241EE62EED9CF27E245EE66EED5CFE2
:103B800028E241E0EBCF109204059E01305723322A
:103B9000310508F062C484E090E00E94BD3090934B
:103BA000AD048093AC04FE01E150F047E232F10530
:103BB00008F026C0E252F24E0C9498313A1EAF1E25
:103BC000421E0C1E101E461E141E4A1E561E201E8D
:103BD000A81E241E5A1E281E5E1E861E2C1E621E35
:103BE0008D1E321E681E701E181E4E1E1C1E521E7A
:103BF000361E6C1E7C1E961EA61E061E3E1EB61E81
:103C00008091AC0481608093AC0495C08091AD0438
:103C100088608093AD048FC08091AC048260F3CF44
:103C20008091AC048460EFCF8091AC048860EBCFCE
:103C30008091AD048160EDCF8091AD048260E9CFC9
:103C40008091AC048061DFCF8091AC048062DBCFD7
:103C50008091AC048064D7CF0E9475178091AC042A
:103C60008068D1CF8091AC048860DCCF8091AD04B6
:103C70008260E0CF8091AC048E7FC5CF8091AD048F
:103C8000877FC7CF8091AC048D7FBDCF8091AC047E
:103C90008B7FB9CF8091AC04877FB5CF8091AD0485
:103CA0008E7FB7CF8091AD048D7FB3CF8091AC0470
:103CB0008F7EA9CF8091AC048F7DA5CF8091AC047D
:103CC0008F7BA1CF0E9475178091AC048F779BCF1B
:103CD0008091AC04877FDCCF8091AD048D7FE0CFF5
:103CE0008091AC0482FB992790F921E0922790FB08
:103CF00082F990FB83F987CF8091AD04982F90953E
:103D000091708E7F892B90FB81F983CF9091AC04C9
:103D1000892F8F7B96FF806476CF0E9475179091D4
:103D2000AC04892F97FB87F980586DCF61E08EE056
:103D300090E00E94D3306091AC047091AD0484E0B7
:103D400090E00E94F1300E947517F2CE60E0EFCF54
:103D50009091AC04892F8F7E94FF806154CF909115
:103D6000AC04892F8E7F90FF81604DCF9091AD0480
:103D7000892F877F93FF88604CCF8091F801811154
:103D80000AC089E20E94EC0703C085E30E9416087E
:103D90000E940811CDCE85E3F5CF8272FE01E0527C
:103DA000F847EB30F10508F03CC3E752F14E0C94B4
:103DB0009831E41E0F1F141F191F1E1F231F281FD9
:103DC0002D1F321F371F3C1F8091E70380FF1EC04D
:103DD000282F2E7F2093E7033091E8034091E903D9
:103DE0005091EA036091EB037091EC038091ED0335
:103DF0009091EE030E9440130E9403098091D60225
:103E000081608093D6020E940A0992CE81608093DD
:103E1000E70361E0869586950E94CE1C89CE8823B3
:103E200029F00E94181D84CE8823D9F30E94231DF7
:103E30007FCE882329F00E9428147ACE8823D9F3D4
:103E40000E94321475CE882329F00E940E1470CE81
:103E50008823D9F30E941B146BCE882329F00E947B
:103E6000F41366CE8823D9F30E94011461CE88230F
:103E700029F00E943C145CCE8823D9F30E9456148A
:103E800057CE992381F0C330FCE7DF0709F484C0E3
:103E900008F067C0C1153CE7D30709F470C0C13012
:103EA000DC4709F47FC0F8018581C081D181882376
:103EB00009F486C0CE010E94E00EF82E682FCE01D4
:103EC0000E94540FBE018F2D0E94750D0E94930D0C
:103ED000D82FC92FB82EF801D580C680C2943FE0F4
:103EE000C32280911902877009F1ED2CDD20F9F0D1
:103EF000892F807F803469F080E28D0F8830B0F0A8
:103F0000892F807E803229F4F1E0FD1778F4CC20EF
:103F100069F08091AD0482FF09C082E00E94AA0F7F
:103F2000809119028770EE24E3948111E12CFC2E1C
:103F3000F2942FE0F2222BE02F1508F4ADC0EF2D04
:103F4000F0E0EB55F04E0C949831E51FE51F1E2074
:103F50001E20BD20DE204C204C20E3206C217D2142
:103F60007D21CB359CE7D90749F1CC35ECE7DE075D
:103F7000D9F0CA35DC4709F096CF81E01CC00E9419
:103F800075172FEF34E38CE0215030408040E1F78B
:103F900000C000000E94CC076FEF7FEF90E080E050
:103FA0000E94F1300E94AA1A8091AD0482FB8827FA
:103FB00080F991E089270E94701475CF80E0FBCFD3
:103FC000CE010E94210FF82E7DCF3C2F3F70F32EA3
:103FD000C07F19F0F29490EFF9228D2FDD20B9F017
:103FE000FF2069F090E29D0F983010F0D11109C0C8
:103FF00080914402F82AF09244020E9408118D2F09
:1040000043C080911B02F82AF0921B02F6CF0E9457
:104010009C1BFF2009F440C0D05ED83010F0B110D6
:1040200004C08F2D0E94A90E06C0F09480911B023F
:10403000F822F0921B020E9408112EC08C2F8F7064
:10404000F82EC07FC03219F0F29480EFF822BB2026
:1040500059F091E0B91609F470C0DD2009F47CC074
:10406000CC2009F43FC0CBCF8091AD0482FD36C097
:10407000DD2069F0FF2039F080914402F82AF092A7
:1040800044020E94081180E00E94CF1B05C080E01E
:104090000E949C1BF110C5CFEE20A9F0809119025F
:1040A00080FD11C0F80115828695869586950E943F
:1040B000C10FC8010E942F1D809119028695869517
:1040C00086950E94980F20E0F8014081518162811D
:1040D0007381848195810E941C1039CDDD2099F077
:1040E000C11004C08F2D0E946111D6CFE1E0CE1225
:1040F000D3CF80911A029F2D9823F91669F2F82ADE
:10410000F0921A02C9CFC110C7CF8F2D0E945A1149
:1041100090911A028F2D892329F08F2D8095892364
:1041200080931A028091F9019F2D982309F4B4CF4E
:10413000F094F822F092F901AFCFDD2029F0F5E0FC
:10414000FC1508F4A9CFCECF24E02C1508F4A4CF99
:104150008F2D0E945A11A0CFCC20D1F3D93349F42E
:104160003FEF87EE93E0315080409040E1F700C090
:1041700000008D2F0E949C1B8FCF8C2F86958695DB
:10418000837041F0813081F088EF8F0D843008F02A
:1041900083CF4DC08D2F9C2F9370D11002C080E033
:1041A00090E00E946F0878CF8D2F9C2F9370D110D4
:1041B00002C080E090E00E944A086ECF6D2D8D2FE6
:1041C0000E94C01A69CF8C2F837009F041C0D110B2
:1041D0002EC04D2F429546954770440F440F2D2F0A
:1041E0002F7030E0042E02C0220F331F0A94E2F732
:1041F00090E080E0D4FF09C08FE090E002C0880F1B
:10420000991F4A95E2F780959095C695C695C3701B
:10421000C230A9F088F440918C0250918D02C130D7
:1042200049F0822B932B842395230E94D10F0E9467
:10423000940832CF242B352B822B932BF6CF822B55
:10424000932B20918C0230918D0282279327EDCF02
:104250008695DD2011F08C2F8170882341F34D2F3E
:10426000429546954770440F440F2D2F2F7030E034
:10427000042E02C0220F331F0A94E2F790E080E080
:10428000D4FF09C08FE090E002C0880F991F4A95C3
:10429000E2F780959095C695C695C370C23099F0A7
:1042A00078F44091A3025091A402C13039F0822BDE
:1042B000932B842395230E948A0FB9CF242B352B6F
:1042C000822B932BF8CF822B932B2091A30230913A
:1042D000A40282279327EFCFCF70DD2039F08C2FF7
:1042E0000E94C10F8D2F0E946111A1CF8D2F0E94BE
:1042F0005A118C2F0E94980F9ACF8D2FE2EFBE1685
:1043000009F43FC0EB1580F0F0EFBF16F1F021EF9C
:10431000B216A1F0DD2009F464C0CC2009F45EC01F
:104320008D2F0E94CF1B30CF33EFB31689F194EF5E
:10433000B912F0CF9091AD0492FD37C08C2F8F71E0
:10434000DD2019F10E94C10F1FCFDD20A9F0E4E0AC
:10435000EC1508F419CFCF7181E090E002C0880F0E
:10436000991FCA95E2F72091A3023091A4028227F7
:1043700093270E948A0F08CFF5E0FC1508F404CFBC
:10438000EACF8C2F8F71DD20E9F20E94980FFCCECE
:1043900090E080E0DD2069F3CF7181E090E002C021
:1043A000880F991FCA95E2F7E4CFDD2061F08C2FCA
:1043B0008F7192FFC7CF98E0899F900111242360ED
:1043C00020931902BFCF81E00E94AA0FE1E0EC1513
:1043D00008F0DACE82E00E94AA0FD6CE8C2F8F7121
:1043E000B1CFCC2079F0893349F4FFEF27EE33E0E9
:1043F000F15020403040E1F700C000008D2F0E94B6
:104400009C1BC2CE8C2F8F71C0CFFE01E851FC47A0
:10441000E730F10508F465CBC6312CE7D20709F483
:10442000ACCC9E01205E32452032310508F029CD0A
:10443000911139CDCF7181E090E0FC0102C0EE0F07
:10444000FF1FCA95E2F7EF016E2F83E090E00E9414
:10445000D330CE010E94D10F6BCB80914402C63184
:10446000FCE7DF0709F099CC8A7A91E009F490E043
:104470009093F801811189CC89E288CCCF93DF93A6
:1044800080911802807F09F04DC080911702882327
:1044900009F448C0E09101055091C804C09113028D
:1044A000D0911202609114027091150247E05E17DC
:1044B000C9F18E2F90E0E49FF0011124E753FB4FE8
:1044C0002481222391F1489FF001499FF00D11248E
:1044D000DF01A753BB4F11962C9111972C1325C0C8
:1044E0002C912D1322C015962C91159721111DC0CA
:1044F00012962D913C91261B370B283C3105A8F4D0
:10450000809118028F70806180931802E153FB4FF5
:1045100080818F708061808382E192E00E942F1DF4
:104520000E94D60EDF91CF910895FC013196E7707D
:10453000BECFA4E1B0E0EFE9F2E20C9419308C01B7
:1045400086E0F801DE011F9601900D928A95E1F751
:10455000F8018481E58092E1A92E92E0B92E909134
:104560001602911128C0882319F1EE20F1F0C8013C
:104570000E94D60FF82E8823C1F087E0F801D501FC
:1045800001900D928A95E1F780911602813031F405
:1045900080911202909113020E94140F0E943E22F9
:1045A0008F2D6496ECE00C943530C8010E942F1DCD
:1045B000FF24F394F5CFD080C18082809380F09067
:1045C00017022091140230911502A401421B530BD3
:1045D000FF2009F4D8C0483C510508F091C0882359
:1045E000F9F29091130280911802282F207F09F090
:1045F00055C0C91214C090911202D91210C0E11016
:1046000047C08F7080618093180282E192E00E941F
:104610002F1D80911802F8018683F12CC1CFE11083
:1046200037C06C2D8D2D0E943D066C2D8D2D0E9466
:104630003D06E82E8111F1CFDF86C88A8F859889E3
:104640000E94140F292F22952F70243058F49F7048
:10465000223080F0992391F0F8019681907F71F4D7
:10466000FE2C9ECF2A50223068F0C8010E942F1DD8
:10467000EF2CF6CF992311F0882391F3805E8830D8
:10468000A0F7EECF803F60F3815F833070F7E8CF13
:1046900080911802816080931802BFCFC91207C0B1
:1046A00090911202D91203C0EE2009F48DC0C80106
:1046B0000E94D60F882309F478CFEE2009F475CF35
:1046C00080911802803288F02091120230911302FA
:1046D000398728879B868A86909116029C871D863B
:1046E0008E87CE0108960E942F1D87E0F801A2E177
:1046F000B2E001900D928A95E1F70E943E2258CFD8
:1047000090911802292F207F51F482E192E00E94BB
:104710002F1D87E0F50111928A95E9F77ECF882356
:1047200009F43ECF809113028C1110C080911202C7
:10473000D8120CC0E1100AC09683C8010E942F1D38
:1047400087E0F50111928A95E9F72ACFC8010E9406
:10475000D60F882309F429CFEE2009F426CF8091C3
:104760001802803210F220911202309113023A8323
:1047700029839C828B82909116029D831E828F8357
:10478000CE010196B0CF483C5105D0F6882309F4FC
:104790000FCFFE2CEE2009F408CF809113028C116C
:1047A00020C080911202D8121CC08091180280FD96
:1047B0000FC0982F907F61F08683903F31F0982F43
:1047C000907F905F8F70892B8683C8010E942F1D78
:1047D00087E0F801A2E1B2E001900D928A95E1F73D
:1047E000DFCEC8010E94D60F81117FCF80911802C1
:1047F000816080931802C8010E942F1DD1CEABE1C9
:10480000B0E0E5E0F4E20C9421304E8B5F8B688FD2
:10481000798F8A8F9B8F192F911110921B021D8AFD
:1048200086E0FE017696DE011F9601900D928A9534
:10483000E1F70A8D002341F021E04F85588969890D
:104840007A89C8010E941C100B8B1C8B87E0FE012B
:104850003F96DE01189601900D928A95E1F7CE0100
:1048600008960E94992281112AC087E0FE0138969D
:10487000DE01119601900D928A95E1F78C858823CF
:10488000F1F02091C80430E0C901019687709927A2
:10489000409101054817190659F197E0929FD00100
:1048A000939FB00D1124A753BB4FFE013196019089
:1048B0000D929A95E1F78093C8040E94D60E17E0F6
:1048C000809101059091C8048917F9F0819FC0017A
:1048D000112487539B4F0E9499228823B1F0809125
:1048E000010590E001968770992780930105E8CF34
:1048F0000E9475171092C8041092010587E0E2E14A
:10490000F2E0DF011D928A95E9F76B96E4E00C94E2
:104910003D30A3E1B0E0EFE8F4E20C9418308E01F2
:10492000045F1F4F88E0D8011D928A95E9F781E95D
:10493000E82E81E0F82E6801AA24A394B12C2BE97B
:10494000822E21E0922EF70181917F018F3F09F4A1
:1049500040C0F894E82FE295EF70F0E021A18F704D
:10496000A50102C0440F551F8A95E2F7CA01922F94
:10497000982B91A392A18095892382A3789400C05B
:10498000E5E9F1E0712C31E021912F3F09F4A2C05B
:10499000A22FA295AF70B0E090968C9190E02F700E
:1049A00002C0959587952A95E2F780FD93C0832FE5
:1049B000782A330F8E169F0639F7F70131978081D9
:1049C0008F3F11F00E94510C50EA5A95F1F7D60131
:1049D0007C92BFEFCB1ADB0AE5E9EE16E1E0FE06BA
:1049E00009F0B1CF48E050E0B80182E892E00E94BF
:1049F000F031009741F028E0F801A2E8B2E0019020
:104A00000D922A95E1F700918B0210E001571D4F9E
:104A1000892B09F461C081E0809349020E943F170D
:104A20009093480280934702F12CE090A404EE207A
:104A300009F4AEC019821A821B821C8280917D0209
:104A40008A3008F06DC048E755E1BE016F5F7F4FC7
:104A5000C8010E94F411882309F487C046E055E19B
:104A6000BE016F5F7F4FC8010E94F411882309F4D3
:104A70007CC042E255E1BE016F5F7F4FC8010E94DA
:104A8000F411882309F471C048ED54E1BE016F5F51
:104A90007F4FC8010E94F411882309F466C0109268
:104AA0007D0280918A0290E044E050E0BE016F5F99
:104AB0007F4F81579D4F0E94F03121E0209350029B
:104AC000892B09F044C0E12C8E2D8F296396EDE0EF
:104AD0000C94343080E06CCFF0904902FF2009F450
:104AE000A3CF80914702909148020E94301705970A
:104AF00008F49ACF44E050E062E872E0C8010E94F6
:104B0000F031892B59F084E0E2E8F2E0D80101901D
:104B10000D928A95E1F71092490287CFF12CFBCFD5
:104B200080914A0290914B020E943017843F91403D
:104B300008F089CF80915002882329F284E0FE0199
:104B40003196DF011D928A95E9F710925002E091AB
:104B50008A02F0E0E157FD4F89819A81AB81BC81E7
:104B600080839183A283B383AFCF80917D028F3FF7
:104B700019F08F5F80937D0280917D028A3008F466
:104B800090CF0E943F1790934B0280934A02D2CF5E
:104B9000C0908A02D12CF601E157FD4F6F0184E0ED
:104BA000F801AEE5B2E001900D928A95E1F78EE54D
:104BB00092E00E945C0680935D0284E0E2E6F2E00F
:104BC000D60101900D928A95E1F78090660290904F
:104BD0006702A0906802B090690280914C029091A7
:104BE0004D02A0914E02B0914F0288169906AA0676
:104BF000BB06B1F080924C0290924D02A0924E0200
:104C0000B0924F020E94DD07861A970AA80AB90AD5
:104C100080927E0290927F02A0928002B0928102E6
:104C20008BE0EAE6F2E0DE01119601900D928A95A2
:104C3000E1F780916A0286958695D0906B02C090CC
:104C40006C02B0906D020091730210917402109288
:104C50007402112309F438CF10FF0BC02981909101
:104C6000E70320FF1AC091609093E70360E00E9481
:104C7000CE1C11FF06C020E04B2D6C2D8D2D0E9407
:104C8000661312FF04C00023B1F00E94B21C13FF90
:104C90001BCF81E08093D10217CF892F8E7F809325
:104CA000E7030E9403098091D60281608093D602B7
:104CB0000E940A09DECF0E940309E9CFA6E0B0E016
:104CC000E4E6F6E20C9421300E943F178C018091BB
:104CD0004502909146028017910781F019821A824D
:104CE0000E943F17682F49815A81792F80E090E018
:104CF0000E94FF2310934602009345022696E4E0AB
:104D00000C943D301F920F920FB60F9211248F9387
:104D10009F93AF93BF938091AE04811113C0809194
:104D2000AF049091B004A091B104B091B204419647
:104D3000A11DB11D8093AF049093B004A093B10462
:104D4000B093B204BF91AF919F918F910F900FBE1E
:104D50000F901F901895A0E1B0E0E1EBF6E20C9403
:104D6000133085B7806885BF85B7806885BF84B7F5
:104D7000877F84BF0FB6F894A89580916000886102
:104D800080936000109260000FBE80E890E00FB644
:104D9000F89480936100909361000FBE81E080934E
:104DA00055018FE49CE09093CF018093CE010E9447
:104DB00073060E9412078091E20084608093E200F3
:104DC00078948091BE04882399F01091E9001F70B7
:104DD0008091EC0080FF0CC180E8182B1092E90054
:104DE0008091E80083FD0E94A6171F701093E900D0
:104DF00082E084BD93E095BD9AEF97BD80936E00ED
:104E000010927E0210927F02109280021092810214
:104E10008091D80080618093D8002AE12A95F1F72B
:104E200000C08091D900182F117080FD04C00E942D
:104E300073061092BE041093A4041093A50410935B
:104E40002C01112309F4D6C010924D018BE18093FF
:104E50004E010E949C2E80912C0180912C0190E0AB
:104E6000811101C094E090938B0284E0891B8093B0
:104E70008A0284E90E94510C86E60E94510C87E95F
:104E80000E94510C86EC0E94510C05E911E0D801FA
:104E90008D918D018F3F11F00E94510CB1E00B39C3
:104EA0001B07A9F788E0EFE8F2E0DF01282F1D9249
:104EB0002A95E9F7E2E8F2E0DF011D928A95E9F729
:104EC00090E080E00E94BD30853E9E4F09F461C0B5
:104ED00065EE7EEF90E080E00E94F13060E082E0DD
:104EE00090E00E94D33081E090E090938D02809317
:104EF0008C0261E083E090E00E94D33060E074E1D6
:104F000084E090E00E94F13060E086E090E00E9452
:104F1000D33060E087E090E00E94D33040E050E082
:104F2000BA0188E090E00E94E53060E083E290E022
:104F30000E94D33060E08CE090E00E94D33060E0CB
:104F40008DE090E00E94D33019821A821B821C826D
:104F50001D821E821F82188648E050E067E170E0E3
:104F6000CE0101960E94C33040E050E0BA018FE1CB
:104F700090E00E94E53040E050E0BA018FE090E020
:104F80000E94E53040E050E0BA0183E190E00E94E9
:104F9000E53082E090E00E94AF308093970284E099
:104FA00090E00E94BD309093AD048093AC040E94C9
:104FB0008924EFEFF6E721E0E150F0402040E1F7EF
:104FC00000C000000E9489248091A504E0E08111C6
:104FD00001C0E4E0F0E0E157FD4F808181FF10C0A7
:104FE0006FEF7FEF90E080E00E94F1300E94CC07ED
:104FF00080E0F3CE8BE180934D0180934E012BCF67
:1050000083E090E00E94AF3090E00E94D10F809149
:10501000A404882309F43AC180E08093C90280E89F
:10502000809305050E943A2D6BE070E08FED92E0D1
:105030000E9427128823E9F18091C90265E070E09F
:1050400081FD26C18AED92E00E942712882389F112
:105050006DE070E088EC92E00E942712882349F10D
:105060000E94DD07605A75418F4F9F4F6093EF0399
:105070007093F0038093F1039093F203E8E0F5E07E
:1050800080E092E0DF019C011D9221503040E1F769
:10509000F0930F07E0930E078FEF9FEF90930705B4
:1050A0008093060581E08093F4038093F3031092CC
:1050B000CA0280918E02811185C088E090E00E9432
:1050C000B7304B015C0183E290E00E94AF30282FA3
:1050D00030E040E050E060E070E080E090E000E22E
:1050E0000E94AD31282939294A295B292093E703F9
:1050F0003093E8034093E9035093EA036093EB0392
:105100007093EC038093ED039093EE033091D602FD
:1051100033603093D6022C7F09F042C025E0209303
:10512000E7031092E8033FEF3093E90338E7309349
:10513000EA031092EB0330E04FEF58E760E00E9483
:10514000401388E090E00E94B7306B017C0183E25D
:1051500090E00E94AF30282F30E040E050E060E067
:1051600070E080E090E00E94AD31B22FA32FF42FC9
:10517000E52F5B0197018601BC29A12BFE29E32BBA
:10518000B093E703A093E803F093E903E093EA0305
:105190006093EB03B092EC038093ED039093EE03E6
:1051A0000E9464090E9403090E9400098091E7039C
:1051B00080FF05C060E0869586950E94CE1C81E048
:1051C00080938E028091A404811102C00E949F2EC0
:1051D0008DE291E09093A9048093A80448E1242EE5
:1051E000312CFF24F3948091BE0410E4853009F43F
:1051F00085C00E94892408E912E03FE8C32E32E00E
:10520000D32ED601F80191918D9122E0E03AF20778
:1052100009F47EC09817B9F37090A404E12CD6016C
:10522000BD906D01F80181908F018B1431F1A12C9B
:10523000992493948B24882D8921B9F07720A9F0A3
:10524000A986EA860E943F179C878B87F1E0FD873D
:1052500091E08B2D892109F490E09E8749855A853C
:105260006B857C858D850E94FF23A394990C26E095
:10527000A212E1CFF8013197B082E39438E0E31253
:10528000CECF0E94680CEE24E39447C082E0C5CEE6
:1052900085ED92E0D9CE8091BE04843019F10E9450
:1052A00034121092AE040FB6F894A89520926000C4
:1052B0000FBE1093600083B7817F846083BF83B784
:1052C000816083BF7894889583B78E7F83BF0FB644
:1052D000F894A89580916000886180936000109296
:1052E00060000FBE0E948924EFE8F2E081918111F5
:1052F0004FC387E992E08E179F07C1F78091BE04E4
:10530000853009F4C8CF0E9475170E94940871CFA8
:10531000981382CF0E945E26E12C8091D5028823CB
:1053200009F464C08091D402E091E703E695E69524
:10533000E81BE093D002823009F08FC0F0E0E55026
:10534000FD4FE4910E2F10E027E2A22E2AE0B22EAC
:105350008091D102882361F01092D1020E94A71C93
:105360009093CF028093CE021092D3021092D20279
:105370000E94A71CE091CE02F091CF029C012E1B4F
:105380003F0B2F3F3F4790F52091A2022223B1F01F
:105390001092A2022091A0023091A102821B930BD5
:1053A0008F3F9F4758F4205D3A483093A1022093E5
:1053B000A0028091D60288608093D602C090D2026B
:1053C000D090D302E00FF11FF093CF02E093CE0212
:1053D0008EEC92E0F50109958091D2029091D30272
:1053E000892B21F4CD2811F0F092A2028091F403D0
:1053F000882309F4A8C18091CB029091CC020E942D
:105400003017C29708F4B1C00E943F179093CC02A6
:105410008093CB0288E095E090930F0780930E076E
:105420008091A404882309F4D6C08FE393E00E94FE
:10543000C2108091A3029091A4020E94F80F8230C2
:1054400009F4C3C008F075C0882309F47BC081301B
:1054500009F4B8C084E193E077C0863059F4F0E0F5
:10546000E850FD4FE4910E2F10E097E1A92E9AE04D
:10547000B92E6ECF893061F4E695F0E0EB50FD4F28
:10548000E4910E2F10E088E1A82E8CE0B82E60CFBA
:105490008F3061F4E695F0E0EE50FD4FE4910E2F71
:1054A00010E0BAE8AB2EBBE0BB2E52CF853159F4E9
:1054B000F0E0E151FD4FE4910E2F10E0ACE0AA2E98
:1054C000ABE0BA2E45CF08E210E077E8A72E7AE0ED
:1054D000B72E883109F43CCF833249F4EDEEF2E087
:1054E00005911491FBE4AF2EF9E0BF2E31CF04EF0C
:1054F00011E06DE4A62E6AE0B62E843209F428CFBE
:1055000000ED17E052E0A52E59E0B52E853209F0E6
:105510001FCF8E2F63E00E946A31E92FF0E0E65141
:10552000FD4FE4910E2F10E0E7E7AE2EE2E1BE2E34
:105530000FCF833009F44CC0843009F08BCF8EE15B
:1055400093E002C087E393E00E9402110E94940856
:10555000182F83E193E00E94021189E093E011FD8E
:1055600002C08FEF92E00E94021180910605909197
:105570000705892B09F4CEC08091F403882309F430
:10558000C9C08091CA028111C5C00E944F122091EA
:105590000605309107052115310509F4BBC080E0EF
:1055A00041E050E0082F10E06A01082E02C0CC0C48
:1055B000DD1C0A94E2F7B60162237323672B81F4A2
:1055C0008F5FF0CF81E393E0BFCF8BE293E0BCCF5E
:1055D00084E293E0B9CF87E493E00E94C210C5CF84
:1055E0009091C90290FF80C1880F880F880F809327
:1055F0003A0110923D01895F80933B0183E08093E3
:105600003E0124E630E047E050E068E371E088E7DF
:105610000E946E2D892B09F07DC0A80135E0440F52
:10562000551F3A95E1F78091C90280FF6FC1E9EA01
:10563000F2E080E2DF011D928A95E9F7EFE9F1E0FF
:10564000F88BEF876BE971E077247394AF85B889A5
:105650008D91B88BAF87FB014190BF01440E552E51
:10566000511C9201285F3A4F290190E087559D4FC8
:10567000FC0127E0A22E9F01281B390B872C01C0BB
:10568000880C2A95EAF78201912CD801BD908D01F2
:10569000B8202A2D29192770622E022E000C330BF8
:1056A000BB2D01C0BB0F6A94EAF76B2E3195219593
:1056B00031092770332701C0B6942A95EAF76B2881
:1056C000B0806B286082939428E09212DECFAA9477
:1056D00031963FEFA312CFCF8F859889835A91409F
:1056E00009F0B4CF04E610E020E230E049EA52E0ED
:1056F00060E488E70E94F82D892B61F4C094D0946F
:105700008091060590910705C822D922D0920705FD
:10571000C09206058091F3038823A9F00E94DD075B
:105720000091EF031091F0032091F1033091F20307
:10573000601B710B820B930B6F3F7F4F8F4F9F4707
:1057400010F40E943412E1100E944F1286E0EEE93C
:10575000F4E0DE01119601900D928A95E1F7C09078
:105760009F04E090A004D090A1040091A2041091A5
:10577000A3041092A0041092A1041092A20410920B
:10578000A304E11003C0DD2009F445C080919C040E
:1057900090919D040E9430179C0190919704992349
:1057A00009F413C125313105B0F19F3F19F09F5F16
:1057B00090939704EE2059F00E94C70891E01E14C0
:1057C0000CF09FEF899F802D11248093A004DD2091
:1057D00059F00E94C7089FEF1D140CF491E0899FB7
:1057E000802D11248093A1048091A004882399F036
:1057F000B090A104BB2079F00E94E708882309F447
:105800008CC08093A0048B2D0E94E708882309F4A4
:1058100087C08093A104011103C0112309F445C07E
:1058200080919A0490919B040E9430179C01909162
:105830009804992309F4CEC021353105B0F19F3F7A
:1058400019F09F5F90939804002359F00E94A508D7
:1058500091E010160CF09FEF899F802D112480930A
:10586000A204112359F00E94A5089FEF11160CF411
:1058700091E0899F802D11248093A3048091A2043C
:10588000882399F0B090A304BB2079F00E94E70828
:10589000882309F448C08093A2048B2D0E94E70856
:1058A000882309F443C08093A30480919F04C81205
:1058B00040C08091A004882311F0E8123AC0809182
:1058C000A104882311F0D81234C08091A304882346
:1058D00011F018132EC09091A204992319F081E0C1
:1058E000091328C080E026C08295880F80768093B7
:1058F0003A019801369527953695279520933D01D5
:10590000815E80933B0120933E017BCE485F5A4FDE
:1059100004E610E020E230E0EBCEF092A00473CF7A
:10592000F092A10478CFF092A204B7CFF092A30432
:10593000BCCF81E080FD13C08091A004811126C0FE
:105940008091A104811122C08091A20481111EC006
:1059500081E09091A304911101C080E080FD0E943C
:105960004B1786E0FE013196AEE9B4E001900D924E
:105970008A95E1F70E9494089091CD02891709F465
:1059800032CC8093CD020E94DD072DCC81E0E6CFA2
:105990008091BD04882309F4B1CC90E199BDA2E1C6
:1059A000A9BD09B400FEFDCF8091D8008F7D809302
:1059B000D8008091E00082608093E0008091E00058
:1059C00081FDFCCF0E94751799CC2333310508F077
:1059D000EECE21CF2B30310508F033CF66CFEF92DA
:1059E000FF920F931F93CF93DF93182FEB01109229
:1059F000BC0084EA8093BC000E943F177C01809128
:105A0000BC0087FF0DC08091B900887F8830A9F065
:105A10008091B900887F803181F08FEF9FEF08C0BF
:105A2000C7010E943017C817D90748F78EEF9FEFBC
:105A3000CDB7DEB7E6E00C943B301093BB0084E8B2
:105A40008093BC000E943F178C018091BC0087FFAF
:105A50000AC08091B900887F883111F08034E9F65E
:105A600090E080E0E5CFC8010E943017C817D90741
:105A700060F7DCCF1092B9008CE08093B8000895F5
:105A80000F931F93CF93DF93EB018093BB0084E8C8
:105A90008093BC000E943F178C018091BC0087FF5F
:105AA00011C02091B900287F81E090E0283211F4E4
:105AB00090E080E0919581959109DF91CF911F91C0
:105AC0000F910895CF3FDC0741F3C8010E943017C2
:105AD000C817D90710F78EEF9FEFEFCFB0E0A0E027
