:100000000C9472060C948F060C948F060C94D42FCB
:100010000C948F060C948F060C948F060C948F060C
:100020000C948F060C948F060C946B230C94AD22C9
:100030000C948D280C948F060C948F060C948F06CC
:100040000C948F060C948F060C948F060C948F06DC
:100050000C948F060C9440280C948F060C948F06F9
:100060000C948F060C948F060C948F060C948F06BC
:100070000C948F060C948F060C948F060C948F06AC
:100080000C948F060C948F060C948F060C948F069C
:100090000C948F060C948F060C948F060C948F068C
:1000A0000C948F060C948F060C948F06840EF80E19
:1000B0008C0E560E5A0E900E5D0E930E9E0E680E0E
:1000C000EE0E6C0EA20E700EA60ED00E740EAA0EC0
:1000D000DA0E7A0EB00EBA0E610E970E640E9A0EFC
:1000E0007F0EB50EC60EE60EE80E520E880E010FFC
:1000F0003C0F420F170F360F480F4E0F540FFF0FD4
:10010000FF0F31103110AD10CB10EF11EF11D010E7
:100110005E116F116F1135125E12631268126D124B
:10012000721277127C12811286128B129212951221
:1001300098129B129E12A112A412A712AA12AF1219
:10014000CC20F3208B22F3208B223B215E218B22BB
:100150004D22602200DA0281FFD9F1DB20A4A62E15
:10016000AF00A0C0D30000A1C8D30000AED580A8C6
:100170001F408D1420001E0F0500047F3F1F6432B6
:1001800014643214783C1E1E140A052020202020FE
:10019000202020200043415053204C4F434B00006F
:1001A000556E646566696E6564004D6F75736500B4
:1001B000457874656E64005261697365004C6F77B1
:1001C00065720044656661756C74004C6179657296
:1001D0003A2000808182838485868788898A8B8CF7
:1001E0008D8E8F9091929394A0A1A2A3A4A5A6A76F
:1001F000A8A9AAABACADAEAFB0B1B2B3B4C0C1C2E6
:10020000C3C4C5C6C7C8C9CACBCCCDCECFD0D1D246
:10021000D3D400202020206162636465666768692A
:100220006A6B6C6D6E6F70717273747576777879B6
:100230007A31323334353637383930524542545FAB
:100240002D3D5B5D5C233B27602C2E2F2020202B37
:100250000014001A00080015001700E10004001641
:1002600000070009000A00E0001D001B000600193D
:10027000000500000000000000E30021522C002ACD
:1002800000130012000C0018001C00340033000F93
:10029000000E000D000B00645238003700360010CD
:1002A000001100000000000000E200225228002996
:1002B000003A003B003C003D004800E1003E003FAA
:1002C00000400041004600E0004200430044004579
:1002D000006500000000000000E30001002C002A7F
:1002E000004B004D0052004A00490034024E004FBE
:1002F00000510050004C000100380237023602194C
:10030000010601000000000000E2000100280039A1
:10031000001E021F0220142F020000E100341432DC
:1003200014250226022D02E0002F1430146400640C
:10033000022702000000000000E30001002C002A58
:1003400000380026002500240030022D0030002354
:10035000002200210024020100370020001F001E9F
:10036000002700000000000000E200010028003526
:10037000002E001F14081421022F00E10035022373
:10038000021E1435142E02E0000000231432002255
:10039000022114000000000000E30001002C00A86E
:1003A00000A900AA00AB00AE00AC0000002978272D
:1003B00078257823782078017C2A78287826782474
:1003C000782178000000000000E2000100280029E8
:1003D00000D6000000000000000000E100D500D2BF
:1003E00000D300D1000000E000D400DF00DE00DD1B
:1003F000000000000000000000E30001002C0000ED
:1004000000D600DC00CD00DB00D9000000D500D014
:1004100000CE00CF00DA000100D400D200D300D11A
:1004200000D700000000000000E2000100280005E5
:10043000010902A10185020901A10005091901298B
:10044000081500250195087501810205010930098B
:10045000311581257F95027508810609381581259A
:100460007F950175088106050C0A38021581257FE4
:10047000950175088106C0C005010980A1018503A9
:1004800019012AB700150126B700950175108100E2
:10049000C0050C0901A101850419012AA00215015A
:1004A00026A002950175108100C005010906A10171
:1004B0008506050719E029E715002501950875014E
:1004C00081020507190029EF1500250195F0750136
:1004D000810205081901290595057501910295010B
:1004E00075039101C005010906A101050719E0295D
:1004F000E7150025019508750181029501750881B0
:10050000010507190029FF150026FF00950675084B
:1005100081000508190129051500250195057501BA
:100520009102950175039101C009023B000201008F
:10053000A0FA0904000001030101000921110100D2
:10054000012244000705810308000109040100019C
:100550000300000009211101000122B600070582F5
:1005600003200001120100020000000853460100B0
:100570000100010200010C0343006F0072006E00D5
:1005800065000000100366006F006F0073007400C8
:1005900061006E0000000403090400000000000078
:1005A0003E5B4F5B3E003E6B4F6B3E001C3E7C3E15
:1005B0001C00183C7E3C18001C577D571C001C5E1C
:1005C0007F5E1C0000183C180000FFE7C3E7FF0037
:1005D000001824180000FFE7DBE7FF0030483A0668
:1005E0000E00262979292600407F05050700407F57
:1005F00005253F005A3CE73C5A007F3E1C1C080082
:10060000081C1C3E7F0014227F2214005F5F005FE5
:100610005F0006097F017F00006689956A006060BF
:100620006060600094A2FFA2940008047E040800A9
:1006300010207E20100008082A1C0800081C2A0828
:1006400008001E10101010000C1E0C1E0C0030387C
:100650003E383000060E3E0E06000000000000008E
:1006600000005F000000000700070000147F147FF7
:100670001400242A7F2A12002313086462003649DA
:1006800056205000000807030000001C2241000013
:100690000041221C00002A1C7F1C2A0008083E087A
:1006A00008000080703000000808080808000000FA
:1006B000606000002010080402003E5149453E00E1
:1006C00000427F4000007249494946002141494D9E
:1006D00033001814127F10002745454539003C4A65
:1006E000494931004121110907003649494936007D
:1006F000464949291E000000140000000040340053
:1007000000000008142241001414141414000041C5
:10071000221408000201590906003E415D594E00AD
:100720007C1211127C007F49494936003E4141410B
:1007300022007F4141413E007F49494941007F09F4
:10074000090901003E41415173007F0808087F00FC
:1007500000417F4100002040413F01007F081422FA
:1007600041007F40404040007F021C027F007F0428
:1007700008107F003E4141413E007F090909060003
:100780003E4151215E007F09192946002649494909
:10079000320003017F0103003F4040403F001F2023
:1007A00040201F003F4038403F006314081463009E
:1007B0000304780403006159494D4300007F41411F
:1007C0004100020408102000004141417F00040262
:1007D00001020400404040404000000307080000C0
:1007E0002054547840007F2844443800384444441E
:1007F0002800384444287F00385454541800000816
:100800007E0902001824241C78007F080404780064
:1008100000447D4000002040403D00007F102844FF
:10082000000000417F4000007C04780478007C08D0
:10083000040478003844444438007C182424180008
:10084000182424187C007C080404080048545454DC
:10085000240004043F4424003C4040207C001C2031
:1008600040201C003C4030403C00442810284400FC
:100870004C9090907C004464544C440000083641F5
:10088000000000007700000000413608000002016F
:10089000020402003C2623263C0000000000000069
:1008A00000000000000000000000C0E0F0F8F818B0
:1008B00000C0F0FCFEFFFFFFFFFFFFFF7E00000017
:1008C00000000000000080C0E0E0E0E0E0E0E0E0E8
:1008D000C0800000000080C0E0E0E0E0E0E0E0E098
:1008E000C080000000E0E0C0C0E0E0E0E00000E028
:1008F000E0C0C0E0E0E0E0E0C0800000000080C0B8
:10090000E0E0E0E0E0E0E0E0C080000000000000A7
:100910000000000000000000E0F0F0F0E0ECEEF776
:10092000F37020007C7C7C7E007E7E7E7F7F7F005B
:100930000080C0E07E5B4F5BFEC00000C000DCD7E3
:10094000DEDEDED7DC00C00000000000000000009A
:100950000000000000000000000000000000000097
:10096000000000F8FCFEFFE000FFFFFFFFFFFF803C
:10097000FFFFFFFFFFFFFFFFFF1F07010000000059
:100980000000000000FFFFFF810000000000008168
:10099000C3C3C30000FFFFFF81000000000000810F
:1009A000FFFFFF0000FFFFFF01000000000000FF4D
:1009B000FFFF010000000001FFFFFF0000FFFFFF3D
:1009C0009D1C1C1C1C1C1C9DDFDFDF0000000000A8
:1009D00000000000000000000F1F3F7F7F7F7F7F2F
:1009E0003F1E0C001F1F1F3F003F3F3F7F7F7F00C8
:1009F000307B7F7830202030787F3B0003000F7FF2
:100A00000F0F0F7F0F000300000000000000000028
:100A100000000000000000000000000000000000D6
:100A2000000000030F1F3F3F3F3F1F1F3F3F7F7FDF
:100A30007F3F3F1F3F7F7F7F7F7C7878381C0F0090
:100A4000000000000000010307070707070707076A
:100A50000301000000000103070707070707070756
:100A60000301000000070707000000000000000766
:100A7000070700000000000007070700000001034F
:100A8000070707070707070703010000000000002A
:100A90000000000000000000000000000000000056
:100AA0000000000000000000000000000000000046
:100AB0000000000000000000000000000000000036
:100AC0000000000000000000000000000000000026
:100AD0000000000000000000000022232526282935
:100AE0002A2C2D2F3032333536383A3B3D3E4042AA
:100AF000434547494A4C4E5051535557595A5C5EED
:100B00006062646668696B6D6F71737577797B7D00
:100B10007F81838587898A8C8E90929496989A9CFF
:100B20009E9FA1A3A5A7A8AAACAEAFB1B3B4B6B817
:100B3000B9BBBCBEBFC1C2C3C5C6C7C9CACBCCCD79
:100B4000CED0D1D2D2D3D4D5D6D7D7D8D9D9DADA54
:100B5000DBDBDBDCDCDCDCDCDDDDDDDDDCDCDCDCD4
:100B6000DCDBDBDBDADAD9D9D8D7D7D6D5D4D3D208
:100B7000D2D1D0CECDCCCBCAC9C7C6C5C3C2C1BFE6
:100B8000BEBCBBB9B8B6B4B3B1AFAEACAAA8A7A54A
:100B9000A3A19F9E9C9A98969492908E8C8A898706
:100BA0008583817F7D7B79777573716F6D6B6968E4
:100BB000666462605E5C5A5957555351504E4C4AB8
:100BC0004947454342403E3D3B3A38363533323063
:100BD0002F2D2C2A29282625232200AF00AE000124
:100BE00001010101010101010202020202020202ED
:100BF00002030303030303030304040404040404BF
:100C00000505050505060606060607070707070882
:100C1000080808090909090A0A0A0B0B0B0C0C0C35
:100C20000D0D0D0E0E0E0F0F0F10101111111212CF
:100C300013131414151516161717181819191A1A4C
:100C40001B1B1C1D1D1E1E1F2020212222232424AD
:100C5000252626272829292A2B2C2D2D2E2F3031E9
:100C60003232333435363738393A3B3C3D3E3F40FB
:100C70004142434445464748494A4C4D4E4F5051E6
:100C80005354555658595A5B5D5E5F6162646566A0
:100C900068696B6C6D6F7072737577787A7B7D7E27
:100CA0008082838587888A8C8E8F91939596989A77
:100CB0009C9EA0A2A3A5A7A9ABADAFB1B3B5B7BA8F
:100CC000BCBEC0C2C4C6C9CBCDCFD1D4D6D8DBDD63
:100CD000DFE2E4E7E9EBEEF0F3F5F8FAFDFFFFAA57
:100CE0007F55400011241FBECFEFDAE0DEBFCDBF3D
:100CF00011E0A0E0B1E0EEEFF5E602C005900D9244
:100D0000AC3CB107D9F727E0ACECB1E001C01D92D3
:100D1000A131B207E1F70E9491060C94FD320C94C8
:100D20000000A0E1B0E0E7E9F6E00C94093185B7F6
:100D3000806885BF85B7806885BF84B7877F84BF9B
:100D40000FB6F894A8958091600088618093600048
:100D5000109260000FBE90E080E80FB6F894809388
:100D60006100909361000FBE80E498E19093CD0103
:100D70008093CC010E94F1220E9410238091E20016
:100D800084608093E20078948091EB028823A1F044
:100D90001091E9001F709091EC00892F817090FDF7
:100DA00080E8182B1092E9008091E80083FD0E94F2
:100DB000EB1F1F701093E90082E084BD93E095BDA6
:100DC0009AEF97BD80936E001092CE011092CF01E2
:100DD0001092D0011092D1018091D800806180934F
:100DE000D8002AE12A95F1F700C08091D900182F88
:100DF000117080FD04C00E94F1221092EB0210934A
:100E000002071093030710930401112341F010927D
:100E10004E018BE180934F010E948F2F05C08BE123
:100E200080934E0180934F018091040180910401D1
:100E3000882311F090E001C094E09093DB0184E0FE
:100E4000891B8093DA0103E511E0F7E5EF2EF1E06D
:100E5000FF2ED8018D918D018F3F11F00E94A71AAE
:100E6000E016F106B1F707E511E0F80181918F0175
:100E70008F3F11F00E94A71AF1E00D351F07A9F767
:100E800088E0EFEDF1E0DF01282F1D922A95E9F7C8
:100E9000E2EDF1E0DF011D928A95E9F780E090E054
:100EA0000E94B331863E9E4F09F466C066EE7EEF27
:100EB00080E090E00E94E73160E082E090E00E94F4
:100EC000C93181E090E09093DD018093DC0161E025
:100ED00083E090E00E94C93160E074E184E090E03A
:100EE0000E94E73160E086E090E00E94C93160E056
:100EF00087E090E00E94C93140E050E0BA0188E00C
:100F000090E00E94DB3160E084E290E00E94C93111
:100F100060E087E190E00E94C93160E08CE090E001
:100F20000E94C93160E08DE090E00E94C9311982D1
:100F30001A821B821C821D821E821F82188648E034
:100F400050E068E170E0CE0101960E94B93140E0C6
:100F500050E0BA0180E290E00E94DB3140E050E0D6
:100F6000BA018FE090E00E94DB3140E050E0BA012E
:100F700083E190E00E94DB3182E090E00E94A531A5
:100F80008093E70184E090E00E94B33190930B07D7
:100F900080930A070E949D1CEFEFF6E721E0E150E5
:100FA000F0402040E1F700C000000E949D1C8091AD
:100FB0000307882311F0E0E001C0E4E0F0E0E15233
:100FC000FE4F808181FF08C06FEF7FEF80E090E0EF
:100FD0000E94E7310E942F2883E090E00E94A53113
:100FE00090E00E94661680910207811102C082E0A3
:100FF00001C080E08093190280E88093F5020E948E
:101000001F2E6BE070E08BE691E00E94AA2A8823F5
:1010100009F443C08091190265E070E081FD3AC097
:1010200086E691E00E94AA2A8823B9F16DE070E07B
:1010300084E591E00E94AA2A882379F10E9475280C
:10104000DC01CB01805A9541AF4FBF4F8093EC0636
:101050009093ED06A093EE06B093EF06E8EFF2E072
:1010600080E092E0DF019C011D9221503040E1F7C9
:10107000F093FF04E093FE048FEF9FEF9093F7024D
:101080008093F60281E08093F1068093F00610923F
:101090001A0203C081E691E0C5CF8091DE01811183
:1010A00083C088E090E00E94AD314B015C0184E296
:1010B00090E00E94A531282F30E040E050E060E051
:1010C00070E080E090E000E20E94A33228293929F4
:1010D0004A295B292093E4063093E5064093E6060F
:1010E0005093E7066093E8067093E9068093EA065A
:1010F0009093EB06309130053360309330052C7FB0
:1011000009F042C025E02093E4061092E5063FEF87
:101110003093E60638E73093E7061092E80630E0B1
:101120004FEF58E760E00E94922B88E090E00E9429
:10113000AD316B017C0184E290E00E94A531282F43
:1011400030E040E050E060E070E080E090E00E943D
:10115000A332B22FA32FF42FE52F5B019701860155
:10116000BC29A12BF22BE32BB093E406A093E50658
:10117000F093E606E093E7066093E806B092E9068E
:101180008093EA069093EB060E94772B0E94132B24
:101190008091E40680FF05C060E0869586950E94F8
:1011A0006B2D81E08093DE0180910207811102C0E6
:1011B0000E94922F85E091E09093070780930607A5
:1011C00044244394512C70EF272E71E0372E8091E8
:1011D000EB02853009F046C000E112E18091EB029C
:1011E000853009F03BC08091EB02843031F10E94E0
:1011F000B72A10920C0788E190E0A0E40FB6F894AB
:10120000A895809360000FBEA093600083B7817F94
:10121000846083BF83B7816083BF7894889583B7E8
:101220008E7F83BF0FB6F894A89580916000886187
:1012300080936000109260000FBE8091EA028823C4
:1012400009F4CCCF0E949D1CEFEDF1E0819181115A
:101250009FC3B1E0E73EFB07C9F7C0CF0E946B1602
:101260000E9465290E949D1C58EEE52E51E0F52E46
:101270006FEDC62E61E0D62ED601F70191918D91CA
:1012800089272E163F0619F08823C1F306C0811165
:1012900004C00E94791CD12C38C08090020710E055
:1012A00077247394F60191906F01D701AC90A92433
:1012B00011F100E0BB24B3948A2D8B21B1F088207A
:1012C000A1F009871A870E9481289C878B877D86D9
:1012D00091E0892D8B2109F490E09E8749855A85FC
:1012E0006B857C858D850E94230D0F5FBB0C0630BE
:1012F00019F7F70190821F5FFFEFEF1AFF0A18300E
:1013000089F60E94BE1ADD24D39480912F0588238C
:1013100009F4D0C080912E05E091E406E695E695AB
:10132000E81BE0932A05823059F4F0E0E957FE4FBC
:10133000E4910E2F10E04DEDE42E47E2F42E6BC049
:10134000863059F4F0E0EC57FE4FE4910E2F10E098
:101350003DECE32E37E2F32E5EC0893061F4E69572
:10136000F0E0EF57FE4FE4910E2F10E02AE7E22E57
:1013700026E2F22E50C08F3061F4E695F0E0E2589C
:10138000FE4FE4910E2F10E09EEEE92E95E2F92E2D
:1013900042C0853159F4F0E0E558FE4FE4910E2F3C
:1013A00010E088E6E82E85E2F82E35C08831F9F0A5
:1013B000833249F4E9E7F1E005911491B3E9EB2EAA
:1013C000B7E2FB2E28C08432C9F08532F1F48E2FAB
:1013D00063E00E946032E92FF0E0EA58FE4FE491AA
:1013E0000E2F10E0A4EBEA2EA6E2FA2E14C008E2BB
:1013F00010E0F3EEEF2EF4E2FF2E0DC004EF11E04B
:10140000E4EAEE2EE4E2FE2E06C000ED17E078E7F7
:10141000E72E74E2F72E80912B05882361F010925D
:101420002B050E946E1C909329058093280510922D
:101430002D0510922C050E946E1CE0912805F0915C
:1014400029059C012E1B3F0B2F3F3F4798F520910C
:10145000F2012223B1F01092F2012091F0013091BB
:10146000F101821B930B8F3F9F4758F4205D3A4850
:101470003093F1012093F0018091300588608093D2
:101480003005A0902C05B0902D050E0F1F1F109356
:1014900029050093280588E295E0F70109958091D8
:1014A0002C0590912D05892B29F4AB2819F081E0AA
:1014B0008093F2018091F106882309F45FC1809145
:1014C0001B0290911C020E946628C29708F44FC02C
:1014D0000E94812890931C0280931B0288EF92E067
:1014E0009093FF048093FE04809102078823D9F132
:1014F0008BEC91E00E94C01F8091F3019091F40168
:101500000E94B30D823091F038F4882361F081306D
:1015100099F48DEB91E012C0833059F0843061F47E
:101520008AEA91E00BC083EC91E008C087EB91E080
:1015300005C080EB91E002C080EA91E00E94CE1FDE
:101540000E94652981FB112710F98FE991E00E9423
:10155000CE1F112319F085E991E002C08BE891E0DC
:101560000E94CE1F04C083ED91E00E94C01F8091B5
:10157000F6029091F702892B31F48091F0068823CE
:1015800009F4FCC0E4C08091F1068823B1F3809196
:101590001A028111F2CF0E94D12A2091F6023091D5
:1015A000F7022115310549F380E0082F10E07201A0
:1015B000082E02C0EE0CFF1C0A94E2F7A70142239A
:1015C0005323452B11F48F5FF0CF909119029801AE
:1015D00065E0220F331F6A95E1F790FF13C055E0D5
:1015E000369527955A95E1F7220F220F220F209367
:1015F000120110921501295F2093130183E080935B
:10160000160111C0220F232F221F330B3195829513
:10161000880F80768093120120931501815E80935C
:1016200013012093160124E630E047E050E060E12A
:1016300071E088E70E94542E892B09F09ECF80919B
:10164000190280FF64C080E2E9EFF1E0DF011D9242
:101650008A95E9F7A80135E0440F551F3A95E1F75F
:10166000E1E6F1E0F88BEF870DE511E0AF85B88991
:101670008D91B88BAF87F80191918F01BA01690FF5
:10168000711D68507D4F90E087509E4FFC0127E010
:10169000922E9F01281B390B742C01C0770C2A95C0
:1016A000EAF75B01812CD501CD905D01C720292D82
:1016B00028192770622E022E000C330BBC2D01C09E
:1016C000BB0F6A94EAF76B2E31952195310927708B
:1016D000332701C0C6942A95EAF76C28C0806C288D
:1016E0006082839428E08212DECF9A9431963FEF95
:1016F0009312CFCF8F8598898556914009F0B6CF48
:1017000004E610E020E230E049EF51E00CC0A8010F
:1017100085E0440F551F8A95E1F748505D4F04E678
:1017200010E020E230E060E488E70E94EB2E892B95
:1017300009F023CFE094F0948091F6029091F702A3
:10174000E822F922F092F702E092F60216CF0E9408
:1017500075280091EC061091ED062091EE0630916F
:10176000EF06DC01CB01801B910BA20BB30B8F3F6B
:101770009F4FAF4FBF4710F40E94B72AD1100E946D
:10178000D12A86E0E9EFF6E0DE01119601900D9294
:101790008A95E1F7D090FA061091FB06E090FC06DE
:1017A000F090FD060091FE061092FB061092FC06DA
:1017B0001092FD061092FE06111103C0EE2009F4EE
:1017C00047C08091F7069091F8060E9466289C0118
:1017D0009091F206992309F4F1C025313105C0F149
:1017E0009F3F19F09F5F9093F206112361F00E94D2
:1017F0004C2A111614F491E001C09FEF899F802DAF
:1018000011248093FB06EE2061F00E944C2A1E14E6
:1018100014F09FEF01C091E0899F802D11248093E7
:10182000FC068091FB06882399F0C090FC06CC2032
:1018300079F00E946C2A811101C081E08093FB063F
:101840008C2D0E946C2A811101C081E08093FC06DE
:10185000F11003C0002309F447C08091F506909170
:10186000F6060E9466289C019091F306992309F4DC
:10187000AAC021353105C0F19F3F19F09F5F9093B9
:10188000F306FF2061F00E942A2A1F1414F491E04D
:1018900001C09FEF899F802D11248093FD060023B6
:1018A00061F00E942A2A101614F09FEF01C091E007
:1018B000899F802D11248093FE068091FD06882348
:1018C00099F0C090FE06CC2079F00E946C2A81111C
:1018D00001C081E08093FD068C2D0E946C2A81114D
:1018E00001C081E08093FE068091FA06D8121AC0EA
:1018F0008091FB06882311F0181314C08091FC0618
:10190000882311F08E110EC08091FE06882311F0FD
:10191000801308C09091FD06992331F081E09F115A
:1019200004C002C081E001C080E080FD15C080914C
:10193000FB0681110FC08091FC0681110BC08091C4
:10194000FD06811107C081E09091FE06911103C050
:1019500080E001C081E080FD0E94002ADA821B83C2
:10196000EC82FD820E8386E0FE013196A9EFB6E09F
:1019700001900D928A95E1F70E94652990911D02D0
:10198000891709F424CC80931D020E9475281BCC72
:1019900009BD19BD09B400FEFDCF8091D8008F7D2F
:1019A0008093D8008091E00082608093E000809175
:1019B000E00081FDFCCF0E946B1610CC2333310573
:1019C00008F010CF45CF2B30310508F057CF8CCF22
:1019D000A6E0B0E0EEEEFCE00C94183149835A83A7
:1019E00049815A81992361F0222351F0CA010E9452
:1019F000B613182F682F89819A810E94D41504C0CC
:101A0000CA010E94A115182F69817A81812F0E9435
:101A10002D1B2696E3E00C9434310E946B162FEFB9
:101A200084E39CE0215080409040E1F700C000003A
:101A30009AE088E10FB6F894A895809360000FBEF5
:101A400090936000FFCFABE1B0E0E9E2FDE00C94E1
:101A500017314E8B5F8B688F798F8A8F9B8F192FF1
:101A6000911110927B02DE011F9687E0FD01119219
:101A70008A95E9F786E0FE01769601900D928A95A7
:101A8000E1F70A8D002341F021E04F8558896989EB
:101A90007A89C8010E94E80C0B8B1C8B87E0FE0141
:101AA0003F96DE01189601900D928A95E1F7CE01DE
:101AB00008960E941A1481112CC087E0FE01389606
:101AC000DE01119601900D928A95E1F76C856623EF
:101AD00001F120913F0230E0C901019687709927FA
:101AE0004091780250E08417950761F16D8397E08B
:101AF000929FD001939FB00D1124A05CBD4FFE01B9
:101B0000319601900D929A95E1F780933F020E94E1
:101B1000531317E08091780290913F028917F9F0F2
:101B2000189FC0011124805C9D4F0E941A148823C5
:101B3000B1F08091780290E00196877099278093A8
:101B40007802E8CF0E946B1610923F021092780242
:101B5000E8E3F2E087E0DF011D928A95E9F76B96F2
:101B6000E4E00C943331292F33272115310519F086
:101B7000C90148E001C040E09C0164E0369527952A
:101B80006A95E1F72115310511F04C5FC9019C01FF
:101B900036952795369527952115310511F04E5F1D
:101BA000C9019C0136952795232B09F04F5F842F9F
:101BB0000895A0E0B0E0EFEDFDE00C941231FC01DF
:101BC0008481882309F4D2C47F0121E040815181BE
:101BD0006281738195810E94E80CEC01F7012581F7
:101BE00088519C472223C1F121812093F801208153
:101BF0002093F70120E220930F01D093F601C093C8
:101C0000F5019E0130522115304228F4F70126815A
:101C1000207F79F426C09E0130542115304120F4F4
:101C2000F7012681207F29F49E013A9521153F4135
:101C300018F4FE01FF2707C09E01205A32452032CA
:101C4000310578F0FE01ED33F10558F4ED5EFD4FFE
:101C5000E491E0930F0105C08730910508F06BC156
:101C600000C18730910508F4FCC010920107CE0135
:101C70009057839708F01EC184E090E00E94B33132
:101C800090930B0780930A07FE01E150F047E23280
:101C9000F10520F4EA5AFF4F0C948E3280910A0726
:101CA0008160ACC080910B078860B4C080910A0746
:101CB0008260A4C080910A0720C080910A078860D2
:101CC0009DC080910B071EC080910B078260A2C04F
:101CD00080910A07806192C080910A0780628EC05D
:101CE00080910A0780648AC00E946B1680910A075F
:101CF000806884C080910A07886084607FC080917A
:101D00000B078260816086C080910A078E7F76C053
:101D100080910B07877F7EC080910A078D7F6EC000
:101D200080910A0720C080910A07877F67C0809151
:101D30000B071EC080910B078D7F6CC080910A0736
:101D40008F7E5CC080910A078F7D58C080910A0702
:101D50008F7B54C00E946B1680910A078F774EC00C
:101D600080910A07877F8B7F49C080910B078D7F09
:101D70008E7F50C080910A0782FB222720F991E0D4
:101D8000922790FB82F990FB83F938C080910B0772
:101D9000982F909591708E7F892B90FB81F93AC096
:101DA00080910A0786FB222720F991E0922790FB79
:101DB00086F924C00E946B1680910A0787FB2227B0
:101DC00020F991E0922790FB87F918C061E001C0EB
:101DD00060E08EE090E00E94C9311EC080910A0749
:101DE00084FB222720F991E0922790FB84F906C01A
:101DF00080910A07982F909590FB80F980930A07AD
:101E00000BC080910B0783FB222720F991E09227DA
:101E100090FB83F980930B0760910A0770910B0781
:101E200084E090E00E94E7310E946B1608C006E251
:101E300021EE41EE6AE17CE7C7010E94762980919C
:101E40007902877009F492C3F7018581882309F428
:101E50008DC380910B0782FF89C382E00E94281600
:101E600085C3FC01E858FF4F0C948E3207E225EE43
:101E700045EE6BE17CE7E0CF06E221EE40EE68E163
:101E80007CE7DACF07E225EE44EE69E17CE7D4CFC8
:101E900006E221EE42EE6CE17CE7CECF07E225EED2
:101EA00046EE6DE17CE7C8CF08E221E045EE6EE149
:101EB0007CE7C2CFC631FCE7DF0709F4B8C2C33004
:101EC0002CE7D20721F140F4C1158CE7D80789F03F
:101ED000C130DC4711F13EC0CB35ECE7DE0739F10C
:101EE000CC35FCE7DF07D9F0CA35DC4799F581E04E
:101EF0001FC00E946B164FEF84E39CE0415080406E
:101F00009040E1F700C000000E942F2898CF6FEFAB
:101F10007FEF80E090E00E94E7310E940D0D8091FC
:101F20000B0782FB882780F991E0892701C080E0B8
:101F30000E943F160FC0C6312CE7D20709F485C2B4
:101F40008091A4028272FE01E052F847E531F1056A
:101F500008F487C2F7018581C081D181882349F0C7
:101F6000CE010E94B613182F682FCE010E94D415FF
:101F700004C0CE010E94A115182FBE01812F0E941E
:101F80002D1B0E944A1BD82FC92FC82EF70115817F
:101F9000068102950F7080917902877001F11123FB
:101FA000F1F0892F807F803469F080E28D0F8830D6
:101FB000B0F0892F807E803229F4F1E0FD1778F4AB
:101FC000002369F080910B0782FF09C082E00E9424
:101FD0002816809179028770DD24D3948111D12C49
:101FE000BC2EB2948FE0B8228B2D90E08C309105FE
:101FF00008F0F5C1FC01E158FF4F0C948E328C2F94
:10200000807FCF70882311F0C295C07F1123B9F073
:10201000CC2309F4D2C180E28D0F883010F0C110BA
:1020200006C09091A402C92BC093A40205C0909150
:102030007B02C92BC0937B020E940113BEC18D2F6E
:102040000E949917CC2309F4CAC1D05ED83080F120
:10205000CC2071F1C09590917B02C923C0937B0283
:102060002AC08C2F807FCF70803211F0C295C07F44
:10207000CC2029F021E0C21609F44CC055C0809153
:102080000B0782FD1BC0112369F0CC2339F090911E
:10209000A402C92BC093A4020E94011380E00E94F5
:1020A000CC179DC180E00E949917CC2309F497C1F9
:1020B0008C2F0E94671C0E94011391C1112381F093
:1020C0000023B1F1013009F08AC190917A028C2F7E
:1020D0008923C81709F483C1C92BC0937A027FC131
:1020E00001117DC18C2F0E949C1680917A029C2F39
:1020F000982329F09C2F9095892380937A028091D0
:102100001F029C2F982309F46AC1C0958C238093E9
:102110001F0265C1112321F0063008F060C108C01C
:10212000053008F05CC115C0112331F0011145C123
:102130008C2F0E94A31653C1002359F0D93309F004
:102140004BC14FEF87EE93E0415080409040E1F764
:1021500041C18C2F0E949C1642C18C2F869586957A
:10216000837019F0813061F03AC1112321F08D2F75
:102170009C2F937002C080E090E00E94402935C1FE
:10218000112321F08D2F9C2F937002C080E090E0EE
:102190000E941B292AC1612F8D2F0E94AD1625C1D7
:1021A0008C2F837009F041C011111DC12D2F229574
:1021B00026952770220F220F8D2F8F7090E0022E10
:1021C00002C0880F991F0A94E2F7D4FF0BC04FE0BA
:1021D00050E002C0440F551F2A95E2F79A0120955E
:1021E000309502C020E030E0C695C695C370C2307D
:1021F00099F068F44091DC015091DD01C13029F083
:10220000822B932B8423952304C0842B952B822B24
:10221000932B0E946616E7C0822B932B2091DC0142
:102220003091DD0182279327F4CF112319F08C2FF1
:10223000817001C08695882309F4D5C02D2F229581
:1022400026952770220F220F8D2F8F7090E0022E7F
:1022500002C0880F991F0A94E2F7D4FF0BC04FE029
:1022600050E002C0440F551F2A95E2F79A012095CD
:10227000309502C020E030E0C695C695C370C230EC
:1022800079F0B8F44091F3015091F401C13029F094
:10229000822B932B842395230EC0842B952B09C06E
:1022A000822B932B2091F3013091F4018227932705
:1022B00002C0822B932B0E94081695C0CF70112369
:1022C00039F08C2F0E9456168D2F0E94A3168BC0BA
:1022D0008D2F0E949C168C2F0E94161684C08D2F65
:1022E000E2EFCE1689F1EC1538F0F0EFCF1659F089
:1022F00021EFC21621F15DC043EFC41661F194EFE6
:10230000C916C9F056C0112391F0053008F067C016
:10231000CF7181E090E002C0880F991FCA95E2F763
:102320002091F3013091F4018227932721C00630D8
:1023300008F055C0EDCF80910B0782FD1CC0112322
:1023400029F08C2F8F7129C01123D9F38C2F8F7115
:102350000E94161644C0112349F0CF7181E090E02D
:1023600002C0880F991FCA95E2F702C080E090E092
:102370000E94081634C0112399F0CF718C2F0E944F
:10238000561680910B0782FF07C0E8E0CE9FC00180
:1023900011248360809379028C2F0E9456161FC0EF
:1023A00081E00E9428160230D0F082E00E942816B8
:1023B00016C0112321F0002321F28D2F70CE0023AF
:1023C00029F2893349F4FFEF27EE43E0F150204032
:1023D0004040E1F700C000008D2F0E94991788EF60
:1023E0008B0D843010F40E946529DD20A9F08091C6
:1023F000790280FD11C0F701158286958695869534
:102400000E945616C7010E94D90D809179028695C7
:10241000869586950E94161620E0F701408151812D
:1024200062817381848195810E94E80C9FC08091B4
:10243000A4028A7A91E009F490E090931E0281113F
:102440000EC089E20E94E42807C080911E0281111B
:102450008BC089E20E94B6280E940113F0CC85E36C
:10246000F1CFE557FF4F0C948E328091E40680FF48
:102470001EC0282F2E7F2093E4063091E506409160
:10248000E6065091E7066091E8067091E9068091B2
:10249000EA069091EB060E94922B0E94132B8091EA
:1024A00030058160809330050E94362BC8CC816056
:1024B0008093E40661E0869586954EC045EB5DE22B
:1024C00060EC7DE22CC040EC5DE265EB7DE227C074
:1024D0004FE35DE269E47DE222C049E45DE26FE33F
:1024E0007DE21DC045E25DE262E37DE218C042E3A9
:1024F0005DE265E27DE213C04BE05DE268E17DE212
:102500000EC048E15DE26BE07DE209C048EB5BE2B2
:1025100062ED7BE204C042ED5BE268EB7BE20E948D
:102520000C2B8DCC61E081E017C065E082E019C022
:1025300068E086E016C06EE089E013C064E18FE0D9
:1025400010C067E185E10DC061E088E105C062E28D
:1025500089E107C061E083E20E946B2D70CC6AE2E2
:1025600085E20E94F72A6BCC85E374CFCDB7DEB746
:10257000E9E00C942E319091A40280917B02892B8A
:1025800090917A029923E1F0892B90913F01992350
:1025900041F090910A0797FF04C09EE12AE035E0E0
:1025A00003C096E022E035E0F90120E0915028F0E8
:1025B00031913323D9F32F5FF9CF211110927A0291
:1025C00008952091780290913F0257E02917A9F0D1
:1025D00030E0529FF001539FF00D1124E05CFD4F5D
:1025E0007181761306C07081781303C075817413EE
:1025F00006C02F5F3F4F2770E9CF80E0089581E04C
:10260000089580913F01882351F180910A0787FF47
:1026100026C00E94BB128093090540E250E06CE79F
:1026200072E088E095E00E94E732892BD9F180E2E0
:10263000E8E0F5E0ACE7B2E001900D928A95E1F7B1
:10264000E0910607F0910707309761F186E08093EB
:1026500008050480F581E02D88E095E022C00E9405
:10266000BB128093000548E050E06CE972E080E026
:1026700095E00E94E732892BA9F088E0E0E0F5E0E0
:10268000ACE9B2E001900D928A95E1F7E09106077E
:10269000F0910707309731F00280F381E02D80E060
:1026A00095E0099508958091780290913F028917ED
:1026B00019F08F5F8770FBCF0895CF93DF938091E0
:1026C0003E0282958F7009F04EC080913D028823B2
:1026D00009F449C08091780240913F02509139023B
:1026E00060913802C0913A02D0913B0277E08417A2
:1026F000D1F190E0789FF001799FF00D1124DF0176
:10270000A05CBD4F14962C911497222349F1119689
:102710002C911197251324C02C91261321C01596B6
:102720002C91159721111CC012962D913C91139755
:102730002C1B3D0B283C310598F480913E028F7094
:10274000806180933E02EA5BFD4F80818F708061E3
:10275000808388E392E00E94D90D0E94531303C046
:1027600001968770C4CFDF91CF910895A0E0B0E0CB
:10277000ECEBF3E10C9412317C010091F301109128
:10278000F4018091DC019091DD01082B192BCFE041
:10279000D0E0CC24C394D12CC6010C2E02C0880FEB
:1027A000991F0A94E2F780239123892B21F4219722
:1027B00098F7B12C09C0BC2EB7018C2F0E942D1B9D
:1027C0000E944A1B019799F38B2DCDB7DEB7E9E044
:1027D0000C942E31CF93DF93EC010E94B613BE010F
:1027E0000E942D1B0E944A1BDF91CF910895FC018E
:1027F00024812223D9F0808191810E94EA1392954D
:102800009F70963079F010F4925001C09A50923037
:1028100068F4803F69F018F4883E40F409C0843FB2
:1028200029F406C0883E20F0813F11F080E0089531
:1028300081E00895A4E1B0E0E0E2F4E10C940F310E
:102840008C0186E0F801DE011F9601900D928A95B9
:10285000E1F7F8018481E58098E3892E92E0992ED2
:1028600090913C02911120C0882309F463C1EE20AD
:1028700009F442C0C8010E94F713F82E8823E1F141
:1028800087E0F801D40101900D928A95E1F78091DB
:102890003C02813031F480913802909139020E94DB
:1028A000EA130E945D1348C1F801D080C180A28064
:1028B000B380F0903D0220913A0230913B02FF201C
:1028C00009F4E7C0A501421B530B483C510508F031
:1028D0009DC0882309F430C180913E02282F207FBB
:1028E00090913902222361F09C1509F460C0C8015F
:1028F0000E94F713811163C0C8010E94D90D1AC14B
:102900009C1113C0909138029D110FC0E1100DC0B1
:102910008F70806180933E0288E392E00E94D90D1F
:1029200080913E02F801868303C1E1103AC040E085
:102930006C2D8D2D0E94E11240E06C2D8D2D0E949A
:10294000E112E82E8111F4C0DF86C88A8F8598894C
:102950000E94EA13292F22952F70243020F49F70B3
:10296000223028F009C02A50223080F014C0992368
:1029700049F0811107C013C0992321F0F801968115
:10298000907F69F0805E883030F409C0803F38F075
:10299000815F833020F0C8010E94D90DEF2CFE2CFE
:1029A000CBC080913E02816080933E02C1C0909175
:1029B00038029D119CCFE1109ACFF80198C0EE200B
:1029C00009F49ACF20913E02822F82958F7090E079
:1029D00002978CF08091380290913902998788870C
:1029E000BB86AA8680913C028C871D862E87CE01ED
:1029F00008960E94D90D87E0F801A8E3B2E00190A3
:102A00000D928A95E1F70E945D1394C090913E0269
:102A1000292F207F51F488E392E00E94D90D87E0AE
:102A2000F40111928A95E9F783C0882309F484C0E0
:102A3000809139028C110CC0809138028D1108C030
:102A4000E11006C0F8019683C8010E94D90D6AC042
:102A5000C8010E94F713882309F44ECFEE2009F431
:102A60004BCF20913E02822F82958F7090E002978B
:102A700014F280913802909139029A838983BC8242
:102A8000AB8280913C028D831E822F83CE01019602
:102A9000B0CFA21AB30AF8ECAF16B10408F042C0E6
:102AA000882309F447C0FE2CEE2009F425CF80913D
:102AB00039028C1129C0809138028D1125C0909166
:102AC0003E0290FD18C0892F82958F70282F30E02C
:102AD0002115310581F0F80196832F30310541F041
:102AE0008F5F982F9295907F86818F70892B868338
:102AF000C8010E94D90D87E0F801A8E3B2E0019077
:102B00000D928A95E1F718C0C8010E94F713811150
:102B100072CF80913E02816080933E02C8010E9484
:102B2000D90D0AC087E0F40111928A95E9F704C033
:102B3000F12C02C0FF24F3948F2D6496ECE00C94EA
:102B40002B31983078F5863068F5E82FF0E086E094
:102B5000989FE00DF11D11249E2F977083E0F6954C
:102B6000E7958A95E1F7EE0FFF1FEE0FFF1FE05E7E
:102B7000FD4F40E050E080E0219130E0092E02C09E
:102B8000369527950A94E2F721703327042E01C069
:102B9000220F0A94EAF7822B4F5F5F4F44305105B2
:102BA00059F7089580E00895983088F5863078F5D3
:102BB000E82FF0E086E0989FE00DF11D11248E2FA4
:102BC000877051E001C0550F8A95EAF783E0F695CA
:102BD000E7958A95E1F7EE0FFF1FEE0FFF1FE05E0E
:102BE000FD4F20E030E070E04081CB01022E02C0BA
:102BF000969587950A94E2F78170819584278523BD
:102C0000842781932F5F3F4F2430310569F7089562
:102C10009C01267033272630310511F4886001C0ED
:102C2000877F9093F4018093F301089521E030E0D1
:102C300002C0220F331F8A95E2F7209530958091CC
:102C4000F3019091F401822393230E9408160895C2
:102C5000909179028095892380937902282F27709B
:102C600069F4981759F090910B0792FF07C0869569
:102C7000869586950E941616109279020895909175
:102C80000B0792FB222720F9281779F080FB92F995
:102C900090930B0760910A0770910B0784E090E016
:102CA0000E94E73182E00E942816089521E030E07A
:102CB00002C0220F331F8A95E2F78091F3019091B1
:102CC000F401822B932B0E94081608959093DD0146
:102CD0008093DC0108951092A40280913F01882323
:102CE00041F080910A0787FF04C08EE1EAE0F5E039
:102CF00003C086E0E2E0F5E0DF011D928A95E9F786
:102D000080E090E00E94402980E090E00E941B2932
:102D100010927B020E940113E9EFF6E086E0DF01EA
:102D20001D928A95E9F71092F2061092F30610921E
:102D3000F4060E94002A0895882321F00E94671C4F
:102D40000E9401130895882339F09091A402892BE1
:102D50008093A4020E94011308959091FB066623BC
:102D600009F470C091110CC09091FC06911108C03B
:102D70009091FE06911104C09091FD06992331F0C7
:102D800098E09093F20691E09093F3068D3C21F445
:102D90000E944C2A819504C08E3C29F40E944C2A42
:102DA0008093FC06C3C08F3C21F40E944C2A81957D
:102DB00004C0803D29F40E944C2A8093FB06B6C0D3
:102DC000893D19F40E942A2A05C08A3D31F40E94E7
:102DD0002A2A81958093FD06A9C08B3D21F40E948B
:102DE0002A2A819504C08C3D29F40E942A2A8093C6
:102DF000FE069CC09FE2980F983078F421E030E006
:102E0000A90102C0440F551F9A95E2F7CA0190919B
:102E1000FA06892B8093FA0689C08D3D21F48091B2
:102E2000F40681600CC08E3D21F48091F40682602E
:102E300006C08F3D09F07AC08091F40684608093CB
:102E4000F40674C08D3C39F49091FC0697FF33C0B2
:102E50001092FC0657C08E3C29F49091FC0619167E
:102E6000BCF329C08F3C29F497FF25C01092FB06C4
:102E700049C0803D19F41916CCF31DC09091FD0690
:102E8000893D29F41916BCF41092FD063BC08A3D19
:102E900019F497FF10C0F8CF8B3D39F49091FE06DE
:102EA00097FF09C01092FE062DC08C3D21F4909131
:102EB000FE061916BCF39FE2980F983080F421E0CB
:102EC00030E0A90102C0440F551F9A95E2F7CA01EC
:102ED00080959091FA0689238093FA0613C08D3D60
:102EE00021F48091F4068E7F0BC08E3D21F48091F9
:102EF000F4068D7F05C08F3D29F48091F4068B7F09
:102F00008093F4068091FB06811106C08091FC0637
:102F1000811102C01092F2068091FD06811106C057
:102F20008091FE06811102C01092F3060E94002AD1
:102F30000895882381F19CEF980F913A18F40E942C
:102F4000B6280DC090E2980F983060F4877091E039
:102F500001C0990F8A95EAF7892F0E94671C0E9489
:102F6000011308959BE5980F933028F480E090E0DA
:102F70000E944029089598E5980F9B3128F480E03D
:102F800090E00E941B29089593E3980F933118F461
:102F900060E00E94AD160895CF93882309F46EC0B7
:102FA000C82F8CEF8C0F813AA0F580913F018823C8
:102FB000E1F080910A0787FF18C0EC2FE695E695AF
:102FC000E695F0E0E85FFA4F8281282F30E04C2F41
:102FD000477081E090E002C0880F991F4A95E2F7A0
:102FE00082239323892B61F410C0E2E0F5E088E0AE
:102FF00095E02191C21721F08E179F07D1F705C0E8
:103000008C2F0E94B6280E9401138C2F0E94E42866
:1030100010C080E28C0F883078F4C77081E090E0B7
:1030200001C0880FCA95EAF79091A402892B80937A
:10303000A4020E94011322C0EBE5EC0FE33040F440
:10304000F0E0EB59FE4F808190E00E94402916C0CD
:10305000E8E5EC0FEB3150F4F0E0EE0FFF1FE8591C
:10306000FE4F808191810E941B2908C083E38C0F51
:10307000833120F461E08C2F0E94AD16CF9108952A
:1030800080E0089590910A0792FF10C041E0282F38
:103090002471243009F040E031E0282F28712830D5
:1030A00009F030E0431711F02CE0822793FF10C0A5
:1030B00041E0282F2471243109F040E031E0282F2D
:1030C0002871283109F030E0431711F02CE08227F5
:1030D00030910B0730FF10C051E0282F21712130B3
:1030E00009F050E041E0282F2871283009F040E035
:1030F000541711F029E0822731FF10C041E0282F3A
:103100002171213109F040E031E0282F2871283168
:1031100009F030E0431711F029E0822794FD877E03
:1031200008958238910569F1B0F48133910509F46D
:1031300075C048F48932910509F467C08A32910557
:1031400009F471C008958533910509F459C0893394
:103150009105B9F00895833E910589F138F4803ED8
:103160009105D1F0823E910529F10895863E9105A1
:10317000C9F1873E9105D9F1843E910509F06CC0F3
:1031800027C020910A0720FD57C021FD55C020917E
:103190000B0723FD5BC0089580910A0780FD48C09E
:1031A00080910B0780FF48C080910A0784FD46C0CC
:1031B00083EE51C080910A0782FF3CC0F5CF809119
:1031C0000A0782FD37C080910B0780FD35C0ECCF28
:1031D00080910B0781FF36C080910A0784FD2EC0C5
:1031E00087EE39C080910A0783FF2AC0F5CF80910E
:1031F0000A0783FD25C080910B0781FD23C0ECCF1A
:1032000080910A0785FD22C01FC080910A0785FDB5
:103210001BC080910B0783FF19C00AC080910A0769
:1032200086FD16C017C080910A0786FD13C010C026
:1032300089E311C082EE0FC080EE0DC080E00BC0AC
:1032400086EE09C084EE07C085E305C089E203C0AD
:103250008AE201C081E390E00895A0E0B0E0E3E3FA
:10326000F9E10C9411317C015B016A018091DD026E
:103270008A3018F001E010E002C00AE010E0C1E07E
:10328000D0E0B501C701F6010995811115C021965D
:103290000C171D0794F0CC9F9001CD9F300D300D81
:1032A000112480E090E045E34A95F1F70000019693
:1032B00082179307C1F7E5CF81E0CDB7DEB7EAE02B
:1032C0000C942D31A0E0B0E0E8E6F9E10C940F3168
:1032D000FB0180809180A280B3809FB7F894C0905A
:1032E0000D07D0900E07E0900F07F09010079FBFDA
:1032F000C818D908EA08FB08F4E6CF16D104E1049F
:10330000F10410F4442341F17B01C82F880FDD0B39
:1033100001151105A9F0FE0183E0EE0FFF1F8A954C
:10332000E1F7E95EFE4F8181928183549D4F408198
:1033300050E00417150708F4A801B9010E94F432FF
:10334000CE010E947A30882341F00E947528F7014F
:10335000608371838283938381E0CDB7DEB7ECE035
:103360000C942B31ABE0B0E0E8EBF9E10C941731B1
:1033700088E0E4EEF6E0DE01119601900D928A9568
:10338000E1F780912E0590912F05A0913005898756
:103390009A87AB8741E08B85811101C040E00BE04B
:1033A00010E09E012F5F3F4F69ED72E084E00E94C4
:1033B00062198111109230052B96E4E00C943331A0
:1033C0000F931F93CF93DF93EC0144E050E062EC46
:1033D00072E00E94E73241E0892B09F440E004E00A
:1033E00010E09E0169EB72E082E00E946219DF91B9
:1033F000CF911F910F910895EF92FF921F93CF935A
:10340000DF9300D000D01F92CDB7DEB77B0180E004
:1034100090E00E947A30882309F463C040911A0139
:1034200050E04115510511F041E050E060911B0161
:1034300070911C0163547D4FCE0105960E94F432B9
:103440004091B5025091B6026091B7027091B802F6
:103450002FB7F89480910D0790910E07A0910F0758
:10346000B09110072FBF841B950BA60BB70B8436AA
:103470009105A105B10538F48EEB92E00E94D41FAE
:103480009D81891781F181E090E00E947A30182FA8
:10349000882391F04091220150E04530510510F011
:1034A00044E050E0609123017091240163547D4F0A
:1034B000CE0101960E94F4328EEB92E00E94D41F5E
:1034C00091E02D81281390E0192341F10E94752885
:1034D0006093B5027093B6028093B7029093B802DE
:1034E0000FC010E001C011E08091BE029091BF02B8
:1034F000A091C002B091C10289839A83AB83BC833F
:10350000112361F089819A81AB81BC818093B102E2
:103510009093B202A093B302B093B4028091B1022F
:103520009091B202A091B302B091B402F7018083EE
:103530009183A283B383812F0F900F900F900F90F0
:103540000F90DF91CF911F91FF90EF900895F89425
:10355000E82FE295EF70F0E031A1282F2F7081E085
:1035600090E001C0880F2A95EAF7982F9095932351
:1035700091A392A1892B82A3789408950F931F930E
:1035800080910207882319F00E9475280EC00E94BE
:1035900075280091CE011091CF012091D00130917A
:1035A000D101600F711F821F931F1F910F9108950A
:1035B000A4E0B0E0EEEDFAE10C9419314091D502AF
:1035C0005091D6026091D7027091D8022FB7F8942B
:1035D00080910D0790910E07A0910F07B0911007F1
:1035E0002FBF841B950BA60BB70B84369105A10545
:1035F000B10570F10E94BE1ADC01CB010296A11D3B
:10360000B11D89839A83AB83BC83809130019091F3
:10361000310183549D4F40912F0150E045305105B9
:1036200010F044E050E0BE016F5F7F4F0E94F43223
:1036300083E090E00E947A30882359F00E94752838
:103640006093D5027093D6028093D7029093D802EC
:1036500081E02496E2E00C9435317830B0F46630A5
:10366000A0F48530A0F490E3899FF001112486E056
:10367000789FE00DF11D1124E60FF11DEE0FFF1FE5
:10368000E15BFD4F85919491089580E001C081E058
:1036900090E008951F93CF93DF930E949118EC015F
:1036A000C11580E5D807E8F5C11590E4D90708F001
:1036B000A8C0C03ED10530F5CD3CD10508F094C07E
:1036C000C83AD10578F4C53AD10508F083C0C130B5
:1036D000D10509F47CC008F4F2C0C430D10508F06B
:1036E000F1C0EDC0C33CD10508F0E9C0C85AD0E034
:1036F000CC0FDD1FC859DE4F0990D881C02DCE01F7
:103700009464E1C0C11580E2D80708F0CBC0C115B0
:1037100091E0D90708F06BC0C83ED10508F4D2C0CB
:10372000CEC0C03682E5D80728F5C03492E5D90767
:1037300008F079C0C03282E5D80708F06CC0C11526
:1037400092E5D90708F481C04C2F4695469580E252
:10375000489FA0011124C37021E030E0C90102C0DC
:10376000880F991FCA95E2F7EA01C82BD92BCE0121
:103770009D68A9C0C03A82E5D807B8F48C2F8F7134
:10378000C03892E5D90708F07BC08695869590E20F
:10379000899F90011124C37081E090E002C0880FDE
:1037A000991FCA95E2F79A6868C0C03C82E5D807BD
:1037B00008F46DC0C03E92E5D90708F080C0CF7113
:1037C000DD27DC2FCC27CE01806F906A7CC081E0A2
:1037D00090E079C0C55AD0E0CB59DE4F8881C82F20
:1037E000D0E0CE0190646FC0CE0190656CC08D2F8B
:1037F0000E944218182FCE0199270E9491181F711C
:103800005CC0CE0199270E949118CC27DF70D06A46
:103810008C2B9D2B58C0CF71D0E0DC2FCC27CE0154
:10382000816F906A50C08C2F8F718695869590E23B
:10383000899F90011124C37081E090E002C0880F3D
:10384000991FCA95E2F79C6818C08C2F8F710E944F
:10385000421895E0D695C7959A95E1F7CF70D0E0DC
:10386000DC2FCC27282F30E084FF05C084E0220F16
:10387000331F8A95E1F7D069CE01822B932B23C0A9
:1038800090E0D82FCC27CE01846F906A1CC08C2F7B
:103890008F710E9442188F7190E0D82FCC27CE01F3
:1038A000906211C08D2F8F710E944218182FCE0187
:1038B00099270E9491181F719062912B04C080E09B
:1038C00090E001C0CE01DF91CF911F9108958095C6
:1038D0009091A40289238093A40208958091020705
:1038E000882319F00E94812808950E94BE1ACB01F6
:1038F0000895A6E0B0E0EFE7FCE10C9417310E94D8
:1039000081288C018091A5029091A60208171907C1
:1039100081F019821A820E948128682F49815A8178
:10392000792F80E090E00E94230D1093A60200936F
:10393000A5022696E4E00C943331ACE0B0E0E3EA73
:10394000FCE10C940C31AE014F5F5F4F7A0188E0CF
:10395000DA011D928A95E9F703E511E06A0187E52E
:10396000682E81E0782EAA24A394B12C2DE5822E16
:1039700021E0922EF80180818F3F09F440C0F89435
:10398000E82FE295EF70F0E021A18F70A50102C051
:10399000440F551F8A95E2F7CA01922F982B91A3E5
:1039A00092A18095892382A3789400C0E7E5F1E095
:1039B000512C31E021912F3F89F0A22FA295AF70B9
:1039C000B0E090968C9190E02F7002C0959587950D
:1039D0002A95E2F780FD02C0832F01C080E0582ABB
:1039E000330F8E169F0631F7D8018C918F3F11F05F
:1039F0000E94A71AB0EABA95F1F7F60150820F5F5C
:103A00001F4FFFEFCF1ADF0A6016710609F0B2CF21
:103A100048E050E0B70182ED91E00E94E732892B47
:103A200099F088E0F701A2EDB1E001900D928A953E
:103A3000E1F781E08093A9020E9481289093A80277
:103A40008093A702F12C27C08091A9028823D1F38B
:103A50000091DB018091A7029091A8020E94662844
:103A6000059780F310E001521E4F44E050E062EDF4
:103A700071E0C8010E94E732892B09F425C184E076
:103A8000E2EDF1E0D80101900D928A95E1F7FF2473
:103A9000F3941092A90280910207E091DB01882340
:103AA00009F481C019861A861B861C860E2F10E029
:103AB00001521E4F8091DD028A3058F44CEF59E1DB
:103AC000BE01675F7F4FC8010E942D198823E9F16D
:103AD0000AC08091AA029091AB020E946628843F9E
:103AE000914060F743C040EE59E1BE01675F7F4FF0
:103AF000C8010E942D19882341F148ED5AE1BE0109
:103B0000675F7F4FC8010E942D198823F1F042EBB7
:103B100059E1BE01675F7F4FC8010E942D198823BC
:103B2000A1F01092DD028091DA0190E044E050E0D3
:103B3000BE01675F7F4F81529E4F0E94E73221E0B6
:103B40002093B002892B01F5B9C08091DD028F3F2F
:103B500019F08F5F8093DD028091DD028A3018F3C7
:103B60000E9481289093AB028093AA028091B002B8
:103B7000882309F4A3C0FE01399684E0DF011D9279
:103B80008A95E9F71092B002E091DA01F0E0E15293
:103B9000FE4F89859A85AB85BC8580839183A283FE
:103BA000B38381E08CC00091DA0110E001521E4F16
:103BB000F0E0E152FE4F84E0AEEBB2E001900D92F6
:103BC0008A95E1F78EEB92E00E94D41F8093BD02AC
:103BD00084E0E2ECF2E0D80101900D928A95E1F7E1
:103BE0008090C6029090C702A090C802B090C9020F
:103BF0008091AC029091AD02A091AE02B091AF0263
:103C000088169906AA06BB06B1F08092AC02909283
:103C1000AD02A092AE02B092AF020E947528861A41
:103C2000970AA80AB90A8092CE019092CF01A09279
:103C3000D001B092D1018091CA02282F21708695BF
:103C40008695E090CB02D090CC02C090CD0200913E
:103C5000D3021091D4021092D402112379F110FFF3
:103C600017C09091E406222339F091609093E40606
:103C700060E00E946B2D0CC09E7F9093E4060E9432
:103C8000132B809130058160809330050E94362B84
:103C900011FF06C020E04C2D6D2D8E2D0E947B2C37
:103CA00012FF07C0002319F00E941A2B02C00E94C5
:103CB000132B13FF03C081E080932B0580E08F2935
:103CC0002C96EFE00C942831F12CE3CE8091ED029C
:103CD00087FF11C08091E80082FD05C08091EB0252
:103CE0008111F8CF11C08091E8008B770BC08091D3
:103CF000EB02882349F08091E80080FFF8CF8091A3
:103D0000E8008E778093E8000895982F973068F543
:103D10009093E900981739F07091EC002091ED0034
:103D20005091F00003C0242F762F50E021FD02C0F7
:103D30009F5FECCF3091EB003E7F3093EB003091F2
:103D4000ED003D7F3093ED003091EB00316030931A
:103D5000EB007093EC002093ED005093F000209165
:103D6000EE0027FDE5CF80E008958F708093E90095
:103D700081E008952091F3023091F402261737076D
:103D800048F06115710539F42091E8002E772093F1
:103D9000E80001C0B901FC0120E06115710579F16D
:103DA0008091EB028823F1F18530F1F18091E800F8
:103DB00083FD3CC08091E80082FD2EC08091E80028
:103DC00080FFEBCF2091F3008091F20090E0922BE6
:103DD0006115710551F08830910538F421912093D7
:103DE000F100615071090196F3CF21E0089709F0C5
:103DF00020E08091E8008E778093E800CECF2111FB
:103E0000CFCF0AC08091EB02882361F0853061F04A
:103E10008091E80083FD0AC08091E80082FFF2CF24
:103E200080E0089582E0089583E0089581E0089598
:103E300043E050E0BC0182E00E94F127089546E093
:103E400050E0BC0182E00E94F127089540E250E07A
:103E5000BC0182E00E94F1270895CF93DF93EC012B
:103E600048E050E0BC0181E00E94F12788E0FE01BB
:103E7000A1EEB2E001900D928A95E1F7DF91CF912A
:103E80000895CF93DF93682F8A3011F481E003C047
:103E90008D3021F480E00E947A2A6FC08091FE0468
:103EA0009091FF0426E0FC01A8EFB4E001900D9290
:103EB0002A95E1F7603E30F026E0FC0111922A9548
:103EC000E9F70AC0F6E06F9FB001112466567A4FF9
:103ED00046E050E00E949C31C091FE04D091FF0466
:103EE00046E050E0BE0188EF94E00E94E732892B63
:103EF00049F19E01285F3240A90185E0569547951A
:103F00008A95E1F781E090E0BC0102C0660F771F5F
:103F10004A95E2F74091F6025091F702462B572B53
:103F20002B5F3F4F65E0369527956A95E1F702C014
:103F3000880F991F2A95E2F7842B952B9093F7020F
:103F40008093F6029E01225F32404091F502642F79
:103F500070E0C9010E94F530481B463010F4240F70
:103F6000311D211582E0380710F020E030E02850A4
:103F70003D4F3093FF042093FE04DF91CF910895CD
:103F8000CF93DF93EC01FE018491882321F00E94FE
:103F9000411F2196F8CFDF91CF9108950E94C01F55
:103FA00081E00E947A2A0895FC01AC014C5F5F4FCA
:103FB0008FEF91E32191822728E030E087FF03C053
:103FC000880F892701C0880F21503109B9F7E417FC
:103FD000F50781F70895AAE2B0E0E1EFFFE10C9464
:103FE0001831EDEEF2E085EF92E02091F10021939F
:103FF0008E179F07D1F78091EE02833009F461C0DC
:1040000030F4813071F0823009F49BC0B2C08A3044
:1040100009F487C08B3009F46CC0893009F0A9C05D
:1040200020C08091ED02813A09F0A3C08091E800A0
:10403000877F8093E8008091F1029091F202892BB2
:1040400021F468E081EE92E003C060E080E090E05F
:1040500070E00E94BA1E8091E8008B778093E800A0
:1040600088C08091ED02813209F083C08091F10215
:104070009091F202029708F07CC08091E800877F5F
:104080008093E8008091E80082FD05C08091EB02FA
:104090008111F8CF6EC02091F3008091F20090E082
:1040A000922B029731F48091F100813011F086302B
:1040B00021F48091F1008093E0028091E8008B77F9
:1040C00054C08091ED02813A09F053C08091F10211
:1040D0009091F202892B09F04CC08091E800877F13
:1040E0008093E8008091E80080FFFCCF80913F0141
:1040F00037C08091ED028132E1F58091F10290911B
:10410000F202892BB1F58091E800877F8093E80067
:104110000E94661E8091EF0280933F010E946B1601
:1041200028C08091ED02813221F58091E800877FDF
:104130008093E8000E94661E8091F0028093DF0267
:1041400018C08091ED02813AA1F48091E800877F48
:104150008093E8008091E80080FFFCCF8091DF022F
:104160008093F1008091E8008E778093E8000E94B0
:10417000661E8091E80083FFCEC18091ED02909190
:10418000EE02492F50E04A30510508F0C4C1FA014F
:10419000E056FF4F0C948E32803821F0823809F0BF
:1041A000BAC108C08091E9029091EA02992389F08E
:1041B00082600FC08091F1028F70873008F0ABC130
:1041C0008093E9008091EB0085FB882780F91092AD
:1041D000E9009091E800977F9093E8008093F100C8
:1041E0001092F10065C1282F2D7F09F094C188231A
:1041F00019F0823061F08FC18091EF02813009F0B7
:104200008AC1933009F080E08093EA022EC0809149
:10421000EF0281112AC08091F1028F702FEF280FD9
:10422000263008F078C18093E9002091EB0020FF50
:104230001CC0933021F48091EB00806214C09091F7
:10424000EB0090619093EB0021E030E0A90102C007
:10425000440F551F8A95E2F74093EA001092EA0056
:104260008091EB0088608093EB001092E9008091D0
:10427000E800877F20C181114EC11091EF021F77A6
:104280008091E3008078812B8093E3008091E800A7
:10429000877F8093E8000E94661E8091E80080FF7F
:1042A000FCCF8091E30080688093E300111102C08D
:1042B00082E001C083E08093EB022DC18058823000
:1042C00008F029C18091EF029091F0028C3D53E0FB
:1042D000950779F583E08A838AE289834FB7F8945A
:1042E000DE01139620E03EE051E2E32FF0E0509330
:1042F0005700E49120FF03C0E295EF703F5FEF703D
:104300008E2F90E0EA3010F0C79601C0C0968D93D2
:104310009D932F5F243149F74FBF8091E800877F3D
:104320008093E8006AE270E0CE0101960E94BA1E16
:10433000AEC04091F1025091F202292F3327233071
:104340003105A9F068F42130310509F4F3C02230B9
:10435000310509F0E0C08BE390E0E9E2F5E044C00C
:104360002132310521F12232310571F1D4C0992772
:1043700081309105A1F058F0029709F0CCC0E6E732
:10438000F5E0E4918E2F90E0E6E7F5E02AC0E6E95B
:10439000F5E0E4918E2F90E0E6E9F5E022C0E4E854
:1043A000F5E0E4918E2F90E0E4E8F5E01AC04115C5
:1043B000510509F4C4C04130510509F0ACC089E091
:1043C00090E0E4E5F5E010C04115510509F4BCC0EA
:1043D0004130510509F09FC086EB90E0EFE2F4E038
:1043E00003C0009709F497C02091E800277F20932D
:1043F000E8002091F3023091F4028217930708F449
:104400009C0140E02115310589F18091EB02882360
:1044100009F43DC08530D9F18091E80083FD37C0B3
:104420008091E80082FD2FC08091E80080FFEACFF4
:104430004091F3008091F20090E0942B211531051A
:1044400059F08830910540F444914093F100319641
:10445000215031090196F2CF41E0089709F040E080
:104460008091E8008E778093E800CCCF4111CDCFCA
:104470000AC08091EB02882351F0853041F0809191
:10448000E80083FD04C08091E80082FFF2CF8091B4
:10449000E8008B778093E8003EC08038E1F580919A
:1044A000E800877F8093E8008091EC028093F10020
:1044B0008091E8008E778093E8000E94661E2BC0F2
:1044C000811129C08091EF029091F0029927029703
:1044D00014F58091E800877F8093E8001091EF0247
:1044E0001093EC020E94661E111106C08091E30039
:1044F00087FD02C081E001C084E08093EB0242E0CE
:1045000061EC81E00E94851E42E261EC82E00E9443
:10451000851E8091EB028091E80083FF1AC0809194
:10452000E800877F8093E8008091EB0080628093B1
:10453000EB000FC082E190E0E4E6F5E055CF89E0C2
:1045400090E0EBE3F5E050CF84E490E0E5EEF4E0BA
:104550004BCFAA96E3E00C9434311F920F920FB622
:104560000F9211242F933F934F935F936F937F93F9
:104570008F939F93AF93BF93CF93DF93EF93FF936B
:10458000C091E900CF708091EC00D82FD17080FDF0
:10459000D0E81092E9008091F000877F8093F000CE
:1045A00078940E94EB1F1092E9008091F0008860DF
:1045B0008093F000CD2BCF70C093E900FF91EF9175
:1045C000DF91CF91BF91AF919F918F917F916F912B
:1045D0005F914F913F912F910F900FBE0F901F90C1
:1045E0001895E8EDF0E080818E7F80831092E200E4
:1045F0001092DA001092E100A0EEB0E08C918160A0
:104600008C9380818F77808319BCA7EDB0E08C916B
:104610008E7F8C9380818F7E80831092DE0208953E
:10462000A0E0B0E0E6E1F3E20C941331C8EDD0E095
:1046300088818F7E8883E7EDF0E0808181608083D0
:1046400084E082BF81E08093DE0288818E7F888350
:1046500002EE10E0F80110821092DA0081EEC82E0E
:10466000D12CF601108288818F77888388818068B9
:10467000888388818F7D888319BC1092EB02109209
:10468000EC021092EA021092E90290EEE92EF12C6F
:10469000F70180818B7F808388818160888342E0FD
:1046A00060E080E00E94851EF60180818E7F80831D
:1046B000F801808181608083808188608083F70138
:1046C00080818E7F8083888180618883CDB7DEB7CB
:1046D000E8E00C942F311F920F920FB60F92112425
:1046E0002F933F934F935F936F937F938F939F93FA
:1046F000AF93BF93EF93FF938091E10082FF09C0D6
:104700008091E20082FF05C08091E1008B7F809361
:10471000E1008091DA0080FF2AC08091D80080FFFC
:1047200026C08091DA008E7F8093DA008091D900D4
:1047300080FF18C080E189BD82E189BD09B400FE17
:10474000FDCF81E08093EB028091DE0281110FC0EA
:104750000E94F1220E9410238091E20084608093E5
:10476000E20005C019BC1092EB021092DE028091AB
:10477000E10080FF17C08091E20080FF13C08091AC
:10478000E2008E7F8093E2008091E200806180935E
:10479000E2008091D80080628093D80019BC85E047
:1047A0008093EB028091E10084FF30C08091E200B1
:1047B00084FF2CC080E189BD82E189BD09B400FE7F
:1047C000FDCF8091D8008F7D8093D8008091E1004B
:1047D0008F7E8093E1008091E2008F7E8093E200E3
:1047E0008091E20081608093E2008091EC02882356
:1047F00011F084E007C08091E30087FD02C081E0F2
:1048000001C083E08093EB028091EB028091E10094
:1048100083FF27C08091E20083FF23C08091E100E5
:10482000877F8093E10082E08093EB021092EC029C
:104830008091E1008E7F8093E1008091E2008E7F85
:104840008093E2008091E20080618093E20042E088
:1048500060E080E00E94851E8091F0008860809377
:10486000F000FF91EF91BF91AF919F918F917F9158
:104870006F915F914F913F912F910F900FBE0F90CD
:104880001F9018952091E4003091E50095E6409145
:10489000EC00842F817040FF23C08091E80080FDF0
:1048A0001DC08091EB02882399F0853099F08091AA
:1048B000EB0085FD11C04091E4005091E500241704
:1048C000350729F3915011F09A01E1CF84E0089562
:1048D00082E0089583E0089581E0089580E00895DE
:1048E0004091E80042FFDDCF08958091E0020895F5
:1048F0000895539A2BB1277F3BB138604FB7F89496
:10490000FC01CB01880F991F680F791F6E0F7F1F65
:10491000E617F70789F0819198E03BB9000000C0E5
:1049200087FF2BB9880F000000C000C000C02BB962
:1049300000C09A9591F7ECCF4FBF8FE594E00197B7
:10494000F1F700C0000008950F931F93CF93DF93FA
:10495000EC0100E010E080915201282F30E00217B6
:10496000130724F5909150019801290F311DA901D9
:10497000440F551F240F351F2C5C3A4F869590E04D
:104980004C81081719071CF4442331F002C041116F
:1049900003C04091E70601C040E06091E6068091C7
:1049A000E5060E94EC2B0F5F1F4FD5CF0E94362BE0
:1049B0008C8190E00196817099278C83DF91CF9153
:1049C0001F910F910895A0E0B0E0E9EEF4E20C949D
:1049D0000F318C01FC014481C42FD0E09E01DE0127
:1049E0000E9451329B01AC010E941C326B017C0180
:1049F000E0E2F0E0EC1BFD0BA5E5B0E09B01AC01B3
:104A00000E941C324B015C019F01DF010E94943225
:104A10009B01AC010E9427329B01AC012C0D3D1D76
:104A20004E1D5F1DC501B4010E942F32C22FD22F2F
:104A30002A3228F4F3E02F9F900111240DC025E5C0
:104A400030E02C1B3109C901880F991F280F391F2D
:104A500037FF02C02F5F3F4F35952795C22FC09576
:104A6000F12C85E5E82EED1A80915201F816C8F474
:104A7000F1FC02C08E2D01C08D2F909150012F2D81
:104A800030E0290F311DA901440F551F240F351F98
:104A90002C5C3A4F4C2F6091E6060E94EC2BF3946D
:104AA000E3CF0E94362BF8018481811102C091E08E
:104AB00003C0803219F49FEF90934D0190914D0106
:104AC000890FF8018483CDB7DEB7ECE00C942B316D
:104AD0001F93CF93DF93EC018C81811109C081E09A
:104AE0008C831092320592E090934C0180934B019D
:104AF0008091500190915101891770F4E82FF0E0F6
:104B00009F01220F331FE20FF31FEC5CFA4F11825B
:104B1000108212828F5FF0CF10E060915201161761
:104B2000C0F5E12FF0E070E0CF010E947A322091D1
:104B30005001820F20913205022E000C330B90E0C1
:104B4000E217F307CCF020914C01022E000C330B3E
:104B50002E173F078CF09C01220F331F820F931FEB
:104B60009C012C5C3A4F4091E7066091E6068091EB
:104B7000E5060E94EC2B0BC0FC01EE0FFF1F8E0F11
:104B80009F1FFC01EC5CFA4F1182108212821F5FA2
:104B9000C4CF0E94362B80914B0120913205280F03
:104BA0002093320590914C01980F90934C01191667
:104BB0005CF4022E000C330B4091520150E0415046
:104BC00051092417350734F0819580934B018130CA
:104BD00009F41C82DF91CF911F910895A0E0B0E00D
:104BE000E4EFF5E20C940E31EC018A8180FF03C002
:104BF000BB24BA9402C0BB24B3948C8181110DC034
:104C000081E0B81206C08091520181508093310535
:104C100002C01092310581E08C83A12C46E3842EE2
:104C200090905201A91408F041C080915001CA2C03
:104C3000D12C8601080F111DC801880F991F080F7C
:104C4000191F0C5C1A4FF80111821082128234E095
:104C5000E32EF12C712C80913105870D87332CF0D8
:104C6000682D0E946C32892F02C087FD890D082EA5
:104C7000000C990BC816D90691F48091E7068E9D19
:104C8000A0018F9D500D1124559547955595479539
:104C900098016091E6068091E5060E94EC2B7B0C62
:104CA000F1E0EF1AF108B9F6A394BACF0E94362BBF
:104CB0008091310591E0B9120EC0811107C0809139
:104CC00052018150809331051C820FC08150809326
:104CD0003105BC820AC090E001966091520170E0FB
:104CE0000E947A32809331058C83CDB7DEB7EDE038
:104CF0000C942A31FF920F931F93CF93DF93EC0113
:104D0000F12C0FEF10E060915201F616F0F4809153
:104D100050012F2D30E0280F311DC901880F991F38
:104D2000280F391F2C5C3A4F70E0C8010E947A327C
:104D3000962F8C814091E7066091E606F99E800DE2
:104D400011240E94EC2BF394DECF0E94362B9A8123
:104D50008C8190FF02C08F5F01C081508C83CDB7E2
:104D6000DEB7E5E00C9432312F923F925F926F9262
:104D70007F928F929F92AF92BF92CF92DF92EF92EB
:104D8000FF920F931F93CF93DF93FC0162805480B7
:104D900081E08483EAEDFAE07490E9E5FBE0E491D8
:104DA000C091E706C695C158D0E0CC0FDD1F2D2E6F
:104DB0003324812C75E0972EAA24AA94B12CE719EC
:104DC000EE2EF12C80915201881608F098C0C82C64
:104DD000D12C22E0261568F09C9CF0019D9CF00DE2
:104DE0001124EA52FA4F8091E50680838091E6060D
:104DF000818351100AC09C9CF0019D9CF00D1124F0
:104E0000EA52FA4F1382128260C09C9C80019D9CE2
:104E1000100D1124E801CA52DA4F8B818823F9F072
:104E200081508B832FEF829FC00111246C8170E031
:104E30000E94F530FB01FF27E652F54F8491E82FE1
:104E4000E7192FEFE29FC0011124B7010E94F5304E
:104E50008091E706689FB00111247A8336C00E94D2
:104E60008C31B5010E947A328215930574F582E087
:104E7000861588F40E948C31B5010E947A328883AD
:104E80000E948C312091E6062695622F70E00E94E8
:104E90007A32280F29839C9CF0019D9CF00D1124EF
:104EA000EA52FA4F12828091E706843120F0893C61
:104EB00018F088EC01C084E19C9CF0019D9CF00DF1
:104EC0001124EA52FA4F8483838380915001960122
:104ED000280F311DC901880F991F280F391F2C5C1D
:104EE0003A4F9C9CF0019D9CF00D1124EA52FA4F20
:104EF0004281618180810E94EC2B839463CF0E9468
:104F0000362BDF91CF911F910F91FF90EF90DF90A3
:104F1000CF90BF90AF909F908F907F906F905F9059
:104F20003F902F900895A3E0B0E0E9E9F7E20C94F8
:104F300017318C018091330581110AC09E012F5FCA
:104F40003F4F48E76FEF0E94EC2B8A818093330537
:104F5000F8018481813051F028F0823061F4409171
:104F600033050AC08091330540E007C060913305E6
:104F700040E080E003C040E080E060E00E945C2B05
:104F8000F801848190E0019663E070E00E947A323B
:104F900084832396E4E00C943331CF93DF93EC01C8
:104FA000E4EEF6E0438162818C810E94532D8C8176
:104FB0008F5F8C83DF91CF910895CF93DF93EC01C6
:104FC000EC81F0E0E652F54F4491E4EEF6E06281C8
:104FD00081810E94532D8C818F5F8C83DF91CF91D3
:104FE00008950F931F93CF93DF938B01EA01909164
:104FF000EB02943079F58F708093E9008FEF9091F8
:10500000E800815095FD06C095ED9A95F1F70000F6
:105010008111F5CF8091E80085FF1CC00E944224D9
:10502000882361F08091E8008E778093E80012C0B9
:10503000F80181918F018093F1002197209791F3DE
:105040008091E80085FDF4CF8091E8008E77809311
:10505000E800E4CFDF91CF911F910F91089587E78A
:1050600097E790930108809300089AE088E10FB6D3
:10507000F894A895809360000FBE90936000FFCFD6
:1050800078941F920F920FB60F9211248F939F93D3
:10509000AF93BF9380910D0790910E07A0910F07DA
:1050A000B09110070196A11DB11D80930D0790933B
:1050B0000E07A0930F07B0931007BF91AF919F9178
:1050C0008F910F900FBE0F901F9018959C014FB7B6
:1050D000F89480910D0790910E07A0910F07B09161
:1050E00010074FBF821B930B08952FB7F894609160
:1050F0000D0770910E0780910F07909110072FBF39
:1051000008952FB7F89480910D0790910E07A09104
:105110000F07B09110072FBF08951F920F920FB67F
:105120000F9211248F939F93AF93BF9380910C079D
:10513000811113C080910D0790910E07A0910F0768
:10514000B09110074196A11DB11D80930D0790935A
:105150000E07A0930F07B0931007BF91AF919F91D7
:105160008F910F900FBE0F901F90189590913F0157
:10517000992321F090910A0797FD03C0E0E0F5E044
:105180001DC0E82FE695E695E695EE31E0F4F0E0F7
:10519000E85FFA4F877021E030E0A90102C0440FB8
:1051A000551F8A95E2F7CA018095928189238283EF
:1051B0000895319655E0E630F50729F0928189137C
:1051C000F8CF1282F6CF089590913F019923D1F044
:1051D00090910A0797FF16C0E82FE695E695E695A9
:1051E000EE3140F5F0E0E85FFA4F877021E030E003
:1051F000A90102C0440F551F8A95E2F7CA019281A6
:10520000892B16C0A2E0B5E0EFEF90E02D91821758
:1052100089F0EF3F19F4211101C0E92F9F5F96300B
:10522000A9F7EF3F39F00E2E000CFF0BE050FB4FBB
:10523000828308950895A3E0B0E0E1E2F9E20C94DE
:105240001931209108073091090728173907A1F073
:105250009093090780930807E0910607F0910707EC
:10526000309751F024E029839B838A830084F18561
:10527000E02DCE01019609952396E2E00C9435319C
:10528000A3E0B0E0E6E4F9E20C94193120910407C0
:105290003091050728173907A1F0909305078093EF
:1052A0000407E0910607F0910707309751F023E0DB
:1052B00029839B838A830084F185E02DCE010196AA
:1052C00009952396E2E00C943531809102078823FA
:1052D00059F0E0910607F0910707309729F0019007
:1052E000F081E02D0995089580E00895FF920F93D5
:1052F0001F93CF93DF93C42FD22FF02EFC01858113
:105300008823B1F0409301070E9481289093000701
:105310008093FF0680E28C0F883008F06CC0C77065
:1053200081E001C0880FCA95EAF70E94A31663C006
:1053300080910107481353C08091FF0690910007A8
:105340000E946628883C910508F049C0CD1729F1D4
:1053500080E28C0F883040F4C77081E001C0880F74
:10536000CA95EAF70E949C1680E28D0F883048F4B7
:1053700081E09D2F977001C0880F9A95EAF70E94EF
:10538000A316F9E3FF1619F000E010E002C000E5F3
:1053900010E08F2D0E94CC1708C099E30913F4CFB9
:1053A00089E30E94CC1700E510E00115110549F0D2
:1053B0008FE99FE00197F1F700C00000015011094B
:1053C000F4CF8F2D0E94991780E28D0F883098F4CA
:1053D000D77081E001C0880FDA95EAF70AC080E251
:1053E0008C0F883040F4C77081E001C0880FCA95E7
:1053F000EAF70E949C16CDB7DEB7E5E00C94323197
:105400000E9481282091FB06211104C02091FC06F6
:10541000222321F09093F8068093F7062091FD0651
:10542000211104C02091FE06222321F09093F6065C
:105430008093F506E0910607F0910707309749F051
:1054400082E08093F9060680F781E02D89EF96E0EF
:10545000099508958091F40680FD16C081FD16C05F
:1054600082FD18C08091F306882391F0883290F471
:1054700028E0829FC001112468E270E00E947A3225
:10548000862F672B29F007C082E0089584E00895F5
:1054900081E0089588E008958091F40680FD14C0AD
:1054A00081FD14C082FD16C08091F206882381F030
:1054B0008E3180F420E5829FC00111246EE170E0FE
:1054C0000E947A32862F089584E1089588E2089533
:1054D00088E0089580E50895282F35EB2303C00167
:1054E000112497FF03C08058910902C080589F4F34
:1054F000892F0895CF93E82F2091FE043091FF0467
:10550000285F32404091F502642F70E0C9010E948B
:10551000F530481B842FEE2351F066E00E94603284
:10552000C82FC150A8F080E20E94411FFACFA90104
:10553000480F511D4115524018F080E020E030E046
:10554000280F311D28503D4F3093FF042093FE0457
:10555000CF910895AB0124E630E0BC0188E70E94BA
:105560009F2E21E0892B09F020E0822F0895809161
:10557000F1069091F006882389F0992369F062E0A2
:1055800070E08CED9BE00E94AA2A811103C08091FB
:10559000F00608951092F0069091F00681E08927B8
:1055A00008958091F1068823F9F00E947528DC01A6
:1055B000CB01805A9541AF4FBF4F8093EC0690933B
:1055C000ED06A093EE06B093EF068091F0068111F0
:1055D0000BC062E070E08AED9BE00E94AA2A88235B
:1055E00019F081E08093F0068091F0060895909183
:1055F000E40690FF05C096959695981748F003C06D
:10560000811106C090E0961718F40E94C02D0895ED
:1056100061E00E946B2D0895882311F0FA0101C00A
:10562000FB0109950895EEE2F5E011828281846024
:10563000828308956091E4066695669570E04BE07C
:1056400050E080E491E00E94DA32892B19F481E085
:1056500080932F050E946E1C909329058093280546
:1056600080913005846080933005089560914F01EA
:105670008091E40680FF0CC080914E0170E023E031
:10568000829FC00111248C5C9A4F0E947924089556
:105690008091500190915101891770F7E82FF0E047
:1056A0009F01220F331FE20FF31FEC5CFA4F1182B0
:1056B000108212828F5FF0CF9091E40690FF16C0A7
:1056C0009091500120915101921770F4E92FF0E070
:1056D000DF01AA0FBB1FEA0FFB1FEC5CFA4F8183AF
:1056E000608342839F5FF0CF0E94362B08958091A4
:1056F000E406282F2695269530E02115310519F46A
:105700008370846005C02B32310524F08370886A71
:105710008093E4068091E706893718F088E7809344
:10572000E7060895A0E0B0E0E8E9FBE20C940F3151
:1057300049015A016B017C010E94772B8401A4016D
:105740006A2D7B2D88E090E00E94DB3194014A2D88
:105750005B2DB601C70100E20E94BE32622F84E2D7
:1057600090E00E94C931CDB7DEB7ECE00C942B314C
:105770008091E806882319F081508093E8062091F3
:10578000E4063091E5064091E6065091E706609107
:10579000E8067091E9068091EA069091EB060E9476
:1057A000922B08958091E806833018F48F5F8093E0
:1057B000E8062091E4063091E5064091E606509116
:1057C000E7066091E8067091E9068091EA069091FB
:1057D000EB060E94922B0895A0E0B0E0E2EFFBE21E
:1057E0000C941131E82EF62EE901493708F048E70C
:1057F000E42FF0E0F11006C0E252F44FE4914E2F96
:105800002E2F71C00F2D10E0E252F44F4491F42F6F
:10581000C42ED12C26E0E29EC00111242FEF30E0EF
:10582000B9010E94F5305BEA5603C001579F900D05
:1058300011248E0D911D8E0D911D582F550F580F4F
:10584000D901A01BB10BAC9DC001AD9D900DBC9DBD
:10585000900D1124E92FF59ED0011124AB2FBB2709
:105860007901EA1AFB0AEC9CD001ED9CB00DFC9C7E
:10587000B00D11245901A51AB108A09E7001A19E76
:10588000F00CB09EF00C1124EF2CFF242E193F09D0
:105890002C9D80012D9D100D3C9D100D1124212F5C
:1058A0006230710591F048F461157105E1F06130E5
:1058B0007105B9F4242F4B2F16C06430710569F0BF
:1058C00040F06630710579F00CC0242F492FE12F8C
:1058D0000AC0492FEF2F2B2F06C0292FE42F412F6D
:1058E00002C0292FEB2F49832883EA83CDB7DEB787
:1058F000EAE00C942D31A3E0B0E0E1E8FCE20C9486
:105900001231082FE62EF42ED22E9091E40690FF4D
:105910007EC02091E506281308C08091E606861314
:1059200004C08091E706841729F0809130058260D9
:1059300080933005E92FE695E695AE2FB0E0A056AE
:10594000BE4F8C9180932E059C7F943071F49E0104
:105950002F5F3F4F4F2D6E2D802F0E94EC2B4B81E0
:1059600069818A810E945C2B3CC0823019F4F090DE
:10597000E70637C08630A1F1893091F1893189F588
:10598000E9518E2F8170C82EE695F0E0E252F34F78
:105990001491B12C60915201B616F8F4B19EC00179
:1059A000112470E00E94F530802FC11002C0860FD4
:1059B00001C0861B909150012B2D30E0290F311D25
:1059C000A901440F551F240F351F2C5C3A4F4F2D52
:1059D0006E2D0E94EC2BB394DDCF0E94362B01C0BC
:1059E000022F0093E506E092E606F092E706DD203E
:1059F00071F02091E4066091E8067091E906302F7D
:105A0000A7018091EA069091EB060E94922B2396C3
:105A1000E9E00C942E31E4EEF6E0438121E1421BF3
:105A200008F440E021E0628181810E947B2C08958E
:105A3000E4EEF6E0438121E1420F08F44FEF21E06C
:105A4000628181810E947B2C0895E4EEF6E0628100
:105A500021E1621B08F460E021E0438181810E9422
:105A60007B2C0895E4EEF6E0628121E1620F08F4F8
:105A70006FEF21E0438181810E947B2C0895E4EE49
:105A8000F6E0818121E0438162818A500E947B2C73
:105A90000895E4EEF6E0818121E043816281865F32
:105AA0000E947B2C0895A3E0B0E0E9E5FDE20C94B0
:105AB00019319091E40690FF0AC09E012F5F3F4F7D
:105AC0000E94EC2B4B8169818A810E945C2B23967A
:105AD000E2E00C9435319091E40690FF45C093705C
