:100000000C9457030C948F030C948F030C948F0360
:100010000C948F030C948F030C948F030C948F0318
:100020000C948F030C948F030C945B180C94721C2B
:100030000C94612E0C948F030C948F030C948F03FB
:100040000C948F030C948F030C948F030C948F03E8
:100050000C948F030C9434190C948F030C948F031D
:100060000C948F030C948F030C948F030C948F03C8
:100070000C948F030C948F030C948F030C948F03B8
:100080000C948F030C948F030C948F030C948F03A8
:100090000C948F030C948F030C948F030C948F0398
:1000A0000C948F030C948F030C948F032B0014007B
:1000B0001A000800150017001C0018000C001200A0
:1000C00013002A00E10004001600070009000A00DE
:1000D0000B000D000E000F0033003400E0001D0087
:1000E0001B00060019000500110010003600370043
:1000F0003800E50000002452E30021522C00217852
:10010000000028002252E200E600E40029003A0044
:100110003B003C003D00480049004A0052004D00B1
:100120004B002A00E1003E003F0040004100460035
:100130004C00500051004F004E003402E0004200DD
:1001400043004400450065000601190136023702EC
:100150003802E50000000100E30001002C002178D6
:10016000000028000100E2000000E40039001E0247
:100170001F0220142F020000300224002500260058
:1001800038002A00E10034143214250226022D0220
:10019000240221002200230030002D00E0002F1453
:1001A000301464006402270227001E001F00200094
:1001B0003700E50000000100E30001002C00217879
:1001C000000028000100E2000000E40035002E00DD
:1001D0001F14221421022F00AC00AE00AB00AA00B5
:1001E000A900A800E100350223021E1435142E02D6
:1001F000207823782578277829780000E00000000F
:1002000023143200220221142178247826782878B9
:100210002A78017C00000100E30001002C00217815
:10022000000028000100E200000000002900D600C4
:100230000000000000000000D900DB00CD00DC0061
:10024000D6000000E100D500D200D300D1000000AC
:10025000DA00CF00CE00D000D5000000E000D400CE
:10026000DF00DE00DD000000D700D100D300D200A7
:10027000D400000000000100E30001002C00217800
:10028000000028000100E200000000001E0F050031
:10029000047F3F1F643214643214783C1E1E140A1B
:1002A0000500010101010101010101020202020236
:1002B000020202020303030303030303040404040E
:1002C00004040405050505050606060606070707D6
:1002D000070708080808090909090A0A0A0B0B0B8D
:1002E0000C0C0C0D0D0D0E0E0E0F0F0F101011112A
:1002F00011121213131414151516161717181819AE
:10030000191A1A1B1B1C1D1D1E1E1F202021222214
:10031000232424252626272829292A2B2C2D2D2E57
:100320002F30313232333435363738393A3B3C3D71
:100330003E3F404142434445464748494A4C4D4E62
:100340004F50515354555658595A5B5D5E5F616228
:1003500064656668696B6C6D6F7072737577787AB7
:100360007B7D7E8082838587888A8C8E8F91939512
:1003700096989A9C9EA0A2A3A5A7A9ABADAFB1B336
:10038000B5B7BABCBEC0C2C4C6C9CBCDCFD1D4D616
:10039000D8DBDDDFE2E4E7E9EBEEF0F3F5F8FAFDB8
:1003A000FFFFAA7F55402223252628292A2C2D2FFE
:1003B0003032333536383A3B3D3E4042434547497B
:1003C0004A4C4E5051535557595A5C5E60626466B0
:1003D00068696B6D6F71737577797B7D7F818385BC
:1003E00087898A8C8E90929496989A9C9E9FA1A3BE
:1003F000A5A7A8AAACAEAFB1B3B4B6B8B9BBBCBEE2
:10040000BFC1C2C3C5C6C7C9CACBCCCDCED0D1D25D
:10041000D2D3D4D5D6D7D7D8D9D9DADADBDBDBDC5F
:10042000DCDCDCDCDDDDDDDDDCDCDCDCDCDBDBDB0B
:10043000DADAD9D9D8D7D7D6D5D4D3D2D2D1D0CE6B
:10044000CDCCCBCAC9C7C6C5C3C2C1BFBEBCBBB970
:10045000B8B6B4B3B1AFAEACAAA8A7A5A3A19F9EEE
:100460009C9A98969492908E8C8A89878583817FB6
:100470007D7B79777573716F6D6B69686664626097
:100480005E5C5A5957555351504E4C4A4947454363
:1004900042403E3D3B3A3836353332302F2D2C2A00
:1004A00029282625232200100020001101210012F6
:1004B000022200130323001404240015052500164E
:1004C0000626001707270018082800190929001A0E
:1004D0000A2A001B0B2B00403050004131510042D2
:1004E00032520043335300443454004535550046DE
:1004F0003656004737570048385800493959004A9E
:100500003A5A004B3B5B0070608000716181007261
:10051000628200736383007464840075658500766D
:100520006686007767870078688800796989007A2D
:100530006A8A007B6B8B00A090B000A191B100A2F1
:1005400092B200A393B300A494B400A595B500A7FC
:1005500097B700A898B800A999B900AA9ABA00ABB1
:100560009BBB05010902A10185020901A100050942
:100570001901290815002501950875018102050159
:10058000093009311581257F9502750881060938E2
:100590001581257F950175088106050C0A3802151D
:1005A00081257F950175088106C0C005010980A1DC
:1005B00001850319012AB700150126B700950175B9
:1005C000108100C0050C0901A101850419012AA0B0
:1005D00002150126A002950175108100C0050109D0
:1005E00006A101050719E029E71500250195087501
:1005F0000181029501750881010507190029FF1580
:100600000026FF00950675088100050819012905D7
:10061000150025019505750191029501750391015C
:10062000C009023B00020100A0FA09040000010316
:100630000101000921110100012244000705810385
:100640000800010904010001030000000921110153
:100650000001227B00070582032000011201000235
:1006600000000008504B3034020001020001220358
:1006700042004D0034003000200048006F0074003C
:1006800073007700610070002000520047004200B4
:10069000000016034B00500052006500700075000A
:1006A00062006C0069006300000004030904112467
:1006B0001FBECFEFDAE0DEBFCDBF04B603FE18C029
:1006C0008091A6059091A705A091A805B091A905D4
:1006D0008730904BA740B04B59F41092A60510926A
:1006E000A7051092A8051092A905E0E0F8E3099586
:1006F00025E0A2E6B2E001C01D92A63AB207E1F7FA
:1007000012E0A0E0B1E0EEE1FEE602C005900D923D
:10071000A236B107D9F70E94882E0C948C360C941F
:10072000000090919E05937061F081110BC0946060
:1007300090939E051092240180919D058160809385
:100740009D0508958D3210F0906BF2CF880F880FC1
:10075000982BEECF482F20916C059091330557E0F0
:10076000291302C080E0089530E0529FF001539FAA
:10077000F00D1124EC5CFA4F8181681306C0808172
:10078000481303C085818111EECF2F5F3F4F277043
:10079000E7CF90919E05937071F080939F056093D1
:1007A000A005473908F046E94093A10580919D05D1
:1007B000816080939D050895E8EDF0E080818E7F53
:1007C00080831092E2001092DA001092E100A0EE15
:1007D000B0E08C9181608C9380818F77808319BC8D
:1007E000A7EDB0E08C918E7F8C9380818F7E80838B
:1007F0001092080508952091E4003091E50095E6F7
:10080000A9012091EC00822F817020FF06C0809109
:10081000E80080FF06C080E008952091E80022FDF6
:100820001AC080911505882389F0853089F0809160
:10083000EB0085FD0FC02091E4003091E5004217E8
:100840005307F9F29150E1F684E0089582E00895AB
:1008500083E0089581E008958091170587FF13C014
:100860008091E80082FF06C08091E8008B7780933A
:10087000E80004C0809115058111F2CF08958091A0
:1008800015058823D9F38091E80080FFF8CF809187
:10089000E8008E77ECCF982F9093E900242F762FE5
:1008A00050E0891731F07091EC002091ED005091EB
:1008B000F00021FD07C09F5F973071F78093E9003A
:1008C00081E008953091EB003E7F3093EB00309152
:1008D000ED003D7F3093ED003091EB0031603093BF
:1008E000EB007093EC002093ED005093F00020910A
:1008F000EE0027FDE0CF80E00895B0E0A0E0E3E85F
:10090000F4E00C94A334C8EDD0E088818F7E888316
:10091000E7EDF0E080818160808384E082BF81E048
:100920008093080588818E7F888302EE10E0F801AD
:1009300010821092DA0081EEC82ED12CF6011082BE
:1009400088818F77888388818068888388818F7D7C
:10095000888319BC10921505109216051092140583
:100960001092130590EEE92EF12CF70180818B7F18
:10097000808388818160888342E060E080E00E941B
:100980004B04F60180818E7F8083F8018081816035
:100990008083808188608083F70180818E7F80835F
:1009A000888180618883CDB7DEB7E8E00C94BF34DE
:1009B000FC0180911D0590911E0586179707A0F0F8
:1009C0006115710529F49091E8009E779093E800F5
:1009D00090E06115710551F4911108C08091E80013
:1009E00082FF34C080E00895BC01F2CF80911505EC
:1009F0008823C1F18530C1F18091E80083FD30C0CA
:100A00008091E80082FDEACF8091E80080FFE1CF8D
:100A10008091F3002091F200382F6115710519F0D3
:100A20002830310558F091E02830310509F090E088
:100A30002091E8002E772093E800CBCF819180931E
:100A4000F100615071092F5F3F4FE7CF809115058D
:100A5000882341F0853041F08091E80083FFBECFCC
:100A600081E0089582E0089583E00895089508954F
:100A700080910A0508959C01FC0132969FEF80E069
:100A80004191461751F09F3F19F4411101C0982F31
:100A90008F5F8630A9F79F3F09F40895290F311D14
:100AA00097FD3A95F90162830895A3E0B0E0EBE584
:100AB000F5E00C94A9342091010530910205281726
:100AC0003907A1F09093020580930105E091FF049E
:100AD000F0910005309751F024E029839B838A83AD
:100AE0000084F185E02DCE01019609952396E2E080
:100AF0000C94C534A3E0B0E0E0E8F5E00C94A93430
:100B00002091FD043091FE0428173907A1F090933D
:100B1000FE048093FD04E091FF04F09100053097FE
:100B200051F023E029839B838A830084F185E02DA3
:100B3000CE01019609952396E2E00C94C534E0912C
:100B4000FF04F0910005309729F00190F081E02D2D
:100B50000995089580E008958091F20480FD16C003
:100B600081FD16C082FD16C08091F1048823A1F09A
:100B7000883280F428E0829FC001112468E270E08E
:100B80000E94EA34862F672B39F0089582E0089599
:100B900084E0089588E0089581E008958091F2044A
:100BA00080FD14C081FD14C082FD16C08091F00448
:100BB000882381F08E3180F420E5829FC0011124CA
:100BC0006EE170E00E94EA34862F089584E1089572
:100BD00088E2089588E0089580E50895282F35EB90
:100BE0002303C001112497FF04C080589109892F65
:100BF000089580589F4FFBCFFA01811101C0FB017E
:100C000009950895EEE9F5E0248130E1231B08F40D
:100C100020E0248380919D05816080939D05089547
:100C2000EEE9F5E0248130E1230F08F42FEF24836F
:100C300080919D05816080939D050895EEE9F5E022
:100C4000438120E1421B08F440E08181628190E011
:100C50000E94C9030895EEE9F5E0438120E1420FC7
:100C600008F44FEF8181628190E00E94C9030895EA
:100C7000EEE9F5E0628120E1621B08F460E0818129
:100C8000438190E00E94C9030895EEE9F5E0628196
:100C900020E1620F08F46FEF8181438190E00E94B0
:100CA000C9030895EEE9F5E08181438162818850AE
:100CB000990B0E94C9030895EEE9F5E0818190E067
:100CC0004381628108960E94C903089580919E0520
:100CD00086958695815009F48CE20E9491030895CF
:100CE00080919E05869586958F5F8D3208F081E014
:100CF0000E94910308959AE0899F802D1124980FF6
:100D0000903308F09FE20895EF92FF920F939701BE
:100D1000201B31092F3F310519F010F02FEF30E083
:100D20002095382F320F08F43FEF832F0F91FF905B
:100D3000EF900895EF92FF920F939701201B3109D6
:100D40002F3F310519F010F02FEF30E0322F3095A2
:100D5000482F430F08F44FEF842F620F0F91FF903D
:100D6000EF900895EF92FF920F93972F093438F484
:100D7000B701601B71096F3F710519F010F06FEF3B
:100D800070E0485F5F4F4131510540F0A901485F75
:100D90005F4F4131510510F06FEF70E06095482FC3
:100DA000460F08F44FEF842F37FF02C02D5F3F4FEF
:100DB000359527953595279560919F05620F792F79
:100DC0000F91FF90EF900895EF92FF920F931F9372
:100DD0000E0D1F2D111DF90137FF03C0F195E1958F
:100DE000F10924E0EE0FFF1F2A95E1F7EF3FF1052F
:100DF00019F014F0EFEFF0E09A0157FF03C03195BE
:100E00002195310994E0220F331F9A95E1F72E17AF
:100E10003F070CF4F901E00FF11FEF3FF10519F066
:100E200010F0EFEFF0E0E095282F3E2F230F08F4AD
:100E30002FEF822F1F910F91FF90EF900895EF9267
:100E4000FF920F93970195E0099F200D311D11240A
:100E50002F3F310519F010F02FEF30E02095382F9B
:100E6000320F08F43FEF832F0F91FF90EF9008951A
:100E700022E8241B08F420E0620F08954095282FF3
:100E8000429F412D1124842F0895E42FF0E0EE0FAE
:100E9000FF1FEC52FE4F9081921B97FD9195292FD9
:100EA00038E1239F212D1124620F08950F931F9382
:100EB00010E0F801EE0FFF1FEC52FE4F90819057AB
:100EC00097FD9195000F111FF801EC55FE4F01A9F8
:100ED0000052110B2003F001219FF00D112408E3B3
:100EE00010E0091B110997FD139540039001419FE4
:100EF000300D1124E20FF31F9F01220F331F2E0F1D
:100F00003F1F37FF02C021583F4F220F232F221FC0
:100F1000330B620F1F910F9108950F931F93522F60
:100F200010E0F801EE0FFF1FEC55FE4FA1A9A052F3
:100F3000BB0B9D015203F001539FF00D1124000FD4
:100F4000111FD801AC52BE4F0C910057110B40033A
:100F50009001419F300D11242E0F3F1F37FF02C01B
:100F6000215C3F4F96E0359527959A95E1F7620F02
:100F70001F910F9108950F931F93522F10E0F801C6
:100F8000EE0FFF1FEC55FE4FA1A9A052BB0B9D0118
:100F90005203F001539FF00D1124000F111FD801CF
:100FA000AC52BE4F0C910057110B40039001419F72
:100FB000300D11242E0F3F1F37FF02C021583F4F25
:100FC000220F232F221F330B620F1F910F910895C1
:100FD000EF920F93972F23E0029FB0011124759594
:100FE00067956E0D792F0F91EF900895322F50E095
:100FF000FA01EE0FFF1FEC55FE4F91A9905297FD9D
:101000009195440F551FFA01EC52FE4F2081231B8E
:10101000330B290F311D97FD3A95620F0895E42F88
:10102000F0E0EE0FFF1FEC55FE4F61A9621B089523
:10103000E42FF0E0EE0FFF1FEC52FE4F6081621BC9
:101040000895622F0895E42FF0E0EE0FFF1FEC5299
:10105000FE4F408134EE439F412D1124E82FF0E0F4
:1010600050E0445E5F4FDA01A21BB1099D01B7FF5A
:1010700003C031952195310993E0220F331F9A95D2
:10108000E1F7AF01421B530B9A0157FD20E0582FA7
:10109000259F212D1124822F0895E42FF0E0EE0FDB
:1010A000FF1FEC52FE4F408134EE439F412D11242F
:1010B000E72FF0E050E0445E5F4FDA01A21BB10978
:1010C0009D01B7FF03C031952195310993E0220FAF
:1010D000331F9A95E1F7AF01421B530B9A0157FD5D
:1010E00020E0279F212D1124722F08950E94CC14F7
:1010F00008950E9475140895FC019B01009729F43E
:1011000080E077FF2BC080E80895AC0197FF04C012
:1011100044275527481B590BB901640F751F37FD2C
:1011200010C0241B350BC901A5E0880F991FAA9593
:10113000E1F70E94EA3480E2861BF7FF0FC0819539
:101140000895CB0165E0880F991F6A95E1F7BA0110
:10115000621B730B0E94EA3480E6EECF0895EF9293
:101160000F93CF93DF93D72FC82FC9010E19BA0160
:101170000E947C08602F681B7D2F8C2FDF91CF9100
:101180000F91EF9008950F93CF93DF93D72FC82F30
:10119000C901BA010E947C08682F600F7D2F8C2F37
:1011A000DF91CF910F910895EF920F931F93CF93FB
:1011B000DF93D62FC72F182FC9010E19010FBA01BF
:1011C0000E947C08081B202F219F212D1124822F93
:1011D0006D2F7C2FDF91CF911F910F91EF9008958C
:1011E000EF920F931F93CF93DF93D62F172FC82F14
:1011F000C9010E19070FBA010E947C08702F781BD5
:10120000719F712D11246D2F8C2FDF91CF911F9124
:101210000F91EF9008950F931F93CF93DF93D62FE5
:10122000C72F182FC901212F201B022FBA010E949E
:101230007C08982F990F990F891B800F282F219FC9
:10124000212D1124822F6D2F7C2FDF91CF911F91A3
:101250000F9108950F931F93CF93DF93D62F172FDE
:10126000C82FC901272F201B022FBA010E947C081A
:10127000982F990F990F782F791B700F719F712DEF
:1012800011246D2F8C2FDF91CF911F910F91089515
:10129000E82F86FDE0952E2F2F7086FD2F5FE695B7
:1012A000E695E695E670F0E0E456FE4F9181929F58
:1012B000902D212D112492959F702295207F922BA5
:1012C0002081920F87FD919580E8890F08950F93F3
:1012D0001F93CF93DF938B01D82FC42F822F0E94AF
:1012E0004809EC2FF0E0EE0FFF1FEC52FE4F90810B
:1012F0009058890F87FD8195880F682F2CE0629F99
:10130000612D1124600F712F8D2FDF91CF911F91CF
:101310000F91089540911C0150911D0125E038E086
:10132000429FC001439F900D529F900D1124875EF4
:10133000994C90931D0180931C01890F0895AC0175
:101340008230910508F408959FEF413E8EE15807E1
:1013500040F49A0195E0369527959A95E1F798E043
:10136000920F61E0E62FE90FFF27FF1F9F013595E0
:101370002795822F229FF001239FF00DF00D11245D
:101380004E175F0738F49FEF920F961758F78FEFBD
:10139000860F08952F3FE9F361E0620FF6CF0F93B8
:1013A000CF93DF93D72FC82F47FD419588E390E077
:1013B000841B910947FD9395889FB001899F700D0B
:1013C000700D1124229FC001239F900D900D1124B8
:1013D000860F971F0E949F09982F990F890F682FDA
:1013E000600F7D2F8C2FDF91CF910F91089530E00A
:1013F00020E0869F212D969F200D311D1124C901CB
:1014000008952091A20530E1230F08F42FEF60E149
:10141000822F90E00E94F709BC0188EB9BE00E94BC
:10142000853490E080E008958091E804982F9C7FB7
:1014300061F4837084608093E8048091EB048739C1
:1014400018F086E98093EB0408958C3AB0F383702A
:10145000886AF1CFAF92BF92CF92DF92FF920F9343
:101460001F93CF93DF93362F472FE82FF0E0EF55F0
:10147000FD4F71110FC0E4918E2F2E2F6E2F722F02
:10148000DF91CF911F910F91FF90DF90CF90BF9090
:10149000AF900895C72FD0E02491F22E022F10E0D4
:1014A00056E0659FC0011124EFEFF0E0BF010E94FC
:1014B0008534832F90E0880F991F35E5369FD00142
:1014C000379FB00D11248A1B9B0B982F990F980FF3
:1014D0006F01CC1ADD0AC09ED001C19EB00DD09E16
:1014E000B00D11248B2F499FA0011124452F5527A2
:1014F0006F01C41AD50AC09EA001C19E500DD09E96
:10150000500D11245F01A91AB108AC9E6001AD9E77
:10151000D00CBC9ED00C1124CD2CDD24EC19FD097F
:10152000E09FE001E19FD00DF09FD00D1124ED2F41
:1015300062307105A1F050F46115710509F49ECF78
:101540006130710581F0EB2F852F98CF64307105E4
:1015500069F080F06630710509F490CFF4CFE22F86
:101560002B2F8D2F8BCFE22F252F88CFEB2F822F84
:101570002D2F84CF2B2F8F2DE52F80CFB0E0A0E033
:10158000E4ECFAE00C94A4348C01FC01EE5CFD4F19
:101590008081682349F1D090A005D091A105C09128
:1015A0009F05EC2EF12C0E948A09282FC7018C542C
:1015B0009F4F68E671E00E94EA348E199F0997FDFB
:1015C0000396959587959595879523706C2F289F01
:1015D000600D11247D2D8D2F0E942A0A462F282F61
:1015E000672FC8010E947908CDB7DEB7E7E00C94F9
:1015F000C0342F923F925F926F927F928F929F9210
:10160000AF92BF92CF92DF92EF92FF920F931F9310
:10161000CF93DF93CDB7DEB729970FB6F894DEBF2F
:101620000FBECDBF89837D836C83809121010E9491
:101630007B069A83209171052B83E82FF0E0F987D0
:10164000E887CF01880F991F9C012C553E4F6901F7
:101650003981832F90E0FC013196FF83EE838A81EC
:1016600098859817E8F081E0EA81EF3208F080E091
:1016700029960FB6F894DEBF0FBECDBFDF91CF9194
:101680001F910F91FF90EF90DF90CF90BF90AF90A0
:101690009F908F907F906F905F903F902F900895D4
:1016A000E885F985EE5CFD4F8081909122018923C8
:1016B000F1F020909F053090A0052E813F812F589A
:1016C0003A4F3901598010E0FB815F16D0F020912C
:1016D000A105129F112D1124B101812F0E942A0A08
:1016E000462F282F672F888599850E94790828859D
:1016F00039852F5F3F4F3987288732E0C30ED11CD1
:10170000AECFF30181913F01F601A0A8A81ABB0852
:1017100081A8F3018781881A9908AA9C9001AB9C43
:10172000300D300D1124889CC001899C900D900DC6
:101730001124820F931F0E949F09082F6091A20518
:1017400021E0620F08F46FEFF301EE0FFF1FE15786
:10175000F540858996890E94F7097C019401A501CD
:10176000B101812FEC81FD8109951B015394182F44
:10177000ABCFB0E0A0E0EFEBFBE00C94A4348C0125
:10178000809121010E947B06C82FD92E2091A205AD
:1017900031E0230F08F42FEF30E050E040E06FEF2E
:1017A0007FEF80E090E00E9429367901D0E02C2F75
:1017B000CD1550F081E0FEE2FD1508F480E0CDB7D4
:1017C000DEB7E7E00C94C034FE01EE5CFD4F808193
:1017D00090912201892311F1409171054150042E0D
:1017E000000C550B47FF1CC0C7016091A20521E00A
:1017F000620F08F46FEF0E94F709AC0160919F053A
:101800007091A0058091A105F80109950E942A0A0E
:10181000462F282F672FCE010E9479082196C7CF27
:10182000FA01EF58FA4F818982130AC0FA01EE0FCC
:10183000FF1FEF58FA4F818D928D8E159F05A8F2EC
:1018400041505109CFCFEF92FF920F931F93CF9347
:10185000DF937C01809121010E947B06C82F192F04
:101860006091A2056695669521E0620F08F46FEF1E
:1018700080916D0590916E050E94F709082FD0E0C8
:10188000C11748F081E01F3208F080E0CDB7DEB725
:10189000E6E00C94C134FE01EE5CFD4F8081909136
:1018A0002201892391F060919F057091A00580919C
:1018B000A105202F4C2FF70109950E942A0A462FD7
:1018C000282F672FCE010E9479082196D9CFB0E04A
:1018D000A0E0EDE6FCE00C94A1346C0180912101C4
:1018E0000E947B06C82FF92E6091A2056695669529
:1018F00080916D0590916E050E94F709182F80E484
:10190000810F0E94480990E8B92EB80E812F0E94DD
:10191000480920E8A22EA80ED0E0CF1550F081E0B3
:101920009EE29F1508F480E0CDB7DEB7EAE00C94A4
:10193000BD34FE01EE5CFD4F808190912201892330
:10194000A1F060919F057091A0058091A105E12E05
:101950000C2F2A2D4B2DF60109950E942A0A462F9D
:10196000282F672FCE010E9479082196D6CFB0E0AC
:10197000A0E0EDEBFCE00C949D343C018091210152
:101980000E947B06C82F192F6091A2056695809151
:101990006D0590916E050E94F709F82ED0E0CE01FA
:1019A000880F991F9C012C553E4F6901C11748F0C3
:1019B00081E01F3208F080E0CDB7DEB7EEE00C9496
:1019C000B934FE01EE5CFD4F8081909122018923A4
:1019D00079F1F60180A9282F2057330B590181A9ED
:1019E000E82FE052FF0B4F01AA9C9001AB9C300DF9
:1019F000300D1124EE9FC001EF9F900D900D11242A
:101A0000820F931F0E949F09082F60919F0570917C
:101A1000A0058091A105EF2C9401A501F301099582
:101A20000E942A0A462F282F672FCE010E9479088C
:101A3000F2E0CF0ED11C2196B9CFB0E0A0E0E3E2F6
:101A4000FDE00C94A2346C01809121010E947B0680
:101A5000C82F192F6091A205669580916D05909110
:101A60006E050E94F709B82ED0E0CE01880F991FAD
:101A70009C012C553E4F7901C11748F081E01F327F
:101A800008F080E0CDB7DEB7E9E00C94BE34FE018B
:101A9000EE5CFD4F8081909122018923C1F0F70116
:101AA00021A92052330B40A94057550B60919F0547
:101AB0007091A0058091A1050B2DF60109950E945A
:101AC0002A0A462F282F672FCE010E947908F2E0BC
:101AD000EF0EF11C2196D0CF1F93CF93DF93EC0133
:101AE000FC01EE5CFD4F80816823B1F00E948A0901
:101AF000182F0E948A0920E8829FC00111247FE7E5
:101B0000790F612F8091A1050E942A0A462F282F64
:101B1000672FCE010E947908DF91CF911F91089520
:101B2000CF93DF93762FE901473908F046E9682F14
:101B3000842F0E942A0A798368838A83DF91CF9158
:101B4000089580E00895F894E82FE295EF70F0E0B2
:101B500031A1282F2F7081E090E001C0880F2A95D5
:101B6000EAF7982F9095932391A392A1892B82A3B2
:101B7000789408959091AA0292FF10C041E0282F16
:101B80002471243009F040E031E0282F28712830FA
:101B900009F030E0431711F02CE0822793FF10C0CA
:101BA00041E0282F2471243109F040E031E0282F52
:101BB0002871283109F030E0431711F02CE082271A
:101BC0003091AB0230FF10C051E0282F217121303D
:101BD00009F050E041E0282F2871283009F040E05A
:101BE000541711F029E0822731FF10C041E0282F5F
:101BF0002171213109F040E031E0282F287128318E
:101C000009F030E0431711F029E0822794FD877E28
:101C1000089582389105B9F1B0F48133910509F442
:101C20007DC048F48932910509F46DC08A3291056E
:101C300009F47BC008958533910509F45FC08933A9
:101C4000910509F10895833E9105D9F138F4803E5C
:101C5000910529F1823E910579F10895863E91051D
:101C6000D9F1873E910509F43EC0843E910541F5C6
:101C70002091AB0221FF24C08091AA0284FD19C0EB
:101C800087EE90E008952091AA02237009F05AC0CF
:101C90002091AB0223FF14C089E290E008952091C7
:101CA000AA0220FD38C03091AB0230FF09C024FFEA
:101CB00043C090E080E008952091AA0222FDF7CF72
:101CC00008952091AA0222FD3AC03091AB0230FD66
:101CD00039C024FFF5CFEDCF2091AA0223FFF0CF2A
:101CE00024FDE7CFCDCF2091AA0223FD2EC0309155
:101CF000AB0231FFEECF84EE90E008952091AA026E
:101D000025FFDECFC9CF2091AA0225FD21C0209159
:101D1000AB0223FFD5CF89E390E0D2CF2091AA0276
:101D200026FFCECF8AE290E008952091AA0226FFF6
:101D3000C7CF81E390E0089583EE90E0089582EEAE
:101D400090E0089580EE90E0089586EE90E008958A
:101D500085E390E00895972F7430B8F46C30A8F4C0
:101D60008530B0F470E02CE0929F600D711D11245D
:101D7000FB0190E3899FE00DF11D1124EE0FFF1F81
:101D8000E455FF4F85919491089580E090E0089587
:101D900081E0FCCF1F93CF93DF930E94090EEC01EB
:101DA000C11580E5D807F0F5C11580E4D80708F023
:101DB0009CC0C03ED10520F5CD3CD10508F082C0C5
:101DC000C83AD10578F4C53AD10508F073C0C130DE
:101DD000D10519F1209709F1C430D105F0F4D0E014
:101DE000C0E01BC0C33CD105D0F7C85AD0E0CC0F2F
:101DF000DD1FC55DDE4F0990D881C02DD4640DC0B4
:101E0000C11580E2D80708F0D1C0C11581E0D8071C
:101E100008F05AC0C83ED10510F7CE01DF91CF912E
:101E20001F910895C03682E5D80718F5C03482E5C1
:101E3000D80708F06BC0C03282E5D80708F05FC051
:101E4000C11582E5D80708F497C02C2F2695269552
:101E500080E2289F900111248C2F8370C1E0D0E094
:101E600002C0CC0FDD1F8A95E2F7C22BD32BDD68B1
:101E7000D4CFC03A82E5D80760F4C03882E5D807ED
:101E800008F459C0CF71D0E0DC2FCC27C46FD06AE2
:101E9000C4CFC03C82E5D80708F462C0C03E82E5EA
:101EA000D80708F09CCFDC2FCC27CC27DF71C06F80
:101EB000D06AB3CFC55AD0E0C85DDE4FC881D0E04C
:101EC000D064ABCFD065A9CF8D2F0E94BA0D182F4B
:101ED000CE0199270E94090EC12FD0E0DC2FCC271C
:101EE000CC27DF71C82BD92B98CFCE0199270E9420
:101EF000090ECC27DF70C82BD92BD06A8ECFCF71BB
:101F0000D0E0DC2FCC27C16FD06A87CF2C2F26954D
:101F10002695277080E2289F900111248C2F8370D2
:101F2000C1E0D0E002C0CC0FDD1F8A95E2F7C22BE2
:101F3000D32BDC6872CF2C2F26952695277080E254
:101F4000289F900111248C2F8370C1E0D0E002C043
:101F5000CC0FDD1F8A95E2F7C22BD32BDA685DCF59
:101F60008C2F8F710E94BA0DC82FD0E0DC2FCC27A8
:101F7000CC27DF71D06251CF8C2F8F710E94BA0DA8
:101F800055E0D695C7955A95E1F7CF70D0E0DC2F94
:101F9000CC27282F30E084FF05C044E0220F331FF8
:101FA0004A95E1F7C22BD32BD06937CF8D2F8F7194
:101FB0000E94BA0D182FCE0199270E94090EC12F39
:101FC000D0E0DC2FCC27CC27DF71C82BD92BD2CF88
:101FD000809590919802982390939802089580910B
:101FE0006C0590913305981301C008958F5F877039
:101FF000FACFB0E0A0E0EFEFFFE00C94A2347C0158
:102000000091A8021091A9028091990290919A02E0
:10201000082B192BCFE0D0E0CC24C394D12CBC2EBC
:10202000C6010C2E02C0880F991F0A94E2F7802384
:102030009123892B49F4219790F7B12C8B2DCDB7A3
:10204000DEB7E9E00C94BE34B7018C2F0E94AB0ED2
:102050000E94CA0E019779F3F1CFCF93DF93EC0181
:102060000E94F90FBE010E94AB0E0E94CA0EDF91C2
:10207000CF910895943078F58C3068F5E82FF0E032
:102080008CE0989FE00DF11D11249E2F977083E046
:10209000F695E7958A95E1F7EE0FFF1FEE0FFF1F0C
:1020A000E259FD4F50E040E080E0219130E0092E00
:1020B00002C0369527950A94E2F721703327042E43
:1020C00001C0220F0A94EAF7822B4F5F5F4F443022
:1020D000510559F7089580E00895943098F58C30B3
:1020E00088F5E82FF0E08CE0989FE00DF11D1124B9
:1020F0008E2F877041E001C0440F8A95EAF783E094
:10210000F695E7958A95E1F7EE0FFF1FEE0FFF1F9B
:10211000E259FD4F30E020E070E05191DF0111976E
:10212000CB01022E02C0969587950A94E2F7817042
:1021300081958527842385278C932F5F3F4F2430FB
:10214000310559F708959C01267033272630310553
:1021500031F488609093A9028093A8020895877F44
:10216000F9CFE091A802F091A90221E030E0D90175
:1021700002C0AA0FBB1F8A95E2F7CD01D90102C0A8
:10218000AA0FBB1F6A95E2F7BD018A2B972B02C0ED
:10219000220F331F4A95E2F7AF01482359238417D2
:1021A000950731F42E2B3F2BC9010E94A3100895EF
:1021B000209530952E233F23F7CF21E030E002C059
:1021C000220F331F8A95E2F7209530958091A8025F
:1021D0009091A902822393230E94A31008959091C5
:1021E0008D028095892380938D02282F277069F4B2
:1021F000891759F09091AB0292FF07C0869586959A
:1022000086950E94DD1010928D02089521E030E045
:1022100002C0220F331F8A95E2F78091A8029091A5
:10222000A902822B932B0E94A310089590939A02E7
:10223000809399020895FC0124812223C1F08081BA
:1022400091810E942D1092959F70963091F058F4D4
:10225000925F9F70923058F4803F19F030F4883EBE
:1022600030F481E008959A5FF4CF843FD1F380E0A9
:102270000895883EB0F3813FD1F7F3CFA6E0B0E0F8
:10228000E4E4F1E10C94A83449835A8349815A81EA
:102290009923A1F0222391F0CA010E94F90F182F6F
:1022A000682F89819A810E946D1069817A81812FBE
:1022B0000E94AB0E2696E3E00C94C434CA010E943F
:1022C0003A10182FF2CF0F931F93CF93DF938B0108
:1022D000EA0190911505943061F58093E9008FEF44
:1022E0009091E800815095FD06C095ED9A95F1F723
:1022F00000008111F5CF8091E80085FF1AC00E948F
:10230000FB03811111C08091E80085FD06C080911A
:10231000E8008E778093E800F2CFF80181918F0179
:102320008093F100219779F78091E8008E77809370
:10233000E800DF91CF911F910F91089543E050E0A5
:10234000BC0182E00E946311089546E050E0BC01A8
:1023500082E00E9463110895CF93DF93EC0148E07F
:1023600050E0BC0181E00E94631188E0FE01ABE017
:10237000B5E001900D928A95E1F7DF91CF91089534
:1023800081E08093E00080E28093D8001092C90041
:102390008FE19EE40197F1F700C0000087E090EB29
:1023A000DC018093A6059093A705A093A805B093A0
:1023B000A90588E19CE00FB6F894A8958093600089
:1023C0000FBE90936000FFCF8091E80480FD0AC0AB
:1023D000EAECF2E0118210821282339652E0EC3D78
:1023E000F507C1F7209A35B13E7F25B121604FB77F
:1023F000F8948AEC92E0FC015191CF0168E025B994
:10240000000000C057FF35B9550F000000C000C0E4
:1024100000C035B900C06A9591F7F2E08C3D9F0786
:1024200051F74FBF8FE594E00197F1F700C000002E
:102430000895EF92FF920F931F93CF93DF938C0138
:10244000CAECD2E0F12CE12CF80194816091EA040D
:102450008091E904F3E0EF16F104ECF49923E9F03C
:102460009E014091EB040E94900D2FEFE21AF20AB8
:10247000239686E0E816F10439F70E94E411F8018A
:10248000848190E00196817099278483CDB7DEB76F
:10249000E6E00C94C134992319F39E0140E0E3CFA8
:1024A000B0E0A0E0E6E5F2E10C949F34EC014C8151
:1024B000042F10E09801D8010E947D369B01AC01E9
:1024C0000E9448364B015C01E0E2F0E0E01BF10BBA
:1024D000A5E5B0E0AC019B010E9448366B017C0190
:1024E0009F01DF010E9404359B01AC010E9453361D
:1024F0009B01AC01280D391D4A1D5B1DC701B601AA
:102500000E945B36F22E822F90E039E23F1598F15F
:1025100043E0249F9001112435952795122F1095A3
:102520009AECC92E92E0D92E00E085E5E82EEF184E
:102530008E2D01FD8F2D9601412F6091EA040E949E
:10254000900D0F5F53E0C50ED11C063089F70E9435
:10255000E4119C8181E0992319F0903219F48FEFF6
:1025600080931B0180911B01890F8C83CDB7DEB74F
:10257000ECE00C94BB3425E530E0A901481B590B75
:10258000CA019A01220F331F280F391F37FFC4CF0A
:102590002F5F3F4FC1CF0F931F93CF93DF93CAECB1
:1025A000D2E0FE01118210821282339682E0EC3D6D
:1025B000F807C1F710E000E08091C802082E000C77
:1025C000990B081719078CF180911A01082E000C3D
:1025D000990B801791074CF19E014091EB0460919B
:1025E000EA048091E9040E94900D0F5F1F4F23962B
:1025F0000630110509F70E94E411809119019091AC
:10260000C802980F9093C80220911A01280F2093B6
:102610001A01121614F495301CF08195809319015B
:10262000DF91CF911F910F910895198218821A821C
:10263000DCCFB0E0A0E0EFE1F3E10C94A234FC01C8
:102640008281DD24DA9480FD02C0DD24D3940AEC7B
:1026500012E0D0E0C0E026E0B22EF8011182108234
:10266000128294E0E92EF12CC12C8091C7028C0DCE
:102670008730C4F16B2D0E94DC34892F082E000CAA
:10268000990B8C179D0791F48091EB048E9DA0010E
:102690008F9D500D11245595479555954795980157
:1026A0006091EA048091E9040E94900DCD0CF1E064
:1026B000EF1AF108D1F621960D5F1F4FC630D105F4
:1026C00061F60E94E4118091C70291E0D91210C016
:1026D00081110CC085E08093C702CDB7DEB7E9E079
:1026E0000C94BE3487FFCACF8A5FC8CF8150F3CF26
:1026F00090E00196BE010E94EA34EDCFEF92FF9286
:102700001F93CF93DF93EC018AECE82E82E0F82E42
:1027100010E08C8197014091EB046091EA04810FF5
:102720000E94900D165D83E0E80EF11C1C3F89F7B6
:102730000E94E4119A818C8190FF08C08F5F8C8386
:10274000DF91CF911F91FF90EF9008958150F7CFC7
:102750009091E80490FF0CC0EAECF2E08183608382
:102760004283339692E0EC3DF907C1F70E94E411F1
:102770000895A3E0B0E0EFEBF3E10C94A7348C01F3
:102780008091C90281110AC09E012F5F3F4F46E927
:102790006FEF0E94900D8A818093C902F8016481D5
:1027A000613069F08091C90240E0662361F040E049
:1027B000623011F44091C90280E060E004C0609191
:1027C000C90240E080E00E94A813F801848190E0F3
:1027D000019663E070E00E94EA3484832396E4E08B
:1027E0000C94C334A3E0B0E0E8EFF3E10C94A93417
:1027F0009091E80490FF0AC09E012F5F3F4F0E9416
:10280000900D4B8169818A810E94A8132396E2E092
:102810000C94C534CF93DF93EC01E8EEF4E04381F0
:1028200062818C810E94F2138C818F5F8C83DF9197
:10283000CF910895CF93DF93EC01EC81F0E0EA555E
:10284000FC4F4491E8EEF4E0628181810E94F21332
:102850008C818F5F8C83DF91CF91089580931F05CA
:102860006093200524E630E042E050E06FE175E03F
:1028700080EA0E94643421E0892B09F020E0822F55
:102880000895CF93DF938091E704882339F165ECB5
:102890008EEF0E942E1461E08DEF0E942E14D0E086
:1028A000C0E0C0931F0580E1FE01E95DFB4FA0E29F
:1028B000B5E001900D928A95E1F724E630E041E120
:1028C00050E06FE175E080EA0E946434892B49F49E
:1028D0006096C03CD10529F71092E704DF91CF91B3
:1028E000089581E080932604F7CFA4E0B0E0EBE701
:1028F000F4E10C94A634F62E042F122F8F3291059A
:1029000008F046C0880F991F880F991FBC016A55AF
:102910007B4F44E050E0CE0101960E94A5358981AD
:1029200083702A8130E0482F50E060EC869FC00120
:102930001124895D9B4FFC01E20FF31F7081EB8135
:102940006C817F110CC0DC01AE0FB11D7C91701346
:1029500006C0860F911DDC018C918117C9F070ECC7
:10296000749FC001759F900D1124895D9B4F280FA6
:10297000391FD901FC92E80FF92FF11D0083860F52
:10298000911DFC01108349515B4F81E0DA018C936A
:102990002496E5E00C94C234FF920F931F93CF93DB
:1029A000DF93182F062FF42ED0E0C0E02F2D402FFC
:1029B000612FCE010E9475142196CF32D105B1F757
:1029C000CDB7DEB7E5E00C94C234A4E0B0E0EBEEA6
:1029D000F4E10C94A3340E94C43365EC8EEF0E94A2
:1029E0002E1460E08DEF0E942E1410E060E0812F25
:1029F0000E942E141F5F1831C9F765EC8EEF0E94FC
:102A00002E1461E08DEF0E942E1410E060E0812F03
:102A10000E942E141F5F103CC9F765EC8EEF0E94D8
:102A20002E1463E08DEF0E942E1460E08FE00E9470
:102A30002E1460E080E10E942E146FEF81E00E946E
:102A40002E1461E080E00E942E148FE39CE9019730
:102A5000F1F700C0000006EA14E098E1C92EEE2468
:102A6000E394F12CDD24D39444E050E0B801CE018E
:102A700001960E94A5356A815B814C8189818370B2
:102A800090E0E62FE695E695E695C89E9001C99EF2
:102A9000300D1124225F3B4FE20FF32FF11D6770C1
:102AA000D70101C0AA0F6A95EAF760816A2B60839B
:102AB000E52FE695E695E695E20FF32FF11D5770A9
:102AC000B70101C0660F5A95EAF75081562B508323
:102AD000E42FE695E695E695E20FF32FF11D47709A
:102AE000970102C0220F331F4A95E2F7A901208106
:102AF000242B20838A5D9B4FFC01D0820C5F1F4FEB
:102B0000F5E002361F0709F0AFCF65EC8EEF0E94AB
:102B10002E1460E08DEF0E942E148EE0E82E84E0EB
:102B2000F82E10E0F70161917F01812F0E942E1491
:102B30001F5F1831B9F7109226042496E8E00C9430
:102B4000BF34EEE9F5E085E3808380912501909123
:102B50002601A091270181839283A3838FE7848339
:102B60008FEF858348E050E068E170E0CF010E947C
:102B7000F53510929D050895B0E0A0E0E2ECF5E196
:102B80000C949B34FC016280448081E08483E6EAFB
:102B9000F3E07490E5E2F4E0E4910091EB04069533
:102BA000015810E0000F111F012F1127CCEDD2E0CA
:102BB0002AECC22E22E0D22E3AEF832E32E0932E60
:102BC000AA24AA94B12C55245A94E719EE2EF12C7C
:102BD00082E0861530F08091E90488838091EA04D0
:102BE0008983411016C01B821A8296014A8169812D
:102BF00088810E94900D259683E0C80ED11C8C160A
:102C00009D0631F70E94E411CDB7DEB7E0E10C94E8
:102C1000B7348B818823E9F081508B83859DC00177
:102C200011246C8170E00E948534FB01FF27EA5576
:102C3000FC4F8491E82FE719E59DC0011124B701ED
:102C40000E9485348091EB04689FB00111247A833F
:102C5000CCCF0E949535B5010E94EA3480179107C8
:102C600024F682E0861588F40E949535B5010E940D
:102C7000EA3488830E9495352091EA042695622FD4
:102C800070E00E94EA34280F29831A828091EB04B5
:102C9000893C20F088EC8C838B83A7CF8431D8F7D4
:102CA00084E1F9CFB0E0A0E0E8E5F6E10C949F34D0
:102CB00049015A016B017C010E94140A8401A4019C
:102CC0006A2D7B2D88E090E00E94173694014A2DF2
:102CD0005B2DB601C70100E20E942E35622F84E20F
:102CE00090E00E940536CDB7DEB7ECE00C94BB3423
:102CF000A3E0B0E0EEE7F6E10C949C34F82E762EDB
:102D0000E42E622E9091E80490FF2FC0E92FE69503
:102D1000E695AE2FB0E0AF58BE4F8C918093C502C0
:102D20009C7F943031F59E012F5F3F4F8F2D0E9485
:102D3000900D4B8169818A810E94A813F092E90469
:102D40007092EA04E092EB04662079F02091E804A6
:102D50006091EC047091ED043F2D472D5E2D809124
:102D6000EE049091EF040E9452162396EFE00C942B
:102D7000B834823019F4E090EB04E0CF863019F4D7
:102D8000F090E904DBCF8930D9F38931B9F6E95104
:102D90008E2F8170582EE695F0E0EF55FC4FE491B0
:102DA0000E2F10E08AECC82E82E0D82EB12CA12C78
:102DB00096E0892E912CC501B4010E9485348F2D97
:102DC000511013C0860F96014E2D672D0E94900D55
:102DD000A00EB11E83E0C80ED11C8CEDC81682E097
:102DE000D80649F70E94E411A9CF861BECCFE8EE84
:102DF000F4E0438121E1421B08F440E021E06281DC
:102E000081810E9478160895E8EEF4E0438121E183
:102E1000420F08F44FEF21E0628181810E94781611
:102E20000895E8EEF4E0628121E1621B08F460E0BD
:102E300021E0438181810E9478160895E8EEF4E054
:102E4000628121E1620F08F46FEF21E0438181810B
:102E50000E9478160895E8EEF4E0818121E0438134
:102E600062818A500E9478160895E8EEF4E081812C
:102E700021E043816281865F0E94781608958091E7
:102E8000EC04882319F081508093EC042091E8042D
:102E90003091E9044091EA045091EB046091EC0414
:102EA0007091ED048091EE049091EF040E9452160F
:102EB00008958091EC04833018F48F5F8093EC04C4
:102EC0002091E8043091E9044091EA045091EB0428
:102ED0006091EC047091ED048091EE049091EF0408
:102EE0000E9452160895E8EEF4E085E08083118296
:102EF0008FEF828386E983831482758125E030E039
:102F00004FEF56E960E0868197810E94521608953E
:102F1000A8E0B0E0EEE8F7E10C94A93466EE7EEFAD
:102F200090E080E00E94233660E082E090E00E9422
:102F3000053681E090E090939A028093990261E0D7
:102F400083E090E00E94053660E074E184E090E068
:102F50000E94233660E086E090E00E9405366FEF25
:102F600087E090E00E94053640E050E0BA0188E03A
:102F700090E00E94173660E084E290E00E940536FF
:102F800060E087E190E00E94053660E08CE090E030
:102F90000E94053660E08DE090E00E9405361982BF
:102FA0001A821B821C821D821E821F82188648E0A4
:102FB00050E068E170E0CE0101960E94F53540E0F6
:102FC00050E0BA0180E290E00E94173640E050E005
:102FD000BA018FE090E00E94173640E050E0BA015D
:102FE00083E190E00E9417362896E2E00C94C53405
:102FF0009091AB0292FB222720F9281779F080FBF1
:1030000092F99093AB026091AA027091AB0284E0B6
:1030100090E00E94233682E00E94EF1008952091F4
:10302000980280918F02282B80918E02882381F054
:10303000282B30E086E692E0FC014191CF0141115E
:103040003F5FF2E08C369F07B9F7311110928E0284
:103050002093640248E050E060E972E084E692E088
:103060000E94BB35892BA9F088E0E4E6F2E0A0E9F4
:10307000B2E001900D928A95E1F7E091FF04F091A2
:103080000005309731F00280F381E02D84E692E074
:1030900009950895882321F00E94E80F0E940F18D7
:1030A0000895882339F090919802982B9093980274
:1030B0000E940F1808951F920F920FB60F921124BD
:1030C0002F933F934F935F936F937F938F939F9330
:1030D000AF93BF93EF93FF938091E10082FF09C00C
:1030E0008091E20082FF05C08091E1008B7F809398
:1030F000E1008091DA0080FF24C08091D80080FF39
:1031000020C08091DA008E7F8093DA008091D90010
:1031100080FF9DC080E189BD82E189BD09B400FEC8
:10312000FDCF81E08093150580910805811109C0CC
:103130000E94DC030E947D048091E2008460809301
:10314000E2008091E10080FF17C08091E20080FFE3
:1031500013C08091E2008E7F8093E2008091E200B4
:1031600080618093E2008091D80080628093D800D3
:1031700019BC85E0809315058091E10084FF2BC088
:103180008091E20084FF27C080E189BD82E189BD92
:1031900089B5982F917080FFFBCF8091D8008F7DEB
:1031A0008093D8008091E1008F7E8093E100809130
:1031B000E2008F7E8093E2008091E2008160809344
:1031C000E20080911605882309F447C084E08093CB
:1031D0001505809115058091E10083FF27C080913E
:1031E000E20083FF23C08091E100877F8093E100AC
:1031F00082E080931505109216058091E1008E7F84
:103200008093E1008091E2008E7F8093E2008091C4
:10321000E20080618093E20042E060E080E00E9492
:103220004B048091F00088608093F000FF91EF9153
:10323000BF91AF919F918F917F916F915F914F91CE
:103240003F912F910F900FBE0F901F90189519BCB2
:10325000109215051092080574CF8091E30087FD48
:1032600093E090931505B5CF78941F921FB61F92E7
:1032700011248F939F93AF93BF93809104059091F6
:103280000505A0910605B09107050196A11DB11D88
:103290008093040590930505A0930605B093070558
:1032A000BF91AF919F918F911F901FBE1F90189556
:1032B0009C014FB7F8948091040590910505A09169
:1032C0000605B09107054FBF821B930B08952FB7DA
:1032D000F8948091040590910505A0910605B091A0
:1032E00007052FBF08950E9467199C019091F9046A
:1032F0008091FA04982B21F03093F6042093F50482
:103300009091FB048091FC04982B21F03093F404FD
:103310002093F304E091FF04F0910005309749F009
:1033200082E08093F7040680F781E02D87EF94E038
:1033300009950895CF9310929802C6E0E6E6F2E070
:10334000DF018C2F1D928A95E9F790E080E00E94C2
:103350007A0590E080E00E94550510928F020E944D
:103360000F18E7EFF4E0DF011D92CA95E9F710921C
:10337000F0041092F1041092F2040E947319CF919C
:103380000895AAE2B0E0E7ECF9E10C94A83487E1F3
:1033900095E02091F100FC012193CF01F5E08F3100
:1033A0009F07B9F780911805833009F470C0B8F40D
:1033B000813009F447C0823009F4B1C08091E8003F
:1033C00083FF7EC280911705909118059A3008F00E
:1033D00077C2E92FF0E0E257F94C0C94FE348A30C2
:1033E00009F48CC08B3009F46FC0893039F78091B3
:1033F0001705813219F780911B0590911C050297E2
:10340000E8F68091E800877F8093E8008091E800EB
:1034100082FF38C09091F3008091F200029731F45E
:103420008091F100813011F0863021F48091F1001B
:1034300080930A058091E8008B778093E8000E94D2
:103440002C04BCCF80911705813A09F0B7CF809149
:10345000E800877F8093E80080911B0590911C0510
:10346000892B61F468E08BE095E070E00E94D8045D
:103470008091E8008B778093E800A0CF60E090E037
:1034800080E0F3CF809115058111C0CF97CF809157
:103490001705813A09F092CF80911B0590911C0588
:1034A000892B09F08BCF8091E800877F8093E8001B
:1034B0008091E80080FFFCCF809120018093F10093
:1034C0008091E8008E77B9CF80911705813209F09D
:1034D00075CF80911B0590911C05892B09F06ECF4B
:1034E0008091E800877F8093E8000E942C048091FF
:1034F0001905809320010E949A1960CF80911705C9
:10350000813209F05BCF8091E800877F8093E800EB
:103510000E942C0480911A05809309054FCF809159
:103520001705813A09F04ACF8091E800877F8093A0
:10353000E8008091E80080FFFCCF80910905BECFB4
:10354000803899F0823809F0BBC180911B058F70DB
:10355000873008F0B5C18093E9008091EB0085FBCE
:10356000882780F91092E90006C080911305909198
:103570001405911182609091E800977F9093E80084
:103580008093F1001092F1008091E8008E7794C151
:10359000882309F482C1823009F092C18091190513
:1035A000811185C180911B058F702FEF280F263068
:1035B00008F086C18093E9002091EB0020FF77C1DD
:1035C000933031F48091EB0080628093EB006FC107
:1035D0009091EB0090619093EB0021E030E001C00E
:1035E000220F8A95EAF72093EA001092EA00809170
:1035F000EB008860EACF811163C1109119051F7734
:103600008091E3008078812B8093E3008091E80033
:10361000877F8093E8000E942C048091E80080FF5F
:10362000FCCF8091E30080688093E30082E0111179
:1036300083E08093150544C18058823008F040C172
:103640008091190590911A058C3D23E09207A1F510
:1036500083E08A838AE289834FB7F894DE01139668
:1036600020E03EE051E2E32FF0E050935700E49178
:1036700020FF03C0E295EF703F5FEF708E2F90E068
:10368000EA30C0F0C7968D939D932F5F243159F790
:103690004FBF8091E800877F8093E8006AE270E086
:1036A000CE0101960E94D8048091E8008B77809328
:1036B000E80006C1C096E7CF40911B0550911C055C
:1036C000292F33272330310509F444C078F5213000
:1036D000310509F46FC08BE390E0E1E2F6E02230BF
:1036E000310509F0EDC02091E800277F2093E80024
:1036F00020911D0530911E058217930708F49C0147
:1037000040E02115310509F064C0411162C080918B
:10371000E80082FDC9CF80911505882329F2853004
:1037200019F28091E80083FFF2CFBECF213231053C
:10373000A9F12232310509F0C3C04115510509F440
:1037400043C04130510509F0BBC08BE790E0E2E691
:10375000F5E0C9CF992781309105C1F0009759F064
:10376000029709F0ADC0EEE6F6E0E4918E2F90E00E
:10377000EEE6F6E007C0EAEAF6E0E4918E2F90E08C
:10378000EAEAF6E0009709F49BC0ADCFE2E9F6E083
:10379000E4918E2F90E0E2E9F6E0F4CF4115510577
:1037A00071F04130510509F08BC089E090E0ECE404
:1037B000F6E099CF82E190E0ECE5F6E094CF89E085
:1037C00090E0E3E3F6E08FCF84E490E0EDEDF5E008
:1037D0008ACF80911505882309F466CF853009F4D6
:1037E00063CF8091E80083FD5FCF8091E80082FD88
:1037F0008ECF8091E80080FF84CF9091F30080917C
:10380000F2002115310519F08830910550F041E0A2
:10381000089709F040E08091E8008E778093E800F7
:1038200070CF44914093F1003196215031090196B7
:10383000E8CF803809F044C08091E800877F80930A
:10384000E800809116058093F1009ECE811138C06A
:10385000109119051230A0F58091E800877F8093C0
:10386000E800109316050E942C04112311F084E047
:1038700005C08091E30087FDFACF81E080931505B4
:1038800042E061EC81E00E944B0442E261EC82E0A4
:103890000E944B048091150513C080911905813059
:1038A00079F481E0933009F080E080931405109260
:1038B000E9008091E800877F8093E8000E942C0453
:1038C0008091E80083FF0AC08091E800877F8093A1
:1038D000E8008091EB0080628093EB00AA96E3E021
:1038E0000C94C4341F920F920FB60F9211242F9391
:1038F0003F934F935F936F937F938F939F93AF9378
:10390000BF93CF93DF93EF93FF93D091E900DF70E4
:103910008091EC00C82FC17080FDC0E81092E900D2
:103920008091F000877F8093F00078940E94C11905
:103930001092E9008091F00088608093F000CD2B18
:10394000CF70C093E900FF91EF91DF91CF91BF91CC
:10395000AF919F918F917F916F915F914F913F9127
:103960002F910F900FBE0F901F9018950E949A19DB
:103970002FEF84E39CE0215080409040E1F700C0AD
:10398000000088E19CE00FB6F894A8958093600051
:103990000FBE90936000FFCF4091F9049091FB041B
:1039A0002091FC04662309F469C0942B922B20918A
:1039B000FA04922B31F098E09093F00491E0909308
:1039C000F1048D3C41F40E94CE0581958093FA0468
:1039D0000E94731908958E3C19F40E94CE05F6CF0B
:1039E0008F3C31F40E94CE0581958093F904F0CF8D
:1039F000803D19F40E94CE05F8CF893D29F40E943C
:103A0000AC058093FB04E4CF8A3D21F40E94AC0511
:103A10008195F7CF8B3D31F40E94AC058195809361
:103A2000FC04D6CF8C3D19F40E94AC05F8CF9FE280
:103A3000980F983070F4815D990B21E030E001C05F
:103A4000220F8A95EAF78091F804822B8093F8047C
:103A5000BFCF8D3D31F48091F20481608093F204F8
:103A6000B7CF8E3D21F48091F2048260F7CF8F3D75
:103A700009F0AECF8091F2048460F0CF8D3C59F410
:103A80008091FA0487FF0DC01092FA0441110BC017
:103A90001092F00408C08E3C81F48091FA0418164C
:103AA0009CF3442381F08091FB049091FC04892BCA
:103AB00009F08ECF1092F1048BCF8F3C49F447FF71
:103AC000F0CF1092F9048091FA048111ECCFE0CF8D
:103AD000803D19F41416ACF3E4CF893D29F419168E
:103AE00004F71092FB04DDCF8A3D19F497FFD9CF7C
:103AF000F8CF8B3D29F427FFD4CF1092FC04D1CF0F
:103B00008C3D19F41216CCF3CCCF9FE2980F98306D
:103B100090F4815D990B21E030E0B90102C0660F9D
:103B2000771F8A95E2F7CB0180959091F80489235D
:103B30008093F804B6CF8D3D31F48091F2048E7FEE
:103B40008093F204AECF8E3D21F48091F2048D7FFC
:103B5000F7CF8F3D09F0A5CF8091F2048B7FF0CF96
:103B60008823D1F19CEF980F913A78F4E6E6F2E0E1
:103B70009191891303C0DF0111971C9292E0EC36FA
:103B8000F907B1F70E940F18089590E2980F983046
:103B900050F4877091E001C0990F8A95EAF7892F58
:103BA0000E94E80FEFCF9BE5980F933028F490E048
:103BB00080E00E947A05089598E5980F9B3128F4DB
:103BC00090E080E00E945505089593E3980F9331AB
:103BD00018F460E00E94CC1C0895CF93C82F88236E
:103BE000B1F08CEF8C0F813A00F5E6E6F2E08CE65E
:103BF00092E0DF012D91C21761F08A179B07D1F780
:103C00006C2F84E692E00E943B050E940F18CF9132
:103C100008952191C21303C0DF0111971C928E17E2
:103C20009F07B9F70E940F18EBCF80E28C0F883006
:103C300068F4C77021E030E001C0220FCA95EAF7AE
:103C400080919802822B80939802DFCFEBE5EC0FF6
:103C5000E33040F4F0E0E85DFE4F808190E00E94A8
:103C60007A05D5CFE8E5EC0FEB3150F4F0E0EE0F3C
:103C7000FF1FE55DFE4F808191810E945505C7CFF2
:103C800083E38C0F833118F661E08C2F0E94CC1CEB
:103C9000BECF0F931F93CF93DF93C62FD42F022F46
:103CA000FC0185818823A9F060939C050E94671917
:103CB00090939B0580939A05C77081E001C0880F9F
:103CC000CA95EAF70E945118DF91CF911F910F9189
:103CD000089580919C05681335C080919A05909154
:103CE0009B050E9458198F3A910560F510E21D0F4F
:103CF000CD17B9F080E28C0F883040F4C77081E0B6
:103D000001C0880FCA95EAF70E944A18183048F493
:103D100081E09D2F977001C0880F9A95EAF70E9465
:103D20005118802F0E94ED1D802F0E94B01D183069
:103D300058F6D77081E001C0880FDA95EAF70E9443
:103D40004A18C2CFC77081E001C0880FCA95EAF750
:103D5000F6CFB0E0A0E0EFEAFEE10C949B34D82F60
:103D600080911F018D1323C090919E059370209127
:103D70001E0130E081E09217130609F480E08170A3
:103D8000809323018091A30590912201981739F027
:103D90008093220140E060E080E00E947608DD32FE
:103DA00060F4ED2FF0E0E856F94C0C94FE3481E01D
:103DB000E6CF80912301811102C0C0E056C040E0EF
:103DC00060E080E00E947608F8CF809121010E9497
:103DD0007B06082FF92E60919F057091A0058091B8
:103DE000A1050E942A0AC62FE72ED82E10E00F1533
:103DF00028F0C1E02EE22F15C0F5DFCFF801EE5C10
:103E0000FD4F808190912201892331F02D2D4C2F7F
:103E10006E2DC8010E9479080F5F1F4FE8CF809177
:103E200021010E947B06082FF92EE090A005109139
:103E3000A105C0919F056C2F7E2D812F0E942A0A1B
:103E4000D62EC72EB82E6091A2056C0F7E2D812F25
:103E50000E942A0AC62FE72EA82E10E00F15E8F0C0
:103E6000C1E03EE23F1508F4A8CF809121018F5FA9
:103E700080932101C1110CC082E0809324018091C4
:103E80002301811105C0D11103C083E08093240177
:103E9000CDB7DEB7E0E10C94B734F801EE5CFD4F2E
:103EA000908180912201892359F02A2D4C2F6E2D6B
:103EB00090FD03C02B2D4D2D6C2DC8010E9479085B
:103EC0000F5F1F4FCBCF809121010E947B06F92EFF
:103ED000E090A005D090A1052091A205C0E44C2F50
:103EE000429F412D1124C42F082F10E00F1530F0F0
:103EF000C1E08EE28F1508F0B8CF5FCFF801EE5C1D
:103F0000FD4F8081909122018923B9F0F801EE0FD5
:103F1000FF1FEC55FE4F81A982958F7060919F0520
:103F20008C9F600D11247E2D8D2D0E942A0A462F14
:103F3000282F672FC8010E9479080F5F1F4FD6CF27
:103F4000809121010E947B06F92EE090A005D0907F
:103F5000A1052091A205C0E43C2F329F312D1124F0
:103F6000C32F082F10E00F1530F0C1E04EE24F15BF
:103F700008F07BCF22CFF801EE5CFD4F808190915D
:103F800022018923D9F0F801EE0FFF1FEC55FE4FF7
:103F900060A9C69FB001112485E0759567958A9543
:103FA000E1F780919F05680F7E2D8D2D0E942A0AD2
:103FB000462F282F672FC8010E9479080F5F1F4FD7
:103FC000D2CF809121010E947B06082FF92E1091FB
:103FD0009F05C091A005E090A1056091A20566959E
:103FE0006695669580916D0590916E050E94F70922
:103FF0000E944809805887FD8195880F282F3E2D03
:10400000239F212D1124822F612F7C2F0E942A0AA9
:10401000C62FE72ED82E10E00F1508F0A6CFF80116
:10402000EE5CFD4F808190912201892331F02D2D8E
:104030004C2F6E2DC8010E9479080F5F1F4FECCFE7
:104040008DE498E00E94230CC82F0FCF83E298E004
:10405000F9CF8AE299E00E941D0DF6CF8BE099E03E
:10406000FACF80EF98E00E94B70CEECF84ED98E095
:10407000FACF81E298E0E6CF88E198E0E3CF8FE0E5
:1040800098E0E0CF86EF97E0DDCF88EE97E0EBCFCA
:104090008FEC99E0E0CF83EC98E0DDCF8FEA98E0F9
:1040A000E2CF8BEB97E00E94670CCECF8DE897E0D4
:1040B000FACF86E597E0F7CF809121010E947B0639
:1040C000F92E90912301911124C06091A20520E165
:1040D000620F08F46FEF80916D0590916E050E945C
:1040E000F7096AE070E00E948534892B61F40E9430
:1040F0008A09AFE28A9FC001112460912201892FB1
:1041000090E00E94BE0AC1E0BEE2BF1508F0ADCE4D
:1041100054CE082F10E0CF2CD12C0C151D059CF788
:1041200060912201C8010E94BE0A0F5F1F4FF5CFA8
:10413000809121010E947B06F92E9091230191111B
:1041400024C06091A20520E1620F08F46FEF809116
:104150006D0590916E050E94F70965E070E00E9480
:104160008534892B61F40E948A09EFE28E9FC00199
:10417000112460912201892F90E00E946C0DC1E012
:10418000FEE2FF1508F071CE18CE082F10E0CF2CFC
:10419000D12C0C151D059CF760912201C8010E94CD
:1041A0006C0D0F5F1F4FF5CF809121010E947B06A0
:1041B000082FF92EE090A0051091A105C0919F0550
:1041C0006091A20566956695669580916D059091C2
:1041D0006E050E94F7090E944809805887FD819565
:1041E000880F682F2CE0629F612D11246C0F7E2DAB
:1041F000812F0E942A0AC62FE72ED82E10E00F1515
:1042000008F0F7CDF801EE5CFD4F8081909122011E
:10421000892331F02D2D4C2F6E2DC8010E94790875
:104220000F5F1F4FECCF87E699E00CCF85E497E056
:1042300009CF809121010E947B06F92E40916D05E6
:1042400050916E0560916F05709170058091FA0232
:104250009091FB02A091FC02B091FD02841795079A
:10426000A607B70708F044CE0E948A093FE2839F61
:1042700080011124012F1127F801EE5CFD4F808190
:1042800090912201892309F433CE0E948A0981FD8D
:104290003BC00E948A09C82F0E948A0940E8849F77
:1042A000C00111247FE7790F8091A1056C2F0E9436
:1042B0002A0A462F282F672FC8010E9479082091CB
:1042C000A20530E1230F08F42FEF60E1822F90E088
:1042D0000E94F709BC0184EF91E00E94853480912F
:1042E0006D0590916E05A0916F05B0917005860FD8
:1042F000971FA11DB11D8093FA029093FB02A0931A
:10430000FC02B093FD02F4CD80E070E0C0E0CECFBF
:1043100040918B0350918C0360918D0370918E03BB
:1043200080916D0590916E05A0916F05B09170051B
:1043300084179507A607B70708F43FCD809123019E
:1043400081111FC0809121010E947B06092FC82E78
:10435000D12CA3E08A9FC0011124FC01E250FD4F43
:104360007F01C01608F44AC0C1E00F3208F0C0E077
:104370000F3208F47ACD20E0802F8150990B7C0118
:1043800069C040E060E080E00E947608FEEFEF2E1A
:10439000F2E0FF2E10E000E00E948A0981FF10C0C9
:1043A000D7011C9211961C92119712961C920F5FC6
:1043B0001F4FB3E0EB0EF11C0F32110569F7C2CFAE
:1043C0000E948A09C82F0E948A09B0E88B9FC00109
:1043D00011247FE7790F6801CC0CDD1CC00ED11EC3
:1043E000F601E250FD4F6F016C2F8091A1050E94F4
:1043F0002A0AD6016D937D938C93D9CFF601EE5C9A
:10440000FD4F808190912201892339F0F7012281AB
:1044100040816181C6010E947908F3E0EF0EF11C32
:104420002FEFC21AD20A9DCFFC01EE0FFF1FE80F3B
:10443000F91FE250FD4F0196DC01AA0FBB1FA80F28
:10444000B91FA250BD4F8D919D91AC9180839183F6
:10445000A2832F5F822F90E08E159F052CF30E9480
:104460008A098701000F111F81FF21C00E0D1F1D3A
:10447000F801E250FD4F1082118212820E94010A5F
:1044800000916D0510916E0520916F0530917005BA
:10449000DC01CB01800F911FA21FB31F80938B0300
:1044A00090938C03A0938D03B0938E03DECC0E9477
:1044B0008A09D82E0E948A09A0E88A9FC001112487
:1044C0007FE7790F0E0D1F1D02501D4F6D2D80913E
:1044D000A1050E942A0AF801608371838283CECFEE
:1044E00080912301882329F040E060E080E00E9471
:1044F0007608809121010E947B06592E40916D051E
:1045000050916E0560916F05709170058091A703C1
:104510009091A803A091A903B091AA0384179507CD
:10452000A607B70708F07BC060919F057091A005B2
:104530008091A1050E942A0AC62F772E682E4FE887
:10454000E42E43E0F42E04EA11E05801480167012B
:10455000412CD4018D914D0190E0F6012081222360
:1045600009F463C0262D4C2F672D0E947908D501D0
:104570001B968C91262D4C2F672D90E00E94790878
:10458000D60111968C91F60181936F014394F1E06D
:10459000AF1AB10825E04212DCCFD80115968C91F4
:1045A00090E0F7012581222309F44AC0262D4C2FE3
:1045B000672D0E947908D80116968C91262D4C2FD4
:1045C000672D90E00E9479080E948A09837091E02B
:1045D00009F090E0D70115969C93B6E0EB0EF11C24
:1045E000045F1F4FE1E0043D1E0709F0AECF0E94BB
:1045F000010A00916D0510916E0520916F053091B3
:104600007005DC01CB01800F911FA21FB31F8093A7
:10461000A7039093A803A093A903B093AA03C1E0B2
:10462000FEE2F51508F021CCC8CB20E040E060E0C8
:104630000E947908F501838520E040E060E09DCF8D
:1046400020E040E060E00E947908F801868120E0E7
:1046500040E060E0B6CF809121010E947B06782E79
:10466000A92E80912301882361F040E060E080E082
:104670000E947608E0EBF3E080E3DF011D928A956B
:10468000E9F780912101811115C08091AC039091CF
:10469000AD030E94581921E08931910508F420E00A
:1046A0002093AB03499730F00E9467199093AD03B4
:1046B0008093AC03C12CB12CD12C9CE0892E25E534
:1046C000622E3AEA932E5524539405C0F9E0FB1567
:1046D00008F457C0D12C2D2D30E08C9C8001112482
:1046E000F801EC55FE4FE20FF31FE080E71408F4E9
:1046F00040C0EA1408F03DC0B394F12CF701EE5C21
:10470000FD4F808190912201892309F432C0005528
:104710001C4F020F131FF801C0813C2F262D321BA6
:1047200008F430E07091A005292D4C2F240F08F4D7
:104730002FEF4091A105822F880F820F8E5F282FC7
:10474000249F212D1124822F692D631B0E942A0A88
:10475000462F282F672FC7010E9479088091AB034D
:10476000882339F02C2F352D231B08F420E0D801A5
:104770002C93D394BCE0DB12AECFC394E4E0CE1212
:10478000A5CFC1E02EE22A1508F06FCB16CBC09161
:10479000A10533E0C39F8001112416950795169556
:1047A0000795502EAC2EB12C8FEF90E0B5010E94F2
:1047B000EA34762E80912301882371F040E060E096
:1047C00080E00E947608E0EBF3E080E3DF011D92D9
:1047D0008A95E9F71092AF038091AE038F5F8093C3
:1047E000AE03F12CE12CA01AB10A6701612CC701BC
:1047F00080559C4F4C018091AF03862909F045C03C
:104800000E949535853595400CF03FC0F401C0837A
:10481000F601EC55FE4FE081EF3FD1F0D601A055F7
:10482000BC4F2C91F0E0521608F040C030E0201B45
:10483000310B209FC001219F900D309F900D1124BE
:10484000B5010E948534262F4C2FCF010E94790894
:104850006394FCE0CF0ED11C24E06212CCCF3FEF7A
:10486000E31AF30A4CE0E416F10409F0BECF80919C
:10487000AE03781202C01092AE038091AF038F5F37
:104880008D31F0F48093AF0398CAF601E055FC4FE8
:104890008081882309F4BCCF8C1708F0B9CF9091A0
:1048A000AE037912B5CF81508083B2CFC29FC001D1
:1048B0001124B8010E948534462F20E060E0C5CF66
:1048C0001092AF0328EC33E083E09FEF9C0FE0EB06
:1048D000F3E0B901833021F444A1C41301C094A3CF
:1048E000DB014D91BD014C1740F0AD014150510924
:1048F000DA019C93DB011B96CC933196B3E0EC3B41
:10490000FB0741F781502C5031098111E0CF55CA86
:104910008EE397E00E94B90B97CB88E397E0FACF3C
:104920008091710521E0382F321B08F430E0832F8D
:104930006FE177E00E94F90A87CB6FE177E080E0D2
:10494000F9CF8091710521E0482F421B08F440E027
:10495000842F64EE76E0EECF64EE76E0F0CF8091C7
:10496000710521E0382F321B08F430E0832F62EB11
:1049700076E0E0CF62EB76E0E2CF8091710521E056
:10498000482F421B08F440E0842F6AE976E0D2CF3A
:104990006AE976E0D4CF8091710521E0382F321B8F
:1049A00008F430E0832F64E876E0C4CF64E876E072
:1049B000C6CF8F929F92AF92BF92CF92DF92EF922B
:1049C000FF921F93CF93DF938091090490910A0483
:1049D000A0910B04B0910C042FB7F89480900405BB
:1049E00090900505A0900605B09007052FBF7501B2
:1049F0006401C81AD90AEA0AFB0A2FB7F894409151
:104A000004055091050560910605709107052FBFBB
:104A10004093090450930A0460930B0470930C04B0
:104A20001091E003E0EEF3E0C12FD0E00197AF4F2B
:104A3000BF4F88199909AA09BB091D1327C0C09344
:104A4000E00380910D04C0E0811108C080919E05B3
:104A5000C82FC37019F0C82FC695C6958091240140
:104A60008130F1F1882329F1823009F444C0833088
:104A700009F44CC0DF91CF911F91FF90EF90DF9030
:104A8000CF90BF90AF909F908F900895218D328DE1
:104A90004901B12CA12C88159905AA05BB0520F464
:104AA000C150DF5F3296C9CF2C0D3D1D328F218F53
:104AB000F8CF1092210140936D0550936E056093DD
:104AC0006F057093700589E2E0EEF3E0A1E7B5E0D1
:104AD00001900D928A95E1F781E080932401CACF7D
:104AE0008C2F0E94A91ECC2329F280912101815094
:104AF0000E947B06BFCFC0931F0180919E058370EB
:104B000080931E010E94411483E0E7CF80919D05B0
:104B1000882351F048E050E068E170E08EE995E0CC
:104B20000E94F53510929D0540916D0550916E05DE
:104B300060916F05709170052FB7F894809104050E
:104B400090910505A0910605B09107052FBF841B24
:104B5000950BA60BB70B4097A105B10508F48ACFBA
:104B60001092240187CF9091E80490FF35C0937094
:104B7000811133C094609093E804662391F02091F2
:104B8000E8043091E9044091EA045091EB0460910B
:104B9000EC047091ED048091EE049091EF040E947A
:104BA00052166091E8046695669570E04BE050E01F
:104BB0008EE091E00E94AE35892BB9F01092C602CA
:104BC00081E08093C20220E04091EB046091EA040E
:104BD0008091E9040E94781608958B3210F0986A4B
:104BE000CACF880F880F982BC6CF81E08093C6026A
:104BF0000E9467199093C0028093BF02E1CF809119
:104C0000E80486958695815009F48AE261E00E9465
:104C1000B32508958091E804869586958F5F8B3241
:104C200008F081E061E00E94B32508959091E804C6
:104C300090FF09C096959695981728F0961718F446
:104C40000E940A26089561E00E94B3250895B0E00D
:104C5000A0E0EDE2F6E20C94A1348C01FC01848129
:104C6000882341F121E040815181628173819581E6
:104C70000E943E11EC01FC01E851FC47E730F105D0
:104C8000A8F5EB53F94C0C94FE3426E241EE61EEAC
:104C9000C8010E94491E80918D02877059F0F80169
:104CA0008581882339F08091AB0282FF03C082E0C6
:104CB0000E94EF10CDB7DEB7EAE00C94BD3427E2D6
:104CC00045EE65EEE5CF26E241EE60EEE1CF27E26C
:104CD00045EE64EEDDCF26E241EE62EED9CF27E26B
:104CE00045EE66EED5CF28E241E0EBCFF8018581B5
:104CF000882309F49EC410929C05CE019057839797
:104D000008F081C484E090E00E94EF359093AB02FC
:104D10008093AA02FE01E150F047E232F10520F44F
:104D2000E453F94C0C94FE348091AA028160809384
:104D3000AA0295C08091AB0288608093AB028FC0BD
:104D40008091AA028260F3CF8091AA028460EFCFA3
:104D50008091AA028860EBCF8091AB028160EDCF99
:104D60008091AB028260E9CF8091AA028061DFCF9F
:104D70008091AA028062DBCF8091AA028064D7CFA3
:104D80000E949A198091AA028068D1CF8091AA02CC
:104D90008C60CDCF8091AB028360CFCF8091AA028F
:104DA0008E7FC5CF8091AB02877FC7CF8091AA024B
:104DB0008D7FBDCF8091AA028B7FB9CF8091AA024F
:104DC000877FB5CF8091AB028E7FB7CF8091AB024A
:104DD0008D7FB3CF8091AA028F7EA9CF8091AA0246
:104DE0008F7DA5CF8091AA028F7BA1CF0E949A19B7
:104DF0008091AA028F779BCF8091AA02837F97CF61
:104E00008091AB028C7F99CF8091AA0282FB992777
:104E100090F921E0922790FB82F990FB83F987CFEC
:104E20008091AB02982F909591708E7F892B90FB8B
:104E300081F983CF9091AA02892F8F7B96FF80649E
:104E400076CF0E949A199091AA02892F97FB87F931
:104E500080586DCF61E08EE090E00E940536609151
:104E6000AA027091AB0284E090E00E9423360E9477
:104E70009A1911CF60E0EFCF9091AA02892F8F7E0F
:104E800094FF806154CF9091AA02892F8E7F90FF6A
:104E900081604DCF9091AB02892F877F93FF88600F
:104EA0004CCF85E3D0C3809198028272F82EFE0128
:104EB000E052F847E531F10508F0D8C0E251F94C6D
:104EC0000C94FE348091E80480FF26C0282F2E7FAA
:104ED0002093E8043091E9044091EA045091EB04F6
:104EE0006091EC047091ED048091EE049091EF04D8
:104EF0000E9452161092C6020E94E41180919E05F3
:104F000091E0892780939E051092240180919D0550
:104F1000816080939D05BFCE81608093E80461E04D
:104F2000869586950E94B325E9CF4FEF55E26AE05A
:104F300076E20E94FC0546E656E060E776E08F2DBB
:104F40000E94FC05A8CE4AE056E26FEF75E20E948F
:104F5000FC0540E756E066E676E0F1CF4BE257E12C
:104F600065E377E10E94FC0542E556E06CE576E0FA
:104F7000E6CF45E357E16BE277E10E94FC054CE5A3
:104F800056E062E576E0DBCF41E157E16EE177E1A3
:104F90000E94FC0548E356E065E476E0D0CF4EE1A0
:104FA00057E161E177E10E94FC0545E456E068E3E2
:104FB00076E0C5CF47EF56E164E077E10E94FC055B
:104FC0004EE156E06BE276E0BACF44E057E167EF9E
:104FD00076E10E94FC054BE256E06EE176E0AFCF51
:104FE0004FE357E169E577E10E94FC0542E056E0B6
:104FF00060E176E0A4CF49E557E16FE377E10E94F5
:10500000FC0540E156E062E076E099CF61E081E0A6
:105010000E94B32581E00E9491033DCE65E082E0CD
:105020000E94162685E0F7CF68E086E00E941626EB
:105030008DE0F1CF6EE089E00E94162682E1EBCF91
:1050400064E18FE00E94162626CE67E185E1FACF63
:1050500061E088E10E94B3251ECE62E289E1F2CFD1
:1050600061E083E2F7CF6AE285E2ECCFC737FCE785
:10507000DF0709F45FC0C837DC4709F461C0F801F5
:105080008581C081D181882309F48AC0CE010E9424
:10509000F90FF82E682FCE010E946D10BE018F2DE2
:1050A0000E94AB0E0E94CA0ED82FC92FA82EF8015D
:1050B000C580B680B2943FE0B32280918D028770A4
:1050C00009F1EC2CCC20F9F0892F807F803469F035
:1050D00080E28D0F8830B0F0892F807E803229F4F5
:1050E000F1E0FD1778F4BB2069F08091AB0282FFFC
:1050F00009C082E00E94EF1080918D028770EE243B
:10510000E3948111E12CDC2ED2942FE0D2222BE00B
:105110002D1508F4B1C0ED2DF0E0ED5FF84C0C94C6
:10512000FE3481E00E94061143E062E081E00E94CB
:10513000B110B1CD81E00E94DD10F6CF82E0F2CF58
:1051400082E0F9CFCB35FCE7DF0741F1CC352CE726
:10515000D207D1F0CA35DC4709F091CF81E01BC0FE
:105160000E949A198FEF94E3ECE081509040E04068
:10517000E1F700C000000E94C0116FEF7FEF90E0E8
:1051800080E00E9423363DC28091AB0282FB8827DB
:1051900080F991E089270E94F81771CF80E0FBCF5A
:1051A000CE010E943A10F82E79CF3C2F3F70F32E9B
:1051B000C07F19F0F29490EFF922CC20B9F0FF20D3
:1051C00069F080E28D0F883010F0A11009C0809145
:1051D0009802F82AF09298020E940F188D2F4AC068
:1051E00080918F02F82AF0928F02F6CF8D2F0E94C5
:1051F000B01DFF2009F440C0D05ED83010F0A110DF
:1052000004C08F2D0E94E80F06C0F09480918F0299
:10521000F822F0928F020E940F182EC08C2F8F70F0
:10522000F82EC07FC03219F0F29480EFF822AA2045
:1052300089F091E0A91609F47EC0CC2009F48AC057
:10524000BB2009F44CC0F801868180FFC7CF8F7066
:10525000868345C08091AB0282FD3DC0CC20A9F180
:10526000FF2039F080919802F82AF09298020E946B
:105270000F1880E00E94ED1DED2DE850FF0B3497D4
:1052800010F40E949F05EE20A9F080918D0280FD10
:1052900011C0F80115828695869586950E940611A3
:1052A000C8010E94272680918D0286958695869555
:1052B0000E94DD1020E0F8014081518162817381FC
:1052C000848195810E943E11F5CC80E00E94B01D42
:1052D000FF2091F296CFCC20A1F0B11004C08F2D09
:1052E0000E945118C9CFE1E0BE12C6CF80918E0254
:1052F0009F2D9823F91609F4BFCFF82AF0928E0259
:10530000BBCFB110B9CF8F2D0E944A1890918E0259
:105310008F2D892329F08F2D8095892380938E02EC
:1053200080916D029F2D982309F4A6CFF094F82266
:10533000F0926D02A1CFCC2029F0F5E0FB1508F426
:105340009BCFCDCF24E02B1508F496CF8F2D0E9454
:105350004A1892CFBB20D1F3F9E3AF1231C12FEF3E
:1053600037EE83E0215030408040E1F700C000007C
:1053700027C18C2F86958695837069F0813009F05E
:105380007BCF8D2F9C2F9370C11002C080E090E0E6
:105390000E94550571CF8D2F9C2F9370C11002C0B4
:1053A00080E090E00E947A0567CF6C2D8D2F0E94DF
:1053B000CC1C62CF8C2F837009F03FC0C1105CCF32
:1053C0004D2F429546954770440F440F2D2F2F7057
:1053D00030E0042E02C0220F331F0A94E2F790E05F
:1053E00080E0D4FF09C08FE090E002C0880F991FD1
:1053F0004A95E2F780959095C695C695C370C230E0
:1054000099F078F44091990250919A02C13039F0A4
:10541000822B932B842395230E9416112DCF242BAE
:10542000352B822B932BF8CF822B932B2091990233
:1054300030919A0282279327EFCF8695CC2011F0E6
:105440008C2F8170882309F417CF4D2F42954695F4
:105450004770440F440F2D2F2F7030E0042E02C0F0
:10546000220F331F0A94E2F790E080E0D4FF09C0D6
:105470008FE090E002C0880F991F4A95E2F780956F
:105480009095C695C695C370C23099F078F4409156
:10549000A8025091A902C13039F0822B932B8423AA
:1054A00095230E94A310E8CE242B352B822B932B1F
:1054B000F8CF822B932B2091A8023091A90282274A
:1054C0009327EFCFCF70CC2029F08C2F0E940611AC
:1054D0008D2F06CF8D2F0E944A188C2F0E94DD1031
:1054E000CBCE8D2F92EFA91699F19A1570F0E0EFBF
:1054F000AE16D1F0F1EFAF1691F0CC2009F45BC0FD
:10550000B1106CCE8C2F8F7127C023EFA21639F10A
:1055100034EFA312F2CF8091AB0282FD2EC08C2F0C
:105520008F71CC20D9F218C0CC2069F084E08B15A3
:1055300008F4A2CECF7181E090E002C0880F991FDD
:10554000CA95E2F7B8CF95E09B1508F495CEF2CF57
:105550008C2F8F71C110C2CF0E9406118DCE90E0AA
:1055600080E0CC2009F49DCFCF7181E090E002C0B3
:10557000880F991FCA95E2F794CFCC2089F0CF719C
:105580008C2F0E9406118091AB0282FF07C0E8E0D9
:10559000CE9FC0011124836080938D028C2FDCCFBD
:1055A00081E00E94EF10F1E0FB1508F065CE82E08B
:1055B0000E94EF1061CEBB2039F0893309F4CFCEC1
:1055C0008D2F0E94B01D58CE8C2F8F7187CFC7377B
:1055D000FCE7DF0709F4A5CDC8372CE7D20709F4AB
:1055E000ADCDC3303CE7D30709F4C7CD08F0AACD51
:1055F000C1159CE7D90709F4B3CDC130DC4709F0E8
:105600003ECD0E94B61CC6313CE7D30701F780911E
:1056100098028A7A91E009F490E090936C0269E232
:10562000811165E384E692E00E943B050E940F1819
:1056300032CBC6318CE7D80709F035CC80916C02AB
:1056400081112FCC89E2E6E6F2E02CE632E091917E
:10565000891303C0DF0111971C922E173F07B9F77A
:10566000E5CFCF93DF9380918C02807F09F04DC00E
:1056700080918B02882309F448C0E0916C05509119
:105680003305C0918702D0918602609188027091A3
:10569000890247E05E17C9F18E2F90E0E49FF00188
:1056A0001124EC5CFA4F2481222391F1489FF001F0
:1056B000499FF00D1124DF01AC5CBA4F11962C917B
:1056C00011972C1325C02C912D1322C015962C91C7
:1056D000159721111DC012962D913C91261B370B59
:1056E0002F3A3105A8F480918C028F7080618093ED
:1056F0008C02E65CFA4F80818F708061808386E83F
:1057000092E00E9427260E94EF0FDF91CF9108952B
:10571000FC013196E770BECFA4E1B0E0E2E9FBE224
:105720000C949F348C0186E0F801DE011F960190F5
:105730000D928A95E1F7D80114968C9114971596DD
:10574000EC9096E8A92E92E0B92E90918A029111E0
:1057500028C0882319F1EE20F1F0C8010E941B1126
:10576000F82E8823C1F087E0F801D50101900D9251
:105770008A95E1F780918A02813031F48091860226
:10578000909187020E942D100E94312B8F2D6496DC
:10579000ECE00C94BB34C8010E942726FF24F3944C
:1057A000F5CFF801D080C18082809380F0908B0289
:1057B0002091880230918902A401421B530BFF20E3
:1057C00009F4EEC04F3A510508F0AAC08823F1F25F
:1057D0009091870280918C02282F207F09F062C06F
:1057E000C91215C090918602D91211C0E11049C0AA
:1057F0008F70806180938C0286E892E00E94272659
:1058000080918C02D80116968C93F12CBFCFE110B9
:1058100038C06C2D8D2D0E94AA036C2D8D2D0E94F9
:10582000AA03E82E8111F1CFDF86C88A8F85988977
:105830000E942D10292F22952F70243058F49F702C
:10584000223088F0992399F0F8019681907F79F4BD
:10585000FE2C9CCF2A5F2F70223068F0C8010E9476
:105860002726EF2CF5CF992311F0882389F3805E4A
:10587000883070F3F3CF803F58F3815F833070F747
:10588000E7CF80918C02816080938C0286E892E061
:105890000E94272687E0E6E8F2E0DF011D928A9564
:1058A000E9F7B3CFC91213C090918602D9120FC085
:1058B000E1100DC08683C8010E94272687E0F80109
:1058C000A6E8B2E001900D928A95E1F75FCFC8019A
:1058D0000E941B11882309F45ECFEE2009F45BCFF0
:1058E00080918C02803288F020918602309187026C
:1058F000398728879B868A8690918A029C871D8695
:105900008E87CE0108960E94272687E0F801A6E838
:10591000B2E001900D928A95E1F70E94312B3ECFC3
:1059200090918C02292F207F39F486E892E00E9422
:10593000272687E0D501B2CF882309F427CF8091AD
:1059400087028C1110C080918602D8120CC0E11021
:105950000AC09683C8010E94272687E0D5011D92C0
:105960008A95E9F713CFC8010E941B11882309F417
:1059700012CFEE2009F40FCF80918C02803228F2F2
:1059800020918602309187023A8329839C828B8200
:1059900090918A029D831E828F83CE010196B3CFA0
:1059A0004F3A5105F0F4882309F4F8CEFE2CEE208E
:1059B00009F4F1CE809187028C1105C08091860296
:1059C000D81609F47BCFC8010E941B1181119DCF0D
:1059D00080918C02816080938C02C8010E942726EE
:1059E000D5CE87E0F50111928A95E9F7CFCEABE1EC
:1059F000B0E0EDEFFCE20C94A7344E8B5F8B688F28
:105A0000798F8A8F9B8F192F911110928F021D8A87
:105A100086E0FE017696DE011F9601900D928A9532
:105A2000E1F70A8D002341F021E04F85588969890B
:105A30007A89C8010E943E110B8B1C8B87E0FE0106
:105A40003F96DE01189601900D928A95E1F7CE01FE
:105A500008960E948C2B81110CC087E0FE013896BD
:105A6000DE01119601900D928A95E1F78C858111E6
:105A70000BC017E080916C0590913305891331C0FC
:105A80006B96E4E00C94C3342091330530E0C901F7
:105A900001968770992740916C054817190699F06F
:105AA00097E0929FD001939FB00D1124AC5CBA4F48
:105AB000FE01319601900D929A95E1F7809333059E
:105AC0000E94EF0FD6CF0E949A19109233051092C0
:105AD0006C0587E0E6E8F2E0DF011D928A95E9F7C0
