:100000000C94B1030C94E9030C94E9030C94E903F8
:100010000C94E9030C94E9030C94E9030C94E903B0
:100020000C94E9030C94E9030C94D91C0C94941BD4
:100030000C94DF1E0C94E9030C94E9030C94E9037F
:100040000C94E9030C94E9030C94E9030C94E90380
:100050000C94E9030C94921E0C94E9030C94E903AC
:100060000C94E9030C94E9030C94E9030C94E90360
:100070000C94E9030C94E9030C94E9030C94E90350
:100080000C94E9030C94E9030C94E9030C94E90340
:100090000C94E9030C94E9030C94E9030C94E90330
:1000A0000C94E9030C94E9030C94E903F508F808AF
:1000B00033095F0966097109740974097409120B1F
:1000C000120B780A7A0A7E0AA40AC70ACA0ACD0A5B
:1000D000F10A0F0D830D170DE10CE50C1B0DE80C5B
:1000E0001E0D290DF30C790DF70C2D0DFB0C310DA8
:1000F0005B0DFF0C350D650D050D3B0D450DEC0C35
:10010000220DEF0C250D0A0D400D510D710D730DD3
:10011000DD0C130D8C0DAC0DB20D9F0CA60DB80DA2
:10012000BE0DC40D080E3B0E460E510E5C0E670E42
:10013000720E7D0E880E930E9E0EAC0EB30EB60E92
:10014000BD0EA70CC60EA70CC90EA70CA70C510F0D
:10015000510F840F840F031021102911291126102B
:100160009A10AB10AB103A2461240A2661240A26A7
:10017000AD24D0240A26C525D5257F3F1F6432141F
:10018000783C1E000000000000000000000000009D
:10019000000000000000000000000000000000005F
:1001A000000000000000007E0F00D4FFFFFFC7002A
:1001B00000007800000000000000002A2B2800004A
:1001C0000000000000000000000000000000290006
:1001D0000000002C1E3420212224342627252E3610
:1001E0002D3738271E1F202122232425263333367E
:1001F0002E37381F0405060708090A0B0C0D0E0FD1
:10020000101112131415161718191A1B1C1D2F3153
:1002100030232D350405060708090A0B0C0D0E0FB7
:10022000101112131415161718191A1B1C1D2F3133
:1002300030354C2B0014001A000800150017001C64
:100240000018000C00120013002A00E10004001640
:1002500000070009000A000B000D000E000F00331C
:10026000003400E0001D001B00060019000500110D
:10027000001000360037003800E50000002452E38B
:100280000021522C002178000028002252E200E6D2
:1002900000E40029003A003B003C003D00480049D2
:1002A000004A0052004D004B002A00E1003E003F92
:1002B000004000410046004C00500051004F004EED
:1002C000003402E00042004300440045006500069F
:1002D000011901360237023802E50000000100E38F
:1002E0000001002C002178000028000100E200003D
:1002F00000E40039001E021F0220142F020000300B
:100300000224002500260038002A00E100341432BF
:1003100014250226022D022402210022002300308F
:10032000002D00E0002F143014640064022702271F
:10033000001E001F0020003700E50000000100E360
:100340000001002C002178000028000100E20000DC
:1003500000E40035002E001F14081421022F00AC09
:1003600000AE00AB00AA00A900A800E100350223FE
:10037000021E1435142E0220782378257827782938
:10038000780000E000000023143200220221142132
:10039000782478267828782A78017C00000100E308
:1003A0000001002C002178000028000100E200007C
:1003B0000000002900D6000000000000000000D965
:1003C00000DB00CD00DC00D6000000E100D500D24B
:1003D00000D300D1000000DA00CF00CE00D000D55D
:1003E000000000E000D400DF00DE00DD000000D7E8
:1003F00000D100D300D200D400000000000100E3CF
:100400000001002C002178000028000100E200001B
:1004100000000005010902A10185020901A10005F2
:1004200009190129081500250195087501810205A2
:1004300001093009311581257F950275088106096A
:10044000381581257F950175088106050C0A38024B
:100450001581257F950175088106C0C005010980B9
:10046000A101850319012AB700150126B7009501DE
:1004700075108100C0050C0901A101850419012A2C
:10048000A002150126A002950175108100C006602A
:10049000FF0961A1010962150026FF00952075087A
:1004A00081020963150026FF00952075089102C09E
:1004B00005010906A101050719E029E71500250135
:1004C00095087501810295017508810105071900DC
:1004D00029FF150026FF00950675088100050819FB
:1004E00001290515002501950575019102950175F4
:1004F000039101C009025B00030100A0FA09040096
:10050000000103010100092111010001224400073B
:10051000058103080001090401000203000000092D
:10052000211101000122220007058203200001079A
:100530000503032000010904020001030000000973
:100540002111010001227B00070584032000011214
:1005500001000200000008504B303402000102008C
:1005600001220342004D0034003000200048006F9B
:100570000074007300770061007000200052004793
:10058000004200000016034B00500052006500704E
:1005900000750062006C006900630000000403093C
:1005A0000400100020001101210012022200130398
:1005B000230014042400150525001606260017073D
:1005C000270018082800190929001A0A2A001B0BFD
:1005D0002B00403050004131510042325200433331
:1005E00053004434540045355500463656004737CD
:1005F000570048385800493959004A3A5A004B3B8D
:100600005B007060800071618100726282007363C0
:10061000830074648400756585007666860077675C
:10062000870078688800796989007A6A8A007B6B1C
:100630008B00A090B000A191B100A292B200A39350
:10064000B300A494B400A595B500A797B700A898E7
:10065000B800A999B900AA9ABA00AB9BBB000101E6
:100660000101010101010102020202020202020271
:100670000303030303030303040404040404040541
:100680000505050506060606060707070707080805
:100690000808090909090A0A0A0B0B0B0C0C0C0DB6
:1006A0000D0D0E0E0E0F0F0F10101111111212134F
:1006B000131414151516161717181819191A1A1BCA
:1006C0001B1C1D1D1E1E1F20202122222324242529
:1006D0002626272829292A2B2C2D2D2E2F30313262
:1006E00032333435363738393A3B3C3D3E3F404172
:1006F00042434445464748494A4C4D4E4F5051535A
:1007000054555658595A5B5D5E5F61626465666810
:10071000696B6C6D6F7072737577787A7B7D7E8094
:1007200082838587888A8C8E8F91939596989A9CE0
:100730009EA0A2A3A5A7A9ABADAFB1B3B5B7BABCF4
:10074000BEC0C2C4C6C9CBCDCFD1D4D6D8DBDDDFC5
:10075000E2E4E7E9EBEEF0F3F5F8FAFDFFFFAA7F3C
:10076000554011241FBECFEFDAE0DEBFCDBF04B687
:1007700003FE18C080910D0590910E05A0910F0504
:10078000B09110058730904BA740B04B59F41092B0
:100790000D0510920E0510920F0510921005E0E065
:1007A000F8E3099512E0A0E0B1E0E4E8FDE602C05C
:1007B00005900D92AA35B107D9F725E0AAE5B2E078
:1007C00001C01D92AD30B207E1F70E94EB030C941B
:1007D000C0360C940000ACE2B0E0E1EFF3E00C9422
:1007E0006C3585B7806885BF85B7806885BF84B75D
:1007F000877F84BF0FB6F894A895809160008861C8
:1008000080936000109260000FBE90E080E80FB609
:10081000F89480936100909361000FBE8FE891E19E
:1008200090935B0280935A020E94D81B0E947E1C08
:100830008091E20084608093E2007894809190033C
:100840008823A1F01091E9001F709091EC00892F8E
:10085000817090FD80E8182B1092E9008091E800EB
:1008600083FD0E9457231F701093E90082E084BD2E
:1008700093E095BD9AEF97BD80936E000E949D1FF7
:10088000811102C00E94F92003E211E0D8018D918C
:100890008D018F3F11F00E949C12B1E00F321B07B7
:1008A000A9F70FE211E083E3E82E81E0F82EF801CA
:1008B00081918F018F3F11F00E949C12E016F1068A
:1008C000B1F788E0E3E7F2E0DF01282F1D922A95D7
:1008D000E9F7ECE5F2E0DF011D928A95E9F780E0A7
:1008E00090E00E94CA35863E9E4F21F40E949D1FD3
:1008F000811168C066EE7EEF80E090E00E94FE35D8
:1009000060E082E090E00E94E03581E08093640244
:1009100061E083E090E00E94E03560E074E184E013
:1009200090E00E94FE3560E086E090E00E94E035B5
:1009300060E087E090E00E94E03540E050E0BA01DE
:1009400088E090E00E94F23560E084E290E00E944E
:10095000E03560E087E190E00E94E03560E08CE007
:1009600090E00E94E03560E08DE090E00E94E0358C
:1009700019821A821B821C821D821E821F82188687
:1009800048E050E068E170E0CE0101960E94D03569
:1009900040E050E0BA0180E290E00E94F23580E051
:1009A0000E947E1F0E94F92040E050E0BA018FE0D3
:1009B00090E00E94F23540E050E0BA0183E190E01F
:1009C0000E94F23582E090E00E94BC35809369027B
:1009D00084E090E00E94CA3590936702809366029B
:1009E0000E947D16EFEFF6E721E0E150F040204055
:1009F000E1F700C000000E947D168091730280FF25
:100A000008C06FEF7FEF80E090E00E94FE350E940B
:100A10006E1E83E090E00E94BC350E94582F0E9419
:100A200027271092A603EFEBF3E08FEC93E02FEF74
:100A30003FEF219331938E179F07D9F71092CF0381
:100A4000E8EEF3E088EF93E02FEF3FEF219331934F
:100A50008E179F07D9F781E08093FD0348E050E0AF
:100A600068E170E08EE993E00E94AC351092FD03DE
:100A700080919E038C7FF9F485E380939E0380919F
:100A8000200190912101A091220180939F039093D6
:100A9000A003A093A1038FE78093A2038FEF80931D
:100AA000A30348E050E068E170E08EE993E00E9423
:100AB000D0351092FD038091680281117EC088E0DC
:100AC00090E00E94C4354B015C0184E290E00E94FA
:100AD000BC35282F30E040E050E060E070E080E07E
:100AE00090E000E20E944436282939294A295B29EE
:100AF0002093D8043093D9044093DA045093DB0454
:100B00006093DC047093DD048093DE049093DF0433
:100B10002C7F09F042C025E02093D8041092D9041C
:100B20003FEF3093DA0436E93093DB041092DC04B3
:100B300030E04FEF56E960E00E94973188E090E0A6
:100B40000E94C4356B017C0184E290E00E94BC35B8
:100B5000282F30E040E050E060E070E080E090E07E
:100B60000E944436B22FA32FF42FE52F5B0197018B
:100B70008601BC29A12BF22BE32BB093D804A093C0
:100B8000D904F093DA04E093DB046093DC04B092C0
:100B9000DD048093DE049093DF040E947C31109288
:100BA0000C058091D80480FF05C060E0869586958D
:100BB0000E94543381E08093680280E091E090933A
:100BC0007B0380937A03DD24D39480919003853056
:100BD00009F061C000E4B3E0FB2E10E180919003C6
:100BE000853009F052C080919003843009F439C0F7
:100BF0000E9452298091FC0381110DC00E943B1775
:100C000010920F0180919E03837080930E010E94C9
:100C10008E26F092100131E03093FC0310927E0397
:100C200088E190E00FB6F894A895809360000FBE1D
:100C30000093600083B7817F846083BF83B7816046
:100C400083BF7894889583B78E7F83BF0FB6F8945F
:100C5000A895809160008861809360001092600088
:100C60000FBE80918F03882309F4B8CF0E947D16B0
:100C7000E3E7F2E081919191892B09F0DCC4ABE7C5
:100C8000B2E0AE17BF07B1F7A9CF0E947E2F0E9436
:100C90006C1F1092FC030E947D16EAE6F2E0F8A7B2
:100CA000EFA323E732E03CA72BA7D9012191319193
:100CB0008D919D918227932732E0E237F30719F057
:100CC000892BA1F305C0892B19F40E945916CCC0B9
:100CD000ABE72A2EA1E03A2E612CABA5BCA54D9026
:100CE0005D90BCA7ABA7EFA1F8A58081918192018F
:100CF000282739273AA729A7232B09F4A7C0E12CD5
:100D0000F12C88248394912C89A59AA58821992176
:100D1000892B09F48DC0820108211921E9A26AA258
:100D20000E94D31E9CA38BA331E03DA391E001154B
:100D3000110509F490E09EA349A15AA16BA17CA1E1
:100D40008DA10E94DC33012B51F0F101EE0DFF1D4E
:100D500080818F3F21F0782ECC24C39401C0C12C18
:100D60000C2D10E08091CF03D801A80FB11D199769
:100D7000ACF158E0A52EB12CA01AB10AB8016F5FF2
:100D80007F4F61537C4FA50180ED93E00E94B73601
:100D9000B801675F7F4F61537C4FA50188ED93E0F9
:100DA0000E94B736A501440F551FB801660F771F83
:100DB000675E7F4F61537C4F88EE93E00E94B736A9
:100DC000B8016F5E7F4F61537C4FA50180EE93E0C9
:100DD0000E94B73688E08C198093CF038091CF03AF
:100DE00090E0A72DB0E09D01220F331F25553E4F07
:100DF000AA0FBB1FBD0164557E4F41E0480F9C15F3
:100E0000A8F490E0FC01E153FC4FD9015C915183BF
:100E1000DB015C915187718A880F991FFC01E153B6
:100E2000FC4F128E118E91E0842FE7CF8093CF0379
:100E3000880C991CBFEFEB1AFB0AECE0EE16F104EC
:100E400009F062CFAFA1B8A54D925C926394EFA177
:100E5000F8A53296F8A7EFA3FCE02F0E311C24E092
:100E600062123BCF0E94C71E80910C05882309F4B3
:100E700065C080910B05E091D804E695E695E81BE6
:100E8000E0930705823059F4F0E0E058FE4FE4911A
:100E90000E2F10E0ACEAEA2EADE2FA2E2AC0853021
:100EA00061F4E695F0E0E358FE4FE4910E2F10E078
:100EB000FFE7EF2EFDE2FF2E1CC08B3059F4F0E06F
:100EC000E658FE4FE4910E2F10E0EEE2EE2EEDE23A
:100ED000FE2E0FC0883139F000ED17E072EFE72EDB
:100EE0007CE2F72E06C004EF11E063EFE62E6CE221
:100EF000F62E80910805882361F0109208050E9463
:100F0000D31E909306058093050510920A05109252
:100F100009050E94D31EE0910505F09106058E1B80
:100F20009F0B8F3F9F4750F40E0F1F1F1093060516
:100F30000093050585E095E0F70109950E94522987
:100F400086E0EFE6F3E08E010F5F1F4FD8010190BE
:100F50000D928A95E1F790907003A0907103F09044
:100F60007203B0907303E0907403109271031092B7
:100F700072031092730310927403A11003C0FF2038
:100F800009F44BC080916D0390916E030E94B81ECE
:100F90009C0190916803992309F46DC325313105B3
:100FA000E0F19F3F19F09F5F90936803AA2061F0E2
:100FB0000E9486201A1414F491E001C09FEF899FCB
:100FC000802D112480937103FF2061F00E94862000
:100FD0001F1414F09FEF01C091E0899F802D112410
:100FE00080937203809171038823B9F0809072031B
:100FF000882099F00E94A620882319F0809371031D
:1010000002C0D0927103882D0E94A620882319F077
:101010008093720302C0D0927203B11003C0EE201D
:1010200009F44BC080916B0390916C030E94B81E31
:101030009C0190916903992309F422C3213531055C
:10104000E0F19F3F19F09F5F90936903BB2061F02F
:101050000E9464201B1414F491E001C09FEF899F4B
:10106000802D112480937303EE2061F00E94642090
:101070001E1414F09FEF01C091E0899F802D112470
:1010800080937403809173038823B9F08090740374
:10109000882099F00E94A620882319F0809373037A
:1010A00002C0D0927303882D0E94A620882319F0D5
:1010B0008093740302C0D0927403809170038911ED
:1010C0001AC080917103882311F08A1114C0809195
:1010D0007203882311F0F8120EC0809174038823E4
:1010E00011F0E81208C090917303992331F081E068
:1010F000B91204C002C081E001C080E080FD15C0CB
:101100008091710381110FC08091720381110BC016
:1011100080917303811107C081E090917403911154
:1011200003C080E001C081E080FD0E943A209A82E5
:10113000AB82FC82BD82EE8286E0F801AFE6B3E0CE
:1011400001900D928A95E1F70E946C1F90917202B6
:10115000891721F0809372020E94C71E809190032C
:10116000843009F032CD83E08093E9008091E8007B
:1011700082FF2BCD8091E80085FF21C00E94F71BE4
:1011800081111BC050E2A52EB12C780109C08091BD
:10119000F100D7018D937D01B1E0AB1AB10869F080
:1011A0008091E80085FDF3CF8091E8008B778093F4
:1011B000E8000E94F71B882399F391E001C090E0BA
:1011C0008091E8008B778093E800992309F4FDCCA7
:1011D0002981822F90E0FC013197E331F10508F07D
:1011E00021C2EA5AFF4F0C9437361A828CE084C130
:1011F0008A81823009F436C250F4813009F012C27B
:101200000E94C71E9B838C837D836E830DC28330B7
:1012100041F0843009F006C21B821C821D821E82AE
:1012200003C26B81D80180E090E0262F30E0A90155
:10123000480F591F4430510508F0F6C1E62FE80F5A
:10124000F0E0EE0FFF1FED58FD4F408151811396E6
:101250005C93139714964C931497019612968E30C4
:10126000910529F7E1C18A81823019F0853051F06A
:10127000D9C16B817C818D819E810E943D360E9407
:10128000791FD2C18091D80480FF08C08E7F8093DF
:10129000D80410920C050E94553108C081608093DB
:1012A000D80460E0869586950E94543380919E0311
:1012B000E1E08E2780939E0310921001B5C14C810E
:1012C0006B818A810E940D289D83D3C12D813E812F
:1012D0003227232732274C816B818A810E94E6279F
:1012E000A3C10E94C420A0C18A81823009F07DC0C0
:1012F000283009F446C0293009F464C08B8182305B
:10130000F9F098F4813009F08FC18C81F6E98F9F54
:10131000C00111246FEF70E00E945835462F20E085
:101320006091DA048091D90429C0833019F18430A6
:1013300009F07AC120E04091DB046D818C811EC0F0
:101340009C818091D804911108C08E7F8093D8042D
:1013500010920C050E94553167C181608093D804BA
:1013600060E0869586950E94543360E08C810E94EF
:1013700054335AC18C818093DC0456C10E94893257
:1013800053C18B818230B1F050F4813009F04CC1EF
:101390008091DB042FEF829FC001112488C083302D
:1013A00071F0843009F040C18091D9048C83809120
:1013B000DA0491C08091D80480FF87C083C08091F7
:1013C000DC0487C02091D8043091D9044091DA041C
:1013D0005091DB046091DC047091DD048091DE04A7
:1013E0009091DF040E9497311FC1833009F01AC128
:1013F000283009F443C0293009F46FC08B81823052
:10140000D1F070F4813009F00FC14C8126E9429F80
:10141000412D112480919F0320E06091A0032AC0F8
:10142000833021F1843009F0FFC08C8120E04091AD
:10143000A1036D811FC08C8190919E03811109C011
:10144000892F837011F0109210019C7F90939E035E
:10145000EBC0292F237011F4109210019C7F916032
:1014600090939E0360E00E941729DEC08C818093D8
:10147000A203DAC090E00E94B628D6C08B818230E9
:10148000E1F050F4813009F0CFC08091A1033FEF2B
:10149000839FC00111240BC08330C9F0843009F050
:1014A000C3C080919F038C838091A00314C066E920
:1014B00070E00E9458356C83B7C080919E03982FCE
:1014C000937019F08695869504C080E002C08091E3
:1014D000A2038C83A9C08D83A7C048E050E068E1D7
:1014E00070E08EE993E00E94D0351092FD039CC01D
:1014F00080E151C0DA8287EF8B8396C0EA80FB805F
:10150000FE24EF24FE248C80912C5801C701875FB4
:101510009D4F9501201B310B2815390508F084C01B
:10152000A7EFEA16A1E0FA0628F40E94BC35F501FF
:10153000848303C0D50114961C92BFEFEB1AFB0AFB
:10154000EFEFAE1ABE0AE2CFEA80FB80FE24EF2462
:10155000FE248C80912C5801C701875F9D4F950117
:10156000201B310B2815390508F05EC0F7EFEF1688
:10157000F1E0FF0628F4D50114966C910E94E03545
:10158000BFEFEB1AFB0AEFEFAE1ABE0AE5CF0E94DF
:10159000B4204AC085E08A8347C0EA80FB80FE24ED
:1015A000EF24FE248C80912C5801C7018996950167
:1015B000201B310B28153905B8F5F0EEEF16F1E0D8
:1015C000FF0630F40E94BC35D50114968C9302C0FE
:1015D000F5011482FFEFEF1AFF0A2FEFA21AB20AE9
:1015E000E4CFEA80FB80FE24EF24FE248C80912C43
:1015F0005801C70189969501201B310B2815390523
:1016000098F430EEE31631E0F30628F4D501149691
:101610006C910E94E035BFEFEB1AFB0AEFEFAE1AB8
:10162000BE0AE7CF8FEF898340E250E0B80182E045
:101630000E940E1ECACA19BD82E189BD09B400FE0E
:10164000FDCF8091D8008F7D8093D8008091E000FD
:1016500082608093E0008091E00081FDFCCF0E94D9
:101660007E2FBCCA88E290E00E94BC351B821C829F
:101670001D828E83D9CF2333310508F094CCCDCC95
:101680002B30310508F0DFCC18CDA8E0B0E0EBE45A
:10169000FBE00C946C35FC018481882309F43BC683
:1016A0007F0121E0408151816281738195810E9497
:1016B000B7338C01F7018581882309F438C1C8014B
:1016C00097578038910508F054C1003108F03FC1A8
:1016D0008FEF93E00E94BC35811139C139E0A32E10
:1016E00032E0B32E002379F0A114F4E0BF0609F430
:1016F0002EC1C5010E94BC35811101C001502FEFE0
:10170000A21AB20AEFCFCE0101962C0188E0F201B5
:1017100011928A95E9F72AE0322E85010F5F1F4F5B
:10172000C5010E94BC3589831A82882309F40FC140
:10173000813009F041C06501F2E0CF0ED11CC80133
:101740000E94BC358A83882309F401C19FEF980F5A
:10175000933060F423E0A20EB11CC6010E94BC3598
:101760008B83882309F4F3C01C8229C0843031F5AF
:101770004E0133E0830E911C02E010E056018FEF22
:10178000A81AB80AC6010E94BC35F40181934F0122
:10179000882309F4DCC08C3741F4E2E0F0E0EC0F80
:1017A000FD1FE00FF11F10820AC00F5F1F4F650180
:1017B0000730110519F7CBC0580101C0560182014D
:1017C000F8012081222309F4A8CF213009F053C069
:1017D0008181813081F46801F2E0CF0ED11CF801E3
:1017E0008281893319F460E570E002C060E070E046
:1017F0000E943D3115C0823049F46801F2E0CF0EFD
:10180000D11CF80182810E94DE300AC0833051F47D
:101810006801F2E0CF0ED11CF80182810E94A23053
:10182000860182C0843019F00F5F1F4F7DC0F80120
:1018300022810E5F1F4F80E090E030E0205331099D
:101840002A30310568F4389EA001399E500D1124CC
:10185000C901840F951F0F5F1F4FF8012081EDCF45
:10186000009709F461C0EFE9FFE03197F1F700C09C
:1018700000000197F5CFE22FF0E0ED54FE4F2490E9
:10188000822F86958695869590E0FC01ED55FE4F5A
:1018900064902770712C022E02C0759467940A948C
:1018A000E2F7F1E06F227724FC01ED56FE4F8490C1
:1018B000912C022E02C0959487940A94E2F731E0AD
:1018C00083229924FC01ED57FE4FC490D12C02C015
:1018D000D594C7942A95E2F781E0C822DD246114EB
:1018E000710419F081EE0E94DE308114910419F028
:1018F00086EE0E94DE3060E070E0822D0E943D3175
:101900008114910419F086EE0E94A23061147104D2
:1019100019F081EE0E94A230C114D10429F060E0D8
:1019200070E08CE20E943D310F5F1F4F49CFF801FC
:10193000E851FC47E730F10508F041C103C106E278
:1019400021EE41EE6AE17CE7C7010E94B61F80915B
:10195000C602877009F4DFC4F7018581882309F482
:10196000DAC48091670282FFD6C482E00E941F140D
:10197000D2C4F801E851FC47E730F10508F4E2C0B1
:1019800010927703C8019057839708F003C184E051
:1019900090E00E94CA359093670280936602F80136
:1019A000E150F047E232F10520F4E759FF4F0C9483
:1019B0003736809166028160ACC080916702886092
:1019C000B4C0809166028260A4C08091660220C08B
:1019D0008091660288609DC0809167021EC08091E0
:1019E00067028260A2C080916602806192C080918D
:1019F000660280628EC08091660280648AC00E9406
:101A00007E2F80916602806884C080916602886023
:101A100084607FC0809167028260816086C080910F
:101A200066028E7F76C080916702877F7EC080913C
:101A300066028D7F6EC08091660220C08091660232
:101A4000877F67C0809167021EC0809167028D7F8B
:101A50006CC0809166028F7E5CC0809166028F7D33
:101A600058C0809166028F7B54C00E947E2F809167
:101A700066028F774EC080916602877F8B7F49C058
:101A8000809167028D7F8E7F50C08091660282FBBD
:101A9000222720F991E0922790FB82F990FB83F9AD
:101AA00038C080916702982F909591708E7F892B16
:101AB00090FB81F93AC08091660286FB222720F9CB
:101AC00091E0922790FB86F924C00E947E2F80919E
:101AD000660287FB222720F991E0922790FB87F985
:101AE00018C061E001C060E08EE090E00E94E03547
:101AF0001EC08091660284FB222720F991E0922784
:101B000090FB84F906C080916602982F909590FB17
:101B100080F9809366020BC08091670283FB2227C5
:101B200020F991E0922790FB83F9809367026091FE
:101B300066027091670284E090E00E94FE350E9488
:101B40007E2F05CFE557FF4F0C94373607E225EE81
:101B500045EE6BE17CE7F8CE06E221EE40EE68E16F
:101B60007CE7F2CE07E225EE44EE69E17CE7ECCEBD
:101B700006E221EE42EE6CE17CE7E6CE07E225EEDE
:101B800046EE6DE17CE7E0CE08E221E045EE6EE155
:101B90007CE7DACE0631FCE71F0709F00DC1809122
:101BA000D1028A7A91E009F490E090937B0281114E
:101BB0001EC069E28DE792E00E94081F15C0063141
:101BC0002CE71207B1F480917B0281116AC389E28C
:101BD000EDE7F2E023E832E09281891301C012823E
:101BE00031962E173F07C1F70E94E513B0CE65E38B
:101BF000E1CF8091D1028272D82EF801E052F847ED
:101C0000E531F10508F0CAC0EE56FF4F0C943736A7
:101C10008091D80480FF19C0282F2E7F2093D804EC
:101C20003091D9044091DA045091DB046091DC04D6
:101C30007091DD048091DE049091DF040E94973161
:101C400010920C050E94553108C081608093D80421
:101C500061E0869586950E94543390919E0381E0C1
:101C6000892780939E03109210018091FD0381606B
:101C70008093FD036CCE40EA53E36BEA73E30E946A
:101C8000502840E359E26BE379E262C04BEA53E348
:101C900060EA73E30E9450284BE359E260E379E283
:101CA00057C040E453E36AE473E30E94502841E0E4
:101CB00059E26CE079E24CC04AE453E360E473E338
:101CC0000E9450284CE059E261E079E241C046E2CE
:101CD00053E363E373E30E94502845EE58E263EF59
:101CE00078E236C043E353E366E273E30E94502890
:101CF00043EF58E265EE78E22BC04CE053E369E134
:101D000073E30E94502849EC58E267ED78E220C066
:101D100049E153E36CE073E30E94502847ED58E239
:101D200069EC78E215C04DEB51E367ED71E30E9479
:101D3000502842E256E260E376E20AC047ED51E302
:101D40006DEB71E30E94502840E356E262E276E2D6
:101D50008D2D0E945028FBCD61E081E00E9454331C
:101D600061E081E010C061E085E00DC064E082E0E8
:101D70000E943B2861E08DE006C06AE085E00E9499
:101D80003B2861E082E10E941729E1CD6DE08BE004
:101D900002C067E18EE00E943B28D9CD0737FCE7FF
:101DA0001F0711F481E005C008372CE7120719F569
:101DB00082E00E943F2F08C007373CE7130709F075
:101DC00072C281E00E944C2F43E062E081E00E94F9
:101DD0003716BDCD03309CE7190709F487C208F018
:101DE00069C20115FCE71F0709F472C201302CE734
:101DF000120709F481C2F7018581008111818823CE
:101E000049F0C8010E94902ED82E682FC8010E9468
:101E1000002F04C0C8010E94CC2ED82EB8018D2DF1
:101E20000E94B3120E94C112D82E192FA82EF701BA
:101E30000581C680C2949FE0C9228091C602877046
:101E400001F10023F1F0812F807F803469F080E27E
:101E50008D0D8830B0F0812F807E803229F4F1E042
:101E6000FD1578F4CC2069F08091670282FF09C0EB
:101E700082E00E941F148091C6028770BB24B39435
:101E80008111B12C912E92948FE09822892D90E0AF
:101E90008C30910508F0DDC1FC01E955FF4F0C9431
:101EA0003736812F807F1F70882311F01295107FA5
:101EB0000023B9F0112309F4BAC180E28D0D8830F6
:101EC00010F0A11006C09091D102192B1093D102ED
:101ED00005C09091C802192B1093C8020E94E51307
:101EE000A6C18D2D0E94A230112309F4B2C180E257
:101EF0008D0D883088F1AA2079F110959091C80253
:101F000019231093C8022BC0812F807F1F7080324D
:101F100011F01295107F8D2DAA2029F021E0A21634
:101F200009F44CC057C08091670282FD1BC000239A
:101F300069F0112339F09091D102192B1093D1023D
:101F40000E94E51380E00E94DE3083C180E00E94A1
:101F5000A230112309F47DC1812F0E94DE130E945B
:101F6000E51377C1002381F0CC20C1F131E0C31229
:101F700070C19091C702812F8923181709F469C194
:101F8000192B1093C70265C1C11063C1812F0E9434
:101F9000A52F8091C702912F982329F0912F90951A
:101FA00089238093C70280917C02912F982309F4A2
:101FB00050C11095812380937C024BC1002329F0EE
:101FC00085E08C1508F445C109C094E09C1508F41F
:101FD00040C115C0002331F0C11029C1812F0E94DA
:101FE000AC2F37C1CC2059F0893309F02FC1EFEF66
:101FF000F7EE23E0E150F0402040E1F725C1812FCA
:102000000E94A52F26C1812F86958695837019F091
:10201000813061F01EC1002321F08D2D912F93702E
:1020200002C080E090E00E94471F19C1002321F008
:102030008D2D912F937002C080E090E00E94221FAE
:102040000EC1602F8D2D0E94B62F09C1812F837084
:10205000A9F5011102C14D2D429546954770440FD7
:10206000440F8D2D8F7090E09C01042E01C0220F33
:102070000A94EAF7D4FE08C08FE090E001C0880F10
:102080004A95EAF7809501C080E016951695137081
:10209000123069F088F490916402113019F0822BAB
:1020A000892302C0922B892B0E94582FD6C0822BE5
:1020B000909164028927F8CF822BF6CF002319F084
:1020C000812F817001C08695882309F4C6C04D2DEB
:1020D000429546954770440F440F8D2D8F7090E0C8
:1020E0009C01042E01C0220F0A94EAF7D4FE08C016
:1020F0008FE090E001C0880F4A95EAF7809501C013
:1021000080E0169516951370123059F078F490917E
:102110006502113019F0822B892309C0922B892B7B
:1021200006C0822B90916502892701C0822B0E94F4
:10213000352F93C01F70002339F0812F0E944C2F40
:102140008D2D0E94AC2F89C08D2D0E94A52F812F2F
:102150000E943F2F82C08D2D32EFA31681F13A15D8
:1021600038F090EFA91659F0E1EFAE1619F15BC007
:10217000F3EFAF1659F124EFA216C1F054C00023BB
:1021800081F034E03C1508F464C01F7181E090E0F8
:10219000012E01C0880F0A94EAF790916502892701
:1021A00020C085E08C1508F454C0EFCF8091670201
:1021B00082FD1AC0002329F0812F8F7127C00023D0
:1021C000D9F3812F8F710E943F2F43C0002341F02C
:1021D0001F7181E0012E01C0880F0A94EAF701C047
:1021E00080E00E94352F35C0002399F01F71812FA8
:1021F0000E944C2F8091670282FF07C0E8E01E9F7B
:10220000C001112483608093C602812F0E944C2F4D
:1022100020C081E00E941F14F1E0FC15D0F482E0A0
:102220000E941F1416C0002321F0CC2029F28D2D0E
:102230008ACECC2031F2893349F42FEF37EE83E098
:10224000215030408040E1F700C000008D2D0E94F9
:10225000A23088EF890D843010F40E946C1FBB20DF
:10226000A9F08091C60280FD11C0F7011582869504
:10227000869586950E944C2FC7010E94450B809140
:10228000C6028695869586950E943F2F20E0F7012D
:102290004081518162817381848195810E94B7332D
:1022A0003AC085E395CC08378CE7180709F092CD42
:1022B00082E088CD0B353CE7130749F10C358CE7FC
:1022C0001807E9F00A351C4709F095CD81E020C0D8
:1022D0000E947E2FEFEFF4E32CE0E150F04020402D
:1022E000E1F700C000000E946E1E31CB6FEF7FEF60
:1022F00080E090E00E94FE350E946C3428CB8091F3
:10230000670282FB882780F991E0892701C080E07D
:102310000E94361470CD2896E2E10C94883580E056
:1023200008959091660292FF10C041E0282F247119
:10233000243009F040E031E0282F2871283009F0DE
:1023400030E0431711F02CE0822793FF10C041E0EA
:10235000282F2471243109F040E031E0282F287122
:10236000283109F030E0431711F02CE0822730913A
:10237000670230FF10C051E0282F2171213009F091
:1023800050E041E0282F2871283009F040E0541730
:1023900011F029E0822731FF10C041E0282F217180
:1023A000213109F040E031E0282F2871283109F06F
:1023B00030E0431711F029E0822794FD877E0895CD
:1023C0008238910569F1B0F48133910509F475C043
:1023D00048F48932910509F467C08A32910509F4FD
:1023E00071C008958533910509F459C08933910569
:1023F000B9F00895833E910589F138F4803E910546
:10240000D1F0823E910529F10895863E9105C9F1EA
:10241000873E9105D9F1843E910509F06CC027C033
:102420002091660220FD57C021FD55C02091670212
:1024300023FD5BC008958091660280FD48C08091B5
:10244000670280FF48C08091660284FD46C083EE2B
:1024500051C08091660282FF3CC0F5CF8091660238
:1024600082FD37C08091670280FD35C0ECCF80913E
:10247000670281FF36C08091660284FD2EC087EE20
:1024800039C08091660283FF2AC0F5CF8091660231
:1024900083FD25C08091670281FD23C0ECCF809130
:1024A000660285FD22C01FC08091660285FD1BC0AB
:1024B0008091670283FF19C00AC08091660286FD81
:1024C00016C017C08091660286FD13C010C089E354
:1024D00011C082EE0FC080EE0DC080E00BC086EE12
:1024E00009C084EE07C085E305C089E203C08AE223
:1024F00001C081E390E008952091C50290918C0283
:1025000057E02917A9F030E0529FF001539FF00DDA
:102510001124E357FD4F7181761306C07081781343
:1025200003C07581741306C02F5F3F4F2770E9CF3A
:1025300080E0089581E00895F894E82FE295EF7027
:10254000F0E031A1282F2F7081E090E001C0880FCA
:102550002A95EAF7982F9095932391A392A1892B1E
:1025600082A378940895743048F46C3038F4853040
:1025700028F4462F672F0E940D28089580E090E0F0
:1025800008951F93CF93DF930E94E011EC01C115D2
:1025900080E5D807E8F5C11590E4D90708F0A8C090
:1025A000C03ED10530F5CD3CD10508F094C0C83A05
:1025B000D10578F4C53AD10508F083C0C130D10502
:1025C00009F47CC008F4F2C0C430D10508F0F1C0B1
:1025D000EDC0C33CD10508F0E9C0C85AD0E0CC0F2B
:1025E000DD1FCA5CDE4F0990D881C02DCE019464F6
:1025F000E1C0C11580E2D80708F0CBC0C11591E059
:10260000D90708F06BC0C83ED10508F4D2C0CEC0CF
:10261000C03682E5D80728F5C03492E5D90708F01E
:1026200079C0C03282E5D80708F06CC0C11592E5C8
:10263000D90708F481C04C2F4695469580E2489F03
:10264000A0011124C37021E030E0C90102C0880F4D
:10265000991FCA95E2F7EA01C82BD92BCE019D68D4
:10266000A9C0C03A82E5D807B8F48C2F8F71C03862
:1026700092E5D90708F07BC08695869590E2899F00
:1026800090011124C37081E090E002C0880F991F6F
:10269000CA95E2F79A6868C0C03C82E5D80708F49A
:1026A0006DC0C03E92E5D90708F080C0CF71DD272C
:1026B000DC2FCC27CE01806F906A7CC081E090E057
:1026C00079C0C55AD0E0CD5CDE4F8881C82FD0E0FC
:1026D000CE0190646FC0CE0190656CC08D2F0E94BA
:1026E0009111182FCE0199270E94E0111F715CC033
:1026F000CE0199270E94E011CC27DF70D06A8C2B85
:102700009D2B58C0CF71D0E0DC2FCC27CE01816F3C
:10271000906A50C08C2F8F718695869590E2899F24
:1027200090011124C37081E090E002C0880F991FCE
:10273000CA95E2F79C6818C08C2F8F710E94911186
:1027400095E0D695C7959A95E1F7CF70D0E0DC2F4C
:10275000CC27282F30E084FF05C084E0220F331FF0
:102760008A95E1F7D069CE01822B932B23C090E0AC
:10277000D82FCC27CE01846F906A1CC08C2F8F710C
:102780000E9491118F7190E0D82FCC27CE019062DA
:1027900011C08D2F8F710E949111182FCE01992792
:1027A0000E94E0111F719062912B04C080E090E0C4
:1027B00001C0CE01DF91CF911F9108958095909136
:1027C000D10289238093D10208959091D102809102
:1027D000C802892B9091C702992379F0892BEFE7E2
:1027E000F2E027E090E0215029F031913323D9F332
:1027F0009F5FF9CF91111092C70280937D0248E04C
:1028000050E069EC72E08DE792E00E94AA36892BD5
:10281000A9F088E0EDE7F2E0A9ECB2E001900D92BA
:102820008A95E1F7E0917A03F0917B03309731F0DC
:102830000280F381E02D8DE792E009950895909153
:10284000C602809589238093C602282F277069F4D9
:10285000981759F09091670292FF07C08695869568
:1028600086950E943F2F1092C602089590916702AC
:1028700092FB222720F9281779F080FB92F9909398
:102880006702609166027091670284E090E00E94A6
:10289000FE3582E00E941F1408958091C502909138
:1028A0008C02891719F08F5F8770FBCF0895CF9343
:1028B000DF9380918B0282958F7009F04EC08091DA
:1028C0008A02882309F449C08091C50240918C0294
:1028D0005091860260918502C0918702D091880252
:1028E00077E08417D1F190E0789FF001799FF00DA7
:1028F0001124DF01A357BD4F14962C911497222366
:1029000049F111962C911197251324C02C9126136F
:1029100021C015962C91159721111CC012962D914E
:102920003C9113972C1B3D0B283C310598F480916A
:102930008B028F70806180938B02ED56FD4F8081FA
:102940008F708061808385E892E00E94450B0E9431
:102950004D1403C001968770C4CFDF91CF910895C5
:10296000A4E1B0E0E6EBF4E10C9472358C0186E072
:10297000F801DE011F9601900D928A95E1F7F801AA
:102980008481E58095E8892E92E0992E90918902C4
:10299000911120C0882309F463C1EE2009F442C0DC
:1029A000C8010E945B2FF82E8823E1F187E0F8012F
:1029B000D40101900D928A95E1F7809189028130CE
:1029C00031F480918502909186020E94BF2E0E9470
:1029D000571448C1F801D080C180A280B380F09024
:1029E0008A022091870230918802FF2009F4E7C013
:1029F000A501421B530B483C510508F09DC088239C
:102A000009F430C180918B02282F207F909186029B
:102A1000222361F09C1509F460C0C8010E945B2F5D
:102A2000811163C0C8010E94450B1AC19C1113C0DB
:102A3000909185029D110FC0E1100DC08F708061D3
:102A400080938B0285E892E00E94450B80918B0277
:102A5000F801868303C1E1103AC040E06C2D8D2D52
:102A60000E947C1240E06C2D8D2D0E947C12E82E7D
:102A70008111F4C0DF86C88A8F8598890E94BF2E95
:102A8000292F22952F70243020F49F70223028F0B7
:102A900009C02A50223080F014C0992349F08111D6
:102AA00007C013C0992321F0F8019681907F69F047
:102AB000805E883030F409C0803F38F0815F833019
:102AC00020F0C8010E94450BEF2CFE2CCBC080915A
:102AD0008B02816080938B02C1C0909185029D1111
:102AE0009CCFE1109ACFF80198C0EE2009F49ACF5C
:102AF00020918B02822F82958F7090E002978CF04C
:102B0000809185029091860299878887BB86AA86E4
:102B1000809189028C871D862E87CE0108960E949F
:102B2000450B87E0F801A5E8B2E001900D928A9587
:102B3000E1F70E94571494C090918B02292F207FB7
:102B400051F485E892E00E94450B87E0F401119270
:102B50008A95E9F783C0882309F484C080918602AE
:102B60008C110CC0809185028D1108C0E11006C047
:102B7000F8019683C8010E94450B6AC0C8010E94F3
:102B80005B2F882309F44ECFEE2009F44BCF209120
:102B90008B02822F82958F7090E0029714F28091C1
:102BA0008502909186029A838983BC82AB82809150
:102BB00089028D831E822F83CE010196B0CFA21A87
:102BC000B30AF8ECAF16B10408F042C0882309F448
:102BD00047C0FE2CEE2009F425CF809186028C118F
:102BE00029C0809185028D1125C090918B0290FDA6
:102BF00018C0892F82958F70282F30E0211531055C
:102C000081F0F80196832F30310541F08F5F982FC6
:102C10009295907F86818F70892B8683C8010E9450
:102C2000450B87E0F801A5E8B2E001900D928A9586
:102C3000E1F718C0C8010E945B2F811172CF80910B
:102C40008B02816080938B02C8010E94450B0AC0F1
:102C500087E0F40111928A95E9F704C0F12C02C0D3
:102C6000FF24F3948F2D6496ECE00C948E359091B4
:102C7000650221E030E0F90101C0EE0F8A95EAF724
:102C8000D90102C0AA0FBB1F6A95E2F7BD016E2BE6
:102C900001C0220F4A95EAF7892F8623681303C0E3
:102CA000892F822B03C02095822F89230E94352FE4
:102CB0000895A6E0B0E0EFE5F6E10C947A350E94C5
:102CC000D31E8C018091D2029091D302081719076C
:102CD00081F019821A820E94D31E682F49815A817D
:102CE000792F80E090E00E94DC331093D3020093B0
:102CF000D2022696E4E00C949635A8E0B0E0E3E832
:102D0000F6E10C947235AE014F5F5F4F7A0188E0B7
:102D1000DA011D928A95E9F703E211E0CC24C3940D
:102D2000D12CAA24A394B12C4E01B9E08B0E911C96
:102D3000F80180818F3F09F44AC0F894E82FE295AA
:102D4000EF70F0E021A18F70A50102C0440F551F64
:102D50008A95E2F7CA01922F982B91A392A18095B0
:102D6000892382A3789400C06FE271E0F701A60185
:102D700040955095DB012D91BD012F3FA9F0822F89
:102D800082958F7090E0DC0190968C9190E02F708E
:102D900002C0959587952A95E2F780FD05C0808150
:102DA00091818C299D2904C0808191818423952360
:102DB0009183808332968E169F06E1F6F80180811A
:102DC0008F3F11F00E949C12F0EAFA95F1F7CC0CBB
:102DD000DD1C0F5F1F4F41E00F32140709F0A8CF31
:102DE00048E050E0B7018CE592E00E94AA36892BBA
:102DF00091F088E0F701ACE5B2E001900D928A9580
:102E0000E1F781E08093D6020E94D31E9093D50211
:102E10008093D4020CC08091D602882341F0809127
:102E2000D4029091D5020E94B81E059710F480E05C
:102E300018C048E050E06CE572E083E792E00E9441
:102E4000AA36892B59F088E0ECE5F2E0A3E7B2E07E
:102E500001900D928A95E1F781E001C080E0109227
:102E6000D6022896ECE00C948E350E940E27089529
:102E70000E94B7260895A0E0B0E0E1E4F7E10C94E9
:102E80007535C82F80910F018C130DC020919E03C2
:102E9000237030E040910E0150E081E024173507A7
:102EA00019F480E001C081E0817080930D01809170
:102EB000A30390910C01981739F080930C0140E026
:102EC00060E080E00E943517C43109F042C085E619
:102ED0009BE205C0C63108F01CC183E39BE20E945F
:102EE0004E2207C0C83009F01AC185ED9CE20E944D
:102EF0000523D82F1AC0C33009F011C180910B01EE
:102F00000E944729092FD82FD090A003C090A10379
:102F10002091A20310E4129F112D1124D01708F460
:102F2000D5C0D1E00F3208F067C080910B018F5FF0
:102F300080930B01D111EFC382E080931001809147
:102F40000D018111E8C3C111E6C383E08093100134
:102F5000E2C3C53108F072C1C93019F487EB9CE2B5
:102F6000C6CFCA3008F02FC1C43009F047C08091E5
:102F70000B010E944729092FD82FD090A003C090A1
:102F8000A1032091A20310E4129F112D1124D01748
:102F900008F0C7CFED2EF12CF701E75FFD4F9081D0
:102FA00080910C018923D9F0F701EE0FFF1FE55541
:102FB000FE4F6081169FB0011124B5E075956795AD
:102FC000BA95E1F780919F03680F7D2D8C2D0E94AB
:102FD000F131462F282F672FC7010E943817DF5F76
:102FE000D6CFC130A8F580910D01882329F040E0AB
:102FF00060E080E00E943517D0E097CFC53008F040
:1030000094C0C13071F780910B010E944729192F9C
:10301000D82F60919F037091A0038091A1030E941B
:10302000F131062FF72EE82ED117A0F5ED2FF0E0A5
:10303000DF01A75FBD4F8C9190910C01982331F077
:103040002E2D402F6F2DCF010E943817DF5FECCF60
:10305000C23009F050CF80910B010E944729192FEF
:10306000D82FF090A0030091A103E0909F03B70137
:10307000802F0E94F131D62EC72EB82E6091A20368
:103080006E0D7F2D802F0E94F131062FF72EE82E36
:10309000D11728F0D1E01F3208F447CFADCF8D2FE4
:1030A00090E0FC01E75FFD4F308120910C0123236C
:1030B00059F030FF04C02E2D402F6F2D03C02B2D53
:1030C0004D2D6C2D0E943817DF5FE2CFED2EF12CD5
:1030D000F701E75FFD4F908180910C018923B9F0E2
:1030E000F701EE0FFF1FE558FE4F81A982958F7003
:1030F00060919F03819F600D11247D2D8C2D0E9476
:10310000F131462F282F672FC7010E943817DF5F44
:1031100005CFC73109F400C1C83109F43CC1809121
:103120000B018F5F80930B0107CFC63059F48DEFF1
:103130009BE205C0C73009F0D5CE81ED9BE20E942D
:103140000A22D7CEC630B0F780910B010E944729E2
:10315000192FD82FF0909F030091A003E090A103B6
:103160006091A20366956695669580919A03909109
:103170009B030E94862E0E94D22D805887FD819548
:10318000880F282F3E2D239F212D1124822F6F2D54
:10319000702F0E94F131062FF72EE82ED11708F07C
:1031A00079CFED2FF0E0DF01A75FBD4F8C919091BB
:1031B0000C01982331F02E2D402F6F2DCF010E944E
:1031C0003817DF5FEBCFCE3019F48DEB9BE2B7CF32
:1031D000CF30B8F4CB3019F480E89CE204C0CB3097
:1031E00028F48CE99CE20E949E2283CECC3019F414
:1031F0008FEC9BE2A4CFCD3009F091CF86EC9BE21F
:103200009ECFC13119F48DE59EE271CEC23158F4E2
:10321000CF3019F482EA9BE292CFC03109F07FCF20
:1032200083E99BE2E0CFC23119F48FE69CE25FCEE6
:10323000C33109F074CF8BE59CE2D5CFCF31F1F4E7
:103240008091A60321E0382F321B08F430E0832F51
:103250006DEB7AE210C0C53208F002C2C13209F04B
:10326000E6C18091A60321E0382F321B08F430E03C
:10327000832F65E87AE20E9409213BCEC03208F034
:10328000D0C1C93109F03FC080910B010E9447298C
:10329000192FD82FF090A0030091A103E0909F0375
:1032A0006091A20366956695669580919A039091C8
:1032B0009B030E94862E0E94D22D805887FD819507
:1032C000880F682F2CE0629F612D11246E0D7F2DD9
:1032D000802F0E94F131062FF72EE82ED11708F02B
:1032E000D9CEED2FF0E0DF01A75FBD4F8C9190911B
:1032F0000C01982331F02E2D402F6F2DCF010E940D
:103300003817DF5FEBCFCA3108F084C0C63109F04F
:10331000E1CD85EF9AE2E3CD80910B010E94472930
:10332000F92E90910D01911121C06091A20320E12D
:10333000620F08F46FEF80919A0390919B030E94B3
:10334000862E6AE070E00E945835892BF1F40E94C5
:10335000172E9FE2899F9001112460910C01832F09
:10336000932F990F990B0E947B280FC0082F10E014
:10337000CF2CD12C0C151D0544F460910C01C80113
:103380000E947B280F5F1F4FF5CFD1E0EEE2EF15D3
:1033900008F0CBCD31CE80910B010E944729F92E48
:1033A00090910D01911121C06091A20320E1620F63
:1033B00008F46FEF80919A0390919B030E94862EF0
:1033C00065E070E00E945835892BF1F40E94172EB9
:1033D000FFE28F9F9001112460910C01832F932FA6
:1033E000990F990B0E9457280FC0082F10E0CF2C7F
:1033F000D12C0C151D0544F460910C01C8010E94EC
:1034000057280F5F1F4FF5CFD1E02EE22F1508F0A0
:103410008CCDF2CDCC3109F0EAC0409164035091DB
:103420006503609166037091670380919A039091A0
:103430009B03A0919C03B0919D0384179507A60759
:10344000B70708F4D9CD80910D01811107C0809193
:103450000B010E944729092FD82F52C040E060E09D
:1034600080E00E943517F7EDEF2EF2E0FF2E00E02E
:1034700010E00E94172E81FF05C0F7011082118213
:1034800012821EC00E94172ED82F0E94172EF0E81D
:103490008F9FC00111247FE7790F6801CC0CDD1CE0
:1034A000C601800F911F9C0129523D4F69016D2F6C
:1034B0008091A1030E94F131F601608371838283C0
:1034C0000F5F1F4FF3E0EF0EF11C0F32110589F66D
:1034D000BECF8D2F90E0FC01E75FFD4F3081209142
:1034E0000C01232361F0FC01EE0FFF1FE80FF91F11
:1034F000E952FD4F2281408161810E943817DF5FD0
:10350000D01738F3D1E00F3208F0D0E00F3208F4D2
:103510000CCD20E010E001501109822F90E08017BF
:103520009107C4F4DC01AA0FBB1FA80FB91FA95251
:10353000BD4F0196FC01EE0FFF1F8E0F9F1FFC0178
:10354000E952FD4FC080D180E280CD92DD92EC92B5
:103550002F5FE3CF0E94172E7801EE0CFF1C81FF36
:1035600009C00E0D1F1DF801E952FD4F1082118296
:10357000128218C00E94172ED82E0E94172E20E803
:10358000829FC00111247FE7790F0E0D1F1D095284
:103590001D4F6D2D8091A1030E94F131F8016083D0
:1035A000718382832091A20330E1230F08F42FEF6F
:1035B00060E1822F90E00E94862EBC0188EB9BE0A8
:1035C0000E94583580919A0390919B03A0919C038F
:1035D000B0919D03860F971FA11DB11D80936403B9
:1035E00090936503A0936603B09367039ECCCD319F
:1035F00058F4CA3119F483EF9DE2A1CDCB3109F023
:103600008ECD84EE9AE29BCDCD3129F48DED9AE2F8
:103610000E94A0216ECCCE3109F081CD86ED9AE2D8
:10362000F7CFC43209F017CE63E57AE204C0C132A5
:1036300020F46DEB7AE280E01ECEC23219F465E828
:103640007AE2F9CFC33209F06ACD8091A60321E076
:10365000382F321B08F430E0832F63E57AE20BCE7B
:10366000C73259F48091A60321E0382F321B08F4A9
:1036700030E0832F65E27AE2FECDC83298F4C5329D
:1036800059F48091A60321E0382F321B08F430E072
:10369000832F6BE37AE2EFCDC63209F040CD6BE3C6
:1036A0007AE2C9CFC83219F465E27AE2C4CFCF3FDB
:1036B00009F035CD80919A0390919B03A0919C03D2
:1036C000B0919D0388279C70AA27BB272AE0B69556
:1036D000A795979587952A95D1F782309105A105F1
:1036E000B10571F083309105A105B10569F040E0A5
:1036F0000197A105B10511F060E008C064E102C0C6
:1037000044E160E080E003C044E164E184E10E94C0
:10371000351782E01BCCCDB7DEB7E9E00C949135CC
:1037200008958091850308951F920F920FB60F920E
:1037300011242F933F934F935F936F937F938F93B6
:103740009F93AF93BF93CF93DF93EF93FF93C0917A
:10375000E900CF708091EC00D82FD17080FDD0E8C7
:103760001092E9008091F000877F8093F0007894B8
:103770000E9457231092E9008091F00088608093A6
:10378000F000CD2BCF70C093E900FF91EF91DF9156
:10379000CF91BF91AF919F918F917F916F915F91E9
:1037A0004F913F912F910F900FBE0F901F90189542
:1037B000E8EDF0E080818E7F80831092E20010922D
:1037C000DA001092E100A0EEB0E08C9181608C9361
:1037D00080818F77808319BCA7EDB0E08C918E7FBC
:1037E0008C9380818F7E8083109283030895209133
:1037F000E4003091E50095E64091EC00842F817063
:1038000040FF23C08091E80080FD1DC0809190039F
:10381000882399F0853099F08091EB0085FD11C0E7
:103820004091E4005091E5002417350729F39150A9
:1038300011F09A01E1CF84E0089582E0089583E0D9
:10384000089581E0089580E008954091E80042FFE6
:10385000DDCF08958091920387FF11C08091E80029
:1038600082FD05C0809190038111F8CF11C0809135
:10387000E8008B770BC080919003882349F08091FA
:10388000E80080FFF8CF8091E8008E778093E80011
:103890000895982F973068F59093E900981739F0BC
:1038A0007091EC002091ED005091F00003C0242FA6
:1038B000762F50E021FD02C09F5FECCF3091EB00EE
:1038C0003E7F3093EB003091ED003D7F3093ED0073
:1038D0003091EB0031603093EB007093EC0020935B
:1038E000ED005093F0002091EE0027FDE5CF80E041
:1038F00008958F708093E90081E00895A0E0B0E022
:10390000E4E8FCE10C947635C8EDD0E088818F7E48
:103910008883E7EDF0E080818160808384E082BF6E
:1039200081E08093830388818E7F888302EE10E09C
:10393000F80110821092DA0081EEC82ED12CF60127
:10394000108288818F7788838881806888838881C6
:103950008F7D888319BC109290031092910310926E
:103960008F0310928E0390EEE92EF12CF7018081E7
:103970008B7F808388818160888342E060E080E083
:103980000E94491CF60180818E7F8083F80180812E
:1039900081608083808188608083F70180818E7F51
:1039A0008083888180618883CDB7DEB7E8E00C949E
:1039B00092351F920F920FB60F9211242F933F93BF
:1039C0004F935F936F937F938F939F93AF93BF9327
:1039D000EF93FF938091E10082FF09C08091E200A4
:1039E00082FF05C08091E1008B7F8093E100809190
:1039F000DA0080FF2AC08091D80080FF26C0809125
:103A0000DA008E7F8093DA008091D90080FF18C0A1
:103A100080E189BD82E189BD09B400FEFDCF81E06E
:103A2000809390038091830381110FC00E94D81B63
:103A30000E947E1C8091E20084608093E20005C0B9
:103A400019BC10929003109283038091E10080FFD3
:103A500017C08091E20080FF13C08091E2008E7F4A
:103A60008093E2008091E20080618093E200809187
:103A7000D80080628093D80019BC85E080939003C1
:103A80008091E10084FF30C08091E20084FF2CC06F
:103A900080E189BD82E189BD09B400FEFDCF80913E
:103AA000D8008F7D8093D8008091E1008F7E809335
:103AB000E1008091E2008F7E8093E2008091E2003D
:103AC00081608093E20080919103882311F084E06B
:103AD00007C08091E30087FD02C081E001C083E060
:103AE00080939003809190038091E10083FF27C031
:103AF0008091E20083FF23C08091E100877F809363
:103B0000E10082E080939003109291038091E100A4
:103B10008E7F8093E1008091E2008E7F8093E200AF
:103B20008091E20080618093E20042E060E080E00A
:103B30000E94491C8091F00088608093F000FF9102
:103B4000EF91BF91AF919F918F917F916F915F9115
:103B50004F913F912F910F900FBE0F901F9018958E
:103B600020919803309199032617370748F0611583
:103B7000710539F42091E8002E772093E80001C008
:103B8000B901FC0120E06115710579F18091900384
:103B90008823F1F18530F1F18091E80083FD3CC08C
:103BA0008091E80082FD2EC08091E80080FFEBCF7D
:103BB0002091F3008091F20090E0922B6115710545
:103BC00051F08830910538F421912093F100615033
:103BD00071090196F3CF21E0089709F020E0809168
:103BE000E8008E778093E800CECF2111CFCF0AC0B6
:103BF00080919003882361F0853061F08091E80026
:103C000083FD0AC08091E80082FFF2CF80E0089532
:103C100082E0089583E0089581E008950F931F9353
:103C2000CF93DF938B01EA0190919003943079F563
:103C30008F708093E9008FEF9091E800815095FD9F
:103C400006C095ED9A95F1F700008111F5CF8091AE
:103C5000E80085FF1CC00E94F71B882361F080915B
:103C6000E8008E778093E80012C0F80181918F01FF
:103C70008093F1002197209791F38091E80085FDD2
:103C8000F4CF8091E8008E778093E800E4CFDF9155
:103C9000CF911F910F91089543E050E0BC0184E063
:103CA0000E940E1E089546E050E0BC0184E00E9490
:103CB0000E1E0895CF93DF93EC0148E050E0BC0165
:103CC00081E00E940E1E88E0FE01A6E8B3E00190AC
:103CD0000D928A95E1F7DF91CF91089581E080936D
:103CE000E00080E28093D8001092C9008FE19EE44A
:103CF0000197F1F700C0000087E090EBDC018093B2
:103D00000D0590930E05A0930F05B09310059CE050
:103D100088E10FB6F894A895809360000FBE909349
:103D20006000FFCF78941F920F920FB60F9211246C
:103D30008F939F93AF93BF9380917F039091800364
:103D4000A0918103B09182030196A11DB11D8093C2
:103D50007F0390938003A0938103B0938203BF916C
:103D6000AF919F918F910F900FBE0F901F9018955C
:103D70009C014FB7F89480917F0390918003A091AC
:103D80008103B09182034FBF821B930B08952FB71D
:103D9000F89460917F0370918003809181039091EA
:103DA00082032FBF08952FB7F89480917F039091DD
:103DB0008003A0918103B09182032FBF08951F92C9
:103DC0000F920FB60F9211248F939F93AF93BF93CF
:103DD00080917E03811113C080917F0390918003B5
:103DE000A0918103B09182034196A11DB11D8093E2
:103DF0007F0390938003A0938103B0938203BF91CC
:103E0000AF919F918F910F900FBE0F901F901895BB
:103E10009C01FC0132969FEF80E04191461789F0AA
:103E20009F3F19F4411101C0982F8F5F8630A9F789
:103E30009F3F39F0F901E90FF11D97FDFA95628373
:103E400008950895A3E0B0E0E8E2FFE10C947C352A
:103E500020917C0330917D0328173907A1F09093BE
:103E60007D0380937C03E0917A03F0917B0330978C
:103E700051F024E029839B838A830084F185E02D1F
:103E8000CE01019609952396E2E00C949835A3E0C3
:103E9000B0E0EDE4FFE10C947C35209178033091A3
:103EA000790328173907A1F0909379038093780359
:103EB000E0917A03F0917B03309751F023E029835E
:103EC0009B838A830084F185E02DCE0101960995BC
:103ED0002396E2E00C949835E0917A03F0917B030D
:103EE000309729F00190F081E02D0995089580E048
:103EF000089588E290E00E94E0350895CF93C82F9E
:103F0000811102C06FEF01C064E285E290E00E947F
:103F1000E035C11102C06FEF01C063E086E290E0BE
:103F20000E94E035C11102C06FEF01C060E387E27B
:103F300090E00E94E035CF91089585E290E00E94E4
:103F4000BC35843281F486E290E00E94BC35833037
:103F500051F487E290E00E94BC3591E0803309F093
:103F600090E0892F01C080E0817008950F931F9326
:103F7000CF93DF93C42FD22FFC0185818823B1F02A
:103F8000409377030E94D31E90937603809375032A
:103F900080E28C0F883008F068C0C77081E001C0F3
:103FA000880FCA95EAF70E94AC2F5FC08091770313
:103FB00048133DC080917503909176030E94B81E0E
:103FC000883C9105A0F510E21D0FCD17E9F080E2C5
:103FD0008C0F883040F4C77081E001C0880FCA950B
:103FE000EAF70E94A52F183078F581E09D2F977091
:103FF00001C0880F9A95EAF70E94AC2F093351F55A
:1040000060E570E089E329C0093319F460E570E0E8
:1040100002C060E070E0802F0E943D31183028F52A
:10402000D77081E001C0880FDA95EAF70AC080E214
:104030008C0F8830D0F4C77081E001C0880FCA951A
:10404000EAF70E94A52F11C0093351F460E570E032
:1040500089E309C060E070E0802F0E943D31E0CF2D
:1040600060E070E0802F0E943D31DF91CF911F9181
:104070000F9108950E94D31E20917103211104C055
:1040800020917203222321F090936E0380936D039D
:1040900020917303211104C020917403222321F085
:1040A00090936C0380936B03E0917A03F0917B0310
:1040B000309749F082E080936F030680F781E02D0E
:1040C0008FE693E00995089580916A0380FD16C0FC
:1040D00081FD16C082FD18C080916903882391F08C
:1040E000883290F428E0829FC001112468E270E0D9
:1040F0000E940436862F672B29F007C082E00895BE
:1041000084E0089581E0089588E0089580916A032D
:1041100080FD14C081FD14C082FD16C0809168032B
:10412000882381F08E3180F420E5829FC001112424
:104130006EE170E00E940436862F089584E10895B0
:1041400088E2089588E0089580E50895282F35EBEA
:104150002303C001112497FF03C08058910902C0B6
:1041600080589F4F892F0895CF93DF93C9E0D2E005
:1041700060E0CE010E94E0352196C11584E0D807A9
:10418000B9F7DF91CF910895A0E0B0E0EAECF0E25A
:104190000C947435A12CE12CF12CB12C00E010E032
:1041A000C0E0D0E06701C00ED11EFE01EE0FFF1F80
:1041B000EC0DFD1DED5CFD4F259134914C2F6B2DC9
:1041C0008A2D0E94E6272196CC30D10571F7085E32
:1041D0001F4FB39484E0B812E3CF80E6E80EF11CE1
:1041E000A39485E0A812D9CFCDB7DEB7EAE00C944E
:1041F000903580E00E947E1F60E070E0CB010E945D
:10420000791F0E94C4200E94B42081E00E947E1F7A
:104210000895A7E0B0E0EFE0F1E20C946C35282EB1
:104220004B0180910B010E944729392E8F832091E9
:10423000A60329839F81931508F079C03F81632EDF
:10424000712CF301E75FFD4F908180910C01892370
:1042500009F469C040909F035090A003122D1E8264
:10426000C301880F991FDC01A555BE4FBB83AA83EC
:10427000C301880F991FFC01E455FE4FFD83EC83B9
:10428000F9811F1708F03EC0E12EF12CAA81BB81F5
:10429000CC90D12CF701EA55FC4F8181C81AD10886
:1042A000AC81BD81AC90B12C8185A81AB108CC9CA1
:1042B0009001CD9C300D300D1124AA9CC001AB9C07
:1042C000900D900D1124820F931F0E942C2E082F09
:1042D0006091A20321E0620F08F46FEFF701EE0F87
:1042E000FF1FEA55FC4F818D928D0E94862E7C0126
:1042F0009501A601B2018E81F40109952B018E83EF
:104300001F5FBECF2091A1038E81382F329F312DA8
:104310001124832FB2010E94F131462F282F672FDD
:10432000C3010E9438178F818F5F8F8383CF81E015
:10433000AEE2A31508F480E02796E2E10C948835FC
:10434000A0E0B0E0E6EAF1E20C947635EC01809171
:104350000B010E944729092F182F2091A20331E059
:10436000230F08F42FEF30E040E050E06FEF7FEFD5
:1043700080E090E00E9418367901101708F041C0E3
:10438000C12ED12CF601E75FFD4F908180910C0189
:104390008923A9F19091A603915097FD15C0492F4B
:1043A000092E000C550BFA01EA55FC4F81891813B0
:1043B000F3CF440F551FFA01EA55FC4F218D328D82
:1043C0002E153F0548F701C097016091A20341E017
:1043D000640F08F46FEFC9010E94862EAC01609152
:1043E0009F037091A0038091A103FE0109950E9493
:1043F000F131462F282F672FC6010E9438171F5F03
:10440000BCCF81E00F3208F080E0CDB7DEB7E8E046
:104410000C949235A0E0B0E0E0E1F2E20C94773544
:104420008C0180910B010E944729EC016091A2034D
:104430006695669521E0620F08F46FEF80919A030C
:1044400090919B030E94862ED82ECD17F0F4EC2E6F
:10445000F12CF701E75FFD4F908180910C018923DA
:1044600091F060919F037091A0038091A1032D2D85
:104470004C2FF80109950E94F131462F282F672F04
:10448000C7010E943817CF5FE0CF81E0DF3208F02C
:1044900080E0CDB7DEB7E7E00C949335A0E0B0E064
:1044A000E4E5F2E20C9473356C0180910B010E94FB
:1044B0004729192FC82F6091A203669566958091B0
:1044C0009A0390919B030E94862ED82F80E48D0F33
:1044D0000E94D22D90E8F92EF80E8D2F0E94D22D39
:1044E00020E8922E980EC11700F5AC2EB12CF501E4
:1044F000E75FFD4F908180910C018923A1F06091CD
:104500009F037091A0038091A103ED2E0C2F292D04
:104510004F2DF60109950E94F131462F282F672F64
:10452000C5010E943817CF5FDECF81E01F3208F04F
:1045300080E0CDB7DEB7EBE00C948F35A0E0B0E0C3
:10454000E4EAF2E20C9471355C0180910B010E9467
:104550004729F92E182F6091A203669580919A033E
:1045600090919B030E94862E782E1F1508F043C061
:10457000812E912CF401E75FFD4F908180910C0119
:104580008923B9F1F401EE0FFF1FE555FE4FC081FD
:10459000D0E0C057D109F401EE0FFF1FE558FE4FE0
:1045A000C1A8D12C80E2C81AD108CC9F9001CD9F20
:1045B000300D300D1124CC9CC001CD9C900D900D80
:1045C0001124820F931F0E942C2E082F60919F03AD
:1045D0007091A0038091A103E72C9601AE01F50133
:1045E00009950E94F131462F282F672FC4010E94A0
:1045F00038171F5FBACF81E0FEE2FF1508F480E0B4
:10460000CDB7DEB7EDE00C948D35A0E0B0E0EBE087
:10461000F3E20C9476357C0180910B010E944729CE
:10462000D92E182F6091A203669580919A039091DC
:104630009B030E94862EC82E1D1578F5C12FD0E051
:10464000FE01E75FFD4F908180910C01892319F1F4
:10465000FE01EE0FFF1FE558FE4F21A930E020526A
:104660003109FE01EE0FFF1FE555FE4F408150E07E
:104670004057510960919F037091A0038091A1035D
:104680000C2DF70109950E94F131462F282F672F35
:10469000CE010E9438171F5FCFCF81E0FEE2FD15EB
:1046A00008F480E0CDB7DEB7E8E00C949235AAE2DA
:1046B000B0E0EDE5F3E20C947B35E2E9F3E08AE962
:1046C00093E02091F10021938E179F07D1F78091FD
:1046D0009303833009F463C030F4813071F0823089
:1046E00009F49DC0B4C08A3009F489C08B3009F444
:1046F0006EC0893009F0ABC020C080919203813A2E
:1047000009F0A5C08091E800877F8093E800809140
:10471000960390919703892B21F468E086E893E053
:1047200003C060E080E090E070E00E94B01D8091E6
:10473000E8008B778093E8008AC0809192038132F1
:1047400009F085C08091960390919703009719F026
:10475000029709F07CC08091E800877F8093E80091
:104760008091E80082FD05C0809190038111F8CF0F
:104770006EC02091F3008091F20090E0922B02979E
:1047800031F48091F100813011F0863021F4809174
:10479000F100809385038091E8008B7754C080916D
:1047A0009203813A09F053C0809196039091970348
:1047B000892B09F04CC08091E800877F8093E80046
:1047C0008091E80080FFFCCF80910A0137C0809182
:1047D00092038132E1F58091960390919703892BA2
:1047E000B1F58091E800877F8093E8000E942A1C41
:1047F0008091940380930A010E947E2F28C08091AB
:104800009203813221F58091E800877F8093E80050
:104810000E942A1C809195038093840318C0809184
:104820009203813AA1F48091E800877F8093E800A9
:104830008091E80080FFFCCF809184038093F10099
:104840008091E8008E778093E8000E942A1C809176
:10485000E80083FFDFC18091920390919303492F79
:1048600050E04A30510508F0D5C1FA01ED54FF4F30
:104870000C943736803821F0823809F0CBC108C05B
:1048800080918E0390918F03992389F082600FC0ED
:10489000809196038F70873008F0BCC18093E90047
:1048A0008091EB0085FB882780F91092E9009091B8
:1048B000E800977F9093E8008093F1001092F10058
:1048C00070C1282F2D7F09F0A5C1882319F08230EF
:1048D00061F0A0C180919403813009F09BC19330B5
:1048E00009F080E080938F032EC0809194038111A2
:1048F0002AC0809196038F702FEF280F263008F082
:1049000089C18093E9002091EB0020FF1CC0933007
:1049100021F48091EB00806214C09091EB009061D3
:104920009093EB0021E030E0A90102C0440F551F35
:104930008A95E2F74093EA001092EA008091EB003A
:1049400088608093EB001092E9008091E800877FF7
:104950008093E8000E942A1C5DC181115BC1109107
:1049600094031F778091E3008078812B8093E3008C
:104970008091E800877F8093E8000E942A1C809144
:10498000E80080FFFCCF8091E30080688093E30023
:10499000111102C082E001C083E0809390033AC10C
:1049A0008058823008F036C12091940330919503ED
:1049B0002C3D53E0350779F583E08A838AE28983C9
:1049C0004FB7F894DE01139620E03EE051E2E32F6A
:1049D000F0E050935700E49120FF03C0E295EF70A0
:1049E0003F5FEF708E2F90E0EA3010F0C79601C065
:1049F000C0968D939D932F5F243149F74FBF8091CF
:104A0000E800877F8093E8006AE270E0CE010196BB
:104A10000E94B01DB4C08091960390919703432FDC
:104A2000552743305105A9F068F44130510509F488
:104A300000C14230510509F0EDC08BE590E0E4EF94
:104A4000F4E04BC04132510529F14232510589F160
:104A5000E1C0C901992781309105A1F058F0029772
:104A600009F0D8C0E1E6F5E0E4918E2F90E0E1E6B0
:104A7000F5E030C0EDE9F5E0E4918E2F90E0EDE94E
:104A8000F5E028C0E5E8F5E0E4918E2F90E0E5E858
:104A9000F5E020C08330910508F0BCC0880F991F55
:104AA000FC01EB58FE4F0190F081E02D89E090E091
:104AB00014C08330910508F0ADC0FC01EE0FFF1F5C
:104AC000E159FE4F0190F081E02DDC01A459BE4F69
:104AD0008C9190E0009709F49DC02091E800277F19
:104AE0002093E80020919803309199032817390703
:104AF00008F4C90140E0009789F120919003222336
:104B000009F43DC02530D9F12091E80023FD37C0DC
:104B10002091E80022FD2FC02091E80020FFEBCF7C
:104B20004091F3002091F20030E0342B009759F0CF
:104B30002830310540F444914093F10031960197BB
:104B40002F5F3F4FF3CF41E02830310509F040E0BF
:104B50002091E8002E772093E800CDCF4111CDCFF2
:104B60000AC080919003882351F0853041F08091F4
:104B7000E80083FD04C08091E80082FFF2CF8091BD
:104B8000E8008B778093E80045C0803809F042C088
:104B90008091E800877F8093E80080919103809363
:104BA000F1008091E8008E77D3CE811133C08091DF
:104BB0009403909195039927029764F58091E800FA
:104BC000877F8093E80010919403109391030E94D3
:104BD0002A1C111106C08091E30087FD02C081E00C
:104BE00001C084E08093900342E061EC81E00E9488
:104BF000491C42E261EC84E00E94491C42E261EC03
:104C000082E00E94491C42E260EC83E00E94491C61
:104C1000809190038091E80083FF10C08091E800AC
:104C2000877F8093E8008091EB0080628093EB00A7
:104C300005C082E190E0EFE4F5E04FCFAA96E3E013
:104C40000C949735EEE9F3E0248130E1231B08F45E
:104C500020E024838091FD0381608093FD0308950B
:104C6000EEE9F3E0248130E1230F08F42FEF2483F1
:104C70008091FD0381608093FD030895209A25B102
:104C80002E7F35B131604FB7F894FC01CB01880F0E
:104C9000991F680F791F6E0F7F1FE617F70789F0BE
:104CA000819198E035B9000000C087FF25B9880FD1
:104CB000000000C000C000C025B900C09A9591F75F
:104CC000ECCF4FBF8FE594E00197F1F700C00000F3
:104CD0000895A1E0B0E0EFE6F6E20C947A3549835E
:104CE00004E610E021E030E0AE014F5F5F4F80EA64
:104CF0000E940A352196E4E00C949635CF93DF9319
:104D0000C82FD62F45EC6EEF0E9469264D2F6DEF10
:104D10008C2F0E946926DF91CF910895EF92FF9228
:104D20000F931F93CF938091BE048823D1F061E04D
:104D300080E00E947E268EEFE82E83E0F82EC0E011
:104D400004E610E020E130E0A7016C2F80EA0E9429
:104D50000A35C05F80E1E80EF11CC03C89F7109273
:104D6000BE04CF911F910F91FF90EF900895A4E0A2
:104D7000B0E0EDEBF6E20C9479358F32910508F056
:104D800049C0122F042FF62EBC01660F771F660F45
:104D9000771F6F557A4F44E050E0CE0101960E9494
:104DA000A335898183702A8130E0682F70E04AED55
:104DB000849FC001112482509C4FFC01E20FF31F1D
:104DC000E0815B814C81EF110CC0FC01E50FF11D0E
:104DD000E081E01306C0FC01E40FF11D8081811722
:104DE000C9F0EAEDE69FC001E79F900D11248250C3
:104DF0009C4FFC01E20FF31FF082FC01E50FF11D57
:104E00000083FC01E40FF11D1083FC01E054FF4F0F
:104E100021E020832496E5E00C949535FF920F93D2
:104E20001F93CF93DF93182F062FF42EC0E0D0E00E
:104E30002F2D402F612FCE010E94B7262196CF3211
:104E4000D105B1F7CDB7DEB7E5E00C949535A4E018
:104E5000B0E0EDE2F7E20C9474350E94D53460E0E6
:104E600080E00E947E2610E040E0612F80E00E94FA
:104E700069261F5F1831C1F761E080E00E947E263D
:104E800010E040E0612F80E00E9469261F5F103C27
:104E9000C1F763E080E00E947E2640E06FE080E0A2
:104EA0000E94692640E060E180E00E9469264FEFA1
:104EB00061E080E00E94692641E060E080E00E94BD
:104EC00069268FE39CE90197F1F700C0000001EA31
:104ED00015E09DE5C92E96E0D92E2AEDA22EEE24EE
:104EE000E394F12CBB24B39444E050E0B801CE012C
:104EF00001960E94A3354A813B812C818981837070
:104F0000542F569556955695A89EC001112482504F
:104F10009C4FFC01E50FF11DEF53FF4F4770B701A8
:104F200002C0660F771F4A95E2F7AB015081452B0F
:104F30004083432F469546954695FC01E40FF11DAD
:104F4000EF53FF4F3770A70101C0440F3A95EAF7BE
:104F50003081432B4083322F369536953695FC01B0
:104F6000E30FF11DEF53FF4F2770A70102C0440F5D
:104F7000551F2A95E2F79A013081232B2083FC01EB
:104F8000E752FF4FB0820C5F1F4FC016D10609F0E9
:104F9000ABCF8091D7048823A9F060E080E00E9425
:104FA0007E268FEBE82E84E0F82E10E0F701419189
:104FB0007F01612F80E00E9469261F5F1831B1F7E1
:104FC0001092D7042496EAE00C9490351F93CF9367
:104FD000DF93962F8530E8F46430D8F44C30C8F471
:104FE000632F122FC42FD0E0CC0FDD1F28E1929F3A
:104FF000C00DD11D112490E6899FC00DD11D112433
:10500000CE0189960E94E035612FCE018A960E94DA
:10501000E035DF91CF911F9108950F931F93CF93A8
:10502000DF93853008F56430F8F44C30E8F4C42F91
:10503000D0E0CC0FDD1F28E1629FC00DD11D1124EF
:1050400030E6839FC00DD11D1124CE0189960E94A8
:10505000BC3590E0182F0027CE018A960E94BC35FF
:105060009801282BC90102C080E090E0DF91CF9128
:105070001F910F9108959091D80490FF05C09695C7
:105080009695981748F003C0811106C090E09617D6
:1050900018F40E94AB33089561E00E9454330895E0
:1050A000882311F0FA0101C0FB01099508951F93AF
:1050B000CF93DF93FC01E75FFD4F20816223B9F0BE
:1050C000EC010E94172E182F0E94172E20E8829FB5
:1050D000C00111247FE7790F612F8091A1030E9405
:1050E000F131462F282F672FCE010E943817DF910C
:1050F000CF911F910895A0E0B0E0E1E8F8E20C94B0
:105100007735EC01FC01E75FFD4F9081692349F1A0
:10511000D090A0030091A10310919F03E12EF12CE8
:105120000E94172E282FC7018C549F4F68E671E00C
:105130000E9404368E199F0997FD039695958795D1
:10514000959587952370612F289F600D11247D2DE3
:10515000802F0E94F131462F282F672FCE010E9409
:105160003817CDB7DEB7E7E00C94933590919E03E6
:10517000937071F080939F036093A003473908F008
:1051800046E94093A1038091FD03282B2093FD0362
:105190000895EEE9F3E0438120E1421B08F440E08A
:1051A000818121E0628190E00E94B6280895EEE9B5
:1051B000F3E0438120E1420F08F44FEF818121E0C9
:1051C000628190E00E94B6280895EEE9F3E06281E2
:1051D00020E1621B08F460E0818121E0438190E0DE
:1051E0000E94B6280895EEE9F3E0628120E1620FA3
:1051F00008F46FEF818121E0438190E00E94B6289E
:105200000895EEE9F3E0818190E021E0438162813D
:1052100008970E94B6280895EEE9F3E0818190E0B6
:1052200021E04381628108960E94B62808959091FA
:105230009E039370A1F0811102C0946007C089326F
:1052400010F0906A03C0880F880F982B90939E03EC
:10525000109210018091FD03682B6093FD03089567
:1052600080919E0386958695815009F488E261E0DD
:105270000E941729089580919E03869586958F5FD9
:10528000893208F081E061E00E9417290895880FB3
:10529000982F990F990F890F9AE0980F903308F083
:1052A0009FE208954F925F926F927F928F929F92AA
:1052B000AF92BF92CF92DF92EF92FF92CF93809105
:1052C000F8039091F903A091FA03B091FB032FB773
:1052D000F894C0907F03D0908003E0908103F09019
:1052E00082032FBFC81AD90AEA0AFB0A0E94C71E06
:1052F0004B015C016093F8037093F9038093FA0308
:105300009093FB03A091CF03EFECF3E08A2F90E0A2
:105310004FEF5FEF60E070E04C195D096E097F09A7
:10532000A91799F0218D328D2901612C712C44151A
:1053300055056605770510F4815004C02C0D3D1D00
:10534000328F218F9F5F3296EBCF8093CF03809176
:10535000FC03811108C0C0919E038C2F837019F04B
:10536000C695C69501C0C0E0809110018130D9F08A
:1053700028F0823021F1833079F159C010920B016D
:1053800080929A0390929B03A0929C03B0929D03FB
:1053900089E2EFECF3E0A6EAB3E001900D928A9582
:1053A000E1F781E016C08C2F0E943B17CC2309F453
:1053B0003EC080910B0181500E94472938C0C093A4
:1053C0000F0180919E03837080930E010E948E26B0
:1053D00083E0809310012BC08091FD03882351F05E
:1053E00048E050E068E170E08EE993E00E94D0353B
:1053F0001092FD0340919A0350919B0360919C038E
:1054000070919D032FB7F89480917F039091800352
:10541000A0918103B09182032FBF841B950BA60B33
:10542000B70B4097A105B10510F010921001CF9174
:10543000FF90EF90DF90CF90BF90AF909F908F90B4
:105440007F906F905F904F900895EF92FF920F932F
:105450009701201B31092F3F310519F010F02FEF74
:1054600030E02095382F320F08F43FEF832F0F9153
:10547000FF90EF900895EF92FF920F939701201BFA
:1054800031092F3F310519F010F02FEF30E0322FA6
:105490003095482F430F08F44FEF842F620F0F9180
:1054A000FF90EF900895EF92FF920F93972F09349A
:1054B00038F4B701601B71096F3F710519F010F0E6
:1054C0006FEF70E0485F5F4F4131510540F0A90137
:1054D000485F5F4F4131510510F06FEF70E060950C
:1054E000482F460F08F44FEF842F37FF02C02D5F7F
:1054F0003F4F359527953595279560919F03620F0E
:10550000792F0F91FF90EF900895EF92FF920F93F4
:10551000E00EF11CF90137FF03C0F195E195F109A7
:1055200024E0EE0FFF1F2A95E1F7EF3FF10519F098
:1055300014F0EFEFF0E09A0157FF03C03195219589
:10554000310994E0220F331F9A95E1F72E173F0798
:105550000CF4F901EE0DFF1DEF3FF10519F010F00D
:10556000EFEFF0E02E2F2095382F320F08F43FEFA9
:10557000832F0F91FF90EF900895EF92FF920F937A
:10558000970195E0099F200D311D11242F3F310512
:1055900019F010F02FEF30E02095382F320F08F47B
:1055A0003FEF832F0F91FF90EF900895409520E4F7
:1055B000429F412D1124640F08954095282F429F4A
:1055C000412D1124842F0895E42FF0E0EE0FFF1FEA
:1055D000E555FE4F9081921B97FD9195292F38E15B
:1055E000239F212D1124620F08950F931F9310E024
:1055F000F801EE0FFF1FE555FE4F9081905797FD84
:105600009195000F111FF801E558FE4FE1A9F0E058
:10561000B097DF01AA0FBB1F8D010E0F1F1F2003C4
:10562000D001219FB00D1124E8E3F0E0E91BF1095E
:1056300097FDF3959F01220F331F89010E0F1F1F46
:1056400040039001419F300D11242A0F3B1F37FF6B
:1056500002C021583F4F220F232F221F330B620F0E
:105660001F910F9108950F931F93522F10E0F8018F
:10567000EE0FFF1FE558FE4FE1A9F0E0B097EE0FE7
:10568000FF1F9F015203D001539FB00D1124000F43
:10569000111FF801E555FE4F008110E00057110978
:1056A000000F111F40039001419F300D11242A0F5C
:1056B0003B1F37FF02C021583F4F220F232F221FCD
:1056C000330B620F1F910F9108950F931F93522F69
:1056D00010E0F801EE0FFF1FE558FE4FE1A9F0E0E2
:1056E000B0979F015203D001539FB00D1124000FBA
:1056F000111FF801E555FE4F008110E00057110918
:1057000040039001419F300D11242A0F3B1F37FFAA
:1057100002C021583F4F220F232F221F330B620F4D
:105720001F910F910895EF920F931F9393E0099F9C
:1057300080011124159507956E2D600F1F910F9113
:10574000EF900895A22F50E0FA01EE0FFF1FE558E9
:10575000FE4F91A9905297FD9195440F551FFA0164
:10576000E555FE4F3081232F30E02A1B3109290FE8
:10577000311D97FD3A95620F0895E42FF0E0EE0F8A
:10578000FF1FE558FE4F61A9621B0895E42FF0E06A
:10579000EE0FFF1FE555FE4F6081621B0895622FDB
:1057A0000895E42FF0E0EE0FFF1FE555FE4F408116
:1057B00034EE439F412D1124E82FF0E050E0445E89
:1057C0005F4FDA01A21BB1099D01B7FF03C03195FC
:1057D0002195310993E0220F331F9A95E1F7AF012C
:1057E000421B530B9A0157FF02C020E030E0582FB4
:1057F000259F212D1124822F0895E42FF0E0EE0F34
:10580000FF1FE555FE4F408134EE439F412D11248B
:10581000E72FF0E050E0445E5F4FDA01A21BB109D0
:105820009D01B7FF03C031952195310993E0220F07
:10583000331F9A95E1F7AF01421B530B9A0157FFB3
:1058400002C020E030E0279F212D1124722F0895FF
:10585000FC019B01009721F477FF2BC080E808959D
:10586000AC0197FF04C044275527481B590BB901C9
:10587000640F751F37FD0CC0241B350BC901A5E053
:10588000880F991FAA95E1F70E94043680E20CC0A8
:10589000CB0165E0880F991F6A95E1F7BA01621B99
:1058A000730B0E94043680E6861BF7FF03C08195C8
:1058B000089580E00895EF920F93CF93DF93D72F51
:1058C000C82FC9010E19BA010E94282C602F681B2D
:1058D0007D2F8C2FDF91CF910F91EF9008950F9333
:1058E000CF93DF93D72FC82FC901BA010E94282C6C
:1058F000682F600F7D2F8C2FDF91CF910F9108952E
:10590000EF920F931F93CF93DF93D62FC72F182FAC
:10591000C9010E19010FBA010E94282C081B202F63
:10592000219F212D1124822F6D2F7C2FDF91CF916C
:105930001F910F91EF900895EF920F931F93CF93C4
:10594000DF93D62F172FC82FC9010E19070FBA01E1
:105950000E94282C702F781B719F712D11246D2FA0
:105960008C2FDF91CF911F910F91EF900895FF92AF
:105970000F931F93CF93DF93F62ED72F182FC901C4
:10598000C12FC01BBA010E94282C982F990F890F94
:10599000C81B2C2F219F212D1124822F6F2D7D2F8D
:1059A000CDB7DEB7E5E00C949535FF920F931F93CA
:1059B000CF93DF93F62E172FD82FC901C72FC01B07
:1059C000BA010E94282C982F990F890F7C2F781BE1
:1059D000719F712D11246F2D8D2FCDB7DEB7E5E0AE
:1059E0000C9495350895EF92FF920F931F93CF93E8
:1059F000DF938C01C1EED4E0E12CF12CF80184811D
:105A0000F3E0EF16F1041CF4882351F002C0811179
:105A100007C04091DB04473908F046E99E0102C007
:105A20009E0140E06091DA048091D9040E947B32AB
:105A30008FEFE81AF80A239696E0E916F104F1F6DA
:105A40000E945531F801848190E001968170992778
:105A50008483CDB7DEB7E6E00C9494350F931F93A3
:105A6000CF93DF93C1EED4E0FE0111821082128247
:105A7000339684E0E33FF807C1F700E010E080913F
:105A8000E004082E000C990B08171907ACF0809160
:105A90001201082E000C990B801791076CF04091B1
:105AA000DB04473908F046E99E016091DA048091F1
:105AB000D9040E947B3203C0198218821A820F5FB8
:105AC0001F4F239606301105D1F60E945531809163
:105AD00011019091E004980F9093E004209112013D
