:100000000C94EB050C9408060C9408060C94DD2D5A
:100010000C9408060C9408060C9408060C94080628
:100020000C9408060C9408060C9493160C94B21ABF
:100030000C947F260C9408060C9408060C94080671
:100040000C9408060C9408060C9408060C940806F8
:100050000C9408060C946C170C9408060C94080673
:100060000C9408060C9408060C9408060C940806D8
:100070000C9408060C9408060C9408060C940806C8
:100080000C9408060C9408060C9408060C940806B8
:100090000C9408060C9408060C9408060C940806A8
:1000A0000C9408060C9408060C94080620202020C6
:1000B0006162636465666768696A6B6C6D6E6F70B8
:1000C0007172737475767778797A31323334353664
:1000D00037383930524542545F2D3D5B5D5C233BE0
:1000E00027602C2E2F2020202B0014001A0008003F
:1000F00015001700E10004001600070009000A00BF
:10010000E0001D001B0006001900050000000000B3
:100110000000E30021522C002A00130012000C0002
:1001200018001C00340033000F000E000D000B00FF
:10013000E500380037003600100011000000000014
:100140000000E2002252280029003A003B003C0057
:100150003D004800E1003E003F00400041004600F5
:10016000E00042004300440045006500000000003C
:100170000000E30001002C002A004B004D0052005B
:100180004A00490034024E004F00510050004C001C
:10019000E5003802370236021901060100000000AE
:1001A0000000E2000100280039001E021F02201496
:1001B0002F020000E10034143214250226022D0221
:1001C000E0002F14301464006402270200000000D5
:1001D0000000E30001002C002A0038002600250062
:1001E000240030022D0030002300220021002402D0
:1001F000E500370020001F001E002700000000005F
:100200000000E2000100280035002E001F14221417
:1002100021022F00E100350223021E1435142E02A4
:10022000E00000002314320022022114000000002C
:100230000000E30001002C00A800A900AA00AB0008
:10024000AE00AC00000000002778257823782078E5
:10025000017C0000287826782478217800000000AE
:100260000000E2000100280000DA0281FFD9F1DB82
:1002700020A4A62EAF00A0C0D30000A1C8D30000C8
:10028000AED580A81F408D1420001E0F0500047FEE
:100290003F1F643214643214783C1E1E140A052079
:1002A00020202020202020200043415053204C4F6C
:1002B000434B0000556E646566696E656400457861
:1002C00074656E64005261697365004C6F77657286
:1002D0000044656661756C74004C617965723A2002
:1002E00000808182838485868788898A8B8C8D8E25
:1002F0008F9091929394A0A1A2A3A4A5A6A7A8A928
:10030000AAABACADAEAFB0B1B2B3B4C0C1C2C3C49E
:10031000C5C6C7C8C9CACBCCCDCECFD0D1D2D3D415
:1003200000000101010101010101010202020202BA
:10033000020202020303030303030303040404048D
:100340000404040505050505060606060607070755
:10035000070708080808090909090A0A0A0B0B0B0C
:100360000C0C0C0D0D0D0E0E0E0F0F0F10101111A9
:10037000111212131314141515161617171818192D
:10038000191A1A1B1B1C1D1D1E1E1F202021222294
:10039000232424252626272829292A2B2C2D2D2ED7
:1003A0002F30313232333435363738393A3B3C3DF1
:1003B0003E3F404142434445464748494A4C4D4EE2
:1003C0004F50515354555658595A5B5D5E5F6162A8
:1003D00064656668696B6C6D6F7072737577787A37
:1003E0007B7D7E8082838587888A8C8E8F91939592
:1003F00096989A9C9EA0A2A3A5A7A9ABADAFB1B3B6
:10040000B5B7BABCBEC0C2C4C6C9CBCDCFD1D4D695
:10041000D8DBDDDFE2E4E7E9EBEEF0F3F5F8FAFD37
:10042000FFFFAA7F55402223252628292A2C2D2F7D
:100430003032333536383A3B3D3E404243454749FA
:100440004A4C4E5051535557595A5C5E606264662F
:1004500068696B6D6F71737577797B7D7F8183853B
:1004600087898A8C8E90929496989A9C9E9FA1A33D
:10047000A5A7A8AAACAEAFB1B3B4B6B8B9BBBCBE61
:10048000BFC1C2C3C5C6C7C9CACBCCCDCED0D1D2DD
:10049000D2D3D4D5D6D7D7D8D9D9DADADBDBDBDCDF
:1004A000DCDCDCDCDDDDDDDDDCDCDCDCDCDBDBDB8B
:1004B000DADAD9D9D8D7D7D6D5D4D3D2D2D1D0CEEB
:1004C000CDCCCBCAC9C7C6C5C3C2C1BFBEBCBBB9F0
:1004D000B8B6B4B3B1AFAEACAAA8A7A5A3A19F9E6E
:1004E0009C9A98969492908E8C8A89878583817F36
:1004F0007D7B79777573716F6D6B69686664626017
:100500005E5C5A5957555351504E4C4A49474543E2
:1005100042403E3D3B3A3836353332302F2D2C2A7F
:1005200029282625232200AF00AE05010902A101DA
:1005300085020901A10005091901290815002501F5
:100540009508750181020501093009311581257F62
:1005500095027508810609381581257F9501750872
:100560008106050C0A38021581257F9501750881E1
:1005700006C0C005010980A101850319012AB70041
:10058000150126B700950175108100C0050C090101
:10059000A101850419012AA002150126A0029501D6
:1005A00075108100C005010906A10185060507191E
:1005B000E029E71500250195087501810205071955
:1005C0000029EF1500250195F07501810205081934
:1005D000012905950575019102950175039101C0E9
:1005E00005010906A101050719E029E71500250104
:1005F00095087501810295017508810105071900AB
:1006000029FF150026FF00950675088100050819C9
:1006100001290515002501950575019102950175C2
:10062000039101C009023B00020100A0FA09040085
:10063000000103010100092111010001224400070A
:1006400005810308000109040100010300000009FD
:10065000211101000122B6000705820320000112CA
:1006600001000200000008534601000100010200E1
:10067000010C0343006F0072006E00650000001063
:100680000366006F006F007300740061006E00006D
:1006900000040309040000000000003E5B4F5B3EC5
:1006A000003E6B4F6B3E001C3E7C3E1C00183C7EA7
:1006B0003C18001C577D571C001C5E7F5E1C000010
:1006C000183C180000FFE7C3E7FF000018241800DB
:1006D00000FFE7DBE7FF0030483A060E00262979E5
:1006E000292600407F05050700407F05253F005A69
:1006F0003CE73C5A007F3E1C1C0800081C1C3E7F47
:100700000014227F2214005F5F005F5F0006097FF4
:10071000017F00006689956A0060606060600094F7
:10072000A2FFA2940008047E04080010207E20107E
:100730000008082A1C0800081C2A0808001E1010BF
:100740001010000C1E0C1E0C0030383E3830000615
:100750000E3E0E060000000000000000005F0000DA
:1007600000000700070000147F147F1400242A7F74
:100770002A120023130864620036495620500000F4
:100780000807030000001C224100000041221C0059
:10079000002A1C7F1C2A0008083E08080000807000
:1007A0003000000808080808000000606000002011
:1007B00010080402003E5149453E0000427F4000BF
:1007C000007249494946002141494D33001814122D
:1007D0007F10002745454539003C4A4949310041D1
:1007E0002111090700364949493600464949291E61
:1007F0000000001400000000403400000000081455
:1008000022410014141414140000412214080002A0
:1008100001590906003E415D594E007C1211127CBF
:10082000007F49494936003E41414122007F414114
:10083000413E007F49494941007F09090901003EC5
:1008400041415173007F0808087F0000417F41004B
:10085000002040413F01007F08142241007F4040BA
:100860004040007F021C027F007F0408107F003E92
:100870004141413E007F09090906003E4151215E88
:10088000007F091929460026494949320003017FA2
:100890000103003F4040403F001F2040201F003F19
:1008A0004038403F006314081463000304780403D5
:1008B000006159494D4300007F4141410002040855
:1008C000102000004141417F000402010204004069
:1008D0004040404000000307080000205454784086
:1008E000007F2844443800384444442800384444B5
:1008F000287F0038545454180000087E090200185C
:1009000024241C78007F080404780000447D400003
:10091000002040403D00007F102844000000417F3F
:100920004000007C04780478007C080404780038D7
:1009300044444438007C1824241800182424187CCB
:10094000007C080404080048545454240004043F64
:100950004424003C4040207C001C2040201C003CE3
:100960004030403C004428102844004C9090907C3B
:10097000004464544C4400000836410000000077F5
:100980000000000041360800000201020402003CA1
:100990002623263C000000000000000000000000AC
:1009A0000000000000C0E0F0F8F81800C0F0FCFE05
:1009B000FFFFFFFFFFFFFF7E0000000000000000C0
:1009C0000080C0E0E0E0E0E0E0E0E0C080000000A7
:1009D0000080C0E0E0E0E0E0E0E0E0C08000000097
:1009E000E0E0C0C0E0E0E0E00000E0E0C0C0E0E047
:1009F000E0E0E0C0800000000080C0E0E0E0E0E077
:100A0000E0E0E0C080000000000000000000000006
:100A1000000000E0F0F0F0E0ECEEF7F37020007C76
:100A20007C7C7E007E7E7E7F7F7F000080C0E07EBB
:100A30005B4F5BFEC00000C000DCD7DEDEDED7DC33
:100A400000C00000000000000000000000000000E6
:100A50000000000000000000000000000000F8FCA2
:100A6000FEFFE000FFFFFFFFFFFF80FFFFFFFFFF34
:100A7000FFFFFFFF1F070100000000000000000053
:100A8000FFFFFF8100000000000081C3C3C300001E
:100A9000FFFFFF8100000000000081FFFFFF00005A
:100AA000FFFFFF01000000000000FFFFFF0100004A
:100AB000000001FFFFFF0000FFFFFF9D1C1C1C1C2E
:100AC0001C1C9DDFDFDF00000000000000000000B4
:100AD0000000000F1F3F7F7F7F7F7F3F1E0C001FA6
:100AE0001F1F3F003F3F3F7F7F7F00307B7F78307D
:100AF000202030787F3B0003000F7F0F0F0F7F0F08
:100B000000030000000000000000000000000000E2
:100B10000000000000000000000000000000030FC3
:100B20001F3F3F3F3F1F1F3F3F7F7F7F3F3F1F3F95
:100B30007F7F7F7F7C7878381C0F000000000000EA
:100B40000001030707070707070707030100000065
:100B50000001030707070707070707030100000055
:100B6000070707000000000000000707070000005B
:100B70000000000707070000000103070707070739
:100B8000070707030100000000000000000000004C
:100B90000000000000000000000000000000000055
:100BA0000000000000000000000000000000000045
:100BB0000000000000000000000000000000000035
:100BC0000000000000000000000000000000000025
:100BD00000000000000011241FBECFEFDAE0DEBFEE
:100BE000CDBF27E0A2ECB1E001C01D92A630B20754
:100BF000E1F711E0A0E0B1E0ECEAF2E602C0059016
:100C00000D92A23CB107D9F70E94A6260C940031A0
:100C10000C940000482F2091F7049091BE0457E0F7
:100C2000291302C080E0089530E0529FF001539FE5
:100C3000F00D1124E154FB4F8181681306C08081BF
:100C4000481303C085818111EECF2F5F3F4F27707E
:100C5000E7CFFC01AC014C5F5F4F8FEF91E3219137
:100C6000822728E030E087FF09C0880F89272150BC
:100C70003109C9F7E417F50791F70895880FF7CF01
:100C8000E8EDF0E080818E7F80831092E200109288
:100C9000DA001092E100A0EEB0E08C9181608C93BC
:100CA00080818F77808319BCA7EDB0E08C918E7F17
:100CB0008C9380818F7E808310928F040895209181
:100CC000E4003091E50095E6A9012091EC00822F27
:100CD000817020FF06C08091E80080FF06C080E0A0
:100CE00008952091E80022FD1AC08091B404882361
:100CF00089F0853089F08091EB0085FD0FC020914F
:100D0000E4003091E50042175307F9F29150E1F603
:100D100084E0089582E0089583E0089581E00895D5
:100D20008091B60487FF13C08091E80082FF06C05F
:100D30008091E8008B778093E80004C08091B40430
:100D40008111F2CF08958091B4048823D9F3809162
:100D5000E80080FFF8CF8091E8008E77ECCF982FE5
:100D60009093E900242F762F50E0891731F070918D
:100D7000EC002091ED005091F00021FD07C09F5F35
:100D8000973071F78093E90081E008953091EB008E
:100D90003E7F3093EB003091ED003D7F3093ED00CE
:100DA0003091EB0031603093EB007093EC002093B6
:100DB000ED005093F0002091EE0027FDE0CF80E0A1
:100DC0000895B0E0A0E0E7EEF6E00C94172FC8ED30
:100DD000D0E088818F7E8883E7EDF0E080818160BC
:100DE000808384E082BF81E080938F0488818E7F3E
:100DF000888302EE10E0F80110821092DA0081EE92
:100E0000C82ED12CF601108288818F778883888143
:100E10008068888388818F7D888319BC1092B40490
:100E20001092B5041092B3041092B20490EEE92E21
:100E3000F12CF70180818B7F80838881816088839A
:100E400042E060E080E00E94AF06F60180818E7F84
:100E50008083F801808181608083808188608083C5
:100E6000F70180818E7F8083888180618883CDB700
:100E7000DEB7E8E00C94332FFC018091BC04909124
:100E8000BD0486179707A0F06115710529F49091AC
:100E9000E8009E779093E80090E06115710551F4A9
:100EA000911108C08091E80082FF34C080E008956D
:100EB000BC01F2CF8091B4048823C1F18530C1F127
:100EC0008091E80083FD30C08091E80082FDEACF88
:100ED0008091E80080FFE1CF8091F3002091F20043
:100EE000382F6115710519F02830310558F091E05F
:100EF0002830310509F090E02091E8002E7720930A
:100F0000E800CBCF81918093F100615071092F5F90
:100F10003F4FE7CF8091B404882341F0853041F002
:100F20008091E80083FFBECF81E0089582E00895BC
:100F300083E0089580919104089587E797E790935F
:100F400001088093000888E19AE00FB6F894A8950C
:100F5000809360000FBE90936000FFCF2FB7F8948E
:100F60006091890470918A0480918B0490918C0423
:100F70002FBF0895209148012223C9F020918D04AC
:100F800027FF15C0E62FE695E695E695EE31D8F4F5
:100F9000E80FF92FF11D677021E030E001C0220F4A
:100FA0006A95EAF720958281282322830895FC011F
:100FB000329608962191621303C0DF0111971C92AB
:100FC000E817F907B9F70895209148012223C1F0E5
:100FD00020918D0427FF14C0E62FE695E695E6954F
:100FE000EE31F8F4E80FF92FF11D677021E030E0E1
:100FF00001C0220F6A95EAF78281822B82830895CD
:10100000FC0132962FEF30E04191641751F02F3FF1
:1010100019F4411101C0232F3F5F3630A9F72F3F4C
:1010200009F40895820F911D27FD9A95FC016283B2
:101030000895A3E0B0E0EFE1F8E00C941D2F2091BB
:1010400086043091870428173907A1F0909387040C
:1010500080938604E0918404F0918504309751F0E8
:1010600024E029839B838A830680F781E02DCE01CB
:10107000019609952396E2E00C94392FA3E0B0E0A5
:10108000E4E4F8E00C941D2F209182043091830455
:1010900028173907A1F09093830480938204E0918C
:1010A0008404F0918504309751F023E029839B83D9
:1010B0008A830680F781E02DCE010196099523965B
:1010C000E2E00C94392FFA01811101C0FB0109956E
:1010D00008950895EEEBF2E01182828184608283AC
:1010E000089580917404982F9E7F61F481708260CE
:1010F0008093740480917704893718F088E780938F
:10110000770408958635B0F381708465F1CFAF928E
:10111000BF92DF92EF92FF920F931F93CF93DF93D3
:10112000182F062FE901493708F048E7E42FF0E0CF
:10113000EF5DFC4F011110C0E4915E2F4E2F4983EB
:10114000E8835A83DF91CF911F910F91FF90EF9029
:10115000DF90BF90AF900895202F30E04491D42EBF
:10116000E42EF12C56E0159FC0011124EFEFF0E0C2
:10117000BF010E94F92E812F90E0880F991F55E53D
:10118000569FD001579FB00D11248A1B9B0B982F9F
:10119000990F890F5F01A21AB30AAE9CD001AF9CD0
:1011A000B00DBE9CB00D11245B2F089F800111244F
:1011B000012F11275F01A01AB10AAE9C8001AF9CDC
:1011C000100DBE9C100D11245F01A81AB108A29E3B
:1011D000C001A39E900DB29E900D1124892F9927D6
:1011E000E81BF90BEE9DC001EF9D900DFE9D900D4B
:1011F0001124E92F62307105A1F050F461157105D9
:1012000009F49DCF6130710581F0EB2F512F97CFFD
:101210006430710569F080F06630710509F48FCF94
:10122000F4CFE42F4B2F592F8ACFE42F412F87CFB4
:10123000EB2F542F492F83CF4B2F5D2DE12F7FCFE5
:101240008091AD0280FD16C081FD16C082FD16C0E2
:101250008091AC028823A1F0883280F428E0829F3C
:10126000C001112468E270E00E945E2F862F672B78
:1012700039F0089582E0089584E0089588E00895A3
:1012800081E008958091AD0280FD14C081FD14C0FD
:1012900082FD16C08091AB02882381F08E3180F4EC
:1012A00020E5829FC00111246EE170E00E945E2F54
:1012B000862F089584E1089588E2089588E00895CE
:1012C00080E50895282F35EB2303C001112497FFF3
:1012D00004C080589109892F089580589F4FFBCFF3
:1012E00080E00895F894E82FE295EF70F0E031A1E6
:1012F000282F2F7081E090E001C0880F2A95EAF72F
:10130000982F9095932391A392A1892B82A37894EF
:10131000089590918D0492FF10C041E0282F247110
:10132000243009F040E031E0282F2871283009F0FE
:1013300030E0431711F02CE0822793FF10C041E00A
:10134000282F2471243109F040E031E0282F287142
:10135000283109F030E0431711F02CE0822730915A
:101360008E0430FF10C051E0282F2171213009F088
:1013700050E041E0282F2871283009F040E0541750
:1013800011F029E0822731FF10C041E0282F2171A0
:10139000213109F040E031E0282F2871283109F08F
:1013A00030E0431711F029E0822794FD877E0895ED
:1013B00082389105B9F1B0F48133910509F47DC00B
:1013C00048F48932910509F46DC08A32910509F417
:1013D0007BC008958533910509F45FC08933910579
:1013E00009F10895833E9105D9F138F4803E9105C5
:1013F00029F1823E910579F10895863E9105D9F152
:10140000873E910509F43EC0843E910541F5209147
:101410008E0421FF24C080918D0484FD19C087EEC5
:1014200090E0089520918D04237009F05AC0209116
:101430008E0423FF14C089E290E0089520918D046A
:1014400020FD38C030918E0430FF09C024FF43C016
:1014500090E080E0089520918D0422FDF7CF08955B
:1014600020918D0422FD3AC030918E0430FD39C0A8
:1014700024FFF5CFEDCF20918D0423FFF0CF24FD85
:10148000E7CFCDCF20918D0423FD2EC030918E0467
:1014900031FFEECF84EE90E0089520918D0425FF7A
:1014A000DECFC9CF20918D0425FD21C020918E046F
:1014B00023FFD5CF89E390E0D2CF20918D0426FF82
:1014C000CECF8AE290E0089520918D0426FFC7CF09
:1014D00081E390E0089583EE90E0089582EE90E03D
:1014E000089580EE90E0089586EE90E0089585E3FB
:1014F00090E00895972F7830B8F46630A8F48430DF
:10150000B0F470E026E0929F600D711D1124FB0184
:1015100090E3899FE00DF11D1124EE0FFF1FE851AC
:10152000FF4F85919491089580E090E0089581E0C7
:10153000FCCF1F93CF93DF930E94D809EC01C11514
:1015400080E5D807F0F5C11580E4D80708F09CC005
:10155000C03ED10520F5CD3CD10508F082C0C83A87
:10156000D10578F4C53AD10508F073C0C130D10572
:1015700019F1209709F1C430D105F0F4D0E0C0E0B2
:101580001BC0C33CD105D0F7C85AD0E0CC0FDD1F3B
:10159000C45BDE4F0990D881C02DD4640DC0C11545
:1015A00080E2D80708F0D1C0C11581E0D80708F063
:1015B0005AC0C83ED10510F7CE01DF91CF911F91DF
:1015C0000895C03682E5D80718F5C03482E5D807FB
:1015D00008F06BC0C03282E5D80708F05FC0C115C3
:1015E00082E5D80708F497C02C2F2695269580E22F
:1015F000289F900111248C2F8370C1E0D0E002C09D
:10160000CC0FDD1F8A95E2F7C22BD32BDD68D4CF38
:10161000C03A82E5D80760F4C03882E5D80708F4FC
:1016200059C0CF71D0E0DC2FCC27C46FD06AC4CFB3
:10163000C03C82E5D80708F462C0C03E82E5D80706
:1016400008F09CCFDC2FCC27CC27DF71C06FD06A8D
:10165000B3CFC55AD0E0C75BDE4FC881D0E0D064BD
:10166000ABCFD065A9CF8D2F0E948909182FCE014D
:1016700099270E94D809C12FD0E0DC2FCC27CC2796
:10168000DF71C82BD92B98CFCE0199270E94D8099A
:10169000CC27DF70C82BD92BD06A8ECFCF71D0E08A
:1016A000DC2FCC27C16FD06A87CF2C2F26952695AB
:1016B000277080E2289F900111248C2F8370C1E055
:1016C000D0E002C0CC0FDD1F8A95E2F7C22BD32BEE
:1016D000DC6872CF2C2F26952695277080E2289FF4
:1016E000900111248C2F8370C1E0D0E002C0CC0F98
:1016F000DD1F8A95E2F7C22BD32BDA685DCF8C2FE2
:101700008F710E948909C82FD0E0DC2FCC27CC270D
:10171000DF71D06251CF8C2F8F710E94890955E003
:10172000D695C7955A95E1F7CF70D0E0DC2FCC273E
:10173000282F30E084FF05C044E0220F331F4A9574
:10174000E1F7C22BD32BD06937CF8D2F8F710E9439
:101750008909182FCE0199270E94D809C12FD0E0FE
:10176000DC2FCC27CC27DF71C82BD92BD2CF80958B
:101770009091280298239093280208958091F7046D
:101780009091BE04981301C008958F5F8770FACFBF
:10179000B0E0A0E0EEECFBE00C94162F7C01009191
:1017A0008002109181028091290290912A02082BD7
:1017B000192BCFE0D0E0CC24C394D12CBC2EC60191
:1017C0000C2E02C0880F991F0A94E2F78023912300
:1017D000892B49F4219790F7B12C8B2DCDB7DEB72B
:1017E000E9E00C94322FB7018C2F0E947A0A0E94F4
:1017F000990A019779F3F1CFCF93DF93EC010E941F
:10180000C80BBE010E947A0A0E94990ADF91CF910B
:101810000895983078F5863068F5E82FF0E086E096
:10182000989FE00DF11D11249E2F977083E0F6958F
:10183000E7958A95E1F7EE0FFF1FEE0FFF1FEA51C4
:10184000FE4F50E040E080E0219130E0092E02C0E0
:10185000369527950A94E2F721703327042E01C0AC
:10186000220F0A94EAF7822B4F5F5F4F44305105F5
:1018700059F7089580E00895983098F5863088F5F6
:10188000E82FF0E086E0989FE00DF11D11248E2FE7
:10189000877041E001C0440F8A95EAF783E0F6952E
:1018A000E7958A95E1F7EE0FFF1FEE0FFF1FEA5154
:1018B000FE4F30E020E070E05191DF011197CB0145
:1018C000022E02C0969587950A94E2F78170819561
:1018D0008527842385278C932F5F3F4F2430310544
:1018E00059F708959C01267033272630310531F4CD
:1018F000886090938102809380020895877FF9CF5A
:1019000021E030E002C0220F331F8A95E2F72095D4
:1019100030958091800290918102822393230E94CE
:10192000720C089590910502809589238093050299
:10193000282F277069F4891759F090918E0492FF2F
:1019400007C08695869586950E94800C10920502A8
:10195000089521E030E002C0220F331F8A95E2F79C
:101960008091800290918102822B932B0E94720CB5
:10197000089590932A02809329020895FC012481FE
:101980002223C1F0808191810E94FC0B92959F706F
:10199000963091F058F4925F9F70923058F4803FE7
:1019A00019F030F4883E30F481E008959A5FF4CF66
:1019B000843FD1F380E00895883EB0F3813FD1F7B2
:1019C000F3CF292F332740E02115310511F0C9014C
:1019D00048E09C0164E0369527956A95E1F721156A
:1019E000310511F04C5FC9019C013695279536955C
:1019F00027952115310511F04E5FC9019695879500
:101A0000892B09F04F5F842F0895A6E0B0E0EBE04A
:101A1000FDE00C941C2F49835A8349815A819923F4
:101A2000A1F0222391F0CA010E94C80B182F682F41
:101A300089819A810E943C0C69817A81812F0E9460
:101A40007A0A2696E3E00C94382FCA010E94090C0A
:101A5000182FF2CFCF93DF93682F81E06A3019F00F
:101A60006D3031F480E00E94B80DDF91CF91089580
:101A7000809104079091050726E0FC01AEEFB6E0E7
:101A800001900D922A95E1F7603E08F458C026E0D7
:101A9000FC0111922A95E9F7C0910407D09105073E
:101AA00046E050E0BE018EEF96E00E942F309E018E
:101AB0002E5F3440892B41F1C90145E09695879509
:101AC0004A95E1F741E050E0BA0102C0660F771F86
:101AD0008A95E2F7CB016091FC047091FD04862B9E
:101AE000972BB9016B5F7F4FE5E076956795EA9597
:101AF000E1F702C0440F551F6A95E2F7842B952B3E
:101B00009093FD048093FC042A5F3F4F4091FB04B7
:101B1000642F70E0C9010E94F92E481B463010F472
:101B2000240F311D211572E0370710F030E020E05E
:101B300022503B4F309305072093040796CFF6E0E1
:101B40006F9FB00111246B56794F46E050E00E9420
:101B50001930A2CFCF93DF93EC01FE018491811164
:101B600003C0DF91CF9108950E942A0D2196F5CFF1
:101B7000CF93382FE0910407F0910507EE5FF44012
:101B80002091FB04622F70E0CF010E94F92E281BE8
:101B9000822F332361F066E00E94442FC82FC1508A
:101BA00010F4CF91089580E20E942A0DF8CF9F0192
:101BB000280F311D2115324018F080E0F0E0E0E000
:101BC0008E0F9F2F911D82509B4F909305078093FE
:101BD0000407E7CF0E94AA0D81E00E94B80D089586
:101BE0008091280290912702892B8093C4019091C3
:101BF00026029923A1F0892B8093C401809148018A
:101C00008823E1F180918D0487FF38C08EE1E6ECF6
:101C1000F1E090E08150A0F591111092260240E28F
:101C200050E066E072E084EC91E00E942F30892B56
:101C300021F180E2E4ECF1E0A6E0B2E001900D9247
:101C40008A95E1F7E0918404F09185043097A9F03A
:101C500080914801882359F080918D0487FF07C047
:101C60008091C4018093C50186E08093C401028005
:101C7000F381E02D84EC91E00995089586E0C7CFCB
:101C80002191222339F29F5FC5CF882321F00E9442
:101C9000B70B0E94F00D0895882339F09091280227
:101CA000982B909328020E94F00D08950F931F9394
:101CB000CF93DF938B01EA019091B404943061F5E6
:101CC0008093E9008FEF9091E800815095FD06C068
:101CD00095ED9A95F1F700008111F5CF8091E8001C
:101CE00085FF1AC00E945F06811111C08091E80033
:101CF00085FD06C08091E8008E778093E800F2CFE2
:101D0000F80181918F018093F100219779F78091FB
:101D1000E8008E778093E800DF91CF911F910F91BB
:101D2000089543E050E0BC0182E00E94560E089501
:101D300046E050E0BC0182E00E94560E0895CF9329
:101D4000DF93EC0180914801811111C048E050E01F
:101D5000BE0181E00E94560E80E2FE01A2E9B4E0DD
:101D600001900D928A95E1F7DF91CF9108958091CE
:101D70008D0487FF05C040E282E050E0BE01EACF5B
:101D800048E081E0FACF609144018091740480FFC3
:101D900020C08091430143E0849FC00111248C53F3
:101DA0009D4F539A2BB1277F3BB138605FB7F894B2
:101DB000FC01649FE00DF11D1124BF016817790734
:101DC000D1F45FBF8FE594E00197F1F700C0000008
:101DD0000895809145019091460123E0829FF00192
:101DE0001124EC53FD4F8917A0F611821082128244
:101DF0008F5F3396F8CFFC014191CF01E8E03BB90A
:101E0000000000C047FF2BB9440F000000C000C015
:101E100000C02BB900C0EA9591F7D0CF0F931F9364
:101E2000CF93DF93EC0110E000E090914701901711
:101E3000110609F06CF40E94C30E8C8190E00196AB
:101E4000817099278C83DF91CF911F910F91089515
:101E500020914501A801420F511D9A01220F331F05
:101E6000240F351F2C533D4F4C8160917604809197
:101E7000750496959017110651F04CF0442349F0E3
:101E8000409177040E9487080F5F1F4FCECF4423F5
:101E9000B9F340E0F7CFB0E0A0E0E1E5FFE00C945B
:101EA000132FEC014C81042F10E09801D8010E94FF
:101EB000F1309B01AC010E94BC304B015C01E0E2BF
:101EC000F0E0E01BF10BA5E5B0E0AC019B010E9446
:101ED000BC306B017C019F01DF010E94782F9B01C8
:101EE000AC010E94C7309B01AC01280D391D4A1D71
:101EF0005B1DC701B6010E94CF30F22E822F90E009
:101F000039E23F1520F143E0249F900111243595DB
:101F10002795122F109500E085E5E82EEF188091A7
:101F20004701081718F10E94C30E9C8181E0992394
:101F300019F0903219F48FEF8093420180914201A1
:101F4000890F8C83CDB7DEB7ECE00C942F2F25E5FD
:101F500030E0B901681B790B9B01220F331F260F5C
:101F6000371F37FFD4CF2F5F3F4FD1CF8E2D01FDCD
:101F70008F2D20914501622F600F7727771F9B01DE
:101F8000220F331F260F371F2C533D4F412F6091D7
:101F900076040E9487080F5FC2CFEF92FF920F93E3
:101FA0001F93CF93DF93EC018C81811109C081E0F5
:101FB0008C831092C20292E0909341018093400181
:101FC000809145019091460123E0829FF001112408
:101FD000EC53FD4F891758F110E003E06091470181
:101FE000161758F10E94C30E809140012091C20241
:101FF000280F2093C20290914101980F90934101C4
:10200000191654F4022E000C330B40914701415035
:10201000550B2417350734F08195809340018130AA
:1020200009F41C82CDB7DEB7E6E00C94352F11829F
:10203000108212828F5F3396CDCFE12EF12C70E0AB
:10204000C7010E945E2F20914501820F482F50E06A
:102050002091C202022E000C330BE216F306BCF0F4
:1020600020914101022E000C330B2E153F057CF010
:10207000809F900111242C533D4F40917704609133
:102080007604809175040E9487081F5FA7CFFA012C
:10209000EE0FFF1FE40FF51FEC53FD4F118210826E
:1020A0001282F3CFB0E0A0E0E8E5F0E10C94132F4A
:1020B000EC018A81BB24BA9480FD02C0BB24B39496
:1020C000A09047018C81811109C081E0B81220C025
:1020D0008FEF8A0D8093C10281E08C83F12CE12C7B
:1020E00046E3942EEA14B8F00E94C30E8091C10218
:1020F00091E0B91257C0811150C0809147018150C1
:102100008093C1021C82CDB7DEB7ECE00C942F2F78
:102110001092C102E1CF009145010E0D1F2D111D3E
:10212000C801880F991F080F191F0C531D4FF80184
:1021300011821082128234E0C32ED12C812C809126
:10214000C102880D87332CF1692D0E94502F892FF1
:10215000082E000C990B8E159F0591F48091770441
:102160008C9DA0018D9D500D112455954795559539
:102170004795980160917604809175040E948708C4
:102180008B0CF1E0CF1AD108D1F68FEFE81AF80ADC
:10219000A9CF87FFDDCF8A0DDBCF81508093C102AD
:1021A000BC82B1CF90E001966091470170E00E943F
:1021B0005E2F8093C1028C83A6CFEF92FF921F9374
:1021C000CF93DF93EC0110E0EE24EA94F12C6091C0
:1021D0004701161770F00E94C30E9A818C8190FF00
:1021E00027C08F5F8C83DF91CF911F91FF90EF907D
:1021F000089520914501422F410F5527551FCA01CF
:102200009A01220F331F280F391F2C533D4F70E0C6
:10221000C7010E945E2F962F8C81409177046091B8
:102220007604199F800D11240E9487081F5FCFCF6D
:102230008150D8CF9091740490FF0EC090914501C9
:102240002091460133E0939FF0011124EC53FD4FA0
:10225000921718F00E94C30E089581836083428311
:102260009F5F3396F5CFA3E0B0E0E9E3F1E10C9492
:102270001B2F8C018091C30281110AC09E012F5F28
:102280003F4F48E76FEF0E9487088A818093C3021F
:10229000F8016481613069F08091C30240E06623F7
:1022A00061F040E0623011F44091C30280E060E0F0
:1022B00004C06091C30240E080E00E941A11F8015E
:1022C000848190E0019663E070E00E945E2F848339
:1022D0002396E4E00C94372FA3E0B0E0E2E7F1E1CD
:1022E0000C941D2F9091740490FF0AC09E012F5FE3
:1022F0003F4F0E9487084B8169818A810E941A1191
:102300002396E2E00C94392FCF93DF93EC01E4E7BE
:10231000F4E0438162818C810E946C118C818F5F1B
:102320008C83DF91CF910895CF93DF93EC01EC8103
:10233000F0E0EA5DFB4F4491E4E7F4E062818181E3
:102340000E946C118C818F5F8C83DF91CF910895F7
:10235000B0E0A0E0EEEAF1E10C94152F7C015B0106
:102360006A0180915C0201E010E08A3010F40AE01A
:1023700010E0C1E0D0E0B501C701F6010995811177
:1023800004C021960C171D072CF4CDB7DEB7EAE088
:102390000C94312FCC9F9001CD9F300D300D112426
:1023A00090E080E045E34A95F1F70000019682173E
:1023B0009307C1F7E0CF80913702811110C080915F
:1023C000D80080618093D8008AE18A95F1F700C037
:1023D0008091D90080FF0AC081E08093370281E0BC
:1023E00090913702913009F080E0089582E0809367
:1023F00037020E9440061092B404F1CF0E94DB1114
:10240000882359F0E0918404F0918504309729F0F5
:102410000190F081E02D0995089580E008950F93D3
:102420001F930E94DB11882329F00E94AE071F91A1
:102430000F9108950E94AE0700915D0210915E0217
:1024400020915F0230916002600F711F821F931F05
:10245000EECFB0E0A0E0EFE2F2E10C94172F6C01B8
:102460007B0164E670E088E70E94572C8C01E6014E
:10247000EC0CFD1C17FD0BC0FE01849164E670E0BE
:102480000E94C32C8C012196CE15DF0599F70E947E
:10249000392D81E00115110509F080E0CDB7DEB7D7
:1024A000E8E00C94332F8091800490918104911185
:1024B00003C091E089270895882369F062E070E005
:1024C00088E295E00E942912811103C08091800466
:1024D00008951092800480918004EBCFCF93C09137
:1024E0008004809181048823D1F00E94AE07605A55
:1024F00075418F4F9F4F60937C0470937D04809350
:102500007E0490937F04C11108C062E070E086E20F
:1025100095E00E942912811105C0C09180048C2F82
:10252000CF91089581E080938004F7CFB0E0A0E0E0
:10253000ECE9F2E10C940F2FFC016280448081E011
:102540008483E6E2F4E07490E5EAF4E0E491C0917B
:102550007704C695C158D0E0CC0FDD1FCD2FDD2705
:10256000812C75E0972EAA24AA94B12C55245A9454
:10257000E719EE2EF12C80914701881638F00E9461
:10258000C30ECDB7DEB7E0E10C942B2FC82CD12CB5
:1025900082E0861568F09C9CF0019D9CF00D112452
:1025A000EA59FC4F80917504808380917604818381
:1025B000411023C09C9CF0019D9CF00D1124EA5910
:1025C000FC4F1382128220914501C601820F911D9A
:1025D0009C01220F331F280F391F2C533D4F9C9C09
:1025E000F0019D9CF00D1124EA59FC4F428161815C
:1025F00080810E9487088394BECF9C9C80019D9C13
:10260000100D11240A591C4FF80183818823F1F021
:1026100081508383859DC0011124648170E00E94F4
:10262000F92EFB01FF27EA5DFB4F8491E82FE719A4
:10263000E59DC0011124B7010E94F92E8091770415
:10264000689FB0011124F8017283BDCF0E94093048
:10265000B5010E945E2F8C179D070CF0B4CFF2E0FD
:10266000F61598F40E940930B5010E945E2FF8011A
:1026700080830E940930209176042695622F70E0B5
:102680000E945E2F280FF80121839C9CF0019D9CE5
:10269000F00D1124EA59FC4F128280917704893C95
:1026A00058F088EC9C9CF0019D9CF00D1124EA5997
:1026B000FC4F8483838387CF8431A0F784E1F2CFFA
:1026C000B0E0A0E0E6E6F3E10C94132F49015A01D3
:1026D0006B017C010E9471088401A4016A2D7B2D8D
:1026E00088E090E00E947B3094014A2D5B2DB6017A
:1026F000C70100E20E94A22F622F84E290E00E94B4
:102700006930CDB7DEB7ECE00C942F2FA3E0B0E03A
:10271000ECE8F3E10C94162F082FE62EF42EC22ECF
:102720009091740490FF40C020917504281308C054
:1027300080917604861304C080917704841729F071
:102740008091C00282608093C002E92FE695AE2F8F
:10275000B0E0AA56BE4F8C918093BE029E7F92300D
:1027600039F59E012F5F3F4F4F2D6E2D802F0E9418
:1027700087084B8169818A810E941A110093750430
:10278000E0927604F0927704CC2071F020917404EA
:102790006091780470917904302FA70180917A04B8
:1027A00090917B040E9460132396E9E00C94322FF1
:1027B000823019F4F0907704E1CF8630A1F18930AE
:1027C00091F18931D9F6E9516E2F6170B62EE695F7
:1027D000F0E0EF5DFB4F1491D12C60914701D616CC
:1027E00018F00E94C30ECACFD19EC001112470E020
:1027F0000E94F92E802FB11014C0860F2091450140
:10280000622F6D0D7727771F9B01220F331F260F35
:10281000371F2C533D4F4F2D6E2D0E948708D394A8
:10282000DCCF861BEBCF022FA9CFE4E7F4E0438196
:1028300021E1421B08F440E021E0628181810E9495
:1028400086130895E4E7F4E0438121E1420F08F4A0
:102850004FEF21E0628181810E9486130895E4E7B1
:10286000F4E0628121E1621B08F460E021E0438131
:1028700081810E9486130895E4E7F4E0628121E1FA
:10288000620F08F46FEF21E0438181810E9486137B
:102890000895E4E7F4E0818121E0438162818A5078
:1028A0000E9486130895E4E7F4E0818121E04381EA
:1028B0006281865F0E948613089580917804882340
:1028C00019F081508093780420917404309175043C
:1028D0004091760450917704609178047091790466
:1028E00080917A0490917B040E94601308958091F6
:1028F0007804833018F48F5F8093780420917404F7
:102900003091750440917604509177046091780479
:102910007091790480917A0490917B040E946013F5
:102920000895E4E7F4E083E0808311828FEF8283EF
:1029300088E783831482AEEBB2E012968C911297F3
:10294000836012968C93758123E030E04FEF58E757
:1029500060E0868197810E946013089590918E04B3
:1029600092FB222720F9281779F080FB92F99093A7
:102970008E0460918D0470918E0484E090E00E943A
:10298000873082E00E94920C0895A4E0B0E0EBEC66
:10299000F4E10C941C2F409140025091410260914F
:1029A0004202709143022FB7F8948091890490916C
:1029B0008A04A0918B04B0918C042FBF841B950BCB
:1029C000A60BB70B11E084369105A105B10570F196
:1029D0000E940F126E5F7F4F8F4F9F4F69837A83E4
:1029E0008B839C8380911501909116018C5B9D4F88
:1029F0004091140150E04530510510F044E050E0A2
:102A0000BE016F5F7F4F0E943C3082E090E00E94E9
:102A1000832E182F882351F00E94AE076093400246
:102A2000709341028093420290934302812F249637
:102A3000E3E00C94382FABE0B0E0E1E2F5E10C9478
:102A40001D2F88E0E4E7F4E0DE01119601900D927D
:102A50008A95E1F78091BE029091BF02A091C002D9
:102A600089879A87AB872B854091580250915902EC
:102A700060915A0270915B023FB7F894809189048B
:102A800090918A04A0918B04B0918C043FBF841B69
:102A9000950BA60BB70B84369105A105B10510F473
:102AA000222319F180911D0190911E018C5B9D4F95
:102AB00040911C0150E04C30510510F04BE050E0CB
:102AC000BE016F5F7F4F0E943C3083E090E00E9428
:102AD000832E882369F00E94AE076093580270939A
:102AE000590280935A0290935B021092C00281E0D7
:102AF0002B96E2E00C94392FEF92FF921F93CF9325
:102B0000DF9300D000D00F92CDB7DEB77B0190E00D
:102B100080E00E94832E182F882309F487C04091FB
:102B2000070150E04115510511F041E050E060917E
:102B30000801709109016C5B7D4FCE0105960E94E2
:102B40003C3040913C0250913D0260913E027091B8
:102B50003F022FB7F8948091890490918A04A09144
:102B60008B04B0918C042FBF841B950BA60BB70B65
:102B700084369105A105B10540F485E492E00E94F8
:102B800029069D81891709F451C081E090E00E94D7
:102B9000832E81111AC010E0809138029091390281
:102BA000A0913A02B0913B02F70180839183A28306
:102BB000B383812F0F900F900F900F900F90DF91A4
:102BC000CF911F91FF90EF90089540910F0150E039
:102BD0004530510510F044E050E0609110017091D3
:102BE00011016C5B7D4FCE0101960E943C3085E463
:102BF00092E00E9429069D818913CDCF0E94AE07E5
:102C000060933C0270933D0280933E0290933F029A
:102C100089819A81AB81BC8180933802909339027B
:102C2000A0933A02B0933B0211E0B6CF80914502E7
:102C300090914602A0914702B091480289839A83FD
:102C4000AB83BC831111E4CFA7CFA8E0B0E0EBE2E7
:102C5000F6E10C941D2F66EE7EEF90E080E00E947E
:102C6000873060E082E090E00E94693060E083E0BD
:102C700090E00E94693010922A021092290260E0CE
:102C800074E184E090E00E94873060E086E090E0AC
:102C90000E9469306FEF87E090E00E94693040E069
:102CA00050E0BA0188E090E00E947B3060E084E26E
:102CB00090E00E94693060E087E190E00E94693016
:102CC00060E08CE090E00E94693060E08DE090E090
:102CD0000E94693019821A821B821C821D821E8208
:102CE0001F82188648E050E068E170E0CE0101964E
:102CF0000E94593040E050E0BA0180E290E00E942A
:102D00007B3040E050E0BA018FE090E00E947B30E1
:102D100040E050E0BA0183E190E00E947B302896C9
:102D2000E2E00C94392F1F920F920FB60F921124EC
:102D30002F933F934F935F936F937F938F939F93C3
:102D4000AF93BF93EF93FF938091E10082FF09C09F
:102D50008091E20082FF05C08091E1008B7F80932B
:102D6000E1008091DA0080FF24C08091D80080FFCC
:102D700020C08091DA008E7F8093DA008091D900A4
:102D800080FF9DC080E189BD82E189BD09B400FE5C
:102D9000FDCF81E08093B40480918F04811109C03C
:102DA0000E9440060E94E1068091E20084608093C8
:102DB000E2008091E10080FF17C08091E20080FF77
:102DC00013C08091E2008E7F8093E2008091E20048
:102DD00080618093E2008091D80080628093D80067
:102DE00019BC85E08093B4048091E10084FF2BC07E
:102DF0008091E20084FF27C080E189BD82E189BD26
:102E000089B5982F917080FFFBCF8091D8008F7D7E
:102E10008093D8008091E1008F7E8093E1008091C3
:102E2000E2008F7E8093E2008091E20081608093D7
:102E3000E2008091B504882309F447C084E08093C0
:102E4000B4048091B4048091E10083FF27C0809195
:102E5000E20083FF23C08091E100877F8093E1003F
:102E600082E08093B4041092B5048091E1008E7FDB
:102E70008093E1008091E2008E7F8093E200809158
:102E8000E20080618093E20042E060E080E00E9426
:102E9000AF068091F00088608093F000FF91EF9181
:102EA000BF91AF919F918F917F916F915F914F9162
:102EB0003F912F910F900FBE0F901F90189519BC46
:102EC0001092B40410928F0474CF8091E30087FDB8
:102ED00093E09093B404B5CF78941F921FB61F92DD
:102EE00011248F939F93AF93BF9380918904909106
:102EF0008A04A0918B04B0918C040196A11DB11D90
:102F00008093890490938A04A0938B04B0938C04DB
:102F1000BF91AF919F918F911F901FBE1F901895E9
:102F20009C014FB7F8948091890490918A04A091F4
:102F30008B04B0918C044FBF821B930B08952FB765
:102F4000F8948091890490918A04A0918B04B091A7
:102F50008C042FBF08950E949F179C019091B4028A
:102F60008091B502982B21F03093B1022093B002EA
:102F70009091B6028091B702982B21F03093AF0266
:102F80002093AE02E0918404F0918504309749F0DB
:102F900082E08093B2020480F581E02D82EB92E022
:102FA000099508951092280280914801E6ECF1E01D
:102FB000882329F180918D0487FF21C08EE1DF01F4
:102FC0001D928A95E9F790E080E00E943E0890E02B
:102FD00080E00E941908109227020E94F00D86E0FE
:102FE000E2EBF2E0DF011D928A95E9F71092AB0265
:102FF0001092AC021092AD020E94AB17089586E0C9
:10300000DECFAAE2B0E0E7E0F8E10C941C2F86EBFB
:1030100094E02091F100FC012193CF01F4E08E3B7C
:103020009F07B9F78091B704833009F470C0B8F4F2
:10303000813009F447C0823009F4B1C08091E800C2
:1030400083FF7EC28091B6049091B7049A3008F055
:1030500077C2E92FF0E0EE5FFE4C0C94722F8A30BD
:1030600009F48CC08B3009F46FC0893039F7809136
:10307000B604813219F78091BA049091BB0402978B
:10308000E8F68091E800877F8093E8008091E8006F
:1030900082FF38C09091F3008091F200029731F4E2
:1030A0008091F100813011F0863021F48091F1009F
:1030B000809391048091E8008B778093E8000E94D0
:1030C0009006BCCF8091B604813A09F0B7CF8091C9
:1030D000E800877F8093E8008091BA049091BB0458
:1030E000892B61F460E282E994E070E00E943C0781
:1030F0008091E8008B778093E800A0CF60E090E0BB
:1031000080E0F3CF8091B4048111C0CF97CF80913C
:10311000B604813A09F092CF8091BA049091BB0431
:10312000892B09F08BCF8091E800877F8093E8009E
:103130008091E80080FFFCCF809148018093F100EE
:103140008091E8008E77B9CF8091B604813209F082
:1031500075CF8091BA049091BB04892B09F06ECF92
:103160008091E800877F8093E8000E94900680911C
:10317000B804809348010E94D21760CF8091B604B2
:10318000813209F05BCF8091E800877F8093E8006F
:103190000E9490068091B904809390044FCF809153
:1031A000B604813A09F04ACF8091E800877F809386
:1031B000E8008091E80080FFFCCF80919004BECFB2
:1031C000803899F0823809F0BBC18091BA048F70C1
:1031D000873008F0B5C18093E9008091EB0085FB52
:1031E000882780F91092E90006C08091B20490917E
:1031F000B304911182609091E800977F9093E8006A
:103200008093F1001092F1008091E8008E7794C1D4
:10321000882309F482C1823009F092C18091B804F8
:10322000811185C18091BA048F702FEF280F26304D
:1032300008F086C18093E9002091EB0020FF77C160
:10324000933031F48091EB0080628093EB006FC18A
:103250009091EB0090619093EB0021E030E001C091
:10326000220F8A95EAF72093EA001092EA008091F3
:10327000EB008860EACF811163C11091B8041F7719
:103280008091E3008078812B8093E3008091E800B7
:10329000877F8093E8000E9490068091E80080FF7D
:1032A000FCCF8091E30080688093E30082E01111FD
:1032B00083E08093B40444C18058823008F040C158
:1032C0008091B8049091B9048C3D23E09207A1F558
:1032D00083E08A838AE289834FB7F894DE011396EC
:1032E00020E03EE051E2E32FF0E050935700E491FC
:1032F00020FF03C0E295EF703F5FEF708E2F90E0EC
:10330000EA30C0F0C7968D939D932F5F243159F713
:103310004FBF8091E800877F8093E8006AE270E009
:10332000CE0101960E943C078091E8008B77809344
:10333000E80006C1C096E7CF4091BA045091BB04A3
:10334000292F33272330310509F444C078F5213083
:10335000310509F46FC08BE390E0E4E2F6E022303F
:10336000310509F0EDC02091E800277F2093E800A7
:103370002091BC043091BD048217930708F49C018E
:1033800040E02115310509F064C0411162C080910F
:10339000E80082FDC9CF8091B404882329F28530EA
:1033A00019F28091E80083FFF2CFBECF21323105C0
:1033B000A9F12232310509F0C3C04115510509F4C4
:1033C00043C04130510509F0BBC086EB90E0EAE212
:1033D000F5E0C9CF992781309105C1F0009759F0E8
:1033E000029709F0ADC0E1E7F6E0E4918E2F90E09E
:1033F000E1E7F6E007C0E1E9F6E0E4918E2F90E026
:10340000E1E9F6E0009709F49BC0ADCFEFE7F6E005
:10341000E4918E2F90E0EFE7F6E0F4CF41155105EF
:1034200071F04130510509F08BC089E090E0EFE484
:10343000F6E099CF82E190E0EFE5F6E094CF89E005
:1034400090E0E6E3F6E08FCF84E490E0E0EEF5E094
:103450008ACF8091B404882309F466CF853009F4BB
:1034600063CF8091E80083FD5FCF8091E80082FD0B
:103470008ECF8091E80080FF84CF9091F3008091FF
:10348000F2002115310519F08830910550F041E026
:10349000089709F040E08091E8008E778093E8007B
:1034A00070CF44914093F10031962150310901963B
:1034B000E8CF803809F044C08091E800877F80938E
:1034C000E8008091B5048093F1009ECE811138C050
:1034D0001091B8041230A0F58091E800877F8093A6
:1034E000E8001093B5040E949006112311F084E0C7
:1034F00005C08091E30087FDFACF81E08093B4049A
:1035000042E061EC81E00E94AF0642E261EC82E0C1
:103510000E94AF068091B40413C08091B80481303A
:1035200079F481E0933009F080E08093B304109245
:10353000E9008091E800877F8093E8000E94900670
:103540008091E80083FF0AC08091E800877F809324
:10355000E8008091EB0080628093EB00AA96E3E0A4
:103560000C94382F1F920F920FB60F9211242F93A5
:103570003F934F935F936F937F938F939F93AF93FB
:10358000BF93CF93DF93EF93FF93D091E900DF7068
:103590008091EC00C82FC17080FDC0E81092E90056
:1035A0008091F000877F8093F00078940E9401184A
:1035B0001092E9008091F00088608093F000CD2B9C
:1035C000CF70C093E900FF91EF91DF91CF91BF9150
:1035D000AF919F918F917F916F915F914F913F91AB
:1035E0002F910F900FBE0F901F9018950E94D21729
:1035F0002FEF84E39CE0215080409040E1F700C031
:10360000000088E19AE00FB6F894A89580936000D6
:103610000FBE90936000FFCF662309F45DC08D3C20
:1036200041F40E94420981958093B5020E94AB1734
:1036300008958E3C19F40E944209F6CF8F3C31F474
:103640000E94420981958093B402F0CF803D19F425
:103650000E944209F8CF893D29F40E9420098093F5
:10366000B602E4CF8A3D21F40E9420098195F7CF6C
:103670008B3D31F40E94200981958093B702D6CF0B
:103680008C3D19F40E942009F8CF9FE2980F9830E2
:1036900070F4815D990B21E030E001C0220F8A9522
:1036A000EAF78091B302822B8093B302BFCF8D3DA6
:1036B00031F48091AD0281608093AD02B7CF8E3D31
:1036C00021F48091AD028260F7CF8F3D09F0AECF3B
:1036D0008091AD028460F0CF4091B4028D3C59F4EA
:1036E0008091B50287FF0DC01092B50241110BC049
:1036F0001092AB0208C08E3C81F48091B50218167E
:103700009CF3442381F08091B6029091B702892BFB
:1037100009F08CCF1092AC0289CF8F3C49F447FF5F
:10372000F0CF1092B4028091B5028111ECCFE0CFBE
:10373000803D19F41416ACF3E4CF9091B602893DA4
:1037400029F41916F4F61092B602DBCF8A3D19F46B
:1037500097FFD7CFF8CF9091B7028B3D29F497FF11
:10376000D0CF1092B702CDCF8C3D19F41916CCF3FF
:10377000C8CF9FE2980F983090F4815D990B21E0BB
:1037800030E0B90102C0660F771F8A95E2F7CB01DE
:1037900080959091B30289238093B302B2CF8D3D7F
:1037A00031F48091AD028E7F8093AD02AACF8E3D21
:1037B00021F48091AD028D7FF7CF8F3D09F0A1CF2D
:1037C0008091AD028B7FF0CF882399F19CEF980F09
:1037D000913A40F4682F84EC91E00E94BA070E946D
:1037E000F00D089590E2980F983050F4877091E0B2
:1037F00001C0990F8A95EAF7892F0E94B70BEFCF86
:103800009BE5980F933028F490E080E00E943E08FA
:10381000089598E5980F9B3128F490E080E00E948D
:103820001908089593E3980F933118F460E00E940B
:103830000C1B0895CF93C82F8823D9F18CEF8C0FE0
:10384000813AC8F580914801882311F180918D0457
:1038500087FF1EC0EC2FE695E695E695F0E0EC5369
:10386000FE4F828190E04C2F477021E030E002C093
:10387000220F331F4A95E2F782239323892B91F07D
:103880006C2F84EC91E00E94BA070E94F00D0AC0F0
:10389000E6ECF1E08CEC91E02191C21789F38E17F0
:1038A0009F07D1F76C2F84EC91E00E94E4070E94FF
:1038B000F00DCF91089580E28C0F883068F4C770C6
:1038C00021E030E001C0220FCA95EAF7809128027A
:1038D000822B80932802EBCFEBE5EC0FE33040F432
:1038E000F0E0E75BFE4F808190E00E943E08E1CF70
:1038F000E8E5EC0FEB3150F4F0E0EE0FFF1FE45B76
:10390000FE4F808191810E941908D3CF83E38C0FF1
:10391000833178F661E08C2F0E940C1BCACF0F9385
:103920001F93CF93DF93C62FD42F022FFC018581E5
:103930008823A9F06093FA040E949F179093F904DA
:103940008093F804C77081E001C0880FCA95EAF738
:103950000E944C0EDF91CF911F910F91089580919D
:10396000FA04681335C08091F8049091F9040E941C
:103970009017883C910560F510E21D0FCD17B9F046
:1039800080E28C0F883040F4C77081E001C0880F5E
:10399000CA95EAF70E94450E183048F481E09D2F41
:1039A000977001C0880F9A95EAF70E944C0E802FFD
:1039B0000E941A1C802F0E94E41B183058F6D77002
:1039C00081E001C0880FDA95EAF70E94450EC2CF68
:1039D000C77081E001C0880FCA95EAF7F6CF0E9450
:1039E000DB11882319F00E949F1708950E940F127F
:1039F000CB01089560917404669570E04BE050E04F
:103A000085E391E00E942230892B19F481E08093B4
:103A1000BF020E94EF1C9093B9028093B80280917C
:103A2000C00284608093C00208959091740490FF56
:103A300039C09170811137C0926090937404809165
:103A4000C00281608093C002662391F020917404CB
:103A50003091750440917604509177046091780418
:103A60007091790480917A0490917B040E94601394
:103A700060917404669570E04BE050E085E391E05E
:103A80000E942230892BB1F00E946A0881E0809365
:103A9000BB0220E040917704609176048091750428
:103AA0000E94861308958B3210F09465C6CF880F5C
:103AB000982BC3CF0E94FA1CE9CF8091740486959D
:103AC000815009F48AE261E00E94151D08958091F9
:103AD000740486958F5F8B3208F081E061E00E946C
:103AE000151D08959091740490FF08C0969598173D
:103AF00028F0961718F40E94671D089561E00E944F
:103B0000151D0895B0E0A0E0E8E8FDE10C94152F44
:103B10008C01FC018481882309F468C021E0408184
:103B200051816281738195810E94050DEC01F8013C
:103B30009581992309F47EC480E280932D01D0936E
:103B40008302C09382029E0130522115304238F424
:103B5000F8018681807F09F465C0FE010AC09E01DC
:103B600030542115304100F5F8018681807FFE0137
:103B700009F0FF27ED33F10560F4E455FF4FE491C0
:103B8000E0932D01F80181818093850280818093EB
:103B90008402FE01E851FC47E730F10508F042C01D
:103BA000E45FFE4C0C94722F9E013A9521153F4123
:103BB000A0F29E01205A32452032310550F3FE0119
:103BC000D9CF26E241EE61EEC8010E948F1C8091A0
:103BD0000502877059F0F8018581882339F08091BA
:103BE0008E0482FF03C082E00E94920CCDB7DEB744
:103BF000EAE00C94312F27E245EE65EEE5CF26E2B0
:103C000041EE60EEE1CF27E245EE64EEDDCF26E245
:103C100041EE62EED9CF27E245EE66EED5CF28E23F
:103C200041E0EBCF1092FA049E0130572332310568
:103C300008F01AC484E090E00E94533090938E0400
:103C400080938D04FE01E150F047E232F10520F44B
:103C5000ED5EFE4C0C94722F80918D0481608093F8
:103C60008D0495C080918E04886080938E048FC0EF
:103C700080918D048260F3CF80918D048460EFCFBA
:103C800080918D048860EBCF80918E048160EDCFB0
:103C900080918E048260E9CF80918D048061DFCFB6
:103CA00080918D048062DBCF80918D048064D7CFBA
:103CB0000E94D21780918D048068D1CF80918D04AD
:103CC0008C60CDCF80918E048360CFCF80918D04A6
:103CD0008E7FC5CF80918E04877FC7CF80918D0462
:103CE0008D7FBDCF80918D048B7FB9CF80918D0466
:103CF000877FB5CF80918E048E7FB7CF80918E0461
:103D00008D7FB3CF80918D048F7EA9CF80918D045C
:103D10008F7DA5CF80918D048F7BA1CF0E94D2177C
:103D200080918D048F779BCF80918D04837F97CF77
:103D300080918E048C7F99CF80918D0482FB99278E
:103D400090F921E0922790FB82F990FB83F987CFCD
:103D500080918E04982F909591708E7F892B90FB87
:103D600081F983CF90918D04892F8F7B96FF80649A
:103D700076CF0E94D21790918D04892F97FB87F9F7
:103D800080586DCF61E08EE090E00E9469306091D4
:103D90008D0470918E0484E090E00E9487300E9430
:103DA000D21715CF60E0EFCF90918D04892F8F7ED1
:103DB00094FF806154CF90918D04892F8E7F90FF66
:103DC00081604DCF90918E04892F877F93FF88600B
:103DD0004CCF8091E40169E2811165E384EC91E0CC
:103DE0000E94BA0755C3992309F430C3C3302CE7A6
:103DF000D20709F4F3C008F0D6C0C1158CE7D80784
:103E000009F4DFC0C130DC4709F4EEC0F801858158
:103E1000C081D181882309F4F5C0CE010E94C80B6E
:103E2000F82E682FCE010E943C0CBE018F2D0E94FF
:103E30007A0A0E94990AD82FC92FA82EF801C580A6
:103E4000B680B2943FE0B322809105028770F1F012
:103E5000EC2CCC20E1F0892F807F803451F080E27F
:103E60008D0F883098F0B11004C0892F807E803289
:103E700069F080918E0482FF09C082E00E94920C5A
:103E8000809105028770EE24E3948111E12CDC2EF1
:103E9000D2942FE0D222FBE0FD1508F418C1ED2DDD
:103EA000F0E0EB5CFE4C0C94722F8091740480FF68
:103EB0001EC0282F2E7F20937404309175044091EA
:103EC0007604509177046091780470917904809120
:103ED0007A0490917B040E9460130E946A0880918A
:103EE000C00281608093C0020E94C30E70CE8160C8
:103EF0008093740461E086950E94151D68CE4DE59F
:103F00005DE167E67DE10E94630861CE47E65DE121
:103F10006DE57DE1F8CF49E454E163E574E1F3CF69
:103F200043E554E169E474E1EECF4FE254E16CE320
:103F300074E1E9CF4CE354E16FE274E1E4CF45E191
:103F400054E162E274E1DFCF42E254E165E174E101
:103F5000DACF4DE554E167E774E1D5CF47E754E1A7
:103F60006DE574E1D0CF61E081E0C6CF65E082E02D
:103F70000E94721D2CCE68E086E0FACF6EE089E0E8
:103F8000F7CF64E18FE0F4CF67E185E1F1CF61E045
:103F900088E1B2CF62E289E1EBCF61E083E2ACCFAE
:103FA0006AE285E2E5CFCB35ECE7DE0749F1CC35B7
:103FB000FCE7DF07D9F0CA35DC4709F027CF81E0FD
:103FC0001CC00E94D2173FEF84E39CE03150804038
:103FD0009040E1F700C000000E949D076FEF7FEF67
:103FE00090E080E00E9487300E94F61A80918E0453
:103FF00082FB882780F991E089270E94AE1406CFC2
:1040000080E0FBCFCE010E94090CF82E0ECF2C2FA2
:104010002F70F22EC07F19F0F29490EFF922CC208D
:10402000B9F0FF2069F080E28D0F883010F0A11008
:1040300009C080912802F82AF09228020E94F00D0F
:104040008D2F43C080912702F82AF0922702F6CFE5
:104050008D2F0E94E41BFF20D1F1D05ED83010F0EC
:10406000A11004C08F2D0E94B70B06C0F094809160
:104070002702F822F09227020E94F00D28C03C2F60
:104080003F70F32EC07FC03219F0F29480EFF82217
:10409000AA2059F081E0A81609F479C0CC2009F4CF
:1040A00085C0BB2009F447C0CBCF80918E0482FD30
:1040B0003EC0CC20B1F1FF2039F080912802F82ACF
:1040C000F09228020E94F00D80E00E941A1C2D2D13
:1040D0002850330B2430310510F40E94FE11EE20DD
:1040E000A9F08091050280FD11C0F8011582869526
:1040F000869586950E94A90CC8010E94821D809118
:1041000005028695869586950E94800C20E0F80130
:104110004081518162817381848195810E94050D66
:1041200065CD80E00E94E41BFF2089F29BCFCC206C
:10413000A1F0B11004C08F2D0E944C0EC8CF91E0A9
:10414000B912C5CF809126029F2D9823F91609F444
:10415000BECFF82AF0922602BACFB110B8CF8F2D79
:104160000E94450E909126028F2D892329F08F2DD4
:1041700080958923809326028091E5019F2D9823C5
:1041800009F4A5CFF094F822F092E501A0CFCC205D
:1041900029F0E5E0EB1508F49ACFCDCFF4E0FB155C
:1041A00008F495CF8F2D0E94450E91CFBB20D1F3FF
:1041B00029E3A21209C03FEF87EE93E0315080401F
:1041C0009040E1F700C000008D2F0E94E41B7FCFDC
:1041D0008C2F86958695837069F0813009F077CFB2
:1041E0008D2F9C2F9370C11002C080E090E00E9440
:1041F00019086DCF8D2F9C2F9370C11002C080E0E5
:1042000090E00E943E0863CF6C2D8D2F0E940C1B06
:104210005ECF8C2F837009F03FC0C11058CF4D2F57
:10422000429546954770440F440F2D2F2F7030E074
:10423000042E02C0220F331F0A94E2F790E080E0C0
:10424000D4FF09C08FE090E002C0880F991F4A9503
:10425000E2F780959095C695C695C370C23099F0E7
:1042600078F44091290250912A02C13039F0822B12
:10427000932B842395230E94B90C29CF242B352B13
:10428000822B932BF8CF822B932B209129023091F4
:104290002A0282279327EFCF8695CC2011F08C2F0E
:1042A0008170882309F413CF4D2F429546954770AE
:1042B000440F440F2D2F2F7030E0042E02C0220F28
:1042C000331F0A94E2F790E080E0D4FF09C08FE04A
:1042D00090E002C0880F991F4A95E2F7809590956B
:1042E000C695C695C370C23099F078F440918002AB
:1042F00050918102C13039F0822B932B8423952376
:104300000E94720CE4CE242B352B822B932BF8CFFA
:10431000822B932B20918002309181028227932758
:10432000EFCFCF70CC2029F08C2F0E94A90C8D2FBD
:1043300003CF8D2F0E94450E8C2F0E94800CC7CE7C
:104340008D2FE2EFAE1699F1EA1570F0F0EFAF168F
:10435000D1F021EFA21691F0CC2009F45BC0B1108E
:104360006FCE8C2F8F7127C033EFA31639F194EFE6
:10437000A912F2CF80918E0482FD2EC08C2F8F71F6
:10438000CC20D9F218C0CC2069F0E4E0EB1508F499
:104390009ECECF7181E090E002C0880F991FCA9530
:1043A000E2F7B8CFF5E0FB1508F491CEF2CF8C2FF1
:1043B0008F71C110C2CF0E94A90C89CE90E080E01D
:1043C000CC2009F49DCFCF7181E090E002C0880F2E
:1043D000991FCA95E2F794CFCC2089F0CF718C2F2A
:1043E0000E94A90C80918E0482FF07C028E0C29F22
:1043F000C00111248360809305028C2FDCCF81E003
:104400000E94920C31E03B1508F061CE82E00E94E0
:10441000920C5DCEBB2059F0893309F0D5CE8FEFD9
:1044200097EEE3E081509040E040E1F7CBCE8C2F57
:104430008F7183CFFE01E851FC47E730F10508F4A6
:10444000AFCBC631FCE7DF0709F4C3CC809128026B
:104450008272FE01E052F847E531F10508F0D6CC52
:10446000EF5BFE4C0C94722FC631FCE7DF0709F0BE
:10447000BACC809128028A7A91E009F490E0909376
:10448000E40169E2811165E384EC91E00E94E407B4
:104490000E94F00D9CCBCF93DF9380910402807F2C
:1044A00009F04DC080910302882309F448C0E091CF
:1044B000F7045091BE04C091FF01D091FE016091BC
:1044C00000027091010247E05E17C9F18E2F90E063
:1044D000E49FF0011124E154FB4F2481222391F148
:1044E000489FF001499FF00D1124DF01A154BB4FFB
:1044F00011962C9111972C1325C02C912D1322C0AD
:1045000015962C91159721111DC012962D913C9155
:10451000261B370B283C3105A8F4809104028F70CC
:10452000806180930402EB53FB4F80818F70806128
:1045300080838EEF91E00E94821D0E94BE0BDF916E
:10454000CF910895FC013196E770BECFA4E1B0E0B1
:10455000ECEAF2E20C94132F8C0186E0F801DE0104
:104560001F9601900D928A95E1F7F8018481E5800C
:104570009EEFA92E91E0B92E90910202911128C0D0
:10458000882319F1EE20F1F0C8010E94BE0CF82E2C
:104590008823C1F087E0F801D50101900D928A953A
:1045A000E1F780910202813031F48091FE01909117
:1045B000FF010E94FC0B0E944B228F2D6496ECE0C1
:1045C0000C942F2FC8010E94821DFF24F394F5CF75
:1045D000D080C18082809380F090030220910002FD
:1045E00030910102A401421B530BFF2009F4D9C0F2
:1045F000483C510508F092C08823F9F29091FF01E0
:1046000080910402282F207F09F056C0C91214C0DF
:104610009091FE01D91210C0E11048C08F708061E6
:10462000809304028EEF91E00E94821D809104022B
:10463000F8018683F12CC1CFE11038C06C2D8D2D8F
:104640000E940A066C2D8D2D0E940A06E82E81110B
:10465000F1CFDF86C88A8F8598890E94FC0B292FAD
:1046600022952F70243058F49F70223088F09923BF
:1046700099F0F8019681907F79F4FE2C9ECF2A5F05
:104680002F70223068F0C8010E94821DEF2CF5CFF8
:10469000992311F0882389F3805E883070F3F3CF7B
:1046A000803F58F3815F833070F7E7CF8091040239
:1046B000816080930402BECFC91207C09091FE01B1
:1046C000D91203C0EE2009F48DC0C8010E94BE0CAF
:1046D000882309F477CFEE2009F474CF8091040287
:1046E000803288F02091FE013091FF0139872887C0
:1046F0009B868A86909102029C871D868E87CE01BA
:1047000008960E94821D87E0F801AEEFB1E00190AB
:104710000D928A95E1F70E944B2257CF90910402A7
:10472000292F207F51F48EEF91E00E94821D87E0B7
:10473000F50111928A95E9F77DCF882309F43DCFE1
:104740008091FF018C1110C08091FE01D8120CC025
:10475000E1100AC09683C8010E94821D87E0F5011E
:1047600011928A95E9F729CFC8010E94BE0C8823CF
:1047700009F428CFEE2009F425CF8091040280327D
:1047800010F22091FE013091FF013A8329839C822F
:104790008B82909102029D831E828F83CE010196AF
:1047A000B0CF483C5105D0F6882309F40ECFFE2C3B
:1047B000EE2009F407CF8091FF018C1120C0809179
:1047C000FE01D8121CC08091040280FD0FC0982FFA
:1047D000907F61F08683903F31F0982F907F905FBB
:1047E0008F70892B8683C8010E94821D87E0F801A3
:1047F000AEEFB1E001900D928A95E1F7DECEC801EF
:104800000E94BE0C81117FCF809104028160809351
:104810000402C8010E94821DD0CEABE1B0E0E3E10A
:10482000F4E20C941B2F4E8B5F8B688F798F8A8FED
:104830009B8F192F9111109227021D8A86E0FE018D
:104840007696DE011F9601900D928A95E1F70A8D0A
:10485000002341F021E04F85588969897A89C80190
:104860000E94050D0B8B1C8B87E0FE013F96DE013D
:10487000189601900D928A95E1F7CE0108960E9454
:10488000A62281110CC087E0FE013896DE01119648
:1048900001900D928A95E1F78C8581110BC017E08C
:1048A0008091F7049091BE04891331C06B96E4E0C7
:1048B0000C94372F2091BE0430E0C9010196877017
:1048C00099274091F7044817190699F097E0929FAD
:1048D000D001939FB00D1124A154BB4FFE0131961E
:1048E00001900D929A95E1F78093BE040E94BE0B51
:1048F000D6CF0E94D2171092BE041092F70487E020
:10490000EEEFF1E0DF011D928A95E9F7C8CF819FB4
:10491000C001112481549B4F0E94A622882331F2AA
:104920008091F70490E00196877099278093F704AF
:10493000B7CFA3E1B0E0EFE9F4E20C94122F8E01BF
:10494000045F1F4F88E0D8011D928A95E9F784E83B
:10495000C82E81E0D82EF12CE12CAA24A394B12CEE
:104960002EE8822E21E0922EF60181916F018F3F79
:1049700009F442C0F894E82FE295EF70F0E021A12D
:104980008F70A50102C0440F551F8A95E2F7CA0136
:10499000922F982B91A392A18095892382A378943A
:1049A00000C0E8E8F1E0712C31E021912F3F09F4DB
:1049B0006BC0A22FA295AF70B0E090968C9190E062
:1049C0002F7002C0959587952A95E2F780FD5CC00F
:1049D000832F782A330F8E169F0639F7F601319709
:1049E00080818F3F11F00E94720950EA5A95F1F7C9
:1049F000F801EE0DFF1D70828FEFE81AF80AA4E0AF
:104A0000EA16F10409F0B0CF48E050E0B80181E6C1
:104A100092E00E942F30009741F028E0F801A1E6D3
:104A2000B2E001900D922A95E1F700916A02892B7C
:104A300069F181E080932F020E949F1790932E02CC
:104A400080932D0280912D0290912E020E9490174A
:104A5000059700F110E004591D4F44E050E061E675
:104A600072E0C8010E942F30F12C892B51F084E0B4
:104A7000E1E6F2E0D80101900D928A95E1F7FF247A
:104A8000F39410922F0207C080E0A3CF80912F02F1
:104A90008111D8CFF12C0E94DB11E82EE0916A023F
:104AA000882309F47DC019821A821B821C820E2F72
:104AB00010E004591D4F80915C028A30D8F54CE714
:104AC00055E1BE016F5F7F4FC8010E94A811882386
:104AD00009F455C045EC54E1BE016F5F7F4FC8013A
:104AE0000E94A811882309F44AC04BE155E1BE0198
:104AF0006F5F7F4FC8010E94A811882309F43FC04F
:104B000010925C028091690290E044E050E0BE01A6
:104B10006F5F7F4F84599D4F0E942F3021E020937B
:104B20003602892BF1F4E12C8E2D8F296396EDE06E
:104B30000C942E2F80913002909131020E94901798
:104B4000843F914008F0BBCF80913602882359F30F
:104B500084E0FE013196DF011D928A95E9F71092FB
:104B60003602E0916902F0E0E459FD4F89819A81B3
:104B7000AB81BC8180839183A283B383D5CF8091A5
:104B80005C028F3F31F08F5F80935C028A3008F4C3
:104B9000B9CF0E949F179093310280933002D4CFF7
:104BA000F0E0E459FD4F84E0A5E4B2E001900D92FD
:104BB0008A95E1F785E492E00E94290680934402F9
:104BC0008090490290904A02A0904B02B0904C0213
:104BD0008091320290913302A0913402B09135025B
:104BE00088169906AA06BB06D1F0809232029092EE
:104BF0003302A0923402B09235020E94DB1181117F
:104C00000EC00E94AE07861A970AA80AB90A8092B7
:104C10005D0290925E02A0925F02B09260028BE011
:104C2000EDE4F2E0DE01119601900D928A95E1F734
:104C300080914D028695D0904E02C0904F02B09068
:104C40005002009156021091570210925702112300
:104C500009F46ACF10FF0BC029819091740420FFE2
:104C60001AC091609093740460E00E94151D11FFBA
:104C700006C020E04B2D6C2D8D2D0E94861312FF57
:104C800004C00023A9F00E94FA1C13FF4DCF81E05D
:104C90008093BB0249CF9E7F909374040E946A0860
:104CA0008091C00281608093C0020E94C30EDFCF5A
:104CB0000E946A08EACFA6E0B0E0E1E6F6E20C94D2
:104CC0001B2F0E949F178C0180912B0290912C0228
:104CD0008017910781F019821A820E949F17682F0E
:104CE00049815A81792F80E090E00E940D24109331
:104CF0002C0200932B022696E4E00C94372F1F928F
:104D00001FB61F9211248F939F93AF93BF938091EF
:104D10008804811113C08091890490918A04A09124
:104D20008B04B0918C044196A11DB11D8093890420
:104D300090938A04A0938B04B0938C04BF91AF919D
:104D40009F918F911F901FBE1F901895CDB7DEB712
:104D50002E970FB6F894DEBF0FBECDBF85B7806823
:104D600085BF85B7806885BF84B7877F84BF0FB64E
:104D7000F894A895809160008861809360001092FB
:104D800060000FBE80E890E00FB6F8948093610059
:104D9000909361000FBE80E799E09093C3018093E8
:104DA000C2010E9440060E94E1068091E2008460F8
:104DB0008093E20078948091B4048823A1F010914C
:104DC000E9001F709091EC00892F817090FD80E8C0
:104DD000182B1092E9008091E80083FD0E940118D1
:104DE0001F701093E90082E084BD93E095BD9AEFB7
:104DF00097BD80936E0010925D0210925E02109239
:104E00005F02109260020E94DB1180932401809166
:104E10002401882309F478C0109243018BE1809328
:104E200044010E94DB1181110E94972D8091240181
:104E30008091240194E0811190E090936A0284E0D3
:104E4000891B8093690284E90E94720986E60E94A8
:104E5000720987E90E94720986EC0E94720908E8CB
:104E600011E06EE8E62E61E0F62ED8018D918D01FD
:104E70008F3F11F00E947209E016F106B1F788E049
:104E8000ECE6F2E0DF01282F1D922A95E9F7E1E632
:104E9000F2E0DF011D928A95E9F790E080E00E9440
:104EA0005330863E9E4F11F00E94251682E090E01E
:104EB0000E9445308093740284E090E00E94533059
:104EC00090938E0480938D040E949924EFEFF6E76F
:104ED00021E0E150F0402040E1F700C000000E94D6
:104EE00099240E94DB11E4E08111E0E0F0E0E45954
:104EF000FD4F808181FF0CC06FEF7FEF90E080E07D
:104F00000E9487300E949D078BE18093430187CFE9
:104F100083E090E00E94453090E00E94B90C0E942E
:104F2000DB1112E0811110E00E94DB11811101C040
:104F300012E01093A60280E88093FB040E94512C9B
:104F40006BE070E08FE792E00E9429128823E9F17C
:104F50008091A60265E070E081FD1DC18AE792E0C4
:104F60000E942912882389F16DE070E088E692E0C2
:104F70000E942912882349F10E94AE07605A7541A8
:104F80008F4F9F4F60937C0470937D0480937E04C9
:104F900090937F04EEEFF4E080E092E0DF019C016B
:104FA0001D9221503040E1F7F0930507E09304078C
:104FB0008FEF9FEF9093FD048093FC0481E080933A
:104FC0008104809380041092A70280916B0281116A
:104FD0007BC090E080E00E945330863E9E4F21F0DF
:104FE0000E9425160E94911488E090E00E944D30A6
:104FF0004B015C0184E290E00E944530282F30E0B4
:1050000040E050E060E070E080E090E000E20E946C
:10501000872F282939294A295B2920937404309342
:1050200075044093760450937704609378047093EA
:10503000790480937A0490937B048091C00283600A
:105040008093C0022E7F89F50E94911488E090E041
:105050000E944D306B017C0184E290E00E9445305B
:10506000282F30E040E050E060E070E080E090E029
:105070000E94872FB22FA32FF42FE52F5B019701FA
:105080008601BC29A12BFE29E32BB0937404A093C5
:105090007504F0937604E093770460937804B092FB
:1050A000790480937A0490937B040E9471080E9493
:1050B0006A088091740480FF04C060E086950E94B5
:1050C000151D81E080936B020E94DB11811102C0EB
:1050D0000E949A2D85E291E0909385048093840448
:1050E00058E1252E312C8091B40400E112E1853085
:1050F00009F48CC00E94992435E7E32E32E0F32EA8
:105100004CE6C42E42E0D42ED601F70191918D9148
:105110002DE732E02E173F0709F482C09817B1F34C
:105120000E94DB11882E10E077247394D6010D9134
:105130006D01F70191907F01901629F19026B12C15
:10514000AA24A394892D8A21B1F08820A1F0BF82DE
:1051500018870E949F179A8789877B8691E0802F06
:105160008A2109F490E09C874F81588569857A856A
:105170008B850E940D24B394AA0CF6E0BF12E2CFF7
:10518000F701319700831F5F183081F60E940F12DC
:10519000DD24D3944AC085E792E0E2CE8091B40446
:1051A000843021F10E9453121092880440E40FB61B
:1051B000F894A895209260000FBE4093600083B7DA
:1051C000817F846083BF83B7816083BF7894889533
:1051D00083B78E7F83BF0FB6F894A8958091600047
:1051E000886180936000109260000FBE8091B304CC
:1051F000882361F00E949924ECE6F2E0819181110C
:105200002BC384E792E08E179F07C1F78091B40407
:10521000853009F4C3CF0E94D2170E94FE116ACFD5
:1052200098137ECF0E945B26D12C0E94DB118091C7
:10523000BF02882309F464C08091BE02E091740427
:10524000E695E81BE093BA02823009F091C0F0E0E5
:10525000E556FD4FE4910E2F10E024E9E22E21E106
:10526000F22E8091BB02882361F01092BB020E9453
:10527000EF1C9093B9028093B8021092BD02109275
:10528000BC020E94EF1CE091B802F091B9029C01AF
:105290002E1B3F0B2F3F3F4798F520917F02222383
:1052A000B1F010927F0220917D0230917E02821B2C
:1052B000930B8F3F9F4758F4205D3A4830937E020E
:1052C00020937D028091C00288608093C002A090EC
:1052D000BC02B090BD02E00FF11FF093B902E09361
:1052E000B80288EB92E0F70109958091BC02909199
:1052F000BD02892B29F4AB2819F081E080937F024D
:1053000080918104882309F4D2C08091A8029091F1
:10531000A9020E949017C29708F4A9C00E949F1783
:105320009093A9028093A8028EEF94E090930507D2
:10533000809304070E94DB11882309F4A3C189ED3F
:1053400092E00E94AA0D80918002909181020E94B9
:10535000E10C813009F48DC1882309F475C08230D5
:1053600009F48AC1833009F48AC184EB92E06EC0EB
:10537000863059F4F0E0E856FD4FE4910E2F10E02E
:1053800094E8E92E91E1F92E6CCF893061F4E6952D
:10539000F0E0EB56FD4FE4910E2F10E08DEDE82E7E
:1053A00080E1F82E5ECF8F3061F4E695F0E0EE56A6
:1053B000FD4FE4910E2F10E0B2E5EB2EB0E1FB2E95
:1053C00050CF853159F4F0E0E157FD4FE4910E2FB5
:1053D00010E0ADECEA2EAFE0FA2E43CF08E210E089
:1053E0007BE4E72E7FE0F72E883109F43ACF833251
:1053F00049F4EDE8F2E005911491F3E3EF2EF1E1C9
:10540000FF2E2FCF04EF11E06EE0E62E6FE0F62EB8
:10541000843209F426CF00ED17E059E6E52E58E076
:10542000F52E853209F01DCF8E2F63E00E94442FA8
:10543000E92FF0E0E657FD4FE4910E2F10E0E6E98A
:10544000EE2EE2E1FE2E0DCF81ED92E00E94EA0DFC
:105450000E94FE11182F83EB92E00E94EA0D8FE963
:1054600092E011FF02C089EA92E00E94EA0D809169
:10547000FC049091FD04892B09F009C180918004FE
:105480008823A9F00E94AE0700917C0410917D044E
:1054900020917E0430917F04601B710B820B930B73
:1054A0006F3F7F4F8F4F9F4710F40E945312D110D0
:1054B0000E946E1286E0E2EBF2E0DE0111960190AE
:1054C0000D928A95E1F7D090B302F090B40210915A
:1054D000B502E090B6020091B7021092B4021092A9
:1054E000B5021092B6021092B702812F8F2909F4EB
:1054F00045C08091B0029091B1020E9490179C012A
:105500009091AB02992309F4C7C125313105B0F15F
:105510009F3F19F09F5F9093AB02FF2059F00E94CC
:1055200042099FEF1F140CF491E0899F802D1124F4
:105530008093B402112359F00E94420991E01116A0
:105540000CF09FEF899F802D11248093B5028091EC
:10555000B402882399F0C090B502CC2079F00E9463
:105560006209882309F470C18093B4028C2D0E94D3
:105570006209882309F46AC18093B502802F8E29BD
:1055800009F445C08091AE029091AF020E9490173D
:105590009C019091AC02992309F479C12135310520
:1055A000B0F19F3F19F09F5F9093AC02EE2059F04D
:1055B0000E9420099FEF1E140CF491E0899F802D1A
:1055C00011248093B602002359F00E94200991E033
:1055D00010160CF09FEF899F802D11248093B70245
:1055E0008091B602882399F0E090B702EE2079F01E
:1055F0000E946209882309F42BC18093B6028E2D84
:105600000E946209882309F425C18093B702809122
:10561000B302D81217C08091B402882311F08F1101
:1056200011C02091B502222311F012130BC09091EA
:10563000B702992311F0901305C03091B6023323BD
:1056400009F420C10E94AB1786E0FE013196A2EB5F
:10565000B2E001900D928A95E1F70E94FE119091BF
:10566000AA02891709F43FCD8093AA020E94AE07CF
:105670003ACD8BEC92E0EACE85EC92E0E7CE8EEB71
:1056800092E0E4CE81EE92E00E94AA0DF0CE8091ED
:105690008104882309F4F2CE8091A7028111EECE15
:1056A0000E946E122091FC043091FD0421153105F9
:1056B00009F4E4CE80E041E050E0082F10E07A01E8
:1056C000082E02C0EE0CFF1C0A94E2F7B701622319
:1056D0007323672B11F48F5FF0CF9091A60290FF98
:1056E0009AC0880F880F880F809330011092330181
:1056F000895F8093310183E08093340124E630E0B8
:1057000047E050E06EE271E088E70E94F12C892BBF
:1057100009F0B4CEA80195E0440F551F9A95E1F722
:105720008091A60280FF89C0E6E8F2E080E2DF0116
:105730001D928A95E9F7E2E9F1E0FE87ED870EE830
:1057400011E087E0982E88248394AD85BE852D9145
:10575000BE87AD87F80141908F01440E552E511C34
:10576000C20182509B4F2C01E22FF0E0EA57FD4F1F
:1057700030E020E0692C621AC82C022E01C0CC0C4B
:105780000A94EAF7520190E0D5018D915D018C21D8
:10579000662D691B6770762E062E000C770BB82FCE
:1057A00001C0BB0F7A94EAF77B2E71956195710960
:1057B0006770772701C086956A95EAF7782A808115
:1057C000782A70829F5F9830F9F62F5F3F4F3196AD
:1057D0002830310579F6ED85FE85E659F14009F06E
:1057E000B4CF04E610E020E230E046E852E060E4A6
:1057F00088E70E94122D892B09F040CEE094F094A6
:105800008091FC049091FD04E822F922F092FD04BD
:10581000E092FC0433CE8295880F8076809330012D
:105820009801369527953695279520933301815E0B
:10583000809331012093340161CF42505B4F04E6E5
:1058400010E020E230E0D3CF81E08ECE81E094CE34
:1058500081E0D3CE81E0D9CE09BD19BD09B400FEE7
:10586000FDCF8091D8008F7D8093D8008091E0009B
:1058700082608093E0008091E00081FDFCCF0E9477
:10588000D217C4CC822B892B09F4DECEDBCE2B3091
:10589000310508F088CEBBCE2B30310508F03ACE6A
:1058A0006DCE1092B9008CE08093B8000895B0E0FE
:1058B000A0E0EDE5FCE20C94142FB82EEB010E9461
:1058C0009F176C01EE24E394F12CC431D10560F0F4
:1058D00025E0E22EF12CCF3FDC0731F0CE0164E170
:1058E00070E00E94F92E7B0184EAA82E94E8992E9C
:1058F0001092BC00A092BC000E949F178C01809166
:10590000BC0087FF0DC08091B900887F8830F9F016
:105910008091B900887F8031D1F00FEF1FEF08C070
:10592000C8010E949017E816F90648F70EEF1FEF1E
:10593000CF3FDC07E9F2C6010E949017C817D907CC
:10594000B8F6C801CDB7DEB7EBE00C94302FB092BB
:10595000BB009092BC000E949F178C018091BC00FC
:1059600087FF0AC08091B900887F883111F08034A8
:10597000A1F610E000E0E5CFC8010E949017E816FC
:10598000F90660F7D3CF0F931F93CF93DF93EB010B
:105990008093BB0084E88093BC000E949F178C0119
:1059A0008091BC0087FF11C02091B900287F81E061
:1059B00090E0283211F490E080E091958195910972
:1059C000DF91CF911F910F910895CF3FDC0741F3F5
:1059D000C8010E949017C817D90710F78EEF9FEFE4
:1059E000EFCFB0E0A0E0E7EFFCE20C94172F6B01E3
:1059F0008A017901B9010E94572CE6010C0D1D1D89
:105A0000C017D10711F097FF08C024E92093BC000C
:105A1000CDB7DEB7E8E00C94332FB70189910E942F
:105A2000C32CEECFB0E0A0E0E8E1FDE20C94172F2C
:105A3000C62F6A017901B8010E94572C97FD0CC04E
:105A4000B8018C2F0E94C32CE601EC0CFD1CCE1576
:105A5000DF0511F097FF08C024E92093BC00CDB703
:105A6000DEB7E8E00C94332FB80189910E94C32C73
:105A7000EECF84E98093BC0008958EE14A9B02C07A
:105A80008150E1F74A9BFECF08955A9880E28A95AB
:105A9000F1F75A9A0895FC013BE03A95F1F798E046
:105AA00020E080E031E040E14A95F1F7880F4A9B21
:105AB00002C08160232742E04A95F1F7000040E1EF
:105AC0004A95F1F7915079F790E19A95F1F799B1EC
:105AD00032E03A95F1F7000040E14A95F1F792FB88
